:100000000C9483000C943D070C943D070C943D0721
:100010000C94E5060C940A030C9464040C943D07BC
:100020000C9469060C943D070C943D070C943D0715
:100030000C943D070C943D070C943D070C943D0730
:100040000C943D070C943D070C943D070C943D0720
:100050000C943D070C943D070C943D070C943D0710
:100060000C942E040C943D070C943D070C943D0712
:100070000C943D070C943D070C94F8030C943D0739
:100080000C943D070C943D070C943D070C94850699
:100090000C943D070C943D070C943D070C943D07D0
:1000A0000C943D070C943D070C943D070C943D07C0
:1000B0000C943D070C9449030C9477060C943D076F
:1000C0000C943D070C943D070C943D070C943D07A0
:1000D0000C943D070C943D070C943D070C943D0790
:1000E0000C943D070C943D070C943D070C943D0780
:1000F0000C943D07400040068040064015000E8EDF
:1001000040154039800011241FBECFEFCDBFDFE77F
:10011000DEBFE4EFF0E041E019C0B791A79137915D
:100120002791079107FD0EC097918791EF01F92F55
:10013000E82F0BBF07900D92A217B307D9F7FE0166
:100140001BBE04C01D92A217B307E1F7E530F40708
:0E01500021F70E9484020C94AD00F894FFCFBA
:10015E00EF06DB06F806870586033A070A076405ED
:02016E005A062F
:100170000F931F93CF93DF930E94C10340E054E09D
:10018000FA01108220E234E089E0F901808380E402
:1001900094E0FC011082C0E6D4E060E46883A0E84B
:1001A000B4E01C9200EA14E0F8011082FA01148213
:1001B000F9011482FC0114821C8214961C9214977B
:1001C000F8011482FA01108A118A128A138A148A99
:1001D000158A168A178AF901108A118A128A138AD7
:1001E000148A158A168A178AFC01108A118A128AC3
:1001F000138A148A158A168A178A188A198A64E05B
:100200006A8B1B8A1C8A1D8A1E8A1F8A50961C9222
:10021000509751961C92519752961C925297539612
:100220001C92539754961C92549755961C9255972E
:1002300056961C92569757961C925797F801108A1B
:10024000118A128A138A148A158A168A178AFA0161
:100250001386168615861486F9011386168615866A
:100260001486FC0113861686158614861B861E8648
:100270001D861C861B961C921B971E961C921E9711
:100280001D961C921D971C961C92F80113861686CB
:1002900015861486E0EEF5E0118611821082148234
:1002A00016821782108681E085831282138212865D
:1002B00080E497E0809331409093324081E497E06E
:1002C00080932F409093304082E497E080932D40BC
:1002D00090932E4083E497E080932B4090932C40A2
:1002E00084E497E08093294090932A4085E497E046
:1002F000809327409093284086E497E080932540A0
:0E03000090932640DF91CF911F910F910895A9
:10030E00CF93DF938091050982FF0CC0E5E1F0E405
:10031E0086E0858783E08487E0E0F9E0858184606C
:10032E00858337C080910709882381F08091050964
:10033E0084FF0CC0E5E1F0E485E0858781E08487E9
:10034E00E0E0F9E085818061858323C08091080912
:10035E00882381F08091050984FF0CC0E5E1F0E46B
:10036E0085E0858782E08487E0E0F9E08581806121
:10037E0085830FC08091050983FF0BC0E5E1F0E492
:10038E0086E0858783E08487E0E0F9E085818860F8
:10039E008583C5E1D0E48D8590E0880F991F092EE5
:1003AE00000CAA0B825A9E4FAF4FFC015A2F0E948F
:1003BE000107FB0109958D878C85882329F0E09133
:0E03CE002340F09124400995DF91CF910895CE
:1003DC00CF93DF930E94AE06882309F443C080912B
:1003EC00050984FF0CC08091050986FF08C0809127
:1003FC00050982FD04C08091050983FF07C0809127
:10040C00050982FD03C08091050983FD0E948701C7
:10041C0080910509882324F08091050986FF22C06C
:10042C008091050984FD08C08091050982FD04C0F6
:10043C008091050983FF03C00E94870113C0C5E1A9
:10044C00D0E48D8590E0880F991F092E000CAA0B23
:10045C00825A9E4FAF4FFC015A2F0E940107FB019D
:0A046C0009958D87DF91CF91089567
:1004760040E068ED80E690E00E94310740E068EDDC
:1004860081E690E00E94310740E068ED85E690E065
:100496000E94310740E068ED88E790E00E9431074E
:1004A6004CE068ED88E690E00E94310740E068ED98
:1004B60089E690E00E94310740E068ED80E790E031
:1004C6000E94310740E068ED8CE790E00E9431071A
:1004D60040E068ED82E690E00E94310740E068ED7A
:1004E60083E690E00E94310740E068ED84E690E004
:1004F6000E94310740E068ED80E890E00E943107F5
:02050600089556
:10050800CF93DF93CDB7DEB72897CDBFDEBF0E946C
:10051800170681E08093020982E08093E50588EE62
:1005280093E00E94C6060E94F0040E94C80281114E
:100538000EC00F2EF7E2EF2EF4E0FF2EF02D18E09C
:10054800F701108384EF91E00E94C606F9CF0F2EC1
:10055800F5E2EF2EF4E0FF2EF02D18E00F2EF6E274
:10056800CF2EF4E0DF2EF02DCE0101960E94440636
:100578008E819F81181619061CF4F701108302C09A
:08058800F60110838895F0CF05
:10059000CF93DF93CDB7DEB72897CDBFDEBF80E026
:1005A0000E943E05882381F186E00E943E05882353
:1005B00059F181E090E00E94C6060E941705882349
:1005C000C1F3CE0101960E94FF058823E9F02A813C
:1005D0003B812A563F4F2D32314018F0000080E019
:1005E00013C02C813D812A563F4F2D32314018F0E7
:1005F000000080E009C02E813F8120553B4F21340F
:10060000364010F0000080E02896CDBFDEBFDF91BD
:04061000CF910895E9
:100614001F920F920FB60F9211240BB60F922F93C5
:100624003F934F935F936F937F938F939F93AF9376
:10063400BF93EF93FF938091430180FF07C0E09144
:100644003740F0913840309709F009958091430183
:1006540081FF07C0E0913540F0913640309709F0B2
:10066400099583E080934301FF91EF91BF91AF918E
:100674009F918F917F916F915F914F913F912F91B6
:0E0684000F900BBE0F900FBE0F901F90189599
:100692001F920F920FB60F9211240BB60F922F9347
:1006A2003F934F935F936F937F938F939F93AF93F8
:1006B200BF93EF93FF93399B05C0E0913140F091D6
:1006C20032400995389B05C0E0912F40F0913040AF
:1006D20009953B9B05C0E0912540F0912640099584
:1006E2008FEF87B9FF91EF91BF91AF919F918F915A
:1006F2007F916F915F914F913F912F910F900BBE20
:0A0702000F900FBE0F901F90189586
:10070C0080911E4090911F40019731F4E0E0F9E098
:10071C0084818460848305C0E0E0F9E084818B7F70
:10072C008483E5E1F0E48185928501978187928746
:10073C00892B79F0A781B085CD01019687839087AD
:10074C00E0E0F9E080858C9384818260848384E08E
:10075C000895E5E1F0E4A781B085CD01019687838A
:10076C009087E0E0F9E080858C93848184608483B9
:06077C000E9464050895CF
:10078200E0E1F4E0808188608193E83184E0F80759
:10079200C9F7E0E3F4E0808188608193E83384E084
:1007A200F807C9F7E0E5F4E0808188608193E835D5
:1007B20084E0F807C9F7E0E7F4E08081886081937C
:1007C200E83784E0F807C9F7E0E9F4E0808188605F
:1007D2008193E83984E0F807C9F7E0EBF4E080811F
:0E07E20088608193E83B84E0F807C9F708952A
:1007F0001F920F920FB60F9211240BB60F922F93E8
:100800003F934F935F936F937F938F939F93AF9398
:10081000BF93EF93FF935B9B05C0E0912940F0915C
:100820002A4009955A9B05C0E0912740F091284045
:1008300009958FEF8BB9FF91EF91BF91AF919F9188
:100840008F917F916F915F914F913F912F910F9079
:0C0850000BBE0F900FBE0F901F9018956C
:10085C001F920F920FB60F9211240BB60F922F937B
:10086C003F934F935F936F937F938F939F93AF932C
:10087C00BF93EF93FF937A9B05C0E0912D40F091CD
:10088C002E4009957E9B05C0E0912B40F0912C40A9
:10089C0009958FEF8FB9FF91EF91BF91AF919F9118
:1008AC008F917F916F915F914F913F912F910F900D
:0C08BC000BBE0F900FBE0F901F90189500
:1008C8001F920F920FB60F9211240BB60F922F930F
:1008D8003F934F935F936F937F938F939F93AF93C0
:1008E800BF93EF93FF93E0913340F09134403097FA
:1008F80009F0099581E080935301FF91EF91BF9131
:10090800AF919F918F917F916F915F914F913F919F
:100918002F910F900BBE0F900FBE0F901F90189540
:10092800CF92DF92EF92FF920F931F93CF93DF93B3
:100938006C017B018A010E94AE06811115C0C5E1D8
:10094800D0E481E08883C982DA821B86EB82FC824C
:100958000D831E831F82188619861A861C860E949C
:10096800F8068D8781E001C080E0DF91CF911F916B
:0C0978000F91FF90EF90DF90CF9008955A
:10098400CF92DF92EF92FF920F931F93CF93DF9357
:100994006C017B018A010E94AE06811115C0C5E17C
:1009A400D0E481E08883C982DA821B86EF82F886EC
:1009B40009871A871B821C821D821E821C860E9444
:1009C400DB068D8781E001C080E0DF91CF911F912C
:0C09D4000F91FF90EF90DF90CF900895FE
:1009E000CF93DF9300D0CDB7DEB781E1898386E076
:1009F0008A8342E050E0BE016F5F7F4F8CE090E061
:100A00000E949404982F811103C00BC00E94EE0134
:100A10000E94AE068111FACF0E942C0791E081114D
:0E0A200090E0892F0F900F90DF91CF910895F5
:100A2E001F93CF93DF931F92CDB7DEB7198241E0AC
:100A3E0050E0BE016F5F7F4F8CE090E00E94C204D9
:100A4E00182F811103C00DC00E94EE010E94AE0648
:100A5E00182F8111F9CF0E942C07811102C0198124
:0E0A6E001170812F0F90DF91CF911F9108958D
:100A7C00CF93DF9300D0CDB7DEB790E199838A8313
:100A8C0042E050E0BE016F5F7F4F8CE090E00E942F
:100A9C009404982F811103C00BC00E94EE010E9498
:100AAC00AE068111FACF0E942C0791E0811190E0E3
:0C0ABC00892F0F900F90DF91CF910895CB
:100AC800E0E0F9E0848183608483A5E1B0E41C92CE
:100AD8008FEF90E011968D939C93129713961D9229
:100AE8001C92149717961D921C9218971D961C928B
:100AF8008581806C858383818F7383838581816001
:060B0800858380E00895E2
:100B0E0080911A4090911B40892B91F0E5E1F0E421
:100B1E0085819681019785839683A381B481CD01CA
:100B2E000196838394838C918093080983E00895C2
:100B3E0080912040882321F01092204081E008957A
:060B4E000E9464050895F9
:100B5400E0E4F1E081818111FDCFE0E4F1E08FEF89
:100B64009FE784879587108611868FEF9FEF828792
:100B740093871782128281E0808381898111FDCF5E
:100B8400E0E4F1E081E0828B89E4808B80E00895E9
:100B94000E942007E0E0F7E083E0828381E0818324
:100BA400878782E2838B128A85E0808B8FE7848B30
:100BB400138E128E92E0908F848F13A212A290A3B0
:080BC40084A30E941A070895A2
:100BCC00E0E0F9E0108212828FE0868381E083837B
:100BDC0015821782148210868481886084838581B3
:100BEC00816085838FE397E080932340909324402A
:020BFC0008955A
:100BFE0048E050E0BC018CE090E00E94C204982FC7
:100C0E00811103C00BC00E94EE010E94AE0681113D
:100C1E00FACF0E942C0791E0811190E0892F089560
:100C2E000E94B8000E943B020E94D1060E94E60577
:100C3E000E9436070E94CA050E94AA050E949306CA
:0E0C4E000E942E060E9412070E94A106089521
:100C5C00E0E6F8E083E896E080879187158280ECE7
:100C6C00868383E08783138614861686158686E032
:0C0C7C0090E480930240909303400895A0
:100C8800CF93DF93EC0181E00E943E05882359F061
:100C980081E090E00E94C6060E9417058823C1F3F0
:0C0CA800CE010E94FF05DF91CF9108955E
:100CB400E0E0F9E083818E7F838383818160838395
:0E0CC4008581816085831092154080E008953F
:100CD2001F920F920FB60F9211248F938FEF83B949
:0C0CE2008F910F900FBE0F901F9018957F
:100CEE001F920F920FB60F9211248F938FEF83BB2B
:0C0CFE008F910F900FBE0F901F90189563
:100D0A001F920F920FB60F9211248F938FEF87BB0A
:0C0D1A008F910F900FBE0F901F90189546
:100D260043E068ED80E590E00E94310740E068ED21
:0C0D360081E590E00E94310780E0089504
:100D420040E068ED80E191E00E943107E0E1F1E0EE
:0A0D520012821382789480E0089565
:100D5C0080911540811105C08091050980958170A5
:080D6C0001C081E081700895CF
:100D7400CF93C82F0E9426078823E1F3C09362080B
:080D840080E090E0CF9108959A
:100D8C00009741F0E7EEF3E03197F1F700C0000077
:060D9C000197C1F7089564
:100DA200E0EAF6E080EC90EE8283938381EC80832C
:040DB20080E0089540
:100DB6008091164090911740880F816080930709B3
:040DC60084E0089528
:100DCA001F920F920FB60F9211240F900FBE0F9021
:040DDA001F901895B9
:100DDE0010921540E0E0F9E085818160858388E01E
:020DEE00089566
:100DF0008091164090911740880F8093070983E0F7
:020E0000089553
:100E020057FD04C05BBF679177910895619171911D
:020E1200089541
:100E1400E0E0F9E08581806C85830E945A0608959C
:100E2400E0EBF0E01482108281E0828380E0089598
:0C0E3400E0E0F7E0808181608083089599
:0C0E4000E0E0F7E080818E7F8083089561
:0C0E4C008091640885FB882780F90895D8
:0A0E5800E5E1F0E4848514860895B6
:0A0E62001BBEFC0164BF408308952D
:080E6C001092C00080E008951F
:060E74000E9464050895D0
:040E7A000C940000D4
:020E7E000895D5
:020E80000895D3
:020E82000895D1
:020E84000895CF
:020E86000895CD
:020E88000895CB
:020E8A000895C9
:020E8C000895C7
:0F0E8E00000000000200000000BA060000000093
:02000004008278
:090000000000000000C00800002F
:00000001FF
