:100000000C9421010C9459240C9459240C945924D7
:100010000C941E1C0C94EA1B0C94501C0C94592438
:100020000C9486220C9459240C9459240C94592431
:100030000C9459240C9459240C9459240C9459244C
:100040000C9459240C9459240C9459240C9459243C
:100050000C9459240C9459240C9459240C9459242C
:100060000C94E01C0C9459240C9459240C9459249D
:100070000C9459240C9459240C9494220C945924D3
:100080000C9459240C9459240C9459240C94B022A7
:100090000C9459240C9459240C94821C0C945924CB
:1000A0000C9459240C9459240C9459240C945924DC
:1000B0000C9459240C94141B0C94A2220C945924D3
:1000C0000C9459240C9459240C9459240C945924BC
:1000D0000C9459240C94B11C0C9459240C9459245C
:1000E0000C9459240C9459240C9459240C9459249C
:1000F0000C945924320850085F08710834094E09DD
:10010000410A6A0A730A0C0B1D0B2C0B40004308B2
:10011000804308432C0048BC432C433E80433E436D
:10012000460048E0434643A88043A843AA0048E865
:1001300043AA43B38043B343B400083F43B443B638
:100140000048EA43B643BE8000407A10F35A00A04C
:10015000724E18090010A5D4E80000E87648170090
:1001600000E40B54020000CA9A3B000000E1F505D0
:10017000000080969800000040420F000000A0861A
:1001800001000000102700000000E803000000004C
:100190006400000000000A000000000001000000F0
:1001A00000002C76D888DC674F0823DFC1DFAE590A
:1001B000E1B1B796E5E3E453C63AE651997696E89D
:1001C000E6C28426EB898C9B62ED407C6FFCEFBC21
:1001D0009C9F40F2BAA56FA5F490055A2AF75C934C
:1001E0006B6CF9676DC11BFCE0E40D47FEF520E682
:1001F000B500D0ED902E0300943577050080841E65
:10020000080000204E0A000000C80C333333330FBF
:10021000986E12831141EF8D2114893BE65516CF5C
:10022000FEE6DB18D1844B381BF77C1D901DA4BB68
:10023000E424203284725E228100C9F124ECA1E51D
:100240003D2711241FBECFEFCDBFDFE7DEBFECE0BF
:10025000F1E041E019C0B791A7913791279107913B
:1002600007FD0EC097918791EF01F92FE82F0BBF83
:1002700007900D92A217B307D9F7FE011BBE04C069
:100280001D92A217B307E1F7E834F40721F70E94A3
:0A029000ED1D0C944B01F894FFCF14
:10029A00496E697469616C697A696E67204D4C5858
:1002AA003930333932204D61676E65746F6D65740C
:1002BA0065722053656E736F722E2E2E0046414969
:1002CA004C45440D0A0043414C204241440D0A006A
:1002DA004F4B0D0A004D61782056616C75653A20C6
:1002EA00256C752C20437261636B65643A20256C1A
:1002FA00752C20666F756E6420256C750D0A003C9E
:10030A005468726573686F6C6420457863656564C8
:10031A0065643E202D2000416C61726D204241448B
:10032A000A00416C61726D204F4B0A005B455252C4
:10033A005D204661696C656420746F206368616E34
:10034A006765204D4C583930333932206F706572E9
:10035A006174696E67206D6F64652E0D0A004265CF
:10036A0067696E6E696E67206F70656E2077696E59
:10037A00646F772063616C6962726174696F6E2E53
:10038A000D0A005A65726F696E6720436F6D706C53
:10039A006574652E20585F6F6666203D2025642CA3
:1003AA0020595F6F6666203D2025642C205A5F6FB6
:1003BA0066663D2025640D0A00426567696E6E69AE
:1003CA006E6720636C6F7365642077696E646F77FC
:1003DA002063616C6962726174696F6E2E0D0A0026
:1003EA005363616C696E6720436F6D706C657465E9
:1003FA00642E20585F7363616C6520203D20325E55
:10040A0025642C20595F7363616C65203D20325E40
:10041A0025642C205A5F7363616C65203D20325E2F
:10042A0025640D0A005B4552525D2053656E736F59
:10043A00722076616C75652069732062656C6F77CE
:10044A00206E6F697365206D617267696E2C20700A
:10045A006C6561736520636C6F73652074686520D1
:10046A0077696E646F7720616E642070726573734A
:10047A002074686520627574746F6E20746F2072C0
:10048A00657472792E0D0A00426567696E6E696E2F
:10049A00672077696E646F77207468726573686F16
:1004AA006C642063616C6962726174696F6E2E0D8F
:1004BA000A005B5741524E5D205468726573686F3B
:1004CA006C642069732062656C6F77206E6F697344
:1004DA0065206D617267696E2E2053656E736F7247
:1004EA00206D6179206E6F74206F7065726174651A
:1004FA0020636F72726563746C792E0D0A005468FA
:10050A00726573686F6C642063616C69627261748E
:10051A00696F6E20636F6D706C6574652E20546808
:10052A00726573686F6C643A20256C750D0A004316
:10053A00616C6962726174696F6E20436F6D706C71
:10054A00657465642E0D0A004D61676E65746F6D82
:10055A00657465722053656E736F72204572726F8F
:10056A0072202D205265626F6F742044657669632C
:10057A00650D0A00004F70656E2074686520776902
:10058A006E646F7720616E64207072657373207475
:10059A00686520627574746F6E20746F207374615D
:1005AA0072742E0D0A00506C6561736520636C6F5E
:1005BA007365207468652077696E646F7720616E51
:1005CA00642074686520707265737320746865208E
:1005DA00627574746F6E20746F20636F6E74696EC7
:1005EA0075652E0D0A00506C65617365206F706524
:1005FA006E207468652077696E646F7720746F2047
:10060A0074686520646573697265642074687265CC
:10061A0073686F6C642C207468656E2070726573E1
:10062A00732074686520627574746F6E2E0D0A00EB
:10063A005B4552525D2057696E646F77206973205B
:10064A00746F6F206F70656E2E20506C65617365D4
:10065A0020636C6F7365207468652077696E646FB8
:10066A007720616E642070726573732074686520E8
:10067A00627574746F6E20746F2072657472792E4D
:10068A000D0A00506C6561736520636C6F73652099
:10069A007468652077696E646F7720616E64207074
:1006AA00726573732074686520627574746F6E2046
:0D06BA00746F2066696E6973682E0D0A006A
:1006C700496E697469616C697A696E67204D4C5827
:1006D70039303633322054656D70657261747572C6
:1006E700652053656E736F722E2E2E000D0A4C6FA8
:1006F700616465642063616368656420636F6E731A
:1007070074616E747320616E642073657474696EAE
:1007170067732E2E2E000D0A4C6F6164656420638B
:100727006F6E7374616E74732066726F6D2073657C
:100737006E736F7220616E642072657365742074C6
:100747006F2064656661756C74732E2E2E004F4B97
:100757000D0A004641494C45440D0A0053656E7326
:100767006F722054656D70657261747572653A2099
:1007770025322E3266430D0A526F6F6D2054656D18
:1007870070657261747572653A2025322E32664340
:100797000D0A0054656D706572617475726520533A
:1007A700656E736F72204572726F72202D205265CD
:0E07B700626F6F74204465766963650D0A00F9
:1007C500242424002D2D2D004B4F410045786563D1
:1007D5007574696E6720436F6D6D616E643A202292
:1007E50000222E2E2E004F4B0D0A004641494C4546
:1007F500440D0A00496E697469616C697A696E67AE
:1008050020524E343837302E2E2E0D0A00456E7488
:100815006572696E6720436F6D6D616E64204D6F03
:1008250064652E2E2E00532D2C4D4348502D4D4CD6
:02083500580069
:08083700696E66006E616E003F
:01083F0001B7
:100840002F923F924F925F926F927F928F929F92E0
:10085000AF92BF92CF92DF92EF92FF920F931F93CE
:10086000CF93DF93CDB7DEB76497CDBFDEBF6C010A
:100870001A01462E5901FC0117821086848181FFDE
:1008800067C3CE0101968C879D87A0E88A8B9B8BDE
:10089000AC8BF101542D0E94D923862F662309F4D5
:1008A00053C3442D91012F5F3F4F4F4F653219F0D5
:1008B0001901442E0BC0F901542F0E94D923862F11
:1008C00092E0290E311C411C653249F4B60190E0DA
:1008D0000E94691AAE86BF86AE84BF84DACF10E06C
:1008E000F12C00E00032A0F48B3269F030F4803259
:1008F00059F0833269F400612CC08D3239F08033B5
:1009000039F4016026C00260046023C0086021C081
:1009100007FD2AC090ED980F9A3078F406FF06C0C4
:10092000AAE01A9F900D1124192F13C0EAE0FE9E31
:10093000900D1124F92E00620CC08E3221F406FDB8
:1009400003C3006406C08C3611F4006802C0883608
:1009500059F4F101542D0E94D923862FFFEF2F1A4D
:100960003F0A4F0A6111BECF9BEB980F933018F4EA
:100970000061805E06C09BE9980F933008F066C165
:100980000F7E06FF16E00F73702E853621F4202FA0
:100990002064722E08C0863621F4802F8068782E5D
:1009A00002C01111115077FE07C01C3350F4EE2421
:1009B000E394E10E27E00BC0183038F027E017E091
:1009C00005C027E06CE3E62E02C0212FE12CF501E3
:1009D0003496EE87FF87F501608171818281938172
:1009E0000E2DAE014F5F5F4F0E9462105C01598077
:1009F00050FE02C053FE06C071FC06C072FE06C067
:100A000000E205C00DE203C00BE201C000E0852D4D
:100A10008C7019F0011174C2C0C277FE0FC0EA0CCD
:100A200054FE04C08A81813309F4EA941E1474F5DB
:100A300028E02E1578F538E0E32E2CC076FC2AC08D
:100A4000812F90E08A159B059CF08CEFA8168FEF04
:100A5000B80674F0972D9068792E0AC0E2E0F0E0B5
:100A6000EC0FFD1FE10FF11D8081803319F411504F
:100A70001111F4CF77FE0EC0EE24E394E10E812F26
:100A800090E0A816B9062CF41A1904C0EE24E394D9
:100A900001C010E077FE06C01A141B0434F4C5012F
:100AA000019605C085E090E002C081E090E0011170
:100AB0000196112331F0212F30E02F5F3F4F820F3D
:100AC000931F2F2D30E08217930714F4F81A01C0FA
:100AD000F12C872D897049F4FF2039F0B60180E2AE
:100AE00090E00E94691AFA94F7CF002329F0B6012A
:100AF000802F90E00E94691A73FC09C0FF2039F032
:100B0000B60180E390E00E94691AFA94F7CF77FE6D
:100B100049C03501B7FE02C0612C712CC501861990
:100B2000970988248394912C8C0E9D1E880E991E03
:100B3000F501EE19F109E88BF98B012F10E0119501
:100B400001951109FFEF6F167F0629F4B6018EE2B9
:100B500090E00E94691AA614B70444F08889998924
:100B6000861597051CF4F401818101C080E3F1E052
:100B70006F1A71082FEF821A920A601671062CF014
:100B8000B60190E00E94691ADDCFA614B70439F4CB
:100B90009A81963318F4953311F454FE81E3B6012B
:100BA00090E051C08A81813319F0952D9F7E592E96
:100BB000B60190E00E94691A111105C074FC1CC0B6
:100BC00085E690E01BC0B6018EE290E00E94691AB3
:100BD00002E0010F82E011E0180FE1E0F0E0EC0F1D
:100BE000FD1FE80FF11D8081B60190E00E94691A97
:100BF000812F1013F0CFE2CF85E490E0B6010E9480
:100C0000691AB7FC05C0A114B10439F454FE05C03B
:100C1000B194A194B1088DE201C08BE2B60190E0DD
:100C20000E94691A80E3EAE0AE16B1042CF08F5FEF
:100C3000AAE0AA1AB108F7CFB60190E00E94691A9B
:100C4000B601C501C0960E94691A74C1833631F09D
:100C5000833791F0833509F05EC024C0C501029648
:100C60008E879F87F501808189836A887B888C883D
:100C7000AA24A394B12C14C0C50103968E879F8724
:100C8000F50160807180828006FF03C0412F50E033
:100C900002C04FEF5FEF882DB3010E9434205C014A
:100CA0000F7715C0C50103968E879F87F501608079
:100CB0007180828006FF03C0412F50E002C04FEFD9
:100CC0005FEF882DB3010E9434205C01006803FDB2
:100CD0001EC08F2D90E0A816B906C8F4B60180E2B8
:100CE00090E00E94691AFA94F4CFF301582D0E9403
:100CF000D923862FFFEF6F1A7F0A8F0AB60190E083
:100D00000E94691AF110FA9421E0A21AB108A11404
:100D1000B10459F70FC1843611F0893679F5C50150
:100D200007FF09C004968E879F87F5016081718156
:100D3000828193810AC002968E879F87F501608128
:100D40007181072E000C880B990B0F76E02E97FF10
:100D50000AC090958095709561957F4F8F4F9F4FFA
:100D6000F02FF068EF2E2AE030E0AE014F5F5F4FCA
:100D70000E945216A82E2C85A21A4BC0853729F442
:100D80000F7EE02E2AE030E025C0902F997FE92EDB
:100D90008F36C1F018F4883579F0D6C0803719F055
:100DA000883721F0D1C0A92FA061EA2EE4FE0DC042
:100DB000EE2DE460EE2E09C004FF0AC0F92FF660A4
:100DC000EF2E06C028E030E005C020E130E002C090
:100DD00020E132E0C501E7FE09C004968E879F87B7
:100DE000F501608171818281938108C002968E87AE
:100DF0009F87F5016081718180E090E0AE014F5FD7
:100E00005F4F0E945216A82EFC85AF1A2E2D2F7709
:100E1000E22EE6FE0BC00E2D0E7FA11650F4E4FE6E
:100E20000AC0E2FC08C00E2D0E7E05C0BA2C0E2DA5
:100E300003C0BA2C01C0B12E04FF0DC0FE01EA0DA3
:100E4000F11D8081803311F4097E09C002FF06C0C4
:100E5000B394B39404C0802F867809F0B39403FD53
:100E600011C000FF06C0BF1488F4FA0C1F2D1B1917
:100E70000EC0BF1460F4B60180E290E00E94691ACF
:100E8000B394F7CFBF1418F4FB1802C01A2DF12C3D
:100E900004FF10C0B60180E390E00E94691A02FFCF
:100EA00017C001FD03C088E790E002C088E590E02C
:100EB000B6010CC0802F867859F001FF02C08BE28A
:100EC00001C080E207FD8DE2B60190E00E94691A40
:100ED000A11638F4B60180E390E00E94691A11501F
:100EE000F7CFAA94E1E0F0E0EC0FFD1FEA0DF11D51
:100EF0008081B60190E00E94691AA110F2CF1AC059
:100F0000F4E0FF1588F584E0F81A73FE24C001119F
:100F10002CC053FE30C05BE3852E58E0952E50E088
:100F2000A52E072D0071F4015A2D0E94D923862F7A
:100F3000611128C0FF2009F4CFCCB60180E290E017
:100F40000E94691AFA94F6CFF601878190852CC029
:100F50008FEF9FEF29C0B60180E290E00E94691AEE
:100F6000FA94F110F8CFD3CFF12CB601802F90E096
:100F70000E94691ACECF47E3842E48E0942E40E0C9
:100F8000A42ECFCF01118052B60190E00E94691AC1
:100F9000FFEF8F1A9F0AAF0AC6CF23E02F1510F478
:100FA00083E0B2CFF12CB5CF6496CDBFDEBFDF9129
:100FB000CF911F910F91FF90EF90DF90CF90BF9056
:100FC000AF909F908F907F906F905F904F903F90E9
:040FD0002F900895C1
:100FD4004F925F926F927F928F929F92AF92BF9245
:100FE400CF92DF92EF92FF92CF93DF93CDB7DEB72C
:100FF4002597CDBFDEBFDC019091AE43993130F02F
:1010040088E0809327041092AE4303C09F5F9093BF
:10101400AE43FB01C184D284E384F48440918E43C3
:1010240050918F4360919043709191434C155D05AD
:101034006E057F0540F4C0928E43D0928F43E092B8
:101044009043F0929143E091B7434E2F50E04C30DF
:10105400510508F001C3FA01E658FF4F0C945A23D6
:101064001092AD4381E08093B74310928A4310926B
:101074008B4310928C4310928D43109286431092AE
:1010840087431092884310928943109282431092AE
:1010940083431092844310928543EDC28AE00E94F8
:1010A4002424882321F082E08093B743D5C266E3E9
:1010B40073E080E00E943F18CFC28091B24388233E
:1010C40009F4CAC268E673E080E00E94881883E0ED
:1010D4008093B7431092A0431092A143BDC2809164
:1010E400A0439091A1439C012F5F3F4F2093A043C5
:1010F4003093A14311964D915C911297052E000CEB
:10110400660B770BC0908A43D0908B43E0908C435E
:10111400F0908D43CB01BA016C0D7D1D8E1D9F1D7A
:1011240060938A4370938B4380938C4390938D4355
:1011340013968D909C901497092C000CAA08BB0858
:10114400C0908643D0908743E0908843F0908943D1
:101154008C0C9D1CAE1CBF1C8092864390928743CE
:10116400A0928843B09289431596CD90DC9016974F
:101174000D2C000CEE08FF084090824350908343EE
:101184006090844370908543C40CD51CE61CF71C06
:10119400C0928243D0928343E0928443F092854389
:1011A400283E334008F458C20F2EF8EE4F2EF3E0D9
:1011B4005F2E612C712CF02DA30192010E94CE2090
:1011C400CA01B9010E942E1A0E944B1F0E94B62325
:1011D40069837D836093A6437093A743C501B401DB
:1011E400A30192010E94CE20CA01B9010E942E1AC5
:1011F4000E944B1F0E94B623B62EA72E6093A443D1
:101204007093A543C701B601A30192010E94CE20A9
:10121400CA01B9010E942E1A0E944B1F0E94B623D4
:10122400F62EE72E6093A2437093A3430E944D24AD
:10123400EF92FF92AF92BF923D813F9349814F93CA
:101244002DE833E040E04F933F932F939F938F9388
:101254000E94C31D0E940F1D84E08093B743CDBF3D
:10126400DEBFFAC18091B243882309F4F5C110921C
:101274008E4310928F43109290431092914363ECEB
:1012840073E080E00E94881885E08093B743109251
:10129400A0431092A143E0C18091A0439091A14347
:1012A400FC013196E093A043F093A14311964D9134
:1012B4005C9112972091A6433091A743421B530B94
:1012C400052E000C660B770BC0908A43D0908B439D
:1012D400E0908C43F0908D43CB01BA016C0D7D1DE1
:1012E4008E1D9F1D60938A4370938B4380938C4320
:1012F40090938D4313968D909C9014972091A443C2
:101304003091A543821A930A092C000CAA08BB0841
:10131400C0908643D0908743E0908843F0908943FF
:101324008C0C9D1CAE1CBF1C8092864390928743FC
:10133400A0928843B09289431596CD90DC9016977D
:101344002091A2433091A343C21AD30A0D2C000C5E
:10135400EE08FF084090824350908343609084439A
:1013640070908543C40CD51CE61CF71CC0928243C4
:10137400D0928343E0928443F0928543E83EF34065
:1013840008F46AC10F2EF8EE4F2EF3E05F2E612CA5
:10139400712CF02DA30192010E94CE20CA01B90143
:1013A4000E942E1A0E944B1F0E94B62369837A83DF
:1013B4008B839C8360938A4370938B4380938C4389
:1013C40090938D43C501B401A30192010E94CE20E4
:1013D400CA01B9010E942E1A0E944B1F0E94B62313
:1013E4004B015C01609386437093874380938843E9
:1013F40090938943C701B601A30192010E94CE20B4
:10140400CA01B9010E942E1A0E944B1F0E94B623E2
:101414002B013C0160938243709383438093844304
:101424009093854389819A810E94B321F82E8093F9
:10143400B543C4010E94B321E82E8093B443C20192
:101444000E94B321D82E8093B3430E944D241F924F
:10145400DF921F92EF921F92FF922AEE33E040E058
:101464004F933F932F939F938F930E94C31D0E948A
:101474000F1D86E08093B743CDBFDEBFEDC0F9E218
:10148400CF16D104E104F10448F46FE274E080E083
:101494000E943F1887E08093B743DEC08091B24337
:1014A400882309F4D9C062E974E080E00E948818B6
:1014B4001092A0431092A14310927E4310927F4356
:1014C400109280431092814388E08093B743C4C054
:1014D4008091B243882309F4BFC086E08093B74368
:1014E400BBC08091A0439091A1439C012F5F3F4FCB
:1014F4002093A0433093A14340917E4350917F4376
:101504006091804370918143CB01BA016C0D7D1DC4
:101514008E1D9F1D60937E4370937F438093804311
:1015240090938143283E334008F496C028EE33E07C
:1015340040E050E00E94CE20CA01B9010E942E1A58
:101544000E944B1F0E943E1D6093924370939343ED
:101554008093944390939543683271058105910576
:1015640028F46CEB74E080E00E943F186091924391
:101574007091934380919443909195430E942C1AC7
:101584002DEC3CEC4CE85FE30E9443240E944B1F8B
:101594000E943E1DF62EE72ED82EC92E609392434C
:1015A40070939343809394439093954360918E43B7
:1015B40070918F4380919043909191430E942C1A93
:1015C4002DEC3CEC4CE85FE30E9443240E944B1F4B
:1015D4000E943E1D60938E4370938F43809390438B
:1015E400909391430E944D24CF92DF92EF92FF9209
:1015F40028E035E040E04F933F932F939F938F93E0
:101604000E94C31D0E940F1D89E08093B743CDBF84
:10161400DEBF22C08091B2438823F1F069E375E014
:1016240080E00E9488188AE08093B7431092AE430A
:101634000E94B01611C082E00E942424882321F065
:101644008BE08093B74308C066E373E080E00E94B8
:101654003F1802C01092B7432091AD438091B74325
:10166400281309C080919E4390919F438032A3E048
:101674009A07C0F0822F90E0FC01EE0FFF1F8E0F3F
:101684009F1FFC01E85FFC4B6081718182810E9495
:1016940088188091B7438093AD4310929E43109273
:1016A4009F4305C0019680939E4390939F43259644
:1016B400CDBFDEBFDF91CF91FF90EF90DF90CF9051
:1016C400BF90AF909F908F907F906F905F904F905E
:0216D400089577
:1016D600CF92DF92EF92FF921F93CF93DF93CDB716
:1016E600DEB76897CDBFDEBF88E393E40E94A51AF4
:1016F600182F882309F41AC240E1BE016F5F7F4F9D
:101706008CE094E20E94BE22882309F40AC22B814F
:101716006C81862F90E0A0E0B0E0DC019927882755
:10172600B22B2A81AC01BD01422B898190E0982F12
:101736008827A0E0B0E06A017B01C82AD92AEA2AF4
:10174600FB2AC701B6010E942E1A20E030E040E8CD
:101756005BE30E94432460937A4370937B438093B8
:101766007C4390937D432F816885862F90E0A0E08F
:10177600B0E0DC0199278827B22B2E81AC01BD0190
:10178600422B8D8190E0982F8827A0E0B0E06A0177
:101796007B01C82AD92AEA2AFB2AC701B6010E9478
:1017A6002E1A20E030E040E855E30E94432460937F
:1017B60076437093774380937843909379432B8550
:1017C6006C85862F90E0A0E0B0E0DC0199278827A1
:1017D600B22B2A85AC01BD01422B898590E0982F5A
:1017E6008827A0E0B0E06A017B01C82AD92AEA2A44
:1017F600FB2AC701B6010E942E1A20E030E040E81D
:1018060059E20E944324609372437093734380931A
:101816007443909375432F856889862F90E0A0E0E6
:10182600B0E0DC0199278827B22B2E85AC01BD01DB
:10183600422B8D8590E0982F8827A0E0B0E06A01C2
:101846007B01C82AD92AEA2AFB2AC701B6010E94C7
:101856002E1A20E030E040E85BE30E9443246093C8
:101866006E4370936F43809370439093714348E146
:10187600BE016F5F7F4F84E294E20E94BE228823FE
:1018860009F451C12B816C81862F90E0A0E0B0E075
:10189600DC0199278827B22B2A81AC01BD01422B96
:1018A600898190E0982F8827A0E0B0E06A017B014B
:1018B600C82AD92AEA2AFB2AC701B6010E942E1A8B
:1018C60020E030E040E857E30E94432460936A43F7
:1018D60070936B4380936C4390936D432F8168851F
:1018E600862F90E0A0E0B0E0DC0199278827B22B94
:1018F6002E81AC01BD01422B8D8190E0982F882767
:10190600A0E0B0E06A017B01C82AD92AEA2AFB2AAC
:10191600C701B6010E942E1A20E030E040E85BE3E2
:101926000E944324609366437093674380936843A1
:10193600909369432B856C85862F90E0A0E0B0E0FC
:10194600DC0199278827B22B2A85AC01BD01422BE1
:10195600898590E0982F8827A0E0B0E06A017B0196
:10196600C82AD92AEA2AFB2AC701B6010E942E1ADA
:1019760020E030E040E858E20E944324609362434E
:101986007093634380936443909365432F8568897E
:10199600862F90E0A0E0B0E0DC0199278827B22BE3
:1019A6002E85AC01BD01422B8D8590E0982F8827AE
:1019B600A0E0B0E06A017B01C82AD92AEA2AFB2AFC
:1019C600C701B6010E942E1A20E030E040E85DE231
:1019D6000E94432460935E4370935F438093604309
:1019E600909361432B896C89862F90E0A0E0B0E04C
:1019F600DC0199278827B22B2A89AC01BD01422B2D
:101A0600898990E0982F8827A0E0B0E06A017B01E1
:101A1600C82AD92AEA2AFB2AC701B6010E942E1A29
:101A260020E030E040E85DE20E94432460935A43A0
:101A360070935B4380935C4390935D436D8970E044
:101A4600762F66278E89682B072E000C880B990B3C
:101A56000E942E1A20E030E040E85AE30E94432418
:101A660060935643709357438093584390935943DA
:101A76006F8970E0762F6627888D682B072E000CFD
:101A8600880B990B0E942E1A20E030E040E85AE3BA
:101A96000E9443246093524370935343809354436C
:101AA6009093554344E0BE016F5F7F4F81E894E217
:101AB6000E94BE228823C9F1698170E0762F6627CD
:101AC6008A81682B072E000C880B990B0E942E1A10
:101AD60020E030E040E858E30E94432460934E4300
:101AE60070934F4380935043909351436B8170E0C2
:101AF600762F66278C81682B072E000C880B990B96
:101B06000E942E1A20E030E040E85AE30E94432467
:101B160060934A4370934B4380934C4390934D4359
:101B260005C010E003C010E001C010E0812F6896E8
:101B3600CDBFDEBFDF91CF911F91FF90EF90DF9079
:041B4600CF9008959F
:101B4A004F925F926F927F928F929F92AF92BF92C3
:101B5A00CF92DF92EF92FF92CF93DF93CDB7DEB7AA
:101B6A006197CDBFDEBF8091AA43823029F0809170
:101B7A00AA43813009F08DC1609136437091374391
:101B8A00072E000C880B990B0E942E1A4B015C0140
:101B9A006091304370913143072E000C880B990BEA
:101BAA000E942E1A20E030E040E451E40E943F24D3
:101BBA006B017C0120915643309157434091584321
:101BCA00509159430E944324A50194010E94B023D5
:101BDA009B01AC01C701B6010E943F2420E030E01E
:101BEA0040E059E40E94432469837A838B839C836F
:101BFA008091AA438130A9F4ECE2F3E46081718117
:101C0A0082819381680F791F072E000C880B990B2C
:101C1A000E942E1A20E030E040E05FE30E94432455
:101C2A0014C0ECE2F3E46681778180859185680FC0
:101C3A00791F072E000C880B990B0E942E1A20E0A0
:101C4A0030E040E05FE30E94432420E030E040E4DB
:101C5A0051E40E943F242B013C01209152433091D0
:101C6A0053434091544350915543C701B6010E94D2
:101C7A004324A50194010E94B0239B01AC01C30136
:101C8A00B2010E943F2420E030E040E059E40E9483
:101C9A0043246D837E838F83988720917A43309182
:101CAA007B4340917C4350917D4369817A818B814A
:101CBA009C810E94AF234B015C01209176433091B5
:101CCA00774340917843509179430E943F24209171
:101CDA006E4330916F4340917043509171430E941B
:101CEA00B0232B013C01A5019401C501B4010E9456
:101CFA00432420917243309173434091744350912D
:101D0A0075430E9443249B01AC01C301B2010E94A6
:101D1A00B0232B013C0160933E4370933F43809371
:101D2A0040439093414323E333E948E853E40E9454
:101D3A00B0234B015C0120914E4330914F434091B7
:101D4A005043509151436091624370916343809133
:101D5A006443909165430E94432469837A838B8309
:101D6A009C8380915A4390915B43A0915C43B091CC
:101D7A005D4389879A87AB87BC8720E030E048ECCF
:101D8A0051E4C301B2010E94AF2320915E43309116
:101D9A005F4340916043509161430E9443246D87A1
:101DAA007E878F87988BA5019401C501B4010E9493
:101DBA004324A50194010E944324A50194010E9491
:101DCA0043242B013C01C0904A43D0904B43E090FE
:101DDA004C43F0904D4393E0B0E0A0E0F8ECE1E42E
:101DEA00998B20E030E048EC51E46B2F7A2F8F2F4B
:101DFA009E2F0E94AF2329853A854B855C850E94D8
:101E0A00432420E030E040E85FE30E94B0232D85C0
:101E1A003E854F8558890E94B02329813A814B819A
:101E2A005C810E9443249B01AC016D817E818F817C
:101E3A0098850E943F244B015C01A3019201C501D0
:101E4A00B4010E94B0230E9460190E94601923E322
:101E5A0033E948E853E40E94AF23A70196010E94A0
:101E6A00AF23A989A150A98BB62FA72FF82FE92F45
:101E7A0029892111B6CFC62ED72EE82EF92EC09267
:101E8A004243D0924343E0924443F092454381E077
:101E9A0001C080E06196CDBFDEBFDF91CF91FF9098
:101EAA00EF90DF90CF90BF90AF909F908F907F90F0
:081EBA006F905F904F900895B6
:101EC2008F929F92AF92BF92CF92DF92EF92FF9248
:101ED2001F93CF93DF9300D0CDB7DEB788E393E4AF
:101EE2000E94A51A182F882309F4DCC080E094E12F
:101EF2000E943E236C0182E094E10E943E235C0139
:101F020084E094E10E943E234C017601EA24FB2402
:101F1200E826F9268AE394E10E943E2389839A8384
:101F220089819A81E816F90609F0B5C08091384393
:101F320090913943C816D90609F0AFC080913A434F
:101F420090913B43A816B90609F0A9C080913C4381
:101F520090913D438816990609F0A3C086E094E16A
:101F62000E94C62160937A4370937B4380937C43A3
:101F720090937D438AE094E10E94C6216093764368
:101F82007093774380937843909379438EE094E102
:101F92000E94C6216093724370937343809374438B
:101FA2009093754382E194E10E94C62160936E434F
:101FB20070936F43809370439093714386E194E1F1
:101FC2000E94C62160936A4370936B4380936C4373
:101FD20090936D438AE194E10E94C6216093664327
:101FE2007093674380936843909369438EE194E1D1
:101FF2000E94C6216093624370936343809364435B
:102002009093654382E294E10E94C62160935E430D
:1020120070935F43809360439093614386E294E1BF
:102022000E94C62160935A4370935B4380935C4342
:1020320090935D438AE294E10E94C62160935643E5
:102042007093574380935843909359438EE294E19F
:102052000E94C6216093524370935343809354432A
:102062009093554382E394E10E94C62160934E43CC
:1020720070934F43809350439093514386E394E18E
:102082000E94C62160934A4370934B4380934C4312
:1020920090934D4307C010E005C010E003C010E06C
:1020A20001C010E0812F0F900F90DF91CF911F910F
:1020B200FF90EF90DF90CF90BF90AF909F908F9066
:0220C20008957F
:1020C400283008F027E03327DA01990F311D87FD06
:1020D400916000966105710539F432602E5F3D937D
:1020E40030E32A95E1F708959F3F30F08038710579
:1020F400610509F03C5F3C5F3D93913008F08068D6
:10210400911DDF93CF931F930F93FF92EF92192F9B
:10211400987F9695E92F96959695E90FFF27EE55AA
:10212400FE4F99273327EE24FF24A701E7010590EA
:102134000894079428F4360FE71EF81E491F511D12
:10214400660F771F881F991F0694A1F705900794BF
:1021540028F4E70EF81E491F561FC11D770F881F6C
:10216400991F661F0694A1F70590079428F4F80EAA
:10217400491F561FC71FD11D880F991F661F771F40
:102184000694A1F70590079420F4490F561FC71F22
:10219400D81F990F661F771F881F0694A9F784918B
:1021A4001095177041F0D695C79557954795F794B4
:1021B400E7941A95C1F7E8E4F1E068941590159155
:1021C40035916591959105907FE27395E118F10A37
:1021D400430B560BC90BD009C0F7E10CF11E431F8A
:1021E400561FC91FD01D7EF4703311F48A95E6CFB3
:1021F400E894015030F0080F0AF40027021708F49D
:10220400202F2395022F7A3328F079E37D932A95A2
:10221400E9F710C07D932A9589F6069497956795FA
:10222400379517951794E118F10A430B560BC90B10
:10223400D00998F023957E9173957A3308F070E372
:102244007C932013B8F77E9170617D9330F0839571
:1022540071E37D9370E32A95E1F71124EF90FF90E9
:102264000F911F91CF91DF91992787FD9095089544
:10227400CF93DF93C8E3D3E46881798180E094E16C
:102284000E940E226A817B8182E094E10E940E22E8
:102294006C817D8184E094E10E940E2240917A4316
:1022A40050917B4360917C4370917D4386E094E13F
:1022B4000E94B51E409176435091774360917843D4
:1022C400709179438AE094E10E94B51E4091724373
:1022D4005091734360917443709175438EE094E11F
:1022E4000E94B51E40916E4350916F4360917043BC
:1022F4007091714382E194E10E94B51E40916A435A
:1023040050916B4360916C4370916D4386E194E10D
:102314000E94B51E409166435091674360916843A3
:10232400709169438AE194E10E94B51E4091624331
:102334005091634360916443709165438EE194E1ED
:102344000E94B51E40915E4350915F43609160438B
:102354007091614382E294E10E94B51E40915A4318
:1023640050915B4360915C4370915D4386E294E1DC
:102374000E94B51E40915643509157436091584373
:10238400709159438AE294E10E94B51E40915243F0
:102394005091534360915443709155438EE294E1BC
:1023A4000E94B51E40914E4350914F43609150435B
:1023B4007091514382E394E10E94B51E40914A43D7
:1023C40050914B4360914C4370914D4386E394E1AB
:1023D4000E94B51E688179818A819B81682779274B
:1023E4008C819D81682779278AE394E10E940E22DB
:0623F400DF91CF91089576
:1023FA00CF93DF93CDB7DEB76597CDBFDEBF8091B0
:10240A00B143811108C0329B09C081E08093B14376
:10241A008093B24303C0329B1092B1438091B6437A
:10242A008130E9F038F0833009F446C0843009F489
:10243A0047C05AC08091B7438B3021F482E00E9492
:10244A00242403C08AE00E942424882321F081E006
:10245A008093B64365C082E08093B64361C00E9410
:10246A009E20882309F45CC0CE010E960E94302279
:10247A008823E1F0BE016F5F7F4FCE010E960E9466
:10248A0058178091B7438B3049F48091B243811138
:10249A0005C0CE0101960E949B120BC0BE016F5F60
:1024AA007F4FCE010E960E94EA0703C082E0809316
:1024BA00B6431092B24334C084E08093B64330C02E
:1024CA000E94A021882361F080E00E94B314109238
:1024DA00B64382EE94E08093A8439093A94320C028
:1024EA0082E08093B6431CC08091A8439091A9438F
:1024FA00823E944060F062E575E080E00E948818B0
:10250A0081E090E08093A8439093A94309C0809109
:10251A00A8439091A94301968093A8439093A94315
:0C252A006596CDBFDEBFDF91CF91089514
:102536008F929F92AF92BF92CF92DF92EF92FF92CD
:102546000F931F93CF93DF93FC01C184D284E3845E
:10255600F4848090924390909343A0909443B090DB
:102566009543C814D904EA04FB0470F080918E43A5
:1025760090918F43A0919043B09191438C159D0506
:10258600AE05BF0508F05EC0C0918E43D0918F4363
:1025960010919043009191430E944D24FF92EF9237
:1025A600DF92CF92BF92AF929F928F920F931F931B
:1025B600DF93CF932FED32E040E04F933F932F937D
:1025C6009F938F930E94C31D0E940F1D69E073E0C5
:1025D60080E00E943F188091AF432DB73EB72F5E33
:1025E6003F4F2DBF3EBF843641F40AC081508093D1
:1025F600AF4388E08093260406C08F5F8093AF4385
:1026060088E0809325048091AC43843129F0909131
:10261600AF439A3099F404C08091AF438A3030F0CA
:1026260061E273E080E00E94881805C06CE273E006
:1026360080E00E9488181092AC4309C08F5F809397
:10264600AC4305C08091AF438111D0CFD2CFDF918B
:10265600CF911F910F91FF90EF90DF90CF90BF9099
:08266600AF909F908F90089542
:10266E000F931F93CF93DF9340E054E0FA01108253
:10267E0020E234E088E0F901808380E494E0FC01FC
:10268E001082C0E6D4E061E06883A0E8B4E01C925A
:10269E0000EA14E0F8011082FA011482F9011482A2
:1026AE00FC0114826C8314961C921497F801148208
:1026BE00FA01108A118A128A138A148A158A168AC6
:1026CE00178AF901108A118A48E8428B138A148AF4
:1026DE00158A168A178AFC01108A118A128A138AA1
:1026EE00148A158A168A178A188A198A1A8A1B8AD0
:1026FE001C8A1D8A1E8A1F8A50961C9250975196CC
:10270E001C92519752961C92529753961C92539725
:10271E0054961C92549755961C92559756961C9209
:10272E00569757961C92F801108A118A128A138AAC
:10273E00148A158A168A178AE0EEF5E01186118240
:10274E0010821482168217821086658380E182833E
:10275E00138212868BE594E280939C4390939D4363
:10276E008CE594E280939A4390939B438DE594E29B
:10277E008093984390939943DF91CF911F910F913E
:02278E000895AC
:10279000CF92DF92EF92FF920F931F93CF93DF932D
:1027A0008091B8438230C9F030F4882309F463C0C3
:1027B000813039F058C0833009F1843009F45BC0AE
:1027C00052C00E949A23811104C085E08093B843CF
:1027D00052C082E08093B8434EC00E946621882395
:1027E00009F449C00E94F015811104C085E080936E
:1027F000B84341C083E08093B8433DC088E08093F4
:1028000027040E94A50D882351F10E945123F62E22
:10281000E72ED82EC92E0E944823C62FD72F182F57
:10282000092F0E945024CF92DF92EF92FF920F93D4
:102830001F93DF93CF9323E637E040E04F933F931E
:102840002F939F938F930E94C31D0E944A1B109247
:10285000B8438DB79EB70D968DBF9EBF0CC085E067
:102860008093B84308C06AE977E080E00E94881846
:1028700084E08093B843DF91CF911F910F91FF9037
:08288000EF90DF90CF90089566
:1028880010C00E94C42358F00E94BD2340F029F4D0
:102898005F3F29F00C940A2451110C94CC230C941A
:1028A80056240E94921F68F39923B1F3552391F39C
:1028B800951B550BBB27AA2762177307840738F0A7
:1028C8009F5F5F4F220F331F441FAA1FA9F335D004
:1028D8000E2E3AF0E0E832D091505040E695001CB8
:1028E800CAF72BD0FE2F29D0660F771F881FBB1F72
:1028F800261737074807AB07B0E809F0BB0B802D50
:10290800BF01FF2793585F4F3AF09E3F510578F07B
:102918000C940A240C94CC235F3FE4F3983ED4F340
:10292800869577956795B795F7959F5FC9F7880F4F
:10293800911D9695879597F90895E1E0660F771FA1
:10294800881FBB1F621773078407BA0720F0621B32
:0E295800730B840BBA0BEE1F88F7E095089501
:102966001F93CF93DF931F92CDB7DEB7182F109228
:10297600B743BE016F5F7F4F8BE00E948D21882396
:1029860009F450C08EE394E10E944A2411114CC010
:10299600998189134BC08FE394E10E94C62160930D
:1029A600924370939343809394439093954383E427
:1029B60094E10E94C62160938E4370938F43809367
:1029C60090439093914387E494E10E943E23809341
:1029D600A6439093A74389E494E10E943E23809303
:1029E600A4439093A5438BE494E10E943E238093F5
:1029F600A2439093A3438DE494E10E944A248093DA
:102A0600B5438EE494E10E944A248093B4438FE454
:102A160094E10E944A248093B3438BE08093B743AA
:102A260081E005C080E003C080E001C080E00F9037
:082A3600DF91CF911F9108957B
:102A3E000FC00E94BD2338F00E94C42320F09523BE
:102A4E0011F00C940A240C94562411240C94CC23CB
:102A5E000E94921F70F3959FC1F3950F50E0551F82
:102A6E00629FF001729FBB27F00DB11D639FAA27D5
:102A7E00F00DB11DAA1F649F6627B00DA11D661F24
:102A8E00829F2227B00DA11D621F739FB00DA11D45
:102A9E00621F839FA00D611D221F749F3327A00DFF
:102AAE00611D231F849F600D211D822F762F6A2F9B
:102ABE0011249F5750409AF0F1F088234AF0EE0F00
:102ACE00FF1FBB1F661F771F881F91505040A9F72D
:102ADE009E3F510580F00C940A240C94CC235F3F4A
:102AEE00E4F3983ED4F3869577956795B795F79569
:102AFE00E7959F5FC1F7FE2B880F911D96958795E1
:042B0E0097F9089596
:102B120011C00E94BD2338F00E94C42320F039F472
:102B22009F3F19F426F40C9456240EF4E095E7FB2B
:102B32000C940A24E92F0E94921F58F3BA176207D5
:102B420073078407950720F079F4A6F50C94CB233C
:102B52000EF4E0950B2EBA2FA02D0B01B9019001B6
:102B62000C01CA01A0011124FF27591B99F0593FFA
:102B720050F4503E68F11A16F040A22F232F342F42
:102B82004427585FF3CF469537952795A795F04090
:102B92005395C9F77EF41F16BA0B620B730B840BA5
:102BA200BAF09150A1F0FF0FBB1F661F771F881F5D
:102BB200C2F70EC0BA0F621F731F841F48F48795B5
:102BC20077956795B795F7959E3F08F0B0CF9395A7
:0E2BD200880F08F09927EE0F979587950895C4
:102BE000CF93DF93CDB7DEB72E97CDBFDEBF42E0E8
:102BF000BE016F5F7F4F8FEF9FE30E94BE2288234D
:102C000009F447C08A818C7790E0959587959595D2
:102C100087958093AA434CE0BE016D5F7F4F83E0B0
:102C200090E40E94BE228823B1F1ECE2F3E48B81B0
:102C300090E0982F88272C81822B808391838D812F
:102C400090E0982F88272E81822B828393838F8117
:102C500090E0982F88272885822B84839583898507
:102C600090E0982F88272A85822B868397838B85EF
:102C700090E0982F88272C85822B808791878D85DF
:102C800090E0982F88272E85822B8287938781E07A
:102C900003C080E001C080E02E96CDBFDEBFDF9193
:042CA000CF91089533
:102CA400FA01AA27283051F1203181F1E8946F9379
:102CB4006E7F6E5F7F4F8F4F9F4FAF4FB1E03ED01F
:102CC400B4E03CD0670F781F891F9A1FA11D680FBD
:102CD400791F8A1F911DA11D6A0F711D811D911DF0
:102CE400A11D20D009F468943F912AE0269F112465
:102CF4003019305D3193DEF6CF010895462F4770C9
:102D0400405D4193B3E00FD0C9F7F6CF462F4F7023
:102D1400405D4A3318F0495D31FD4052419302D081
:102D2400A9F7EACFB4E0A695979587957795679527
:102D3400BA95C9F700976105710508959B01AC0127
:102D44000A2E06945795479537952795BA95C9F74E
:0C2D5400620F731F841F951FA01D0895BF
:102D6000CF9360EB73E48BE00E948D21C82F882302
:102D700009F448C040919243509193436091944329
:102D8000709195438FE394E10E94B51E40918E436C
:102D900050918F43609190437091914383E494E10B
:102DA0000E94B51E6091A6437091A74387E494E109
:102DB0000E940E226091A4437091A54389E494E19E
:102DC0000E940E226091A2437091A3438BE494E190
:102DD0000E940E226091B5438DE494E10E9411217E
:102DE0006091B4438EE494E10E9411216091B34359
:102DF0008FE494E10E9411216091B0438EE394E14D
:0A2E00000E9411218C2FCF9108953C
:102E0A006F927F928F92CF92DF92EF92CF93DF935E
:102E1A003B01882EFB01582D0E94D9236623D1F14C
:102E2A00D42FE0E4F8E0848180648483F301582D90
:102E3A000E94D92361111BC01EC00E94EC23882363
:102E4A00E1F3F6015E2D0E94D923862F0E944E22BD
:102E5A00CF5FE82C6301CC0ED11CE11CF6015E2D7C
:102E6A000E94D923662339F0CF3F39F704C0E82CF2
:102E7A006301C0E0E2CF0E94EC238823E1F38D2FA7
:102E8A000E944E220E94EC238823E1F30E946323CE
:102E9A008111FCCFDF91CF91EF90DF90CF908F908F
:062EAA007F906F90089577
:102EB000DC01FB0111966D917C9112978091A643E4
:102EC0009091A743681B790B0090B54302C075959C
:102ED00067950A94E2F7608313962D913C911497BD
:102EE0008091A4439091A543281B390B0090B443D3
:102EF00002C0359527950A94E2F7218315964D91E6
:102F00005C9116978091A2439091A343481B590B63
:102F10000090B34302C0559547950A94E2F7428367
:102F20002202C00111246602800D911D1124440269
:102F3000800D911D1124A0E0B0E081879287A387C6
:102F4000B487138214821582168217821086089520
:102F5000AF92BF92CF92DF92EF92FF920F931F93A7
:102F6000CF93DF936B01E82EF22EB32EA42EE22F27
:102F7000F32F542F0E94D923662359F1822F932FC8
:102F8000A42FC0E0D0E00196A11D9C014A2F215042
:102F900031094109F901542F0E94D923662381F098
:102FA0002196F1CF8E012F2D3B2D4A2D8E2DB6016E
:102FB0000E94801B892B69F08FEFC81AD80AE80A93
:102FC000F6015E2D0E94D9236111ECCF70E080E004
:102FD00002C0B6018E2DDF91CF911F910F91FF900E
:0C2FE000EF90DF90CF90BF90AF9008956D
:102FEC0040E068ED80E690E00E941A2440E068ED35
:102FFC0081E690E00E941A2440E068ED85E690E0BE
:10300C000E941A2440E068ED88E790E00E941A24A0
:10301C004CE068ED88E690E00E941A2440E068EDF0
:10302C0089E690E00E941A2440E068ED80E790E089
:10303C000E941A2440E068ED8CE790E00E941A246C
:10304C0040E068ED82E690E00E941A2440E068EDD2
:10305C0083E690E00E941A2440E068ED84E690E05C
:10306C000E941A2440E068ED80E890E00E941A2447
:02307C000895B5
:10307E006F927F928F92CF92DF92EF92CF933B011E
:10308E00882EFB01582D0E94D923662391F1E0E68C
:10309E00F8E0848180648483F301582D0E94D92343
:1030AE0061111BC01EC00E94F8238823E1F3F601B4
:1030BE005E2D0E94D923862F0E947822CF5FE82CA6
:1030CE006301CC0ED11CE11CF6015E2D0E94D923AA
:1030DE00662339F0CF3F39F704C0E82C6301C0E016
:1030EE00E2CF0E94F8238823E1F30E947B23811113
:1030FE00FCCFCF91EF90DF90CF908F907F906F901D
:02310E00089522
:103110006F927F928F92CF92DF92EF92CF933B018B
:10312000882EFB01582D0E94D923662391F1E0E4FB
:10313000F8E0848180648483F301582D0E94D923B0
:1031400061111BC01EC00E94EC238823E1F3F6012D
:103150005E2D0E94D923862F0E944E22CF5FE82C3D
:103160006301CC0ED11CE11CF6015E2D0E94D92317
:10317000662339F0CF3F39F704C0E82C6301C0E083
:10318000E2CF0E94EC238823E1F30E9463238111A4
:10319000FCCFCF91EF90DF90CF908F907F906F908A
:0231A000089590
:1031A200EF92FF920F931F93CF93DF931F92CDB7AE
:1031B200DEB769838A01E22E60E00E94011FF82EC9
:1031C200882369F161E0CE0101960E94671EF82E04
:1031D200811104C083E08093040921C0E0E0F9E09A
:1031E20087818160878381E08483858185FD0AC030
:1031F200858182FD07C0858183FD04C0858183703E
:10320200833099F70E945C22882329F083E080931F
:103212000409F12C04C06E2DC8010E946D1D8F2D72
:103222000F90DF91CF911F910F91FF90EF90089532
:103232000E94A8231092BC432091B943822F90E0B0
:10324200FC01EA5FFF4B30813D3071F13091BD43AB
:10325200231751F1E2E0F0E4718150812F5F03C046
:10326200262F752F542FFC01EA5FFF4B4081822FDE
:1032720090E0FC01EA5FFF4B30813D3041F4E2E037
:10328200F0E45183728340832093B9430DC030919F
:10329200BD4361E0620F3213E3CFE2E0F0E4518319
:1032A200728340832093B943FC01EA5FFF4B208184
:0E32B2002D3021F4FC01EA5FFF4B10820895DD
:1032C00006C019F416F40C9456240C94DA220E94C9
:1032D0009A1FB8F39923C9F3B6F39F57550B87FF8D
:1032E0000E94D2230024A0E640EA9001805856951F
:1032F000979528F4805C660F771F881F20F02617AB
:103300003707480730F4621B730B840B20293129DF
:103310004A2BA69517940794202531254A2758F75C
:10332000660F771F881F20F026173707480730F4ED
:10333000620B730B840B200D311D411DA09581F78D
:0E334000B901842F9158880F969587950895AE
:10334E00DF92EF92FF920F931F93CF93DF937B0148
:10335E00D42EE90160E00E94261F182F882361F108
:10336E006D2DC7010E948E1E182F811104C083E09F
:10337E008093240921C0E0E2F9E087818160878390
:10338E0081E08483858185FD0AC0858182FD07C029
:10339E00858183FD04C085818370833099F70E94F7
:1033AE006A22882329F083E08093240910E004C068
:1033BE00602FCE010E94981D812FDF91CF911F911A
:0A33CE000F91FF90EF90DF9008953B
:1033D800CF93C82F67EC76E080E00E943F18CC239B
:1033E80029F081E00E94FB20C82F04C080E00E94E1
:1033F800FB20C82F0E944724882361F063EF76E002
:1034080080E00E943F188CE394E10E943E230E94D2
:1034180033230CC06DE177E080E00E943F180E94E2
:103428002E24BC018CE394E10E940E22CC2331F0BF
:1034380065E577E080E00E943F1808C06AE577E01C
:1034480080E00E943F1885E08093B843CF910895AB
:10345800E89409C097FB3EF4909580957095619526
:103468007F4F8F4F9F4F9923A9F0F92F96E9BB27DC
:103478009395F695879577956795B795F111F8CF58
:10348800FAF4BB0F11F460FF1BC06F5F7F4F8F4FC3
:103498009F4F16C0882311F096E911C0772321F0B9
:1034A8009EE8872F762F05C0662371F096E8862F51
:1034B80070E060E02AF09A95660F771F881FDAF7A8
:0A34C800880F9695879597F90895EF
:1034D2000F931F93CF93DF93FB01248121FD03C040
:1034E2008FEF9FEF2CC022FF16C0478150852581A8
:1034F20036814217530744F4A081B1819D012F5FA9
:103502003F4F208331838C93278130852F5F3F4F3C
:103512002783308714C08B01EC01FB010184F28503
:10352200E02D0995892BE1F6D80117968D919C9192
:103532001897019617968D939C931897CE01DF9159
:08354200CF911F910F91089534
:10354A000F931F93CF93DF93CDB7DEB72697CDBFE7
:10355A00DEBF8C0146E0BE016F5F7F4F85E094E2DB
:10356A000E94BE228823D9F0898190E0982F88276B
:10357A002A81822BF801808391838B8190E0982F96
:10358A0088272C81822B828393838D8190E0982FC8
:10359A0088272E81822B8483958381E001C080E075
:1035AA002696CDBFDEBFDF91CF911F910F9108956F
:1035BA006F927F928F92EF92FF920F931F93CF9306
:1035CA007C013A01862E00E010E0C091BC43CC2376
:1035DA0089F00E94191962E070E480E8482D93018D
:1035EA000E94A817672B682B11F000000EC000007C
:1035FA00C0E00BC00E943B24811104C00E94042435
:10360A000F5F1F4F0E151F0500F38C2FCF911F91CF
:0E361A000F91FF90EF908F907F906F9008952A
:103628001F920F920FB60F9211240BB60F922F9381
:103638003F934F935F936F937F938F939F93AF9332
:10364800BF93EF93FF933A9B05C0E0919C43F091A1
:103658009D4309953B9B05C0E0919A43F0919B439C
:1036680009958FEF87B9FF91EF91BF91AF919F9126
:103678008F917F916F915F914F913F912F910F9013
:0C3688000BBE0F900FBE0F901F90189506
:103694001F93CF93DF9380910A41882359F1E0E48B
:1036A400F8E084818064848380910A41811116C08A
:1036B40019C00E94EC238823E1F3C65FDE4B8881A6
:1036C4000E944E221F5FC12FD0E0FE01E65FFE4B39
:1036D4008081882339F01F3F61F704C0C0E0D0E047
:1036E40010E0E7CF0E94EC238823E1F30E946323D8
:0C36F4008111FCCFDF91CF911F91089550
:10370000CF92DF92EF920F931F936B01E82E01157A
:10371000110521F101501109F6015E2D0E94D923F6
:10372000862F662399F0F901542F0E94D92366232E
:1037300069F00115110551F0861308C08FEFC81A02
:10374000D80AE80A2F5F3F4F4F4FE4CF90E0F901CE
:10375000542F0E94D923861B910902C080E090E07B
:0C3760001F910F91EF90DF90CF90089523
:10376C00CF92DF92EF92CF936B01E82EC42FA895E6
:10377C0061ED77E080E00E943F188E2DB6010E942B
:10378C003F1866EE77E080E00E943F184DE08E2DEA
:10379C00B6010E9405174DEC57E060E08C2F90E0CD
:1037AC000E94DD1A882331F06BEE77E080E00E94F6
:1037BC003F1805C060EF77E080E00E943F18CF9182
:0837CC00EF90DF90CF9008950B
:1037D4001F920F920FB60F9211240BB60F922F93D4
:1037E4003F934F935F936F937F938F939F93AF9385
:1037F400BF93EF93FF9380914301E0910841F091CF
:103804000941309709F00995E0E4F1E08381816092
:103814008383FF91EF91BF91AF919F918F917F919E
:103824006F915F914F913F912F910F900BBE0F902D
:083834000FBE0F901F901895C4
:10383C001F920F920FB60F9211240BB60F922F936B
:10384C003F934F935F936F937F938F939F93AF931C
:10385C00BF93EF93FF93E0919643F091974330978A
:10386C0009F00995E0ECF0E0818181608183FF91A2
:10387C00EF91BF91AF919F918F917F916F915F91DC
:10388C004F913F912F910F900BBE0F900FBE0F9049
:04389C001F901895CC
:1038A0001F920F920FB60F9211240BB60F922F9307
:1038B0003F934F935F936F937F938F939F93AF93B8
:1038C000BF93EF93FF93E0910641F091074130974A
:1038D00009F00995E0E4F1E083898160838BFF9131
:1038E000EF91BF91AF919F918F917F916F915F9178
:1038F0004F913F912F910F900BBE0F900FBE0F90E5
:043900001F90189567
:103904001F920F920FB60F9211240BB60F922F93A2
:103914003F934F935F936F937F938F939F93AF9353
:10392400BF93EF93FF9380914008E0910040F091A2
:103934000140309709F00995FF91EF91BF91AF9144
:103944009F918F917F916F915F914F913F912F91B3
:0E3954000F900BBE0F900FBE0F901F90189596
:103962001F920F920FB60F9211240BB60F922F9344
:103972003F934F935F936F937F938F939F93AF93F5
:10398200BF93EF93FF9380916008E0910040F09124
:103992000140309709F00995FF91EF91BF91AF91E6
:1039A2009F918F917F916F915F914F913F912F9155
:0E39B2000F900BBE0F900FBE0F901F90189538
:1039C0001F920F920FB60F9211240BB60F922F93E6
:1039D0003F934F935F936F937F938F939F93AF9397
:1039E000BF93EF93FF93789B05C0E0919843F091CC
:1039F000994309958FEF8FB9FF91EF91BF91AF91E7
:103A00009F918F917F916F915F914F913F912F91F6
:0E3A10000F900BBE0F900FBE0F901F901895D9
:103A1E001F93CF93DF9380910942882321F1E0E633
:103A2E00F8E0848180648483C0E0D0E010E00E94DE
:103A3E00F8238823E1F3C75FDD4B88810E9478224B
:103A4E001F5FC12FD0E0FE01E75FFD4B8081882311
:103A5E0011F01F3F61F70E94F8238823E1F30E94C3
:0E3A6E007B238111FCCFDF91CF911F91089532
:103A7C000E949A1F88F09F5798F0B92F9927B75139
:103A8C00B0F0E1F0660F771F881F991F1AF0BA95F6
:103A9C00C9F714C0B13091F00E94CB23B1E0089566
:103AAC000C94CB23672F782F8827B85F39F0B93F58
:103ABC00CCF3869577956795B395D9F73EF49095A9
:0E3ACC008095709561957F4F8F4F9F4F0895A5
:103ADA0020E2209305096623D1F0A82FB92F90E0A0
:103AEA00E0E0F9E022E0858185FD17C0858182FD4D
:103AFA0007C0858183FD04C085818370833099F76F
:103B0A0080858D939F5F691711F02483ECCF87E03E
:103B1A008093040908952483E6CF80858D939F5F5F
:063B2A006913F9CFF4CF8E
:103B300020E2209325096623D1F0A82FB92F90E029
:103B4000E0E2F9E022E0858185FD17C0858182FDF4
:103B500007C0858183FD04C085818370833099F718
:103B600080858D939F5F691711F02483ECCF87E0E8
:103B70008093240908952483E6CF80858D939F5FE9
:063B80006913F9CFF4CF38
:103B86000F931F93CF93DF93CDB7DEB72F97CDBF9C
:103B9600DEBF0E891F8986E08D8309831A838FEF26
:103BA6009FE78E839F839E01255E3F4F488D598DEB
:103BB6006A8DCE0101960E942004E885F985E00F02
:103BC600F11F10822F96CDBFDEBFDF91CF911F91DF
:043BD6000F910895AE
:103BDA000E9493230E9437240E94F71F8BED9EE1D7
:103BEA000E9410248FE392E20E9429248BE690E23D
:103BFA000E941524C6B1C2FBCC27C0F98C2F0E94A3
:103C0A003F1E8C2F0E94EC1978940E94161EA895CC
:103C1A000E94FD110E94A12381110E94C813889558
:023C2A00F6CFD3
:103C2C0081E08093650469EF77E080E00E943F18A3
:103C3C000E94532462E178E080E00E943F180E94C9
:103C4C00CC22811108C060EF77E080E00E943F1821
:103C5C000E94272308956BEE77E080E00E943F18C6
:103C6C004FEF6BE278E080E00E94B61B0E942723A6
:023C7C000895A9
:103C7E00CF93C82F6AE972E080E00E943F180E943D
:103C8E00A021811109C067EC72E080E00E943F180C
:103C9E0082E08093B64312C08C2F0E94B314811120
:103CAE0008C060ED72E080E00E943F181092B743AA
:103CBE0005C06AED72E080E00E943F18CF91089532
:103CCE00662309F1DC016150262F30E02F5F3F4F54
:103CDE00280F391FE0E0F9E09D919087958195FDC1
:103CEE000AC0958192FD07C0958193FD04C0958110
:103CFE009370933099F7958194FD07C0A217B3077F
:0E3D0E0059F781E0089581E0089580E008955E
:103D1C00662309F1DC016150262F30E02F5F3F4F05
:103D2C00280F391FE0E2F9E09D919087958195FD70
:103D3C000AC0958192FD07C0958193FD04C09581C1
:103D4C009370933099F7958194FD07C0A217B30730
:0E3D5C0059F781E0089581E0089580E0089510
:103D6A00CF92DF92EF92FF92CF93DF93EC016A0139
:103D7A007B016F2D772788279927CE010E94112171
:103D8A006E2DCE0101960E9411216D2DCE01029653
:103D9A000E9411216C2DCE0103960E941121DF9100
:0C3DAA00CF91FF90EF90DF90CF90089534
:103DB6009091BB43992329F08532F9F41092BB43C5
:103DC6000895853221F481E08093BB4308958D30B8
:103DD60021F491E09093BC4305C08E3319F491E031
:103DE6009093BA43E091BD43F0E0EA5FFF4B8083D6
:0C3DF6008091BD438F5F8093BD43089512
:103E02009091050993709330E1F0880F682B6093CD
:103E12000709E0E0F9E0858185FD0AC0858182FD20
:103E220007C0858183FD04C085818370833099F743
:103E32000E945C22882339F083E08093040980E0A9
:0A3E4200089580E0089581E00895DE
:103E4C009091250993709330E1F0880F682B609363
:103E5C002709E0E2F9E0858185FD0AC0858182FDB4
:103E6C0007C0858183FD04C085818370833099F7F9
:103E7C000E946A22882339F083E08093240980E031
:0A3E8C00089580E0089581E0089594
:103E96000E949A1FE8F09E37E8F09639B8F49E38EB
:103EA60048F4672F782F8827985FF9CF86957795FE
:103EB600679593959539D0F3B62FB1706B0F711D39
:103EC600811D20F487957795679593950C945020DE
:083ED6000C94DA220C94CC23B9
:103EDE000F93CF93DF93EB01E6E4F3E490838183BA
:103EEE0002E028E433E442E0BF018AE30E94A7190E
:103EFE00882361F0E6E4F3E4828190E0982F88272E
:103F0E002381822B8883998381E001C080E0DF9139
:063F1E00CF910F91089500
:103F240057FD9058440F551F59F05F3F71F0479566
:103F3400880F97FB991F61F09F3F79F0879508954B
:103F4400121613061406551FF2CF4695F1DF08C06A
:103F5400161617061806991FF1CF86957105610587
:043F64000894089520
:103F6800A1E21A2EAA1BBB1BFD010DC0AA1FBB1F75
:103F7800EE1FFF1FA217B307E407F50720F0A21BE7
:103F8800B30BE40BF50B661F771F881F991F1A9454
:103F980069F760957095809590959B01AC01BD017E
:043FA800CF010895A8
:103FAC00EF92FF920F931F93CF937C0100E010E0F0
:103FBC00C091BA43CC2319F01092BA430BC00E94A3
:103FCC003B24811104C00E9404240F5F1F4F0E1567
:103FDC001F0570F38C2FCF911F910F91FF90EF90D5
:023FEC00089536
:103FEE0081E080933E020E9483230E94E8220E9479
:103FFE00FD210E94F5220E946B230E94D9210E946E
:10400E0027210E94EB210E9473230E94E6230E9427
:10401E00E0230E94F2230E9402230E94852008952D
:10402E000F931F93CF93DF9300D0CDB7DEB7082F3A
:10403E00162F0E943324882349F009831A8342E005
:10404E00BE016F5F7F4F8CE00E943C210F900F905E
:0A405E00DF91CF911F910F9108959B
:10406800CF92DF92EF926B01E82E9A01A82FCB0135
:104078002115310531F48C199D09EF90DF90CF900F
:104088000895FC015A2F0E94D9236623A1F30196B3
:08409800A11D21503109ECCFFC
:1040A000882371F4772321F09850872B762F07C04F
:1040B000662311F499270DC09051862B70E060E0C3
:1040C0002AF09A95660F771F881FDAF7880F969562
:0640D000879597F90895A1
:1040D6000E943324882341F08091B643823021F434
:1040E60083E08093B64308950E943324811109C06A
:1040F60082E08093B64382EE94E08093A843909347
:04410600A94308952C
:10410A0010920641109207411092084110920941FB
:10411A00E0E4F1E081E08583858B8283178220E0E9
:10412A003FE02287338799EB9083828B81E3808BF0
:02413A000895E6
:10413C00CF93DF931F92CDB7DEB70E943324882331
:10414C0059F01982BE016F5F7F4F8CE00E947A217B
:10415C00882311F0898181700F90DF91CF910895A0
:10416C000E94A82380E090E0FC01EA5FFF4B1082E4
:10417C000196811521E09207B9F71092BD43109278
:10418C00B9431092BC431092BB431092BA430895AA
:10419C00052E97FB1EF400940E948B2357FD07D02D
:1041AC000E94B41F07FC03D04EF40C948B23509543
:0E41BC004095309521953F4F4F4F5F4F08952E
:1041CA000F931F93CF93DF938B01D42F61E00E944B
:1041DA00011FC82F882321F06D2FC8010E946D1D71
:0C41EA008C2FDF91CF911F910F91089551
:1041F600CF93811105C00E94610FC82F811108C09D
:104206000E946B0BC82F882331F00E943A1103C01D
:0C42160081E08093AB438C2FCF91089582
:104222001F93CF93DF93EC01162F43E16DE980E0FA
:1042320090E10E941A24188340E06DE980E090E149
:0C4242000E941A24DF91CF911F91089573
:10424E00A0EAB4E090E115969C931597E0EEF5E0A8
:10425E0082818F7C828382818061828311969C937E
:0A426E00119780E212968C930895D8
:104278001F93CF93DF93EB01142F60E00E94011F7F
:10428800882339F0612FCE010E94671E93E0909336
:0A4298000409DF91CF911F910895F2
:1042A2001F93CF93DF93EB01142F60E00E94261F30
:1042B200882339F0612FCE010E948E1E93E09093E5
:0A42C2002409DF91CF911F910895A8
:1042CC00CF93DF9300D0CDB7DEB7CE0101960E941D
:1042DC00FE23882319F08981817001C080E00F9042
:0842EC000F90DF91CF910895BE
:1042F4000F931F93CF938B0161E00E94011FC82F7E
:10430400882321F061E0C8010E946D1D8C2FCF919C
:064314001F910F910895B6
:10431A000F931F93CF93C82F8B010E9433248823B6
:10432A0031F021E0A8016C2F8CE00E94D118CF91C6
:06433A001F910F91089590
:104340000E941F24882359F065EB85E10E94172005
:10435000882339F06DE284E10E941720089580E0FF
:06436000089580E00895BD
:1043660099231CF49195819591099C0180389105BA
:1043760044F081E0359527958F5F20383105D4F7D5
:06438600089581E0089596
:10438C00FC01AC014C5F5F4F60E070E0CB01B82FDB
:10439C00A72F962F88272191BC01CD01622B4E1798
:0643AC005F07A9F7089568
:1043B2001092004010920140E0E4F8E081E083872F
:1043C20080E8858383E087838BE890E0808791870C
:0443D20016820895B2
:1043D6001092004010920140E0E6F8E081E0838709
:1043E60080E8858383E087838BE890E080879187E8
:0443F600168208958E
:1043FA00A0E4B4E09CE011969C931197E0EEF5E0FE
:10440A0085818C7F85838581826085831C969C93B8
:02441A00089503
:10441C001F93CF93DF93EC01162F672F0E9411216E
:10442C00612FCE0101960E941121DF91CF911F9136
:02443C000895E1
:10443E00092E0394000C11F4882352F0BB0F40F4A4
:10444E00BF2B11F460FF04C06F5F7F4F8F4F9F4FE4
:02445E000895BF
:10446000CF93DF93EC010E943324882329F048E0A6
:0E447000BE018CE00E94E520DF91CF910895FF
:10447E008091B843811103C081E08093B84380914D
:0E448E00B843843019F485E08093B843089554
:10449C00CF93C82F0E94EC23882331F0E0E4F8E09E
:0C44AC00948190649483C283CF910895A2
:1044B800809105098C7141F490910509937081E010
:0C44C800933019F080E0089581E0089521
:1044D400809125098C7141F490912509937081E0B4
:0C44E400933019F080E0089581E0089505
:1044F000CF93C82F0E94F823882331F0E0E6F8E03C
:0C450000948190649483C283CF9108954D
:10450C001F920F920FB60F9211248F938FEF83B9D6
:0C451C008F910F900FBE0F901F9018950C
:104528001F920F920FB60F9211248F938FEF8BB9B2
:0C4538008F910F900FBE0F901F901895F0
:104544001F920F920FB60F9211248F938FEF83BB9C
:0C4554008F910F900FBE0F901F901895D4
:104560001F920F920FB60F9211248F938FEF87BB7C
:0C4570008F910F900FBE0F901F901895B8
:10457C000F939B01E6E4F3E490838183042F42E0E4
:0C458C00BF018AE30E94A7190F91089557
:10459800A89581E08093660465EC77E080E00E944E
:0C45A800881884E690E00E94D61F089559
:1045B4009F3F31F0915020F4879577956795B79593
:0C45C400880F911D9695879597F9089532
:1045D000E0E0F9E084E08083118281E082839DEF56
:0A45E00095839FE09683838308957E
:1045EA00E0E2F9E084E08083118281E082839DEF3A
:0A45FA0095839FE096838383089564
:10460400E0E0FBE081E0808796E09183848320EA08
:0A4614003FE0248735878083089576
:10461E0040E068ED80E191E00E941A24E0E1F1E0D3
:08462E001282138280E008955E
:10463600E6E4F3E4908381837283638344E0BF01FD
:084646008AE30E94512108954E
:10464E004DE069EC77E080E00E9405170E94B620ED
:08465E0081E0809365040895DA
:104666009C01E0E4F1E0918192FDFDCF20934A01A7
:0646760030934B01089592
:10467C00FC01208130E0322F22278181A901482BB7
:04468C00CA010895C2
:1046900060913E4370913F438091404390914143EC
:0246A00008957B
:1046A20060914243709143438091444390914543CA
:0246B200089569
:1046B400EE0FFF1F0024001C0BBE0790F691E02DA7
:0246C400099457
:1046C6008091440886FB882780F991E08927089520
:1046D600E0EAF4E08CE0818398E09387848708958C
:1046E600E0E2F4E081E08583818382E082830895BD
:1046F6008091640886FB882780F991E089270895D0
:10470600109296431092974381E08093C0000895DB
:1047160090958095709561957F4F8F4F9F4F089527
:0E4726000E9437130E94F6170E940F23089579
:0E47340062E078E081E090E30E941B2308958C
:0E47420081E09091B7439B3009F080E008952C
:0E475000E2E0F0E413821282118210820895DA
:0E475E005058BB27AA270E9489150C941F22D1
:0E476C000E943E1D6894B1110C94CC23089558
:0E477A0000240A94161617061806090608955C
:0E47880000240A94121613061406050608955E
:0E479600E894BB2766277727CB0197F9089593
:0E47A40091505040660F771F881FD2F708957E
:0E47B20057FD03C05BBF6791089560810895B5
:0C47C000E0E4F8E08681806486830895C0
:0C47CC00E0E4F8E08681806886830895B0
:0C47D8008091440885FB882780F9089533
:0C47E400E0E6F8E086818064868308959A
:0C47F0008091640885FB882780F90895FB
:0C47FC00BC018FEF9FE30E946F1F089527
:0C4808000000000081E080930002089591
:0C48140097F99F6780E870E060E008956D
:0A482000809300409093014008953A
:0A482A0080939643909397430895FE
:0A4834001BBEFC0164BF4083089521
:0A483E0066E081E10E941720089552
:0A484800682F80E10E9417200895F8
:0A48520080930841909309410895F6
:0A485C0080914A0190914B010895EC
:084866008091C20081700895E9
:08486E0083E0809350000895DF
:084876008091070B8170089589
:08487E000E9444140C941F2257
:084886000E941F150C941F2273
:06488E008091AB43089588
:06489400FC018081089583
:06489A0089E092E408959C
:0648A0008AE091E4089596
:0648A6000E94B6200895F7
:0648AC009FEF80EC08956F
:0448B2000C94000062
:0248B600089563
:0248B800089561
:0248BA0008955F
:1048BC007E05007E05007F05007E0500B005007EAC
:1048CC000500F005003A06007E05008D06007E0509
:0448DC00007E050055
:0448E0000000C841CB
:0448E4000000C841C7
:0248E800E204E8
:0148EA0001CC
:0148EB0001CB
:02000004008278
:090000000000000000C00D00002A
:00000001FF
