:100000000C9410010C94F51E0C94F51E0C94F51E26
:100010000C9488180C94D7150C94B8180C94F51EF1
:100020000C948C1D0C94F51E0C94F51E0C94F51E6E
:100030000C94F51E0C94F51E0C94F51E0C94F51EF4
:100040000C94F51E0C94F51E0C94F51E0C94F51EE4
:100050000C94F51E0C94F51E0C94F51E0C94F51ED4
:100060000C9416160C94F51E0C94F51E0C94F51EAB
:100070000C94F51E0C94F51E0C94E8170C94F51EC8
:100080000C94F51E0C94F51E0C94F51E0C941E1881
:100090000C94F51E0C94F51E0C94F51E0C94F51E94
:1000A0000C94F51E0C94F51E0C94F51E0C94F51E84
:1000B0000C94F51E0C9453150C949A1D0C94F51E7B
:1000C0000C94F51E0C94F51E0C94F51E0C94F51E64
:1000D0000C94F51E0C94F51E0C94F51E0C94F51E54
:1000E0000C94F51E0C94F51E0C94F51E0C94F51E44
:1000F0000C94F51EB307D407E607AE08C808C0097C
:10010000E909F709950AA60A4000419D80419D41F1
:100110009F003E0A419F41A68041A641A9003E0C96
:1001200041A941AC800000407A10F35A00A0724E01
:1001300018090010A5D4E80000E87648170000E48C
:100140000B54020000CA9A3B000000E1F5050000D4
:1001500080969800000040420F000000A086010039
:100160000000102700000000E80300000000640009
:10017000000000000A000000000001000000000074
:100180002C76D888DC674F0823DFC1DFAE59E1B198
:10019000B796E5E3E453C63AE651997696E8E6C2A7
:1001A0008426EB898C9B62ED407C6FFCEFBC9C9FAE
:1001B00040F2BAA56FA5F490055A2AF75C936B6CD0
:1001C000F9676DC11BFCE0E40D47FEF520E6B500C4
:1001D000D0ED902E0300943577050080841E080032
:1001E00000204E0A000000C80C333333330F986EE2
:1001F00012831141EF8D2114893BE65516CFFEE69F
:10020000DB18D1844B381BF77C1D901DA4BBE42464
:10021000203284725E228100C9F124ECA1E53D27E1
:1002200011241FBECFEFCDBFDFE7DEBFE8E0F1E076
:1002300041E019C0B791A79137912791079107FD28
:100240000EC097918791EF01F92FE82F0BBF079010
:100250000D92A217B307D9F7FE011BBE04C01D9271
:10026000A217B307E1F7E532F40721F70E94281A35
:080270000C943A01F894FFCF51
:10027800496E697469616C697A696E67204D4C587A
:100288003930333932204D61676E65746F6D65742E
:1002980065722053656E736F722E2E2E004641498B
:1002A8004C45440D0A004F4B0D0A004D617820560D
:1002B800616C75653A20256C752C20437261636BFF
:1002C80065643A20256C752C20666F756E64202550
:1002D8006C750D0A003C5468726573686F6C642015
:1002E80045786365656465643E202D2000416C6136
:1002F800726D204241440D0A00416C61726D204FBD
:100308004B0D0A004F70656E207468652077696E22
:10031800646F7720616E64207072657373207468EF
:100328006520627574746F6E20746F2073746172C7
:10033800742E0D0A00426567696E6E696E67204FFC
:1003480070656E2057696E646F772043616C6962CF
:10035800726174696F6E2E0D0A005A65726F696E4C
:100368006720436F6D706C6574652E20585F6F66EB
:1003780066203D2025642C20595F6F6666203D204D
:1003880025642C205A5F6F66663D2025640D0A009F
:10039800506C6561736520636C6F73652074686564
:1003A8002077696E646F7720616E642074686520B9
:1003B80070726573732074686520627574746F6EEB
:1003C80020746F20636F6E74696E75652E0D0A0058
:1003D800426567696E6E696E6720436C6F7365640A
:1003E8002057696E646F772043616C69627261742B
:1003F800696F6E2E0D0A005363616C696E67204346
:100408006F6D706C657465642E20585F7363616CE2
:100418006520203D20325E25642C20595F7363617E
:100428006C65203D20325E25642C205A5F73636121
:100438006C65203D20325E25640D0A00506C6561B4
:10044800736520637261636B207468652077696ED9
:10045800646F7720746F20736574207468652061F9
:100468006C61726D207468726573686F6C642C209F
:100478007468656E20707265737320746865206295
:100488007574746F6E2E0D0A005B4552525D2053D1
:10049800656E736F722076616C7565206973206272
:1004A800656C6F77206E6F697365206D617267691F
:1004B8006E2C20706C6561736520636C6F736520AA
:1004C8007468652077696E646F7720616E64207048
:1004D800726573732074686520627574746F6E201A
:1004E800746F2072657472792E0D0A00426567690F
:1004F8006E6E696E6720437261636B65642057692D
:100508006E646F772043616C6962726174696F6EA3
:100518002E0D0A005B5741524E5D20546872657378
:10052800686F6C642069732062656C6F77206E6FEA
:10053800697365206D617267696E2E2053656E73ED
:100548006F72206D6179206E6F74206F70657261B3
:10055800746520636F72726563746C792E0D0A007E
:100568005468726573686F6C642063616C69627249
:100578006174696F6E20636F6D706C6574652E2091
:100588005468726573686F6C643A20256C750D0A3F
:1005980000506C6561736520636C6F7365207468C7
:1005A800652077696E646F7720616E64207072656C
:1005B80073732074686520627574746F6E20746F2D
:1005C8002066696E6973682E0D0A0043616C696262
:1005D800726174696F6E20436F6D706C65746564C9
:1005E8002E0D0A004D61676E65746F6D65746572D6
:1005F8002053656E736F72204572726F72202D20C2
:100608005265626F6F74204465766963650D0A00F0
:10061800496E697469616C697A696E67204D4C58D6
:1006280039303633322054656D7065726174757275
:10063800652053656E736F722E2E2E000D0A4C6F57
:10064800616465642063616368656420636F6E73C9
:1006580074616E747320616E642073657474696E5E
:1006680067732E2E2E000D0A4C6F6164656420633B
:100678006F6E7374616E74732066726F6D2073652C
:100688006E736F7220616E64207265736574207476
:100698006F2064656661756C74732E2E2E004F4B47
:1006A8000D0A004641494C45440D0A0053656E73D6
:1006B8006F722054656D70657261747572653A2049
:1006C80025322E3266430D0A526F6F6D2054656DC8
:1006D80070657261747572653A2025322E326643F0
:1006E8000D0A0054656D70657261747572652053EA
:1006F800656E736F72204572726F72202D2052657D
:0E070800626F6F74204465766963650D0A00A8
:10071600121EFE1D1B1E0F1BCC16E01E511EEC1AD0
:020726006E1D46
:10072800241E081E2D1E551B0717E31E591E321BBB
:020738007D1D25
:08073A00696E66006E616E003D
:100742002F923F924F925F926F927F928F929F92DF
:10075200AF92BF92CF92DF92EF92FF920F931F93CD
:10076200CF93DF93CDB7DEB76497CDBFDEBF6C0109
:100772001A01462E5901FC0117821086848181FFDD
:1007820067C3CE0101968C879D87A0E88A8B9B8BDD
:10079200AC8BF101542D0E949D1E862F662309F415
:1007A20053C3442D91012F5F3F4F4F4F653219F0D4
:1007B2001901442E0BC0F901542F0E949D1E862F51
:1007C20092E0290E311C411C653249F4B60190E0D9
:1007D2000E949016AE86BF86AE84BF84DACF10E048
:1007E200F12C00E00032A0F48B3269F030F4803258
:1007F20059F0833269F400612CC08D3239F08033B4
:1008020039F4016026C00260046023C0086021C080
:1008120007FD2AC090ED980F9A3078F406FF06C0C3
:10082200AAE01A9F900D1124192F13C0EAE0FE9E30
:10083200900D1124F92E00620CC08E3221F406FDB7
:1008420003C3006406C08C3611F4006802C0883607
:1008520059F4F101542D0E949D1E862FFFEF2F1A8D
:100862003F0A4F0A6111BECF9BEB980F933018F4E9
:100872000061805E06C09BE9980F933008F066C164
:100882000F7E06FF16E00F73702E853621F4202F9F
:100892002064722E08C0863621F4802F8068782E5C
:1008A20002C01111115077FE07C01C3350F4EE2420
:1008B200E394E10E27E00BC0183038F027E017E090
:1008C20005C027E06CE3E62E02C0212FE12CF501E2
:1008D2003496EE87FF87F501608171818281938171
:1008E2000E2DAE014F5F5F4F0E94F50D5C015980E6
:1008F20050FE02C053FE06C071FC06C072FE06C066
:1009020000E205C00DE203C00BE201C000E0852D4C
:100912008C7019F0011174C2C0C277FE0FC0EA0CCC
:1009220054FE04C08A81813309F4EA941E1474F5DA
:1009320028E02E1578F538E0E32E2CC076FC2AC08C
:10094200812F90E08A159B059CF08CEFA8168FEF03
:10095200B80674F0972D9068792E0AC0E2E0F0E0B4
:10096200EC0FFD1FE10FF11D8081803319F411504E
:100972001111F4CF77FE0EC0EE24E394E10E812F25
:1009820090E0A816B9062CF41A1904C0EE24E394D8
:1009920001C010E077FE06C01A141B0434F4C5012E
:1009A200019605C085E090E002C081E090E001116F
:1009B2000196112331F0212F30E02F5F3F4F820F3C
:1009C200931F2F2D30E08217930714F4F81A01C0F9
:1009D200F12C872D897049F4FF2039F0B60180E2AD
:1009E20090E00E949016FA94F7CF002329F0B60106
:1009F200802F90E00E94901673FC09C0FF2039F00E
:100A0200B60180E390E00E949016FA94F7CF77FE49
:100A120049C03501B7FE02C0612C712CC50186198F
:100A2200970988248394912C8C0E9D1E880E991E02
:100A3200F501EE19F109E88BF98B012F10E0119500
:100A420001951109FFEF6F167F0629F4B6018EE2B8
:100A520090E00E949016A614B70444F08889998900
:100A6200861597051CF4F401818101C080E3F1E051
:100A72006F1A71082FEF821A920A601671062CF013
:100A8200B60190E00E949016DDCFA614B70439F4A7
:100A92009A81963318F4953311F454FE81E3B6012A
:100AA20090E051C08A81813319F0952D9F7E592E95
:100AB200B60190E00E949016111105C074FC1CC092
:100AC20085E690E01BC0B6018EE290E00E9490168F
:100AD20002E0010F82E011E0180FE1E0F0E0EC0F1C
:100AE200FD1FE80FF11D8081B60190E00E94901673
:100AF200812F1013F0CFE2CF85E490E0B6010E947F
:100B02009016B7FC05C0A114B10439F454FE05C017
:100B1200B194A194B1088DE201C08BE2B60190E0DC
:100B22000E94901680E3EAE0AE16B1042CF08F5FCB
:100B3200AAE0AA1AB108F7CFB60190E00E94901677
:100B4200B601C501C0960E94901674C1833631F079
:100B5200833791F0833509F05EC024C0C501029647
:100B62008E879F87F501808189836A887B888C883C
:100B7200AA24A394B12C14C0C50103968E879F8723
:100B8200F50160807180828006FF03C0412F50E032
:100B920002C04FEF5FEF882DB3010E94221C5C015F
:100BA2000F7715C0C50103968E879F87F501608078
:100BB2007180828006FF03C0412F50E002C04FEFD8
:100BC2005FEF882DB3010E94221C5C01006803FDC7
:100BD2001EC08F2D90E0A816B906C8F4B60180E2B7
:100BE20090E00E949016FA94F4CFF301582D0E94DF
:100BF2009D1E862FFFEF6F1A7F0A8F0AB60190E0C3
:100C02000E949016F110FA9421E0A21AB108A114E0
:100C1200B10459F70FC1843611F0893679F5C5014F
:100C220007FF09C004968E879F87F5016081718155
:100C3200828193810AC002968E879F87F501608127
:100C42007181072E000C880B990B0F76E02E97FF0F
:100C52000AC090958095709561957F4F8F4F9F4FF9
:100C6200F02FF068EF2E2AE030E0AE014F5F5F4FC9
:100C72000E942413A82E2C85A21A4BC0853729F472
:100C82000F7EE02E2AE030E025C0902F997FE92EDA
:100C92008F36C1F018F4883579F0D6C0803719F054
:100CA200883721F0D1C0A92FA061EA2EE4FE0DC041
:100CB200EE2DE460EE2E09C004FF0AC0F92FF660A3
:100CC200EF2E06C028E030E005C020E130E002C08F
:100CD20020E132E0C501E7FE09C004968E879F87B6
:100CE200F501608171818281938108C002968E87AD
:100CF2009F87F5016081718180E090E0AE014F5FD6
:100D02005F4F0E942413A82EFC85AF1A2E2D2F7739
:100D1200E22EE6FE0BC00E2D0E7FA11650F4E4FE6D
:100D22000AC0E2FC08C00E2D0E7E05C0BA2C0E2DA4
:100D320003C0BA2C01C0B12E04FF0DC0FE01EA0DA2
:100D4200F11D8081803311F4097E09C002FF06C0C3
:100D5200B394B39404C0802F867809F0B39403FD52
:100D620011C000FF06C0BF1488F4FA0C1F2D1B1916
:100D72000EC0BF1460F4B60180E290E00E949016AB
:100D8200B394F7CFBF1418F4FB1802C01A2DF12C3C
:100D920004FF10C0B60180E390E00E94901602FFAB
:100DA20017C001FD03C088E790E002C088E590E02B
:100DB200B6010CC0802F867859F001FF02C08BE289
:100DC20001C080E207FD8DE2B60190E00E9490161C
:100DD200A11638F4B60180E390E00E9490161150FB
:100DE200F7CFAA94E1E0F0E0EC0FFD1FEA0DF11D50
:100DF2008081B60190E00E949016A110F2CF1AC035
:100E0200F4E0FF1588F584E0F81A73FE24C001119E
:100E12002CC053FE30C05EE3852E57E0952E50E085
:100E2200A52E072D0071F4015A2D0E949D1E862FBA
:100E3200611128C0FF2009F4CFCCB60180E290E016
:100E42000E949016FA94F6CFF601878190852CC005
:100E52008FEF9FEF29C0B60180E290E00E949016CA
:100E6200FA94F110F8CFD3CFF12CB601802F90E095
:100E72000E949016CECF4AE3842E47E0942E40E0A3
:100E8200A42ECFCF01118052B60190E00E9490169D
:100E9200FFEF8F1A9F0AAF0AC6CF23E02F1510F477
:100EA20083E0B2CFF12CB5CF6496CDBFDEBFDF9128
:100EB200CF911F910F91FF90EF90DF90CF90BF9055
:100EC200AF909F908F907F906F905F904F903F90E8
:040ED2002F900895C0
:100ED6004F925F926F927F928F929F92AF92BF9244
:100EE600CF92DF92EF92FF92CF93DF93CDB7DEB72B
:100EF6002597CDBFDEBFDC019091A141993130F03D
:100F060088E0809327041092A14103C09F5F9093CD
:100F1600A141FB01C184D284E384F48440916941F8
:100F260050916A4160916B4170916C414C155D0521
:100F36006E057F0540F4C0926941D0926A41E09205
:100F46006B41F0926C41E091AA414E2F50E04A303D
:100F5600510508F0FAC2FA01E658FF4F0C943F1EFD
:100F66006CE073E080E00E940A1581E08093AA415C
:100F76001092654110926641109267411092684145
:100F86001092614110926241109263411092644145
:100F960010925D4110925E4110925F411092604145
:100FA600D4C28091A541882309F4CFC26DE373E0D2
:100FB60080E00E940A1582E08093AA411092954132
:100FC60010929641C2C280919541909196419C01A2
:100FD6002F5F3F4F209395413093964111964D9147
:100FE6005C911297052E000C660B770BC09065413D
:100FF600D0906641E0906741F0906841CB01BA011C
:101006006C0D7D1D8E1D9F1D60936541709366411D
:10101600809367419093684113968D909C901497A6
:10102600092C000CAA08BB08C0906141D09062410F
:10103600E0906341F09064418C0C9D1CAE1CBF1C7B
:101046008092614190926241A0926341B092644164
:101056001596CD90DC9016970D2C000CEE08FF0827
:1010660040905D4150905E4160905F41709060415C
:10107600C40CD51CE61CF71CC0925D41D0925E41A3
:10108600E0925F41F0926041283E334008F45DC231
:101096000F2EF8EE4F2EF3E05F2E612C712CF02D03
:1010A600A30192010E94D31CCA01B9010E945516E0
:1010B6000E94C81A0E94811E69837D8360939B41AA
:1010C60070939C41C501B401A30192010E94D31CF7
:1010D600CA01B9010E9455160E94C81A0E94811EB3
:1010E600B62EA72E6093994170939A41C701B60117
:1010F600A30192010E94D31CCA01B9010E94551690
:101106000E94C81A0E94811EF62EE72E6093974110
:10111600709398410E94EF1EEF92FF92AF92BF929A
:101126004D814F93A981AF9322E633E040E04F9380
:101136003F932F939F938F930E94FE190E94181935
:1011460068E973E080E00E940A1583E08093AA4173
:10115600CDBFDEBFFAC18091A541882309F4F5C150
:101166001092694110926A4110926B4110926C4143
:1011760068ED73E080E00E940A1584E08093AA413E
:101186001092954110929641E0C1809195419091BF
:101196009641FC013196E0939541F0939641119664
:1011A6004D915C91129720919B4130919C41421B3D
:1011B600530B052E000C660B770BC0906541D09043
:1011C6006641E0906741F0906841CB01BA016C0D31
:1011D6007D1D8E1D9F1D60936541709366418093B2
:1011E60067419093684113968D909C901497209137
:1011F600994130919A41821A930A092C000CAA0847
:10120600BB08C0906141D0906241E0906341F0908C
:1012160064418C0C9D1CAE1CBF1C80926141909257
:101226006241A0926341B09264411596CD90DC90E4
:1012360016972091974130919841C21AD30A0D2CE6
:10124600000CEE08FF0840905D4150905E416090B2
:101256005F4170906041C40CD51CE61CF71CC0921F
:101266005D41D0925E41E0925F41F0926041E83E7E
:10127600F34008F46AC10F2EF8EE4F2EF3E05F2E0E
:10128600612C712CF02DA30192010E94D31CCA017E
:10129600B9010E9455160E94C81A0E94811E6983D0
:1012A6007A838B839C8360936541709366418093B8
:1012B600674190936841C501B401A30192010E9460
:1012C600D31CCA01B9010E9455160E94C81A0E9471
:1012D600811E4B015C016093614170936241809372
:1012E600634190936441C701B601A30192010E9434
:1012F600D31CCA01B9010E9455160E94C81A0E9441
:10130600811E2B013C0160935D4170935E41809389
:101316005F419093604189819A810E94291DF82E30
:101326008093A841C4010E94291DE82E8093A741FD
:10133600C2010E94291DD82E8093A6410E94EF1E4D
:101346001F92DF921F92EF921F92FF922FEF33E0D0
:1013560040E04F933F932F939F938F930E94FE19E4
:101366000E94181964E474E080E00E940A1585E082
:101376008093AA41CDBFDEBFE8C099E2C916D10469
:10138600E104F10448F461E974E080E00E940A1582
:1013960086E08093AA41D9C08091A541882309F4AB
:1013A600D4C064EF74E080E00E940A1587E0809361
:1013B600AA4110929541109296411092594110926D
:1013C6005A4110925B4110925C41BFC08091A54189
:1013D600882309F4BAC064E474E080E00E940A1528
:1013E60085E08093AA41B1C0809195419091964144
:1013F6009C012F5F3F4F209395413093964140913A
:10140600594150915A4160915B4170915C41CB01C9
:10141600BA016C0D7D1D8E1D9F1D60935941709301
:101426005A4180935B4190935C41283E334008F4D7
:101436008CC028EE33E040E050E00E94D31CCA0185
:10144600B9010E9455160E94C81A0E944719609356
:101456006D4170936E4180936F41909370416832F5
:1014660071058105910528F46CE175E080E00E9424
:101476000A1560916D4170916E4180916F41909116
:1014860070410E9453162DEC3CEC4CE85FE30E9441
:10149600DC1E0E94C81A0E944719F62EE72ED82E87
:1014A600C92E60936D4170936E4180936F41909306
:1014B60070416091694170916A4180916B41909150
:1014C6006C410E9453162DEC3CEC4CE85FE30E9405
:1014D600DC1E0E94C81A0E944719609369417093E6
:1014E6006A4180936B4190936C410E94EF1ECF92AC
:1014F600DF92EF92FF9228E635E040E04F933F936C
:101506002F939F938F930E94FE190E94181969E9E1
:1015160075E080E00E940A1588E08093AA41CDBF5D
:10152600DEBF13C08091A541882379F063ED75E095
:1015360080E00E940A1589E08093AA411092A14199
:101546000E94821302C01092AA412596CDBFDEBF2B
:10155600DF91CF91FF90EF90DF90CF90BF90AF904B
:0E1566009F908F907F906F905F904F900895B0
:10157400CF92DF92EF92FF921F93CF93DF93CDB779
:10158400DEB76897CDBFDEBF8BE191E40E944217BE
:10159400182F882309F41AC240E1BE016F5F7F4F00
:1015A4008CE094E20E94781B882309F40AC22B8100
:1015B4006C81862F90E0A0E0B0E0DC0199278827B9
:1015C400B22B2A81AC01BD01422B898190E0982F76
:1015D4008827A0E0B0E06A017B01C82AD92AEA2A58
:1015E400FB2AC701B6010E94551620E030E040E80E
:1015F4005BE30E94DC1E60935541709356418093D7
:101604005741909358412F816885862F90E0A0E040
:10161400B0E0DC0199278827B22B2E81AC01BD01F3
:10162400422B8D8190E0982F8827A0E0B0E06A01DA
:101634007B01C82AD92AEA2AFB2AC701B6010E94DB
:10164400551620E030E040E855E30E94DC1E60932C
:1016540051417093524180935341909354412B854F
:101664006C85862F90E0A0E0B0E0DC019927882704
:10167400B22B2A85AC01BD01422B898590E0982FBD
:101684008827A0E0B0E06A017B01C82AD92AEA2AA7
:10169400FB2AC701B6010E94551620E030E040E85D
:1016A40059E20E94DC1E60934D4170934E41809339
:1016B4004F41909350412F856889862F90E0A0E098
:1016C400B0E0DC0199278827B22B2E85AC01BD013F
:1016D400422B8D8590E0982F8827A0E0B0E06A0126
:1016E4007B01C82AD92AEA2AFB2AC701B6010E942B
:1016F400551620E030E040E85BE30E94DC1E609376
:10170400494170934A4180934B4190934C4148E145
:10171400BE016F5F7F4F84E294E20E94781B8823AE
:1017240009F451C12B816C81862F90E0A0E0B0E0D8
:10173400DC0199278827B22B2A81AC01BD01422BF9
:10174400898190E0982F8827A0E0B0E06A017B01AE
:10175400C82AD92AEA2AFB2AC701B6010E945516CB
:1017640020E030E040E857E30E94DC1E60934541EE
:101774007093464180934741909348412F816885F7
:10178400862F90E0A0E0B0E0DC0199278827B22BF7
:101794002E81AC01BD01422B8D8190E0982F8827CA
:1017A400A0E0B0E06A017B01C82AD92AEA2AFB2A10
:1017B400C701B6010E94551620E030E040E85BE323
:1017C4000E94DC1E609341417093424180934341E7
:1017D400909344412B856C85862F90E0A0E0B0E087
:1017E400DC0199278827B22B2A85AC01BD01422B45
:1017F400898590E0982F8827A0E0B0E06A017B01FA
:10180400C82AD92AEA2AFB2AC701B6010E9455161A
:1018140020E030E040E858E20E94DC1E60933D4145
:1018240070933E4180933F41909340412F85688956
:10183400862F90E0A0E0B0E0DC0199278827B22B46
:101844002E85AC01BD01422B8D8590E0982F882711
:10185400A0E0B0E06A017B01C82AD92AEA2AFB2A5F
:10186400C701B6010E94551620E030E040E85DE271
:101874000E94DC1E6093394170933A4180933B414E
:1018840090933C412B896C89862F90E0A0E0B0E0D6
:10189400DC0199278827B22B2A89AC01BD01422B90
:1018A400898990E0982F8827A0E0B0E06A017B0145
:1018B400C82AD92AEA2AFB2AC701B6010E9455166A
:1018C40020E030E040E85DE20E94DC1E6093354198
:1018D4007093364180933741909338416D8970E01D
:1018E400762F66278E89682B072E000C880B990BA0
:1018F4000E94551620E030E040E85AE30E94DC1EC6
:1019040060933141709332418093334190933441D9
:101914006F8970E0762F6627888D682B072E000C60
:10192400880B990B0E94551620E030E040E85AE3FA
:101934000E94DC1E60932D4170932E4180932F41B1
:101944009093304144E0BE016F5F7F4F81E894E2A1
:101954000E94781B8823C9F1698170E0762F66277D
:101964008A81682B072E000C880B990B0E94551650
:1019740020E030E040E858E30E94DC1E60932941F7
:1019840070932A4180932B4190932C416B8170E09A
:10199400762F66278C81682B072E000C880B990BF9
:1019A4000E94551620E030E040E85AE30E94DC1E15
:1019B4006093254170932641809327419093284159
:1019C40005C010E003C010E001C010E0812F68964C
:1019D400CDBFDEBFDF91CF911F91FF90EF90DF90DD
:0419E400CF90089503
:1019E8008F929F92AF92BF92CF92DF92EF92FF9227
:1019F8001F93CF93DF9300D0CDB7DEB78BE191E48F
:101A08000E944217182F882309F4DCC080E094E173
:101A18000E94BC1C6C0182E094E10E94BC1C5C0129
:101A280084E094E10E94BC1C4C017601EA24FB246A
:101A3800E826F9268AE394E10E94BC1C89839A83EC
:101A480089819A81E816F90609F0B5C080911B4191
:101A580090911C41C816D90609F0AFC080911D416C
:101A680090911E41A816B90609F0A9C080911F419E
:101A7800909120418816990609F0A3C086E094E168
:101A88000E947A1A6093554170935641809357414A
:101A9800909358418AE094E10E947A1A60935141E8
:101AA8007093524180935341909354418EE094E156
:101AB8000E947A1A60934D4170934E4180934F4132
:101AC8009093504182E194E10E947A1A60934941CF
:101AD80070934A4180934B4190934C4186E194E145
:101AE8000E947A1A6093454170934641809347411A
:101AF800909348418AE194E10E947A1A60934141A7
:101B08007093424180934341909344418EE194E124
:101B18000E947A1A60933D4170933E4180933F4101
:101B28009093404182E294E10E947A1A609339418D
:101B380070933A4180933B4190933C4186E294E113
:101B48000E947A1A609335417093364180933741E9
:101B5800909338418AE294E10E947A1A6093314165
:101B68007093324180933341909334418EE294E1F3
:101B78000E947A1A60932D4170932E4180932F41D1
:101B88009093304182E394E10E947A1A609329414C
:101B980070932A4180932B4190932C4186E394E1E2
:101BA8000E947A1A609325417093264180932741B9
:101BB8009093284107C010E005C010E003C010E072
:101BC80001C010E0812F0F900F90DF91CF911F91EE
:101BD800FF90EF90DF90CF90BF90AF909F908F9045
:021BE80008955E
:101BEA00283008F027E03327DA01990F311D87FDE5
:101BFA00916000966105710539F432602E5F3D935C
:101C0A0030E32A95E1F708959F3F30F08038710557
:101C1A00610509F03C5F3C5F3D93913008F08068B4
:101C2A00911DDF93CF931F930F93FF92EF92192F7A
:101C3A00987F9695E92F96959695E90FFF27E05894
:101C4A00FE4F99273327EE24FF24A701E7010590C9
:101C5A000894079428F4360FE71EF81E491F511DF1
:101C6A00660F771F881F991F0694A1F7059007949E
:101C7A0028F4E70EF81E491F561FC11D770F881F4B
:101C8A00991F661F0694A1F70590079428F4F80E89
:101C9A00491F561FC71FD11D880F991F661F771F1F
:101CAA000694A1F70590079420F4490F561FC71F01
:101CBA00D81F990F661F771F881F0694A9F784916A
:101CCA001095177041F0D695C79557954795F79493
:101CDA00E7941A95C1F7E6E2F1E068941590159138
:101CEA0035916591959105907FE27395E118F10A16
:101CFA00430B560BC90BD009C0F7E10CF11E431F69
:101D0A00561FC91FD01D7EF4703311F48A95E6CF91
:101D1A00E894015030F0080F0AF40027021708F47B
:101D2A00202F2395022F7A3328F079E37D932A9581
:101D3A00E9F710C07D932A9589F6069497956795D9
:101D4A00379517951794E118F10A430B560BC90BEF
:101D5A00D00998F023957E9173957A3308F070E351
:101D6A007C932013B8F77E9170617D9330F0839550
:101D7A0071E37D9370E32A95E1F71124EF90FF90C8
:101D8A000F911F91CF91DF91992787FD9095089523
:101D9A00CF93DF93CBE1D1E46881798180E094E14C
:101DAA000E943C1D6A817B8182E094E10E943C1D75
:101DBA006C817D8184E094E10E943C1D40915541F3
:101DCA0050915641609157417091584186E094E193
:101DDA000E94A21A4091514150915241609153413F
:101DEA00709154418AE094E10E94A21A40914D41B7
:101DFA0050914E4160914F41709150418EE094E173
:101E0A000E94A21A4091494150914A4160914B4126
:101E1A0070914C4182E194E10E94A21A409145419D
:101E2A0050914641609147417091484186E194E161
:101E3A000E94A21A4091414150914241609143410E
:101E4A00709144418AE194E10E94A21A40913D4175
:101E5A0050913E4160913F41709140418EE194E141
:101E6A000E94A21A4091394150913A4160913B41F6
:101E7A0070913C4182E294E10E94A21A409135415C
:101E8A0050913641609137417091384186E294E130
:101E9A000E94A21A409131415091324160913341DE
:101EAA00709134418AE294E10E94A21A40912D4134
:101EBA0050912E4160912F41709130418EE294E110
:101ECA000E94A21A4091294150912A4160912B41C6
:101EDA0070912C4182E394E10E94A21A409125411B
:101EEA0050912641609127417091284186E394E1FF
:101EFA000E94A21A688179818A819B816827792741
:101F0A008C819D81682779278AE394E10E943C1D90
:061F1A00DF91CF91089554
:101F2000CF93DF9340E054E0FA01108220E234E0E6
:101F300089E0F901808380E494E0FC011082C0E62E
:101F4000D4E061E46883A0E8B4E01C9260EA74E045
:101F5000FB011082FA011482F9011482FC0114823F
:101F60001C8214961C921497FB011482FA01108AA9
:101F7000118A128A138A148A158A168A178AF90115
:101F8000108A118A48E8428B138A148A158A168AA5
:101F9000178AFC01108A118A128A138A148A158AF8
:101FA000168A178A188A198A1A8A1B8A1C8A1D8A15
:101FB0001E8A1F8A50961C92509751961C925197D8
:101FC00052961C92529753961C92539754961C9279
:101FD000549755961C92559756961C92569757961D
:101FE0001C92FB01108A118A88E0828B838B148AF1
:101FF000158A168A178AE0EEF5E0118611821082A2
:10200000148216821782108681E0858380E18283A4
:10201000138212868AEF9EE180938D4190938E41C8
:102020008BEF9EE180938B4190938C418CEF9EE1EE
:102030008093894190938A418DEF9EE180938741FF
:10204000909388418EEF9EE18093854190938641E5
:102050008FEF9EE1809383419093844180E09FE1E4
:10206000809381419093824181E09FE180937F4101
:102070009093804182E09FE180937D4190937E41E7
:1020800083E09FE180937B4190937C4184E09FE1DA
:0E2090008093794190937A41DF91CF9108952A
:10209E008F929F92AF92BF92CF92DF92EF92FF926A
:1020AE000F931F93CF93DF93FC01C184D284E384FB
:1020BE00F48480906D4190906E41A0906F41B090ED
:1020CE007041C814D904EA04FB0470F08091694190
:1020DE0090916A41A0916B41B0916C418C159D0518
:1020EE00AE05BF0508F05EC0C0916941D0916A414E
:1020FE0010916B4100916C410E94EF1EFF92EF9286
:10210E00DF92CF92BF92AF929F928F920F931F93B7
:10211E00DF93CF9323EB32E040E04F933F932F9327
:10212E009F938F930E94FE190E9418196DED72E015
:10213E0080E00E940A158091A2412DB73EB72F5E16
:10214E003F4F2DBF3EBF863941F40AC08150809368
:10215E00A24188E08093260406C08F5F8093A2413F
:10216E0088E0809325048091A041843129F09091DC
:10217E00A241943699F404C08091A241843630F085
:10218E0065EF72E080E00E940A1505C061E073E021
:10219E0080E00E940A151092A04109C08F5F8093C3
:1021AE00A04105C08091A2418111D0CFD2CFDF9145
:1021BE00CF911F910F91FF90EF90DF90CF90BF9036
:0821CE00AF909F908F900895DF
:1021D600CF93DF93CDB7DEB76597CDBFDEBF8091D6
:1021E600A441811108C0329B09C081E08093A441BB
:1021F6008093A54103C0329B1092A4418091A941CE
:102206008130A1F030F08330F1F1843009F43FC021
:1022160052C08AE00E94D31E882321F081E0809379
:10222600A94165C082E08093A94161C00E94D2198C
:10223600882309F45CC0CE010E960E949B1B88235E
:10224600E1F0BE016F5F7F4FCE010E960E94D7135D
:102256008091AA41893049F48091A541811105C038
:10226600CE0101960E944F100BC0BE016F5F7F4FDB
:10227600CE010E960E946B0703C082E08093A941AF
:102286001092A54134C084E08093A94130C00E94D9
:10229600161D882361F080E00E9480111092A941EA
:1022A60082EE94E080939D4190939E4120C082E00F
:1022B6008093A9411CC080919D4190919E41823E90
:1022C600944060F06CEE75E080E00E940A1581E0B3
:1022D60090E080939D4190939E4109C080919D41DD
:1022E60090919E41019680939D4190939E41659663
:0A22F600CDBFDEBFDF91CF91089548
:102300001F93CF93DF931F92CDB7DEB7182F109294
:10231000AA41BE016F5F7F4F8BE00E945418882353
:1023200009F450C08EE394E10E94E61E11114CC0E6
:10233000998189134BC08FE394E10E947A1A6093CC
:102340006D4170936E4180936F419093704183E42F
:1023500094E10E947A1A6093694170936A41809374
:102360006B4190936C4187E494E10E94BC1C809384
:102370009B4190939C4189E494E10E94BC1C809312
:10238000994190939A418BE494E10E94BC1C809304
:102390009741909398418DE494E10E94E61E8093CA
:1023A000A8418EE494E10E94E61E8093A7418FE449
:1023B00094E10E94E61E8093A64189E08093AA41A1
:1023C00081E005C080E003C080E001C080E00F90A4
:0823D000DF91CF911F910895E8
:1023D8000FC00E94881E38F00E948F1E20F095239F
:1023E80011F00C94AA1E0C94F21E11240C94971E42
:1023F8000E94BD1B70F3959FC1F3950F50E0551FC8
:10240800629FF001729FBB27F00DB11D639FAA2741
:10241800F00DB11DAA1F649F6627B00DA11D661F90
:10242800829F2227B00DA11D621F739FB00DA11DB1
:10243800621F839FA00D611D221F749F3327A00D6B
:10244800611D231F849F600D211D822F762F6A2F07
:1024580011249F5750409AF0F1F088234AF0EE0F6C
:10246800FF1FBB1F661F771F881F91505040A9F799
:102478009E3F510580F00C94AA1E0C94971E5F3F56
:10248800E4F3983ED4F3869577956795B795F795D5
:10249800E7959F5FC1F7FE2B880F911D969587954D
:0424A80097F9089503
:1024AC00CF93DF938091050982FF0CC0EFEFF0E42E
:1024BC0086E0858783E08487E0E0F9E085818460AD
:1024CC00858337C080910709882381F080910509A5
:1024DC0084FF0CC0EFEFF0E485E0858781E0848712
:1024EC00E0E0F9E085818061858323C08091080953
:1024FC00882381F08091050984FF0CC0EFEFF0E494
:10250C0085E0858782E08487E0E0F9E08581806161
:10251C0085830FC08091050983FF0BC0EFEFF0E4BA
:10252C0086E0858783E08487E0E0F9E08581886038
:10253C008583CFEFD0E48D8590E0880F991F092E0D
:10254C00000CAA0B8A5E984FAF4FFC015A2F0E94C9
:10255C00481EFB0109958D878C85882329F0E09115
:0E256C007141F09172410995DF91CF91089570
:10257A00CF93DF938091250982FF0CC0EDE0F1E44F
:10258A0086E0858783E08487E0E2F9E085818460DC
:10259A00858337C080912709882381F08091250996
:1025AA0084FF0CC0EDE0F1E485E0858781E0848753
:1025BA00E0E2F9E085818061858323C08091280962
:1025CA00882381F08091250984FF0CC0EDE0F1E4B5
:1025DA0085E0858782E08487E0E2F9E08581806191
:1025EA0085830FC08091250983FF0BC0EDE0F1E4DC
:1025FA0086E0858783E08487E0E2F9E08581886068
:10260A008583CDE0D1E48D8590E0880F991F092E4E
:10261A00000CAA0B885D984FAF4FFC015A2F0E94FD
:10262A00481EFB0109958D878C85882329F0E09146
:0E263A007341F09174410995DF91CF9108959D
:10264800FA01AA27283051F1203181F1E8946F93DB
:102658006E7F6E5F7F4F8F4F9F4FAF4FB1E03ED081
:10266800B4E03CD0670F781F891F9A1FA11D680F1F
:10267800791F8A1F911DA11D6A0F711D811D911D52
:10268800A11D20D009F468943F912AE0269F1124C7
:102698003019305D3193DEF6CF010895462F47702B
:1026A800405D4193B3E00FD0C9F7F6CF462F4F7086
:1026B800405D4A3318F0495D31FD4052419302D0E4
:1026C800A9F7EACFB4E0A69597958795779567958A
:1026D800BA95C9F700976105710508959B01AC018A
:1026E8000A2E06945795479537952795BA95C9F7B1
:0C26F800620F731F841F951FA01D089522
:10270400CF9363EA71E48BE00E945418C82F8823A6
:1027140009F448C040916D4150916E4160916F4100
:10272400709170418FE394E10E94A21A4091694133
:1027340050916A4160916B4170916C4183E494E1E2
:102744000E94A21A60919B4170919C4187E494E19C
:102754000E943C1D6091994170919A4189E494E1F1
:102764000E943C1D60919741709198418BE494E1E3
:102774000E943C1D6091A8418DE494E10E94EA1CF2
:102784006091A7418EE494E10E94EA1C6091A64105
:102794008FE494E10E94EA1C6091A3418EE394E1EA
:0A27A4000E94EA1C8C2FCF910895CB
:1027AE00DC01FB0111966D917C91129780919B41FA
:1027BE0090919C41681B790B0090A84102C07595C1
:1027CE0067950A94E2F7608313962D913C911497C6
:1027DE008091994190919A41281B390B0090A74105
:1027EE0002C0359527950A94E2F7218315964D91EF
:1027FE005C9116978091974190919841481B590B87
:10280E000090A64102C0559547950A94E2F742837F
:10281E002202C00111246602800D911D1124440272
:10282E00800D911D1124A0E0B0E081879287A387CF
:10283E00B487138214821582168217821086089529
:10284E00CF93DF930E94C41D882309F443C0809167
:10285E00050984FF0CC08091050986FF08C0809190
:10286E00050982FD04C08091050983FF07C0809190
:10287E00050982FD03C08091050983FD0E94561251
:10288E0080910509882324F08091050986FF22C0D6
:10289E008091050984FD08C08091050982FD04C060
:1028AE008091050983FF03C00E94561213C0CFEF1B
:1028BE00D0E48D8590E0880F991F092E000CAA0B8D
:1028CE008A5E984FAF4FFC015A2F0E94481EFB01A3
:0A28DE0009958D87DF91CF910895D1
:1028E800CF93DF930E94D01D882309F443C08091C1
:1028F800250984FF0CC08091250986FF08C08091B6
:10290800250982FD04C08091250983FF07C08091B5
:10291800250982FD03C08091250983FD0E94BD120F
:1029280080912509882324F08091250986FF22C0FB
:102938008091250984FD08C08091250982FD04C085
:102948008091250983FF03C00E94BD1213C0CDE00A
:10295800D1E48D8590E0880F991F092E000CAA0BF1
:10296800885D984FAF4FFC015A2F0E94481EFB010B
:0A29780009958D87DF91CF91089536
:1029820040E068ED80E690E00E94BF1E40E068ED06
:1029920081E690E00E94BF1E40E068ED85E690E08F
:1029A2000E94BF1E40E068ED88E790E00E94BF1ED3
:1029B2004CE068ED88E690E00E94BF1E40E068EDC2
:1029C20089E690E00E94BF1E40E068ED80E790E05B
:1029D2000E94BF1E40E068ED8CE790E00E94BF1E9F
:1029E20040E068ED82E690E00E94BF1E40E068EDA4
:1029F20083E690E00E94BF1E40E068ED84E690E02E
:102A02000E94BF1E40E068ED80E890E00E94BF1E79
:022A1200089525
:102A14006F927F928F92CF92DF92EF92CF933B018E
:102A2400882EFB01582D0E949D1E662391F1E0E63D
:102A3400F8E0848180648483F301582D0E949D1EF4
:102A440061111BC01EC00E94A41E8823E1F3F6017D
:102A54005E2D0E949D1E862F0E94E91ECF5FE82CEA
:102A64006301CC0ED11CE11CF6015E2D0E949D1E5B
:102A7400662339F0CF3F39F704C0E82C6301C0E086
:102A8400E2CF0E94A41E8823E1F30E94611E8111FB
:102A9400FCCFCF91EF90DF90CF908F907F906F908D
:022AA400089593
:102AA6001F920F920FB60F9211240BB60F922F930F
:102AB6003F934F935F936F937F938F939F93AF93C0
:102AC600BF93EF93FF93399B05C0E0918D41F09141
:102AD6008E410995389B05C0E0918B41F0918C4160
:102AE60009953A9B05C0E0918141F0918241099593
:102AF6003B9B05C0E0917D41F0917E4109958FEFAA
:102B060087B9FF91EF91BF91AF919F918F917F917F
:102B16006F915F914F913F912F910F900BBE0F9048
:082B26000FBE0F901F901895DF
:102B2E00CF93C82F68E176E080E00E940A15CC238F
:102B3E0029F081E00E94001DC82F04C080E00E9491
:102B4E00001DC82F0E94EC1E882361F064E476E01D
:102B5E0080E00E940A158CE394E10E94BC1C0E9446
:102B6E00F31D0CC06EE676E080E00E940A150E940E
:102B7E00C91EBC018CE394E10E943C1DCC2331F0B4
:102B8E0066EA76E080E00E940A1508C06BEA76E0FD
:102B9E0080E00E940A1584E08093AB41CF910895A6
:102BAE001F920F920FB60F9211240BB60F922F9306
:102BBE003F934F935F936F937F938F939F93AF93B7
:102BCE00BF93EF93FF938091430180FF07C0E09185
:102BDE009341F0919441309709F00995809143010A
:102BEE0081FF07C0E0919141F0919241309709F039
:102BFE00099583E080934301FF91EF91BF91AF91CF
:102C0E009F918F917F916F915F914F913F912F91F6
:0E2C1E000F900BBE0F900FBE0F901F901895D9
:102C2C001F920F920FB60F9211240BB60F922F9387
:102C3C003F934F935F936F937F938F939F93AF9338
:102C4C00BF93EF93FF937C9B05C0E0917F41F09184
:102C5C0080410995789B05C0E0917B41F0917C41C6
:102C6C0009957E9B05C0E0917941F0917A410995D7
:102C7C008FEF8FB9FF91EF91BF91AF919F918F9192
:102C8C007F916F915F914F913F912F910F900BBE60
:0A2C9C000F900FBE0F901F901895C7
:102CA600E89409C097FB3EF49095809570956195E0
:102CB6007F4F8F4F9F4F9923A9F0F92F96E9BB2796
:102CC6009395F695879577956795B795F111F8CF12
:102CD600FAF4BB0F11F460FF1BC06F5F7F4F8F4F7D
:102CE6009F4F16C0882311F096E911C0772321F073
:102CF6009EE8872F762F05C0662371F096E8862F0B
:102D060070E060E02AF09A95660F771F881FDAF761
:0A2D1600880F9695879597F90895A8
:102D20000F931F93CF93DF93FB01248121FD03C0F9
:102D30008FEF9FEF2CC022FF16C047815085258161
:102D400036814217530744F4A081B1819D012F5F62
:102D50003F4F208331838C93278130852F5F3F4FF6
:102D60002783308714C08B01EC01FB010184F285BD
:102D7000E02D0995892BE1F6D80117968D919C914C
:102D80001897019617968D939C931897CE01DF9113
:082D9000CF911F910F910895EE
:102D98008091084190910941019731F4E0E0F9E010
:102DA80084818460848305C0E0E0F9E084818B7FBE
:102DB8008483EFEFF0E4818592850197818792877C
:102DC800892B79F0A781B085CD01019687839087FB
:102DD800E0E0F9E080858C9384818260848384E0DC
:102DE8000895EFEFF0E4A781B085CD0101968783C0
:102DF8009087E0E0F9E080858C9384818460848307
:062E08000E94EC1A08957F
:102E0E008091164190911741019731F4E0E2F9E07B
:102E1E0084818460848305C0E0E2F9E084818B7F45
:102E2E008483EDE0F1E48185928501978187928715
:102E3E00892B79F0A781B085CD0101968783908784
:102E4E00E0E2F9E080858C9384818260848384E063
:102E5E000895EDE0F1E4A781B085CD010196878359
:102E6E009087E0E2F9E080858C938481846084838E
:062E7E000E94321B0895C2
:102E84000F931F93CF93DF93CDB7DEB72697CDBFB4
:102E9400DEBF8C0146E0BE016F5F7F4F85E094E2A8
:102EA4000E94781B8823D9F0898190E0982F882785
:102EB4002A81822BF801808391838B8190E0982F63
:102EC40088272C81822B828393838D8190E0982F95
:102ED40088272E81822B8483958381E001C080E042
:102EE4002696CDBFDEBFDF91CF911F910F9108953C
:102EF4008F929F92AF92BF92CF92DF92EF92FF9206
:102F04000F931F93CF93DF935C016B017A01490107
:102F14000E94C41D811115C0CFEFD0E481E08883E5
:102F2400A982BA828B87CB82DC82ED82FE828F8279
:102F3400988609871A871C860E941B1E8D8781E04C
:102F440001C080E0DF91CF911F910F91FF90EF902E
:0E2F5400DF90CF90BF90AF909F908F90089528
:102F62008F929F92AF92BF92CF92DF92EF92FF9297
:102F72000F931F93CF93DF935C016B017A01490199
:102F82000E94D01D811115C0CDE0D1E481E088837B
:102F9200A982BA828B87CB82DC82ED82FE828F820B
:102FA200988609871A871C860E942D1E8D8781E0CC
:102FB20001C080E0DF91CF911F910F91FF90EF90C0
:0E2FC200DF90CF90BF90AF909F908F900895BA
:102FD0001F920F920FB60F9211240BB60F922F93E0
:102FE0003F934F935F936F937F938F939F93AF9391
:102FF000BF93EF93FF935B9B05C0E0918541F091F8
:10300000864109955A9B05C0E0918341F091844126
:1030100009958FEF8BB9FF91EF91BF91AF919F9180
:103020008F917F916F915F914F913F912F910F9071
:0C3030000BBE0F900FBE0F901F90189564
:10303C001F920F920FB60F9211240BB60F922F9373
:10304C003F934F935F936F937F938F939F93AF9324
:10305C00BF93EF93FF93BB9B05C0E0918941F09127
:10306C008A410995BA9B05C0E0918741F09188414E
:10307C0009958FEF87BBFF91EF91BF91AF919F9116
:10308C008F917F916F915F914F913F912F910F9005
:0C309C000BBE0F900FBE0F901F901895F8
:1030A800EF92FF920F931F93CF93DF931F92CDB7A9
:1030B800DEB789837B010E94D81E982F8823D9F018
:1030C80001E010E0970141E050E0BE016F5F7F4FE3
:1030D8008CE090E00E947A17982F811103C00BC0F2
:1030E8000E9427140E94C41D8111FACF0E94B01EAD
:1030F80091E0811190E0892F0F90DF91CF911F917E
:083108000F91FF90EF90089574
:103110001F920F920FB60F9211240BB60F922F939E
:103120003F934F935F936F937F938F939F93AF934F
:10313000BF93EF93FF93E0917541F0917641309703
:1031400009F0099581E08093C100FF91EF91BF9153
:10315000AF919F918F917F916F915F914F913F912F
:103160002F910F900BBE0F900FBE0F901F901895D0
:103170001F920F920FB60F9211240BB60F922F933E
:103180003F934F935F936F937F938F939F93AF93EF
:10319000BF93EF93FF93E0918F41F091904130976F
:1031A00009F0099581E080935301FF91EF91BF9160
:1031B000AF919F918F917F916F915F914F913F91CF
:1031C0002F910F900BBE0F900FBE0F901F90189570
:1031D0000F931F93CF93DF9300D0CDB7DEB7082FA7
:1031E000162F0E94D81E982F8823D1F009831A83A6
:1031F00042E050E0BE016F5F7F4F8CE090E00E94A4
:103200007619982F811103C00BC00E9427140E94C9
:10321000C41D8111FACF0E94B01E91E0811190E08F
:10322000892F0F900F90DF91CF911F910F910895EB
:103230001F93CF93DF9380910040882321F1E0E634
:10324000F8E0848180648483C0E0D0E010E00E94D4
:10325000A41E8823E1F3C050D04C88810E94E91E4F
:103260001F5FC12FD0E0FE01E050F04C8081882329
:1032700011F01F3F61F70E94A41E8823E1F30E9412
:0E328000611E8111FCCFDF91CF911F91089547
:10328E000E94C51B88F09F5798F0B92F9927B75108
:10329E00B0F0E1F0660F771F881F991F1AF0BA95EC
:1032AE00C9F714C0B13091F00E94961EB1E0089596
:1032BE000C94961E672F782F8827B85F39F0B93F88
:1032CE00CCF3869577956795B395D9F73EF490959F
:0E32DE008095709561957F4F8F4F9F4F08959B
:1032EC00CF92DF92EF92FF920F931F93CF93DF93C6
:1032FC006C017B018A010E94C41D811115C0CFEFA6
:10330C00D0E481E08883C982DA821B86EB82FC825E
:10331C000D831E831F82188619861A861C860E94AE
:10332C001B1E8D8781E001C080E0DF91CF911F9142
:0C333C000F91FF90EF90DF90CF9008956C
:10334800CF92DF92EF92FF920F931F93CF93DF9369
:103358006C017B018A010E94C41D811115C0CFEF49
:10336800D0E481E08883C982DA821B86EF82F886FE
:1033780009871A871B821C821D821E821C860E9456
:10338800FE1D8D8781E001C080E0DF91CF911F9104
:0C3398000F91FF90EF90DF90CF90089510
:1033A4001F93CF93DF931F92CDB7DEB70E94D81E31
:1033B400182F8823D9F0198241E050E0BE016F5FD5
:1033C4007F4F8CE090E00E94A419182F811103C054
:1033D4000DC00E9427140E94C41D182F8111F9CF1B
:1033E4000E94B01E811102C019811170812F0F90AB
:0833F400DF91CF911F910895B4
:1033FC000F931F93CF93DF93CDB7DEB72F97CDBF2E
:10340C00DEBF0E891F8986E08D8309831A838FEFB7
:10341C009FE78E839F839E01255E3F4F488D598D7C
:10342C006A8DCE0101960E94A103E885F985E00F13
:10343C00F11F10822F96CDBFDEBFDF91CF911F9170
:04344C000F9108953F
:103450000E94A51C8FEF8093400081E080930209B9
:1034600080932209E0E6F8E08387838782E08093F7
:10347000E50581E79EE10E94C41E89E59CE10E946A
:10348000BA1EC6B1C2FBCC27C0F98C2F0E94511ABC
:103490008C2F0E9497157894A8950E94EB10889520
:0234A000FBCF60
:1034A200CF93C82F68E772E080E00E940A150E945D
:1034B200161D811109C065EA72E080E00E940A15BA
:1034C20082E08093A94113C08C2F0E948011811148
:1034D20009C065EA72E080E00E940A1582E08093EA
:1034E200A94105C06EEA72E080E00E940A15CF9100
:0234F20008953B
:1034F400CF92DF92EF92FF920F931F93CF93DF93BC
:10350400EC018C010C5F1F4F60E070E0CB01CC2418
:10351400D62EE72EF82ECE010E94E61EA7019601B4
:10352400282BCA01B90121960C171D0781F7DF91D9
:10353400CF911F910F91FF90EF90DF90CF9008955E
:10354400CF92DF92EF92FF92CF93DF93EC016A0167
:103554007B016F2D772788279927CE010E94EA1CCB
:103564006E2DCE0101960E94EA1C6D2DCE010296AD
:103574000E94EA1C6C2DCE0103960E94EA1CDF9186
:0C358400CF91FF90EF90DF90CF90089562
:103590000E94C51BE8F09E37E8F09639B8F49E38D3
:1035A00048F4672F782F8827985FF9CF869577950D
:1035B000679593959539D0F3B62FB1706B0F711D48
:1035C000811D20F487957795679593950C943E1C03
:0835D0000C94B61D0C94971E2B
:1035D800E0E0F9E0848183608483AFEFB0E41C927B
:1035E8008FEF90E011968D939C93129713961D92EE
:1035F8001C92149717961D921C9218971D961C9250
:103608008581806C858383818F73838385818160C5
:06361800858380E00895A7
:10361E008091044190910541892B91F0EFEFF0E4F8
:10362E0085819681019785839683A381B481CD018F
:10363E000196838394838C918093080983E0089587
:10364E0080910A41882321F010920A4181E0089569
:06365E000E94EC1A089521
:10366400E0E2F9E0848183608483ADE0B1E41C92FC
:103674008FEF90E011968D939C93129713961D9261
:103684001C92149717961D921C9218971D961C92C3
:103694008581806C858383818F7383838581816039
:0636A400858380E008951B
:1036AA008091124190911341892B91F0EDE0F1E460
:1036BA0085819681019785839683A381B481CD0103
:1036CA000196838394838C918093280983E00895DB
:1036DA0080911841882321F01092184181E00895C1
:0636EA000E94321B08954E
:1036F0000F931F939B01E1E2F1E490838183042FF8
:1037000010E042E050E0BF018AE390E00E94B11770
:10371000811104C090E00BC00E9474140E94D01D5F
:103720008111FACF0E94B51E91E0811190E0892F9E
:063730001F910F910895A6
:10373600CF93DF93EC010E94D81E982F8823B1F017
:1037460048E050E0BE018CE090E00E94A419982F5A
:10375600811103C00BC00E9427140E94C41D811151
:10376600FACF0E94B01E91E0811190E0892FDF917F
:04377600CF91089552
:10377A0057FD9058440F551F59F05F3F71F0479518
:10378A00880F97FB991F61F09F3F79F087950895FD
:10379A00121613061406551FF2CF4695F1DF08C01C
:1037AA00161617061806991FF1CF86957105610539
:0437BA0008940895D2
:1037BE00A1E21A2EAA1BBB1BFD010DC0AA1FBB1F27
:1037CE00EE1FFF1FA217B307E407F50720F0A21B99
:1037DE00B30BE40BF50B661F771F881F991F1A9406
:1037EE0069F760957095809590959B01AC01BD0130
:0437FE00CF0108955A
:10380200E0E4F1E081818111FDCFE0E4F1E08FEFAE
:1038120090E084879587108611868FEF9EE08287DD
:103822009387178281E0828389EB8083818981116A
:10383200FDCFE0E4F1E081E0828B81E3808B80E0E8
:023842000895E7
:10384400CF92DF92EF926B01E82E9A01A82FCB0161
:103854002115310531F48C199D09EF90DF90CF903B
:103864000895FC015A2F0E949D1E6623A1F3019620
:08387400A11D21503109ECCF28
:10387C00882371F4772321F09850872B762F07C07B
:10388C00662311F499270DC09051862B70E060E0EF
:10389C002AF09A95660F771F881FDAF7880F96958E
:0638AC00879597F90895CD
:1038B2000E94D81E882341F08091A941823021F4D0
:1038C20083E08093A94108950E94D81E811109C006
:1038D20082E08093A94182EE94E080939D4190938F
:0438E2009E41089566
:1038E600E0E0F9E0108212828FE0868381E0838334
:1038F600158217821482108684818860848385816C
:103906008160858387EF9EE1809371419093724138
:02391600089512
:10391800E0E2F9E0108212828FE0868381E08383FF
:103928001582178214821086848188608483858139
:103938008160858388EF9EE1809373419093744101
:023948000895E0
:10394A000E94900F0E94C1140E94731C0E948C1C3A
:10395A000E94361E0E94E81D0E94011C0E94A81D9A
:0E396A000E945E1D0E94691E0E94DC1D0895D1
:103978000F931F93CF93DF938C010E94E61EC82FED
:10398800D0E0DC2FCC27C80101960E94E61E9E01DC
:0E399800282BC901DF91CF911F910F91089547
:1039A600052E97FB1EF400940E94791E57FD07D042
:1039B6000E94DF1B07FC03D04EF40C94791E509531
:0E39C6004095309521953F4F4F4F5F4F08952C
:1039D4001F93CF93DF93EC01162F43E16DE980E051
:1039E40090E10E94BF1E188340E06DE980E090E101
:0C39F4000E94BF1EDF91CF911F9108952B
:103A0000CF93811105C00E94F40CC82F811108C00A
:103A10000E94BA0AC82F882331F00E94CD0E03C03D
:0C3A200081E080939F418C2FCF9108958E
:103A2C000E94CE1E882359F065EB85E10E94E818B0
:103A3C00882339F06DE284E10E94E818089580E053
:063A4C00089580E00895DA
:103A520099231CF49195819591099C0180389105D7
:103A620044F081E0359527958F5F20383105D4F7F2
:063A7200089581E00895B3
:103A78001F93CF93DF93EC01162F672F0E94EA1C48
:103A8800612FCE0101960E94EA1CDF91CF911F9110
:023A980008958F
:103A9A00092E0394000C11F4882352F0BB0F40F452
:103AAA00BF2B11F460FF04C06F5F7F4F8F4F9F4F92
:023ABA0008956D
:103ABC00E0E6F8E08BE890E080879187158280EC57
:103ACC00868383E08783138614861686158608956D
:103ADC00E0E0F9E083818E7F83838381816083833F
:0E3AEC008581816085831092FF4080E00895FF
:103AFA00E0E2F9E083818E7F83838381816083831F
:0E3B0A0085818160858310920D4180E00895D1
:103B18001F920F920FB60F9211248F938FEF83B9D4
:0C3B28008F910F900FBE0F901F9018950A
:103B34001F920F920FB60F9211248F938FEF83BBB6
:0C3B44008F910F900FBE0F901F901895EE
:103B500043E068ED80E590E00E94BF1E40E068ED24
:0C3B600081E590E00E94BF1E80E0089507
:103B6C009F3F31F0915020F4879577956795B795E5
:0C3B7C00880F911D9695879597F9089584
:103B88008091FF40811105C0809105098095817061
:083B980001C081E08170089575
:103BA00080910D41811105C080912509809581701A
:083BB00001C081E0817008955D
:103BB80040E068ED80E191E00E94BF1EE0E1F1E0A5
:083BC8001282138280E00895CF
:103BD000E0E0F0E1118289EF9EE1809377419093DC
:063BE000784113820895F4
:103BE6009C01E0E4F1E0918192FDFDCF20934A0132
:063BF60030934B0108951D
:103BFC008091004190910141880F81608093070969
:043C0C0084E00895B3
:103C100080910E4190910F41880F81608093270918
:043C200084E008959F
:103C24001092FF40E0E0F9E085818160858388E0BF
:023C34000895F1
:103C36008091004190910141880F8093070983E0AC
:023C46000895DF
:103C480010920D41E0E2F9E085818160858388E08A
:023C58000895CD
:103C5A0080910E4190910F41880F8093270983E04C
:023C6A000895BB
:103C6C0081E08093C000109275411092764180E003
:023C7C000895A9
:103C7E00EE0FFF1F0024001C0BBE0790F691E02DE7
:023C8E00099497
:103C900057FD04C05BBF6791779108956191719161
:023CA000089585
:103CA200E0E0F9E08581806C85830E946E1D0895B5
:103CB200E0E2F9E08581806C85830E947D1D089594
:103CC2008091640886FB882780F991E0892708950E
:103CD200E0EBF0E01482108281E0828380E00895BC
:103CE2008091AB41811103C081E08093AB41089583
:103CF20090958095709561957F4F8F4F9F4F089556
:0E3D02000E9447196894B1110C94971E089501
:0E3D100000240A9416161706180609060895D0
:0E3D1E0000240A9412161306140605060895D2
:0E3D2C00E894BB2766277727CB0197F9089507
:0E3D3A0057FD03C05BBF679108956081089537
:0C3D48008091640885FB882780F90895AD
:0C3D540097F99F6780E870E060E0089538
:0A3D6000EFEFF0E484851486089567
:0A3D6A00EDE0F1E48485148608956D
:0A3D74008093754190937641089505
:0A3D7E001BBEFC0164BF40830895E2
:0A3D880080939341909394410895B5
:0A3D920080914A0190914B010895C1
:0A3D9C0066E081E10E94E818089536
:0A3DA600682F80E10E94E8180895DC
:083DB0008091C20081700895AA
:083DB8000E94EC110C944D1D5A
:063DC0000E94EC1A0895B8
:063DC6000E94321B08956B
:063DCC00FC018081089556
:063DD200809362080895D1
:063DD80080919F41089557
:063DDE0080E090E408956E
:063DE4009FEF80EC089542
:043DEA000C94000035
:023DEE00089536
:023DF000089534
:023DF200089532
:023DF400089530
:023DF60008952E
:023DF80008952C
:023DFA0008952A
:023DFC00089528
:023DFE00089526
:023E0000089523
:023E0200089521
:023E040008951F
:023E060008951D
:023E080008951B
:023E0A00E204D0
:013E0C0001B4
:013E0D0001B3
:013E0E0001B2
:02000004008278
:090000000000000000C00D00002A
:00000001FF
