:100000000C9418010C94F4240C94F4240C94F4240F
:100010000C94BD1C0C947A1A0C94EF1C0C94F424D0
:100020000C941F230C94F4240C94F4240C94F424C6
:100030000C94F4240C94F4240C94F4240C94F424E0
:100040000C94F4240C94F4240C94F4240C94F424D0
:100050000C94F4240C94F4240C94F4240C94F424C0
:100060000C944E1D0C94F4240C94F4240C94F4245D
:100070000C94F4240C94F4240C942D230C94F42468
:100080000C94F4240C94F4240C94F4240C9449233C
:100090000C94F4240C94F4240C941F1D0C94F4245C
:1000A0000C94F4240C94F4240C94F4240C94F42470
:1000B0000C94F4240C94E71B0C943B230C94F42430
:1000C0000C94F4240C94F4240C94F4240C94F42450
:1000D0000C94F4240C94AC1D0C94F4240C94F4248F
:1000E0000C94F4240C94F4240C94F4240C94F42430
:1000F0000C94F4242E084F085E087A0842095C0923
:10010000540A820A900A2E0B3F0B4E0B40004316F6
:10011000804316431E0049F4431E438480438443B6
:10012000860049FC4386439080439043930049FEF8
:100130004393439B800000407A10F35A00A0724E14
:1001400018090010A5D4E80000E87648170000E47C
:100150000B54020000CA9A3B000000E1F5050000C4
:1001600080969800000040420F000000A086010029
:100170000000102700000000E803000000006400F9
:10018000000000000A000000000001000000000064
:100190002C76D888DC674F0823DFC1DFAE59E1B188
:1001A000B796E5E3E453C63AE651997696E8E6C297
:1001B0008426EB898C9B62ED407C6FFCEFBC9C9F9E
:1001C00040F2BAA56FA5F490055A2AF75C936B6CC0
:1001D000F9676DC11BFCE0E40D47FEF520E6B500B4
:1001E000D0ED902E0300943577050080841E080022
:1001F00000204E0A000000C80C333333330F986ED2
:1002000012831141EF8D2114893BE65516CFFEE68E
:10021000DB18D1844B381BF77C1D901DA4BBE42454
:10022000203284725E228100C9F124ECA1E53D27D1
:1002300011241FBECFEFCDBFDFE7DEBFECE0F1E062
:1002400041E019C0B791A79137912791079107FD18
:100250000EC097918791EF01F92FE82F0BBF079000
:100260000D92A217B307D9F7FE011BBE04C01D9261
:10027000A217B307E1F7E533F40721F70E94F81A54
:080280000C944201F894FFCF39
:10028800496E697469616C697A696E67204D4C586A
:100298003930333932204D61676E65746F6D65741E
:1002A80065722053656E736F722E2E2E004641497B
:1002B8004C45440D0A0043414C204241440D0A007C
:1002C8004F4B0D0A004D61782056616C75653A20D8
:1002D800256C752C20437261636B65643A20256C2C
:1002E800752C20666F756E6420256C750D0A003CB0
:1002F8005468726573686F6C6420457863656564DB
:1003080065643E202D2000416C61726D204241449D
:100318000D0A00416C61726D204F4B0D0A004F7041
:10032800656E207468652077696E646F7720616EEA
:1003380064207072657373207468652062757474C4
:100348006F6E20746F2073746172742E0D0A005BD7
:100358004552525D204661696C656420746F206364
:1003680068616E6765204D4C583930333932206FDB
:100378007065726174696E67206D6F64652E0D0A11
:1003880000426567696E6E696E67204F70656E2002
:1003980057696E646F772043616C69627261746932
:1003A8006F6E2E0D0A005A65726F696E6720436F73
:1003B8006D706C6574652E20585F6F6666203D20F1
:1003C80025642C20595F6F6666203D2025642C200B
:1003D8005A5F6F66663D2025640D0A00506C6561A2
:1003E800736520636C6F7365207468652077696E28
:1003F800646F7720616E642074686520707265731D
:10040800732074686520627574746F6E20746F2031
:10041800636F6E74696E75652E0D0A0042656769B3
:100428006E6E696E6720436C6F7365642057696EE2
:10043800646F772043616C6962726174696F6E2EB4
:100448000D0A005363616C696E6720436F6D706CB1
:10045800657465642E20585F7363616C6520203D68
:1004680020325E25642C20595F7363616C65203DE2
:1004780020325E25642C205A5F7363616C65203DD1
:1004880020325E25640D0A00506C65617365206337
:100498007261636B207468652077696E646F77207A
:1004A800746F207365742074686520616C61726D67
:1004B800207468726573686F6C642C207468656E4C
:1004C8002070726573732074686520627574746F28
:1004D8006E2E0D0A005B4552525D2053656E736F98
:1004E800722076616C75652069732062656C6F7720
:1004F800206E6F697365206D617267696E2C20705C
:100508006C6561736520636C6F7365207468652022
:1005180077696E646F7720616E642070726573739B
:100528002074686520627574746F6E20746F207211
:10053800657472792E0D0A005B4552525D20412088
:1005480073656E736F72206572726F722068617363
:10055800206F636375727265642E20506C656173D9
:100568006520636C6F7365207468652077696E64B5
:100578006F7720616E64207072657373207468658C
:1005880020627574746F6E20746F2072657472794E
:100598002E0D0A00426567696E6E696E67204372A8
:1005A80061636B65642057696E646F772043616C83
:1005B8006962726174696F6E2E0D0A005B57415251
:1005C8004E5D205468726573686F6C64206973208F
:1005D80062656C6F77206E6F697365206D617267F5
:1005E800696E2E2053656E736F72206D6179206E6F
:1005F8006F74206F70657261746520636F727265C5
:1006080063746C792E0D0A005468726573686F6C98
:10061800642063616C6962726174696F6E20636FD4
:100628006D706C6574652E205468726573686F6CA4
:10063800643A20256C750D0A00506C65617365205D
:10064800636C6F7365207468652077696E646F7773
:1006580020616E642070726573732074686520620F
:100668007574746F6E20746F2066696E6973682E76
:100678000D0A0043616C6962726174696F6E204390
:100688006F6D706C657465642E0D0A004D61676E40
:1006980065746F6D657465722053656E736F722033
:1006A8004572726F72202D205265626F6F742044FC
:0806B80065766963650D0A0017
:1006C000496E697469616C697A696E67204D4C582E
:1006D00039303633322054656D70657261747572CD
:1006E000652053656E736F722E2E2E000D0A4C6FAF
:1006F000616465642063616368656420636F6E7321
:1007000074616E747320616E642073657474696EB5
:1007100067732E2E2E000D0A4C6F61646564206392
:100720006F6E7374616E74732066726F6D20736583
:100730006E736F7220616E642072657365742074CD
:100740006F2064656661756C74732E2E2E004F4B9E
:100750000D0A004641494C45440D0A0053656E732D
:100760006F722054656D70657261747572653A20A0
:1007700025322E3266430D0A526F6F6D2054656D1F
:1007800070657261747572653A2025322E32664347
:100790000D0A0054656D7065726174757265205341
:1007A000656E736F72204572726F72202D205265D4
:0E07B000626F6F74204465766963650D0A0000
:1007BE00242424002D2D2D004B4F410045786563D8
:1007CE007574696E6720436F6D6D616E643A202299
:1007DE0000222E2E2E004F4B0D0A004641494C454D
:1007EE00440D0A00496E697469616C697A696E67B5
:1007FE0020524E343837302E2E2E0D0A00456E7490
:10080E006572696E6720436F6D6D616E64204D6F0A
:10081E0064652E2E2E00532D2C4D4348502D4D4CDD
:02082E00580070
:08083000696E66006E616E0046
:100838002F923F924F925F926F927F928F929F92E8
:10084800AF92BF92CF92DF92EF92FF920F931F93D6
:10085800CF93DF93CDB7DEB76497CDBFDEBF6C0112
:100868001A01462E5901FC0117821086848181FFE6
:1008780067C3CE0101968C879D87A0E88A8B9B8BE6
:10088800AC8BF101542D0E947C24862F662309F439
:1008980053C3442D91012F5F3F4F4F4F653219F0DD
:1008A8001901442E0BC0F901542F0E947C24862F75
:1008B80092E0290E311C411C653249F4B60190E0E2
:1008C8000E94731BAE86BF86AE84BF84DACF10E069
:1008D800F12C00E00032A0F48B3269F030F4803261
:1008E80059F0833269F400612CC08D3239F08033BD
:1008F80039F4016026C00260046023C0086021C08A
:1009080007FD2AC090ED980F9A3078F406FF06C0CC
:10091800AAE01A9F900D1124192F13C0EAE0FE9E39
:10092800900D1124F92E00620CC08E3221F406FDC0
:1009380003C3006406C08C3611F4006802C0883610
:1009480059F4F101542D0E947C24862FFFEF2F1AB1
:100958003F0A4F0A6111BECF9BEB980F933018F4F2
:100968000061805E06C09BE9980F933008F066C16D
:100978000F7E06FF16E00F73702E853621F4202FA8
:100988002064722E08C0863621F4802F8068782E65
:1009980002C01111115077FE07C01C3350F4EE2429
:1009A800E394E10E27E00BC0183038F027E017E099
:1009B80005C027E06CE3E62E02C0212FE12CF501EB
:1009C8003496EE87FF87F50160817181828193817A
:1009D8000E2DAE014F5F5F4F0E9459105C01598088
:1009E80050FE02C053FE06C071FC06C072FE06C06F
:1009F80000E205C00DE203C00BE201C000E0852D56
:100A08008C7019F0011174C2C0C277FE0FC0EA0CD5
:100A180054FE04C08A81813309F4EA941E1474F5E3
:100A280028E02E1578F538E0E32E2CC076FC2AC095
:100A3800812F90E08A159B059CF08CEFA8168FEF0C
:100A4800B80674F0972D9068792E0AC0E2E0F0E0BD
:100A5800EC0FFD1FE10FF11D8081803319F4115057
:100A68001111F4CF77FE0EC0EE24E394E10E812F2E
:100A780090E0A816B9062CF41A1904C0EE24E394E1
:100A880001C010E077FE06C01A141B0434F4C50137
:100A9800019605C085E090E002C081E090E0011178
:100AA8000196112331F0212F30E02F5F3F4F820F45
:100AB800931F2F2D30E08217930714F4F81A01C002
:100AC800F12C872D897049F4FF2039F0B60180E2B6
:100AD80090E00E94731BFA94F7CF002329F0B60127
:100AE800802F90E00E94731B73FC09C0FF2039F02F
:100AF800B60180E390E00E94731BFA94F7CF77FE6B
:100B080049C03501B7FE02C0612C712CC501861998
:100B1800970988248394912C8C0E9D1E880E991E0B
:100B2800F501EE19F109E88BF98B012F10E0119509
:100B380001951109FFEF6F167F0629F4B6018EE2C1
:100B480090E00E94731BA614B70444F08889998921
:100B5800861597051CF4F401818101C080E3F1E05A
:100B68006F1A71082FEF821A920A601671062CF01C
:100B7800B60190E00E94731BDDCFA614B70439F4C8
:100B88009A81963318F4953311F454FE81E3B60133
:100B980090E051C08A81813319F0952D9F7E592E9E
:100BA800B60190E00E94731B111105C074FC1CC0B3
:100BB80085E690E01BC0B6018EE290E00E94731BB0
:100BC80002E0010F82E011E0180FE1E0F0E0EC0F25
:100BD800FD1FE80FF11D8081B60190E00E94731B94
:100BE800812F1013F0CFE2CF85E490E0B6010E9488
:100BF800731BB7FC05C0A114B10439F454FE05C039
:100C0800B194A194B1088DE201C08BE2B60190E0E5
:100C18000E94731B80E3EAE0AE16B1042CF08F5FEC
:100C2800AAE0AA1AB108F7CFB60190E00E94731B98
:100C3800B601C501C0960E94731B74C1833631F09A
:100C4800833791F0833509F05EC024C0C501029650
:100C58008E879F87F501808189836A887B888C8845
:100C6800AA24A394B12C14C0C50103968E879F872C
:100C7800F50160807180828006FF03C0412F50E03B
:100C880002C04FEF5FEF882DB3010E94AD205C01D9
:100C98000F7715C0C50103968E879F87F501608081
:100CA8007180828006FF03C0412F50E002C04FEFE1
:100CB8005FEF882DB3010E94AD205C01006803FD41
:100CC8001EC08F2D90E0A816B906C8F4B60180E2C0
:100CD80090E00E94731BFA94F4CFF301582D0E9400
:100CE8007C24862FFFEF6F1A7F0A8F0AB60190E0E7
:100CF8000E94731BF110FA9421E0A21AB108A11402
:100D0800B10459F70FC1843611F0893679F5C50158
:100D180007FF09C004968E879F87F501608171815E
:100D2800828193810AC002968E879F87F501608130
:100D38007181072E000C880B990B0F76E02E97FF18
:100D48000AC090958095709561957F4F8F4F9F4F02
:100D5800F02FF068EF2E2AE030E0AE014F5F5F4FD2
:100D68000E944916A82E2C85A21A4BC0853729F453
:100D78000F7EE02E2AE030E025C0902F997FE92EE3
:100D88008F36C1F018F4883579F0D6C0803719F05D
:100D9800883721F0D1C0A92FA061EA2EE4FE0DC04A
:100DA800EE2DE460EE2E09C004FF0AC0F92FF660AC
:100DB800EF2E06C028E030E005C020E130E002C098
:100DC80020E132E0C501E7FE09C004968E879F87BF
:100DD800F501608171818281938108C002968E87B6
:100DE8009F87F5016081718180E090E0AE014F5FDF
:100DF8005F4F0E944916A82EFC85AF1A2E2D2F771B
:100E0800E22EE6FE0BC00E2D0E7FA11650F4E4FE76
:100E18000AC0E2FC08C00E2D0E7E05C0BA2C0E2DAD
:100E280003C0BA2C01C0B12E04FF0DC0FE01EA0DAB
:100E3800F11D8081803311F4097E09C002FF06C0CC
:100E4800B394B39404C0802F867809F0B39403FD5B
:100E580011C000FF06C0BF1488F4FA0C1F2D1B191F
:100E68000EC0BF1460F4B60180E290E00E94731BCC
:100E7800B394F7CFBF1418F4FB1802C01A2DF12C45
:100E880004FF10C0B60180E390E00E94731B02FFCC
:100E980017C001FD03C088E790E002C088E590E034
:100EA800B6010CC0802F867859F001FF02C08BE292
:100EB80001C080E207FD8DE2B60190E00E94731B3D
:100EC800A11638F4B60180E390E00E94731B11501C
:100ED800F7CFAA94E1E0F0E0EC0FFD1FEA0DF11D59
:100EE8008081B60190E00E94731BA110F2CF1AC056
:100EF800F4E0FF1588F584E0F81A73FE24C00111A8
:100F08002CC053FE30C054E3852E58E0952E50E097
:100F1800A52E072D0071F4015A2D0E947C24862FDE
:100F2800611128C0FF2009F4CFCCB60180E290E01F
:100F38000E94731BFA94F6CFF601878190852CC026
:100F48008FEF9FEF29C0B60180E290E00E94731BEB
:100F5800FA94F110F8CFD3CFF12CB601802F90E09E
:100F68000E94731BCECF40E3842E48E0942E40E0CD
:100F7800A42ECFCF01118052B60190E00E94731BBE
:100F8800FFEF8F1A9F0AAF0AC6CF23E02F1510F480
:100F980083E0B2CFF12CB5CF6496CDBFDEBFDF9131
:100FA800CF911F910F91FF90EF90DF90CF90BF905E
:100FB800AF909F908F907F906F905F904F903F90F1
:040FC8002F900895C9
:100FCC004F925F926F927F928F929F92AF92BF924D
:100FDC00CF92DF92EF92FF92CF93DF93CDB7DEB734
:100FEC002597CDBFDEBFDC0190918B43993130F05A
:100FFC0088E08093270410928B4303C09F5F9093EB
:10100C008B43FB01C184D284E384F4844091664316
:10101C005091674360916843709169434C155D052D
:10102C006E057F0540F4C0926643D0926743E09210
:10103C006843F0926943E09194434E2F50E04C305A
:10104C00510508F027C3FA01E658FF4F0C9403240E
:10105C0066E273E080E00E94D61881E080939443AE
:10106C001092624310926343109264431092654352
:10107C0010925E4310925F43109260431092614352
:10108C0010925A4310925B4310925C4310925D4352
:10109C0001C38AE00E94CC24882321F082E0809353
:1010AC009443F8C267E573E080E00E948D18F2C2A9
:1010BC0080918F43882369F069E873E080E00E9497
:1010CC00D61883E08093944310927C4310927D4316
:1010DC00E1C280918B43893108F4DCC266E273E093
:1010EC0080E00E94D618D6C280917C4390917D43BB
:1010FC009C012F5F3F4F20937C4330937D4311968F
:10110C004D915C911297052E000C660B770BC090DD
:10111C006243D0906343E0906443F0906543CB010D
:10112C00BA016C0D7D1D8E1D9F1D609362437093E3
:10113C006343809364439093654313968D909C9086
:10114C001497092C000CAA08BB08C0905E43D090E1
:10115C005F43E0906043F09061438C0C9D1CAE1C8F
:10116C00BF1C80925E4390925F43A0926043B0920A
:10117C0061431596CD90DC9016970D2C000CEE0863
:10118C00FF0840905A4350905B4360905C437090D2
:10119C005D43C40CD51CE61CF71CC0925A43D0927C
:1011AC005B43E0925C43F0925D43283E334008F48D
:1011BC0071C20F2EF8EE4F2EF3E05F2E612C712CC6
:1011CC00F02DA30192010E946021CA01B9010E9475
:1011DC00381B0E94E41F0E94592469837D8360930D
:1011EC00824370938343C501B401A30192010E9411
:1011FC006021CA01B9010E94381B0E94E41F0E94A1
:10120C005924B62EA72E6093804370938143C70157
:10121C00B601A30192010E946021CA01B9010E948A
:10122C00381B0E94E41F0E945924F62EE72E60936F
:10123C007E4370937F430E94E824EF92FF92AF921B
:10124C00BF924D814F93A981AF932EEA33E040E0DA
:10125C004F933F932F939F938F930E94601E0E94F6
:10126C007D1D64EE73E080E00E94D61884E08093CC
:10127C009443CDBFDEBF0EC280918F43882309F407
:10128C0009C2109266431092674310926843109201
:10129C00694364E274E080E00E94D61885E0809394
:1012AC00944310927C4310927D43F4C180917C4313
:1012BC0090917D43FC013196E0937C43F0937D4308
:1012CC0011964D915C9112972091824330918343FA
:1012DC00421B530B052E000C660B770BC090624320
:1012EC00D0906343E0906443F0906543CB01BA0126
:1012FC006C0D7D1D8E1D9F1D609362437093634327
:10130C00809364439093654313968D909C901497AF
:10131C002091804330918143821A930A092C000C4E
:10132C00AA08BB08C0905E43D0905F43E090604336
:10133C00F09061438C0C9D1CAE1CBF1C80925E43D4
:10134C0090925F43A0926043B09261431596CD900A
:10135C00DC90169720917E4330917F43C21AD30ABA
:10136C000D2C000CEE08FF0840905A4350905B4344
:10137C0060905C4370905D43C40CD51CE61CF71C5C
:10138C00C0925A43D0925B43E0925C43F0925D432F
:10139C00E83EF34008F47EC10F2EF8EE4F2EF3E03A
:1013AC005F2E612C712CF02DA30192010E94602103
:1013BC00CA01B9010E94381B0E94E41F0E945924E3
:1013CC0069837A838B839C836093624370936343BA
:1013DC008093644390936543C501B401A3019201CA
:1013EC000E946021CA01B9010E94381B0E94E41FAF
:1013FC000E9459244B015C0160935E4370935F43E0
:10140C008093604390936143C701B601A30192019D
:10141C000E946021CA01B9010E94381B0E94E41F7E
:10142C000E9459242B013C0160935A4370935B43F7
:10143C0080935C4390935D4389819A810E946D22D5
:10144C00F82E80939243C4010E946D22E82E809363
:10145C009143C2010E946D22D82E809390430E942A
:10146C00E8241F92DF921F92EF921F92FF922BE4BF
:10147C0034E040E04F933F932F939F938F930E94C0
:10148C00601E0E947D1D60E974E080E00E94D61809
:10149C0086E080939443CDBFDEBFFCC099E2C916B1
:1014AC00D104E104F10470F46DED74E080E00E946D
:1014BC008D1860E475E080E00E94D61887E0809378
:1014CC009443E8C080918F43882309F4E3C06CE90E
:1014DC0075E080E00E94D61888E0809394431092C7
:1014EC007C4310927D4310925643109257431092B6
:1014FC00584310925943CEC080918F43882309F4EE
:10150C00C9C060E974E080E00E94D61886E0809340
:10151C009443C0C080917C4390917D439C012F5F8C
:10152C003F4F20937C4330937D43409156435091E1
:10153C0057436091584370915943CB01BA016C0DDC
:10154C007D1D8E1D9F1D6093564370935743809352
:10155C00584390935943283E334008F49BC028EEDF
:10156C0033E040E050E00E946021CA01B9010E94C2
:10157C00381B0E94E41F0E94DB1D60936A4370932A
:10158C006B4380936C4390936D4368327105810576
:10159C00910528F464EC75E080E00E948D18609150
:1015AC006A4370916B4380916C4390916D430E94A0
:1015BC00361B2DEC3CEC4CE85FE30E94DE240E94D1
:1015CC00E41F0E94DB1DF62EE72ED82EC92E609349
:1015DC006A4370936B4380936C4390936D4360911B
:1015EC0066437091674380916843909169430E9470
:1015FC00361B2DEC3CEC4CE85FE30E94DE240E9491
:10160C00E41F0E94DB1D60936643709367438093D5
:10161C006843909369430E94E824CF92DF92EF9243
:10162C00FF9220E136E040E04F933F932F939F933E
:10163C008F930E94601E0E947D1D61E476E080E025
:10164C000E94D61889E080939443CDBFDEBF22C0A0
:10165C0080918F438823F1F06BE776E080E00E9465
:10166C00D6188AE08093944310928B430E94FE1606
:10167C0011C082E00E94CC24882321F08BE080935F
:10168C00944308C067E573E080E00E948D1802C0A7
:10169C00109294432596CDBFDEBFDF91CF91FF9082
:1016AC00EF90DF90CF90BF90AF909F908F907F90F6
:0816BC006F905F904F900895BC
:1016C400CF92DF92EF92FF921F93CF93DF93CDB728
:1016D400DEB76897CDBFDEBF80E193E40E94AF1B05
:1016E400182F882309F41AC240E1BE016F5F7F4FAF
:1016F4008CE094E20E946523882309F40AC22B81BA
:101704006C81862F90E0A0E0B0E0DC019927882767
:10171400B22B2A81AC01BD01422B898190E0982F24
:101724008827A0E0B0E06A017B01C82AD92AEA2A06
:10173400FB2AC701B6010E94381B20E030E040E8D4
:101744005BE30E94DE24609352437093534380937F
:101754005443909355432F816885862F90E0A0E0F1
:10176400B0E0DC0199278827B22B2E81AC01BD01A2
:10177400422B8D8190E0982F8827A0E0B0E06A0189
:101784007B01C82AD92AEA2AFB2AC701B6010E948A
:10179400381B20E030E040E855E30E94DE246093EB
:1017A4004E4370934F4380935043909351432B8502
:1017B4006C85862F90E0A0E0B0E0DC0199278827B3
:1017C400B22B2A85AC01BD01422B898590E0982F6C
:1017D4008827A0E0B0E06A017B01C82AD92AEA2A56
:1017E400FB2AC701B6010E94381B20E030E040E824
:1017F40059E20E94DE2460934A4370934B438093E2
:101804004C4390934D432F856889862F90E0A0E048
:10181400B0E0DC0199278827B22B2E85AC01BD01ED
:10182400422B8D8590E0982F8827A0E0B0E06A01D4
:101834007B01C82AD92AEA2AFB2AC701B6010E94D9
:10184400381B20E030E040E85BE30E94DE24609334
:10185400464370934743809348439093494348E1F8
:10186400BE016F5F7F4F84E294E20E946523882368
:1018740009F451C12B816C81862F90E0A0E0B0E087
:10188400DC0199278827B22B2A81AC01BD01422BA8
:10189400898190E0982F8827A0E0B0E06A017B015D
:1018A400C82AD92AEA2AFB2AC701B6010E94381B92
:1018B40020E030E040E857E30E94DE246093424396
:1018C4007093434380934443909345432F816885A9
:1018D400862F90E0A0E0B0E0DC0199278827B22BA6
:1018E4002E81AC01BD01422B8D8190E0982F882779
:1018F400A0E0B0E06A017B01C82AD92AEA2AFB2ABF
:10190400C701B6010E94381B20E030E040E85BE3E9
:101914000E94DE2460933E4370933F438093404390
:10192400909341432B856C85862F90E0A0E0B0E036
:10193400DC0199278827B22B2A85AC01BD01422BF3
:10194400898590E0982F8827A0E0B0E06A017B01A8
:10195400C82AD92AEA2AFB2AC701B6010E94381BE1
:1019640020E030E040E858E20E94DE2460933A43ED
:1019740070933B4380933C4390933D432F85688908
:10198400862F90E0A0E0B0E0DC0199278827B22BF5
:101994002E85AC01BD01422B8D8590E0982F8827C0
:1019A400A0E0B0E06A017B01C82AD92AEA2AFB2A0E
:1019B400C701B6010E94381B20E030E040E85DE238
:1019C4000E94DE24609336437093374380933843F8
:1019D400909339432B896C89862F90E0A0E0B0E086
:1019E400DC0199278827B22B2A89AC01BD01422B3F
:1019F400898990E0982F8827A0E0B0E06A017B01F4
:101A0400C82AD92AEA2AFB2AC701B6010E94381B30
:101A140020E030E040E85DE20E94DE24609332433F
:101A24007093334380933443909335436D8970E0CE
:101A3400762F66278E89682B072E000C880B990B4E
:101A44000E94381B20E030E040E85AE30E94DE2484
:101A540060932E4370932F4380933043909331438C
:101A64006F8970E0762F6627888D682B072E000C0F
:101A7400880B990B0E94381B20E030E040E85AE3C1
:101A84000E94DE2460932A4370932B4380932C435B
:101A940090932D4344E0BE016F5F7F4F81E894E251
:101AA4000E9465238823C9F1698170E0762F662737
:101AB4008A81682B072E000C880B990B0E94381B17
:101AC40020E030E040E858E30E94DE24609326439F
:101AD4007093274380932843909329436B8170E04C
:101AE400762F66278C81682B072E000C880B990BA8
:101AF4000E94381B20E030E040E85AE30E94DE24D4
:101B0400609322437093234380932443909325430B
:101B140005C010E003C010E001C010E0812F6896FA
:101B2400CDBFDEBFDF91CF911F91FF90EF90DF908B
:041B3400CF900895B1
:101B38004F925F926F927F928F929F92AF92BF92D5
:101B4800CF92DF92EF92FF92CF93DF93CDB7DEB7BC
:101B58006197CDBFDEBF80918843823029F08091A4
:101B68008843813009F08DC160910E4370910F4315
:101B7800072E000C880B990B0E94381B4B015C0147
:101B88006091084370910943072E000C880B990B4C
:101B98000E94381B20E030E040E451E40E94DA243F
:101BA8006B017C0120912E4330912F4340913043AB
:101BB800509131430E94DE24A50194010E945324D0
:101BC8009B01AC01C701B6010E94DA2420E030E095
:101BD80040E059E40E94DE2469837A838B839C83E6
:101BE800809188438130A9F4E4E0F3E46081718155
:101BF80082819381680F791F072E000C880B990B3F
:101C08000E94381B20E030E040E05FE30E94DE24C1
:101C180014C0E4E0F3E46681778180859185680FDC
:101C2800791F072E000C880B990B0E94381B20E0A7
:101C380030E040E05FE30E94DE2420E030E040E452
:101C480051E40E94DA242B013C0120912A4330916F
:101C58002B4340912C4350912D43C701B6010E945C
:101C6800DE24A50194010E9453249B01AC01C30109
:101C7800B2010E94DA2420E030E040E059E40E94FA
:101C8800DE246D837E838F83988720915243309121
:101C98005343409154435091554369817A818B81D4
:101CA8009C810E9452244B015C0120914E4330914B
:101CB8004F4340915043509151430E94DA24209160
:101CC80046433091474340914843509149430E94CD
:101CD80053242B013C01A5019401C501B4010E94C4
:101CE800DE2420914A4330914B4340914C4350911C
:101CF8004D430E94DE249B01AC01C301B2010E9446
:101D080053242B013C01609316437093174380932F
:101D180018439093194323E333E948E853E40E94B6
:101D280053244B015C012091264330912743409175
:101D380028435091294360913A4370913B438091E5
:101D48003C4390913D430E94DE2469837A838B83D0
:101D58009C838091324390913343A0913443B09156
:101D6800354389879A87AB87BC8720E030E048EC09
:101D780051E4C301B2010E945224209136433091AC
:101D8800374340913843509139430E94DE246D8790
:101D98007E878F87988BA5019401C501B4010E94A5
:101DA800DE24A50194010E94DE24A50194010E946D
:101DB800DE242B013C01C0902243D0902343E090C5
:101DC8002443F090254393E0B0E0A0E0F8ECE1E490
:101DD800998B20E030E048EC51E46B2F7A2F8F2F5D
:101DE8009E2F0E94522429853A854B855C850E9446
:101DF800DE2420E030E040E85FE30E9453242D8594
:101E08003E854F8558890E94532429813A814B8108
:101E18005C810E94DE249B01AC016D817E818F81F3
:101E280098850E94DA244B015C01A3019201C50147
:101E3800B4010E9453240E94AE190E94AE1923E3F4
:101E480033E948E853E40E945224A70196010E940E
:101E58005224A989A150A98BB62FA72FF82FE92FB3
:101E680029892111B6CFC62ED72EE82EF92EC09279
:101E78001A43D0921B43E0921C43F0921D4381E029
:101E880001C080E06196CDBFDEBFDF91CF91FF90AA
:101E9800EF90DF90CF90BF90AF909F908F907F9002
:081EA8006F905F904F900895C8
:101EB0008F929F92AF92BF92CF92DF92EF92FF925A
:101EC0001F93CF93DF9300D0CDB7DEB780E193E4CB
:101ED0000E94AF1B182F882309F4DCC080E094E136
:101EE0000E9449216C0182E094E10E9449215C0139
:101EF00084E094E10E9449214C017601EA24FB240C
:101F0000E826F9268AE394E10E94492189839A838D
:101F100089819A81E816F90609F0B5C080911043CD
:101F200090911143C816D90609F0AFC080911243B1
:101F300090911343A816B90609F0A9C080911443E3
:101F4000909115438816990609F0A3C086E094E1A4
:101F50000E94B21E60935243709353438093544344
:101F6000909355438AE094E10E94B21E60934E43E1
:101F700070934F4380935043909351438EE094E18C
:101F80000E94B21E60934A4370934B4380934C432C
:101F900090934D4382E194E10E94B21E60934643C8
:101FA00070934743809348439093494386E194E17B
:101FB0000E94B21E60934243709343438093444314
:101FC000909345438AE194E10E94B21E60933E43A0
:101FD00070933F4380934043909341438EE194E15B
:101FE0000E94B21E60933A4370933B4380933C43FC
:101FF00090933D4382E294E10E94B21E6093364387
:1020000070933743809338439093394386E294E149
:102010000E94B21E609332437093334380933443E3
:10202000909335438AE294E10E94B21E60932E435E
:1020300070932F4380933043909331438EE294E129
:102040000E94B21E60932A4370932B4380932C43CB
:1020500090932D4382E394E10E94B21E6093264345
:1020600070932743809328439093294386E394E118
:102070000E94B21E609322437093234380932443B3
:102080009093254307C010E005C010E003C010E0A6
:1020900001C010E0812F0F900F90DF91CF911F9121
:1020A000FF90EF90DF90CF90BF90AF909F908F9078
:0220B000089591
:1020B200283008F027E03327DA01990F311D87FD18
:1020C200916000966105710539F432602E5F3D938F
:1020D20030E32A95E1F708959F3F30F0803871058B
:1020E200610509F03C5F3C5F3D93913008F08068E8
:1020F200911DDF93CF931F930F93FF92EF92192FAE
:10210200987F9695E92F96959695E90FFF27E057C8
:10211200FE4F99273327EE24FF24A701E7010590FC
:102122000894079428F4360FE71EF81E491F511D24
:10213200660F771F881F991F0694A1F705900794D1
:1021420028F4E70EF81E491F561FC11D770F881F7E
:10215200991F661F0694A1F70590079428F4F80EBC
:10216200491F561FC71FD11D880F991F661F771F52
:102172000694A1F70590079420F4490F561FC71F34
:10218200D81F990F661F771F881F0694A9F784919D
:102192001095177041F0D695C79557954795F794C6
:1021A200E7941A95C1F7E6E3F1E06894159015916A
:1021B20035916591959105907FE27395E118F10A49
:1021C200430B560BC90BD009C0F7E10CF11E431F9C
:1021D200561FC91FD01D7EF4703311F48A95E6CFC5
:1021E200E894015030F0080F0AF40027021708F4AF
:1021F200202F2395022F7A3328F079E37D932A95B5
:10220200E9F710C07D932A9589F60694979567950C
:10221200379517951794E118F10A430B560BC90B22
:10222200D00998F023957E9173957A3308F070E384
:102232007C932013B8F77E9170617D9330F0839583
:1022420071E37D9370E32A95E1F71124EF90FF90FB
:102252000F911F91CF91DF91992787FD9095089556
:10226200CF93DF93C0E1D3E46881798180E094E188
:102272000E94B5226A817B8182E094E10E94B522AC
:102282006C817D8184E094E10E94B52240915243A9
:1022920050915343609154437091554386E094E1C9
:1022A2000E94281F40914E4350914F4360915043EA
:1022B200709151438AE094E10E94281F40914A4361
:1022C20050914B4360914C4370914D438EE094E1A9
:1022D2000E94281F409146435091474360914843D2
:1022E2007091494382E194E10E94281F4091424348
:1022F20050914343609144437091454386E194E198
:102302000E94281F40913E4350913F4360914043B9
:10231200709141438AE194E10E94281F40913A431F
:1023220050913B4360913C4370913D438EE194E177
:102332000E94281F409136435091374360913843A1
:102342007091394382E294E10E94281F4091324306
:1023520050913343609134437091354386E294E166
:102362000E94281F40912E4350912F436091304389
:10237200709131438AE294E10E94281F40912A43DE
:1023820050912B4360912C4370912D438EE294E146
:102392000E94281F40912643509127436091284371
:1023A2007091294382E394E10E94281F40912243C5
:1023B20050912343609124437091254386E394E135
:1023C2000E94281F688179818A819B8168277927E9
:1023D2008C819D81682779278AE394E10E94B52246
:0623E200DF91CF91089588
:1023E800CF93DF93CDB7DEB76597CDBFDEBF8091C2
:1023F8008E43811108C0329B09C081E080938E43CF
:1024080080938F4303C0329B10928E4380919343F5
:102418008130E9F038F0833009F446C0843009F49B
:1024280047C05AC0809194438B3021F482E00E94C7
:10243800CC2403C08AE00E94CC24882321F081E0C8
:102448008093934365C082E08093934361C00E9468
:102458001921882309F45CC0CE010E960E94D72268
:102468008823E1F0BE016F5F7F4FCE010E960E9478
:10247800A617809194438B3049F480918F43811142
:1024880005C0CE0101960E9492120BC0BE016F5F7B
:102498007F4FCE010E960E94E60703C082E080932C
:1024A800934310928F4334C084E08093934330C0A9
:1024B8000E945A22882361F080E00E94AA14109298
:1024C800934382EE94E0809384439093854320C0A5
:1024D80082E0809393431CC080918443909185430C
:1024E800823E944060F064E976E080E00E94D6186D
:1024F80081E090E0809384439093854309C0809164
:1025080084439091854301968093844390938543B7
:0C2518006596CDBFDEBFDF91CF91089526
:102524008F929F92AF92BF92CF92DF92EF92FF92DF
:102534000F931F93CF93DF93FC01C184D284E38470
:10254400F48480906A4390906B43A0906C43B09065
:102554006D43C814D904EA04FB0470F08091664307
:1025640090916743A0916843B09169438C159D0590
:10257400AE05BF0508F05EC0C0916643D0916743C5
:1025840010916843009169430E94E824FF92EF92FE
:10259400DF92CF92BF92AF929F928F920F931F932D
:1025A400DF93CF932DEC32E040E04F933F932F9392
:1025B4009F938F930E94601E0E947D1D67EF72E0BF
:1025C40080E00E948D1880918C432DB73EB72F5E1A
:1025D4003F4F2DBF3EBF863941F40AC081508093DE
:1025E4008C4388E08093260406C08F5F80938C43DD
:1025F40088E08093250480918A43843129F0909166
:102604008C43943699F404C080918C43843630F022
:102614006FE073E080E00E94D61805C06BE173E0C0
:1026240080E00E94D61810928A4309C08F5F80937D
:102634008A4305C080918C438111D0CFD2CFDF91E2
:10264400CF911F910F91FF90EF90DF90CF90BF90AB
:08265400AF909F908F90089554
:10265C000F931F93CF93DF9340E054E0FA01108265
:10266C0020E234E088E0F901808380E494E0FC010E
:10267C001082C0E6D4E061E06883A0E8B4E01C926C
:10268C0000EA14E0F8011082FA011482F9011482B4
:10269C00FC0114826C8314961C921497F80114821A
:1026AC00FA01108A118A128A138A148A158A168AD8
:1026BC00178AF901108A118A48E8428B138A148A06
:1026CC00158A168A178AFC01108A118A128A138AB3
:1026DC00148A158A168A178A188A198A1A8A1B8AE2
:1026EC001C8A1D8A1E8A1F8A50961C9250975196DE
:1026FC001C92519752961C92529753961C92539738
:10270C0054961C92549755961C92559756961C921B
:10271C00569757961C92F801108A118A128A138ABE
:10272C00148A158A168A178AE0EEF5E01186118252
:10273C0010821482168217821086658380E1828350
:10274C001382128687EF94E28093744390937543BF
:10275C0088EF94E2809372439093734389EF94E2F1
:10276C008093704390937143DF91CF911F910F91A0
:02277C000895BE
:10277E00CF92DF92EF92FF920F931F93CF93DF933F
:10278E00809195438230C9F030F4882309F463C0F8
:10279E00813039F058C0833009F1843009F45BC0C0
:1027AE0052C00E944424811104C085E08093954359
:1027BE0052C082E0809395434EC00E940D22882322
:1027CE0009F449C00E94E715811104C085E0809389
:1027DE00954341C083E0809395433DC088E080934C
:1027EE0027040E949C0D882351F10E94FA23F62E95
:1027FE00E72ED82EC92E0E94F123C62FD72F182FC1
:10280E00092F0E94EB24CF92DF92EF92FF920F934B
:10281E001F93DF93CF932CE537E040E04F933F9328
:10282E002F939F938F930E94601E0E941D1C1092E7
:10283E0095438DB79EB70D968DBF9EBF0CC085E09C
:10284E008093954308C063E977E080E00E94D61834
:10285E0084E080939543DF91CF911F910F91FF906C
:08286E00EF90DF90CF90089578
:1028760010C00E94672458F00E94602440F029F49A
:102886005F3F29F00C94AD2451110C946F240C94E5
:10289600F1240E942B2068F39923B1F3552391F379
:1028A600951B550BBB27AA2762177307840738F0B9
:1028B6009F5F5F4F220F331F441FAA1FA9F335D016
:1028C6000E2E3AF0E0E832D091505040E695001CCA
:1028D600CAF72BD0FE2F29D0660F771F881FBB1F84
:1028E600261737074807AB07B0E809F0BB0B802D62
:1028F600BF01FF2793585F4F3AF09E3F510578F08E
:102906000C94AD240C946F245F3FE4F3983ED4F30B
:10291600869577956795B795F7959F5FC9F7880F61
:10292600911D9695879597F90895E1E0660F771FB3
:10293600881FBB1F621773078407BA0720F0621B44
:0E294600730B840BBA0BEE1F88F7E095089513
:102954001F93CF93DF931F92CDB7DEB7182F10923A
:102964009443BE016F5F7F4F8BE00E944722882310
:1029740009F450C08EE394E10E94E22411114CC08A
:10298400998189134BC08FE394E10E94B21E609336
:102994006A4370936B4380936C4390936D4383E4D9
:1029A40094E10E94B21E60936643709367438093E0
:1029B40068439093694387E494E10E94492180939A
:1029C40082439093834389E494E10E944921809354
:1029D4008043909381438BE494E10E944921809346
:1029E4007E4390937F438DE494E10E94E22480939C
:1029F40092438EE494E10E94E224809391438FE415
:102A040094E10E94E224809390438BE0809394436A
:102A140081E005C080E003C080E001C080E00F9049
:082A2400DF91CF911F9108958D
:102A2C000FC00E94602438F00E94672420F0952388
:102A3C0011F00C94AD240C94F12411240C946F24FB
:102A4C000E942B2070F3959FC1F3950F50E0551FFA
:102A5C00629FF001729FBB27F00DB11D639FAA27E7
:102A6C00F00DB11DAA1F649F6627B00DA11D661F36
:102A7C00829F2227B00DA11D621F739FB00DA11D57
:102A8C00621F839FA00D611D221F749F3327A00D11
:102A9C00611D231F849F600D211D822F762F6A2FAD
:102AAC0011249F5750409AF0F1F088234AF0EE0F12
:102ABC00FF1FBB1F661F771F881F91505040A9F73F
:102ACC009E3F510580F00C94AD240C946F245F3F15
:102ADC00E4F3983ED4F3869577956795B795F7957B
:102AEC00E7959F5FC1F7FE2B880F911D96958795F3
:042AFC0097F90895A9
:102B000011C00E94602438F00E94672420F039F43C
:102B10009F3F19F426F40C94F1240EF4E095E7FBA2
:102B20000C94AD24E92F0E942B2058F3BA176207AA
:102B300073078407950720F079F4A6F50C946E24AA
:102B40000EF4E0950B2EBA2FA02D0B01B9019001C8
:102B50000C01CA01A0011124FF27591B99F0593F0C
:102B600050F4503E68F11A16F040A22F232F342F54
:102B70004427585FF3CF469537952795A795F040A2
:102B80005395C9F77EF41F16BA0B620B730B840BB7
:102B9000BAF09150A1F0FF0FBB1F661F771F881F6F
:102BA000C2F70EC0BA0F621F731F841F48F48795C7
:102BB00077956795B795F7959E3F08F0B0CF9395B9
:0E2BC000880F08F09927EE0F979587950895D6
:102BCE00CF93DF93CDB7DEB72E97CDBFDEBF42E0FA
:102BDE00BE016F5F7F4F8FEF9FE30E9465238823B7
:102BEE0009F447C08A818C7790E0959587959595E5
:102BFE008795809388434CE0BE016D5F7F4F83E0E5
:102C0E0090E40E9465238823B1F1E4E0F3E48B8124
:102C1E0090E0982F88272C81822B808391838D8141
:102C2E0090E0982F88272E81822B828393838F8129
:102C3E0090E0982F88272885822B84839583898519
:102C4E0090E0982F88272A85822B868397838B8501
:102C5E0090E0982F88272C85822B808791878D85F1
:102C6E0090E0982F88272E85822B8287938781E08C
:102C7E0003C080E001C080E02E96CDBFDEBFDF91A5
:042C8E00CF91089545
:102C9200FA01AA27283051F1203181F1E8946F938B
:102CA2006E7F6E5F7F4F8F4F9F4FAF4FB1E03ED031
:102CB200B4E03CD0670F781F891F9A1FA11D680FCF
:102CC200791F8A1F911DA11D6A0F711D811D911D02
:102CD200A11D20D009F468943F912AE0269F112477
:102CE2003019305D3193DEF6CF010895462F4770DB
:102CF200405D4193B3E00FD0C9F7F6CF462F4F7036
:102D0200405D4A3318F0495D31FD4052419302D093
:102D1200A9F7EACFB4E0A695979587957795679539
:102D2200BA95C9F700976105710508959B01AC0139
:102D32000A2E06945795479537952795BA95C9F760
:0C2D4200620F731F841F951FA01D0895D1
:102D4E00E0E0F2E0108A118A128A138A148A158A38
:102D5E00168A178A108E118E81E08083118214A636
:102D6E0010A211A212A213A214A215A216A217A2A9
:102D7E0010A611A612A613A615A616A617A610AA79
:102D8E0011AA12AA10924B0210924D0210924C02EE
:102D9E0010924A0210924F0210925102109250025B
:102DAE0010924E021092530210925502109254023B
:102DBE001092520212AE13AE14AE15AE86AF17AE0F
:102DCE00109240021092410210924202109243025F
:102DDE00109244021092450210924802109249023B
:0E2DEE0014AA15AA16AA17AA10AE80E008951E
:102DFC00CF936DE873E48BE00E944722C82F8823A1
:102E0C0009F448C040916A4350916B4360916C4304
:102E1C0070916D438FE394E10E94281F40916643AB
:102E2C0050916743609168437091694383E494E1E6
:102E3C000E94281F609182437091834387E494E140
:102E4C000E94B522609180437091814389E494E1A2
:102E5C000E94B52260917E4370917F438BE494E194
:102E6C000E94B522609192438DE494E10E948D21E1
:102E7C00609191438EE494E10E948D216091904386
:102E8C008FE494E10E948D2160918D438EE394E157
:0A2E9C000E948D218C2FCF91089524
:102EA6006F927F928F92CF92DF92EF92CF93DF93C2
:102EB6003B01882EFB01582D0E947C246623D1F10C
:102EC600D42FE0E4F8E0848180648483F301582DF4
:102ED6000E947C2461111BC01EC00E948F2488237F
:102EE600E1F3F6015E2D0E947C24862F0E94F522D6
:102EF600CF5FE82C6301CC0ED11CE11CF6015E2DE0
:102F06000E947C24662339F0CF3F39F704C0E82CB1
:102F16006301C0E0E2CF0E948F248823E1F38D2F66
:102F26000E94F5220E948F248823E1F30E940C243C
:102F36008111FCCFDF91CF91EF90DF90CF908F90F2
:062F46007F906F900895DA
:102F4C00DC01FB0111966D917C911297809182436B
:102F5C0090918343681B790B0090924302C0759546
:102F6C0067950A94E2F7608313962D913C91149720
:102F7C008091804390918143281B390B00909143A1
:102F8C0002C0359527950A94E2F7218315964D9149
:102F9C005C91169780917E4390917F43481B590B0F
:102FAC000090904302C0559547950A94E2F74283EE
:102FBC002202C00111246602800D911D11244402CD
:102FCC00800D911D1124A0E0B0E081879287A3872A
:102FDC00B487138214821582168217821086089584
:102FEC00AF92BF92CF92DF92EF92FF920F931F930B
:102FFC00CF93DF936B01E82EF22EB32EA42EE22F8B
:10300C00F32F542F0E947C24662359F1822F932F87
:10301C00A42FC0E0D0E00196A11D9C014A2F2150A5
:10302C0031094109F901542F0E947C24662381F057
:10303C002196F1CF8E012F2D3B2D4A2D8E2DB601D1
:10304C000E94531C892B69F08FEFC81AD80AE80A22
:10305C00F6015E2D0E947C246111ECCF70E080E0C3
:10306C0002C0B6018E2DDF91CF911F910F91FF9071
:0C307C00EF90DF90CF90BF90AF900895D0
:1030880040E068ED80E690E00E94B82440E068EDFA
:1030980081E690E00E94B82440E068ED85E690E083
:1030A8000E94B82440E068ED88E790E00E94B824C8
:1030B8004CE068ED88E690E00E94B82440E068EDB6
:1030C80089E690E00E94B82440E068ED80E790E04F
:1030D8000E94B82440E068ED8CE790E00E94B82494
:1030E80040E068ED82E690E00E94B82440E068ED98
:1030F80083E690E00E94B82440E068ED84E690E022
:103108000E94B82440E068ED80E890E00E94B8246E
:02311800089518
:10311A006F927F928F92CF92DF92EF92CF933B0181
:10312A00882EFB01582D0E947C24662391F1E0E64B
:10313A00F8E0848180648483F301582D0E947C2402
:10314A0061111BC01EC00E94A7248823E1F3F60167
:10315A005E2D0E947C24862F0E948123CF5FE82C5B
:10316A006301CC0ED11CE11CF6015E2D0E947C2469
:10317A00662339F0CF3F39F704C0E82C6301C0E079
:10318A00E2CF0E94A7248823E1F30E942C24811114
:10319A00FCCFCF91EF90DF90CF908F907F906F9080
:0231AA00089586
:1031AC006F927F928F92CF92DF92EF92CF933B01EF
:1031BC00882EFB01582D0E947C24662391F1E0E4BB
:1031CC00F8E0848180648483F301582D0E947C2470
:1031DC0061111BC01EC00E948F248823E1F3F601ED
:1031EC005E2D0E947C24862F0E94F522CF5FE82C56
:1031FC006301CC0ED11CE11CF6015E2D0E947C24D7
:10320C00662339F0CF3F39F704C0E82C6301C0E0E6
:10321C00E2CF0E948F248823E1F30E940C248111B9
:10322C00FCCFCF91EF90DF90CF908F907F906F90ED
:02323C000895F3
:10323E00EF92FF920F931F93CF93DF931F92CDB711
:10324E00DEB769838A01E22E60E00E949A1FF82E93
:10325E00882369F161E0CE0101960E94DA1EF82EF4
:10326E00811104C083E08093040921C0E0E0F9E0FD
:10327E0087818160878381E08483858185FD0AC093
:10328E00858182FD07C0858183FD04C085818370A1
:10329E00833099F70E940323882329F083E08093DB
:1032AE000409F12C04C06E2DC8010E940A1E8F2D38
:1032BE000F90DF91CF911F910F91FF90EF90089596
:1032CE000E944B241092994320919643822F90E0B6
:1032DE00FC01EA5FFF4B30813D3071F130919A4332
:1032EE00231751F1E2E0F0E4718150812F5F03C0AA
:1032FE00262F752F542FFC01EA5FFF4B4081822F42
:10330E0090E0FC01EA5FFF4B30813D3041F4E2E09A
:10331E00F0E4518372834083209396430DC0309125
:10332E009A4361E0620F3213E3CFE2E0F0E451839F
:10333E007283408320939643FC01EA5FFF4B20810A
:0E334E002D3021F4FC01EA5FFF4B1082089540
:10335C0006C019F416F40C94F1240C948F230E94DB
:10336C003320B8F39923C9F3B6F39F57550B87FF56
:10337C000E9475240024A0E640EA900180585695DE
:10338C00979528F4805C660F771F881F20F026170E
:10339C003707480730F4621B730B840B2029312943
:1033AC004A2BA69517940794202531254A2758F7C0
:1033BC00660F771F881F20F026173707480730F451
:1033CC00620B730B840B200D311D411DA09581F7F1
:0E33DC00B901842F9158880F96958795089512
:1033EA00DF92EF92FF920F931F93CF93DF937B01AC
:1033FA00D42EE90160E00E94BF1F182F882361F1D3
:10340A006D2DC7010E94011F182F811104C083E08E
:10341A008093240921C0E0E2F9E0878181608783F3
:10342A0081E08483858185FD0AC0858182FD07C08C
:10343A00858183FD04C085818370833099F70E945A
:10344A001123882329F083E08093240910E004C023
:10345A00602FCE010E94351E812FDF91CF911F91DF
:0A346A000F91FF90EF90DF9008959E
:10347400CF93C82F60EC76E080E00E948D18CC23B7
:1034840029F081E00E94A321C82F04C080E00E949B
:10349400A321C82F0E94E524882361F06CEE76E016
:1034A40080E00E948D188CE394E10E9449210E94DF
:1034B400E6230CC066E177E080E00E948D180E944C
:1034C400C224BC018CE394E10E94B522CC2331F0E8
:1034D4006EE477E080E00E948D1808C063E577E031
:1034E40080E00E948D1885E080939543CF910895E4
:1034F4001F920F920FB60F9211240BB60F922F93B7
:103504003F934F935F936F937F938F939F93AF9367
:10351400BF93EF93FF938091430180FF07C0E09135
:103524007A43F0917B43309709F0099580914301E8
:1035340081FF07C0E0917843F0917943309709F017
:10354400099583E080934301FF91EF91BF91AF917F
:103554009F918F917F916F915F914F913F912F91A7
:0E3564000F900BBE0F900FBE0F901F9018958A
:10357200CF92DF92EF920F931F93CF93DC019A01C8
:10358200462F60E070E00F2EC12CFBE0DF2EF02D05
:1035920000E012E081E0C0919943CC2399F06901E7
:1035A200E42E0E94671962E070E480E84E2D9601D5
:1035B2000E94F617672B682B11F0000010C0000064
:1035C200C0E00DC0F601978190FD06C0000000002A
:1035D200F80180836F5F7F4F6A177B07E0F28C2FC1
:0E35E200CF911F910F91EF90DF90CF90089541
:1035F0000E94F8210E9434248FEF90E20E94D1248F
:103600000E949D230E94A4220E94AA230E941424A7
:103610000E9480220E94B9210E9492220E942424AA
:1036200084E79FE10E94B3240E9489240E9483249E
:103630000E94A12486EE92E20E94BD248FEF90E2C8
:103640000E94D124C6B1C2FBCC27C0F98C2F0E94A6
:103650008A1E8C2F0E943A1A78940E944E1FA895B9
:0C3660000E94F4110E94BF138895F9CF5E
:10366C00E89409C097FB3EF4909580957095619510
:10367C007F4F8F4F9F4F9923A9F0F92F96E9BB27C6
:10368C009395F695879577956795B795F111F8CF42
:10369C00FAF4BB0F11F460FF1BC06F5F7F4F8F4FAD
:1036AC009F4F16C0882311F096E911C0772321F0A3
:1036BC009EE8872F762F05C0662371F096E8862F3B
:1036CC0070E060E02AF09A95660F771F881FDAF792
:0A36DC00880F9695879597F90895D9
:1036E6000F931F93CF93DF93FB01248121FD03C02A
:1036F6008FEF9FEF2CC022FF16C047815085258192
:1037060036814217530744F4A081B1819D012F5F92
:103716003F4F208331838C93278130852F5F3F4F26
:103726002783308714C08B01EC01FB010184F285ED
:10373600E02D0995892BE1F6D80117968D919C917C
:103746001897019617968D939C931897CE01DF9143
:08375600CF911F910F9108951E
:10375E000F931F93CF93DF93CDB7DEB72697CDBFD1
:10376E00DEBF8C0146E0BE016F5F7F4F85E094E2C5
:10377E000E9465238823D9F0898190E0982F8827AD
:10378E002A81822BF801808391838B8190E0982F80
:10379E0088272C81822B828393838D8190E0982FB2
:1037AE0088272E81822B8483958381E001C080E05F
:1037BE002696CDBFDEBFDF91CF911F910F91089559
:1037CE001F920F920FB60F9211240BB60F922F93DA
:1037DE003F934F935F936F937F938F939F93AF938B
:1037EE00BF93EF93FF933A9B05C0E0917443F09122
:1037FE00754309953B9B05C0E0917243F09173436D
:10380E0009958FEF87B9FF91EF91BF91AF919F917E
:10381E008F917F916F915F914F913F912F910F906B
:0C382E000BBE0F900FBE0F901F9018955E
:10383A001F93CF93DF9380910641882359F1E0E4E7
:10384A00F8E084818064848380910641811116C0E6
:10385A0019C00E948F248823E1F3CA5FDE4B888156
:10386A000E94F5221F5FC12FD0E0FE01EA5FFE4BE6
:10387A008081882339F01F3F61F704C0C0E0D0E09F
:10388A0010E0E7CF0E948F248823E1F30E940C24E2
:0C389A008111FCCFDF91CF911F910895A8
:1038A600CF92DF92EF920F931F936B01E82E0115D3
:1038B600110521F101501109F6015E2D0E947C24AB
:1038C600862F662399F0F901542F0E947C246623E3
:1038D60069F00115110551F0861308C08FEFC81A5B
:1038E600D80AE80A2F5F3F4F4F4FE4CF90E0F90127
:1038F600542F0E947C24861B910902C080E090E030
:0C3906001F910F91EF90DF90CF9008957B
:10391200CF92DF92EF92CF936B01E82EC42FA8953E
:103922006AEC77E080E00E948D188E2DB6010E942D
:103932008D186FED77E080E00E948D184DE08E2D9E
:10394200B6010E94531746EC57E060E08C2F90E0DE
:103952000E94B91A882331F064EE77E080E00E9479
:103962008D1805C069EE77E080E00E948D18CF9136
:08397200EF90DF90CF90089563
:10397A001F920F920FB60F9211240BB60F922F932C
:10398A003F934F935F936F937F938F939F93AF93DD
:10399A00BF93EF93FF93E0918643F091874330976B
:1039AA0009F00995E0ECF0E0818181608183FF9163
:1039BA00EF91BF91AF919F918F917F916F915F919D
:1039CA004F913F912F910F900BBE0F900FBE0F900A
:0439DA001F9018958D
:1039DE001F920F920FB60F9211240BB60F922F93C8
:1039EE003F934F935F936F937F938F939F93AF9379
:1039FE00BF93EF93FF93E0917643F0917743309727
:103A0E0009F0099581E080935301FF91EF91BF91E9
:103A1E00AF919F918F917F916F915F914F913F9158
:103A2E002F910F900BBE0F900FBE0F901F901895F9
:103A3E001F920F920FB60F9211240BB60F922F9367
:103A4E003F934F935F936F937F938F939F93AF9318
:103A5E00BF93EF93FF9380914008E0910040F09167
:103A6E000140309709F00995FF91EF91BF91AF9109
:103A7E009F918F917F916F915F914F913F912F9178
:0E3A8E000F900BBE0F900FBE0F901F9018955B
:103A9C001F920F920FB60F9211240BB60F922F9309
:103AAC003F934F935F936F937F938F939F93AF93BA
:103ABC00BF93EF93FF93789B05C0E0917043F09117
:103ACC00714309958FEF8FB9FF91EF91BF91AF9132
:103ADC009F918F917F916F915F914F913F912F911A
:0E3AEC000F900BBE0F900FBE0F901F901895FD
:103AFA001F93CF93DF9380910542882321F1E0E65B
:103B0A00F8E0848180648483C0E0D0E010E00E9401
:103B1A00A7248823E1F3CB5FDD4B88810E948123B0
:103B2A001F5FC12FD0E0FE01EB5FFD4B8081882330
:103B3A0011F01F3F61F70E94A7248823E1F30E9436
:0E3B4A002C248111FCCFDF91CF911F910895A3
:103B58001F920F920FB60F9211240BB60F922F934C
:103B68003F934F935F936F937F938F939F93AF93FD
:103B7800BF93EF93FF9380916008E0910040F0912C
:103B88000140309709F00995FF91EF91BF91AF91EE
:103B98009F918F917F916F915F914F913F912F915D
:0E3BA8000F900BBE0F900FBE0F901F90189540
:103BB6000E94332088F09F5798F0B92F9927B75164
:103BC600B0F0E1F0660F771F881F991F1AF0BA95BB
:103BD600C9F714C0B13091F00E946E24B1E0089587
:103BE6000C946E24672F782F8827B85F39F0B93F79
:103BF600CCF3869577956795B395D9F73EF490956E
:0E3C06008095709561957F4F8F4F9F4F089569
:103C140020E2209305096623D1F0A82FB92F90E064
:103C2400E0E0F9E022E0858185FD17C0858182FD11
:103C340007C0858183FD04C085818370833099F733
:103C440080858D939F5F691711F02483ECCF87E003
:103C54008093040908952483E6CF80858D939F5F24
:063C64006913F9CFF4CF53
:103C6A0020E2209325096623D1F0A82FB92F90E0EE
:103C7A00E0E2F9E022E0858185FD17C0858182FDB9
:103C8A0007C0858183FD04C085818370833099F7DD
:103C9A0080858D939F5F691711F02483ECCF87E0AD
:103CAA008093240908952483E6CF80858D939F5FAE
:063CBA006913F9CFF4CFFD
:103CC0000F931F93CF93DF93CDB7DEB72F97CDBF61
:103CD000DEBF0E891F8986E08D8309831A838FEFEB
:103CE0009FE78E839F839E01255E3F4F488D598DB0
:103CF0006A8DCE0101960E941C04E885F985E00FCB
:103D0000F11F10822F96CDBFDEBFDF91CF911F91A3
:043D10000F91089572
:103D1400CF93C82F68E872E080E00E948D180E945B
:103D24005A22811109C065EB72E080E00E948D186F
:103D340082E08093934312C08C2F0E94AA148111B5
:103D440008C06EEB72E080E00E948D1810929443DC
:103D540005C068EC72E080E00E948D18CF91089550
:103D6400CF92DF92EF92FF920F931F93CF93DF9343
:103D7400EC018C010C5F1F4F60E070E0CB01CC24A0
:103D8400D62EE72EF82ECE010E94E224A70196013A
:103D9400282BCA01B90121960C171D0781F7DF9161
:103DA400CF911F910F91FF90EF90DF90CF900895E6
:103DB400662309F1DC016150262F30E02F5F3F4F6D
:103DC400280F391FE0E0F9E09D919087958195FDDA
:103DD4000AC0958192FD07C0958193FD04C0958129
:103DE4009370933099F7958194FD07C0A217B30798
:0E3DF40059F781E0089581E0089580E0089578
:103E0200662309F1DC016150262F30E02F5F3F4F1E
:103E1200280F391FE0E2F9E09D919087958195FD89
:103E22000AC0958192FD07C0958193FD04C09581DA
:103E32009370933099F7958194FD07C0A217B30749
:0E3E420059F781E0089581E0089580E0089529
:103E5000CF92DF92EF92FF92CF93DF93EC016A0152
:103E60007B016F2D772788279927CE010E948D210E
:103E70006E2DCE0101960E948D216D2DCE010296F0
:103E80000E948D216C2DCE0103960E948D21DF9121
:0C3E9000CF91FF90EF90DF90CF9008954D
:103E9C0062EF77E080E00E948D180E94EE246BE0C8
:103EAC0078E080E00E948D180E947323811108C075
:103EBC0069EE77E080E00E948D180E94CF23089570
:103ECC0064EE77E080E00E948D184FEF64E278E0BA
:0C3EDC0080E00E94891C0E94CF23089502
:103EE80090919843992329F08532F9F410929843D8
:103EF8000895853221F481E08093984308958D30A8
:103F080021F491E09093994305C08E3319F491E020
:103F180090939743E0919A43F0E0EA5FFF4B8083E8
:0C3F280080919A438F5F80939A43089524
:103F34009091050993709330E1F0880F682B60939A
:103F44000709E0E0F9E0858185FD0AC0858182FDED
:103F540007C0858183FD04C085818370833099F710
:103F64000E940323882339F083E08093040980E0CE
:0A3F7400089580E0089581E00895AB
:103F7E009091250993709330E1F0880F682B609330
:103F8E002709E0E2F9E0858185FD0AC0858182FD81
:103F9E0007C0858183FD04C085818370833099F7C6
:103FAE000E941123882339F083E08093240980E056
:0A3FBE00089580E0089581E0089561
:103FC8000E943320E8F09E37E8F09639B8F49E381E
:103FD80048F4672F782F8827985FF9CF86957795CB
:103FE800679593959539D0F3B62FB1706B0F711D06
:103FF800811D20F487957795679593950C94E42017
:084008000C948F230C946F242B
:104010000F93CF93DF93EB01EEE1F3E49083818381
:1040200002E020E233E442E0BF018AE30E94F51996
:10403000882361F0EEE1F3E4828190E0982F8827F5
:104040002381822B8883998381E001C080E0DF9106
:06405000CF910F910895CD
:1040560057FD9058440F551F59F05F3F71F0479533
:10406600880F97FB991F61F09F3F79F08795089518
:10407600121613061406551FF2CF4695F1DF08C037
:10408600161617061806991FF1CF86957105610554
:0440960008940895ED
:10409A00A1E21A2EAA1BBB1BFD010DC0AA1FBB1F42
:1040AA00EE1FFF1FA217B307E407F50720F0A21BB4
:1040BA00B30BE40BF50B661F771F881F991F1A9421
:1040CA0069F760957095809590959B01AC01BD014B
:0440DA00CF01089575
:1040DE00E0E4F1E081818111FDCFE0E4F1E08FEFCA
:1040EE0090E084879587108611868FEF9EE08287F9
:1040FE009387178281E0828389EB80838189811186
:10410E00FDCFE0E4F1E081E0828B81E3808B80E003
:02411E00089502
:104120000F931F93CF93DF9300D0CDB7DEB7082F47
:10413000162F0E94D624882349F009831A8342E06F
:10414000BE016F5F7F4F8CE00E94CE210F900F90D9
:0A415000DF91CF911F910F910895A8
:10415A00CF92DF92EF926B01E82E9A01A82FCB0142
:10416A002115310531F48C199D09EF90DF90CF901C
:10417A000895FC015A2F0E947C246623A1F301961C
:08418A00A11D21503109ECCF09
:10419200AC0120E030E0E0E0FBE0A0E0B2E061E072
:1041A20080919743882319F010929743089597813D
:1041B20090FD05C0000000006C932F5F3F4F241755
:0641C200350770F30895BB
:1041C800882371F4772321F09850872B762F07C026
:1041D800662311F499270DC09051862B70E060E09A
:1041E8002AF09A95660F771F881FDAF7880F969539
:0641F800879597F9089578
:1041FE000E94D624882341F080919343823021F48B
:10420E0083E08093934308950E94D624811109C0C0
:10421E0082E08093934382EE94E080938443909364
:04422E008543089527
:10423200CF93DF931F92CDB7DEB70E94D624882397
:1042420059F01982BE016F5F7F4F8CE00E942122DC
:10425200882311F0898181700F90DF91CF910895A9
:104262000E944B2480E090E0FC01EA5FFF4B108249
:104272000196811521E09207B9F710929A431092A4
:10428200964310929943109298431092974308953F
:104292000F931F93CF93DF938C010E94E224C82FC8
:1042A200D0E0DC2FCC27C80101960E94E2249E01B7
:0E42B200282BC901DF91CF911F910F91089524
:1042C000052E97FB1EF400940E943C2457FD07D056
:1042D0000E944D2007FC03D04EF40C943C245095D2
:0E42E0004095309521953F4F4F4F5F4F089509
:1042EE000F931F93CF93DF938B01D42F61E00E9426
:1042FE009A1FC82F882321F06D2FC8010E940A1E15
:0C430E008C2FDF91CF911F910F9108952B
:10431A001F93CF93DF93EC01162F43E16DE980E001
:10432A0090E10E94B824188340E06DE980E090E1B2
:0C433A000E94B824DF91CF911F910895DC
:10434600CF93811105C00E94580FC82F811108C054
:104356000E94620BC82F882331F00E94311103C0DE
:0C43660081E0809389438C2FCF91089553
:10437200A0EAB4E090E115969C931597E0EEF5E083
:1043820082818F7C828382818061828311969C9359
:0A439200119780E212968C930895B3
:10439C001F93CF93DF93EB01142F60E00E949A1FC1
:1043AC00882339F0612FCE010E94DA1E93E090939E
:0A43BC000409DF91CF911F910895CD
:1043C6001F93CF93DF93EB01142F60E00E94BF1F72
:1043D600882339F0612FCE010E94011F93E090934C
:0A43E6002409DF91CF911F91089583
:1043F0000E942E130E9444180E94A7160E94DB23DD
:104400000E946F200E9457230E9434220E941C2485
:0A4410000E9495240E94B72308952E
:10441A00CF93DF9300D0CDB7DEB7CE0101960E94CD
:10442A009B24882319F08981817001C080E00F9054
:08443A000F90DF91CF9108956E
:104442000F931F93CF938B0161E00E949A1FC82F95
:10445200882321F061E0C8010E940A1E8C2FCF91AF
:064462001F910F91089567
:10446800E0E0FBE080EA9FE0848795871286138668
:1044780086E0818381E0808791E1948315821682AA
:06448800118680830895F7
:10448E000F931F93CF93C82F8B010E94D62488239E
:10449E0031F021E0A8016C2F8CE00E941F19CF9102
:0644AE001F910F9108951B
:1044B4000E94C724882359F065EB85E10E9490206F
:1044C400882339F06DE284E10E949020089580E011
:0644D400089580E0089548
:1044DA0099231CF49195819591099C018038910545
:1044EA0044F081E0359527958F5F20383105D4F760
:0644FA00089581E0089521
:104500001092004010920140E0E4F8E081E08387DF
:1045100080E8858383E087838BE890E080879187BC
:044520001682089562
:104524001092004010920140E0E6F8E081E08387B9
:1045340080E8858383E087838BE890E08087918798
:04454400168208953E
:10454800A0E4B4E09CE011969C931197E0EEF5E0AE
:1045580085818C7F85838581826085831C969C9369
:024568000895B4
:10456A001F93CF93DF93EC01162F672F0E948D21A3
:10457A00612FCE0101960E948D21DF91CF911F916B
:02458A00089592
:10458C00092E0394000C11F4882352F0BB0F40F455
:10459C00BF2B11F460FF04C06F5F7F4F8F4F9F4F95
:0245AC00089570
:1045AE00CF93DF93EC010E94D624882329F048E0B4
:0E45BE00BE018CE00E947721DF91CF9108951D
:1045CC0080919543811103C081E080939543809144
:0E45DC009543843019F485E08093954308954B
:1045EA00CF93C82F0E948F24882331F0E0E4F8E0AB
:0C45FA00948190649483C283CF91089553
:10460600809105098C7141F490910509937081E0C0
:0C461600933019F080E0089581E00895D1
:10462200809125098C7141F490912509937081E064
:0C463200933019F080E0089581E00895B5
:10463E001F920F920FB60F9211248F938FEF83B9A3
:0C464E008F910F900FBE0F901F901895D9
:10465A001F920F920FB60F9211248F938FEF8BB97F
:0C466A008F910F900FBE0F901F901895BD
:104676001F920F920FB60F9211248F938FEF83BB69
:0C4686008F910F900FBE0F901F901895A1
:104692001F920F920FB60F9211248F938FEF87BB49
:0C46A2008F910F900FBE0F901F90189585
:1046AE0043E068ED80E590E00E94B82440E068EDBC
:0C46BE0081E590E00E94B82480E008959F
:1046CA000F939B01EEE1F3E490838183042F42E090
:0C46DA00BF018AE30E94F5190F910895BA
:1046E600A89581E0809366046EEB77E080E00E94F7
:0C46F600D61884E690E00E94C9200895C8
:10470200CF93C82F0E94A724882331F0E0E6F8E077
:0C471200948190649483C283CF91089539
:10471E009F3F31F0915020F4879577956795B79527
:0C472E00880F911D9695879597F90895C6
:10473A00E0E0F9E084E08083118281E082839DEFEA
:0A474A0095839FE096838383089512
:10475400E0E2F9E084E08083118281E082839DEFCE
:0A47640095839FE0968383830895F8
:10476E0040E068ED80E191E00E94B824E0E1F1E0E4
:08477E001282138280E008950D
:10478600EEE1F3E4908381837283638344E0BF01A7
:084796008AE30E94E32108956B
:10479E004DE062EC77E080E00E9453170E943121D9
:0847AE0081E080936504089589
:1047B600E0E0F0E1118286EF94E280936E439093FD
:0647C6006F431382089509
:1047CC009C01E0E4F1E0918192FDFDCF20934A0140
:0647DC0030934B0108952B
:1047E2006091164370911743809118439091194339
:0247F200089528
:1047F40060911A4370911B4380911C4390911D4317
:02480400089515
:10480600EE0FFF1F0024001C0BBE0790F691E02D53
:02481600099403
:104818008091440886FB882780F991E089270895CC
:10482800E0EAF4E08CE0818398E093878487089538
:10483800E0EBF0E01482108281E0828380E008954A
:10484800E0E2F4E081E08583818382E08283089559
:104858008091640886FB882780F991E0892708956C
:10486800109286431092874381E08093C000089598
:1048780090958095709561957F4F8F4F9F4F0895C4
:0E48880062E078E081E090E30E94C32308958F
:0E489600E2E0F0E41382128211821082089593
:0E48A4005058BB27AA270E9480150C94C622EC
:0E48B2000E94DB1D6894B1110C946F240895D0
:0E48C00000240A941616170618060906089515
:0E48CE0000240A941216130614060506089517
:0E48DC00E894BB2766277727CB0197F908954C
:0E48EA0091505040660F771F881FD2F7089537
:0E48F80057FD03C05BBF67910895608108956E
:0C490600E0E4F8E0868180648683089578
:0C491200E0E4F8E0868180688683089568
:0C491E008091440885FB882780F90895EB
:0C492A00E0E0F1E01082118280E00895CE
:0C493600BC018FEF9FE30E940820089551
:0C494200E0E6F8E086818064868308953A
:0C494E008091640885FB882780F908959B
:0C495A0097F99F6780E870E060E0089526
:0A49660080930040909301400895F3
:0A4970001BBEFC0164BF40830895E4
:0A497A0080937A4390937B430895E5
:0A49840080914A0190914B010895C3
:0A498E0066E081E10E949020089588
:0A499800682F80E10E94902008952E
:0A49A20080938643909387430895A5
:0849AC008091C20081700895A2
:0849B4000E943B140C94C62282
:0849BC000E9416150C94C6229E
:0649C400FC018081089552
:0649CA008091894308956D
:0649D00085E092E4089569
:0649D60086E091E4089563
:0649DC000E943121089544
:0649E2009FEF80EC089538
:0449E8000C9400002B
:0249EC0008952C
:0249EE0008952A
:0249F000089528
:0249F200089526
:0449F4000000C841B6
:0449F8000000C841B2
:0249FC00E204D3
:0149FE0001B7
:0149FF0001B6
:014A000001B4
:02000004008278
:090000000000000000C00D00002A
:00000001FF
