:100000000C9415010C94AB1D0C94AB1D0C94AB1D02
:100010000C94CD170C94B3140C94FD170C949B17EF
:100020000C94111C0C94AB1D0C94AB1D0C94AB1DCB
:100030000C94AB1D0C94AB1D0C94AB1D0C94AB1D20
:100040000C94AB1D0C94AB1D0C94AB1D0C94AB1D10
:100050000C94AB1D0C94AB1D0C94AB1D0C94AB1D00
:100060000C94F2140C94AB1D0C94AB1D0C94AB1DB2
:100070000C94AB1D0C94AB1D0C94FB160C94AB1D97
:100080000C94AB1D0C94AB1D0C94AB1D0C94311750
:100090000C94AB1D0C94AB1D0C94AB1D0C94AB1DC0
:1000A0000C94AB1D0C94AB1D0C94AB1D0C94AB1DB0
:1000B0000C94AB1D0C942F140C941F1C0C94AB1DB2
:1000C0000C94AB1D0C94AB1D0C94AB1D0C94AB1D90
:1000D0000C94AB1D0C94AB1D0C94AB1D0C94AB1D80
:1000E0000C94AB1D0C94AB1D0C94AB1D0C94AB1D70
:1000F0000C94AB1DCB0FD00FD50FDA0FDF0FE40F31
:10010000E90FEE0FF30F4000400680400640150057
:100110003B7840154043804043404B003B87404B79
:1001200040C18040C140C3003B8F40C340C98000F4
:1001300000407A10F35A00A0724E18090010A5D49E
:10014000E80000E87648170000E40B54020000CAFB
:100150009A3B000000E1F505000080969800000041
:1001600040420F000000A0860100000010270000A0
:100170000000E803000000006400000000000A0026
:10018000000000000100000000002C76D888DC6729
:100190004F0823DFC1DFAE59E1B1B796E5E3E45381
:1001A000C63AE651997696E8E6C28426EB898C9B9E
:1001B00062ED407C6FFCEFBC9C9F40F2BAA56FA53E
:1001C000F490055A2AF75C936B6CF9676DC11BFCC0
:1001D000E0E40D47FEF520E6B500D0ED902E0300DB
:1001E000943577050080841E080000204E0A000028
:1001F00000C80C333333330F986E12831141EF8DE7
:100200002114893BE65516CFFEE6DB18D1844B3826
:100210001BF77C1D901DA4BBE424203284725E2257
:100220008100C9F124ECA1E53D2711241FBECFEFC9
:10023000CDBFDFE7DEBFE6E0F1E041E019C0B791F6
:10024000A79137912791079107FD0EC0979187914C
:10025000EF01F92FE82F0BBF07900D92A217B307FC
:10026000D9F7FE011BBE04C01D92A217B307E1F728
:10027000EF32F40721F70E9473140C943F01F894B5
:02028000FFCFAE
:10028200496E697469616C697A696E67204D4C5870
:1002920039303633322054656D706572617475720F
:1002A200652053656E736F722E2E2E000D0A4C6FF1
:1002B200616465642063616368656420636F6E7363
:1002C20074616E747320616E642073657474696EF8
:1002D20067732E2E2E000D0A4C6F616465642063D5
:1002E2006F6E7374616E74732066726F6D207365C6
:1002F2006E736F7220616E64207265736574207410
:100302006F2064656661756C74732E2E2E004F4BE0
:100312000D004641494C45440D0053656E736F72A2
:100322002054656D70657261747572653A2025326C
:100332002E3266430D0A526F6F6D2054656D7065E3
:100342007261747572653A2025322E3266430D0A47
:100352000054656D70657261747572652053656EC7
:10036200736F72204572726F72202D205265626F18
:0B0372006F74204465766963650D0020
:10037D00496E697469616C697A696E67204D4C5874
:10038D003930333932204D61676E65746F6D657428
:10039D0065722053656E736F722E2E2E0046414985
:1003AD004C45440D004F4B0D00583A2025642C2030
:1003BD00593A2025642C205A3A2025640D0A004D07
:1003CD0061676E65746F6D657465722053656E73CC
:1003DD006F72204572726F72202D205265626F6FA1
:0A03ED0074204465766963650D0015
:1003F700A31C8F1CAC1CB219A8159C1DF41C8F19CB
:02040700F31BE5
:10040900B51C991CBE1CF819E3159F1DFC1CD519B8
:02041900021CC3
:08041B00696E66006E616E005F
:100424002F923F924F925F926F927F928F929F9200
:10043400AF92BF92CF92DF92EF92FF920F931F93EE
:10044400CF93DF93CDB7DEB76497CDBFDEBF6C012A
:100454001A01462E5901FC0117821086848181FFFE
:1004640067C3CE0101968C879D87A0E88A8B9B8BFE
:10047400AC8BF101542D0E94461D862F662309F48E
:1004840053C3442D91012F5F3F4F4F4F653219F0F5
:100494001901442E0BC0F901542F0E94461D862FCA
:1004A40092E0290E311C411C653249F4B60190E0FA
:1004B4000E946C15AE86BF86AE84BF84DACF10E08E
:1004C400F12C00E00032A0F48B3269F030F4803279
:1004D40059F0833269F400612CC08D3239F08033D5
:1004E40039F4016026C00260046023C0086021C0A2
:1004F40007FD2AC090ED980F9A3078F406FF06C0E5
:10050400AAE01A9F900D1124192F13C0EAE0FE9E51
:10051400900D1124F92E00620CC08E3221F406FDD8
:1005240003C3006406C08C3611F4006802C0883628
:1005340059F4F101542D0E94461D862FFFEF2F1A06
:100544003F0A4F0A6111BECF9BEB980F933018F40A
:100554000061805E06C09BE9980F933008F066C185
:100564000F7E06FF16E00F73702E853621F4202FC0
:100574002064722E08C0863621F4802F8068782E7D
:1005840002C01111115077FE07C01C3350F4EE2441
:10059400E394E10E27E00BC0183038F027E017E0B1
:1005A40005C027E06CE3E62E02C0212FE12CF50103
:1005B4003496EE87FF87F501608171818281938192
:1005C4000E2DAE014F5F5F4F0E94D30A5C0159802C
:1005D40050FE02C053FE06C071FC06C072FE06C087
:1005E40000E205C00DE203C00BE201C000E0852D6E
:1005F4008C7019F0011174C2C0C277FE0FC0EA0CEE
:1006040054FE04C08A81813309F4EA941E1474F5FB
:1006140028E02E1578F538E0E32E2CC076FC2AC0AD
:10062400812F90E08A159B059CF08CEFA8168FEF24
:10063400B80674F0972D9068792E0AC0E2E0F0E0D5
:10064400EC0FFD1FE10FF11D8081803319F411506F
:100654001111F4CF77FE0EC0EE24E394E10E812F46
:1006640090E0A816B9062CF41A1904C0EE24E394F9
:1006740001C010E077FE06C01A141B0434F4C5014F
:10068400019605C085E090E002C081E090E0011190
:100694000196112331F0212F30E02F5F3F4F820F5D
:1006A400931F2F2D30E08217930714F4F81A01C01A
:1006B400F12C872D897049F4FF2039F0B60180E2CE
:1006C40090E00E946C15FA94F7CF002329F0B6014C
:1006D400802F90E00E946C1573FC09C0FF2039F054
:1006E400B60180E390E00E946C15FA94F7CF77FE90
:1006F40049C03501B7FE02C0612C712CC5018619B1
:10070400970988248394912C8C0E9D1E880E991E23
:10071400F501EE19F109E88BF98B012F10E0119521
:1007240001951109FFEF6F167F0629F4B6018EE2D9
:1007340090E00E946C15A614B70444F08889998946
:10074400861597051CF4F401818101C080E3F1E072
:100754006F1A71082FEF821A920A601671062CF034
:10076400B60190E00E946C15DDCFA614B70439F4ED
:100774009A81963318F4953311F454FE81E3B6014B
:1007840090E051C08A81813319F0952D9F7E592EB6
:10079400B60190E00E946C15111105C074FC1CC0D8
:1007A40085E690E01BC0B6018EE290E00E946C15D5
:1007B40002E0010F82E011E0180FE1E0F0E0EC0F3D
:1007C400FD1FE80FF11D8081B60190E00E946C15B9
:1007D400812F1013F0CFE2CF85E490E0B6010E94A0
:1007E4006C15B7FC05C0A114B10439F454FE05C05E
:1007F400B194A194B1088DE201C08BE2B60190E0FE
:100804000E946C1580E3EAE0AE16B1042CF08F5F11
:10081400AAE0AA1AB108F7CFB60190E00E946C15BD
:10082400B601C501C0960E946C1574C1833631F0BF
:10083400833791F0833509F05EC024C0C501029668
:100844008E879F87F501808189836A887B888C885D
:10085400AA24A394B12C14C0C50103968E879F8744
:10086400F50160807180828006FF03C0412F50E053
:1008740002C04FEF5FEF882DB3010E94C11A5C01E3
:100884000F7715C0C50103968E879F87F501608099
:100894007180828006FF03C0412F50E002C04FEFF9
:1008A4005FEF882DB3010E94C11A5C01006803FD4B
:1008B4001EC08F2D90E0A816B906C8F4B60180E2D8
:1008C40090E00E946C15FA94F4CFF301582D0E9425
:1008D400461D862FFFEF6F1A7F0A8F0AB60190E03C
:1008E4000E946C15F110FA9421E0A21AB108A11427
:1008F400B10459F70FC1843611F0893679F5C50171
:1009040007FF09C004968E879F87F5016081718176
:10091400828193810AC002968E879F87F501608148
:100924007181072E000C880B990B0F76E02E97FF30
:100934000AC090958095709561957F4F8F4F9F4F1A
:10094400F02FF068EF2E2AE030E0AE014F5F5F4FEA
:100954000E945912A82E2C85A21A4BC0853729F45F
:100964000F7EE02E2AE030E025C0902F997FE92EFB
:100974008F36C1F018F4883579F0D6C0803719F075
:10098400883721F0D1C0A92FA061EA2EE4FE0DC062
:10099400EE2DE460EE2E09C004FF0AC0F92FF660C4
:1009A400EF2E06C028E030E005C020E130E002C0B0
:1009B40020E132E0C501E7FE09C004968E879F87D7
:1009C400F501608171818281938108C002968E87CE
:1009D4009F87F5016081718180E090E0AE014F5FF7
:1009E4005F4F0E945912A82EFC85AF1A2E2D2F7727
:1009F400E22EE6FE0BC00E2D0E7FA11650F4E4FE8F
:100A04000AC0E2FC08C00E2D0E7E05C0BA2C0E2DC5
:100A140003C0BA2C01C0B12E04FF0DC0FE01EA0DC3
:100A2400F11D8081803311F4097E09C002FF06C0E4
:100A3400B394B39404C0802F867809F0B39403FD73
:100A440011C000FF06C0BF1488F4FA0C1F2D1B1937
:100A54000EC0BF1460F4B60180E290E00E946C15F1
:100A6400B394F7CFBF1418F4FB1802C01A2DF12C5D
:100A740004FF10C0B60180E390E00E946C1502FFF1
:100A840017C001FD03C088E790E002C088E590E04C
:100A9400B6010CC0802F867859F001FF02C08BE2AA
:100AA40001C080E207FD8DE2B60190E00E946C1562
:100AB400A11638F4B60180E390E00E946C15115041
:100AC400F7CFAA94E1E0F0E0EC0FFD1FEA0DF11D71
:100AD4008081B60190E00E946C15A110F2CF1AC07B
:100AE400F4E0FF1588F584E0F81A73FE24C00111C0
:100AF4002CC053FE30C05FE1852E54E0952E50E0AB
:100B0400A52E072D0071F4015A2D0E94461D862F33
:100B1400611128C0FF2009F4CFCCB60180E290E037
:100B24000E946C15FA94F6CFF601878190852CC04B
:100B34008FEF9FEF29C0B60180E290E00E946C1510
:100B4400FA94F110F8CFD3CFF12CB601802F90E0B6
:100B54000E946C15CECF4BE1842E44E0942E40E0ED
:100B6400A42ECFCF01118052B60190E00E946C15E3
:100B7400FFEF8F1A9F0AAF0AC6CF23E02F1510F498
:100B840083E0B2CFF12CB5CF6496CDBFDEBFDF9149
:100B9400CF911F910F91FF90EF90DF90CF90BF9076
:100BA400AF909F908F907F906F905F904F903F9009
:040BB4002F900895E1
:100BB800CF92DF92EF92FF921F93CF93DF93CDB73F
:100BC800DEB76897CDBFDEBF8DE390E40E941E16A6
:100BD800182F882309F41AC240E1BE016F5F7F4FC6
:100BE8008CE094E20E941B1A882309F40AC22B8124
:100BF8006C81862F90E0A0E0B0E0DC01992788277F
:100C0800B22B2A81AC01BD01422B898190E0982F3B
:100C18008827A0E0B0E06A017B01C82AD92AEA2A1D
:100C2800FB2AC701B6010E94311520E030E040E8F8
:100C38005BE30E94981D60937F407093804080938F
:100C48008140909382402F816885862F90E0A0E0B4
:100C5800B0E0DC0199278827B22B2E81AC01BD01B9
:100C6800422B8D8190E0982F8827A0E0B0E06A01A0
:100C78007B01C82AD92AEA2AFB2AC701B6010E94A1
:100C8800311520E030E040E855E30E94981D60935C
:100C98007B4070937C4080937D4090937E402B8571
:100CA8006C85862F90E0A0E0B0E0DC0199278827CA
:100CB800B22B2A85AC01BD01422B898590E0982F83
:100CC8008827A0E0B0E06A017B01C82AD92AEA2A6D
:100CD800FB2AC701B6010E94311520E030E040E848
:100CE80059E20E94981D60937740709378408093F2
:100CF800794090937A402F856889862F90E0A0E00C
:100D0800B0E0DC0199278827B22B2E85AC01BD0104
:100D1800422B8D8590E0982F8827A0E0B0E06A01EB
:100D28007B01C82AD92AEA2AFB2AC701B6010E94F0
:100D3800311520E030E040E85BE30E94981D6093A5
:100D4800734070937440809375409093764048E167
:100D5800BE016F5F7F4F84E294E20E941B1A8823D2
:100D680009F451C12B816C81862F90E0A0E0B0E09E
:100D7800DC0199278827B22B2A81AC01BD01422BBF
:100D8800898190E0982F8827A0E0B0E06A017B0174
:100D9800C82AD92AEA2AFB2AC701B6010E943115B6
:100DA80020E030E040E857E30E94981D60936F40D0
:100DB8007093704080937140909372402F81688542
:100DC800862F90E0A0E0B0E0DC0199278827B22BBD
:100DD8002E81AC01BD01422B8D8190E0982F882790
:100DE800A0E0B0E06A017B01C82AD92AEA2AFB2AD6
:100DF800C701B6010E94311520E030E040E85BE30E
:100E08000E94981D60936B4070936C4080936D4076
:100E180090936E402B856C85862F90E0A0E0B0E023
:100E2800DC0199278827B22B2A85AC01BD01422B0A
:100E3800898590E0982F8827A0E0B0E06A017B01BF
:100E4800C82AD92AEA2AFB2AC701B6010E94311505
:100E580020E030E040E858E20E94981D6093674027
:100E6800709368408093694090936A402F856889A1
:100E7800862F90E0A0E0B0E0DC0199278827B22B0C
:100E88002E85AC01BD01422B8D8590E0982F8827D7
:100E9800A0E0B0E06A017B01C82AD92AEA2AFB2A25
:100EA800C701B6010E94311520E030E040E85DE25C
:100EB8000E94981D609363407093644080936540DE
:100EC800909366402B896C89862F90E0A0E0B0E073
:100ED800DC0199278827B22B2A89AC01BD01422B56
:100EE800898990E0982F8827A0E0B0E06A017B010B
:100EF800C82AD92AEA2AFB2AC701B6010E94311555
:100F080020E030E040E85DE20E94981D60935F4079
:100F18007093604080936140909362406D8970E067
:100F2800762F66278E89682B072E000C880B990B65
:100F38000E94311520E030E040E85AE30E94981DF5
:100F480060935B4070935C4080935D4090935E40FB
:100F58006F8970E0762F6627888D682B072E000C26
:100F6800880B990B0E94311520E030E040E85AE3E5
:100F78000E94981D60935740709358408093594041
:100F880090935A4044E0BE016F5F7F4F81E894E23E
:100F98000E941B1A8823C9F1698170E0762F6627A1
:100FA8008A81682B072E000C880B990B0E9431153B
:100FB80020E030E040E858E30E94981D60935340D9
:100FC8007093544080935540909356406B8170E0E5
:100FD800762F66278C81682B072E000C880B990BBF
:100FE8000E94311520E030E040E85AE30E94981D45
:100FF80060934F407093504080935140909352407B
:1010080005C010E003C010E001C010E0812F689611
:10101800CDBFDEBFDF91CF911F91FF90EF90DF90A2
:04102800CF900895C8
:10102C004F925F926F927F928F929F92AF92BF92EC
:10103C00CF92DF92EF92FF92CF93DF93CDB7DEB7D3
:10104C006197CDBFDEBF8091C340823029F0809183
:10105C00C340813009F08DC160913B4070913C40A0
:10106C00072E000C880B990B0E9431154B015C016B
:10107C006091354070913640072E000C880B990B0F
:10108C000E94311520E030E040E451E40E94941DB0
:10109C006B017C0120915B4030915C4040915D4044
:1010AC0050915E400E94981DA50194010E94241D40
:1010BC009B01AC01C701B6010E94941D20E030E0F9
:1010CC0040E059E40E94981D69837A838B839C834A
:1010DC008091C3408130A9F4E1E3F0E46081718137
:1010EC0082819381680F791F072E000C880B990B56
:1010FC000E94311520E030E040E05FE30E94981D33
:10110C0014C0E1E3F0E46681778180859185680FF6
:10111C00791F072E000C880B990B0E94311520E0CB
:10112C0030E040E05FE30E94981D20E030E040E4B6
:10113C0051E40E94941D2B013C01209157403091A9
:10114C0058404091594050915A40C701B6010E94F5
:10115C00981DA50194010E94241D9B01AC01C301A3
:10116C00B2010E94941D20E030E040E059E40E945E
:10117C00981D6D837E838F83988720917F4030915B
:10118C008040409181405091824069817A818B816D
:10119C009C810E94231D4B015C0120917B4030916E
:1011AC007C4040917D4050917E400E94941D209146
:1011BC0073403091744040917540509176400E943C
:1011CC00241D2B013C01A5019401C501B4010E9411
:1011DC00981D209177403091784040917940509102
:1011EC007A400E94981D9B01AC01C301B2010E9480
:1011FC00241D2B013C016093434070934440809329
:10120C0045409093464023E333E948E853E40E9479
:10121C00241D4B015C01209153403091544040916E
:10122C005540509156406091674070916840809154
:10123C00694090916A400E94981D69837A838B83E0
:10124C009C8380915F4090916040A0916140B091EF
:10125C00624089879A87AB87BC8720E030E048ECF6
:10126C0051E4C301B2010E94231D209163403091CF
:10127C00644040916540509166400E94981D6D8776
:10128C007E878F87988BA5019401C501B4010E94BC
:10129C00981DA50194010E94981DA50194010E941E
:1012AC00981D2B013C01C0904F40D0905040E090D5
:1012BC005140F090524093E0B0E0A0E0F8ECE1E453
:1012CC00998B20E030E048EC51E46B2F7A2F8F2F74
:1012DC009E2F0E94231D29853A854B855C850E9493
:1012EC00981D20E030E040E85FE30E94241D2D852E
:1012FC003E854F8558890E94241D29813A814B8156
:10130C005C810E94981D9B01AC016D817E818F8157
:10131C0098850E94941D4B015C01A3019201C501AB
:10132C00B4010E94241D0E94E8130E94E81323E3D9
:10133C0033E948E853E40E94231DA70196010E945B
:10134C00231DA989A150A98BB62FA72FF82FE92F00
:10135C0029892111B6CFC62ED72EE82EF92EC09290
:10136C004740D0924840E0924940F0924A4081E098
:10137C0001C080E06196CDBFDEBFDF91CF91FF90C1
:10138C00EF90DF90CF90BF90AF909F908F907F9019
:08139C006F905F904F900895DF
:1013A4008F929F92AF92BF92CF92DF92EF92FF9271
:1013B4001F93CF93DF9300D0CDB7DEB78DE390E4D6
:1013C4000E941E16182F882309F4DCC080E094E1E3
:1013D4000E94281B6C0182E094E10E94281B5C019E
:1013E40084E094E10E94281B4C017601EA24FB244A
:1013F400E826F9268AE394E10E94281B89839A83CC
:1014040089819A81E816F90609F0B5C080913D40BA
:1014140090913E40C816D90609F0AFC080913F4074
:1014240090914040A816B90609F0A9C080914140A6
:10143400909142408816990609F0A3C086E094E191
:101444000E94411960937F40709380408093814053
:10145400909382408AE094E10E94411960937B401A
:1014640070937C4080937D4090937E408EE094E125
:101474000E9441196093774070937840809379403B
:1014840090937A4082E194E10E9441196093734001
:1014940070937440809375409093764086E194E114
:1014A4000E94411960936F40709370408093714023
:1014B400909372408AE194E10E94411960936B40D9
:1014C40070936C4080936D4090936E408EE194E1F4
:1014D4000E9441196093674070936840809369400B
:1014E40090936A4082E294E10E94411960936340C0
:1014F40070936440809365409093664086E294E1E3
:101504000E94411960935F407093604080936140F2
:10151400909362408AE294E10E94411960935B4097
:1015240070935C4080935D4090935E408EE294E1C2
:101534000E944119609357407093584080935940DA
:1015440090935A4082E394E10E944119609353407E
:1015540070935440809355409093564086E394E1B1
:101564000E94411960934F407093504080935140C2
:101574009093524007C010E005C010E003C010E093
:1015840001C010E0812F0F900F90DF91CF911F9138
:10159400FF90EF90DF90CF90BF90AF909F908F908F
:0215A4000895A8
:1015A600283008F027E03327DA01990F311D87FD2F
:1015B600916000966105710539F432602E5F3D93A6
:1015C60030E32A95E1F708959F3F30F080387105A2
:1015D600610509F03C5F3C5F3D93913008F08068FF
:1015E600911DDF93CF931F930F93FF92EF92192FC5
:1015F600987F9695E92F96959695E90FFF27E657DA
:10160600FE4F99273327EE24FF24A701E701059013
:101616000894079428F4360FE71EF81E491F511D3B
:10162600660F771F881F991F0694A1F705900794E8
:1016360028F4E70EF81E491F561FC11D770F881F95
:10164600991F661F0694A1F70590079428F4F80ED3
:10165600491F561FC71FD11D880F991F661F771F69
:101666000694A1F70590079420F4490F561FC71F4B
:10167600D81F990F661F771F881F0694A9F78491B4
:101686001095177041F0D695C79557954795F794DD
:10169600E7941A95C1F7E0E3F1E068941590159187
:1016A60035916591959105907FE27395E118F10A60
:1016B600430B560BC90BD009C0F7E10CF11E431FB3
:1016C600561FC91FD01D7EF4703311F48A95E6CFDC
:1016D600E894015030F0080F0AF40027021708F4C6
:1016E600202F2395022F7A3328F079E37D932A95CC
:1016F600E9F710C07D932A9589F606949795679524
:10170600379517951794E118F10A430B560BC90B39
:10171600D00998F023957E9173957A3308F070E39B
:101726007C932013B8F77E9170617D9330F083959A
:1017360071E37D9370E32A95E1F71124EF90FF9012
:101746000F911F91CF91DF91992787FD909508956D
:10175600CF93DF93CDB7DEB72897CDBFDEBF80919D
:10176600C640882309F44AC01092BD401092BE407C
:1017760081E090E08093BF409093C04082E090E08B
:101786008093B9409093BA4083E090E08093BB4049
:101796009093BC4084E090E08093B5409093B6402F
:1017A60085E090E08093B7409093B84086E090E063
:1017B6008093B1409093B24087E090E08093B3402D
:1017C6009093B44088E090E08093AD409093AE4013
:1017D60089E090E08093AF409093B0408AE090E03B
:1017E6008093A9409093AA408BE090E08093AB4011
:1017F6009093AC400E94A80E1092C6408091C740BC
:10180600813099F028F08330C1F18430D1F14AC09B
:1018160081E00E94871D882321F081E08093C740E4
:101826005DC082E08093C74059C00E941519882385
:1018360009F454C0CE0101960E943E1A8823C9F0CD
:101846008F818F938E818F938D818F938C818F93D0
:101856008B818F938A818F9386EB93E0A0E0AF9381
:101866009F938F930E94811B1092C740CDBFDEBF0E
:1018760035C082E08093C74031C084E08093C74082
:101886002DC00E94BE1B882349F01092C74082EEED
:1018960094E08093C1409093C24020C082E0809340
:1018A600C7401CC08091C1409091C240823E944086
:1018B60060F06CEC73E080E00E949F1381E090E0A2
:1018C6008093C1409093C24009C08091C1409091DD
:1018D600C24001968093C1409093C2402896CDBFE6
:0818E600DEBFDF91CF910895F0
:1018EE00CF93DF93CDE3D0E46881798180E094E1FA
:1018FE000E94D11B6A817B8182E094E10E94D11B00
:10190E006C817D8184E094E10E94D11B40917F40E7
:10191E0050918040609181407091824086E094E1C8
:10192E000E94691940917B4050917C4060917D40AE
:10193E0070917E408AE094E10E946919409177404F
:10194E00509178406091794070917A408EE094E1A8
:10195E000E94691940917340509174406091754096
:10196E007091764082E194E10E94691940916F4036
:10197E0050917040609171407091724086E194E197
:10198E000E94691940916B4050916C4060916D407E
:10199E0070916E408AE194E10E946919409167400E
:1019AE00509168406091694070916A408EE194E177
:1019BE000E94691940916340509164406091654066
:1019CE007091664082E294E10E94691940915F40F5
:1019DE0050916040609161407091624086E294E166
:1019EE000E94691940915B4050915C4060915D404E
:1019FE0070915E408AE294E10E94691940915740CD
:101A0E00509158406091594070915A408EE294E145
:101A1E000E94691940915340509154406091554035
:101A2E007091564082E394E10E94691940914F40B3
:101A3E0050915040609151407091524086E394E134
:101A4E000E946919688179818A819B81682779272B
:101A5E008C819D81682779278AE394E10E94D11BAE
:061A6E00DF91CF91089505
:101A7400CF93DF9340E054E0FA01108220E234E097
:101A840089E0F901808380E494E0FC011082C0E6DF
:101A9400D4E061E46883A0E8B4E01C9260EA74E0F6
:101AA400FB011082FA011482F9011482FC011482F0
:101AB4001C8214961C921497FB011482FA01108A5A
:101AC400118A128A138A148A158A168A178AF901C6
:101AD400108A118A48E8428B138A148A158A168A56
:101AE400178AFC01108A118A128A138A148A158AA9
:101AF400168A178A188A198A1A8A1B8A1C8A1D8AC6
:101B04001E8A1F8A50961C92509751961C92519788
:101B140052961C92529753961C92539754961C9229
:101B2400549755961C92559756961C9256975796CD
:101B34001C92FB01108A118A88E0828B838B148AA1
:101B4400158A168A178AE0EEF5E011861182108252
:101B5400148216821782108681E0858380E1828355
:101B64001382128681EB9DE18093A1409093A24061
:101B740082EB9DE180939F409093A04083EB9DE195
:101B840080939D4090939E4084EB9DE180939B4085
:101B940090939C4085EB9DE18093994090939A406B
:101BA40086EB9DE1809397409093984087EB9DE16D
:101BB400809395409093964088EB9DE18093934069
:101BC4009093944089EB9DE180939140909392404F
:101BD4008AEB9DE180938F40909390408BEB9DE145
:0E1BE40080938D4090938E40DF91CF910895B5
:101BF2001F93CF93DF931F92CDB7DEB7182F8DE7D8
:101C020093E0A0E0AF939F938F930E94811B0E9469
:101C1200BE1B0F900F900F90811109C06AEA73E00A
:101C220080E00E949F1382E08093C7408BC0BE0178
:101C32006F5F7F4F8BE00E946717811109C06AEACC
:101C420073E080E00E949F1382E08093C7407AC0D5
:101C52008EE394E10E94A21D11116FC09981891334
:101C62006CC08FE394E10E94A21D90E08093BD407E
:101C72009093BE4081E494E10E94A21D90E0809383
:101C8200BF409093C04083E494E10E94A21D90E083
:101C92008093B9409093BA4085E494E10E94A21DDA
:101CA20090E08093BB409093BC4087E494E10E9413
:101CB200A21D90E08093B5409093B64089E494E1F0
:101CC2000E94A21D90E08093B7409093B8408BE4AD
:101CD20094E10E94A21D90E08093B1409093B240A3
:101CE2008DE494E10E94A21D90E08093B340909312
:101CF200B4408FE494E10E94A21D90E08093AD4035
:101D02009093AE4081E594E10E94A21D90E0809301
:101D1200AF409093B04083E594E10E94A21D90E011
:101D22008093A9409093AA4085E594E10E94A21D68
:101D320090E08093AB409093AC4062EB73E080E024
:0E1D42000E949F130F90DF91CF911F91089583
:101D5000CF9365EC70E48BE00E946717C82F88234F
:101D600009F466C06091BD407091BE408FE394E17C
:101D70000E94D11B6091BF407091C04081E494E10A
:101D80000E94D11B6091B9407091BA4083E494E104
:101D90000E94D11B6091BB407091BC4085E494E1EE
:101DA0000E94D11B6091B5407091B64087E494E1E8
:101DB0000E94D11B6091B7407091B84089E494E1D2
:101DC0000E94D11B6091B1407091B2408BE494E1CC
:101DD0000E94D11B6091B3407091B4408DE494E1B6
:101DE0000E94D11B6091AD407091AE408FE494E1B0
:101DF0000E94D11B6091AF407091B04081E594E1A9
:101E00000E94D11B6091A9407091AA4083E594E1A2
:101E10000E94D11B6091AB407091AC4085E594E18C
:101E20000E94D11B6091C5408EE394E10E943F1B4C
:061E30008C2FCF910895F4
:101E360010C00E94311D58F00E942A1D40F029F45E
:101E46005F3F29F00C94591D51110C94391D0C94C7
:101E5600A81D0E94601A68F39923B1F3552391F3E4
:101E6600951B550BBB27AA2762177307840738F003
:101E76009F5F5F4F220F331F441FAA1FA9F335D060
:101E86000E2E3AF0E0E832D091505040E695001C14
:101E9600CAF72BD0FE2F29D0660F771F881FBB1FCE
:101EA600261737074807AB07B0E809F0BB0B802DAC
:101EB600BF01FF2793585F4F3AF09E3F510578F0D8
:101EC6000C94591D0C94391D5F3FE4F3983ED4F3EE
:101ED600869577956795B795F7959F5FC9F7880FAC
:101EE600911D9695879597F90895E1E0660F771FFE
:101EF600881FBB1F621773078407BA0720F0621B8F
:0E1F0600730B840BBA0BEE1F88F7E09508955D
:101F14000E94551C882309F468C08091250984FF18
:101F24000CC08091250986FF08C08091250982FD97
:101F340004C08091250983FF07C08091250982FD93
:101F440003C08091250983FD0E94C9108091250951
:101F5400882324F08091250986FF47C080912509B4
:101F640084FD08C08091250982FD04C08091250963
:101F740083FF03C00E94C9100895E09130408E2F62
:101F840090E08930910588F5FC01E658FF4F0C94E8
:101F9400E21C0E94B51C8093304008950E94991C55
:101FA4008093304008950E94BE1C80933040089571
:101FB4000E94F8198093304008950E94E31580939D
:101FC400304008950E94D5198093304008950E94AE
:101FD400FC1C8093304008950E94D51980933040B2
:0C1FE40008950E94021C80933040089574
:101FF0000FC00E942A1D38F00E94311D20F0952349
:1020000011F00C94591D0C94A81D11240C94391D29
:102010000E94601A70F3959FC1F3950F50E0551F11
:10202000629FF001729FBB27F00DB11D639FAA272D
:10203000F00DB11DAA1F649F6627B00DA11D661F7C
:10204000829F2227B00DA11D621F739FB00DA11D9D
:10205000621F839FA00D611D221F749F3327A00D57
:10206000611D231F849F600D211D822F762F6A2FF3
:1020700011249F5750409AF0F1F088234AF0EE0F58
:10208000FF1FBB1F661F771F881F91505040A9F785
:102090009E3F510580F00C94591D0C94391D5F3FF3
:1020A000E4F3983ED4F3869577956795B795F795C1
:1020B000E7959F5FC1F7FE2B880F911D9695879539
:0420C00097F90895EF
:1020C400CF93DF938091050982FF0CC0E5E1F0E432
:1020D40086E0858783E08487E0E0F9E08581846099
:1020E400858337C080910709882381F08091050991
:1020F40084FF0CC0E5E1F0E485E0858781E0848716
:10210400E0E0F9E085818061858323C0809108093E
:10211400882381F08091050984FF0CC0E5E1F0E497
:1021240085E0858782E08487E0E0F9E0858180614D
:1021340085830FC08091050983FF0BC0E5E1F0E4BE
:1021440086E0858783E08487E0E0F9E08581886024
:102154008583C5E1D0E48D8590E0880F991F092E11
:10216400000CAA0B89509C4FAF4FFC015A2F0E94C0
:10217400EB1CFB0109958D878C85882329F0E09160
:0E2184008540F09186400995DF91CF91089536
:10219200CF93DF938091250982FF0CC0E3E2F0E444
:1021A20086E0858783E08487E0E2F9E085818460C8
:1021B200858337C080912709882381F08091250982
:1021C20084FF0CC0E3E2F0E485E0858781E0848748
:1021D200E0E2F9E085818061858323C0809128094E
:1021E200882381F08091250984FF0CC0E3E2F0E4AA
:1021F20085E0858782E08487E0E2F9E0858180617D
:1022020085830FC08091250983FF0BC0E3E2F0E4D0
:1022120086E0858783E08487E0E2F9E08581886053
:102222008583C3E2D0E48D8590E0880F991F092E43
:10223200000CAA0B875F9B4FAF4FFC015A2F0E94E5
:10224200EB1CFB0109958D878C85882329F0E09191
:0E2252008740F09188400995DF91CF91089563
:1022600011C00E942A1D38F00E94311D20F039F45F
:102270009F3F19F426F40C94A81D0EF4E095E7FB9B
:102280000C94591DE92F0E94601A58F3BA1762077F
:1022900073078407950720F079F4A6F50C94381D90
:1022A0000EF4E0950B2EBA2FA02D0B01B901900171
:1022B0000C01CA01A0011124FF27591B99F0593FB5
:1022C00050F4503E68F11A16F040A22F232F342FFD
:1022D0004427585FF3CF469537952795A795F0404B
:1022E0005395C9F77EF41F16BA0B620B730B840B60
:1022F000BAF09150A1F0FF0FBB1F661F771F881F18
:10230000C2F70EC0BA0F621F731F841F48F487956F
:1023100077956795B795F7959E3F08F0B0CF939561
:0E232000880F08F09927EE0F9795879508957E
:10232E00CF93DF93CDB7DEB72E97CDBFDEBF42E0A2
:10233E00BE016F5F7F4F8FEF9FE30E941B1A8823B2
:10234E0009F447C08A818C7790E09595879595958D
:10235E0087958093C3404CE0BE016D5F7F4F83E055
:10236E0090E40E941B1A8823B1F1E1E3F0E48B8123
:10237E0090E0982F88272C81822B808391838D81EA
:10238E0090E0982F88272E81822B828393838F81D2
:10239E0090E0982F88272885822B848395838985C2
:1023AE0090E0982F88272A85822B868397838B85AA
:1023BE0090E0982F88272C85822B808791878D859A
:1023CE0090E0982F88272E85822B8287938781E035
:1023DE0003C080E001C080E02E96CDBFDEBFDF914E
:0423EE00CF910895EE
:1023F2000F931F93CF93DF938091C840813039F0C0
:1024020008F451C0823079F08330E9F047C00E946D
:102412001C1D811104C084E08093C84044C082E046
:102422008093C84040C00E94961B8823E1F10E941D
:102432009711811104C084E08093C84034C083E0C6
:102442008093C84030C088E0809327040E94160819
:10245200882301F10E94D91CC62FD72F182F092FCC
:102462000E94D01C0F931F93DF93CF939F938F9360
:102472007F936F938CE193E0A0E0AF939F938F9350
:102482000E94811B1092C8408DB79EB70B968DBFDC
:102492009EBF09C084E08093C84005C063E573E035
:1024A20080E00E949F13DF91CF911F910F910895B9
:1024B200FA01AA27283051F1203181F1E8946F9373
:1024C2006E7F6E5F7F4F8F4F9F4FAF4FB1E03ED019
:1024D200B4E03CD0670F781F891F9A1FA11D680FB7
:1024E200791F8A1F911DA11D6A0F711D811D911DEA
:1024F200A11D20D009F468943F912AE0269F11245F
:102502003019305D3193DEF6CF010895462F4770C2
:10251200405D4193B3E00FD0C9F7F6CF462F4F701D
:10252200405D4A3318F0495D31FD4052419302D07B
:10253200A9F7EACFB4E0A695979587957795679521
:10254200BA95C9F700976105710508959B01AC0121
:102552000A2E06945795479537952795BA95C9F748
:0C256200620F731F841F951FA01D0895B9
:10256E00CF93C82F82E892E0A0E0AF939F938F9312
:10257E000E94811B0F900F900F90CC2329F081E0C9
:10258E000E946B1BC82F04C080E00E946B1BC82FDB
:10259E000E94A51D882391F08EEA92E0A0E0AF93F1
:1025AE009F938F930E94811B8CE394E10E94281BC2
:1025BE000E94841C0F900F900F9012C088ED92E035
:1025CE00A0E0AF939F938F930E94811B0E947D1D6D
:1025DE00BC018CE394E10E94D11B0F900F900F90E1
:1025EE00CC2331F060E173E080E00E949F1308C0BD
:1025FE0064E173E080E00E949F1384E08093C84002
:04260E00CF910895CB
:10261200CF93DF930E94491C882309F443C0809121
:10262200050984FF0CC08091050986FF08C08091CE
:10263200050982FD04C08091050983FF07C08091CE
:10264200050982FD03C08091050983FD0E94621085
:1026520080910509882324F08091050986FF22C014
:102662008091050984FD08C08091050982FD04C09E
:102672008091050983FF03C00E94621013C0C5E167
:10268200D0E48D8590E0880F991F092E000CAA0BCB
:1026920089509C4FAF4FFC015A2F0E94EB1CFB014B
:0A26A20009958D87DF91CF9108950F
:1026AC0040E068ED80E690E00E94731D40E068ED2C
:1026BC0081E690E00E94731D40E068ED85E690E0B5
:1026CC000E94731D40E068ED88E790E00E94731D46
:1026DC004CE068ED88E690E00E94731D40E068EDE8
:1026EC0089E690E00E94731D40E068ED80E790E081
:1026FC000E94731D40E068ED8CE790E00E94731D12
:10270C0040E068ED82E690E00E94731D40E068EDC9
:10271C0083E690E00E94731D40E068ED84E690E053
:10272C000E94731D40E068ED80E890E00E94731DEC
:02273C000895FE
:10273E00CF92DF92EF920F931F93CF93DF93E0919F
:10274E000240F0910340948191FF2EC06B01E82E60
:10275E00D0E0C0E000E010E4F6015E2D0E94461DC0
:10276E00862F6623A1F0D80112966D917C91139756
:10277E00DB011996ED91FC911A970995892B11F0B1
:10278E00DFEFCFEFBFEFCB1ADB0AEB0AE5CF60919D
:10279E00024070910340DB011996ED91FC911A975E
:1027AE008AE00995892B19F08FEF9FEF02C08D2FCC
:1027BE009C2FDF91CF911F910F91EF90DF90CF90D3
:0227CE0008956C
:1027D00006C019F416F40C94A81D0C943B1C0E941E
:1027E000681AB8F39923C9F3B6F39F57550B87FFBF
:1027F0000E943F1D0024A0E640EA900180585695B3
:10280000979528F4805C660F771F881F20F02617A5
:102810003707480730F4621B730B840B20293129DA
:102820004A2BA69517940794202531254A2758F757
:10283000660F771F881F20F026173707480730F4E8
:10284000620B730B840B200D311D411DA09581F788
:0E285000B901842F9158880F969587950895A9
:10285E001F920F920FB60F9211240BB60F922F9359
:10286E003F934F935F936F937F938F939F93AF930A
:10287E00BF93EF93FF93399B05C0E091A140F09178
:10288E00A2400995389B05C0E0919F40F091A04071
:10289E0009953A9B05C0E0919940F0919A400995AF
:1028AE003B9B05C0E0919140F091924009958FEFCE
:1028BE0087B9FF91EF91BF91AF919F918F917F91CA
:1028CE006F915F914F913F912F910F900BBE0F9093
:0828DE000FBE0F901F9018952A
:1028E6000E940F1B81E08093020980932209809346
:1028F6006B0882E08093E50584E19DE10E94781DE6
:102906008AEA9BE10E946E1D80E99DE10E945F1D9F
:10291600C6B1C2FBCC27C0F98C2F0E94F90D8C2FB3
:102926000E94B712789407E214E0C8E00F2EF0E692
:10293600EF2EF8E0FF2EF02DD0E4A895F801C08325
:102946000E94AB0B0E94F9110E944D1D811106C019
:10295600F701D4830E94041D8111FCCF8895EDCF29
:102966001F920F920FB60F9211240BB60F922F9350
:102976003F934F935F936F937F938F939F93AF9301
:10298600BF93EF93FF938091430180FF07C0E091CF
:10299600A740F091A840309709F00995809143012E
:1029A60081FF07C0E091A540F091A640309709F05D
:1029B600099583E080934301FF91EF91BF91AF9119
:1029C6009F918F917F916F915F914F913F912F9141
:0E29D6000F900BBE0F900FBE0F901F90189524
:1029E4001F920F920FB60F9211240BB60F922F93D2
:1029F4003F934F935F936F937F938F939F93AF9383
:102A0400BF93EF93FF937C9B05C0E0919340F091BB
:102A140094400995789B05C0E0918F40F0919040D7
:102A240009957E9B05C0E0918D40F0918E400995FB
:102A34008FEF8FB9FF91EF91BF91AF919F918F91DC
:102A44007F916F915F914F913F912F910F900BBEAA
:0A2A54000F900FBE0F901F90189511
:102A5E00E89409C097FB3EF490958095709561952A
:102A6E007F4F8F4F9F4F9923A9F0F92F96E9BB27E0
:102A7E009395F695879577956795B795F111F8CF5C
:102A8E00FAF4BB0F11F460FF1BC06F5F7F4F8F4FC7
:102A9E009F4F16C0882311F096E911C0772321F0BD
:102AAE009EE8872F762F05C0662371F096E8862F55
:102ABE0070E060E02AF09A95660F771F881FDAF7AC
:0A2ACE00880F9695879597F90895F3
:102AD8000F931F93CF93DF93FB01248121FD03C044
:102AE8008FEF9FEF2CC022FF16C0478150852581AC
:102AF80036814217530744F4A081B1819D012F5FAD
:102B08003F4F208331838C93278130852F5F3F4F40
:102B18002783308714C08B01EC01FB010184F28507
:102B2800E02D0995892BE1F6D80117968D919C9196
:102B38001897019617968D939C931897CE01DF915D
:082B4800CF911F910F91089538
:102B500080911E4090911F40019731F4E0E0F9E030
:102B600084818460848305C0E0E0F9E084818B7F08
:102B70008483E5E1F0E481859285019781879287DE
:102B8000892B79F0A781B085CD0101968783908745
:102B9000E0E0F9E080858C9384818260848384E026
:102BA0000895E5E1F0E4A781B085CD010196878322
:102BB0009087E0E0F9E080858C9384818460848351
:062BC0000E948F19089528
:102BC60080912C4090912D40019731F4E0E2F9E09C
:102BD60084818460848305C0E0E2F9E084818B7F90
:102BE6008483E3E2F0E48185928501978187928769
:102BF600892B79F0A781B085CD01019687839087CF
:102C0600E0E2F9E080858C9384818260848384E0AD
:102C16000895E3E2F0E4A781B085CD0101968783AC
:102C26009087E0E2F9E080858C93848184608483D8
:062C36000E94D51908956B
:102C3C000F931F93CF93DF93CDB7DEB72697CDBFFE
:102C4C00DEBF8C0146E0BE016F5F7F4F85E094E2F2
:102C5C000E941B1A8823D9F0898190E0982F88272D
:102C6C002A81822BF801808391838B8190E0982FAD
:102C7C0088272C81822B828393838D8190E0982FDF
:102C8C0088272E81822B8483958381E001C080E08C
:102C9C002696CDBFDEBFDF91CF911F910F91089586
:102CAC008F929F92AF92BF92CF92DF92EF92FF9250
:102CBC000F931F93CF93DF935C016B017A01490152
:102CCC000E94491C811115C0C5E1D0E481E08883C4
:102CDC00A982BA828B87CB82DC82ED82FE828F82C4
:102CEC00988609871A871C860E94AC1C8D8781E008
:102CFC0001C080E0DF91CF911F910F91FF90EF9079
:0E2D0C00DF90CF90BF90AF909F908F90089572
:102D1A008F929F92AF92BF92CF92DF92EF92FF92E1
:102D2A000F931F93CF93DF935C016B017A014901E3
:102D3A000E94551C811115C0C3E2D0E481E088834A
:102D4A00A982BA828B87CB82DC82ED82FE828F8255
:102D5A00988609871A871C860E94BE1C8D8781E087
:102D6A0001C080E0DF91CF911F910F91FF90EF900A
:0E2D7A00DF90CF90BF90AF909F908F90089504
:102D8800EF92FF920F931F93CF937B01EBE4F0E454
:102D98009083818302E010E02DE430E442E050E0CB
:102DA800BF018AE390E00E948D16811104C0C0E043
:102DB80017C00E948A0F0E94551CC82F8111F9CF95
:102DC8000E94691D81110CC0EBE4F0E4828190E05F
:102DD800982F88272381822BF70180839183C1E074
:0E2DE8008C2FCF911F910F91FF90EF900895C7
:102DF6001F920F920FB60F9211240BB60F922F93BC
:102E06003F934F935F936F937F938F939F93AF936C
:102E1600BF93EF93FF935B9B05C0E0919740F091C2
:102E2600984009955A9B05C0E0919540F0919640CF
:102E360009958FEF8BB9FF91EF91BF91AF919F915C
:102E46008F917F916F915F914F913F912F910F904D
:0C2E56000BBE0F900FBE0F901F90189540
:102E62001F920F920FB60F9211240BB60F922F934F
:102E72003F934F935F936F937F938F939F93AF9300
:102E8200BF93EF93FF93BB9B05C0E0919D40F091F0
:102E92009E400995BA9B05C0E0919B40F0919C40F1
:102EA20009958FEF87BBFF91EF91BF91AF919F91F2
:102EB2008F917F916F915F914F913F912F910F90E1
:0C2EC2000BBE0F900FBE0F901F901895D4
:102ECE00EF92FF920F931F93CF93DF931F92CDB785
:102EDE00DEB789837B010E948C1D982F8823D9F041
:102EEE0001E010E0970141E050E0BE016F5F7F4FBF
:102EFE008CE090E00E945616982F811103C00BC0F3
:102F0E000E9409130E94491C8111FACF0E94641D70
:102F1E0091E0811190E0892F0F90DF91CF911F9159
:082F2E000F91FF90EF90089550
:102F36001F920F920FB60F9211240BB60F922F937A
:102F46003F934F935F936F937F938F939F93AF932B
:102F5600BF93EF93FF938091C70184FF05C0E09173
:102F66008340F0918440099580E18093C701FF91E9
:102F7600EF91BF91AF919F918F917F916F915F91EB
:102F86004F913F912F910F900BBE0F900FBE0F9058
:042F96001F901895DB
:102F9A001F920F920FB60F9211240BB60F922F9316
:102FAA003F934F935F936F937F938F939F93AF93C7
:102FBA00BF93EF93FF93E0918940F0918A40309755
:102FCA0009F0099581E08093C100FF91EF91BF91CB
:102FDA00AF919F918F917F916F915F914F913F91A7
:102FEA002F910F900BBE0F900FBE0F901F90189548
:102FFA001F920F920FB60F9211240BB60F922F93B6
:10300A003F934F935F936F937F938F939F93AF9366
:10301A00BF93EF93FF93E091A340F091A4403097C0
:10302A0009F0099581E080935301FF91EF91BF91D7
:10303A00AF919F918F917F916F915F914F913F9146
:10304A002F910F900BBE0F900FBE0F901F901895E7
:10305A000F931F93CF93DF9300D0CDB7DEB7082F1E
:10306A00162F0E948C1D982F8823D1F009831A836A
:10307A0042E050E0BE016F5F7F4F8CE090E00E941B
:10308A008B18982F811103C00BC00E9409130E944C
:10309A00491C8111FACF0E94641D91E0811190E0D0
:1030AA00892F0F900F90DF91CF911F910F91089563
:1030BA00E0ECF1E0158281E08683178211861286A0
:1030CA0015861686118A128A158A168A118E85E045
:1030DA00828F158E168E118212821382138617869C
:1030EA00138A178A80E1838F178E10861486108AB6
:1030FA00148A8DE2808F148E81E480838DEA9DE1AB
:0C310A00809383409093844080E00895FF
:10311600CF92DF92EF92FF920F931F93CF93DF939D
:103126006C017B018A010E94491C811115C0C5E111
:10313600D0E481E08883C982DA821B86EB82FC8236
:103146000D831E831F82188619861A861C860E9486
:10315600AC1C8D8781E001C080E0DF91CF911F918B
:0C3166000F91FF90EF90DF90CF90089544
:10317200CF92DF92EF92FF920F931F93CF93DF9341
:103182006C017B018A010E94491C811115C0C5E1B5
:10319200D0E481E08883C982DA821B86EF82F886D6
:1031A20009871A871B821C821D821E821C860E942E
:1031B2008F1C8D8781E001C080E0DF91CF911F914C
:0C31C2000F91FF90EF90DF90CF900895E8
:1031CE00CF92DF92EF92FF920F931F93CF93DF93E5
:1031DE006C017B018A010E94551C811115C0C3E24E
:1031EE00D0E481E08883C982DA821B86EB82FC827E
:1031FE000D831E831F82188619861A861C860E94CE
:10320E00BE1C8D8781E001C080E0DF91CF911F91C0
:0C321E000F91FF90EF90DF90CF9008958B
:10322A001F93CF93DF931F92CDB7DEB70E948C1DF9
:10323A00182F8823D9F0198241E050E0BE016F5F50
:10324A007F4F8CE090E00E94B918182F811103C0BB
:10325A000DC00E9409130E94491C182F8111F9CF31
:10326A000E94641D811102C019811170812F0F9073
:08327A00DF91CF911F9108952F
:10328200CF92DF92EF92FF920F931F93CF93DF9330
:10329200EC018C010C5F1F4F60E070E0CB01CC248D
:1032A200D62EE72EF82ECE010E94A21DA70196016E
:1032B200282BCA01B90121960C171D0781F7DF914E
:1032C200CF911F910F91FF90EF90DF90CF900895D3
:1032D200CF92DF92EF92FF92CF93DF93EC016A01DC
:1032E2007B016F2D772788279927CE010E943F1BEC
:1032F2006E2DCE0101960E943F1B6D2DCE010296CE
:103302000E943F1B6C2DCE0103960E943F1BDF9152
:0C331200CF91FF90EF90DF90CF900895D6
:10331E00E0E0F9E0848183608483A5E1B0E41C924F
:10332E008FEF90E011968D939C93129713961D92AA
:10333E001C92149717961D921C9218971D961C920C
:10334E008581806C858383818F7383838581816082
:06335E00858380E0089564
:1033640080911A4090911B40892B91F0E5E1F0E4A3
:1033740085819681019785839683A381B481CD014C
:103384000196838394838C918093080983E0089544
:1033940080912040882321F01092204081E00895FC
:0633A4000E948F1908953C
:1033AA00E0E2F9E0848183608483A3E2B0E41C92C2
:1033BA008FEF90E011968D939C93129713961D921E
:1033CA001C92149717961D921C9218971D961C9280
:1033DA008581806C858383818F73838385818160F6
:0633EA00858380E00895D8
:1033F0008091284090912940892B91F0E3E2F0E4FC
:1034000085819681019785839683A381B481CD01BF
:103410000196838394838C918093280983E0089597
:1034200080912E40882321F010922E4081E0089553
:063430000E94D519089569
:103436000F931F939B01EBE4F0E490838183042FA9
:1034460010E042E050E0BF018AE390E00E948D1652
:10345600811104C090E00BC00E948A0F0E94551C87
:103466008111FACF0E94691D91E0811190E0892FA8
:063476001F910F91089563
:10347C00CF93DF93EC010E948C1D982F8823B1F021
:10348C0048E050E0BE018CE090E00E94B918982F03
:10349C00811103C00BC00E9409130E94491C8111A9
:1034AC00FACF0E94641D91E0811190E0892FDF9189
:0434BC00CF9108950F
:1034C00057FD9058440F551F59F05F3F71F04795D5
:1034D000880F97FB991F61F09F3F79F087950895BA
:1034E000121613061406551FF2CF4695F1DF08C0D9
:1034F000161617061806991FF1CF869571056105F6
:04350000089408958E
:10350400E0E4F1E081818111FDCFE0E4F1E08FEFAF
:1035140090E084879587108611868FEF9EE08287DE
:103524009387178281E0828389EB8083818981116B
:10353400FDCFE0E4F1E081E0828B81E6808B80E0E6
:023544000895E8
:10354600EBE4F0E4908381837283638344E050E08C
:10355600BF018AE390E00E94E718811104C090E061
:103566000BC00E948A0F0E94551C8111FACF0E943F
:0C357600691D91E0811190E0892F0895FB
:10358200CF92DF92EF926B01E82E9A01A82FCB0126
:103592002115310531F48C199D09EF90DF90CF9000
:1035A2000895FC015A2F0E94461D6623A1F301963D
:0835B200A11D21503109ECCFED
:1035BA00E0E0F9E0108212828FE0868381E0838363
:1035CA00158217821482108684818860848385819B
:1035DA00816085838EEA9DE1809385409093864041
:0235EA00089542
:1035EC00E0E2F9E0108212828FE0868381E083832F
:1035FC001582178214821086848188608483858169
:10360C00816085838FEA9DE1809387409093884009
:02361C0008950F
:10361E000E943A0D0E945D180E9456130E94DD1AF8
:10362E000E94F61A0E94C71C0E94791C0E94821AE0
:10363E000E942D1C0E94551B0E940C1D0E94611C95
:02364E000895DD
:103650000F931F93CF93DF938C010E94A21DC82F5D
:10366000D0E0DC2FCC27C80101960E94A21D9E014C
:0E367000282BC901DF91CF911F910F91089572
:10367E001F93CF93DF93EC01162F43E16DE980E0AA
:10368E0090E10E94731D188340E06DE980E090E1A7
:0C369E000E94731DDF91CF911F910895D1
:1036AA00E0E6F8E08BE890E080879187158280EC6D
:1036BA00868383E08783138614861686158686E0BA
:0C36CA0090E48093024090930340089528
:1036D600CF93811105C00E94D209C82F811108C05D
:1036E6000E94DC05C82F882331F00E94770C03C0A6
:0C36F60081E08093C4408C2FCF91089598
:10370200CF93DF93CDB7DEB79E012B5F3F4FF90119
:103712004191519161919F018091024090910340AA
:0A3722000E941202DF91CF9108957A
:10372C00CF93DF9300D0CDB7DEB7CE0101960E94C8
:10373C00531D882319F08981817001C080E00F909E
:08374C000F90DF91CF91089569
:103754000E948C1D882341F08091C740823021F45F
:1037640083E08093C74008950E948C1D811103C09B
:0837740082E08093C740089534
:10377C000E94821D882359F065EB85E10E942D186B
:10378C00882339F06DE284E10E942D18089580E0C1
:06379C00089580E008958D
:1037A2001F93CF93DF93EC01162F672F0E943F1BCD
:1037B200612FCE0101960E943F1BDF91CF911F9195
:0237C200089568
:1037C400092E0394000C11F4882352F0BB0F40F42B
:1037D400BF2B11F460FF04C06F5F7F4F8F4F9F4F6B
:0237E400089546
:1037E600E0E0F9E083818E7F838383818160838338
:0E37F6008581816085831092154080E00895E2
:10380400E0E2F9E083818E7F838383818160838317
:0E3814008581816085831092234080E00895B5
:103822001F920F920FB60F9211248F938FEF83B9CD
:0C3832008F910F900FBE0F901F90189503
:10383E001F920F920FB60F9211248F938FEF83BBAF
:0C384E008F910F900FBE0F901F901895E7
:10385A0043E068ED80E590E00E94731D40E068ED6A
:0C386A0081E590E00E94731D80E008954D
:103876009F3F31F0915020F4879577956795B795DE
:0C388600880F911D9695879597F908957D
:1038920080911540811105C0809105098095817044
:0838A20001C081E0817008956E
:1038AA0080912340811105C08091250980958170FE
:0838BA0001C081E08170089556
:1038C20040E068ED80E191E00E94731DE0E1F1E0EB
:0838D2001282138280E00895C8
:1038DA00CF93C82F0E944D1D8823E1F3C09362083D
:0838EA0080E090E0CF91089509
:1038F200E0E0F0E1118280EB9DE180938B409093B8
:063902008C4013820895C1
:103908009C01E0E4F1E0918192FDFDCF20934A0112
:0639180030934B010895FD
:10391E008091164090911740880F8160809307091F
:04392E0084E0089594
:103932008091244090912540880F816080932709CF
:0439420084E0089580
:1039460010921540E0E0F9E085818160858388E08A
:023956000895D2
:103958008091164090911740880F8093070983E063
:023968000895C0
:10396A0010922340E0E2F9E085818160858388E056
:02397A000895AE
:10397C008091244090912540880F8093270983E003
:02398C0008959C
:10398E0081E08093C0001092894010928A4080E0BE
:02399E0008958A
:1039A00060914340709144408091454090914640E1
:0239B000089578
:1039B20060914740709148408091494090914A40BF
:0239C200089566
:1039C400EE0FFF1F0024001C0BBE0790F691E02DA4
:0239D400099454
:1039D60057FD04C05BBF679177910895619171911E
:0239E600089542
:1039E800E0E0F9E08581806C85830E94F31B0895EF
:1039F800E0E2F9E08581806C85830E94021C0895CD
:103A08008091640886FB882780F991E089270895CA
:103A1800E0EBF0E01482108281E0828380E0089578
:103A28008091C840811103C081E08093C840089507
:0E3A380062E078E081E090E30E94A31A089516
:0E3A46005058BB27AA270E9430110C94E21B97
:0E3A540000240A94161617061806090608958F
:0E3A620000240A941216130614060506089591
:0E3A7000E894BB2766277727CB0197F90895C6
:0E3A7E0091505040660F771F881FD2F70895B1
:0E3A8C0057FD03C05BBF6791089560810895E8
:0C3A9A008091640885FB882780F908955E
:0C3AA600BC018FEF9FE30E94C41608953E
:0C3AB20097F99F6780E870E060E00895DD
:0A3ABE0080938340909384400895A4
:0A3AC800E5E1F0E48485148608951A
:0A3AD200E3E2F0E484851486089511
:0A3ADC008093894090938A4008957A
:0A3AE6001BBEFC0164BF408308957D
:0A3AF0008093A7409093A84008952A
:0A3AFA0080914A0190914B0108955C
:0A3B040066E081E10E942D1808958B
:0A3B0E00682F80E10E942D18089531
:083B18008091C2008170089544
:083B200081E08093C640089586
:083B28000E941B0F0C94E21B2C
:083B30000E94F80F0C94E21B47
:063B38000E948F190895A0
:063B3E000E94D519089554
:063B4400FC0180810895E0
:063B4A008091C4400895C3
:063B50009FEF80EC0895D8
:043B56000C940000CB
:023B5A000895CC
:023B5C000895CA
:023B5E000895C8
:023B60000895C6
:023B62000895C4
:023B64000895C2
:023B66000895C0
:023B68000895BE
:023B6A000895BC
:023B6C000895BA
:023B6E000895B8
:023B70000895B6
:023B72000895B4
:023B74000895B2
:023B76000895B0
:0F3B78000000000002000000006D1C00000000B3
:043B87000000C84131
:043B8B000000C8412D
:023B8F00E2044E
:02000004008278
:090000000800000000C00D000022
:00000001FF
