:100000000C941B010C9459240C9459240C945924DD
:100010000C94681C0C94951A0C94981C0C945924FC
:100020000C94A1220C9459240C9459240C94592416
:100030000C9459240C9459240C9459240C9459244C
:100040000C9459240C9459240C9459240C9459243C
:100050000C9459240C9459240C9459240C9459242C
:100060000C94F71C0C9459240C9459240C94592486
:100070000C9459240C9459240C94AF220C945924B8
:100080000C9459240C9459240C9459240C94CB228C
:100090000C9459240C9459240C94C81C0C94592485
:1000A0000C9459240C9459240C9459240C945924DC
:1000B0000C9459240C94111A0C94BD220C945924BC
:1000C0000C9459240C9459240C9459240C945924BC
:1000D0000C9459240C9459240C9459240C945924AC
:1000E0000C9459240C9459240C9459240C9459249C
:1000F0000C9459240808290838084A0812092C09C0
:10010000240A4D0A5B0AF90A0A0B190B4000421730
:10011000804217421F0048C2421F428B80428B42DE
:100120008D0048CA428D429580429542960007EB69
:10013000429642980048CC429842A08000407A10F3
:10014000F35A00A0724E18090010A5D4E80000E888
:100150007648170000E40B54020000CA9A3B0000E6
:1001600000E1F505000080969800000040420F0075
:100170000000A08601000000102700000000E80336
:10018000000000006400000000000A000000000001
:100190000100000000002C76D888DC674F0823DFC0
:1001A000C1DFAE59E1B1B796E5E3E453C63AE65193
:1001B000997696E8E6C28426EB898C9B62ED407CBA
:1001C0006FFCEFBC9C9F40F2BAA56FA5F490055A56
:1001D0002AF75C936B6CF9676DC11BFCE0E40D477B
:1001E000FEF520E6B500D0ED902E0300943577059E
:1001F0000080841E080000204E0A000000C80C3356
:100200003333330F986E12831141EF8D2114893BE4
:10021000E65516CFFEE6DB18D1844B381BF77C1D64
:10022000901DA4BBE424203284725E228100C9F1B7
:1002300024ECA1E53D2711241FBECFEFCDBFDFE7A2
:10024000DEBFECE0F1E041E019C0B791A791379132
:100250002791079107FD0EC097918791EF01F92F24
:10026000E82F0BBF07900D92A217B307D9F7FE0135
:100270001BBE04C01D92A217B307E1F7EC33F407CD
:0E02800021F70E948C1B0C944501F894FFCFCF
:10028E00496E697469616C697A696E67204D4C5864
:10029E003930333932204D61676E65746F6D657418
:1002AE0065722053656E736F722E2E2E0046414975
:1002BE004C45440D0A0043414C204241440D0A0076
:1002CE004F4B0D0A004D61782056616C75653A20D2
:1002DE00256C752C20437261636B65643A20256C26
:1002EE00752C20666F756E6420256C750D0A003CAA
:1002FE005468726573686F6C6420457863656564D5
:10030E0065643E202D2000416C61726D2042414497
:10031E000D0A00416C61726D204F4B0D0A004F703B
:10032E00656E207468652077696E646F7720616EE4
:10033E0064207072657373207468652062757474BE
:10034E006F6E20746F2073746172742E0D0A005BD1
:10035E004552525D204661696C656420746F20635E
:10036E0068616E6765204D4C583930333932206FD5
:10037E007065726174696E67206D6F64652E0D0A0B
:10038E0000426567696E6E696E67204F70656E20FC
:10039E0057696E646F772043616C6962726174692C
:1003AE006F6E2E0D0A005A65726F696E6720436F6D
:1003BE006D706C6574652E20585F6F6666203D20EB
:1003CE0025642C20595F6F6666203D2025642C2005
:1003DE005A5F6F66663D2025640D0A00506C65619C
:1003EE00736520636C6F7365207468652077696E22
:1003FE00646F7720616E6420746865207072657317
:10040E00732074686520627574746F6E20746F202B
:10041E00636F6E74696E75652E0D0A0042656769AD
:10042E006E6E696E6720436C6F7365642057696EDC
:10043E00646F772043616C6962726174696F6E2EAE
:10044E000D0A005363616C696E6720436F6D706CAB
:10045E00657465642E20585F7363616C6520203D62
:10046E0020325E25642C20595F7363616C65203DDC
:10047E0020325E25642C205A5F7363616C65203DCB
:10048E0020325E25640D0A00506C65617365206331
:10049E007261636B207468652077696E646F772074
:1004AE00746F207365742074686520616C61726D61
:1004BE00207468726573686F6C642C207468656E46
:1004CE002070726573732074686520627574746F22
:1004DE006E2E0D0A005B4552525D2053656E736F92
:1004EE00722076616C75652069732062656C6F771A
:1004FE00206E6F697365206D617267696E2C207056
:10050E006C6561736520636C6F736520746865201C
:10051E0077696E646F7720616E6420707265737395
:10052E002074686520627574746F6E20746F20720B
:10053E00657472792E0D0A00426567696E6E696E7A
:10054E006720437261636B65642057696E646F77D1
:10055E002043616C6962726174696F6E2E0D0A00C0
:10056E005B5741524E5D205468726573686F6C64C0
:10057E002069732062656C6F77206E6F69736520DA
:10058E006D617267696E2E2053656E736F72206D8A
:10059E006179206E6F74206F70657261746520636F
:1005AE006F72726563746C792E0D0A0054687265F1
:1005BE0073686F6C642063616C6962726174696FD9
:1005CE006E20636F6D706C6574652E205468726555
:1005DE0073686F6C643A20256C750D0A00506C655B
:1005EE0061736520636C6F7365207468652077692D
:1005FE006E646F7720616E64207072657373207401
:10060E00686520627574746F6E20746F2066696EF3
:10061E006973682E0D0A0043616C696272617469B8
:10062E006F6E20436F6D706C657465642E0D0A00DD
:10063E004D61676E65746F6D657465722053656E7E
:10064E00736F72204572726F72202D205265626F29
:0C065E006F74204465766963650D0A0026
:10066A00496E697469616C697A696E67204D4C5884
:10067A0039303633322054656D7065726174757223
:10068A00652053656E736F722E2E2E000D0A4C6F05
:10069A00616465642063616368656420636F6E7377
:1006AA0074616E747320616E642073657474696E0C
:1006BA0067732E2E2E000D0A4C6F616465642063E9
:1006CA006F6E7374616E74732066726F6D207365DA
:1006DA006E736F7220616E64207265736574207424
:1006EA006F2064656661756C74732E2E2E004F4BF5
:1006FA000D0A004641494C45440D0A0053656E7384
:10070A006F722054656D70657261747572653A20F6
:10071A0025322E3266430D0A526F6F6D2054656D75
:10072A0070657261747572653A2025322E3266439D
:10073A000D0A0054656D7065726174757265205397
:10074A00656E736F72204572726F72202D2052652A
:0E075A00626F6F74204465766963650D0A0056
:10076800242424002D2D2D004B4F4100457865632E
:100778007574696E6720436F6D6D616E643A2022EF
:1007880000222E2E2E004F4B0D0A004641494C45A3
:10079800440D0A00496E697469616C697A696E670B
:1007A80020524E343837302E2E2E0D0A00456E74E6
:1007B8006572696E6720436F6D6D616E64204D6F61
:1007C80064652E2E2E00532D2C4D6963726F2D44B7
:0B07D800656D6F00412C3030353000A3
:0807E300696E66006E616E0094
:0107EB00010C
:1007EC002F923F924F925F926F927F928F929F9235
:1007FC00AF92BF92CF92DF92EF92FF920F931F9323
:10080C00CF93DF93CDB7DEB76497CDBFDEBF6C015E
:10081C001A01462E5901FC0117821086848181FF32
:10082C0067C3CE0101968C879D87A0E88A8B9B8B32
:10083C00AC8BF101542D0E94E123862F662309F421
:10084C0053C3442D91012F5F3F4F4F4F653219F029
:10085C001901442E0BC0F901542F0E94E123862F5D
:10086C0092E0290E311C411C653249F4B60190E02E
:10087C000E94501BAE86BF86AE84BF84DACF10E0D8
:10088C00F12C00E00032A0F48B3269F030F48032AD
:10089C0059F0833269F400612CC08D3239F0803309
:1008AC0039F4016026C00260046023C0086021C0D6
:1008BC0007FD2AC090ED980F9A3078F406FF06C019
:1008CC00AAE01A9F900D1124192F13C0EAE0FE9E86
:1008DC00900D1124F92E00620CC08E3221F406FD0D
:1008EC0003C3006406C08C3611F4006802C088365D
:1008FC0059F4F101542D0E94E123862FFFEF2F1A9A
:10090C003F0A4F0A6111BECF9BEB980F933018F43E
:10091C000061805E06C09BE9980F933008F066C1B9
:10092C000F7E06FF16E00F73702E853621F4202FF4
:10093C002064722E08C0863621F4802F8068782EB1
:10094C0002C01111115077FE07C01C3350F4EE2475
:10095C00E394E10E27E00BC0183038F027E017E0E5
:10096C0005C027E06CE3E62E02C0212FE12CF50137
:10097C003496EE87FF87F5016081718182819381C6
:10098C000E2DAE014F5F5F4F0E9424105C01598009
:10099C0050FE02C053FE06C071FC06C072FE06C0BB
:1009AC0000E205C00DE203C00BE201C000E0852DA2
:1009BC008C7019F0011174C2C0C277FE0FC0EA0C22
:1009CC0054FE04C08A81813309F4EA941E1474F530
:1009DC0028E02E1578F538E0E32E2CC076FC2AC0E2
:1009EC00812F90E08A159B059CF08CEFA8168FEF59
:1009FC00B80674F0972D9068792E0AC0E2E0F0E00A
:100A0C00EC0FFD1FE10FF11D8081803319F41150A3
:100A1C001111F4CF77FE0EC0EE24E394E10E812F7A
:100A2C0090E0A816B9062CF41A1904C0EE24E3942D
:100A3C0001C010E077FE06C01A141B0434F4C50183
:100A4C00019605C085E090E002C081E090E00111C4
:100A5C000196112331F0212F30E02F5F3F4F820F91
:100A6C00931F2F2D30E08217930714F4F81A01C04E
:100A7C00F12C872D897049F4FF2039F0B60180E202
:100A8C0090E00E94501BFA94F7CF002329F0B60196
:100A9C00802F90E00E94501B73FC09C0FF2039F09E
:100AAC00B60180E390E00E94501BFA94F7CF77FEDA
:100ABC0049C03501B7FE02C0612C712CC5018619E5
:100ACC00970988248394912C8C0E9D1E880E991E58
:100ADC00F501EE19F109E88BF98B012F10E0119556
:100AEC0001951109FFEF6F167F0629F4B6018EE20E
:100AFC0090E00E94501BA614B70444F08889998991
:100B0C00861597051CF4F401818101C080E3F1E0A6
:100B1C006F1A71082FEF821A920A601671062CF068
:100B2C00B60190E00E94501BDDCFA614B70439F437
:100B3C009A81963318F4953311F454FE81E3B6017F
:100B4C0090E051C08A81813319F0952D9F7E592EEA
:100B5C00B60190E00E94501B111105C074FC1CC022
:100B6C0085E690E01BC0B6018EE290E00E94501B1F
:100B7C0002E0010F82E011E0180FE1E0F0E0EC0F71
:100B8C00FD1FE80FF11D8081B60190E00E94501B03
:100B9C00812F1013F0CFE2CF85E490E0B6010E94D4
:100BAC00501BB7FC05C0A114B10439F454FE05C0A8
:100BBC00B194A194B1088DE201C08BE2B60190E032
:100BCC000E94501B80E3EAE0AE16B1042CF08F5F5C
:100BDC00AAE0AA1AB108F7CFB60190E00E94501B08
:100BEC00B601C501C0960E94501B74C1833631F00A
:100BFC00833791F0833509F05EC024C0C50102969D
:100C0C008E879F87F501808189836A887B888C8891
:100C1C00AA24A394B12C14C0C50103968E879F8778
:100C2C00F50160807180828006FF03C0412F50E087
:100C3C0002C04FEF5FEF882DB3010E942D205C01A5
:100C4C000F7715C0C50103968E879F87F5016080CD
:100C5C007180828006FF03C0412F50E002C04FEF2D
:100C6C005FEF882DB3010E942D205C01006803FD0D
:100C7C001EC08F2D90E0A816B906C8F4B60180E20C
:100C8C0090E00E94501BFA94F4CFF301582D0E946F
:100C9C00E123862FFFEF6F1A7F0A8F0AB60190E0CF
:100CAC000E94501BF110FA9421E0A21AB108A11471
:100CBC00B10459F70FC1843611F0893679F5C501A5
:100CCC0007FF09C004968E879F87F50160817181AB
:100CDC00828193810AC002968E879F87F50160817D
:100CEC007181072E000C880B990B0F76E02E97FF65
:100CFC000AC090958095709561957F4F8F4F9F4F4F
:100D0C00F02FF068EF2E2AE030E0AE014F5F5F4F1E
:100D1C000E942016A82E2C85A21A4BC0853729F4C8
:100D2C000F7EE02E2AE030E025C0902F997FE92E2F
:100D3C008F36C1F018F4883579F0D6C0803719F0A9
:100D4C00883721F0D1C0A92FA061EA2EE4FE0DC096
:100D5C00EE2DE460EE2E09C004FF0AC0F92FF660F8
:100D6C00EF2E06C028E030E005C020E130E002C0E4
:100D7C0020E132E0C501E7FE09C004968E879F870B
:100D8C00F501608171818281938108C002968E8702
:100D9C009F87F5016081718180E090E0AE014F5F2B
:100DAC005F4F0E942016A82EFC85AF1A2E2D2F7790
:100DBC00E22EE6FE0BC00E2D0E7FA11650F4E4FEC3
:100DCC000AC0E2FC08C00E2D0E7E05C0BA2C0E2DFA
:100DDC0003C0BA2C01C0B12E04FF0DC0FE01EA0DF8
:100DEC00F11D8081803311F4097E09C002FF06C019
:100DFC00B394B39404C0802F867809F0B39403FDA8
:100E0C0011C000FF06C0BF1488F4FA0C1F2D1B196B
:100E1C000EC0BF1460F4B60180E290E00E94501B3B
:100E2C00B394F7CFBF1418F4FB1802C01A2DF12C91
:100E3C0004FF10C0B60180E390E00E94501B02FF3B
:100E4C0017C001FD03C088E790E002C088E590E080
:100E5C00B6010CC0802F867859F001FF02C08BE2DE
:100E6C0001C080E207FD8DE2B60190E00E94501BAC
:100E7C00A11638F4B60180E390E00E94501B11508B
:100E8C00F7CFAA94E1E0F0E0EC0FFD1FEA0DF11DA5
:100E9C008081B60190E00E94501BA110F2CF1AC0C5
:100EAC00F4E0FF1588F584E0F81A73FE24C00111F4
:100EBC002CC053FE30C057EE852E57E0952E50E0D7
:100ECC00A52E072D0071F4015A2D0E94E123862FC7
:100EDC00611128C0FF2009F4CFCCB60180E290E06C
:100EEC000E94501BFA94F6CFF601878190852CC096
:100EFC008FEF9FEF29C0B60180E290E00E94501B5B
:100F0C00FA94F110F8CFD3CFF12CB601802F90E0EA
:100F1C000E94501BCECF43EE842E47E0942E40E02F
:100F2C00A42ECFCF01118052B60190E00E94501B2D
:100F3C00FFEF8F1A9F0AAF0AC6CF23E02F1510F4CC
:100F4C0083E0B2CFF12CB5CF6496CDBFDEBFDF917D
:100F5C00CF911F910F91FF90EF90DF90CF90BF90AA
:100F6C00AF909F908F907F906F905F904F903F903D
:040F7C002F90089515
:100F80004F925F926F927F928F929F92AF92BF9299
:100F9000CF92DF92EF92FF92CF93DF93CDB7DEB780
:100FA0002597CDBFDEBFDC0190919042993130F0A2
:100FB00088E0809327041092904203C09F5F909333
:100FC0009042FB01C184D284E384F484409167425F
:100FD000509168426091694270916A424C155D057A
:100FE0006E057F0540F4C0926742D0926842E0925D
:100FF0006942F0926A42E09199424E2F50E04C30A3
:10100000510508F018C3FA01E658FF4F0C948023ED
:101010006CE273E080E00E94641881E08093994262
:10102000109263421092644210926542109266429E
:1010300010925F421092604210926142109262429E
:1010400010925B4210925C4210925D4210925E429E
:10105000F2C28AE00E943624882321F082E0809345
:101060009942E9C26DE573E080E00E946418E3C232
:1010700080919442882309F4DEC26FE873E080E037
:101080000E94641883E080939942109283421092E8
:101090008442D1C280918342909184429C012F5F0F
:1010A0003F4F209383423093844211964D915C913F
:1010B0001297052E000C660B770BC0906342D09000
:1010C0006442E0906542F0906642CB01BA016C0D3B
:1010D0007D1D8E1D9F1D60936342709364428093BB
:1010E00065429093664213968D909C901497092CBC
:1010F000000CAA08BB08C0905F42D0906042E0900C
:101100006142F09062428C0C9D1CAE1CBF1C809210
:101110005F4290926042A0926142B0926242159604
:10112000CD90DC9016970D2C000CEE08FF08409037
:101130005B4250905C4260905D4270905E42C40C95
:10114000D51CE61CF71CC0925B42D0925C42E09238
:101150005D42F0925E42283E334008F46CC20F2E8E
:10116000F8EE4F2EF3E05F2E612C712CF02DA301D1
:1011700092010E94F920CA01B9010E94151B0E9428
:10118000641F0E94BE2369837D83609389427093AC
:101190008A42C501B401A30192010E94F920CA014B
:1011A000B9010E94151B0E94641F0E94BE23B62E27
:1011B000A72E6093874270938842C701B601A301AE
:1011C00092010E94F920CA01B9010E94151B0E94D8
:1011D000641F0E94BE23F62EE72E60938542709313
:1011E00086420E945024EF92FF92AF92BF924D81AF
:1011F0004F93A981AF9324EB33E040E04F933F93AB
:101200002F939F938F930E94061E0E94261D6AEEC5
:1012100073E080E00E94641884E080939942CDBF1F
:10122000DEBF09C280919442882309F404C210925F
:101230006742109268421092694210926A426AE2D2
:1012400074E080E00E94641885E0809399421092D7
:10125000834210928442EFC18091834290918442F4
:10126000FC013196E0938342F093844211964D91B4
:101270005C9112972091894230918A42421B530B14
:10128000052E000C660B770BC0906342D090644231
:10129000E0906542F0906642CB01BA016C0D7D1D75
:1012A0008E1D9F1D609363427093644280936542DC
:1012B0009093664213968D909C901497209187424C
:1012C00030918842821A930A092C000CAA08BB08A4
:1012D000C0905F42D0906042E0906142F0906242E4
:1012E0008C0C9D1CAE1CBF1C80925F429092604291
:1012F000A0926142B09262421596CD90DC90169712
:101300002091854230918642C21AD30A0D2C000CDE
:10131000EE08FF0840905B4250905C4260905D4256
:1013200070905E42C40CD51CE61CF71CC0925B4258
:10133000D0925C42E0925D42F0925E42E83EF34021
:1013400008F479C10F2EF8EE4F2EF3E05F2E612CDA
:10135000712CF02DA30192010E94F920CA01B9015C
:101360000E94151B0E94641F0E94BE2369837A831A
:101370008B839C8360936342709364428093654245
:1013800090936642C501B401A30192010E94F92025
:10139000CA01B9010E94151B0E94641F0E94BE234E
:1013A0004B015C0160935F427093604280936142A5
:1013B00090936242C701B601A30192010E94F920F5
:1013C000CA01B9010E94151B0E94641F0E94BE231E
:1013D0002B013C0160935B4270935C4280935D42C1
:1013E00090935E4289819A810E94F121F82E809328
:1013F0009742C4010E94F121E82E80939642C201D7
:101400000E94F121D82E809395420E9450241F9271
:10141000DF921F92EF921F92FF9221E534E040E0AD
:101420004F933F932F939F938F930E94061E0E948A
:10143000261D66E974E080E00E94641886E08093CF
:101440009942CDBFDEBFF7C099E2C916D104E104CD
:10145000F10448F463EE74E080E00E94641887E0D1
:1014600080939942E8C080919442882309F4E3C0B4
:1014700066E475E080E00E94641888E080939942F9
:101480001092834210928442109257421092584216
:101490001092594210925A42CEC0809194428823B1
:1014A00009F4C9C066E974E080E00E94641886E02F
:1014B00080939942C0C080918342909184429C0164
:1014C0002F5F3F4F20938342309384424091574295
:1014D000509158426091594270915A42CB01BA01E1
:1014E0006C0D7D1D8E1D9F1D609357427093584259
:1014F0008093594290935A42283E334008F49BC04F
:1015000028EE33E040E050E00E94F920CA01B90122
:101510000E94151B0E94641F0E94551D60936B4220
:1015200070936C4280936D4290936E426832710565
:101530008105910528F46EE675E080E00E9464184C
:1015400060916B4270916C4280916D4290916E42BD
:101550000E94131B2DEC3CEC4CE85FE30E944324FB
:101560000E94641F0E94551DF62EE72ED82EC92E0C
:1015700060936B4270936C4280936D4290936E4285
:1015800060916742709168428091694290916A428D
:101590000E94131B2DEC3CEC4CE85FE30E944324BB
:1015A0000E94641F0E94551D6093674270936842B9
:1015B0008093694290936A420E945024CF92DF92B6
:1015C000EF92FF922AEB35E040E04F933F932F9349
:1015D0009F938F930E94061E0E94261D6BEE75E05E
:1015E00080E00E94641889E080939942CDBFDEBFFD
:1015F00022C0809194428823F1F065E276E080E099
:101600000E9464188AE080939942109290420E944E
:10161000D51611C082E00E943624882321F08BE089
:101620008093994208C06DE573E080E00E946418E1
:1016300002C0109299422596CDBFDEBFDF91CF91B7
:10164000FF90EF90DF90CF90BF90AF909F908F90E2
:0A1650007F906F905F904F90089517
:10165A00CF92DF92EF92FF921F93CF93DF93CDB792
:10166A00DEB76897CDBFDEBF81E192E40E94C61B58
:10167A00182F882309F41AC240E1BE016F5F7F4F19
:10168A008CE094E20E94E722882309F40AC22B81A3
:10169A006C81862F90E0A0E0B0E0DC0199278827D2
:1016AA00B22B2A81AC01BD01422B898190E0982F8F
:1016BA008827A0E0B0E06A017B01C82AD92AEA2A71
:1016CA00FB2AC701B6010E94151B20E030E040E862
:1016DA005BE30E9443246093534270935442809385
:1016EA005542909356422F816885862F90E0A0E05C
:1016FA00B0E0DC0199278827B22B2E81AC01BD010D
:10170A00422B8D8190E0982F8827A0E0B0E06A01F3
:10171A007B01C82AD92AEA2AFB2AC701B6010E94F4
:10172A00151B20E030E040E855E30E944324609313
:10173A004F427093504280935142909352422B856C
:10174A006C85862F90E0A0E0B0E0DC01992788271D
:10175A00B22B2A85AC01BD01422B898590E0982FD6
:10176A008827A0E0B0E06A017B01C82AD92AEA2AC0
:10177A00FB2AC701B6010E94151B20E030E040E8B1
:10178A0059E20E94432460934B4270934C428093E7
:10179A004D4290934E422F856889862F90E0A0E0B3
:1017AA00B0E0DC0199278827B22B2E85AC01BD0158
:1017BA00422B8D8590E0982F8827A0E0B0E06A013F
:1017CA007B01C82AD92AEA2AFB2AC701B6010E9444
:1017DA00151B20E030E040E85BE30E94432460935D
:1017EA004742709348428093494290934A4248E163
:1017FA00BE016F5F7F4F84E294E20E94E722882352
:10180A0009F451C12B816C81862F90E0A0E0B0E0F1
:10181A00DC0199278827B22B2A81AC01BD01422B12
:10182A00898190E0982F8827A0E0B0E06A017B01C7
:10183A00C82AD92AEA2AFB2AC701B6010E94151B1F
:10184A0020E030E040E857E30E944324609343429B
:10185A007093444280934542909346422F81688513
:10186A00862F90E0A0E0B0E0DC0199278827B22B10
:10187A002E81AC01BD01422B8D8190E0982F8827E3
:10188A00A0E0B0E06A017B01C82AD92AEA2AFB2A29
:10189A00C701B6010E94151B20E030E040E85BE377
:1018AA000E94432460933F42709340428093414296
:1018BA00909342422B856C85862F90E0A0E0B0E0A1
:1018CA00DC0199278827B22B2A85AC01BD01422B5E
:1018DA00898590E0982F8827A0E0B0E06A017B0113
:1018EA00C82AD92AEA2AFB2AC701B6010E94151B6F
:1018FA0020E030E040E858E20E94432460933B42F3
:10190A0070933C4280933D4290933E422F85688972
:10191A00862F90E0A0E0B0E0DC0199278827B22B5F
:10192A002E85AC01BD01422B8D8590E0982F88272A
:10193A00A0E0B0E06A017B01C82AD92AEA2AFB2A78
:10194A00C701B6010E94151B20E030E040E85DE2C5
:10195A000E944324609337427093384280933942FD
:10196A0090933A422B896C89862F90E0A0E0B0E0F0
:10197A00DC0199278827B22B2A89AC01BD01422BA9
:10198A00898990E0982F8827A0E0B0E06A017B015E
:10199A00C82AD92AEA2AFB2AC701B6010E94151BBE
:1019AA0020E030E040E85DE20E9443246093334245
:1019BA007093344280933542909336426D8970E039
:1019CA00762F66278E89682B072E000C880B990BB9
:1019DA000E94151B20E030E040E85AE30E944324AD
:1019EA0060932F42709330428093314290933242F7
:1019FA006F8970E0762F6627888D682B072E000C7A
:101A0A00880B990B0E94151B20E030E040E85AE34E
:101A1A000E94432460932B4270932C4280932D4260
:101A2A0090932E4244E0BE016F5F7F4F81E894E2BB
:101A3A000E94E7228823C9F1698170E0762F662720
:101A4A008A81682B072E000C880B990B0E94151BA4
:101A5A0020E030E040E858E30E94432460932742A4
:101A6A00709328428093294290932A426B8170E0B6
:101A7A00762F66278C81682B072E000C880B990B12
:101A8A000E94151B20E030E040E85AE30E944324FC
:101A9A006093234270932442809325429093264276
:101AAA0005C010E003C010E001C010E0812F689665
:101ABA00CDBFDEBFDF91CF911F91FF90EF90DF90F6
:041ACA00CF9008951C
:101ACE004F925F926F927F928F929F92AF92BF9240
:101ADE00CF92DF92EF92FF92CF93DF93CDB7DEB727
:101AEE006197CDBFDEBF80918D42823029F080910B
:101AFE008D42813009F08DC160910F42709110427C
:101B0E00072E000C880B990B0E94151B4B015C01D4
:101B1E006091094270910A42072E000C880B990BB6
:101B2E000E94151B20E030E040E451E40E943F2467
:101B3E006B017C0120912F42309130424091314215
:101B4E00509132420E944324A50194010E94B82371
:101B5E009B01AC01C701B6010E943F2420E030E09A
:101B6E0040E059E40E94432469837A838B839C83EB
:101B7E0080918D428130A9F4E5E0F2E460817181BB
:101B8E0082819381680F791F072E000C880B990BA9
:101B9E000E94151B20E030E040E05FE30E944324EA
:101BAE0014C0E5E0F2E46681778180859185680F47
:101BBE00791F072E000C880B990B0E94151B20E035
:101BCE0030E040E05FE30E94432420E030E040E458
:101BDE0051E40E943F242B013C0120912B42309175
:101BEE002C4240912D4250912E42C701B6010E94C7
:101BFE004324A50194010E94B8239B01AC01C301AB
:101C0E00B2010E943F2420E030E040E059E40E94FF
:101C1E0043246D837E838F83988720915342309126
:101C2E005442409155425091564269817A818B813E
:101C3E009C810E94B7234B015C0120914F42309151
:101C4E00504240915142509152420E943F24209165
:101C5E004742309148424091494250914A420E9437
:101C6E00B8232B013C01A5019401C501B4010E94CA
:101C7E00432420914B4230914C4240914D42509121
:101C8E004E420E9443249B01AC01C301B2010E944B
:101C9E00B8232B013C016093174270931842809336
:101CAE00194290931A4223E333E948E853E40E9421
:101CBE00B8234B015C01209127423091284240917C
:101CCE00294250912A4260913B4270913C42809150
:101CDE003D4290913E420E94432469837A838B83D6
:101CEE009C838091334290913442A0913542B091C1
:101CFE00364289879A87AB87BC8720E030E048EC74
:101D0E0051E4C301B2010E94B723209137423091B2
:101D1E0038424091394250913A420E9443246D8795
:101D2E007E878F87988BA5019401C501B4010E940F
:101D3E004324A50194010E944324A50194010E940D
:101D4E0043242B013C01C0902342D0902442E090CA
:101D5E002542F090264293E0B0E0A0E0F8ECE1E4FA
:101D6E00998B20E030E048EC51E46B2F7A2F8F2FC7
:101D7E009E2F0E94B72329853A854B855C850E944C
:101D8E00432420E030E040E85FE30E94B8232D8535
:101D9E003E854F8558890E94B82329813A814B810F
:101DAE005C810E9443249B01AC016D817E818F81F9
:101DBE0098850E943F244B015C01A3019201C5014D
:101DCE00B4010E94B8230E9485190E94851923E34D
:101DDE0033E948E853E40E94B723A70196010E9415
:101DEE00B723A989A150A98BB62FA72FF82FE92FBA
:101DFE0029892111B6CFC62ED72EE82EF92EC092E4
:101E0E001B42D0921C42E0921D42F0921E4281E093
:101E1E0001C080E06196CDBFDEBFDF91CF91FF9014
:101E2E00EF90DF90CF90BF90AF909F908F907F906C
:081E3E006F905F904F90089532
:101E46008F929F92AF92BF92CF92DF92EF92FF92C4
:101E56001F93CF93DF9300D0CDB7DEB781E192E435
:101E66000E94C61B182F882309F4DCC080E094E189
:101E76000E94E2206C0182E094E10E94E2205C0173
:101E860084E094E10E94E2204C017601EA24FB24DE
:101E9600E826F9268AE394E10E94E22089839A8360
:101EA60089819A81E816F90609F0B5C08091114238
:101EB60090911242C816D90609F0AFC0809113421C
:101EC60090911442A816B90609F0A9C0809115424E
:101ED600909116428816990609F0A3C086E094E10F
:101EE6000E94581E60935342709354428093554209
:101EF600909356428AE094E10E94581E60934F42A6
:101F06007093504280935142909352428EE094E1F6
:101F16000E94581E60934B4270934C4280934D42F0
:101F260090934E4282E194E10E94581E609347428C
:101F3600709348428093494290934A4286E194E1E5
:101F46000E94581E609343427093444280934542D8
:101F5600909346428AE194E10E94581E60933F4264
:101F66007093404280934142909342428EE194E1C5
:101F76000E94581E60933B4270933C4280933D42C0
:101F860090933E4282E294E10E94581E609337424B
:101F9600709338428093394290933A4286E294E1B4
:101FA6000E94581E609333427093344280933542A8
:101FB600909336428AE294E10E94581E60932F4223
:101FC6007093304280933142909332428EE294E194
:101FD6000E94581E60932B4270932C4280932D4290
:101FE60090932E4282E394E10E94581E609327420A
:101FF600709328428093294290932A4286E394E183
:102006000E94581E60932342709324428093254277
:102016009093264207C010E005C010E003C010E010
:1020260001C010E0812F0F900F90DF91CF911F918B
:10203600FF90EF90DF90CF90BF90AF909F908F90E2
:022046000895FB
:10204800283008F027E03327DA01990F311D87FD82
:10205800916000966105710539F432602E5F3D93F9
:1020680030E32A95E1F708959F3F30F080387105F5
:10207800610509F03C5F3C5F3D93913008F0806852
:10208800911DDF93CF931F930F93FF92EF92192F18
:10209800987F9695E92F96959695E90FFF27EA562A
:1020A800FE4F99273327EE24FF24A701E701059067
:1020B8000894079428F4360FE71EF81E491F511D8F
:1020C800660F771F881F991F0694A1F7059007943C
:1020D80028F4E70EF81E491F561FC11D770F881FE9
:1020E800991F661F0694A1F70590079428F4F80E27
:1020F800491F561FC71FD11D880F991F661F771FBD
:102108000694A1F70590079420F4490F561FC71F9E
:10211800D81F990F661F771F881F0694A9F7849107
:102128001095177041F0D695C79557954795F79430
:10213800E7941A95C1F7ECE3F1E0689415901591CE
:1021480035916591959105907FE27395E118F10AB3
:10215800430B560BC90BD009C0F7E10CF11E431F06
:10216800561FC91FD01D7EF4703311F48A95E6CF2F
:10217800E894015030F0080F0AF40027021708F419
:10218800202F2395022F7A3328F079E37D932A951F
:10219800E9F710C07D932A9589F606949795679577
:1021A800379517951794E118F10A430B560BC90B8D
:1021B800D00998F023957E9173957A3308F070E3EF
:1021C8007C932013B8F77E9170617D9330F08395EE
:1021D80071E37D9370E32A95E1F71124EF90FF9066
:1021E8000F911F91CF91DF91992787FD90950895C1
:1021F800CF93DF93C1E1D2E46881798180E094E1F3
:102208000E9427226A817B8182E094E10E94272232
:102218006C817D8184E094E10E94272240915342A1
:1022280050915442609155427091564286E094E133
:102238000E94CE1E40914F425091504260915142AF
:10224800709152428AE094E10E94CE1E40914B4226
:1022580050914C4260914D4270914E428EE094E113
:102268000E94CE1E40914742509148426091494297
:1022780070914A4282E194E10E94CE1E409143420D
:1022880050914442609145427091464286E194E102
:102298000E94CE1E40913F4250914042609141427F
:1022A800709142428AE194E10E94CE1E40913B42E5
:1022B80050913C4260913D4270913E428EE194E1E2
:1022C8000E94CE1E40913742509138426091394267
:1022D80070913A4282E294E10E94CE1E40913342CC
:1022E80050913442609135427091364286E294E1D1
:1022F8000E94CE1E40912F4250913042609131424F
:10230800709132428AE294E10E94CE1E40912B42A3
:1023180050912C4260912D4270912E428EE294E1B0
:102328000E94CE1E40912742509128426091294236
:1023380070912A4282E394E10E94CE1E409123428A
:1023480050912442609125427091264286E394E19F
:102358000E94CE1E688179818A819B8168277927AE
:102368008C819D81682779278AE394E10E9427223E
:06237800DF91CF910895F2
:10237E00CF93DF93CDB7DEB76597CDBFDEBF80912C
:10238E009342811108C0329B09C081E08093934231
:10239E008093944203C0329B109293428091984254
:1023AE008130E9F038F0833009F446C0843009F406
:1023BE0047C05AC0809199428B3021F482E00E942E
:1023CE00362403C08AE00E943624882321F081E05F
:1023DE008093984265C082E08093984261C00E94CB
:1023EE00B220882309F45CC0CE010E960E945922B9
:1023FE008823E1F0BE016F5F7F4FCE010E960E94E3
:10240E007D17809199428B3049F4809194428111CD
:10241E0005C0CE0101960E94FA120BC0BE016F5F7D
:10242E007F4FCE010E960E94C00703C082E08093BC
:10243E0098421092944234C084E08093984230C007
:10244E000E94DE21882361F080E00E9481141092A8
:10245E00984282EE94E080938B4290938C4220C0FF
:10246E0082E0809398421CC080918B4290918C4266
:10247E00823E944060F06EE376E080E00E94641845
:10248E0081E090E080938B4290938C4209C08091C2
:10249E008B4290918C42019680938B4290938C420A
:0C24AE006596CDBFDEBFDF91CF91089591
:1024BA000F931F93CF93DF9340E054E0FA01108209
:1024CA0020E234E089E0F901808380E494E0FC01B1
:1024DA001082C0E6D4E061E06883A0E8B4E01C9210
:1024EA0000EA14E0F8011082FA011482F901648307
:1024FA00FC0114826C8314961C921497F8011482BE
:10250A00FA01108A118A128A138A148A158A168A7B
:10251A00178AF901108A118A48E8428B138A148AA9
:10252A00158A168A178AFC01108A118A128A138A56
:10253A00148A158A168A178A188A198A1A8A1B8A85
:10254A001C8A1D8A1E8A1F8A50961C925097519681
:10255A001C92519752961C92529753961C925397DB
:10256A0054961C92549755961C92559756961C92BF
:10257A00569757961C92F801108A118A128A138A62
:10258A00148A158A168A178AE0EEF5E011861182F6
:10259A0010821482168217821086658380E18283F4
:1025AA00138212868CE594E280937B4290937C425C
:1025BA008DE594E28093794290937A428EE594E293
:1025CA0080937742909378428FE594E280937542A4
:1025DA009093764280E694E2809373429093744299
:0A25EA00DF91CF911F910F9108952A
:1025F4008F929F92AF92BF92CF92DF92EF92FF920F
:102604000F931F93CF93DF93FC01C184D284E3849F
:10261400F48480906B4290906C42A0906D42B09094
:102624006E42C814D904EA04FB0470F08091674236
:1026340090916842A0916942B0916A428C159D05BF
:10264400AE05BF0508F05EC0C0916742D0916842F4
:102654001091694200916A420E945024FF92EF92C5
:10266400DF92CF92BF92AF929F928F920F931F935C
:10267400DF93CF9323ED32E040E04F933F932F93CA
:102684009F938F930E94061E0E94261D6DEF72E099
:1026940080E00E946418809191422DB73EB72F5E6E
:1026A4003F4F2DBF3EBF863941F40AC0815080930D
:1026B400914288E08093260406C08F5F8093914204
:1026C40088E08093250480918F42843129F0909191
:1026D4009142943699F404C080919142843630F04A
:1026E40065E173E080E00E94641805C061E273E074
:1026F40080E00E94641810928F4209C08F5F80931B
:102704008F4205C0809191428111D0CFD2CFDF9109
:10271400CF911F910F91FF90EF90DF90CF90BF90DA
:08272400AF909F908F90089583
:10272C00CF92DF92EF92FF920F931F93CF93DF9391
:10273C0080919A428230C9F030F4882309F463C046
:10274C00813039F058C0833009F1843009F45BC012
:10275C0052C00E94A923811104C085E080939A4243
:10276C0052C082E080939A424EC00E9491218823ED
:10277C0009F449C00E94BE15811104C085E0809304
:10278C009A4241C083E080939A423DC088E0809396
:10279C0027040E94670D882351F10E947723F62E9F
:1027AC00E72ED82EC92E0E946E23C62FD72F182F96
:1027BC00092F0E945024CF92DF92EF92FF920F9339
:1027CC001F93DF93CF9326E037E040E04F933F9386
:1027DC002F939F938F930E94061E0E94261D10928A
:1027EC009A428DB79EB70D968DBF9EBF0CC085E0EB
:1027FC0080939A4208C06DE377E080E00E946418F1
:10280C0084E080939A42DF91CF911F910F91FF90BA
:08281C00EF90DF90CF900895CA
:1028240010C00E94CC2358F00E94C52340F029F424
:102834005F3F29F00C94122451110C94D4230C946E
:1028440056240E94AB1F68F39923B1F3552391F3E7
:10285400951B550BBB27AA2762177307840738F00B
:102864009F5F5F4F220F331F441FAA1FA9F335D068
:102874000E2E3AF0E0E832D091505040E695001C1C
:10288400CAF72BD0FE2F29D0660F771F881FBB1FD6
:10289400261737074807AB07B0E809F0BB0B802DB4
:1028A400BF01FF2793585F4F3AF09E3F510578F0E0
:1028B4000C9412240C94D4235F3FE4F3983ED4F395
:1028C400869577956795B795F7959F5FC9F7880FB4
:1028D400911D9695879597F90895E1E0660F771F06
:1028E400881FBB1F621773078407BA0720F0621B97
:0E28F400730B840BBA0BEE1F88F7E095089566
:102902001F93CF93DF931F92CDB7DEB7182F10928C
:102912009942BE016F5F7F4F8BE00E94CB218823DB
:1029220009F450C08EE394E10E94472411114CC077
:10293200998189134BC08FE394E10E94581E6093E2
:102942006B4270936C4280936D4290936E4283E42B
:1029520094E10E94581E609367427093684280938C
:10296200694290936A4287E494E10E94E220809354
:10297200894290938A4289E494E10E94E220809302
:102982008742909388428BE494E10E94E2208093F4
:102992008542909386428DE494E10E94472480937D
:1029A20097428EE494E10E944724809396428FE4FA
:1029B20094E10E944724809395428BE08093994250
:1029C20081E005C080E003C080E001C080E00F909C
:0829D200DF91CF911F910895E0
:1029DA000FC00E94C52338F00E94CC2320F0952313
:1029EA0011F00C9412240C94562411240C94D42320
:1029FA000E94AB1F70F3959FC1F3950F50E0551FCE
:102A0A00629FF001729FBB27F00DB11D639FAA2739
:102A1A00F00DB11DAA1F649F6627B00DA11D661F88
:102A2A00829F2227B00DA11D621F739FB00DA11DA9
:102A3A00621F839FA00D611D221F749F3327A00D63
:102A4A00611D231F849F600D211D822F762F6A2FFF
:102A5A0011249F5750409AF0F1F088234AF0EE0F64
:102A6A00FF1FBB1F661F771F881F91505040A9F791
:102A7A009E3F510580F00C9412240C94D4235F3F9E
:102A8A00E4F3983ED4F3869577956795B795F795CD
:102A9A00E7959F5FC1F7FE2B880F911D9695879545
:042AAA0097F90895FB
:102AAE0011C00E94C52338F00E94CC2320F039F4C7
:102ABE009F3F19F426F40C9456240EF4E095E7FB90
:102ACE000C941224E92F0E94AB1F58F3BA17620719
:102ADE0073078407950720F079F4A6F50C94D32399
:102AEE000EF4E0950B2EBA2FA02D0B01B90190011B
:102AFE000C01CA01A0011124FF27591B99F0593F5F
:102B0E0050F4503E68F11A16F040A22F232F342FA6
:102B1E004427585FF3CF469537952795A795F040F4
:102B2E005395C9F77EF41F16BA0B620B730B840B09
:102B3E00BAF09150A1F0FF0FBB1F661F771F881FC1
:102B4E00C2F70EC0BA0F621F731F841F48F4879519
:102B5E0077956795B795F7959E3F08F0B0CF93950B
:0E2B6E00880F08F09927EE0F97958795089528
:102B7C00CF93DF93CDB7DEB72E97CDBFDEBF42E04C
:102B8C00BE016F5F7F4F8FEF9FE30E94E722882388
:102B9C0009F447C08A818C7790E095958795959537
:102BAC00879580938D424CE0BE016D5F7F4F83E033
:102BBC0090E40E94E7228823B1F1E5E0F2E48B81F6
:102BCC0090E0982F88272C81822B808391838D8194
:102BDC0090E0982F88272E81822B828393838F817C
:102BEC0090E0982F88272885822B8483958389856C
:102BFC0090E0982F88272A85822B868397838B8554
:102C0C0090E0982F88272C85822B808791878D8543
:102C1C0090E0982F88272E85822B8287938781E0DE
:102C2C0003C080E001C080E02E96CDBFDEBFDF91F7
:042C3C00CF91089597
:102C4000FA01AA27283051F1203181F1E8946F93DD
:102C50006E7F6E5F7F4F8F4F9F4FAF4FB1E03ED083
:102C6000B4E03CD0670F781F891F9A1FA11D680F21
:102C7000791F8A1F911DA11D6A0F711D811D911D54
:102C8000A11D20D009F468943F912AE0269F1124C9
:102C90003019305D3193DEF6CF010895462F47702D
:102CA000405D4193B3E00FD0C9F7F6CF462F4F7088
:102CB000405D4A3318F0495D31FD4052419302D0E6
:102CC000A9F7EACFB4E0A69597958795779567958C
:102CD000BA95C9F700976105710508959B01AC018C
:102CE0000A2E06945795479537952795BA95C9F7B3
:0C2CF000620F731F841F951FA01D089524
:102CFC00E0E0F2E0108A118A128A138A148A158A8B
:102D0C00168A178A108E118E81E08083118214A688
:102D1C0010A211A212A213A214A215A216A217A2FB
:102D2C0010A611A612A613A615A616A617A610AACB
:102D3C0011AA12AA10924B0210924D0210924C0240
:102D4C0010924A0210924F021092510210925002AD
:102D5C0010924E021092530210925502109254028D
:102D6C001092520212AE13AE14AE15AE86AF17AE61
:102D7C0010924002109241021092420210924302B1
:102D8C00109244021092450210924802109249028D
:0E2D9C0014AA15AA16AA17AA10AE80E0089570
:102DAA00CF9362E972E48BE00E94CB21C82F88237B
:102DBA0009F448C040916B4250916C4260916D4257
:102DCA0070916E428FE394E10E94CE1E4091674259
:102DDA00509168426091694270916A4283E494E139
:102DEA000E94CE1E6091894270918A4287E494E1E2
:102DFA000E942722609187427091884289E494E177
:102E0A000E94272260918542709186428BE494E168
:102E1A000E942722609197428DE494E10E94262124
:102E2A00609196428EE494E10E9426216091954237
:102E3A008FE494E10E942621609192428EE394E10C
:0A2E4A000E9426218C2FCF910895DD
:102E54006F927F928F92CF92DF92EF92CF93DF9314
:102E64003B01882EFB01582D0E94E1236623D1F1FA
:102E7400D42FE0E4F8E0848180648483F301582D46
:102E84000E94E12361111BC01EC00E94F423882309
:102E9400E1F3F6015E2D0E94E123862F0E94772242
:102EA400CF5FE82C6301CC0ED11CE11CF6015E2D32
:102EB4000E94E123662339F0CF3F39F704C0E82CA0
:102EC4006301C0E0E2CF0E94F4238823E1F38D2F55
:102ED4000E9477220E94F4238823E1F30E94FA23BC
:102EE4008111FCCFDF91CF91EF90DF90CF908F9045
:062EF4007F906F9008952D
:102EFA00DC01FB0111966D917C91129780918942B8
:102F0A0090918A42681B790B0090974202C075958E
:102F1A0067950A94E2F7608313962D913C91149772
:102F2A008091874290918842281B390B00909642E3
:102F3A0002C0359527950A94E2F7218315964D919B
:102F4A005C9116978091854290918642481B590B55
:102F5A000090954202C0559547950A94E2F742833C
:102F6A002202C00111246602800D911D112444021F
:102F7A00800D911D1124A0E0B0E081879287A3877C
:102F8A00B4871382148215821682178210860895D6
:102F9A00AF92BF92CF92DF92EF92FF920F931F935D
:102FAA00CF93DF936B01E82EF22EB32EA42EE22FDD
:102FBA00F32F542F0E94E123662359F1822F932F76
:102FCA00A42FC0E0D0E00196A11D9C014A2F2150F8
:102FDA0031094109F901542F0E94E123662381F046
:102FEA002196F1CF8E012F2D3B2D4A2D8E2DB60124
:102FFA000E94FE1B892B69F08FEFC81AD80AE80ACB
:10300A00F6015E2D0E94E1236111ECCF70E080E0B1
:10301A0002C0B6018E2DDF91CF911F910F91FF90C3
:0C302A00EF90DF90CF90BF90AF90089522
:1030360040E068ED80E690E00E94222440E068EDE2
:1030460081E690E00E94222440E068ED85E690E06B
:103056000E94222440E068ED88E790E00E94222446
:103066004CE068ED88E690E00E94222440E068ED9E
:1030760089E690E00E94222440E068ED80E790E037
:103086000E94222440E068ED8CE790E00E94222412
:1030960040E068ED82E690E00E94222440E068ED80
:1030A60083E690E00E94222440E068ED84E690E00A
:1030B6000E94222440E068ED80E890E00E942224ED
:0230C60008956B
:1030C8006F927F928F92CF92DF92EF92CF933B01D4
:1030D800882EFB01582D0E94E123662391F1E0E63A
:1030E800F8E0848180648483F301582D0E94E123F1
:1030F80061111BC01EC00E9406248823E1F3F6015B
:103108005E2D0E94E123862F0E944A24CF5FE82C7F
:103118006301CC0ED11CE11CF6015E2D0E94E12357
:10312800662339F0CF3F39F704C0E82C6301C0E0CB
:10313800E2CF0E9406248823E1F30E9491238111A3
:10314800FCCFCF91EF90DF90CF908F907F906F90D2
:023158000895D8
:10315A006F927F928F92CF92DF92EF92CF933B0141
:10316A00882EFB01582D0E94E123662391F1E0E4A9
:10317A00F8E0848180648483F301582D0E94E1235E
:10318A0061111BC01EC00E94F4238823E1F3F601DB
:10319A005E2D0E94E123862F0E947722CF5FE82CC2
:1031AA006301CC0ED11CE11CF6015E2D0E94E123C5
:1031BA00662339F0CF3F39F704C0E82C6301C0E039
:1031CA00E2CF0E94F4238823E1F30E94FA238111BB
:1031DA00FCCFCF91EF90DF90CF908F907F906F9040
:0231EA00089546
:1031EC00EF92FF920F931F93CF93DF931F92CDB764
:1031FC00DEB769838A01E22E60E00E941A1FF82E66
:10320C00882369F161E0CE0101960E94801EF82EA0
:10321C00811104C083E08093040921C0E0E0F9E04F
:10322C0087818160878381E08483858185FD0AC0E5
:10323C00858182FD07C0858183FD04C085818370F3
:10324C00833099F70E948522882329F083E08093AC
:10325C000409F12C04C06E2DC8010E94B01D8F2DE5
:10326C000F90DF91CF911F910F91FF90EF900895E8
:10327C000E94B02310929E4220919B42822F90E09C
:10328C00FC01EA5FFF4B30813D3071F130919F4280
:10329C00231751F1E2E0F0E4718150812F5F03C0FC
:1032AC00262F752F542FFC01EA5FFF4B4081822F94
:1032BC0090E0FC01EA5FFF4B30813D3041F4E2E0ED
:1032CC00F0E451837283408320939B420DC0309174
:1032DC009F4261E0620F3213E3CFE2E0F0E45183EE
:1032EC007283408320939B42FC01EA5FFF4B208159
:0E32FC002D3021F4FC01EA5FFF4B1082089593
:10330A0006C019F416F40C9456240C9403230E9454
:10331A00B31FB8F39923C9F3B6F39F57550B87FF29
:10332A000E94DA230024A0E640EA900180585695CC
:10333A00979528F4805C660F771F881F20F0261760
:10334A003707480730F4621B730B840B2029312995
:10335A004A2BA69517940794202531254A2758F712
:10336A00660F771F881F20F026173707480730F4A3
:10337A00620B730B840B200D311D411DA09581F743
:0E338A00B901842F9158880F96958795089564
:10339800DF92EF92FF920F931F93CF93DF937B01FE
:1033A800D42EE90160E00E943F1F182F882361F1A5
:1033B8006D2DC7010E94A71E182F811104C083E03C
:1033C8008093240921C0E0E2F9E087818160878346
:1033D80081E08483858185FD0AC0858182FD07C0DF
:1033E800858183FD04C085818370833099F70E94AD
:1033F8009322882329F083E08093240910E004C0F5
:10340800602FCE010E94DB1D812FDF91CF911F918C
:0A3418000F91FF90EF90DF900895F0
:103422001F920F920FB60F9211240BB60F922F9389
:103432003F934F935F936F937F938F939F93AF933A
:10344200BF93EF93FF93399B05C0E0917B42F091CC
:103452007C420995389B05C0E0917942F0917A420D
:1034620009953A9B05C0E0917742F091784209951F
:103472003B9B05C0E0917542F091764209958FEF32
:1034820087B9FF91EF91BF91AF919F918F917F91FA
:103492006F915F914F913F912F910F900BBE0F90C3
:0834A2000FBE0F901F9018955A
:1034AA00CF93C82F6AE676E080E00E946418CC23A6
:1034BA0029F081E00E943C21C82F04C080E00E94CC
:1034CA003C21C82F0E944D24882361F066E976E0EA
:1034DA0080E00E9464188CE394E10E94E2200E943A
:1034EA005A230CC060EC76E080E00E9464180E94C7
:1034FA002C24BC018CE394E10E942722CC2331F0D6
:10350A0068EF76E080E00E94641808C06DEF76E00C
:10351A0080E00E94641885E080939A42CF910895D2
:10352A001F920F920FB60F9211240BB60F922F9380
:10353A003F934F935F936F937F938F939F93AF9331
:10354A00BF93EF93FF938091430180FF07C0E091FF
:10355A008142F0918242309709F0099580914301A6
:10356A0081FF07C0E0917F42F0918042309709F0D5
:10357A00099583E080934301FF91EF91BF91AF9149
:10358A009F918F917F916F915F914F913F912F9171
:0E359A000F900BBE0F900FBE0F901F90189554
:1035A800CF92DF92EF920F931F93CF93DC019A0192
:1035B800462F60E070E00F2EC12CFBE0DF2EF02DCF
:1035C80000E012E081E0C0919E42CC2399F06901AD
:1035D800E42E0E943E1962E070E480E84E2D9601C8
:1035E8000E94CD17672B682B11F0000010C0000057
:1035F800C0E00DC0F601978190FD06C000000000F4
:10360800F80180836F5F7F4F6A177B07E0F28C2F8A
:0E361800CF911F910F91EF90DF90CF9008950A
:10362600E89409C097FB3EF4909580957095619556
:103636007F4F8F4F9F4F9923A9F0F92F96E9BB270C
:103646009395F695879577956795B795F111F8CF88
:10365600FAF4BB0F11F460FF1BC06F5F7F4F8F4FF3
:103666009F4F16C0882311F096E911C0772321F0E9
:103676009EE8872F762F05C0662371F096E8862F81
:1036860070E060E02AF09A95660F771F881FDAF7D8
:0A369600880F9695879597F908951F
:1036A0000F931F93CF93DF93FB01248121FD03C070
:1036B0008FEF9FEF2CC022FF16C0478150852581D8
:1036C00036814217530744F4A081B1819D012F5FD9
:1036D0003F4F208331838C93278130852F5F3F4F6D
:1036E0002783308714C08B01EC01FB010184F28534
:1036F000E02D0995892BE1F6D80117968D919C91C3
:103700001897019617968D939C931897CE01DF9189
:08371000CF911F910F91089564
:103718000E9499200E9411230E9416220E941E23B3
:103728000E9489230E9404220E94522184EF9EE174
:103738000E9418240E94EE230E94E8238FEF8093B2
:103748004000E0E6F8E081E08387838788E692E23C
:103758000E9427248FE790E20E941D24C6B1C2FB75
:10376800CC27C0F98C2F0E94301E8C2F0E94551A2E
:1037780078940E94841DA8950E94BF110E949613F8
:043788008895F9CF58
:10378C000F931F93CF93DF93CDB7DEB72697CDBFA3
:10379C00DEBF8C0146E0BE016F5F7F4F85E094E297
:1037AC000E94E7228823D9F0898190E0982F8827FE
:1037BC002A81822BF801808391838B8190E0982F52
:1037CC0088272C81822B828393838D8190E0982F84
:1037DC0088272E81822B8483958381E001C080E031
:1037EC002696CDBFDEBFDF91CF911F910F9108952B
:1037FC00CF92DF92EF920F931F936B01E82E01157E
:10380C00110521F101501109F6015E2D0E94E123F1
:10381C00862F662399F0F901542F0E94E123662329
:10382C0069F00115110551F0861308C08FEFC81A05
:10383C00D80AE80A2F5F3F4F4F4FE4CF90E0F901D1
:10384C00542F0E94E123861B910902C080E090E076
:0C385C001F910F91EF90DF90CF90089526
:10386800CF92DF92EF92CF936B01E82EC42FA895E9
:1038780064E777E080E00E9464188E2DB6010E940C
:10388800641869E877E080E00E9464184DE08E2DA6
:10389800B6010E942A1740E757E060E08C2F90E0BD
:1038A8000E94D41A882331F06EE877E080E00E9405
:1038B800641805C063E977E080E00E946418CF913E
:0838C800EF90DF90CF9008950E
:1038D0001F920F920FB60F9211240BB60F922F93D7
:1038E0003F934F935F936F937F938F939F93AF9388
:1038F000BF93EF93FF93E0916F42F0917042309746
:1039000009F0099581E08093C100FF91EF91BF918B
:10391000AF919F918F917F916F915F914F913F9167
:103920002F910F900BBE0F900FBE0F901F90189508
:103930001F920F920FB60F9211240BB60F922F9376
:103940003F934F935F936F937F938F939F93AF9327
:10395000BF93EF93FF93E0917D42F0917E423097C9
:1039600009F0099581E080935301FF91EF91BF9198
:10397000AF919F918F917F916F915F914F913F9107
:103980002F910F900BBE0F900FBE0F901F901895A8
:103990001F920F920FB60F9211240BB60F922F9316
:1039A0003F934F935F936F937F938F939F93AF93C7
:1039B000BF93EF93FF9380914008E0910040F09116
:1039C0000140309709F00995FF91EF91BF91AF91B8
:1039D0009F918F917F916F915F914F913F912F9127
:0E39E0000F900BBE0F900FBE0F901F9018950A
:1039EE001F920F920FB60F9211240BB60F922F93B8
:1039FE003F934F935F936F937F938F939F93AF9369
:103A0E00BF93EF93FF93789B05C0E0917342F091C3
:103A1E00744209958FEF8FB9FF91EF91BF91AF91DE
:103A2E009F918F917F916F915F914F913F912F91C8
:0E3A3E000F900BBE0F900FBE0F901F901895AB
:103A4C001F93CF93DF9380910641882321F1E0E609
:103A5C00F8E0848180648483C0E0D0E010E00E94B0
:103A6C0006248823E1F3CA5FDE4B88810E944A2436
:103A7C001F5FC12FD0E0FE01EA5FFE4B80818823DF
:103A8C0011F01F3F61F70E9406248823E1F30E9486
:0E3A9C0091238111FCCFDF91CF911F910895EE
:103AAA000E94B31F88F09F5798F0B92F9927B751F2
:103ABA00B0F0E1F0660F771F881F991F1AF0BA95C8
:103ACA00C9F714C0B13091F00E94D323B1E0089530
:103ADA000C94D323672F782F8827B85F39F0B93F22
:103AEA00CCF3869577956795B395D9F73EF490957B
:0E3AFA008095709561957F4F8F4F9F4F089577
:103B08006CE977E080E00E9464180E94532465EB1A
:103B180077E080E00E9464180E94F522811108C0B5
:103B280063E977E080E00E9464180E9443230895C7
:103B38006EE877E080E00E9464184FEF6EEC77E063
:103B480080E00E94341C4AE06CED77E080E00E943F
:083B5800341C0E944323089570
:103B600020E2209305096623D1F0A82FB92F90E019
:103B7000E0E0F9E022E0858185FD17C0858182FDC6
:103B800007C0858183FD04C085818370833099F7E8
:103B900080858D939F5F691711F02483ECCF87E0B8
:103BA0008093040908952483E6CF80858D939F5FD9
:063BB0006913F9CFF4CF08
:103BB60020E2209325096623D1F0A82FB92F90E0A3
:103BC600E0E2F9E022E0858185FD17C0858182FD6E
:103BD60007C0858183FD04C085818370833099F792
:103BE60080858D939F5F691711F02483ECCF87E062
:103BF6008093240908952483E6CF80858D939F5F63
:063C06006913F9CFF4CFB1
:103C0C000F931F93CF93DF93CDB7DEB72F97CDBF15
:103C1C00DEBF0E891F8986E08D8309831A838FEF9F
:103C2C009FE78E839F839E01255E3F4F488D598D64
:103C3C006A8DCE0101960E94F603E885F985E00FA6
:103C4C00F11F10822F96CDBFDEBFDF91CF911F9158
:043C5C000F91089527
:103C6000CF93C82F6EE872E080E00E9464180E9433
:103C7000DE21811109C06BEB72E080E00E946418C4
:103C800082E08093984212C08C2F0E94811481118F
:103C900008C064EC72E080E00E94641810929942BF
:103CA00005C06EEC72E080E00E946418CF91089528
:103CB000CF92DF92EF92FF920F931F93CF93DF93F8
:103CC000EC018C010C5F1F4F60E070E0CB01CC2455
:103CD000D62EE72EF82ECE010E944724A70196018A
:103CE000282BCA01B90121960C171D0781F7DF9116
:103CF000CF911F910F91FF90EF90DF90CF9008959B
:103D0000662309F1DC016150262F30E02F5F3F4F21
:103D1000280F391FE0E0F9E09D919087958195FD8E
:103D20000AC0958192FD07C0958193FD04C09581DD
:103D30009370933099F7958194FD07C0A217B3074C
:0E3D400059F781E0089581E0089580E008952C
:103D4E00662309F1DC016150262F30E02F5F3F4FD3
:103D5E00280F391FE0E2F9E09D919087958195FD3E
:103D6E000AC0958192FD07C0958193FD04C095818F
:103D7E009370933099F7958194FD07C0A217B307FE
:0E3D8E0059F781E0089581E0089580E00895DE
:103D9C00CF92DF92EF92FF92CF93DF93EC016A0107
:103DAC007B016F2D772788279927CE010E9426212A
:103DBC006E2DCE0101960E9426216D2DCE0102960C
:103DCC000E9426216C2DCE0103960E942621DF91A4
:0C3DDC00CF91FF90EF90DF90CF90089502
:103DE80090919D42992329F08532F9F410929D42D1
:103DF8000895853221F481E080939D4208958D30A5
:103E080021F491E090939E4205C08E3319F491E01D
:103E180090939C42E0919F42F0E0EA5FFF4B8083E1
:0C3E280080919F428F5F80939F4208951D
:103E34009091050993709330E1F0880F682B60939B
:103E44000709E0E0F9E0858185FD0AC0858182FDEE
:103E540007C0858183FD04C085818370833099F711
:103E64000E948522882339F083E08093040980E04E
:0A3E7400089580E0089581E00895AC
:103E7E009091250993709330E1F0880F682B609331
:103E8E002709E0E2F9E0858185FD0AC0858182FD82
:103E9E0007C0858183FD04C085818370833099F7C7
:103EAE000E949322882339F083E08093240980E0D6
:0A3EBE00089580E0089581E0089562
:103EC8000E94B31FE8F09E37E8F09639B8F49E38A0
:103ED80048F4672F782F8827985FF9CF86957795CC
:103EE800679593959539D0F3B62FB1706B0F711D07
:103EF800811D20F487957795679593950C94642098
:083F08000C9403230C94D42354
:103F10000F93CF93DF93EB01EFE1F2E49083818382
:103F200002E021E232E442E0BF018AE30E94CC19C0
:103F3000882361F0EFE1F2E4828190E0982F8827F6
:103F40002381822B8883998381E001C080E0DF9107
:063F5000CF910F910895CE
:103F560057FD9058440F551F59F05F3F71F0479534
:103F6600880F97FB991F61F09F3F79F08795089519
:103F7600121613061406551FF2CF4695F1DF08C038
:103F8600161617061806991FF1CF86957105610555
:043F960008940895EE
:103F9A00A1E21A2EAA1BBB1BFD010DC0AA1FBB1F43
:103FAA00EE1FFF1FA217B307E407F50720F0A21BB5
:103FBA00B30BE40BF50B661F771F881F991F1A9422
:103FCA0069F760957095809590959B01AC01BD014C
:043FDA00CF01089576
:103FDE00E0E4F1E081818111FDCFE0E4F1E08FEFCB
:103FEE0090E084879587108611868FEF9EE08287FA
:103FFE009387178281E0828389EB80838189811187
:10400E00FDCFE0E4F1E081E0828B81E3808B80E004
:02401E00089503
:104020000F931F93CF93DF9300D0CDB7DEB7082F48
:10403000162F0E943B24882349F009831A8342E00B
:10404000BE016F5F7F4F8CE00E9467210F900F9041
:0A405000DF91CF911F910F910895A9
:10405A00CF92DF92EF926B01E82E9A01A82FCB0143
:10406A002115310531F48C199D09EF90DF90CF901D
:10407A000895FC015A2F0E94E1236623A1F30196B9
:08408A00A11D21503109ECCF0A
:10409200AC0120E030E0E0E0FBE0A0E0B2E061E073
:1040A20080919C42882319F010929C420895978136
:1040B20090FD05C0000000006C932F5F3F4F241756
:0640C200350770F30895BC
:1040C800882371F4772321F09850872B762F07C027
:1040D800662311F499270DC09051862B70E060E09B
:1040E8002AF09A95660F771F881FDAF7880F96953A
:0640F800879597F9089579
:1040FE000E943B24882341F080919842823021F423
:10410E0083E08093984208950E943B24811109C058
:10411E0082E08093984282EE94E080938B4290935B
:04412E008C42089522
:104132000E945D120E941B180E947E160E94652337
:104142000E944F230E94EF1F0E94D9220E94B82191
:104152000E9449220E9499230E9400240E942B233C
:024162000895BE
:10416400CF93DF931F92CDB7DEB70E943B24882301
:1041740059F01982BE016F5F7F4F8CE00E94A52128
:10418400882311F0898181700F90DF91CF91089578
:104194000E94B02380E090E0FC01EA5FFF4B1082B4
:1041A4000196811521E09207B9F710929F4210926F
:1041B4009B4210929E4210929D4210929C420895FE
:1041C4000F931F93CF93DF938C010E944724C82F32
:1041D400D0E0DC2FCC27C80101960E9447249E0121
:0E41E400282BC901DF91CF911F910F910895F3
:1041F200052E97FB1EF400940E94A12357FD07D0C1
:104202000E94CD1F07FC03D04EF40C94A1235095BD
:0E4212004095309521953F4F4F4F5F4F0895D7
:104220000F931F93CF93DF938B01D42F61E00E94F4
:104230001A1FC82F882321F06D2FC8010E94B01DBE
:0C4240008C2FDF91CF911F910F910895FA
:10424C001F93CF93DF93EC01162F43E16DE980E0D0
:10425C0090E10E942224188340E06DE980E090E117
:0C426C000E942224DF91CF911F91089541
:10427800CF93811105C00E94230FC82F811108C058
:104288000E942D0BC82F882331F00E94FC1003C018
:0C42980081E080938E428C2FCF9108951E
:1042A400A0EAB4E090E115969C931597E0EEF5E052
:1042B40082818F7C828382818061828311969C9328
:0A42C400119780E212968C93089582
:1042CE001F93CF93DF93EB01142F60E00E941A1F10
:1042DE00882339F0612FCE010E94801E93E09093C7
:0A42EE000409DF91CF911F9108959C
:1042F8001F93CF93DF93EB01142F60E00E943F1FC1
:10430800882339F0612FCE010E94A71E93E0909375
:0A4318002409DF91CF911F91089551
:10432200CF93DF9300D0CDB7DEB7CE0101960E94C6
:104332000C24882319F08981817001C080E00F90DC
:084342000F90DF91CF91089567
:10434A000F931F93CF938B0161E00E941A1FC82F0E
:10435A00882321F061E0C8010E94B01D8C2FCF9103
:06436A001F910F91089560
:10437000E0E0FBE080EA9FE0848795871286138661
:1043800086E0818381E0808791E1948315821682A3
:06439000118680830895F0
:104396000F931F93CF93C82F8B010E943B24882332
:1043A60031F021E0A8016C2F8CE00E94F618CF9125
:0643B6001F910F91089514
:1043BC000E943124882359F065EB85E10E9410207E
:1043CC00882339F06DE284E10E941020089580E08A
:0643DC00089580E0089541
:1043E20099231CF49195819591099C01803891053E
:1043F20044F081E0359527958F5F20383105D4F759
:06440200089581E0089519
:104408001092004010920140E0E4F8E081E08387D8
:1044180080E8858383E087838BE890E080879187B5
:04442800168208955B
:10442C00A0E4B4E09CE011969C931197E0EEF5E0CB
:10443C0085818C7F85838581826085831C969C9386
:02444C000895D1
:10444E001F93CF93DF93EC01162F672F0E94262127
:10445E00612FCE0101960E942621DF91CF911F91EF
:02446E000895AF
:10447000092E0394000C11F4882352F0BB0F40F472
:10448000BF2B11F460FF04C06F5F7F4F8F4F9F4FB2
:0244900008958D
:10449200E0E6F8E08BE890E080879187158280EC77
:1044A200868383E08783138614861686158608958D
:1044B200CF93DF93EC010E943B24882329F048E04C
:0E44C200BE018CE00E941021DF91CF91089581
:1044D00080919A42811103C081E080939A42809139
:0E44E0009A42843019F485E080939A42089540
:1044EE00CF93C82F0E94F423882331F0E0E4F8E044
:0C44FE00948190649483C283CF91089550
:10450A00809105098C7141F490910509937081E0BD
:0C451A00933019F080E0089581E00895CE
:10452600809125098C7141F490912509937081E061
:0C453600933019F080E0089581E00895B2
:104542001F920F920FB60F9211248F938FEF83B9A0
:0C4552008F910F900FBE0F901F901895D6
:10455E001F920F920FB60F9211248F938FEF8BB97C
:0C456E008F910F900FBE0F901F901895BA
:10457A001F920F920FB60F9211248F938FEF83BB66
:0C458A008F910F900FBE0F901F9018959E
:104596001F920F920FB60F9211248F938FEF87BB46
:0C45A6008F910F900FBE0F901F90189582
:1045B20043E068ED80E590E00E94222440E068ED4F
:0C45C20081E590E00E94222480E0089532
:1045CE000F939B01EFE1F2E490838183042F42E08D
:0C45DE00BF018AE30E94CC190F910895E0
:1045EA00A89581E08093660468E677E080E00E94FF
:0C45FA00AD1884E690E00E94492008956E
:104606009F3F31F0915020F4879577956795B79540
:0C461600880F911D9695879597F90895DF
:10462200E0E0F9E084E08083118281E082839DEF03
:0A46320095839FE09683838308952B
:10463C00E0E2F9E084E08083118281E082839DEFE7
:0A464C0095839FE096838383089511
:1046560040E068ED80E191E00E942224E0E1F1E093
:084666001282138280E0089526
:10466E00EFE1F2E4908381837283638344E0BF01C0
:08467E008AE30E947C210895EB
:104686004DE06CE677E080E00E942A170E94CA207F
:0846960081E0809365040895A2
:10469E00E0E0F0E111828BE594E280937142909319
:0646AE0072421382089520
:1046B4009C01E0E4F1E0918192FDFDCF20934A0159
:0646C40030934B01089544
:1046CA0081E08093C00010926F421092704280E0A5
:0246DA00089541
:1046DC0060911742709118428091194290911A4240
:0246EC0008952F
:1046EE0060911B4270911C4280911D4290911E421E
:0246FE0008951D
:10470000EE0FFF1F0024001C0BBE0790F691E02D5A
:0247100009940A
:10471200E0EAF4E08CE0818398E09387848708954F
:104722008091640886FB882780F991E089270895A3
:10473200E0EBF0E01482108281E0828380E0089551
:1047420090958095709561957F4F8F4F9F4F0895FB
:0E47520062E078E081E090E30E943723089552
:0E476000E2E0F0E413821282118210820895CA
:0E476E005058BB27AA270E9457150C943822DA
:0E477C000E94551D6894B1110C94D423089529
:0E478A0000240A94161617061806090608954C
:0E47980000240A94121613061406050608954E
:0E47A600E894BB2766277727CB0197F9089583
:0E47B40091505040660F771F881FD2F708956E
:0E47C20057FD03C05BBF6791089560810895A5
:0C47D000E0E4F8E08681806486830895B0
:0C47DC00E0E4F8E08681806886830895A0
:0C47E8008091440885FB882780F9089523
:0C47F4008091440886FB882780F9089516
:0C480000E0E0F1E01082118280E00895F9
:0C480C008091640885FB882780F90895DE
:0C481800BC018FEF9FE30E94881F0895F1
:0C48240097F99F6780E870E060E008955D
:0A483000809300409093014008952A
:0A483A0080936F429093704208953E
:0A4844001BBEFC0164BF4083089511
:0A484E008093814290938242089506
:0A48580080914A0190914B010895F0
:0A48620066E081E10E941020089535
:0A486C00682F80E10E9410200895DB
:084876008091C20081700895D9
:08487E000E9412140C94382270
:084886000E94ED140C9438228D
:06488E00FC018081089589
:0648940080936208089504
:06489A0080918E4208959A
:0648A00086E091E408959A
:0648A6000E94CA200895E3
:0648AC009FEF80EC08956F
:0448B2000C94000062
:0248B600089563
:0248B800089561
:0248BA0008955F
:0248BC0008955D
:0248BE0008955B
:0248C000089559
:0448C2000000C841E9
:0448C6000000C841E5
:0248CA00E20406
:0148CC0001EA
:0148CD0001E9
:02000004008278
:090000000000000000C00D00002A
:00000001FF
