:100000000C9417010C94861E0C94861E0C94861E6C
:100010000C9418180C9429150C9448180C94861EEE
:100020000C941D1D0C94861E0C94861E0C94861E2A
:100030000C94861E0C94861E0C94861E0C94861EB0
:100040000C94861E0C94861E0C94861E0C94861EA0
:100050000C94861E0C94861E0C94861E0C94861E90
:100060000C94A6150C94861E0C94861E0C94861E69
:100070000C94861E0C94861E0C9478170C94861E85
:100080000C94861E0C94861E0C94861E0C94AE173F
:100090000C94861E0C94861E0C94861E0C94861E50
:1000A0000C94861E0C94861E0C94861E0C94861E40
:1000B0000C94861E0C94A5140C942B1D0C94861E77
:1000C0000C94861E0C94861E0C94861E0C94861E20
:1000D0000C94861E0C94861E0C94861E0C94861E10
:1000E0000C94861E0C94861E0C94861E0C94861E00
:1000F0000C94861EB111B611BB11C011C511CA11E5
:10010000CF11D411D91154073D084C085609D5090F
:10011000750784072E0A40004199804199419B0050
:100120003D2C419B41A28041A241A5003D2E41A50D
:1001300041A8800000407A10F35A00A0724E1809BE
:100140000010A5D4E80000E87648170000E40B543E
:10015000020000CA9A3B000000E1F505000080960D
:100160009800000040420F000000A086010000003F
:10017000102700000000E8030000000064000000F9
:1001800000000A00000000000100000000002C76C2
:10019000D888DC674F0823DFC1DFAE59E1B1B796DD
:1001A000E5E3E453C63AE651997696E8E6C284263A
:1001B000EB898C9B62ED407C6FFCEFBC9C9F40F216
:1001C000BAA56FA5F490055A2AF75C936B6CF96792
:1001D0006DC11BFCE0E40D47FEF520E6B500D0ED57
:1001E000902E0300943577050080841E08000020BF
:1001F0004E0A000000C80C333333330F986E12835D
:100200001141EF8D2114893BE65516CFFEE6DB1830
:10021000D1844B381BF77C1D901DA4BBE4242032F5
:1002200084725E228100C9F124ECA1E53D271124EE
:100230001FBECFEFCDBFDFE7DEBFE6E1F1E041E07B
:1002400019C0B791A79137912791079107FD0EC06B
:1002500097918791EF01F92FE82F0BBF07900D922F
:10026000A217B307D9F7FE011BBE04C01D92A21747
:10027000B307E1F7E333F40721F70E94E0190C9488
:060280004101F894FFCFDC
:10028600496E697469616C697A696E67204D4C586C
:100296003930333932204D61676E65746F6D657420
:1002A60065722053656E736F722E2E2E004641497D
:1002B6004C45440D0A004F4B0D0A004F70656E20E9
:1002C6007468652077696E646F7720616E6420704C
:1002D600726573732074686520627574746F6E201E
:1002E600746F2073746172742E0D0A00426567691B
:1002F6006E6E696E67204F70656E2057696E646F0B
:10030600772043616C6962726174696F6E2E0D0AA3
:10031600005A65726F696E6720436F6D706C657405
:10032600652E20585F6F6666203D2025642C205977
:100336005F6F6666203D2025642C205A5F6F6666D7
:100346003D25640D0A00506C6561736520636C6F12
:100356007365207468652077696E646F7720616EB7
:1003660064207468652070726573732074686520F4
:10037600627574746F6E20746F20636F6E74696E2D
:1003860075652E0D0A00426567696E6E696E672097
:10039600436C6F7365642057696E646F77204361A1
:1003A6006C6962726174696F6E2E0D0A0053636127
:1003B6006C696E6720436F6D706C657465642E2082
:1003C600585F7363616C6520203D20325E25642C86
:1003D60020595F7363616C65203D20325E25642C75
:1003E600205A5F7363616C65203D20325E25640D83
:1003F6000A00506C6561736520637261636B2074DB
:1004060068652077696E646F7720746F20736574F2
:100416002074686520616C61726D20746872657302
:10042600686F6C642C207468656E207072657373D7
:100436002074686520627574746F6E2E0D0A004113
:100446006C6C6F77656420416E676C65733A202526
:1004560064203C205859203C2025642C202564200B
:100466003C20585A203C2025642C202564203C2022
:10047600595A203C2025640D0A00426567696E6E54
:10048600696E6720437261636B65642057696E64A9
:100496006F772043616C6962726174696F6E2E0DAD
:1004A6000A0043616C6962726174696F6E20436F02
:1004B6006D706C657465642E205468726573686F20
:1004C6006C643A20256C750D0A437261636B207467
:1004D60068652077696E646F7720616E642070723C
:1004E6006573732074686520627574746F6E20740A
:1004F6006F20636F6E74696E75650D0A003C5859FE
:1005060020416E676C65204572726F723E202D2009
:10051600003C585A20416E676C65204572726F72B6
:100526003E202D20003C5468726573686F6C642011
:1005360045786365656465643E202D2000416C61E5
:10054600726D20476F6F640D0A00416C61726D20F9
:100556004261640D0A004D61676E65746F6D657466
:1005660065722053656E736F72204572726F7220CA
:100576002D205265626F6F74204465766963650D40
:020586000A0069
:10058800496E697469616C697A696E67204D4C5867
:1005980039303633322054656D7065726174757206
:1005A800652053656E736F722E2E2E000D0A4C6FE8
:1005B800616465642063616368656420636F6E735A
:1005C80074616E747320616E642073657474696EEF
:1005D80067732E2E2E000D0A4C6F616465642063CC
:1005E8006F6E7374616E74732066726F6D207365BD
:1005F8006E736F7220616E64207265736574207407
:100608006F2064656661756C74732E2E2E004F4BD7
:100618000D0A004641494C45440D0A0053656E7366
:100628006F722054656D70657261747572653A20D9
:1006380025322E3266430D0A526F6F6D2054656D58
:1006480070657261747572653A2025322E32664380
:100658000D0A0054656D706572617475726520537A
:10066800656E736F72204572726F72202D2052650D
:0E067800626F6F74204465766963650D0A0039
:10068600A31D8F1DAC1D731A5C16711EE21D501A38
:02069600FF1C47
:10069800B51D991DBE1DB91A9716741EEA1D961A26
:0206A8000E1D25
:0806AA00696E66006E616E00CE
:1006B2002F923F924F925F926F927F928F929F9270
:1006C200AF92BF92CF92DF92EF92FF920F931F935E
:1006D200CF93DF93CDB7DEB76497CDBFDEBF6C019A
:1006E2001A01462E5901FC0117821086848181FF6E
:1006F20067C3CE0101968C879D87A0E88A8B9B8B6E
:10070200AC8BF101542D0E942E1E862F662309F414
:1007120053C3442D91012F5F3F4F4F4F653219F064
:100722001901442E0BC0F901542F0E942E1E862F50
:1007320092E0290E311C411C653249F4B60190E069
:100742000E942016AE86BF86AE84BF84DACF10E048
:10075200F12C00E00032A0F48B3269F030F48032E8
:1007620059F0833269F400612CC08D3239F0803344
:1007720039F4016026C00260046023C0086021C011
:1007820007FD2AC090ED980F9A3078F406FF06C054
:10079200AAE01A9F900D1124192F13C0EAE0FE9EC1
:1007A200900D1124F92E00620CC08E3221F406FD48
:1007B20003C3006406C08C3611F4006802C0883698
:1007C20059F4F101542D0E942E1E862FFFEF2F1A8D
:1007D2003F0A4F0A6111BECF9BEB980F933018F47A
:1007E2000061805E06C09BE9980F933008F066C1F5
:1007F2000F7E06FF16E00F73702E853621F4202F30
:100802002064722E08C0863621F4802F8068782EEC
:1008120002C01111115077FE07C01C3350F4EE24B0
:10082200E394E10E27E00BC0183038F027E017E020
:1008320005C027E06CE3E62E02C0212FE12CF50172
:100842003496EE87FF87F501608171818281938101
:100852000E2DAE014F5F5F4F0E94A00E5C015980CA
:1008620050FE02C053FE06C071FC06C072FE06C0F6
:1008720000E205C00DE203C00BE201C000E0852DDD
:100882008C7019F0011174C2C0C277FE0FC0EA0C5D
:1008920054FE04C08A81813309F4EA941E1474F56B
:1008A20028E02E1578F538E0E32E2CC076FC2AC01D
:1008B200812F90E08A159B059CF08CEFA8168FEF94
:1008C200B80674F0972D9068792E0AC0E2E0F0E045
:1008D200EC0FFD1FE10FF11D8081803319F41150DF
:1008E2001111F4CF77FE0EC0EE24E394E10E812FB6
:1008F20090E0A816B9062CF41A1904C0EE24E39469
:1009020001C010E077FE06C01A141B0434F4C501BE
:10091200019605C085E090E002C081E090E00111FF
:100922000196112331F0212F30E02F5F3F4F820FCC
:10093200931F2F2D30E08217930714F4F81A01C089
:10094200F12C872D897049F4FF2039F0B60180E23D
:1009520090E00E942016FA94F7CF002329F0B60106
:10096200802F90E00E94201673FC09C0FF2039F00E
:10097200B60180E390E00E942016FA94F7CF77FE4A
:1009820049C03501B7FE02C0612C712CC501861920
:10099200970988248394912C8C0E9D1E880E991E93
:1009A200F501EE19F109E88BF98B012F10E0119591
:1009B20001951109FFEF6F167F0629F4B6018EE249
:1009C20090E00E942016A614B70444F08889998901
:1009D200861597051CF4F401818101C080E3F1E0E2
:1009E2006F1A71082FEF821A920A601671062CF0A4
:1009F200B60190E00E942016DDCFA614B70439F4A8
:100A02009A81963318F4953311F454FE81E3B601BA
:100A120090E051C08A81813319F0952D9F7E592E25
:100A2200B60190E00E942016111105C074FC1CC092
:100A320085E690E01BC0B6018EE290E00E9420168F
:100A420002E0010F82E011E0180FE1E0F0E0EC0FAC
:100A5200FD1FE80FF11D8081B60190E00E94201673
:100A6200812F1013F0CFE2CF85E490E0B6010E940F
:100A72002016B7FC05C0A114B10439F454FE05C018
:100A8200B194A194B1088DE201C08BE2B60190E06D
:100A92000E94201680E3EAE0AE16B1042CF08F5FCC
:100AA200AAE0AA1AB108F7CFB60190E00E94201678
:100AB200B601C501C0960E94201674C1833631F07A
:100AC200833791F0833509F05EC024C0C5010296D8
:100AD2008E879F87F501808189836A887B888C88CD
:100AE200AA24A394B12C14C0C50103968E879F87B4
:100AF200F50160807180828006FF03C0412F50E0C3
:100B020002C04FEF5FEF882DB3010E94A41B5C016E
:100B12000F7715C0C50103968E879F87F501608008
:100B22007180828006FF03C0412F50E002C04FEF68
:100B32005FEF882DB3010E94A41B5C01006803FDD6
:100B42001EC08F2D90E0A816B906C8F4B60180E247
:100B520090E00E942016FA94F4CFF301582D0E94DF
:100B62002E1E862FFFEF6F1A7F0A8F0AB60190E0C2
:100B72000E942016F110FA9421E0A21AB108A114E1
:100B8200B10459F70FC1843611F0893679F5C501E0
:100B920007FF09C004968E879F87F50160817181E6
:100BA200828193810AC002968E879F87F5016081B8
:100BB2007181072E000C880B990B0F76E02E97FFA0
:100BC2000AC090958095709561957F4F8F4F9F4F8A
:100BD200F02FF068EF2E2AE030E0AE014F5F5F4F5A
:100BE2000E941613A82E2C85A21A4BC0853729F411
:100BF2000F7EE02E2AE030E025C0902F997FE92E6B
:100C02008F36C1F018F4883579F0D6C0803719F0E4
:100C1200883721F0D1C0A92FA061EA2EE4FE0DC0D1
:100C2200EE2DE460EE2E09C004FF0AC0F92FF66033
:100C3200EF2E06C028E030E005C020E130E002C01F
:100C420020E132E0C501E7FE09C004968E879F8746
:100C5200F501608171818281938108C002968E873D
:100C62009F87F5016081718180E090E0AE014F5F66
:100C72005F4F0E941613A82EFC85AF1A2E2D2F77D8
:100C8200E22EE6FE0BC00E2D0E7FA11650F4E4FEFE
:100C92000AC0E2FC08C00E2D0E7E05C0BA2C0E2D35
:100CA20003C0BA2C01C0B12E04FF0DC0FE01EA0D33
:100CB200F11D8081803311F4097E09C002FF06C054
:100CC200B394B39404C0802F867809F0B39403FDE3
:100CD20011C000FF06C0BF1488F4FA0C1F2D1B19A7
:100CE2000EC0BF1460F4B60180E290E00E942016AC
:100CF200B394F7CFBF1418F4FB1802C01A2DF12CCD
:100D020004FF10C0B60180E390E00E94201602FFAB
:100D120017C001FD03C088E790E002C088E590E0BB
:100D2200B6010CC0802F867859F001FF02C08BE219
:100D320001C080E207FD8DE2B60190E00E9420161C
:100D4200A11638F4B60180E390E00E9420161150FB
:100D5200F7CFAA94E1E0F0E0EC0FFD1FEA0DF11DE0
:100D62008081B60190E00E942016A110F2CF1AC035
:100D7200F4E0FF1588F584E0F81A73FE24C001112F
:100D82002CC053FE30C05EEA852E56E0952E50E010
:100D9200A52E072D0071F4015A2D0E942E1E862FBA
:100DA200611128C0FF2009F4CFCCB60180E290E0A7
:100DB2000E942016FA94F6CFF601878190852CC006
:100DC2008FEF9FEF29C0B60180E290E00E942016CB
:100DD200FA94F110F8CFD3CFF12CB601802F90E026
:100DE2000E942016CECF4AEA842E46E0942E40E09E
:100DF200A42ECFCF01118052B60190E00E9420169E
:100E0200FFEF8F1A9F0AAF0AC6CF23E02F1510F407
:100E120083E0B2CFF12CB5CF6496CDBFDEBFDF91B8
:100E2200CF911F910F91FF90EF90DF90CF90BF90E5
:100E3200AF909F908F907F906F905F904F903F9078
:040E42002F90089550
:100E46002F923F924F925F926F927F928F929F92D4
:100E5600AF92BF92CF92DF92EF92FF920F931F93C2
:100E6600CF93DF93CDB7DEB72A97CDBFDEBF8C0118
:100E7600BE016F5F7F4F0E94800CF8016181728115
:100E860083809480C580D680E091A6418E2F90E025
:100E96008830910508F0E1C2FC01ED57FF4F0C9434
:100EA600D01D61EC72E080E00E945C1485E08093C6
:100EB600A6411092654110926641109267411092C8
:100EC6006841109261411092624110926341109202
:100ED600644110925D4110925E4110925F41109202
:100EE6006041BBC2329BB9C262EF72E080E00E94F1
:100EF6005C1486E08093A641109291411092924133
:100F0600ACC28091914190919241FC013196E0935F
:100F16009141F09392418B01770F220B330B409155
:100F26006541509166416091674170916841CB017E
:100F3600BA01600F711F821F931F60936541709302
:100F460066418093674190936841092C000CAA087A
:100F5600BB0800916141109162412091634130913B
:100F66006441800E911EA21EB31E80926141909232
:100F76006241A0926341B09264410D2C000CEE08D0
:100F8600FF0800915D4110915E4120915F413091D3
:100F96006041C00ED11EE21EF31EC0925D41D0928A
:100FA6005E41E0925F41F0926041E83EF34008F412
:100FB60054C20F2EF8EE4F2EF3E05F2E612C712CEB
:100FC600F02DA30192010E943B1CCA01B9010E94A7
:100FD600E5150E942C1A0E94121E162F072F6093E9
:100FE600974170939841C501B401A30192010E94F3
:100FF6003B1CCA01B9010E94E5150E942C1A0E94E9
:10100600121EB62EA72E6093954170939641C70186
:10101600B601A30192010E943B1CCA01B9010E94BC
:10102600E5150E942C1A0E94121EF62EE72E6093DA
:101036009341709394410E94801EEF92FF92AF926B
:10104600BF920F931F9327E133E040E04F933F9306
:101056002F939F938F930E948E190E94A8186CE479
:1010660073E080E00E945C1481E08093A641CDBFCE
:10107600DEBFF3C1329BF1C16CE873E080E00E94F1
:101086005C1482E08093A6411092914110929241A5
:10109600E4C120919141309192412F5F3F4F2093BF
:1010A6009141309392418091974190919841681B6C
:1010B600790BCB01770FAA0BBB0B40916541509181
:1010C600664160916741709168412C013D01440E73
:1010D600551E661E771EC301B201409265415092AD
:1010E6006641609267417092684140919541509186
:1010F6009641841A950A092C000CAA08BB08409050
:101106006141509062416090634170906441840CEB
:10111600951CA61CB71C8092614190926241A092D8
:101126006341B09264414091934150919441C41AF5
:10113600D50A0D2C000CEE08FF0840905D4150903A
:101146005E4160905F4170906041C40CD51CE61C06
:10115600F71CC0925D41D0925E41E0925F41F092F1
:101166006041283E334008F478C128EE33E040E081
:1011760050E00E943B1CCA01B9010E94E5150E947D
:101186002C1A0E94121E2B013C016093654170933C
:1011960066418093674190936841C501B40128EE8A
:1011A60033E040E050E00E943B1CCA01B9010E94B6
:1011B600E5150E942C1A0E94121E4B015C016093D9
:1011C6006141709362418093634190936441C7018A
:1011D600B60128EE33E040E050E00E943B1CCA0115
:1011E600B9010E94E5150E942C1A0E94121E6B017D
:1011F6007C0160935D4170935E4180935F41909363
:101206006041C2010E94861B782E8093A441C401CE
:101216000E94861BB82E8093A341C6010E94861B9E
:10122600F82E8093A2410E94801E2F2D0F2C000CB9
:10123600330B3F93FF922B2D0B2C000C330B3F935C
:10124600BF92272D072C000C330B3F937F9223EB85
:1012560033E040E04F933F932F939F938F930E94E9
:101266008E190E94A81868EF73E080E00E945C1453
:1012760083E08093A641BE016F5F7F4FC8010E9445
:10128600800C8C818093A1418093A0418D818093B5
:101296009F4180939E418E8180939D4180939C4186
:1012A600CDBFDEBFDAC08C819091A14189171CF4B5
:1012B6008093A14106C09091A041981714F48093A1
:1012C600A04190919F4189171CF480939F4106C0CD
:1012D60090919E41981714F480939E4190919D4160
:1012E60089171CF480939D4106C090919C419817E4
:1012F60014F480939C41329BB0C0E0909C412E2C0C
:101306000E2C000C330820909D41422C022C000C20
:10131600550840909E41642C042C000C7708F090F0
:101326009F418F2C0F2C000C99080091A041A02EF4
:10133600002E000CBB081091A141C12E012E000CFD
:10134600DD080E94801E3F92EF925F922F927F925D
:101356004F929F92FF92BF920F93DF921F9325E4C5
:1013660034E040E04F933F932F939F938F930E94D7
:101376008E190E94A81860E874E080E00E945C1450
:1013860084E08093A641109291411092924110926E
:10139600594110925A4110925B4110925C41CDBF67
:1013A600DEBF5BC08091914190919241FC013196E4
:1013B600E0939141F09392410F81188529853A85F2
:1013C6004091594150915A4160915B4170915C4105
:1013D600CB01BA01600F711F821F931F60935941A1
:1013E60070935A4180935B4190935C41E83EF34091
:1013F600A0F128EE33E040E050E00E943B1CCA0119
:10140600B9010E94E5150E942C1A0E94D718162FC2
:10141600072FF82EE92E6093694170936A418093F5
:101426006B4190936C410E94801EEF92FF920F9346
:101436001F9328EA34E040E04F933F932F939F9306
:101446008F930E948E190E94A81887E08093A64168
:10145600CDBFDEBF02C01092A6412A96CDBFDEBF29
:10146600DF91CF911F910F91FF90EF90DF90CF907A
:10147600BF90AF909F908F907F906F905F904F90AE
:061486003F902F90089535
:10148C00CF92DF92EF92FF921F93CF93DF93CDB762
:10149C00DEB76897CDBFDEBF8BE191E40E94D21618
:1014AC00182F882309F41AC240E1BE016F5F7F4FE9
:1014BC008CE094E20E94DC1A882309F40AC22B8186
:1014CC006C81862F90E0A0E0B0E0DC0199278827A2
:1014DC00B22B2A81AC01BD01422B898190E0982F5F
:1014EC008827A0E0B0E06A017B01C82AD92AEA2A41
:1014FC00FB2AC701B6010E94E51520E030E040E868
:10150C005BE30E946D1E609355417093564180932E
:10151C005741909358412F816885862F90E0A0E029
:10152C00B0E0DC0199278827B22B2E81AC01BD01DC
:10153C00422B8D8190E0982F8827A0E0B0E06A01C3
:10154C007B01C82AD92AEA2AFB2AC701B6010E94C4
:10155C00E51520E030E040E855E30E946D1E6093F5
:10156C0051417093524180935341909354412B8538
:10157C006C85862F90E0A0E0B0E0DC0199278827ED
:10158C00B22B2A85AC01BD01422B898590E0982FA6
:10159C008827A0E0B0E06A017B01C82AD92AEA2A90
:1015AC00FB2AC701B6010E94E51520E030E040E8B7
:1015BC0059E20E946D1E60934D4170934E41809391
:1015CC004F41909350412F856889862F90E0A0E081
:1015DC00B0E0DC0199278827B22B2E85AC01BD0128
:1015EC00422B8D8590E0982F8827A0E0B0E06A010F
:1015FC007B01C82AD92AEA2AFB2AC701B6010E9414
:10160C00E51520E030E040E85BE30E946D1E60933E
:10161C00494170934A4180934B4190934C4148E12E
:10162C00BE016F5F7F4F84E294E20E94DC1A882334
:10163C0009F451C12B816C81862F90E0A0E0B0E0C1
:10164C00DC0199278827B22B2A81AC01BD01422BE2
:10165C00898190E0982F8827A0E0B0E06A017B0197
:10166C00C82AD92AEA2AFB2AC701B6010E94E51525
:10167C0020E030E040E857E30E946D1E6093454146
:10168C007093464180934741909348412F816885E0
:10169C00862F90E0A0E0B0E0DC0199278827B22BE0
:1016AC002E81AC01BD01422B8D8190E0982F8827B3
:1016BC00A0E0B0E06A017B01C82AD92AEA2AFB2AF9
:1016CC00C701B6010E94E51520E030E040E85BE37D
:1016DC000E946D1E6093414170934241809343413F
:1016EC00909344412B856C85862F90E0A0E0B0E070
:1016FC00DC0199278827B22B2A85AC01BD01422B2E
:10170C00898590E0982F8827A0E0B0E06A017B01E2
:10171C00C82AD92AEA2AFB2AC701B6010E94E51574
:10172C0020E030E040E858E20E946D1E60933D419D
:10173C0070933E4180933F41909340412F8568893F
:10174C00862F90E0A0E0B0E0DC0199278827B22B2F
:10175C002E85AC01BD01422B8D8590E0982F8827FA
:10176C00A0E0B0E06A017B01C82AD92AEA2AFB2A48
:10177C00C701B6010E94E51520E030E040E85DE2CB
:10178C000E946D1E6093394170933A4180933B41A6
:10179C0090933C412B896C89862F90E0A0E0B0E0BF
:1017AC00DC0199278827B22B2A89AC01BD01422B79
:1017BC00898990E0982F8827A0E0B0E06A017B012E
:1017CC00C82AD92AEA2AFB2AC701B6010E94E515C4
:1017DC0020E030E040E85DE20E946D1E60933541F0
:1017EC007093364180933741909338416D8970E006
:1017FC00762F66278E89682B072E000C880B990B89
:10180C000E94E51520E030E040E85AE30E946D1E8E
:10181C0060933141709332418093334190933441C2
:10182C006F8970E0762F6627888D682B072E000C49
:10183C00880B990B0E94E51520E030E040E85AE354
:10184C000E946D1E60932D4170932E4180932F4109
:10185C009093304144E0BE016F5F7F4F81E894E28A
:10186C000E94DC1A8823C9F1698170E0762F662703
:10187C008A81682B072E000C880B990B0E94E515AA
:10188C0020E030E040E858E30E946D1E609329414F
:10189C0070932A4180932B4190932C416B8170E083
:1018AC00762F66278C81682B072E000C880B990BE2
:1018BC000E94E51520E030E040E85AE30E946D1EDE
:1018CC006093254170932641809327419093284142
:1018DC0005C010E003C010E001C010E0812F689635
:1018EC00CDBFDEBFDF91CF911F91FF90EF90DF90C6
:0418FC00CF900895EC
:10190000BF92CF92DF92EF92FF920F931F93CF93EC
:10191000DF93DC01FB018091A4418823C4F411967C
:101920002D913C9112974091974150919841241BE1
:10193000350B992781950CF49095A90102C0559516
:1019400047958A95E2F7CA018195808310C0119668
:101950002D913C9112974091974150919841241BB1
:10196000350B02C0359527958A95E2F72083809143
:10197000A3418823C4F413962D913C911497409170
:10198000954150919641241B350B992781950CF474
:101990009095B90102C0759567958A95E2F7CB01DC
:1019A0008195818310C013962D913C91149740919D
:1019B000954150919641241B350B02C035952795D2
:1019C0008A95E2F721832091A2412223DCF4159627
:1019D0008D919C9116974091934150919441BC01F7
:1019E000641B750BAB01622F772761950CF4709522
:1019F0009A0102C0359527956A95E2F7C90181954C
:101A0000828310C015968D919C91169740919341B9
:101A100050919441841B950B02C0959587952A950A
:101A2000E2F7828320813181032F032E000C110BFA
:101A3000B280E22E022E000CFF08009FC001019F21
:101A4000900D900D11242202800D911D1124CB2C9C
:101A50000B2C000CDD084B2D4402800D911D112430
:101A6000A0E0B0E086839783A087B1878897A1051F
:101A7000B10508F457C0EF013323D9F0C701880F2F
:101A8000991F880F991F880F991F9701220F331FE5
:101A9000820F931FB8010E94921C072E000C880B26
:101AA000990B0E94E5150E942C1A0E94121E6B834E
:101AB00001C01382BB2099F1C701880F991FEE0C5A
:101AC000FF1CEE0CFF1CEE0CFF1C8E0D9F1DB601C3
:101AD0000E94921C072E000C880B990B0E94E515A2
:101AE0000E942C1A0E94121E6C83C801880F991F35
:101AF000000F111F000F111F000F111F800F911FEA
:101B0000B6010E94921C072E000C880B990B0E94B4
:101B1000E5150E942C1A0E94121E6D8306C01C82BD
:101B20001D8203C0138214821582DF91CF911F9111
:0E1B30000F91FF90EF90DF90CF90BF9008953F
:101B3E008F929F92AF92BF92CF92DF92EF92FF92CF
:101B4E001F93CF93DF9300D0CDB7DEB78BE191E437
:101B5E000E94D216182F882309F4DCC080E094E18D
:101B6E000E94241C6C0182E094E10E94241C5C0102
:101B7E0084E094E10E94241C4C017601EA24FB24AB
:101B8E00E826F9268AE394E10E94241C89839A832D
:101B9E0089819A81E816F90609F0B5C080911B413A
:101BAE0090911C41C816D90609F0AFC080911D4115
:101BBE0090911E41A816B90609F0A9C080911F4147
:101BCE00909120418816990609F0A3C086E094E111
:101BDE000E94B819609355417093564180935741B6
:101BEE00909358418AE094E10E94B8196093514154
:101BFE007093524180935341909354418EE094E1FF
:101C0E000E94B81960934D4170934E4180934F419D
:101C1E009093504182E194E10E94B819609349413A
:101C2E0070934A4180934B4190934C4186E194E1ED
:101C3E000E94B81960934541709346418093474185
:101C4E00909348418AE194E10E94B8196093414112
:101C5E007093424180934341909344418EE194E1CD
:101C6E000E94B81960933D4170933E4180933F416D
:101C7E009093404182E294E10E94B81960933941F9
:101C8E0070933A4180933B4190933C4186E294E1BC
:101C9E000E94B81960933541709336418093374155
:101CAE00909338418AE294E10E94B81960933141D1
:101CBE007093324180933341909334418EE294E19C
:101CCE000E94B81960932D4170932E4180932F413D
:101CDE009093304182E394E10E94B81960932941B8
:101CEE0070932A4180932B4190932C4186E394E18B
:101CFE000E94B81960932541709326418093274125
:101D0E009093284107C010E005C010E003C010E01A
:101D1E0001C010E0812F0F900F90DF91CF911F9196
:101D2E00FF90EF90DF90CF90BF90AF909F908F90ED
:021D3E00089506
:101D4000283008F027E03327DA01990F311D87FD8D
:101D5000916000966105710539F432602E5F3D9304
:101D600030E32A95E1F708959F3F30F08038710500
:101D7000610509F03C5F3C5F3D93913008F080685D
:101D8000911DDF93CF931F930F93FF92EF92192F23
:101D9000987F9695E92F96959695E90FFF27E2573C
:101DA000FE4F99273327EE24FF24A701E701059072
:101DB0000894079428F4360FE71EF81E491F511D9A
:101DC000660F771F881F991F0694A1F70590079447
:101DD00028F4E70EF81E491F561FC11D770F881FF4
:101DE000991F661F0694A1F70590079428F4F80E32
:101DF000491F561FC71FD11D880F991F661F771FC8
:101E00000694A1F70590079420F4490F561FC71FA9
:101E1000D81F990F661F771F881F0694A9F7849112
:101E20001095177041F0D695C79557954795F7943B
:101E3000E7941A95C1F7E4E3F1E0689415901591E1
:101E400035916591959105907FE27395E118F10ABE
:101E5000430B560BC90BD009C0F7E10CF11E431F11
:101E6000561FC91FD01D7EF4703311F48A95E6CF3A
:101E7000E894015030F0080F0AF40027021708F424
:101E8000202F2395022F7A3328F079E37D932A952A
:101E9000E9F710C07D932A9589F606949795679582
:101EA000379517951794E118F10A430B560BC90B98
:101EB000D00998F023957E9173957A3308F070E3FA
:101EC0007C932013B8F77E9170617D9330F08395F9
:101ED00071E37D9370E32A95E1F71124EF90FF9071
:101EE0000F911F91CF91DF91992787FD90950895CC
:101EF000CF93DF93CBE1D1E46881798180E094E1F5
:101F00000E94CD1C6A817B8182E094E10E94CD1CFD
:101F10006C817D8184E094E10E94CD1C409155410B
:101F200050915641609157417091584186E094E13B
:101F30000E94061A40915141509152416091534183
:101F4000709154418AE094E10E94061A40914D41FB
:101F500050914E4160914F41709150418EE094E11B
:101F60000E94061A4091494150914A4160914B416B
:101F700070914C4182E194E10E94061A40914541E2
:101F800050914641609147417091484186E194E10A
:101F90000E94061A40914141509142416091434153
:101FA000709144418AE194E10E94061A40913D41BA
:101FB00050913E4160913F41709140418EE194E1EA
:101FC0000E94061A4091394150913A4160913B413B
:101FD00070913C4182E294E10E94061A40913541A1
:101FE00050913641609137417091384186E294E1D9
:101FF0000E94061A40913141509132416091334123
:10200000709134418AE294E10E94061A40912D4178
:1020100050912E4160912F41709130418EE294E1B8
:102020000E94061A4091294150912A4160912B410A
:1020300070912C4182E394E10E94061A409125415F
:1020400050912641609127417091284186E394E1A7
:102050000E94061A688179818A819B816827792785
:102060008C819D81682779278AE394E10E94CD1CA9
:06207000DF91CF910895FD
:10207600CF93DF9340E054E0FA01108220E234E08F
:1020860089E0F901808380E494E0FC011082C0E6D7
:10209600D4E061E46883A0E8B4E01C9260EA74E0EE
:1020A600FB011082FA011482F9011482FC011482E8
:1020B6001C8214961C921497FB011482FA01108A52
:1020C600118A128A138A148A158A168A178AF901BE
:1020D600108A118A48E8428B138A148A158A168A4E
:1020E600178AFC01108A118A128A138A148A158AA1
:1020F600168A178A188A198A1A8A1B8A1C8A1D8ABE
:102106001E8A1F8A50961C92509751961C92519780
:1021160052961C92529753961C92539754961C9221
:10212600549755961C92559756961C9256975796C5
:102136001C92FB01108A118A88E0828B838B148A99
:10214600158A168A178AE0EEF5E01186118210824A
:10215600148216821782108681E0858380E182834D
:10216600138212868BE89EE18093894190938A417F
:102176008CE89EE180938741909388418DE89EE1AB
:1021860080938541909386418EE89EE180938341BA
:10219600909384418FE89EE18093814190938241A0
:1021A60080E99EE180937F419093804181E99EE1A1
:1021B60080937D4190937E4182E99EE180937B41AD
:1021C60090937C4183E99EE18093794190937A4193
:1021D60084E99EE1809377419093784185E99EE179
:0E21E6008093754190937641DF91CF910895DB
:1021F400CF93DF93CDB7DEB72897CDBFDEBF8091F5
:10220400A541813099F028F0833089F1843099F127
:1022140043C081E00E94641E882321F081E0809302
:10222400A54156C082E08093A54152C00E94621924
:10223400882309F44DC0CE0101960E94FF1A882319
:1022440091F08091A641873039F4329905C0CE01CE
:1022540001960E94741304C0CE0101960E942307C4
:102264001092A54135C082E08093A54131C084E03D
:102274008093A5412DC00E94BA1C882349F0109276
:10228400A54182EE94E08093994190939A4120C0B5
:1022940082E08093A5411CC08091994190919A411C
:1022A400823E944060F06CE575E080E00E945C142E
:1022B40081E090E08093994190939A4109C0809184
:1022C400994190919A4101968093994190939A41B2
:0C22D4002896CDBFDEBFDF91CF910895AA
:1022E0000E94611D882309F468C08091250984FF3C
:1022F0000CC08091250986FF08C08091250982FDC8
:1023000004C08091250983FF07C08091250982FDC3
:1023100003C08091250983FD0E94AF128091250999
:10232000882324F08091250986FF47C080912509E4
:1023300084FD08C08091250982FD04C08091250993
:1023400083FF03C00E94AF120895E0911A418E2FBF
:1023500090E08930910588F5FC01E658FF4F0C9418
:10236000D01D0E94B51D80931A4108950E94991DA9
:1023700080931A4108950E94BE1D80931A410895CA
:102380000E94B91A80931A4108950E94971680936B
:102390001A4108950E94961A80931A4108950E9446
:1023A000EA1D80931A4108950E94961A80931A415B
:0C23B00008950E940E1D80931A410895AC
:1023BC000FC00E94191E38F00E94201E20F0952399
:1023CC0011F00C943B1E0C94831E11240C94281EAB
:1023DC000E94211B70F3959FC1F3950F50E0551F80
:1023EC00629FF001729FBB27F00DB11D639FAA275E
:1023FC00F00DB11DAA1F649F6627B00DA11D661FAD
:10240C00829F2227B00DA11D621F739FB00DA11DCD
:10241C00621F839FA00D611D221F749F3327A00D87
:10242C00611D231F849F600D211D822F762F6A2F23
:10243C0011249F5750409AF0F1F088234AF0EE0F88
:10244C00FF1FBB1F661F771F881F91505040A9F7B5
:10245C009E3F510580F00C943B1E0C94281E5F3F50
:10246C00E4F3983ED4F3869577956795B795F795F1
:10247C00E7959F5FC1F7FE2B880F911D9695879569
:04248C0097F908951F
:10249000CF93DF938091050982FF0CC0EFEFF0E44A
:1024A00086E0858783E08487E0E0F9E085818460C9
:1024B000858337C080910709882381F080910509C1
:1024C00084FF0CC0EFEFF0E485E0858781E084872E
:1024D000E0E0F9E085818061858323C0809108096F
:1024E000882381F08091050984FF0CC0EFEFF0E4B0
:1024F00085E0858782E08487E0E0F9E0858180617E
:1025000085830FC08091050983FF0BC0EFEFF0E4D6
:1025100086E0858783E08487E0E0F9E08581886054
:102520008583CFEFD0E48D8590E0880F991F092E29
:10253000000CAA0B8A57994FAF4FFC015A2F0E94EB
:10254000D91DFB0109958D878C85882329F0E091A1
:0E2550006D41F0916E410995DF91CF91089594
:10255E00CF93DF938091250982FF0CC0EDE0F1E46B
:10256E0086E0858783E08487E0E2F9E085818460F8
:10257E00858337C080912709882381F080912509B2
:10258E0084FF0CC0EDE0F1E485E0858781E084876F
:10259E00E0E2F9E085818061858323C0809128097E
:1025AE00882381F08091250984FF0CC0EDE0F1E4D1
:1025BE0085E0858782E08487E0E2F9E085818061AD
:1025CE0085830FC08091250983FF0BC0EDE0F1E4F8
:1025DE0086E0858783E08487E0E2F9E08581886084
:1025EE008583CDE0D1E48D8590E0880F991F092E6B
:1025FE00000CAA0B8856994FAF4FFC015A2F0E9420
:10260E00D91DFB0109958D878C85882329F0E091D2
:0E261E006F41F09170410995DF91CF910895C1
:10262C00FA01AA27283051F1203181F1E8946F93F7
:10263C006E7F6E5F7F4F8F4F9F4FAF4FB1E03ED09D
:10264C00B4E03CD0670F781F891F9A1FA11D680F3B
:10265C00791F8A1F911DA11D6A0F711D811D911D6E
:10266C00A11D20D009F468943F912AE0269F1124E3
:10267C003019305D3193DEF6CF010895462F477047
:10268C00405D4193B3E00FD0C9F7F6CF462F4F70A2
:10269C00405D4A3318F0495D31FD4052419302D000
:1026AC00A9F7EACFB4E0A6959795879577956795A6
:1026BC00BA95C9F700976105710508959B01AC01A6
:1026CC000A2E06945795479537952795BA95C9F7CD
:0C26DC00620F731F841F951FA01D08953E
:1026E800CF93DF93CDB7DEB72A97CDBFDEBFBE014C
:1026F8006F5F7F4F0E94800C4F81588569857A856E
:102708008091694190916A41A0916B41B0916C416F
:10271800481759076A077B07F0F08C819091A04110
:10272800981724F09091A141891734F463E075E07B
:1027380080E00E945C141BC08D8190919E41981787
:1027480024F090919F41891764F467E175E080E077
:102758000E945C140CC06BE275E080E00E945C147F
:1027680006C063E475E080E00E945C1405C060E583
:1027780075E080E00E945C142A96CDBFDEBFDF9131
:04278800CF91089550
:10278C00CF93DF930E94551D882309F443C0809199
:10279C00050984FF0CC08091050986FF08C0809153
:1027AC00050982FD04C08091050983FF07C0809153
:1027BC00050982FD03C08091050983FD0E94481222
:1027CC0080910509882324F08091050986FF22C099
:1027DC008091050984FD08C08091050982FD04C023
:1027EC008091050983FF03C00E94481213C0CFEFEC
:1027FC00D0E48D8590E0880F991F092E000CAA0B50
:10280C008A57994FAF4FFC015A2F0E94D91DFB01DB
:0A281C0009958D87DF91CF91089593
:1028260040E068ED80E690E00E94501E40E068EDD2
:1028360081E690E00E94501E40E068ED85E690E05B
:102846000E94501E40E068ED88E790E00E94501E0E
:102856004CE068ED88E690E00E94501E40E068ED8E
:1028660089E690E00E94501E40E068ED80E790E027
:102876000E94501E40E068ED8CE790E00E94501EDA
:1028860040E068ED82E690E00E94501E40E068ED70
:1028960083E690E00E94501E40E068ED84E690E0FA
:1028A6000E94501E40E068ED80E890E00E94501EB5
:0228B600089583
:1028B8006F927F928F92CF92DF92EF92CF933B01EC
:1028C800882EFB01582D0E942E1E662391F1E0E60A
:1028D800F8E0848180648483F301582D0E942E1EC1
:1028E80061111BC01EC00E94351E8823E1F3F6014A
:1028F8005E2D0E942E1E862F0E947A1ECF5FE82C26
:102908006301CC0ED11CE11CF6015E2D0E942E1E27
:10291800662339F0CF3F39F704C0E82C6301C0E0E3
:10292800E2CF0E94351E8823E1F30E94F21D811137
:10293800FCCFCF91EF90DF90CF908F907F906F90EA
:022948000895F0
:10294A001F920F920FB60F9211240BB60F922F936C
:10295A003F934F935F936F937F938F939F93AF931D
:10296A00BF93EF93FF93399B05C0E0918941F091A2
:10297A008A410995389B05C0E0918741F0918841C9
:10298A0009953A9B05C0E0917D41F0917E410995F8
:10299A003B9B05C0E0917941F0917A4109958FEF0F
:1029AA0087B9FF91EF91BF91AF919F918F917F91DD
:1029BA006F915F914F913F912F910F900BBE0F90A6
:0829CA000FBE0F901F9018953D
:1029D200CF93C82F68E875E080E00E945C14CC2396
:1029E20029F081E00E94681CC82F04C080E00E9488
:1029F200681CC82F0E947D1E882361F064EB75E07D
:102A020080E00E945C148CE394E10E94241C0E94EA
:102A1200841D0CC06EED75E080E00E945C140E9483
:102A22005A1EBC018CE394E10E94CD1CCC2331F0F0
:102A320066E176E080E00E945C1408C06BE176E01B
:102A420080E00E945C1484E08093A741CF910895B6
:102A52001F920F920FB60F9211240BB60F922F9363
:102A62003F934F935F936F937F938F939F93AF9314
:102A7200BF93EF93FF938091430180FF07C0E091E2
:102A82008F41F0919041309709F00995809143016F
:102A920081FF07C0E0918D41F0918E41309709F09E
:102AA200099583E080934301FF91EF91BF91AF912C
:102AB2009F918F917F916F915F914F913F912F9154
:0E2AC2000F900BBE0F900FBE0F901F90189537
:102AD0001F93CF93DF931F92CDB7DEB7182F66E811
:102AE00072E080E00E945C140E94BA1C811109C04F
:102AF00063EB72E080E00E945C1482E08093A54169
:102B000020C0BE016F5F7F4F8BE00E94E4178111F0
:102B100009C063EB72E080E00E945C1482E0809365
:102B2000A5410FC08EE394E10E94771E111102C0EF
:102B3000998189131092A6416CEB72E080E00E94AB
:0C2B40005C140F90DF91CF911F9108955D
:102B4C001F920F920FB60F9211240BB60F922F9368
:102B5C003F934F935F936F937F938F939F93AF9319
:102B6C00BF93EF93FF937C9B05C0E0917B41F09169
:102B7C007C410995789B05C0E0917741F0917841B3
:102B8C0009957E9B05C0E0917541F09176410995C0
:102B9C008FEF8FB9FF91EF91BF91AF919F918F9173
:102BAC007F916F915F914F913F912F910F900BBE41
:0A2BBC000F900FBE0F901F901895A8
:102BC600E89409C097FB3EF49095809570956195C1
:102BD6007F4F8F4F9F4F9923A9F0F92F96E9BB2777
:102BE6009395F695879577956795B795F111F8CFF3
:102BF600FAF4BB0F11F460FF1BC06F5F7F4F8F4F5E
:102C06009F4F16C0882311F096E911C0772321F053
:102C16009EE8872F762F05C0662371F096E8862FEB
:102C260070E060E02AF09A95660F771F881FDAF742
:0A2C3600880F9695879597F9089589
:102C40000F931F93CF93DF93FB01248121FD03C0DA
:102C50008FEF9FEF2CC022FF16C047815085258142
:102C600036814217530744F4A081B1819D012F5F43
:102C70003F4F208331838C93278130852F5F3F4FD7
:102C80002783308714C08B01EC01FB010184F2859E
:102C9000E02D0995892BE1F6D80117968D919C912D
:102CA0001897019617968D939C931897CE01DF91F4
:082CB000CF911F910F910895CF
:102CB8008091084190910941019731F4E0E0F9E0F1
:102CC80084818460848305C0E0E0F9E084818B7F9F
:102CD8008483EFEFF0E4818592850197818792875D
:102CE800892B79F0A781B085CD01019687839087DC
:102CF800E0E0F9E080858C9384818260848384E0BD
:102D08000895EFEFF0E4A781B085CD0101968783A0
:102D18009087E0E0F9E080858C93848184608483E7
:062D28000E94501A0895FC
:102D2E008091164190911741019731F4E0E2F9E05C
:102D3E0084818460848305C0E0E2F9E084818B7F26
:102D4E008483EDE0F1E481859285019781879287F6
:102D5E00892B79F0A781B085CD0101968783908765
:102D6E00E0E2F9E080858C9384818260848384E044
:102D7E000895EDE0F1E4A781B085CD01019687833A
:102D8E009087E0E2F9E080858C938481846084836F
:062D9E000E94961A089540
:102DA4000F931F93CF93DF93CDB7DEB72697CDBF95
:102DB400DEBF8C0146E0BE016F5F7F4F85E094E289
:102DC4000E94DC1A8823D9F0898190E0982F882703
:102DD4002A81822BF801808391838B8190E0982F44
:102DE40088272C81822B828393838D8190E0982F76
:102DF40088272E81822B8483958381E001C080E023
:102E04002696CDBFDEBFDF91CF911F910F9108951C
:102E14008F929F92AF92BF92CF92DF92EF92FF92E6
:102E24000F931F93CF93DF935C016B017A014901E8
:102E34000E94551D811115C0CFEFD0E481E0888335
:102E4400A982BA828B87CB82DC82ED82FE828F825A
:102E5400988609871A871C860E94AC1D8D8781E09D
:102E640001C080E0DF91CF911F910F91FF90EF900F
:0E2E7400DF90CF90BF90AF909F908F90089509
:102E82008F929F92AF92BF92CF92DF92EF92FF9278
:102E92000F931F93CF93DF935C016B017A0149017A
:102EA2000E94611D811115C0CDE0D1E481E08883CB
:102EB200A982BA828B87CB82DC82ED82FE828F82EC
:102EC200988609871A871C860E94BE1D8D8781E01D
:102ED20001C080E0DF91CF911F910F91FF90EF90A1
:0E2EE200DF90CF90BF90AF909F908F9008959B
:102EF0001F920F920FB60F9211240BB60F922F93C1
:102F00003F934F935F936F937F938F939F93AF9371
:102F1000BF93EF93FF935B9B05C0E0918141F091DC
:102F2000824109955A9B05C0E0917F41F091804113
:102F300009958FEF8BB9FF91EF91BF91AF919F9161
:102F40008F917F916F915F914F913F912F910F9052
:0C2F50000BBE0F900FBE0F901F90189545
:102F5C001F920F920FB60F9211240BB60F922F9354
:102F6C003F934F935F936F937F938F939F93AF9305
:102F7C00BF93EF93FF93BB9B05C0E0918541F0910C
:102F8C0086410995BA9B05C0E0918341F09184413B
:102F9C0009958FEF87BBFF91EF91BF91AF919F91F7
:102FAC008F917F916F915F914F913F912F910F90E6
:0C2FBC000BBE0F900FBE0F901F901895D9
:102FC800EF92FF920F931F93CF93DF931F92CDB78A
:102FD800DEB789837B010E94691E982F8823D9F068
:102FE80001E010E0970141E050E0BE016F5F7F4FC4
:102FF8008CE090E00E940A17982F811103C00BC043
:103008000E94C6130E94551D8111FACF0E94411ECD
:1030180091E0811190E0892F0F90DF91CF911F915E
:083028000F91FF90EF90089555
:103030001F920F920FB60F9211240BB60F922F937F
:103040003F934F935F936F937F938F939F93AF9330
:10305000BF93EF93FF93E0917141F09172413097EC
:1030600009F0099581E08093C100FF91EF91BF9134
:10307000AF919F918F917F916F915F914F913F9110
:103080002F910F900BBE0F900FBE0F901F901895B1
:103090001F920F920FB60F9211240BB60F922F931F
:1030A0003F934F935F936F937F938F939F93AF93D0
:1030B000BF93EF93FF93E0918B41F0918C41309758
:1030C00009F0099581E080935301FF91EF91BF9141
:1030D000AF919F918F917F916F915F914F913F91B0
:1030E0002F910F900BBE0F900FBE0F901F90189551
:1030F0000F931F93CF93DF9300D0CDB7DEB7082F88
:10310000162F0E94691E982F8823D1F009831A83F5
:1031100042E050E0BE016F5F7F4F8CE090E00E9484
:103120000619982F811103C00BC00E94C6130E947C
:10313000551D8111FACF0E94411E91E0811190E04E
:10314000892F0F900F90DF91CF911F910F910895CC
:103150001F93CF93DF9380910040882321F1E0E615
:10316000F8E0848180648483C0E0D0E010E00E94B5
:10317000351E8823E1F3C050D04C88810E947A1E0E
:103180001F5FC12FD0E0FE01E050F04C808188230A
:1031900011F01F3F61F70E94351E8823E1F30E9462
:0E31A000F21D8111FCCFDF91CF911F91089598
:1031AE000E94291B88F09F5798F0B92F9927B75185
:1031BE00B0F0E1F0660F771F881F991F1AF0BA95CD
:1031CE00C9F714C0B13091F00E94271EB1E00895E6
:1031DE000C94271E672F782F8827B85F39F0B93FD8
:1031EE00CCF3869577956795B395D9F73EF4909580
:0E31FE008095709561957F4F8F4F9F4F08957C
:10320C00CF92DF92EF92FF920F931F93CF93DF93A6
:10321C006C017B018A010E94551D811115C0CFEFF5
:10322C00D0E481E08883C982DA821B86EB82FC823F
:10323C000D831E831F82188619861A861C860E948F
:10324C00AC1D8D8781E001C080E0DF91CF911F9193
:0C325C000F91FF90EF90DF90CF9008954D
:10326800CF92DF92EF92FF920F931F93CF93DF934A
:103278006C017B018A010E94551D811115C0CFEF99
:10328800D0E481E08883C982DA821B86EF82F886DF
:1032980009871A871B821C821D821E821C860E9437
:1032A8008F1D8D8781E001C080E0DF91CF911F9154
:0C32B8000F91FF90EF90DF90CF900895F1
:1032C4001F93CF93DF931F92CDB7DEB70E94691E81
:1032D400182F8823D9F0198241E050E0BE016F5FB6
:1032E4007F4F8CE090E00E943419182F811103C0A5
:1032F4000DC00E94C6130E94551D182F8111F9CFCD
:103304000E94411E811102C019811170812F0F90FA
:08331400DF91CF911F91089594
:10331C000F931F93CF93DF93CDB7DEB72F97CDBF0E
:10332C00DEBF0E891F8986E08D8309831A838FEF98
:10333C009FE78E839F839E01255E3F4F488D598D5D
:10334C006A8DCE0101960E945903E885F985E00F3C
:10335C00F11F10822F96CDBFDEBFDF91CF911F9151
:04336C000F91089520
:10337000CF92DF92EF92FF920F931F93CF93DF9341
:10338000EC018C010C5F1F4F60E070E0CB01CC249E
:10339000D62EE72EF82ECE010E94771EA7019601A9
:1033A000282BCA01B90121960C171D0781F7DF915F
:1033B000CF911F910F91FF90EF90DF90CF900895E4
:1033C0000E940D1C81E08093020980932209E0E6AF
:1033D000F8E08387838782E08093E50582E09EE1C1
:1033E0000E94551E8EE79CE10E944B1EC6B1C2FB97
:1033F000CC27C0F98C2F0E9468158C2F0E94E914ED
:0C3400007894A8950E94FA108895FBCFE4
:10340C00CF92DF92EF92FF92CF93DF93EC016A01A0
:10341C007B016F2D772788279927CE010E94521C9C
:10342C006E2DCE0101960E94521C6D2DCE0102967E
:10343C000E94521C6C2DCE0103960E94521CDF91EF
:0C344C00CF91FF90EF90DF90CF9008959B
:103458000E94291BE8F09E37E8F09639B8F49E38A8
:1034680048F4672F782F8827985FF9CF8695779546
:10347800679593959539D0F3B62FB1706B0F711D81
:10348800811D20F487957795679593950C94C01BBB
:083498000C94471D0C94281E42
:1034A000E0E0F9E0848183608483AFEFB0E41C92B4
:1034B0008FEF90E011968D939C93129713961D9227
:1034C0001C92149717961D921C9218971D961C9289
:1034D0008581806C858383818F73838385818160FF
:0634E000858380E00895E1
:1034E6008091044190910541892B91F0EFEFF0E432
:1034F60085819681019785839683A381B481CD01C9
:103506000196838394838C918093080983E00895C0
:1035160080910A41882321F010920A4181E00895A2
:063526000E94501A0895F6
:10352C00E0E2F9E0848183608483ADE0B1E41C9235
:10353C008FEF90E011968D939C93129713961D929A
:10354C001C92149717961D921C9218971D961C92FC
:10355C008581806C858383818F7383838581816072
:06356C00858380E0089554
:103572008091124190911341892B91F0EDE0F1E499
:1035820085819681019785839683A381B481CD013C
:103592000196838394838C918093280983E0089514
:1035A20080911841882321F01092184181E00895FA
:0635B2000E94961A089524
:1035B8000F931F939B01E1E2F1E490838183042F31
:1035C80010E042E050E0BF018AE390E00E9441171A
:1035D800811104C090E00BC00E9470110E94611D0F
:1035E8008111FACF0E94461E91E0811190E0892F47
:0635F8001F910F910895E0
:1035FE00CF93DF93EC010E94691E982F8823B1F0C0
:10360E0048E050E0BE018CE090E00E943419982F03
:10361E00811103C00BC00E94C6130E94551D81115B
:10362E00FACF0E94411E91E0811190E0892FDF9127
:04363E00CF9108958B
:1036420057FD9058440F551F59F05F3F71F0479551
:10365200880F97FB991F61F09F3F79F08795089536
:10366200121613061406551FF2CF4695F1DF08C055
:10367200161617061806991FF1CF86957105610572
:04368200089408950B
:10368600A1E21A2EAA1BBB1BFD010DC0AA1FBB1F60
:10369600EE1FFF1FA217B307E407F50720F0A21BD2
:1036A600B30BE40BF50B661F771F881F991F1A943F
:1036B60069F760957095809590959B01AC01BD0169
:0436C600CF01089593
:1036CA00E0E4F1E081818111FDCFE0E4F1E08FEFE8
:1036DA0090E084879587108611868FEF9EE0828717
:1036EA009387178281E0828389EB808381898111A4
:1036FA00FDCFE0E4F1E081E0828B81E3808B80E022
:02370A00089520
:10370C009923B4F4919581959109803891056CF0C9
:10371C0031E001C030E021E0959587952F5F80382E
:10372C009105D4F7311102C007C021E0219504C0E6
:0C373C00803891057CF721E0822F089571
:10374800CF92DF92EF926B01E82E9A01A82FCB015E
:103758002115310531F48C199D09EF90DF90CF9038
:103768000895FC015A2F0E942E1E6623A1F301968C
:08377800A11D21503109ECCF25
:10378000882371F4772321F09850872B762F07C078
:10379000662311F499270DC09051862B70E060E0EC
:1037A0002AF09A95660F771F881FDAF7880F96958B
:0637B000879597F90895CA
:1037B600E0E0F9E0108212828FE0868381E0838365
:1037C600158217821482108684818860848385819D
:1037D6008160858388E89EE180936D4190936E4178
:0237E600089544
:1037E800E0E2F9E0108212828FE0868381E0838331
:1037F800158217821482108684818860848385816B
:103808008160858389E89EE180936F419093704140
:02381800089511
:10381A000E943B100E9413140E94DB1B0E94F41B9F
:10382A000E94C71D0E94791D0E94651B0E94391DB6
:0E383A000E94EF1C0E94FA1D0E946D1D089551
:103848000F931F93CF93DF938C010E94771EC82F8D
:10385800D0E0DC2FCC27C80101960E94771E9E017C
:0E386800282BC901DF91CF911F910F91089578
:10387600052E97FB1EF400940E940A1E57FD07D0E2
:103886000E94431B07FC03D04EF40C940A1E50956D
:0E3896004095309521953F4F4F4F5F4F08955D
:1038A4001F93CF93DF93EC01162F43E16DE980E082
:1038B40090E10E94501E188340E06DE980E090E1A1
:0C38C4000E94501EDF91CF911F910895CB
:1038D000CF93811105C00E949F0DC82F811108C090
:1038E0000E94460AC82F882331F00E94780F03C037
:0C38F00081E080939B418C2FCF910895C4
:1038FC000E94691E882341F08091A541823021F4F9
:10390C0083E08093A54108950E94691E811103C034
:08391C0082E08093A5410895AB
:1039240097FB072E16F4009407D077FD09D00E9468
:10393400A61C07FC05D03EF4909581959F4F0895F1
:08394400709561957F4F089515
:10394C00AA1BBB1B51E107C0AA1FBB1FA617B707B9
:10395C0010F0A61BB70B881F991F5A95A9F78095D5
:08396C009095BC01CD01089506
:103974000E945F1E882359F065EB85E10E94781848
:10398400882339F06DE284E10E947818089580E07C
:06399400089580E0089593
:10399A001F93CF93DF93EC01162F672F0E94521CBF
:1039AA00612FCE0101960E94521CDF91CF911F9187
:0239BA0008956E
:1039BC00092E0394000C11F4882352F0BB0F40F431
:1039CC00BF2B11F460FF04C06F5F7F4F8F4F9F4F71
:0239DC0008954C
:1039DE00E0E6F8E08BE890E080879187158280EC36
:1039EE00868383E08783138614861686158608954C
:1039FE00E0E0F9E083818E7F83838381816083831E
:0E3A0E008581816085831092FF4080E00895DD
:103A1C00E0E2F9E083818E7F8383838181608383FD
:0E3A2C0085818160858310920D4180E00895B0
:103A3A001F920F920FB60F9211248F938FEF83B9B3
:0C3A4A008F910F900FBE0F901F901895E9
:103A56001F920F920FB60F9211248F938FEF83BB95
:0C3A66008F910F900FBE0F901F901895CD
:103A720043E068ED80E590E00E94501E40E068ED72
:0C3A820081E590E00E94501E80E0089555
:103A8E009F3F31F0915020F4879577956795B795C4
:0C3A9E00880F911D9695879597F9089563
:103AAA008091FF40811105C0809105098095817040
:083ABA0001C081E08170089554
:103AC20080910D41811105C08091250980958170F9
:083AD20001C081E0817008953C
:103ADA0040E068ED80E191E00E94501EE0E1F1E0F3
:083AEA001282138280E00895AE
:103AF200E0E0F0E111828AE89EE1809373419093C5
:063B0200744113820895D6
:103B08009C01E0E4F1E0918192FDFDCF20934A0110
:063B180030934B010895FB
:103B1E008091004190910141880F81608093070947
:043B2E0084E0089592
:103B320080910E4190910F41880F816080932709F7
:043B420084E008957E
:103B46001092FF40E0E0F9E085818160858388E09E
:023B56000895D0
:103B58008091004190910141880F8093070983E08B
:023B68000895BE
:103B6A0010920D41E0E2F9E085818160858388E069
:023B7A000895AC
:103B7C0080910E4190910F41880F8093270983E02B
:023B8C0008959A
:103B8E0081E08093C000109271411092724180E0EA
:023B9E00089588
:103BA000EE0FFF1F0024001C0BBE0790F691E02DC6
:023BB000099476
:103BB20057FD04C05BBF6791779108956191719140
:023BC200089564
:103BC400E0E0F9E08581806C85830E94FF1C089504
:103BD400E0E2F9E08581806C85830E940E1D0895E2
:103BE4008091640886FB882780F991E089270895ED
:103BF400E0EBF0E01482108281E0828380E008959B
:103C04008091A741811103C081E08093A741089569
:103C140090958095709561957F4F8F4F9F4F089534
:0E3C24000E94D7186894B1110C94281E0895C0
:0E3C320000240A9416161706180609060895AF
:0E3C400000240A9412161306140605060895B1
:0E3C4E00E894BB2766277727CB0197F90895E6
:0E3C5C0057FD03C05BBF679108956081089516
:0C3C6A008091640885FB882780F908958C
:0C3C760097F99F6780E870E060E0089517
:0A3C8200EFEFF0E484851486089546
:0A3C8C00EDE0F1E48485148608954C
:0A3C960080937141909372410895EC
:0A3CA0001BBEFC0164BF40830895C1
:0A3CAA0080938F419093904108959C
:0A3CB40080914A0190914B010895A0
:0A3CBE0066E081E10E947818089585
:0A3CC800682F80E10E94781808952B
:083CD2008091C2008170089589
:083CDA000E94DE110C94DE1CB7
:063CE2000E94501A089533
:063CE8000E94961A0895E7
:063CEE00FC018081089535
:063CF400809362080895B0
:063CFA0080919B4108953A
:063D000080E090E408954C
:063D06009FEF80EC089520
:043D0C000C94000013
:023D1000089514
:023D1200089512
:023D1400089510
:023D160008950E
:023D180008950C
:023D1A0008950A
:023D1C00089508
:023D1E00089506
:023D2000089504
:023D2200089502
:023D2400089500
:023D26000895FE
:023D28000895FC
:023D2A000895FA
:023D2C00E204AF
:013D2E000193
:013D2F000192
:013D30000191
:02000004008278
:090000000800000000C00D000022
:00000001FF
