:100000000C9407010C9426010C9426010C942601F3
:100010000C94E4070C9481080C94B5080C94260108
:100020000C9426010C9426010C9426010C942601B4
:100030000C9426010C9426010C9426010C942601A4
:100040000C9426010C9426010C9426010C94260194
:100050000C9426010C9426010C9426010C94260184
:100060000C9426010C9426010C9426010C94260174
:100070000C9426010C9426010C9426010C94260164
:100080000C9426010C9426010C9426010C94260154
:100090000C9426010C9426010C941C050C9426014A
:1000A0000C9426010C9426010C9426010C94260134
:1000B0000C9426010C9426010C9426010C94260124
:1000C0000C9426010C9426010C9426010C94260114
:1000D0000C9426010C94A4070C9426010C94260180
:1000E0000C9426010C9426010C9426010C942601F4
:1000F0000C942601AA12C912D712E812A913C2132E
:10010000B314DA14E3147915891597156E616E002E
:10011000696E660000407A10F35A00A0724E18090A
:100120000010A5D4E80000E87648170000E40B545E
:10013000020000CA9A3B000000E1F505000080962D
:100140009800000040420F000000A086010000005F
:10015000102700000000E803000000006400000019
:1001600000000A00000000000100000000002C76E2
:10017000D888DC674F0823DFC1DFAE59E1B1B796FD
:10018000E5E3E453C63AE651997696E8E6C284265A
:10019000EB898C9B62ED407C6FFCEFBC9C9F40F236
:1001A000BAA56FA5F490055A2AF75C936B6CF967B2
:1001B0006DC11BFCE0E40D47FEF520E6B500D0ED77
:1001C000902E0300943577050080841E08000020DF
:1001D0004E0A000000C80C333333330F986E12837D
:1001E0001141EF8D2114893BE65516CFFEE6DB1851
:1001F000D1844B381BF77C1D901DA4BBE424203216
:1002000084725E228100C9F124ECA1E53D2711240E
:100210001FBECFEFCDBFDFE7DEBF15E4A0E0B0E447
:10022000E2E3FEE300E00BBF02C007900D92AC3AA0
:10023000B107D9F729E4ACEAB5E401C01D92AA35AB
:10024000B207E1F70E9444100C94171F0C940000B1
:100250002F923F924F925F926F927F928F929F92D6
:10026000AF92BF92CF92DF92EF92FF920F931F93C4
:10027000CF93DF93CDB7DEB76097CDBFDEBF7C01F4
:100280001B016A01FC0116821782838181FF44C32E
:100290009E012F5F3F4F3901F7019381F10193FDDB
:1002A000859193FF81911F01882309F431C3853221
:1002B00039F493FD859193FF81911F01853239F4C3
:1002C000B70190E00E941B1E56016501E5CF10E0CA
:1002D000512C912CFFE1F915D8F08B3279F038F4DC
:1002E000803279F08332A1F4F92DF0612EC08D3285
:1002F00061F0803369F4292D21602DC0392D3260E1
:10030000932E892D8460982E2AC0E92DE86015C0AF
:1003100097FC2DC020ED280F2A3088F496FE06C0E9
:100320003AE0139F200D1124122F19C08AE0589E25
:10033000200D1124522EE92DE0629E2E10C08E3227
:1003400031F496FCE5C2F92DF0649F2E08C08C367E
:1003500021F4292D2068922E02C0883641F4F10143
:1003600093FD859193FF81911F018111B3CF9BEB89
:10037000980F933020F4992D9061805E07C09BE91F
:10038000980F933008F066C1992D9F7E96FF16E076
:100390009F73992E853619F49064992E08C086367D
:1003A00021F4392F3068932E02C01111115097FE9D
:1003B00007C01C3350F444244394410E27E00BC083
:1003C000183038F027E017E005C027E09CE3492EFD
:1003D00002C0212F412C560184E0A80EB11CF60169
:1003E0006081718182819381042DA3010E94131D7C
:1003F0006C01F981FC87F0FF02C0F3FF06C091FC9D
:1004000006C092FE06C000E205C00DE203C00BE28A
:1004100001C000E08C858C7019F001115AC29BC29A
:1004200097FE10C04C0CFC85F4FF04C08A81813318
:1004300009F44A94141474F528E0241578F588E03A
:10044000482E2CC096FC2AC0812F90E08C159D056B
:100450009CF03CEFC3163FEFD30674F0892D806803
:10046000982E0AC0E2E0F0E0EC0FFD1FE10FF11D55
:100470008081803319F411501111F4CF97FE0EC012
:1004800044244394410E812F90E0C816D9062CF4E1
:100490001C1904C04424439401C010E097FE06C018
:1004A0001C141D0434F4C601019605C085E090E0DB
:1004B00002C081E090E001110196112331F0212F5B
:1004C00030E02F5F3F4F820F931F252D30E08217C2
:1004D000930714F4581A01C0512C892D897049F4DE
:1004E000552039F0B70180E290E00E941B1E5A941B
:1004F000F7CF002329F0B701802F90E00E941B1E48
:1005000093FC09C0552039F0B70180E390E00E94C8
:100510001B1E5A94F7CF97FE4CC04601D7FE02C06F
:10052000812C912CC60188199909F301E80FF91F54
:10053000ED87FE879601241931092F87388B012F0B
:1005400010E01195019511093FEF8316930629F4E8
:10055000B7018EE290E00E941B1EC814D9044CF033
:100560008F8598898815990524F4ED85FE8581810C
:1005700001C080E3F1E08F1A91082D853E852F5F41
:100580003F4F2D873E87801691062CF0B70190E0F3
:100590000E941B1ED9CFC814D90441F49A81963306
:1005A00020F4953319F43C8534FF81E3B70190E0E2
:1005B0004EC08A81813319F09C859F7E9C87B7014C
:1005C00090E00E941B1E111105C094FC18C085E626
:1005D00090E017C0B7018EE290E00E941B1E1E5FE4
:1005E00082E001E0080FF301E80FF11D8081B701FF
:1005F00090E00E941B1E802F0113F3CFE6CF85E40D
:1006000090E0B7010E941B1ED7FC06C0C114D104A4
:1006100041F4EC85E4FF05C0D194C194D1088DE28A
:1006200001C08BE2B70190E00E941B1E80E32AE02C
:10063000C216D1042CF08F5FFAE0CF1AD108F7CFA1
:10064000B70190E00E941B1EB701C601C0960E9430
:100650001B1E54C1833631F0833779F0833509F09E
:1006600056C020C0560132E0A30EB11CF6018081B5
:10067000898301E010E0630112C05601F2E0AF0E81
:10068000B11CF601C080D18096FE03C0612F70E0DE
:1006900002C06FEF7FEFC6010E94F61D8C01F92D9D
:1006A000FF7714C0560122E0A20EB11CF601C080F3
:1006B000D18096FE03C0612F70E002C06FEF7FEF24
:1006C000C6010E94EB1D8C01F92DF0689F2EF3FDF1
:1006D0001AC0852D90E008171907A8F4B70180E229
:1006E00090E00E941B1E5A94F4CFF60197FC85916E
:1006F00097FE81916F01B70190E00E941B1E51107F
:100700005A94015011090115110579F7F7C0843683
:1007100011F0893661F5560197FE09C024E0A20E5A
:10072000B11CF60160817181828193810AC0F2E07F
:10073000AF0EB11CF60160817181072E000C880B91
:10074000990BF92DFF769F2E97FF09C09095809504
:10075000709561957F4F8F4F9F4FF0689F2E2AE0D5
:1007600030E0A3010E94801EC82EC6183FC0092D8C
:10077000853721F40F7E2AE030E01DC0097F8F36D7
:1007800091F018F4883559F0C3C0803719F08837D4
:1007900011F0BEC0006104FF09C0046007C094FEF0
:1007A00008C0066006C028E030E005C020E130E067
:1007B00002C020E132E0560107FF09C084E0A80E24
:1007C000B11CF601608171818281938108C0F2E0E1
:1007D000AF0EB11CF6016081718180E090E0A30151
:1007E0000E94801EC82EC6180F77902E96FE0BC052
:1007F000092D0E7FC11650F494FE0AC092FC08C069
:10080000092D0E7E05C0DC2C092D03C0DC2C01C097
:10081000D12E04FF0DC0FE01EC0DF11D808180334F
:1008200011F4097E09C002FF06C0D394D39404C01A
:10083000802F867809F0D39403FD11C000FF06C015
:100840001C2DD51480F4150D1D190DC0D51458F4A8
:10085000B70180E290E00E941B1ED394F7CFD5141D
:1008600010F45D1801C0512C04FF10C0B70180E3E3
:1008700090E00E941B1E02FF17C001FD03C088E725
:1008800090E002C088E590E0B7010CC0802F867828
:1008900059F001FF02C08BE201C080E207FD8DE24A
:1008A000B70190E00E941B1EC11638F4B70180E327
:1008B00090E00E941B1E1150F7CFCA94F301EC0D7B
:1008C000F11D8081B70190E00E941B1EC110F5CF81
:1008D00015C0F4E0F51560F584E0581A93FE1FC0CA
:1008E000011127C02C8523FF2AC00CE011E0392D0F
:1008F0003071932EF8018491811124C0552009F4A0
:10090000E4CCB70180E290E00E941B1E5A94F6CF1F
:10091000F7018681978126C08FEF9FEF23C0B70133
:1009200080E290E00E941B1E5A945110F8CFD8CF5D
:10093000512CB701802F90E00E941B1ED3CF00E105
:1009400011E0D5CF91108052B70190E00E941B1E9C
:100950000F5F1F4FCFCF23E0251510F483E0BDCFED
:10096000512CC0CF6096CDBFDEBFDF91CF911F91DC
:100970000F91FF90EF90DF90CF90BF90AF909F903E
:100980008F907F906F905F904F903F902F90089541
:100990001092AC451092AD45E0E4F8E081E0838729
:1009A00080E8858383E087838BE890E08087918768
:1009B00016820895A0EAB4E090E115969C931597ED
:1009C000E0EEF5E082818F7C828382818061828388
:1009D00011969C93119780E212968C930895E0E40F
:1009E000F8E08681806486830895E0E4F8E08681FB
:1009F0008068868308958093AC459093AD450895B3
:100A00008091440885FB882780F90895CF93C82FEB
:100A10000E940005882331F0E0E4F8E094819064BE
:100A20009483C283CF9108958091440886FB8827E0
:100A300080F991E0892708951F920F920FB60F92C7
:100A400011240BB60F922F933F934F935F936F93A5
:100A50007F938F939F93AF93BF93EF93FF93809177
:100A60004008E091AC45F091AD45309709F009950B
:100A7000FF91EF91BF91AF919F918F917F916F9176
:100A80005F914F913F912F910F900BBE0F900FBE32
:100A90000F901F901895809105098C7141F49091E9
:100AA0000509937081E0933019F080E0089581E0AA
:100AB0000895E0E0F9E084E08083118281E08283A0
:100AC0009DEF95839FE0968383830895A0E4B4E02F
:100AD0009CE011969C931197E0EEF5E085818C7F68
:100AE00085838581826085831C969C93089590916F
:100AF000050993709330E1F0880F682B6093070924
:100B0000E0E0F9E0858185FD0AC0858182FD07C0AE
:100B1000858183FD04C085818370833099F70E94AD
:100B20004B05882339F083E08093040980E0089521
:100B300080E0089581E0089520E22093050966236E
:100B4000D1F0A82FB92F90E0E0E0F9E022E0858114
:100B500085FD17C0858182FD07C0858183FD04C0A6
:100B600085818370833099F780858D939F5F6917A6
:100B700011F02483ECCF87E0809304090895248347
:100B8000E6CF80858D939F5F6913F9CFF4CF6623FD
:100B900009F1DC016150262F30E02F5F3F4F280F15
:100BA000391FE0E0F9E09D919087958195FD0AC09D
:100BB000958192FD07C0958193FD04C09581937046
:100BC000933099F7958194FD07C0A217B30759F7A1
:100BD00081E0089581E0089580E008951F93CF9308
:100BE000DF93EB01142F60E00E947705882339F032
:100BF000612FCE010E94C70593E090930409DF9115
:100C0000CF911F9108950F931F93CF938B0161E0B4
:100C10000E947705C82F882321F061E0C8010E9457
:100C20009C058C2FCF911F910F9108950F931F93C7
:100C3000CF93DF938B01D42F61E00E947705C82FFB
:100C4000882321F06D2FC8010E949C058C2FDF9115
:100C5000CF911F910F910895EF92FF920F931F93E1
:100C6000CF93DF931F92CDB7DEB769838A01E22E5F
:100C700060E00E947705F82E882369F161E0CE01DB
:100C800001960E94C705F82E811104C083E080936D
:100C9000040921C0E0E0F9E087818160878381E079
:100CA0008483858185FD0AC0858182FD07C0858199
:100CB00083FD04C085818370833099F70E944B05C2
:100CC000882329F083E080930409F12C04C06E2D61
:100CD000C8010E949C058F2D0F90DF91CF911F912D
:100CE0000F91FF90EF900895809125098C7141F448
:100CF00090912509937081E0933019F080E0089578
:100D000081E00895E0E2F9E084E08083118281E0EF
:100D100082839DEF95839FE0968383830895E0EA25
:100D2000F4E08CE0818398E0938784870895909124
:100D3000250993709330E1F0880F682B60932709A1
:100D4000E0E2F9E0858185FD0AC0858182FD07C06A
:100D5000858183FD04C085818370833099F70E946B
:100D60007406882339F083E08093240980E0089595
:100D700080E0089581E0089520E22093250966230C
:100D8000D1F0A82FB92F90E0E0E2F9E022E08581D0
:100D900085FD17C0858182FD07C0858183FD04C064
:100DA00085818370833099F780858D939F5F691764
:100DB00011F02483ECCF87E08093240908952483E5
:100DC000E6CF80858D939F5F6913F9CFF4CF6623BB
:100DD00009F1DC016150262F30E02F5F3F4F280FD3
:100DE000391FE0E2F9E09D919087958195FD0AC059
:100DF000958192FD07C0958193FD04C09581937004
:100E0000933099F7958194FD07C0A217B30759F75E
:100E100081E0089581E0089580E008951F93CF93C5
:100E2000DF93EB01142F60E00E949706882339F0CE
:100E3000612FCE010E94E70693E090932409DF9191
:100E4000CF911F910895DF92EF92FF920F931F931E
:100E5000CF93DF937B01D42EE90160E00E949706D7
:100E6000182F882361F16D2DC7010E94E706182F06
:100E7000811104C083E08093240921C0E0E2F9E0FD
:100E800087818160878381E08483858185FD0AC0B5
:100E9000858182FD07C0858183FD04C085818370C3
:100EA000833099F70E947406882329F083E08093A9
:100EB000240910E004C0602FCE010E94BC06812FDF
:100EC000DF91CF911F910F91FF90EF90DF900895E8
:100ED0001092AE451092AF45E0E6F8E081E08387DE
:100EE00080E8858383E087838BE890E08087918723
:100EF00016820895E0E2F4E081E08583818382E058
:100F000082830895E0E6F8E0868180648683089510
:100F10008091640885FB882780F90895CF93C82FB6
:100F20000E948807882331F0E0E6F8E0948190641D
:100F30009483C283CF9108958091640886FB8827AB
:100F400080F991E0892708951F920F920FB60F92B2
:100F500011240BB60F922F933F934F935F936F9390
:100F60007F938F939F93AF93BF93EF93FF93809162
:100F70006008E091AE45F091AF45309709F00995D2
:100F8000FF91EF91BF91AF919F918F917F916F9161
:100F90005F914F913F912F910F900BBE0F900FBE1D
:100FA0000F901F9018951092B0451092B14581E0B6
:100FB0008093C00008958093B0459093B145089503
:100FC0008091C200817008951F920F920FB60F9208
:100FD00011240BB60F922F933F934F935F936F9310
:100FE0007F938F939F93AF93BF93EF93FF93E09182
:100FF000B045F091B145309709F00995E0ECF0E08B
:10100000818181608183FF91EF91BF91AF919F9129
:101010008F917F916F915F914F913F912F910F90A1
:101020000BBE0F900FBE0F901F90189583E080931A
:101030005000089581E080933E020E94E7080E94DC
:10104000D3070E9459050E9466050E9482060E94ED
:101050008F060E94C8040E94DA040E9468070E945A
:101060007A070E94F5040E94EF040E9482070E9402
:101070003C080E9453080895E0E0FBE081E080878F
:1010800096E09183848320EA3FE02487358780833C
:1010900008958091070B817008950000000081E0A1
:1010A00080930002089510923248109233481092B3
:1010B000344810923548E0E4F1E081E08583858B87
:1010C0008283178220E03FE02287338799EB908369
:1010D000828B81E3808B08958093344890933548C8
:1010E000089580914A0190914B0108959C01E0E49C
:1010F000F1E0918192FDFDCF20934A0130934B01A5
:1011000008951F920F920FB60F9211240BB60F92F3
:101110002F933F934F935F936F937F938F939F93FF
:10112000AF93BF93EF93FF9380914301E0913448D5
:10113000F0913548309709F00995E0E4F1E08381BA
:1011400081608383FF91EF91BF91AF919F918F91C8
:101150007F916F915F914F913F912F910F900BBEB7
:101160000F900FBE0F901F9018951F920F920FB601
:101170000F9211240BB60F922F933F934F935F93CF
:101180006F937F938F939F93AF93BF93EF93FF934F
:10119000E0913248F0913348309709F00995E0E446
:1011A000F1E083898160838BFF91EF91BF91AF91D3
:1011B0009F918F917F916F915F914F913F912F916F
:1011C0000F900BBE0F900FBE0F901F901895E0E28E
:1011D000F4E088E8828B88E08183E0E6F4E081E057
:1011E0008583818308950F939B01E2EBF5E490835F
:1011F0008183042F42E0BF018AE30E9423070F91FD
:101200000895CF93DF93C7EBD5E46881798180E0BF
:1012100090E00E94121F6A817B8182E090E00E9430
:10122000121F6C817D8184E090E00E94121F40912A
:10123000F9455091FA456091FB457091FC4586E077
:1012400090E00E940A1F4091F5455091F64560914B
:10125000F7457091F8458AE090E00E940A1F40919E
:10126000F1455091F2456091F3457091F4458EE05F
:1012700090E00E940A1F4091ED455091EE4560912B
:10128000EF457091F04582E190E00E940A1F409185
:10129000E9455091EA456091EB457091EC4586E156
:1012A00090E00E940A1F4091E5455091E64560910B
:1012B000E7457091E8458AE190E00E940A1F40915D
:1012C000E1455091E2456091E3457091E4458EE13E
:1012D00090E00E940A1F4091DD455091DE456091EB
:1012E000DF457091E04582E290E00E940A1F409144
:1012F000D9455091DA456091DB457091DC4586E235
:1013000090E00E940A1F4091D5455091D6456091CA
:10131000D7457091D8458AE290E00E940A1F40911B
:10132000D1455091D2456091D3457091D4458EE21C
:1013300090E00E940A1F4091CD455091CE456091AA
:10134000CF457091D04582E390E00E940A1F409102
:10135000C9455091CA456091CB457091CC4586E313
:1013600090E00E940A1F688179818A819B816827A9
:1013700079278C819D81682779278AE390E00E94F4
:10138000121FDF91CF9108958091FD4508950F932D
:101390001F93CF93DF93CDB7DEB72697CDBFDEBFC8
:1013A0008C0146E0BE016F5F7F4F85E094E20E94B2
:1013B000F3088823D9F0898190E0982F88272A8123
:1013C000822BF801808391838B8190E0982F88276E
:1013D0002C81822B828393838D8190E0982F8827A4
:1013E0002E81822B8483958381E001C080E0269644
:1013F000CDBFDEBFDF91CF911F910F9108958F92E6
:101400009F92AF92BF92CF92DF92EF92FF921F9383
:10141000CF93DF9300D0CDB7DEB787EB95E40E9482
:10142000C709182F882309F4DCC080E090E00E94EF
:10143000ED1E6C0182E090E00E94ED1E5C0184E0F4
:1014400090E00E94ED1E4C017601EA24FB24E82680
:10145000F9268AE390E00E94ED1E89839A838981B0
:101460009A81E816F90609F0B5C08091B7459091C8
:10147000B845C816D90609F0AFC08091B94590911A
:10148000BA45A816B90609F0A9C08091BB4590914C
:10149000BC458816990609F0A3C086E090E00E943A
:1014A000E61E6093F9457093FA458093FB4590934F
:1014B000FC458AE090E00E94E61E6093F54570933B
:1014C000F6458093F7459093F8458EE090E00E94B2
:1014D000E61E6093F1457093F2458093F345909337
:1014E000F44582E190E00E94E61E6093ED45709322
:1014F000EE458093EF459093F04586E190E00E94A1
:10150000E61E6093E9457093EA458093EB4590931E
:10151000EC458AE190E00E94E61E6093E5457093F9
:10152000E6458093E7459093E8458EE190E00E9480
:10153000E61E6093E1457093E2458093E345909306
:10154000E44582E290E00E94E61E6093DD457093E0
:10155000DE458093DF459093E04586E290E00E946F
:10156000E61E6093D9457093DA458093DB459093EE
:10157000DC458AE290E00E94E61E6093D5457093B8
:10158000D6458093D7459093D8458EE290E00E944F
:10159000E61E6093D1457093D2458093D3459093D6
:1015A000D44582E390E00E94E61E6093CD4570939F
:1015B000CE458093CF459093D04586E390E00E943E
:1015C000E61E6093C9457093CA458093CB459093BE
:1015D000CC4507C010E005C010E003C010E001C01A
:1015E00010E0812F0F900F90DF91CF911F91FF900E
:1015F000EF90DF90CF90BF90AF909F908F90089525
:10160000CF92DF92EF92FF921F93CF93DF93CDB7EC
:10161000DEB76897CDBFDEBF87EB95E40E94C709B0
:10162000182F882309F41AC240E1BE016F5F7F4F73
:101630008CE094E20E94F308882309F40AC22B810B
:101640006C81862F90E0A0E0B0E0DC01992788272C
:10165000B22B2A81AC01BD01422B898190E0982FE9
:101660008827A0E0B0E06A017B01C82AD92AEA2ACB
:10167000FB2AC701B6010E94361B20E030E040E89B
:101680005BE30E94C21B6093F9457093FA45809317
:10169000FB459093FC452F816885862F90E0A0E064
:1016A000B0E0DC0199278827B22B2E81AC01BD0167
:1016B000422B8D8190E0982F8827A0E0B0E06A014E
:1016C0007B01C82AD92AEA2AFB2AC701B6010E944F
:1016D000361B20E030E040E855E30E94C21B6093D7
:1016E000F5457093F6458093F7459093F8452B8523
:1016F0006C85862F90E0A0E0B0E0DC019927882778
:10170000B22B2A85AC01BD01422B898590E0982F30
:101710008827A0E0B0E06A017B01C82AD92AEA2A1A
:10172000FB2AC701B6010E94361B20E030E040E8EA
:1017300059E20E94C21B6093F1457093F245809379
:10174000F3459093F4452F856889862F90E0A0E0BB
:10175000B0E0DC0199278827B22B2E85AC01BD01B2
:10176000422B8D8590E0982F8827A0E0B0E06A0199
:101770007B01C82AD92AEA2AFB2AC701B6010E949E
:10178000361B20E030E040E85BE30E94C21B609320
:10179000ED457093EE458093EF459093F04548E119
:1017A000BE016F5F7F4F84E294E20E94F3088823BA
:1017B00009F451C12B816C81862F90E0A0E0B0E04C
:1017C000DC0199278827B22B2A81AC01BD01422B6D
:1017D000898190E0982F8827A0E0B0E06A017B0122
:1017E000C82AD92AEA2AFB2AC701B6010E94361B59
:1017F00020E030E040E857E30E94C21B6093E945D7
:101800007093EA458093EB459093EC452F81688572
:10181000862F90E0A0E0B0E0DC0199278827B22B6A
:101820002E81AC01BD01422B8D8190E0982F88273D
:10183000A0E0B0E06A017B01C82AD92AEA2AFB2A83
:10184000C701B6010E94361B20E030E040E85BE3B0
:101850000E94C21B6093E5457093E6458093E7457F
:101860009093E8452B856C85862F90E0A0E0B0E052
:10187000DC0199278827B22B2A85AC01BD01422BB8
:10188000898590E0982F8827A0E0B0E06A017B016D
:10189000C82AD92AEA2AFB2AC701B6010E94361BA8
:1018A00020E030E040E858E20E94C21B6093E1452E
:1018B0007093E2458093E3459093E4452F856889D2
:1018C000862F90E0A0E0B0E0DC0199278827B22BBA
:1018D0002E85AC01BD01422B8D8590E0982F882785
:1018E000A0E0B0E06A017B01C82AD92AEA2AFB2AD3
:1018F000C701B6010E94361B20E030E040E85DE2FF
:101900000E94C21B6093DD457093DE458093DF45E6
:101910009093E0452B896C89862F90E0A0E0B0E0A1
:10192000DC0199278827B22B2A89AC01BD01422B03
:10193000898990E0982F8827A0E0B0E06A017B01B8
:10194000C82AD92AEA2AFB2AC701B6010E94361BF7
:1019500020E030E040E85DE20E94C21B6093D94580
:101960007093DA458093DB459093DC456D8970E098
:10197000762F66278E89682B072E000C880B990B13
:101980000E94361B20E030E040E85AE30E94C21B70
:101990006093D5457093D6458093D7459093D845AD
:1019A0006F8970E0762F6627888D682B072E000CD4
:1019B000880B990B0E94361B20E030E040E85AE388
:1019C0000E94C21B6093D1457093D2458093D3454A
:1019D0009093D44544E0BE016F5F7F4F81E894E26D
:1019E0000E94F3088823C9F1698170E0762F662789
:1019F0008A81682B072E000C880B990B0E94361BDE
:101A000020E030E040E858E30E94C21B6093CD45DF
:101A10007093CE458093CF459093D0456B8170E015
:101A2000762F66278C81682B072E000C880B990B6C
:101A30000E94361B20E030E040E85AE30E94C21BBF
:101A40006093C9457093CA458093CB459093CC452C
:101A500005C010E003C010E001C010E0812F6896BF
:101A6000CDBFDEBFDF91CF911F91FF90EF90DF9050
:101A7000CF900895CF93811105C00E94FF09C82F10
:101A8000811108C00E94000BC82F882331F00E94EA
:101A9000010903C081E08093FD458C2FCF9108950B
:101AA0000F93CF93DF93EB01E2EBF5E49083818317
:101AB00002E024EB35E442E0BF018AE30E94230701
:101AC000882361F0E2EBF5E4828190E0982F88278B
:101AD0002381822B8883998381E001C080E0DF919C
:101AE000CF910F910895BC018FEF9FE30E94500D9D
:101AF0000895CF93DF93CDB7DEB72E97CDBFDEBF6E
:101B000042E0BE016F5F7F4F8FEF9FE30E94F308BB
:101B1000882309F447C08A818C7790E09595879552
:101B2000959587958093B6454CE0BE016D5F7F4FDC
:101B300083E090E40E94F3088823B1F1EDEBF5E433
:101B40008B8190E0982F88272C81822B8083918332
:101B50008D8190E0982F88272E81822B828393831A
:101B60008F8190E0982F88272885822B8483958306
:101B7000898590E0982F88272A85822B86839783F2
:101B80008B8590E0982F88272C85822B80879187E2
:101B90008D8590E0982F88272E85822B82879387CA
:101BA00081E003C080E001C080E02E96CDBFDEBFA3
:101BB000DF91CF910895CF93DF9300D0CDB7DEB7FB
:101BC000CE0101960E94730D882319F089818170DE
:101BD00001C080E00F900F90DF91CF910895E2EB6C
:101BE000F5E4908381837283638344E0BF018AE3D9
:101BF0000E940E07089562E078E081E090E30E9481
:101C0000EF0D08954F925F926F927F928F929F9205
:101C1000AF92BF92CF92DF92EF92FF92CF93DF937A
:101C2000CDB7DEB76197CDBFDEBF8091B6458230BC
:101C300029F08091B645813009F08DC16091C7458A
:101C40007091C845072E000C880B990B0E94361B1B
:101C50004B015C016091C1457091C245072E000C9B
:101C6000880B990B0E94361B20E030E040E451E4E1
:101C70000E948C1A6B017C012091D5453091D6458C
:101C80004091D7455091D8450E94C21BA5019401AF
:101C90000E94201A9B01AC01C701B6010E948C1A58
:101CA00020E030E040E059E40E94C21B69837A835F
:101CB0008B839C838091B6458130A9F4EDEBF5E4EC
:101CC0006081718182819381680F791F072E000CDA
:101CD000880B990B0E94361B20E030E040E05FE368
:101CE0000E94C21B14C0EDEBF5E46681778180850C
:101CF0009185680F791F072E000C880B990B0E94A5
:101D0000361B20E030E040E05FE30E94C21B20E091
:101D100030E040E451E40E948C1A2B013C012091F8
:101D2000D1453091D2454091D3455091D445C7011A
:101D3000B6010E94C21BA50194010E94201A9B01BA
:101D4000AC01C301B2010E948C1A20E030E040E0F7
:101D500059E40E94C21B6D837E838F8398872091F4
:101D6000F9453091FA454091FB455091FC45698118
:101D70007A818B819C810E941F1A4B015C0120910A
:101D8000F5453091F6454091F7455091F8450E9450
:101D90008C1A2091ED453091EE454091EF455091E0
:101DA000F0450E94201A2B013C01A5019401C501B8
:101DB000B4010E94C21B2091F1453091F24540913F
:101DC000F3455091F4450E94C21B9B01AC01C30135
:101DD000B2010E94201A2B013C01609300407093D5
:101DE0000140809302409093034023E333E948E8A5
:101DF00053E40E94201A4B015C012091CD453091A3
:101E0000CE454091CF455091D0456091E1457091CC
:101E1000E2458091E3459091E4450E94C21B6983AD
:101E20007A838B839C838091D9459091DA45A091E8
:101E3000DB45B091DC4589879A87AB87BC8720E07A
:101E400030E048EC51E4C301B2010E941F1A209116
:101E5000DD453091DE454091DF455091E0450E94DF
:101E6000C21B6D877E878F87988BA5019401C50162
:101E7000B4010E94C21BA50194010E94C21BA501CE
:101E800094010E94C21B2B013C01C090C945D09017
:101E9000CA45E090CB45F090CC4593E0B0E0A0E09F
:101EA000F8ECE1E4998B20E030E048EC51E46B2F52
:101EB0007A2F8F2F9E2F0E941F1A29853A854B85D6
:101EC0005C850E94C21B20E030E040E85FE30E9496
:101ED000201A2D853E854F8558890E94201A298118
:101EE0003A814B815C810E94C21B9B01AC016D81D8
:101EF0007E818F8198850E948C1A4B015C01A30121
:101F00009201C501B4010E94201A0E94591C0E942E
:101F1000591C23E333E948E853E40E941F1AA70140
:101F200096010E941F1AA989A150A98BB62FA72F2D
:101F3000F82FE92F29892111B6CFC62ED72EE82EEA
:101F4000F92EC0920440D0920540E0920640F092F3
:101F5000074081E001C080E06196CDBFDEBFDF9128
:101F6000CF91FF90EF90DF90CF90BF90AF909F9078
:101F70008F907F906F905F904F9008956091004098
:101F800070910140809102409091034008956091CA
:101F9000044070910540809106409091074008955B
:101FA0000F931F93CF93C82F8B010E94E0078823C4
:101FB00031F021E0A8016C2F8CE00E942C06CF911B
:101FC0001F910F9108950F931F93CF93DF9300D02C
:101FD000CDB7DEB7082F162F0E94E007882349F0FF
:101FE00009831A8342E0BE016F5F7F4F8CE00E943D
:101FF000EE050F900F90DF91CF911F910F910895F3
:1020000066E081E10E94E30F08950E94001088239A
:1020100059F065EB85E10E94E30F882339F06DE20A
:1020200084E10E94E30F089580E0089580E0089520
:10203000CF93DF931F92CDB7DEB70E94E0078823CE
:1020400059F01982BE016F5F7F4F8CE00E9403063A
:10205000882311F0898181700F90DF91CF910895CD
:10206000682F80E10E94E30F0895CF93DF93EC0186
:102070000E94E007882329F048E0BE018CE00E941E
:102080001606DF91CF9108950E9416080E941A0843
:1020900088E099E10E94FB048EE097E10E946C08C1
:1020A00085E796E10E94DB07C6B1C2FBCC27C0F9E9
:1020B0008C2F0E94FA108C2F0E948F1678940E9409
:1020C000C718A8950E9475180E94D8150E94D115AE
:1020D00081110E94CA160E94EE18882351F00E94B6
:1020E000FA1181110E94FD110E941D1781110E9499
:1020F00020178895E6CF99231CF491958195910935
:102100009C018038910544F081E0359527958F5FDB
:1021100020383105D4F7089581E008951F93CF93B7
:10212000DF931F92CDB7DEB7182F10922946BE015C
:102130006F5F7F4F8BE00E94D00F882309F450C05F
:102140008EE390E00E94DE1E11114CC0998189132C
:102150004BC08FE390E00E94E61E6093244670938C
:102160002546809326469093274683E490E00E947C
:10217000E61E6093204670932146809322469093FA
:10218000234687E490E00E94ED1E80931E469093C4
:102190001F4689E490E00E94ED1E80931C469093B8
:1021A0001D468BE490E00E94ED1E80931A469093AA
:1021B0001B468DE490E00E94DE1E80930A408EE470
:1021C00090E00E94DE1E809309408FE490E00E9420
:1021D000DE1E809308408BE08093294681E005C095
:1021E00080E003C080E001C080E00F90DF91CF91DC
:1021F0001F910895CF93C82F85E290E40E948A171B
:102200000E940510811108C082E590E40E948A179F
:1022100082E08093284610C08C2F0E948E1081117E
:1022200007C08BE590E40E948A171092294604C0EB
:1022300085E690E40E948A17CF910895DC01FB01A6
:1022400011966D917C91129780911E4690911F4638
:10225000681B790B00900A4002C0759567950A9437
:10226000E2F7608313962D913C91149780911C4660
:1022700090911D46281B390B0090094002C03595EE
:1022800027950A94E2F7218315964D915C91169754
:1022900080911A4690911B46481B590B00900840AC
:1022A00002C0559547950A94E2F742832202C00185
:1022B00011246602800D911D11244402800D911D90
:1022C0001124A0E0B0E081879287A387B4871382AE
:1022D0001482158216821782108608958F929F921B
:1022E000AF92BF92CF92DF92EF92FF920F931F9324
:1022F000CF93DF93FC01C184D284E384F484809083
:10230000244690902546A0902646B0902746C814B3
:10231000D904EA04FB0470F0809120469091214694
:10232000A0912246B09123468C159D05AE05BF05B0
:1023300008F04EC0C0912046D0912146109122460F
:10234000009123460E945817FF92EF92DF92CF929E
:10235000BF92AF929F928F920F931F93DF93CF9371
:102360002AE630E43F932F939F938F930E94571E4A
:102370000E945B1784E990E40E948A1780911546B9
:102380002DB73EB7205F3F4F2DBF3EBF843641F48F
:102390000AC081508093154688E08093260406C0C9
:1023A0008F5F8093154688E0809325048091FE45D9
:1023B000843121F0909115469A3031F481E0809378
:1023C00017461092FE4509C08F5F8093FE4505C0F9
:1023D000809115468111DDCFDFCFDF91CF911F9125
:1023E0000F91FF90EF90DF90CF90BF90AF909F90B4
:1023F0008F90089580911746089510921746809106
:1024000015468A3028F08CEA90E40E94F518089569
:1024100087EB90E40E94F5180895CF9366E176E487
:102420008BE00E94D00FC82F882309F448C0409148
:1024300024465091254660912646709127468FE3A9
:1024400090E00E940A1F40912046509121466091E1
:1024500022467091234683E490E00E940A1F609117
:102460001E4670911F4687E490E00E94121F609103
:102470001C4670911D4689E490E00E94121F6091F5
:102480001A4670911B468BE490E00E94121F6091E7
:102490000A408DE490E00E94F21E609109408EE4B3
:1024A00090E00E94F21E609108408FE490E00E944C
:1024B000F21E609116468EE390E00E94F21E8C2F71
:1024C000CF9108954F925F926F927F928F929F92D9
:1024D000AF92BF92CF92DF92EF92FF92CF93DF93B2
:1024E000CDB7DEB72597CDBFDEBFDC019091144696
:1024F000993130F088E0809327041092144603C08D
:102500009F5F90931446FB01C184D284E384F484DA
:102510004091204650912146609122467091234679
:102520004C155D056E057F0540F4C0922046D092A3
:102530002146E0922246F0922346E09129464E2F12
:1025400050E04C30510508F0F4C2FA01E658FF4F54
:102550000C94E81C1092134681E080932946109257
:102560000F46109210461092114610921246109289
:102570000B4610920C4610920D4610920E46109289
:102580000746109208461092094610920A46E1E06A
:10259000DFC28AE00E943010882321F082E080931D
:1025A0002946C7C281EC90E40E948A17C2C280917A
:1025B0001946882309F4BDC283EF90E40E94F51800
:1025C00083E0809329461092054610920646B1C2D8
:1025D00080910546909106469C012F5F3F4F2093C6
:1025E00005463093064611964D915C911297052E43
:1025F000000C660B770BC0900F46D0901046E09011
:102600001146F0901246CB01BA016C0D7D1D8E1D56
:102610009F1D60930F4670931046809311469093D0
:10262000124613968D909C901497092C000CAA08C2
:10263000BB08C0900B46D0900C46E0900D46F09041
:102640000E468C0C9D1CAE1CBF1C80920B469092BB
:102650000C46A0920D46B0920E461596CD90DC9099
:1026600016970D2C000CEE08FF084090074650907E
:1026700008466090094670900A46C40CD51CE61CBA
:10268000F71CC0920746D0920846E0920946F092A5
:102690000A46283E334008F44CC20F2EF8EE4F2E67
:1026A000F3E05F2E612C712CF02DA30192010E94AA
:1026B000C91CCA01B9010E94361B0E942F1C0E942E
:1026C000FE1A69837D8360931E4670931F46C50181
:1026D000B401A30192010E94C91CCA01B9010E9460
:1026E000361B0E942F1C0E94FE1AB62EA72E609346
:1026F0001C4670931D46C701B601A30192010E94BA
:10270000C91CCA01B9010E94361B0E942F1C0E94DD
:10271000FE1AF62EE72E60931A4670931B460E940F
:102720005817EF92FF92AF92BF923D813F9349813C
:102730004F9328E131E43F932F939F938F930E940F
:10274000571E0E945B1784E080932946CDBFDEBFF1
:10275000F0C180911946882309F4EBC110922046FC
:102760001092214610922246109223468EE491E464
:102770000E94F51885E08093294610920546109234
:102780000646D7C18091054690910646FC013196D8
:10279000E0930546F093064611964D915C91129791
:1027A00020911E4630911F46421B530B052E000CF4
:1027B000660B770BC0900F46D0901046E090114604
:1027C000F0901246CB01BA016C0D7D1D8E1D9F1D30
:1027D00060930F4670931046809311469093124673
:1027E00013968D909C90149720911C4630911D4615
:1027F000821A930A092C000CAA08BB08C0900B4649
:10280000D0900C46E0900D46F0900E468C0C9D1C2E
:10281000AE1CBF1C80920B4690920C46A0920D46B7
:10282000B0920E461596CD90DC90169720911A46E0
:1028300030911B46C21AD30A0D2C000CEE08FF087B
:1028400040900746509008466090094670900A46AE
:10285000C40CD51CE61CF71CC0920746D092084653
:10286000E0920946F0920A46E83EF34008F461C15E
:102870000F2EF8EE4F2EF3E05F2E612C712CF02D11
:10288000A30192010E94C91CCA01B9010E94361B12
:102890000E942F1C0E94FE1A69837A838B839C837B
:1028A00060930F46709310468093114690931246A2
:1028B000C501B401A30192010E94C91CCA01B9015A
:1028C0000E94361B0E942F1C0E94FE1A4B015C01C5
:1028D00060930B4670930C4680930D4690930E4682
:1028E000C701B601A30192010E94C91CCA01B90126
:1028F0000E94361B0E942F1C0E94FE1A2B013C01D5
:1029000060930746709308468093094690930A4661
:1029100089819A810E947B10F82E80930A40C4011D
:102920000E947B10E82E80930940C2010E947B1018
:10293000D82E809308400E9458171F92DF921F9252
:10294000EF921F92FF9225E731E43F932F939F93DD
:102950008F930E94571E0E945B1786E08093294642
:10296000CDBFDEBFE6C0F9E2CF16D104E104F10429
:1029700040F48AEB91E40E948A1787E0809329460D
:10298000D8C080911946882309F4D3C08DE192E420
:102990000E94F518109205461092064610920146C4
:1029A00010920246109203461092044688E08093EB
:1029B0002946BFC080911946882309F4BAC086E031
:1029C00080932946B6C080910546909106469C01A9
:1029D0002F5F3F4F209305463093064640910146B6
:1029E000509102466091034670910446CB01BA01B2
:1029F0006C0D7D1D8E1D9F1D6093014670930246D8
:102A00008093034690930446283E334008F491C0D7
:102A100028EE33E040E050E00E94C91CCA01B90131
:102A20000E94361B0E942F1C0E94051B60932446A7
:102A30007093254680932646909327466832710509
:102A40008105910520F487E492E40E948A17609141
:102A500024467091254680912646909127460E94F3
:102A6000341B2DEC3CEC4CE85FE30E94C21B0E943F
:102A70002F1C0E94051BF62EE72ED82EC92E609320
:102A8000244670932546809326469093274660916E
:102A900020467091214680912246909123460E94C3
:102AA000341B2DEC3CEC4CE85FE30E94C21B0E94FF
:102AB0002F1C0E94051B6093204670932146809333
:102AC0002246909323460E945817CF92DF92EF92AE
:102AD000FF9223E932E43F932F939F938F930E94B9
:102AE000571E0E945B1789E080932946CDBFDEBF49
:102AF00020C0809119468823E1F084EC92E40E9482
:102B0000F5188AE080932946109214460E940D120F
:102B100010C082E00E943010882321F08BE0809367
:102B2000294607C081EC90E40E948A1702C01092E7
:102B3000294620911346E09129462E1309C0809121
:102B4000FF45909100468032A3E09A0798F0E22F6B
:102B5000F0E0EE0FFF1FE35FFF4B808191810E9449
:102B6000F51880912946809313461092FF451092E4
:102B7000004605C001968093FF4590930046259638
:102B8000CDBFDEBFDF91CF91FF90EF90DF90CF9070
:102B9000BF90AF909F908F907F906F905F904F907D
:102BA000089581E0909129469B3009F080E00895D6
:102BB000CF93DF93CDB7DEB76597CDBFDEBF8091F2
:102BC0001846811108C0329B09C081E080931846E5
:102BD0008093194603C0329B109218468091284674
:102BE0008130E9F038F0833009F446C0843009F4CC
:102BF00047C05AC0809129468B3021F482E00E9460
:102C0000301003C08AE00E943010882321F081E058
:102C10008093284664C082E08093284660C00E946A
:102C20001810882309F45BC0CE010E960E9435105F
:102C30008823E1F0BE016F5F7F4FCE010E960E94A8
:102C40001E11809129468B3049F4809119468111DB
:102C500005C0CE0101960E946E110BC0BE016F5FD0
:102C60007F4FCE010E960E94621203C082E08093D5
:102C700028461092194633C084E0809328462FC01E
:102C80000E940510882361F080E00E948E1010924F
:102C9000284682EE94E080930B4090930C401FC036
:102CA00082E0809328461BC080910B4090910C409D
:102CB000823E944058F08DED92E40E94F51881E038
:102CC00090E080930B4090930C4009C080910B40A2
:102CD00090910C40019680930B4090930C40659628
:102CE000CDBFDEBFDF91CF9108950E94E00788231A
:102CF00041F080912846823021F483E08093284679
:102D000008950E94E007811109C082E0809328465F
:102D100082EE94E080930B4090930C400895CF9303
:102D2000C82F81E594E40E948A17CC2329F081E022
:102D30000E943A0DC82F04C080E00E943A0DC82FAF
:102D40000E94C409882359F08DE794E40E948A17F1
:102D50008CE390E00E94ED1E0E9476080BC087EA8B
:102D600094E40E948A170E947108BC018CE390E0F1
:102D70000E94121FCC2329F085E690E40E948A1756
:102D800007C082E590E40E948A1785E080932B4675
:102D9000CF91089580912B468230B9F028F4882392
:102DA000E1F1813031F032C08330F9F08430A9F1A3
:102DB0002DC00E94FB0D811104C085E080932B463D
:102DC000089582E080932B4608950E94DB0D8823AE
:102DD00021F10E94790D811104C085E080932B467A
:102DE000089583E080932B46089588E0809327041C
:102DF0000E94020E882331F081E080932A461092CF
:102E00002B46089585E080932B4608958FED94E43A
:102E10000E94F51884E080932B46089580912B46FC
:102E2000811103C081E080932B4680912B46843032
:102E300019F485E080932B46089580912A460895E1
:102E4000CF92DF92EF92FF920F931F93CF93DF9376
:102E500010922A460E94C70FF62EE72ED82EC92EB2
:102E60000E94BE0FC62FD72F182F092F0E94FE18C1
:102E7000CF92DF92EF92FF920F931F93DF93CF9346
:102E80002AE035E43F932F939F938F930E94571E20
:102E90000E9401198DB79EB70C968DBF9EBFDF9122
:102EA000CF911F910F91FF90EF90DF90CF900895F9
:102EB0008BE297E408951F93CF93DF9380912B4784
:102EC000882321F1E0E6F8E0848180648483C0E017
:102ED000D0E010E00E9488078823E1F3C55DD84B5D
:102EE00088810E948E071F5FC12FD0E0FE01E55D43
:102EF000F84B8081882311F01F3F61F70E948807FB
:102F00008823E1F30E949C078111FCCFDF91CF91D0
:102F10001F910895EF92FF920F931F93CF93FC019F
:102F20002081222349F17C01E0E6F8E0848180647D
:102F30008483F7018081811114C016C00E94880724
:102F40008823E1F3F80180810E948E07CF5F87011B
:102F50000C0F111DF8019081992331F0CF3F71F7CB
:102F600003C08701C0E0EACF0E9488078823E1F30D
:102F70000E949C078111FCCFCF911F910F91FF9070
:102F8000EF9008958CE296E408951F93CF93DF931A
:102F900080912C46882359F1E0E4F8E08481806434
:102FA000848380912C46811116C019C00E940005AF
:102FB0008823E1F3C45DD94B88810E9406051F5F19
:102FC000C12FD0E0FE01E45DF94B8081882339F008
:102FD0001F3F61F704C0C0E0D0E010E0E7CF0E94DF
:102FE00000058823E1F30E9414058111FCCFDF91D5
:102FF000CF911F910895EF92FF920F931F93CF935C
:10300000FC012081222349F17C01E0E4F8E0848185
:1030100080648483F7018081811114C016C00E94EE
:1030200000058823E1F3F80180810E940605CF5F47
:1030300087010C0F111DF8019081992331F0CF3FCA
:1030400071F703C08701C0E0EACF0E940005882322
:10305000E1F30E9414058111FCCFCF911F910F91D4
:10306000FF90EF900895EF92FF920F931F93CF93ED
:10307000DF93FC012081222389F1D62F7C01E0E43B
:10308000F8E0848180648483F7018081811114C019
:1030900016C00E9400058823E1F3F80180810E9498
:1030A0000605CF5F87010C0F111DF8019081992350
:1030B00031F0CF3F71F703C08701C0E0EACF0E9433
:1030C00000058823E1F38D2F0E9406050E9400056C
:1030D0008823E1F30E9414058111FCCFDF91CF9189
:1030E0001F910F91FF90EF9008950E94531988232C
:1030F00059F081E495E40E944819882319F082E090
:1031000080932A480E9445190895A89581E08093EC
:10311000660488E495E40E94FB1784E690E00E9430
:10312000FE1908956DE08CE495E40E9433180E9426
:10313000A41981E08093650408951F93CF93DF93D2
:10314000EC01162FA89584E595E40E948A17CE011C
:103150000E948A1789E695E40E948A176DE0CE01E5
:103160000E94331860E575E4812F90E00E94CD192C
:10317000882329F085E690E40E948A1704C082E53E
:1031800090E40E948A17DF91CF911F91089581E00A
:10319000809365048EE695E40E948A170E94CA19FE
:1031A00087E895E40E948A170E948518811107C05C
:1031B00082E590E40E948A170E949218089585E69D
:1031C00090E40E948A176FEF80EA95E40E949D18B0
:1031D0000E94921882E080932A48089581E090919D
:1031E0002A48923009F080E008959C0190912A4885
:1031F000923019F4C9010E94FB1708950E94C2176A
:10320000089580912A48823011F40E94C5170895CC
:1032100090912E489923D1F0853261F4E0913048A5
:10322000F0E0EA5CF74B108210922E4881E0809328
:103230002C4806C0E0913048F0E0EA5CF74B808310
:10324000809130488F5F809330480895853231F403
:1032500081E080932E481092304808958D3021F4FB
:1032600091E090932F4805C08E3319F491E090932C
:103270002D48E0913148F0E0E65AF74B8083809189
:1032800031488F5F80933148089510922C480895FB
:10329000BC0186E398E40E94011E21E0892B09F419
:1032A00020E0822F089580912F480895E6E5F8E404
:1032B000138212821182108208950E945619109270
:1032C0002F4820912B48822F90E0FC01E65AF74BC3
:1032D00030813D3071F130913148231751F1E6E5ED
:1032E000F8E4718150812F5F03C0262F752F542F72
:1032F000FC01E65AF74B4081822F90E0FC01E65A30
:10330000F74B30813D3041F4E6E5F8E451837283B8
:10331000408320932B480DC03091314861E0620F0B
:103320003213E3CFE6E5F8E45183728340832093C0
:103330002B48FC01E65AF74B20812D3021F4FC018B
:10334000E65AF74B108208950E94561980E090E0EB
:10335000FC01EA5CF74B1082019680329105C1F7BF
:1033600080E090E0FC01E65AF74B1082019681154F
:1033700021E09207B9F7109230481092314810922C
:103380002B4810922F4810922E4810922D481092E0
:103390002C4808950E94A4190895CF92DF92EF92CD
:1033A000FF920F931F93CF937C016B0100E010E01D
:1033B000C0912F48CC2371F00E945D19B60186E5BB
:1033C00098E40E94011E892B11F000000EC000003D
:1033D000C0E00BC00E944908811104C00E944D0842
:1033E0000F5F1F4F0E151F0518F38C2FCF911F91E4
:1033F0000F91FF90EF90DF90CF900895EF92FF92A2
:103400000F931F93CF937C0100E010E0C0912D48F3
:10341000CC2319F010922D480BC00E94490881114D
:1034200004C00E944D080F5F1F4F0E151F0570F35B
:103430008C2FCF911F910F91FF90EF9008955058CE
:10344000BB27AA270E94371A0C94881B0E947A1B5C
:1034500038F00E94811B20F039F49F3F19F426F4C4
:103460000C94771B0EF4E095E7FB0C94711BE92F8D
:103470000E94991B58F3BA176207730784079507D0
:1034800020F079F4A6F50C94BB1B0EF4E0950B2EFE
:10349000BA2FA02D0B01B90190010C01CA01A001A6
:1034A0001124FF27591B99F0593F50F4503E68F101
:1034B0001A16F040A22F232F342F4427585FF3CF42
:1034C000469537952795A795F0405395C9F77EF413
:1034D0001F16BA0B620B730B840BBAF09150A1F05C
:1034E000FF0FBB1F661F771F881FC2F70EC0BA0FE2
:1034F000621F731F841F48F4879577956795B7956A
:10350000F7959E3F08F0B0CF9395880F08F0992764
:10351000EE0F9795879508950E94A01A0C94881B2A
:103520000E94811B58F00E947A1B40F029F45F3FF3
:1035300029F00C94711B51110C94BC1B0C94771B3B
:103540000E94991B68F39923B1F3552391F3951BBE
:10355000550BBB27AA2762177307840738F09F5FB4
:103560005F4F220F331F441FAA1FA9F335D00E2E21
:103570003AF0E0E832D091505040E695001CCAF78E
:103580002BD0FE2F29D0660F771F881FBB1F261751
:1035900037074807AB07B0E809F0BB0B802DBF0128
:1035A000FF2793585F4F3AF09E3F510578F00C94F7
:1035B000711B0C94BC1B5F3FE4F3983ED4F38695DB
:1035C00077956795B795F7959F5FC9F7880F911D18
:1035D0009695879597F90895E1E0660F771F881F04
:1035E000BB1F621773078407BA0720F0621B730BB7
:1035F000840BBA0BEE1F88F7E09508950E94051B17
:103600006894B1110C94BC1B08950E94A11B88F012
:103610009F5798F0B92F9927B751B0F0E1F0660F96
:10362000771F881F991F1AF0BA95C9F714C0B130D7
:1036300091F00E94BB1BB1E008950C94BB1B672F57
:10364000782F8827B85F39F0B93FCCF38695779506
:103650006795B395D9F73EF49095809570956195EF
:103660007F4F8F4F9F4F0895E89409C097FB3EF41A
:1036700090958095709561957F4F8F4F9F4F9923BF
:10368000A9F0F92F96E9BB279395F695879577953D
:103690006795B795F111F8CFFAF4BB0F11F460FFFD
:1036A0001BC06F5F7F4F8F4F9F4F16C0882311F055
:1036B00096E911C0772321F09EE8872F762F05C069
:1036C000662371F096E8862F70E060E02AF09A9504
:1036D000660F771F881FDAF7880F9695879597F9F9
:1036E000089597F99F6780E870E060E008959FEF84
:1036F00080EC089500240A94161617061806090689
:10370000089500240A941216130614060506089557
:10371000092E0394000C11F4882352F0BB0F40F4DF
:10372000BF2B11F460FF04C06F5F7F4F8F4F9F4F1F
:10373000089557FD9058440F551F59F05F3F71F0A1
:103740004795880F97FB991F61F09F3F79F0879508
:103750000895121613061406551FF2CF4695F1DF91
:1037600008C0161617061806991FF1CF8695710521
:10377000610508940895E894BB2766277727CB0155
:1037800097F908950E94D51B0C94881B0E947A1B00
:1037900038F00E94811B20F0952311F00C94711BCE
:1037A0000C94771B11240C94BC1B0E94991B70F382
:1037B000959FC1F3950F50E0551F629FF001729FD6
:1037C000BB27F00DB11D639FAA27F00DB11DAA1FE5
:1037D000649F6627B00DA11D661F829F2227B00D32
:1037E000A11D621F739FB00DA11D621F839FA00DBD
:1037F000611D221F749F3327A00D611D231F849F0D
:10380000600D211D822F762F6A2F11249F57504063
:103810009AF0F1F088234AF0EE0FFF1FBB1F661FDE
:10382000771F881F91505040A9F79E3F510580F0A7
:103830000C94711B0C94BC1B5F3FE4F3983ED4F3D3
:10384000869577956795B795F795E7959F5FC1F74B
:10385000FE2B880F911D9695879597F908950E94E4
:10386000A11BE8F09E37E8F09639B8F49E3848F48A
:10387000672F782F8827985FF9CF8695779567957A
:1038800093959539D0F3B62FB1706B0F711D811DD3
:1038900020F487957795679593950C94991C0C94D3
:1038A000B41C0C94BC1B19F416F40C94771B0C94E8
:1038B000B41C0E94A11BB8F39923C9F3B6F39F5718
:1038C000550B87FF0E94C21C0024A0E640EA90012D
:1038D00080585695979528F4805C660F771F881F4F
:1038E00020F026173707480730F4621B730B840B50
:1038F000202931294A2BA695179407942025312594
:103900004A2758F7660F771F881F20F026173707BA
:10391000480730F4620B730B840B200D311D411DE1
:10392000A09581F7B901842F9158880F96958795B6
:103930000895882371F4772321F09850872B762FF0
:1039400007C0662311F499270DC09051862B70E0B3
:1039500060E02AF09A95660F771F881FDAF7880FC4
:103960009695879597F908959F3F31F0915020F4EF
:10397000879577956795B795880F911D969587954B
:1039800097F9089591505040660F771F881FD2F71E
:103990000895052E97FB1EF400940E94E01C57FD2D
:1039A00007D00E94F11C07FC03D04EF40C94E01CDD
:1039B00050954095309521953F4F4F4F5F4F08955B
:1039C00090958095709561957F4F8F4F9F4F08958B
:1039D000EE0FFF1F0024001C0BBE0790F691E02D98
:1039E0000994A1E21A2EAA1BBB1BFD010DC0AA1F40
:1039F000BB1FEE1FFF1FA217B307E407F50720F058
:103A0000A21BB30BE40BF50B661F771F881F991FD2
:103A10001A9469F760957095809590959B01AC011B
:103A2000BD01CF010895283008F027E03327DA01DF
:103A3000990F311D87FD916000966105710539F47C
:103A400032602E5F3D9330E32A95E1F708959F3F62
:103A500030F080387105610509F03C5F3C5F3D93B3
:103A6000913008F08068911DDF93CF931F930F93DF
:103A7000FF92EF92192F987F9695E92F969596953C
:103A8000E90FFF27E259FE4F99273327EE24FF2441
:103A9000A701E70105900894079428F4360FE71E64
:103AA000F81E491F511D660F771F881F991F069426
:103AB000A1F70590079428F4E70EF81E491F561F3A
:103AC000C11D770F881F991F661F0694A1F70590E7
:103AD000079428F4F80E491F561FC71FD11D880FE1
:103AE000991F661F771F0694A1F70590079420F48D
:103AF000490F561FC71FD81F990F661F771F881FB2
:103B00000694A9F784911095177041F0D695C79542
:103B100057954795F794E7941A95C1F7E4E1F1E0DA
:103B200068941590159135916591959105907FE276
:103B30007395E118F10A430B560BC90BD009C0F776
:103B4000E10CF11E431F561FC91FD01D7EF47033B8
:103B500011F48A95E6CFE894015030F0080F0AF48A
:103B60000027021708F4202F2395022F7A3328F01C
:103B700079E37D932A95E9F710C07D932A9589F61C
:103B8000069497956795379517951794E118F10A5C
:103B9000430B560BC90BD00998F023957E91739572
:103BA0007A3308F070E37C932013B8F77E9170614C
:103BB0007D9330F0839571E37D9370E32A95E1F76F
:103BC0001124EF90FF900F911F91CF91DF919927D2
:103BD00087FD90950895FC0105906150704001109B
:103BE000D8F7809590958E0F9F1F0895FC01615026
:103BF000704001900110D8F7809590958E0F9F1F0F
:103C00000895FB0151915523A9F0BF01DC014D91AD
:103C100045174111E1F759F4CD010190002049F019
:103C20004D9140154111C9F3FB014111EFCF81E0E6
:103C300090E0019708950F931F93CF93DF93FB01BB
:103C4000238121FD03C08FEF9FEF2CC022FF16C000
:103C500046815781248135814217530744F4A0815E
:103C6000B1819D012F5F3F4F208331838C9326814B
:103C700037812F5F3F4F2683378314C08B01EC01C0
:103C8000FB010084F185E02D0995892BE1F6D8012F
:103C900016968D919C911797019616968D939C93ED
:103CA0001797CE01DF91CF911F910F9108950F9338
:103CB0001F93CF93DF93CDB7DEB72E97CDBFDEBF77
:103CC0000D891E8986E08C8309831A838FEF9FE715
:103CD0008D839E83AE01475E5F4F6F89788DCE01E5
:103CE00001960E942801EF81F885E00FF11F1082F4
:103CF0002E96CDBFDEBFDF91CF911F910F9108951A
:103D0000FA01AA27283051F1203181F1E8946F930C
:103D10006E7F6E5F7F4F8F4F9F4FAF4FB1E03ED0B2
:103D2000B4E03CD0670F781F891F9A1FA11D680F50
:103D3000791F8A1F911DA11D6A0F711D811D911D83
:103D4000A11D20D009F468943F912AE0269F1124F8
:103D50003019305D3193DEF6CF010895462F47705C
:103D6000405D4193B3E00FD0C9F7F6CF462F4F70B7
:103D7000405D4A3318F0495D31FD4052419302D015
:103D8000A9F7EACFB4E0A6959795879577956795BB
:103D9000BA95C9F700976105710508959B01AC01BB
:103DA0000A2E06945795479537952795BA95C9F7E2
:103DB000620F731F841F951FA01D089503D080817B
:103DC00099270895FC01E050FC4E08950E94E21EE0
:103DD000608171818281938108950E94E21E8081B9
:103DE00091810895262FAF93BF93E0E0F0E13281F7
:103DF00031FDFDCF3DE934BF33E13083DC01A0501C
:103E0000BC4E2C933DE934BF20E020830196BF9146
:103E1000AF910895242F0E94F31E252F0E94F31EB8
:103E20000C94121F0E94F21E272F0C94F31EF8947C
:023E3000FFCFC2
:103E32000000C8410000C841010101E20486458634
:103E420045094386453A4386457A43C44386451726
:103E52004486458645496E697469616C697A696E02
:103E620067204D4C583930333932204D61676E65C9
:103E7200746F6D657465722053656E736F722E2E4A
:103E82002E004641494C45440D0A0043414C204214
:103E920041440D0A004F4B0D0A004D6178205661D6
:103EA2006C75653A20256C752C20437261636B65D5
:103EB200643A20256C752C20666F756E6420256C23
:103EC200750D0A003C5468726573686F6C64204516
:103ED200786365656465643E202D2000416C6172E3
:103EE2006D204241440A00416C61726D204F4B0AC1
:103EF200005B4552525D204661696C656420746FB7
:103F0200206368616E6765204D4C58393033393211
:103F1200206F7065726174696E67206D6F64652EC3
:103F22000D0A00426567696E6E696E67206F706583
:103F32006E2077696E646F772063616C696272616B
:103F420074696F6E2E0D0A005A65726F696E672072
:103F5200436F6D706C6574652E20585F6F666620C6
:103F62003D2025642C20595F6F6666203D20256424
:103F72002C205A5F6F66663D2025640D0A0042655B
:103F820067696E6E696E6720636C6F736564207714
:103F9200696E646F772063616C6962726174696FC4
:103FA2006E2E0D0A005363616C696E6720436F6D5C
:103FB200706C657465642E20585F7363616C652054
:103FC200203D20325E25642C20595F7363616C654D
:103FD200203D20325E25642C205A5F7363616C653C
:103FE200203D20325E25640D0A005B4552525D2061
:103FF20053656E736F722076616C756520697320EC
:1040020062656C6F77206E6F697365206D61726790
:10401200696E2C20706C6561736520636C6F7365CB
:10402200207468652077696E646F7720616E642002
:1040320070726573732074686520627574746F6E34
:1040420020746F2072657472792E0D0A00426567C2
:10405200696E6E696E672077696E646F7720746827
:10406200726573686F6C642063616C6962726174FB
:10407200696F6E2E0D0A005B5741524E5D205468E7
:10408200726573686F6C642069732062656C6F7708
:10409200206E6F697365206D617267696E2E2053A1
:1040A200656E736F72206D6179206E6F74206F7010
:1040B200657261746520636F72726563746C792EC8
:1040C2000D0A005468726573686F6C642063616CDA
:1040D2006962726174696F6E20636F6D706C657472
:1040E200652E205468726573686F6C643A20256C83
:1040F200750D0A0043616C6962726174696F6E20AA
:10410200436F6D706C657465642E0D0A004D6167B6
:104112006E65746F6D657465722053656E736F7230
:10412200204572726F72202D205265626F6F74206B
:104132004465766963650D0A004F70656E20746888
:10414200652077696E646F7720616E642070726596
:1041520073732074686520627574746F6E20746F57
:104162002073746172742E0D0A00506C6561736560
:1041720020636C6F7365207468652077696E646F65
:104182007720616E64207468652070726573732095
:1041920074686520627574746F6E20746F20636F2B
:1041A2006E74696E75652E0D0A00506C65617365DB
:1041B200206F70656E207468652077696E646F7712
:1041C20020746F2074686520646573697265642069
:1041D2007468726573686F6C642C207468656E20F5
:1041E20070726573732074686520627574746F6E83
:1041F2002E0D0A005B4552525D2057696E646F773F
:1042020020697320746F6F206F70656E2E20506C62
:104212006561736520636C6F7365207468652077D0
:10422200696E646F7720616E6420707265737320AB
:1042320074686520627574746F6E20746F20726585
:104242007472792E0D0A00506C6561736520636C7F
:104252006F7365207468652077696E646F7720617B
:104262006E64207072657373207468652062757461
:10427200746F6E20746F2066696E6973682E0D0A02
:1042820000496E697469616C697A696E67204D4C88
:104292005839303633322054656D706572617475E9
:1042A20072652053656E736F722E2E2E000D0A4CAE
:1042B2006F616465642063616368656420636F6E27
:1042C2007374616E747320616E64207365747469B3
:1042D2006E67732E2E2E000D0A4C6F61646564208A
:1042E200636F6E7374616E74732066726F6D207388
:1042F200656E736F7220616E6420726573657420DF
:10430200746F2064656661756C74732E2E2E005472
:10431200656D70657261747572652053656E736F39
:1043220072204572726F72202D205265626F6F7417
:10433200204465766963650D0A0053656E736F727A
:104342002054656D70657261747572653A2025320C
:104352002E3266430D0A526F6F6D2054656D706583
:104362007261747572653A2025322E3266430D0AE7
:10437200005245424F4F5400242424002D2D2D007D
:104382004B4F4100457865637574696E6720436FD2
:104392006D6D616E643A202200222E2E2E00496E2F
:1043A200697469616C697A696E6720524E34383774
:1043B200302E2E2E0D0A00456E746572696E6720CE
:1043C200436F6D6D616E64204D6F64652E2E2E00FD
:0C43D200532D2C4D4348502D4D4C5800ED
:02000004008278
:090000000800000000C00D000022
:00000001FF
