:100000000C9407010C9426010C9426010C942601F3
:100010000C94E4070C9481080C94B5080C94260108
:100020000C9426010C9426010C9426010C942601B4
:100030000C9426010C9426010C9426010C942601A4
:100040000C9426010C9426010C9426010C94260194
:100050000C9426010C9426010C9426010C94260184
:100060000C9426010C9426010C9426010C94260174
:100070000C9426010C9426010C9426010C94260164
:100080000C9426010C9426010C9426010C94260154
:100090000C9426010C9426010C941C050C9426014A
:1000A0000C9426010C9426010C9426010C94260134
:1000B0000C9426010C9426010C9426010C94260124
:1000C0000C9426010C9426010C9426010C94260114
:1000D0000C9426010C94A4070C9426010C94260180
:1000E0000C9426010C9426010C9426010C942601F4
:1000F0000C942601A812C712D512E612A713C0133A
:10010000B114D814E1147715871595156E616E003A
:10011000696E660000407A10F35A00A0724E18090A
:100120000010A5D4E80000E87648170000E40B545E
:10013000020000CA9A3B000000E1F505000080962D
:100140009800000040420F000000A086010000005F
:10015000102700000000E803000000006400000019
:1001600000000A00000000000100000000002C76E2
:10017000D888DC674F0823DFC1DFAE59E1B1B796FD
:10018000E5E3E453C63AE651997696E8E6C284265A
:10019000EB898C9B62ED407C6FFCEFBC9C9F40F236
:1001A000BAA56FA5F490055A2AF75C936B6CF967B2
:1001B0006DC11BFCE0E40D47FEF520E6B500D0ED77
:1001C000902E0300943577050080841E08000020DF
:1001D0004E0A000000C80C333333330F986E12837D
:1001E0001141EF8D2114893BE65516CFFEE6DB1851
:1001F000D1844B381BF77C1D901DA4BBE424203216
:1002000084725E228100C9F124ECA1E53D2711240E
:100210001FBECFEFCDBFDFE7DEBF15E4A0E0B0E447
:10022000ECEEFDE300E00BBF02C007900D92A63A92
:10023000B107D9F729E4A6EAB5E401C01D92A235B9
:10024000B207E1F70E9444100C94F41E0C940000D5
:100250002F923F924F925F926F927F928F929F92D6
:10026000AF92BF92CF92DF92EF92FF920F931F93C4
:10027000CF93DF93CDB7DEB76097CDBFDEBF7C01F4
:100280001B016A01FC0116821782838181FF44C32E
:100290009E012F5F3F4F3901F7019381F10193FDDB
:1002A000859193FF81911F01882309F431C3853221
:1002B00039F493FD859193FF81911F01853239F4C3
:1002C000B70190E00E94F81D56016501E5CF10E0EE
:1002D000512C912CFFE1F915D8F08B3279F038F4DC
:1002E000803279F08332A1F4F92DF0612EC08D3285
:1002F00061F0803369F4292D21602DC0392D3260E1
:10030000932E892D8460982E2AC0E92DE86015C0AF
:1003100097FC2DC020ED280F2A3088F496FE06C0E9
:100320003AE0139F200D1124122F19C08AE0589E25
:10033000200D1124522EE92DE0629E2E10C08E3227
:1003400031F496FCE5C2F92DF0649F2E08C08C367E
:1003500021F4292D2068922E02C0883641F4F10143
:1003600093FD859193FF81911F018111B3CF9BEB89
:10037000980F933020F4992D9061805E07C09BE91F
:10038000980F933008F066C1992D9F7E96FF16E076
:100390009F73992E853619F49064992E08C086367D
:1003A00021F4392F3068932E02C01111115097FE9D
:1003B00007C01C3350F444244394410E27E00BC083
:1003C000183038F027E017E005C027E09CE3492EFD
:1003D00002C0212F412C560184E0A80EB11CF60169
:1003E0006081718182819381042DA3010E94F01CA0
:1003F0006C01F981FC87F0FF02C0F3FF06C091FC9D
:1004000006C092FE06C000E205C00DE203C00BE28A
:1004100001C000E08C858C7019F001115AC29BC29A
:1004200097FE10C04C0CFC85F4FF04C08A81813318
:1004300009F44A94141474F528E0241578F588E03A
:10044000482E2CC096FC2AC0812F90E08C159D056B
:100450009CF03CEFC3163FEFD30674F0892D806803
:10046000982E0AC0E2E0F0E0EC0FFD1FE10FF11D55
:100470008081803319F411501111F4CF97FE0EC012
:1004800044244394410E812F90E0C816D9062CF4E1
:100490001C1904C04424439401C010E097FE06C018
:1004A0001C141D0434F4C601019605C085E090E0DB
:1004B00002C081E090E001110196112331F0212F5B
:1004C00030E02F5F3F4F820F931F252D30E08217C2
:1004D000930714F4581A01C0512C892D897049F4DE
:1004E000552039F0B70180E290E00E94F81D5A943F
:1004F000F7CF002329F0B701802F90E00E94F81D6C
:1005000093FC09C0552039F0B70180E390E00E94C8
:10051000F81D5A94F7CF97FE4CC04601D7FE02C093
:10052000812C912CC60188199909F301E80FF91F54
:10053000ED87FE879601241931092F87388B012F0B
:1005400010E01195019511093FEF8316930629F4E8
:10055000B7018EE290E00E94F81DC814D9044CF057
:100560008F8598898815990524F4ED85FE8581810C
:1005700001C080E3F1E08F1A91082D853E852F5F41
:100580003F4F2D873E87801691062CF0B70190E0F3
:100590000E94F81DD9CFC814D90441F49A8196332A
:1005A00020F4953319F43C8534FF81E3B70190E0E2
:1005B0004EC08A81813319F09C859F7E9C87B7014C
:1005C00090E00E94F81D111105C094FC18C085E64A
:1005D00090E017C0B7018EE290E00E94F81D1E5F08
:1005E00082E001E0080FF301E80FF11D8081B701FF
:1005F00090E00E94F81D802F0113F3CFE6CF85E431
:1006000090E0B7010E94F81DD7FC06C0C114D104C8
:1006100041F4EC85E4FF05C0D194C194D1088DE28A
:1006200001C08BE2B70190E00E94F81D80E32AE050
:10063000C216D1042CF08F5FFAE0CF1AD108F7CFA1
:10064000B70190E00E94F81DB701C601C0960E9454
:10065000F81D54C1833631F0833779F0833509F0C2
:1006600056C020C0560132E0A30EB11CF6018081B5
:10067000898301E010E0630112C05601F2E0AF0E81
:10068000B11CF601C080D18096FE03C0612F70E0DE
:1006900002C06FEF7FEFC6010E94D31D8C01F92DC0
:1006A000FF7714C0560122E0A20EB11CF601C080F3
:1006B000D18096FE03C0612F70E002C06FEF7FEF24
:1006C000C6010E94C81D8C01F92DF0689F2EF3FD14
:1006D0001AC0852D90E008171907A8F4B70180E229
:1006E00090E00E94F81D5A94F4CFF60197FC859192
:1006F00097FE81916F01B70190E00E94F81D5110A3
:100700005A94015011090115110579F7F7C0843683
:1007100011F0893661F5560197FE09C024E0A20E5A
:10072000B11CF60160817181828193810AC0F2E07F
:10073000AF0EB11CF60160817181072E000C880B91
:10074000990BF92DFF769F2E97FF09C09095809504
:10075000709561957F4F8F4F9F4FF0689F2E2AE0D5
:1007600030E0A3010E945D1EC82EC6183FC0092DAF
:10077000853721F40F7E2AE030E01DC0097F8F36D7
:1007800091F018F4883559F0C3C0803719F08837D4
:1007900011F0BEC0006104FF09C0046007C094FEF0
:1007A00008C0066006C028E030E005C020E130E067
:1007B00002C020E132E0560107FF09C084E0A80E24
:1007C000B11CF601608171818281938108C0F2E0E1
:1007D000AF0EB11CF6016081718180E090E0A30151
:1007E0000E945D1EC82EC6180F77902E96FE0BC075
:1007F000092D0E7FC11650F494FE0AC092FC08C069
:10080000092D0E7E05C0DC2C092D03C0DC2C01C097
:10081000D12E04FF0DC0FE01EC0DF11D808180334F
:1008200011F4097E09C002FF06C0D394D39404C01A
:10083000802F867809F0D39403FD11C000FF06C015
:100840001C2DD51480F4150D1D190DC0D51458F4A8
:10085000B70180E290E00E94F81DD394F7CFD51441
:1008600010F45D1801C0512C04FF10C0B70180E3E3
:1008700090E00E94F81D02FF17C001FD03C088E749
:1008800090E002C088E590E0B7010CC0802F867828
:1008900059F001FF02C08BE201C080E207FD8DE24A
:1008A000B70190E00E94F81DC11638F4B70180E34B
:1008B00090E00E94F81D1150F7CFCA94F301EC0D9F
:1008C000F11D8081B70190E00E94F81DC110F5CFA5
:1008D00015C0F4E0F51560F584E0581A93FE1FC0CA
:1008E000011127C02C8523FF2AC00CE011E0392D0F
:1008F0003071932EF8018491811124C0552009F4A0
:10090000E4CCB70180E290E00E94F81D5A94F6CF43
:10091000F7018681978126C08FEF9FEF23C0B70133
:1009200080E290E00E94F81D5A945110F8CFD8CF81
:10093000512CB701802F90E00E94F81DD3CF00E129
:1009400011E0D5CF91108052B70190E00E94F81DC0
:100950000F5F1F4FCFCF23E0251510F483E0BDCFED
:10096000512CC0CF6096CDBFDEBFDF91CF911F91DC
:100970000F91FF90EF90DF90CF90BF90AF909F903E
:100980008F907F906F905F904F903F902F90089541
:100990001092284810922948E0E4F8E081E083872B
:1009A00080E8858383E087838BE890E08087918768
:1009B00016820895A0EAB4E090E115969C931597ED
:1009C000E0EEF5E082818F7C828382818061828388
:1009D00011969C93119780E212968C930895E0E40F
:1009E000F8E08681806486830895E0E4F8E08681FB
:1009F00080688683089580932848909329480895B5
:100A00008091440885FB882780F90895CF93C82FEB
:100A10000E940005882331F0E0E4F8E094819064BE
:100A20009483C283CF9108958091440886FB8827E0
:100A300080F991E0892708951F920F920FB60F92C7
:100A400011240BB60F922F933F934F935F936F93A5
:100A50007F938F939F93AF93BF93EF93FF93809177
:100A60004008E0912848F0912948309709F009950D
:100A7000FF91EF91BF91AF919F918F917F916F9176
:100A80005F914F913F912F910F900BBE0F900FBE32
:100A90000F901F901895809105098C7141F49091E9
:100AA0000509937081E0933019F080E0089581E0AA
:100AB0000895E0E0F9E084E08083118281E08283A0
:100AC0009DEF95839FE0968383830895A0E4B4E02F
:100AD0009CE011969C931197E0EEF5E085818C7F68
:100AE00085838581826085831C969C93089590916F
:100AF000050993709330E1F0880F682B6093070924
:100B0000E0E0F9E0858185FD0AC0858182FD07C0AE
:100B1000858183FD04C085818370833099F70E94AD
:100B20004B05882339F083E08093040980E0089521
:100B300080E0089581E0089520E22093050966236E
:100B4000D1F0A82FB92F90E0E0E0F9E022E0858114
:100B500085FD17C0858182FD07C0858183FD04C0A6
:100B600085818370833099F780858D939F5F6917A6
:100B700011F02483ECCF87E0809304090895248347
:100B8000E6CF80858D939F5F6913F9CFF4CF6623FD
:100B900009F1DC016150262F30E02F5F3F4F280F15
:100BA000391FE0E0F9E09D919087958195FD0AC09D
:100BB000958192FD07C0958193FD04C09581937046
:100BC000933099F7958194FD07C0A217B30759F7A1
:100BD00081E0089581E0089580E008951F93CF9308
:100BE000DF93EB01142F60E00E947705882339F032
:100BF000612FCE010E94C70593E090930409DF9115
:100C0000CF911F9108950F931F93CF938B0161E0B4
:100C10000E947705C82F882321F061E0C8010E9457
:100C20009C058C2FCF911F910F9108950F931F93C7
:100C3000CF93DF938B01D42F61E00E947705C82FFB
:100C4000882321F06D2FC8010E949C058C2FDF9115
:100C5000CF911F910F910895EF92FF920F931F93E1
:100C6000CF93DF931F92CDB7DEB769838A01E22E5F
:100C700060E00E947705F82E882369F161E0CE01DB
:100C800001960E94C705F82E811104C083E080936D
:100C9000040921C0E0E0F9E087818160878381E079
:100CA0008483858185FD0AC0858182FD07C0858199
:100CB00083FD04C085818370833099F70E944B05C2
:100CC000882329F083E080930409F12C04C06E2D61
:100CD000C8010E949C058F2D0F90DF91CF911F912D
:100CE0000F91FF90EF900895809125098C7141F448
:100CF00090912509937081E0933019F080E0089578
:100D000081E00895E0E2F9E084E08083118281E0EF
:100D100082839DEF95839FE0968383830895E0EA25
:100D2000F4E08CE0818398E0938784870895909124
:100D3000250993709330E1F0880F682B60932709A1
:100D4000E0E2F9E0858185FD0AC0858182FD07C06A
:100D5000858183FD04C085818370833099F70E946B
:100D60007406882339F083E08093240980E0089595
:100D700080E0089581E0089520E22093250966230C
:100D8000D1F0A82FB92F90E0E0E2F9E022E08581D0
:100D900085FD17C0858182FD07C0858183FD04C064
:100DA00085818370833099F780858D939F5F691764
:100DB00011F02483ECCF87E08093240908952483E5
:100DC000E6CF80858D939F5F6913F9CFF4CF6623BB
:100DD00009F1DC016150262F30E02F5F3F4F280FD3
:100DE000391FE0E2F9E09D919087958195FD0AC059
:100DF000958192FD07C0958193FD04C09581937004
:100E0000933099F7958194FD07C0A217B30759F75E
:100E100081E0089581E0089580E008951F93CF93C5
:100E2000DF93EB01142F60E00E949706882339F0CE
:100E3000612FCE010E94E70693E090932409DF9191
:100E4000CF911F910895DF92EF92FF920F931F931E
:100E5000CF93DF937B01D42EE90160E00E949706D7
:100E6000182F882361F16D2DC7010E94E706182F06
:100E7000811104C083E08093240921C0E0E2F9E0FD
:100E800087818160878381E08483858185FD0AC0B5
:100E9000858182FD07C0858183FD04C085818370C3
:100EA000833099F70E947406882329F083E08093A9
:100EB000240910E004C0602FCE010E94BC06812FDF
:100EC000DF91CF911F910F91FF90EF90DF900895E8
:100ED0001092284810922948E0E6F8E081E08387E4
:100EE00080E8858383E087838BE890E08087918723
:100EF00016820895E0E2F4E081E08583818382E058
:100F000082830895E0E6F8E0868180648683089510
:100F10008091640885FB882780F90895CF93C82FB6
:100F20000E948807882331F0E0E6F8E0948190641D
:100F30009483C283CF9108958091640886FB8827AB
:100F400080F991E0892708951F920F920FB60F92B2
:100F500011240BB60F922F933F934F935F936F9390
:100F60007F938F939F93AF93BF93EF93FF93809162
:100F70006008E0912848F0912948309709F00995D8
:100F8000FF91EF91BF91AF919F918F917F916F9161
:100F90005F914F913F912F910F900BBE0F900FBE1D
:100FA0000F901F9018951092A6451092A74581E0CA
:100FB0008093C00008958093A6459093A745089517
:100FC0008091C200817008951F920F920FB60F9208
:100FD00011240BB60F922F933F934F935F936F9310
:100FE0007F938F939F93AF93BF93EF93FF93E09182
:100FF000A645F091A745309709F00995E0ECF0E09F
:10100000818181608183FF91EF91BF91AF919F9129
:101010008F917F916F915F914F913F912F910F90A1
:101020000BBE0F900FBE0F901F90189583E080931A
:101030005000089581E080933E020E94E7080E94DC
:10104000D3070E9459050E9466050E9482060E94ED
:101050008F060E94C8040E94DA040E9468070E945A
:101060007A070E94F5040E94EF040E9482070E9402
:101070003C080E9453080895E0E0FBE081E080878F
:1010800096E09183848320EA3FE02487358780833C
:1010900008958091070B817008950000000081E0A1
:1010A00080930002089510922A4810922B481092C3
:1010B0002C4810922D48E0E4F1E081E08583858B97
:1010C0008283178220E03FE02287338799EB908369
:1010D000828B81E3808B089580932C4890932D48D8
:1010E000089580914A0190914B0108959C01E0E49C
:1010F000F1E0918192FDFDCF20934A0130934B01A5
:1011000008951F920F920FB60F9211240BB60F92F3
:101110002F933F934F935F936F937F938F939F93FF
:10112000AF93BF93EF93FF9380914301E0912C48DD
:10113000F0912D48309709F00995E0E4F1E08381C2
:1011400081608383FF91EF91BF91AF919F918F91C8
:101150007F916F915F914F913F912F910F900BBEB7
:101160000F900FBE0F901F9018951F920F920FB601
:101170000F9211240BB60F922F933F934F935F93CF
:101180006F937F938F939F93AF93BF93EF93FF934F
:10119000E0912A48F0912B48309709F00995E0E456
:1011A000F1E083898160838BFF91EF91BF91AF91D3
:1011B0009F918F917F916F915F914F913F912F916F
:1011C0000F900BBE0F900FBE0F901F901895E0E28E
:1011D000F4E088E8828B88E08183E0E6F4E081E057
:1011E0008583818308950F939B01E8EAF5E490835A
:1011F0008183042F42E0BF018AE30E9423070F91FD
:101200000895CF93DF93CDEAD5E46881798180E0BA
:1012100090E00E94EF1E6A817B8182E090E00E9454
:10122000EF1E6C817D8184E090E00E94EF1E409172
:10123000EF455091F0456091F1457091F24586E09F
:1012400090E00E94E71E4091EB455091EC45609183
:10125000ED457091EE458AE090E00E94E71E4091D6
:10126000E7455091E8456091E9457091EA458EE087
:1012700090E00E94E71E4091E3455091E445609163
:10128000E5457091E64582E190E00E94E71E4091BD
:10129000DF455091E0456091E1457091E24586E17E
:1012A00090E00E94E71E4091DB455091DC45609143
:1012B000DD457091DE458AE190E00E94E71E409195
:1012C000D7455091D8456091D9457091DA458EE166
:1012D00090E00E94E71E4091D3455091D445609123
:1012E000D5457091D64582E290E00E94E71E40917C
:1012F000CF455091D0456091D1457091D24586E25D
:1013000090E00E94E71E4091CB455091CC45609102
:10131000CD457091CE458AE290E00E94E71E409153
:10132000C7455091C8456091C9457091CA458EE244
:1013300090E00E94E71E4091C3455091C4456091E2
:10134000C5457091C64582E390E00E94E71E40913A
:10135000BF455091C0456091C1457091C24586E33B
:1013600090E00E94E71E688179818A819B816827CD
:1013700079278C819D81682779278AE390E00E94F4
:10138000EF1EDF91CF9108958091F34508950F935B
:101390001F93CF93DF93CDB7DEB72697CDBFDEBFC8
:1013A0008C0146E0BE016F5F7F4F85E094E20E94B2
:1013B000F3088823D9F0898190E0982F88272A8123
:1013C000822BF801808391838B8190E0982F88276E
:1013D0002C81822B828393838D8190E0982F8827A4
:1013E0002E81822B8483958381E001C080E0269644
:1013F000CDBFDEBFDF91CF911F910F9108958F92E6
:101400009F92AF92BF92CF92DF92EF92FF921F9383
:10141000CF93DF9300D0CDB7DEB78DEA95E40E947D
:10142000C709182F882309F4DCC080E090E00E94EF
:10143000CA1E6C0182E090E00E94CA1E5C0184E03A
:1014400090E00E94CA1E4C017601EA24FB24E826A3
:10145000F9268AE390E00E94CA1E89839A838981D3
:101460009A81E816F90609F0B5C08091AD459091D2
:10147000AE45C816D90609F0AFC08091AF4590912E
:10148000B045A816B90609F0A9C08091B145909160
:10149000B2458816990609F0A3C086E090E00E9444
:1014A000C31E6093EF457093F0458093F145909390
:1014B000F2458AE090E00E94C31E6093EB45709372
:1014C000EC458093ED459093EE458EE090E00E94D0
:1014D000C31E6093E7457093E8458093E945909378
:1014E000EA4582E190E00E94C31E6093E345709359
:1014F000E4458093E5459093E64586E190E00E94BF
:10150000C31E6093DF457093E0458093E14590935F
:10151000E2458AE190E00E94C31E6093DB45709330
:10152000DC458093DD459093DE458EE190E00E949E
:10153000C31E6093D7457093D8458093D945909347
:10154000DA4582E290E00E94C31E6093D345709317
:10155000D4458093D5459093D64586E290E00E948D
:10156000C31E6093CF457093D0458093D14590932F
:10157000D2458AE290E00E94C31E6093CB457093EF
:10158000CC458093CD459093CE458EE290E00E946D
:10159000C31E6093C7457093C8458093C945909317
:1015A000CA4582E390E00E94C31E6093C3457093D6
:1015B000C4458093C5459093C64586E390E00E945C
:1015C000C31E6093BF457093C0458093C1459093FF
:1015D000C24507C010E005C010E003C010E001C024
:1015E00010E0812F0F900F90DF91CF911F91FF900E
:1015F000EF90DF90CF90BF90AF909F908F90089525
:10160000CF92DF92EF92FF921F93CF93DF93CDB7EC
:10161000DEB76897CDBFDEBF8DEA95E40E94C709AB
:10162000182F882309F41AC240E1BE016F5F7F4F73
:101630008CE094E20E94F308882309F40AC22B810B
:101640006C81862F90E0A0E0B0E0DC01992788272C
:10165000B22B2A81AC01BD01422B898190E0982FE9
:101660008827A0E0B0E06A017B01C82AD92AEA2ACB
:10167000FB2AC701B6010E94131B20E030E040E8BE
:101680005BE30E949F1B6093EF457093F04580934E
:10169000F1459093F2452F816885862F90E0A0E078
:1016A000B0E0DC0199278827B22B2E81AC01BD0167
:1016B000422B8D8190E0982F8827A0E0B0E06A014E
:1016C0007B01C82AD92AEA2AFB2AC701B6010E944F
:1016D000131B20E030E040E855E30E949F1B60931D
:1016E000EB457093EC458093ED459093EE452B854B
:1016F0006C85862F90E0A0E0B0E0DC019927882778
:10170000B22B2A85AC01BD01422B898590E0982F30
:101710008827A0E0B0E06A017B01C82AD92AEA2A1A
:10172000FB2AC701B6010E94131B20E030E040E80D
:1017300059E20E949F1B6093E7457093E8458093B0
:10174000E9459093EA452F856889862F90E0A0E0CF
:10175000B0E0DC0199278827B22B2E85AC01BD01B2
:10176000422B8D8590E0982F8827A0E0B0E06A0199
:101770007B01C82AD92AEA2AFB2AC701B6010E949E
:10178000131B20E030E040E85BE30E949F1B609366
:10179000E3457093E4458093E5459093E64548E141
:1017A000BE016F5F7F4F84E294E20E94F3088823BA
:1017B00009F451C12B816C81862F90E0A0E0B0E04C
:1017C000DC0199278827B22B2A81AC01BD01422B6D
:1017D000898190E0982F8827A0E0B0E06A017B0122
:1017E000C82AD92AEA2AFB2AC701B6010E94131B7C
:1017F00020E030E040E857E30E949F1B6093DF4504
:101800007093E0458093E1459093E2452F81688590
:10181000862F90E0A0E0B0E0DC0199278827B22B6A
:101820002E81AC01BD01422B8D8190E0982F88273D
:10183000A0E0B0E06A017B01C82AD92AEA2AFB2A83
:10184000C701B6010E94131B20E030E040E85BE3D3
:101850000E949F1B6093DB457093DC458093DD45C0
:101860009093DE452B856C85862F90E0A0E0B0E05C
:10187000DC0199278827B22B2A85AC01BD01422BB8
:10188000898590E0982F8827A0E0B0E06A017B016D
:10189000C82AD92AEA2AFB2AC701B6010E94131BCB
:1018A00020E030E040E858E20E949F1B6093D7455B
:1018B0007093D8458093D9459093DA452F856889F0
:1018C000862F90E0A0E0B0E0DC0199278827B22BBA
:1018D0002E85AC01BD01422B8D8590E0982F882785
:1018E000A0E0B0E06A017B01C82AD92AEA2AFB2AD3
:1018F000C701B6010E94131B20E030E040E85DE222
:101900000E949F1B6093D3457093D4458093D54527
:101910009093D6452B896C89862F90E0A0E0B0E0AB
:10192000DC0199278827B22B2A89AC01BD01422B03
:10193000898990E0982F8827A0E0B0E06A017B01B8
:10194000C82AD92AEA2AFB2AC701B6010E94131B1A
:1019500020E030E040E85DE20E949F1B6093CF45AD
:101960007093D0458093D1459093D2456D8970E0B6
:10197000762F66278E89682B072E000C880B990B13
:101980000E94131B20E030E040E85AE30E949F1BB6
:101990006093CB457093CC458093CD459093CE45D5
:1019A0006F8970E0762F6627888D682B072E000CD4
:1019B000880B990B0E94131B20E030E040E85AE3AB
:1019C0000E949F1B6093C7457093C8458093C9458B
:1019D0009093CA4544E0BE016F5F7F4F81E894E277
:1019E0000E94F3088823C9F1698170E0762F662789
:1019F0008A81682B072E000C880B990B0E94131B01
:101A000020E030E040E858E30E949F1B6093C3450C
:101A10007093C4458093C5459093C6456B8170E033
:101A2000762F66278C81682B072E000C880B990B6C
:101A30000E94131B20E030E040E85AE30E949F1B05
:101A40006093BF457093C0458093C1459093C24554
:101A500005C010E003C010E001C010E0812F6896BF
:101A6000CDBFDEBFDF91CF911F91FF90EF90DF9050
:101A7000CF900895CF93811105C00E94FF09C82F10
:101A8000811108C00E94000BC82F882331F00E94EA
:101A9000010903C081E08093F3458C2FCF91089515
:101AA0000F93CF93DF93EB01E8EAF5E49083818312
:101AB00002E02AEA35E442E0BF018AE30E942307FC
:101AC000882361F0E8EAF5E4828190E0982F882786
:101AD0002381822B8883998381E001C080E0DF919C
:101AE000CF910F910895BC018FEF9FE30E94500D9D
:101AF0000895CF93DF93CDB7DEB72E97CDBFDEBF6E
:101B000042E0BE016F5F7F4F8FEF9FE30E94F308BB
:101B1000882309F447C08A818C7790E09595879552
:101B2000959587958093AC454CE0BE016D5F7F4FE6
:101B300083E090E40E94F3088823B1F1E3EBF5E43D
:101B40008B8190E0982F88272C81822B8083918332
:101B50008D8190E0982F88272E81822B828393831A
:101B60008F8190E0982F88272885822B8483958306
:101B7000898590E0982F88272A85822B86839783F2
:101B80008B8590E0982F88272C85822B80879187E2
:101B90008D8590E0982F88272E85822B82879387CA
:101BA00081E003C080E001C080E02E96CDBFDEBFA3
:101BB000DF91CF910895CF93DF9300D0CDB7DEB7FB
:101BC000CE0101960E94730D882319F089818170DE
:101BD00001C080E00F900F90DF91CF910895E8EA67
:101BE000F5E4908381837283638344E0BF018AE3D9
:101BF0000E940E07089562E078E081E090E30E9481
:101C0000EF0D08954F925F926F927F928F929F9205
:101C1000AF92BF92CF92DF92EF92FF92CF93DF937A
:101C2000CDB7DEB76197CDBFDEBF8091AC458230C6
:101C300029F08091AC45813009F08DC16091BD459E
:101C40007091BE45072E000C880B990B0E94131B48
:101C50004B015C016091B7457091B845072E000CAF
:101C6000880B990B0E94131B20E030E040E451E404
:101C70000E94691A6B017C012091CB453091CC45C3
:101C80004091CD455091CE450E949F1BA5019401E6
:101C90000E94FD199B01AC01C701B6010E94691A9F
:101CA00020E030E040E059E40E949F1B69837A8382
:101CB0008B839C838091AC458130A9F4E3EBF5E400
:101CC0006081718182819381680F791F072E000CDA
:101CD000880B990B0E94131B20E030E040E05FE38B
:101CE0000E949F1B14C0E3EBF5E466817781808539
:101CF0009185680F791F072E000C880B990B0E94A5
:101D0000131B20E030E040E05FE30E949F1B20E0D7
:101D100030E040E451E40E94691A2B013C0120911B
:101D2000C7453091C8454091C9455091CA45C70142
:101D3000B6010E949F1BA50194010E94FD199B0101
:101D4000AC01C301B2010E94691A20E030E040E01A
:101D500059E40E949F1B6D837E838F839887209117
:101D6000EF453091F0454091F1455091F245698140
:101D70007A818B819C810E94FC194B015C0120912E
:101D8000EB453091EC454091ED455091EE450E9478
:101D9000691A2091E3453091E4454091E545509121
:101DA000E6450E94FD192B013C01A5019401C501E6
:101DB000B4010E949F1B2091E7453091E845409176
:101DC000E9455091EA450E949F1B9B01AC01C3016C
:101DD000B2010E94FD192B013C01609300407093F9
:101DE0000140809302409093034023E333E948E8A5
:101DF00053E40E94FD194B015C012091C3453091D1
:101E0000C4454091C5455091C6456091D7457091F4
:101E1000D8458091D9459091DA450E949F1B6983EE
:101E20007A838B839C838091CF459091D045A091FC
:101E3000D145B091D24589879A87AB87BC8720E08E
:101E400030E048EC51E4C301B2010E94FC1920913A
:101E5000D3453091D4454091D5455091D6450E9407
:101E60009F1B6D877E878F87988BA5019401C50185
:101E7000B4010E949F1BA50194010E949F1BA50114
:101E800094010E949F1B2B013C01C090BF45D09044
:101E9000C045E090C145F090C24593E0B0E0A0E0BD
:101EA000F8ECE1E4998B20E030E048EC51E46B2F52
:101EB0007A2F8F2F9E2F0E94FC1929853A854B85FA
:101EC0005C850E949F1B20E030E040E85FE30E94B9
:101ED000FD192D853E854F8558890E94FD19298160
:101EE0003A814B815C810E949F1B9B01AC016D81FB
:101EF0007E818F8198850E94691A4B015C01A30144
:101F00009201C501B4010E94FD190E94361C0E9475
:101F1000361C23E333E948E853E40E94FC19A70187
:101F200096010E94FC19A989A150A98BB62FA72F51
:101F3000F82FE92F29892111B6CFC62ED72EE82EEA
:101F4000F92EC0920440D0920540E0920640F092F3
:101F5000074081E001C080E06196CDBFDEBFDF9128
:101F6000CF91FF90EF90DF90CF90BF90AF909F9078
:101F70008F907F906F905F904F9008956091004098
:101F800070910140809102409091034008956091CA
:101F9000044070910540809106409091074008955B
:101FA0000F931F93CF93C82F8B010E94E0078823C4
:101FB00031F021E0A8016C2F8CE00E942C06CF911B
:101FC0001F910F9108950F931F93CF93DF9300D02C
:101FD000CDB7DEB7082F162F0E94E007882349F0FF
:101FE00009831A8342E0BE016F5F7F4F8CE00E943D
:101FF000EE050F900F90DF91CF911F910F910895F3
:1020000066E081E10E94E30F08950E94001088239A
:1020100059F065EB85E10E94E30F882339F06DE20A
:1020200084E10E94E30F089580E0089580E0089520
:10203000CF93DF931F92CDB7DEB70E94E0078823CE
:1020400059F01982BE016F5F7F4F8CE00E9403063A
:10205000882311F0898181700F90DF91CF910895CD
:10206000682F80E10E94E30F0895CF93DF93EC0186
:102070000E94E007882329F048E0BE018CE00E941E
:102080001606DF91CF9108950E9416080E941A0843
:1020900086EF98E10E94FB048CE097E10E946C08B7
:1020A00083E796E10E94DB07C6B1C2FBCC27C0F9EB
:1020B0008C2F0E94F8108C2F0E948D1678940E940D
:1020C000B518A8950E94D6150E94CF1581110E94BF
:1020D000C8160E94DC18882351F00E94F811811163
:1020E0000E94FB110E941B1781110E941E178895E8
:1020F000E8CF99231CF49195819591099C01803832
:10210000910544F081E0359527958F5F20383105A2
:10211000D4F7089581E008951F93CF93DF931F9222
:10212000CDB7DEB7182F10921F46BE016F5F7F4FED
:102130008BE00E94D00F882309F450C08EE390E01A
:102140000E94BB1E11114CC0998189134BC08FE3B3
:1021500090E00E94C31E60931A4670931B468093C2
:102160001C4690931D4683E490E00E94C31E60933A
:10217000164670931746809318469093194687E445
:1021800090E00E94CA1E809314469093154689E4FD
:1021900090E00E94CA1E80931246909313468BE4EF
:1021A00090E00E94CA1E80931046909311468DE4E1
:1021B00090E00E94BB1E80930A408EE490E00E9453
:1021C000BB1E809309408FE490E00E94BB1E809369
:1021D00008408BE080931F4681E005C080E003C08B
:1021E00080E001C080E00F90DF91CF911F910895B2
:1021F000CF93C82F85E290E40E9488170E940510B3
:10220000811108C082E590E40E94881782E08093E3
:102210001E4610C08C2F0E948C10811107C08BE5C8
:1022200090E40E94881710921F4604C085E690E44F
:102230000E948817CF910895DC01FB0111966D91E2
:102240007C9112978091144690911546681B790BEA
:1022500000900A4002C0759567950A94E2F7608382
:1022600013962D913C9114978091124690911346AC
:10227000281B390B0090094002C0359527950A9418
:10228000E2F7218315964D915C9116978091104647
:1022900090911146481B590B0090084002C055957B
:1022A00047950A94E2F742832202C0011124660294
:1022B000800D911D11244402800D911D1124A0E078
:1022C000B0E081879287A387B48713821482158236
:1022D00016821782108608958F929F92AF92BF92B6
:1022E000CF92DF92EF92FF920F931F93CF93DF93E2
:1022F000FC01C184D284E384F48480901A469090D7
:102300001B46A0901C46B0901D46C814D904EA0490
:10231000FB0470F08091164690911746A0911846E4
:10232000B09119468C159D05AE05BF0508F04EC04D
:10233000C0911646D0911746109118460091194643
:102340000E945617FF92EF92DF92CF92BF92AF9208
:102350009F928F920F931F93DF93CF932AE630E4DF
:102360003F932F939F938F930E94341E0E9459177F
:1023700084E990E40E94881780910B462DB73EB700
:10238000205F3F4F2DBF3EBF843641F40AC08150CD
:1023900080930B4688E08093260406C08F5F80936D
:1023A0000B4688E0809325048091F445843121F028
:1023B00090910B469A3031F481E080930D46109253
:1023C000F44509C08F5F8093F44505C080910B46AA
:1023D0008111DDCFDFCFDF91CF911F910F91FF9062
:1023E000EF90DF90CF90BF90AF909F908F90089527
:1023F00080910D46089510920D4680910B468A30CB
:1024000028F08CEA90E40E94E318089587EB90E4AA
:102410000E94E3180895CF936CE076E48BE00E946D
:10242000D00FC82F882309F448C040911A46509114
:102430001B4660911C4670911D468FE390E00E9400
:10244000E71E4091164650911746609118467091CC
:10245000194683E490E00E94E71E60911446709153
:10246000154687E490E00E94EF1E6091124670913D
:10247000134689E490E00E94EF1E6091104670912F
:1024800011468BE490E00E94EF1E60910A408DE4BB
:1024900090E00E94CF1E609109408EE490E00E947F
:1024A000CF1E609108408FE490E00E94CF1E6091A3
:1024B0000C468EE390E00E94CF1E8C2FCF910895A2
:1024C0004F925F926F927F928F929F92AF92BF9244
:1024D000CF92DF92EF92FF92CF93DF93CDB7DEB72B
:1024E0002597CDBFDEBFDC0190910A46993130F0CF
:1024F00088E08093270410920A4603C09F5F909360
:102500000A46FB01C184D284E384F48440911646D8
:102510005091174660911846709119464C155D050B
:102520006E057F0540F4C0921646D0921746E092A1
:102530001846F0921946E0911F464E2F50E04C305D
:10254000510508F0F4C2FA01E658FF4F0C94C51C7F
:102550001092094681E080931F4610920546109222
:1025600006461092074610920846109201461092B5
:10257000024610920346109204461092FD451092B6
:10258000FE451092FF4510920046E1E0DFC28AE06E
:102590000E943010882321F082E080931F46C7C23A
:1025A00081EC90E40E948817C2C280910F46882374
:1025B00009F4BDC283EF90E40E94E31883E08093A6
:1025C0001F461092FB451092FC45B1C28091FB451D
:1025D0009091FC459C012F5F3F4F2093FB4530932A
:1025E000FC4511964D915C911297052E000C660BDF
:1025F000770BC0900546D0900646E0900746F090D5
:102600000846CB01BA016C0D7D1D8E1D9F1D609388
:1026100005467093064680930746909308461396A6
:102620008D909C901497092C000CAA08BB08C090B0
:102630000146D0900246E0900346F09004468C0C90
:102640009D1CAE1CBF1C8092014690920246A09237
:102650000346B09204461596CD90DC9016970D2C4B
:10266000000CEE08FF084090FD455090FE4560903C
:10267000FF4570900046C40CD51CE61CF71CC092A8
:10268000FD45D092FE45E092FF45F0920046283E7F
:10269000334008F44CC20F2EF8EE4F2EF3E05F2EBD
:1026A000612C712CF02DA30192010E94A61CCA017D
:1026B000B9010E94131B0E940C1C0E94DB1A698343
:1026C0007D836093144670931546C501B401A30140
:1026D00092010E94A61CCA01B9010E94131B0E940C
:1026E0000C1C0E94DB1AB62EA72E60931246709324
:1026F0001346C701B601A30192010E94A61CCA019C
:10270000B9010E94131B0E940C1C0E94DB1AF62EBA
:10271000E72E60931046709311460E945617EF9271
:10272000FF92AF92BF923D813F9349814F9328E141
:1027300031E43F932F939F938F930E94341E0E9406
:10274000591784E080931F46CDBFDEBFF0C1809152
:102750000F46882309F4EBC11092164610921746D3
:1027600010921846109219468EE491E40E94E318E4
:1027700085E080931F461092FB451092FC45D7C11F
:102780008091FB459091FC45FC013196E093FB451F
:10279000F093FC4511964D915C911297209114464F
:1027A00030911546421B530B052E000C660B770B20
:1027B000C0900546D0900646E0900746F090084647
:1027C000CB01BA016C0D7D1D8E1D9F1D60930546CA
:1027D00070930646809307469093084613968D9013
:1027E0009C9014972091124630911346821A930AB6
:1027F000092C000CAA08BB08C0900146D0900246E4
:10280000E0900346F09004468C0C9D1CAE1CBF1C4F
:102810008092014690920246A0920346B0920446EE
:102820001596CD90DC901697209110463091114668
:10283000C21AD30A0D2C000CEE08FF084090FD458B
:102840005090FE456090FF4570900046C40CD51C2A
:10285000E61CF71CC092FD45D092FE45E092FF4574
:10286000F0920046E83EF34008F461C10F2EF8EE06
:102870004F2EF3E05F2E612C712CF02DA3019201FD
:102880000E94A61CCA01B9010E94131B0E940C1CC5
:102890000E94DB1A69837A838B839C83609305464D
:1028A000709306468093074690930846C501B4018D
:1028B000A30192010E94A61CCA01B9010E94131B28
:1028C0000E940C1C0E94DB1A4B015C0160930146C4
:1028D000709302468093034690930446C701B60165
:1028E000A30192010E94A61CCA01B9010E94131BF8
:1028F0000E940C1C0E94DB1A2B013C016093FD45D9
:102900007093FE458093FF459093004689819A819C
:102910000E947910F82E80930A40C4010E94791019
:10292000E82E80930940C2010E947910D82E80932E
:1029300008400E9456171F92DF921F92EF921F923B
:10294000FF9225E731E43F932F939F938F930E944B
:10295000341E0E94591786E080931F46CDBFDEBF0C
:10296000E6C0F9E2CF16D104E104F10440F48AEBA9
:1029700091E40E94881787E080931F46D8C0809119
:102980000F46882309F4D3C08DE192E40E94E31836
:102990001092FB451092FC451092F7451092F845B5
:1029A0001092F9451092FA4588E080931F46BFC007
:1029B00080910F46882309F4BAC086E080931F46B1
:1029C000B6C08091FB459091FC459C012F5F3F4F25
:1029D0002093FB453093FC454091F7455091F845D5
:1029E0006091F9457091FA45CB01BA016C0D7D1DDE
:1029F0008E1D9F1D6093F7457093F8458093F945B0
:102A00009093FA45283E334008F491C028EE33E015
:102A100040E050E00E94A61CCA01B9010E94131BAD
:102A20000E940C1C0E94E21A60931A4670931B4687
:102A300080931C4690931D4668327105810591056F
:102A400020F487E492E40E94881760911A467091FE
:102A50001B4680911C4690911D460E94111B2DEC37
:102A60003CEC4CE85FE30E949F1B0E940C1C0E9400
:102A7000E21AF62EE72ED82EC92E60931A467093CE
:102A80001B4680931C4690931D466091164670919C
:102A9000174680911846909119460E94111B2DEC03
:102AA0003CEC4CE85FE30E949F1B0E940C1C0E94C0
:102AB000E21A6093164670931746809318469093D7
:102AC00019460E945617CF92DF92EF92FF9223E9A8
:102AD00032E43F932F939F938F930E94341E0E9462
:102AE000591789E080931F46CDBFDEBF20C080917B
:102AF0000F468823E1F084EC92E40E94E3188AE018
:102B000080931F4610920A460E940B1210C082E06A
:102B10000E943010882321F08BE080931F4607C06D
:102B200081EC90E40E94881702C010921F46209109
:102B30000946E0911F462E1309C08091F5459091FA
:102B4000F6458032A3E09A0798F0E22FF0E0EE0F0E
:102B5000FF1FE35FFF4B808191810E94E31880910A
:102B60001F46809309461092F5451092F64505C020
:102B700001968093F5459093F6452596CDBFDEBF2F
:102B8000DF91CF91FF90EF90DF90CF90BF90AF900B
:102B90009F908F907F906F905F904F90089581E00D
:102BA00090911F469B3009F080E00895CF93DF930A
:102BB000CDB7DEB76597CDBFDEBF80910E468111E0
:102BC00008C0329B09C081E080930E4680930F4677
:102BD00003C0329B10920E4680911E468130E9F070
:102BE00038F0833009F446C0843009F447C05AC035
:102BF00080911F468B3021F482E00E94301003C088
:102C00008AE00E943010882321F081E080931E46E4
:102C100064C082E080931E4660C00E941810882322
:102C200009F45BC0CE010E960E9435108823E1F0B6
:102C3000BE016F5F7F4FCE010E960E941C118091E6
:102C40001F468B3049F480910F46811105C0CE019B
:102C500001960E946C110BC0BE016F5F7F4FCE01C9
:102C60000E960E94601203C082E080931E4610926E
:102C70000F4633C084E080931E462FC00E9405108B
:102C8000882361F080E00E948C1010921E4682EE34
:102C900094E080930B4090930C401FC082E080939F
:102CA0001E461BC080910B4090910C40823E944088
:102CB00058F08DED92E40E94E31881E090E080935B
:102CC0000B4090930C4009C080910B4090910C40B8
:102CD000019680930B4090930C406596CDBFDEBF6C
:102CE000DF91CF9108950E94E007882341F0809101
:102CF0001E46823021F483E080931E4608950E9490
:102D0000E007811109C082E080931E4682EE94E0C4
:102D100080930B4090930C400895CF93C82F81E58A
:102D200094E40E948817CC2329F081E00E943A0D98
:102D3000C82F04C080E00E943A0DC82F0E94C40929
:102D4000882359F08DE794E40E9488178CE390E083
:102D50000E94CA1E0E9476080BC087EA94E40E9473
:102D600088170E947108BC018CE390E00E94EF1E5E
:102D7000CC2329F085E690E40E94881707C082E5FD
:102D800090E40E94881785E080932146CF910895B2
:102D9000809121468230B9F028F48823E1F1813016
:102DA00031F032C08330F9F08430A9F12DC00E9497
:102DB000FB0D811104C085E080932146089582E0D7
:102DC0008093214608950E94DB0D882321F10E9403
:102DD000790D811104C085E080932146089583E038
:102DE00080932146089588E0809327040E94020E74
:102DF000882331F081E08093204610922146089587
:102E000085E08093214608958FED94E40E94E318B5
:102E100084E080932146089580912146811103C06A
:102E200081E08093214680912146843019F485E029
:102E3000809321460895809120460895CF92DF9295
:102E4000EF92FF920F931F93CF93DF931092204640
:102E50000E94C70FF62EE72ED82EC92E0E94BE0F55
:102E6000C62FD72F182F092F0E94EC18CF92DF9270
:102E7000EF92FF920F931F93DF93CF932AE035E4F5
:102E80003F932F939F938F930E94341E0E94EF18BD
:102E90008DB79EB70C968DBF9EBFDF91CF911F91CE
:102EA0000F91FF90EF90DF90CF90089581E297E42B
:102EB00008951F93CF93DF9380912147882321F1B9
:102EC000E0E6F8E0848180648483C0E0D0E010E034
:102ED0000E9488078823E1F3CF5DD84B88810E9448
:102EE0008E071F5FC12FD0E0FE01EF5DF84B8081A0
:102EF000882311F01F3F61F70E9488078823E1F3C0
:102F00000E949C078111FCCFDF91CF911F91089502
:102F1000EF92FF920F931F93CF93FC012081222306
:102F200049F17C01E0E6F8E0848180648483F70164
:102F30008081811114C016C00E9488078823E1F3A4
:102F4000F80180810E948E07CF5F87010C0F111D51
:102F5000F8019081992331F0CF3F71F703C08701C9
:102F6000C0E0EACF0E9488078823E1F30E949C0713
:102F70008111FCCFCF911F910F91FF90EF90089599
:102F800082E296E408951F93CF93DF9380912246C7
:102F9000882359F1E0E4F8E084818064848380919F
:102FA0002246811116C019C00E9400058823E1F352
:102FB000CE5DD94B88810E9406051F5FC12FD0E0EE
:102FC000FE01EE5DF94B8081882339F01F3F61F7E8
:102FD00004C0C0E0D0E010E0E7CF0E9400058823E5
:102FE000E1F30E9414058111FCCFDF91CF911F9175
:102FF0000895EF92FF920F931F93CF93FC012081CE
:10300000222349F17C01E0E4F8E084818064848338
:10301000F7018081811114C016C00E940005882329
:10302000E1F3F80180810E940605CF5F87010C0F54
:10303000111DF8019081992331F0CF3F71F703C042
:103040008701C0E0EACF0E9400058823E1F30E94D7
:1030500014058111FCCFCF911F910F91FF90EF903C
:103060000895EF92FF920F931F93CF93DF93FC018C
:103070002081222389F1D62F7C01E0E4F8E08481CD
:1030800080648483F7018081811114C016C00E947E
:1030900000058823E1F3F80180810E940605CF5FD7
:1030A00087010C0F111DF8019081992331F0CF3F5A
:1030B00071F703C08701C0E0EACF0E9400058823B2
:1030C000E1F38D2F0E9406050E9400058823E1F39D
:1030D0000E9414058111FCCFDF91CF911F910F91B8
:1030E000FF90EF900895A89581E08093660481E4B5
:1030F00095E40E94F91784E690E00E94DB19089598
:103100006DE085E495E40E9431180E94811981E008
:103110008093650408951F93CF93DF93EC01162FDE
:10312000A8958DE495E40E948817CE010E94881727
:1031300082E695E40E9488176DE0CE010E94311866
:1031400069E475E4812F90E00E94AA19882329F090
:1031500085E690E40E94881704C082E590E40E940E
:103160008817DF91CF911F91089581E080936504C6
:1031700087E695E40E9488170E94A71980E895E4E5
:103180000E9488170E947318811107C082E590E49D
:103190000E9488170E948018089585E690E40E9496
:1031A00088176FEF89E995E40E948B180E948018B8
:1031B00082E080932048089581E0909120489230E9
:1031C00009F080E008959C0190912048923019F414
:1031D000C9010E94F91708950E94C01708958091AF
:1031E0002048823011F40E94C3170895909124481A
:1031F0009923D1F0853261F4E0912648F0E0E25D58
:10320000F74B10821092244881E08093224806C038
:10321000E0912648F0E0E25DF74B808380912648FC
:103220008F5F809326480895853231F481E0809342
:1032300024481092264808958D3021F491E090930F
:10324000254805C08E3319F491E090932348E0910E
:103250002748F0E0EE5AF74B8083809127488F5F34
:10326000809327480895EEE4F8E4138212821182D5
:10327000108208950E943319109225482091214808
:10328000822F90E0FC01EE5AF74B30813D3071F116
:1032900030912748231751F1EEE4F8E47181508111
:1032A0002F5F03C0262F752F542FFC01EE5AF74BCA
:1032B0004081822F90E0FC01EE5AF74B30813D3087
:1032C00041F4EEE4F8E45183728340832093214873
:1032D0000DC03091274861E0620F3213E3CFEEE476
:1032E000F8E451837283408320932148FC01EE5A15
:1032F000F74B20812D3021F4FC01EE5AF74B108260
:1033000008950E94331980E090E0FC01E25DF74BE4
:103310001082019680329105C1F780E090E0FC01B7
:10332000EE5AF74B10820196811521E09207B9F70A
:103330001092264810922748109221481092254852
:1033400010922448109223481092224808950E9417
:1033500081190895CF92DF92EF92FF920F931F93FE
:10336000CF937C016B0100E010E0C0912548CC2395
:1033700071F00E943A19B6018EE498E40E94DE1DB5
:10338000892B11F000000EC00000C0E00BC00E94AD
:103390004908811104C00E944D080F5F1F4F0E1590
:1033A0001F0518F38C2FCF911F910F91FF90EF9075
:1033B000DF90CF900895EF92FF920F931F93CF93DA
:1033C0007C0100E010E0C0912348CC2319F010925A
:1033D00023480BC00E944908811104C00E944D0877
:1033E0000F5F1F4F0E151F0570F38C2FCF911F918C
:1033F0000F91FF90EF9008955058BB27AA270E9485
:10340000141A0C94651B0E94571B38F00E945E1B17
:1034100020F039F49F3F19F426F40C94541B0EF459
:10342000E095E7FB0C944E1BE92F0E94761B58F3A6
:10343000BA17620773078407950720F079F4A6F599
:103440000C94981B0EF4E0950B2EBA2FA02D0B01B7
:10345000B90190010C01CA01A0011124FF27591BD9
:1034600099F0593F50F4503E68F11A16F040A22FDF
:10347000232F342F4427585FF3CF46953795279550
:10348000A795F0405395C9F77EF41F16BA0B620B4F
:10349000730B840BBAF09150A1F0FF0FBB1F661F96
:1034A000771F881FC2F70EC0BA0F621F731F841FD9
:1034B00048F4879577956795B795F7959E3F08F0FF
:1034C000B0CF9395880F08F09927EE0F97958795C1
:1034D00008950E947D1A0C94651B0E945E1B58F093
:1034E0000E94571B40F029F45F3F29F00C944E1BBB
:1034F00051110C94991B0C94541B0E94761B68F379
:103500009923B1F3552391F3951B550BBB27AA279C
:1035100062177307840738F09F5F5F4F220F331FD6
:10352000441FAA1FA9F335D00E2E3AF0E0E832D09E
:1035300091505040E695001CCAF72BD0FE2F29D0A1
:10354000660F771F881FBB1F261737074807AB0773
:10355000B0E809F0BB0B802DBF01FF2793585F4FE8
:103560003AF09E3F510578F00C944E1B0C94991B39
:103570005F3FE4F3983ED4F3869577956795B795CA
:10358000F7959F5FC9F7880F911D9695879597F9D5
:103590000895E1E0660F771F881FBB1F621773074E
:1035A0008407BA0720F0621B730B840BBA0BEE1F63
:1035B00088F7E09508950E94E21A6894B1110C947E
:1035C000991B08950E947E1B88F09F5798F0B92F91
:1035D0009927B751B0F0E1F0660F771F881F991F48
:1035E0001AF0BA95C9F714C0B13091F00E94981B37
:1035F000B1E008950C94981B672F782F8827B85F47
:1036000039F0B93FCCF3869577956795B395D9F79F
:103610003EF490958095709561957F4F8F4F9F4FA9
:103620000895E89409C097FB3EF4909580957095B5
:1036300061957F4F8F4F9F4F9923A9F0F92F96E9FE
:10364000BB279395F695879577956795B795F11173
:10365000F8CFFAF4BB0F11F460FF1BC06F5F7F4F10
:103660008F4F9F4F16C0882311F096E911C0772322
:1036700021F09EE8872F762F05C0662371F096E82B
:10368000862F70E060E02AF09A95660F771F881FFA
:10369000DAF7880F9695879597F9089597F99F67B8
:1036A00080E870E060E008959FEF80EC08950024CA
:1036B0000A941616170618060906089500240A9497
:1036C00012161306140605060895092E0394000C1D
:1036D00011F4882352F0BB0F40F4BF2B11F460FFAC
:1036E00004C06F5F7F4F8F4F9F4F089557FD9058D5
:1036F000440F551F59F05F3F71F04795880F97FBB6
:10370000991F61F09F3F79F087950895121613066F
:103710001406551FF2CF4695F1DF08C0161617069E
:103720001806991FF1CF86957105610508940895D3
:10373000E894BB2766277727CB0197F908950E9465
:10374000B21B0C94651B0E94571B38F00E945E1B35
:1037500020F0952311F00C944E1B0C94541B112453
:103760000C94991B0E94761B70F3959FC1F3950FE3
:1037700050E0551F629FF001729FBB27F00DB11DF5
:10378000639FAA27F00DB11DAA1F649F6627B00D85
:10379000A11D661F829F2227B00DA11D621F739F6E
:1037A000B00DA11D621F839FA00D611D221F749F7C
:1037B0003327A00D611D231F849F600D211D822FC3
:1037C000762F6A2F11249F5750409AF0F1F08823EA
:1037D0004AF0EE0FFF1FBB1F661F771F881F915017
:1037E0005040A9F79E3F510580F00C944E1B0C945D
:1037F000991B5F3FE4F3983ED4F3869577956795E0
:10380000B795F795E7959F5FC1F7FE2B880F911D40
:103810009695879597F908950E947E1BE8F09E374C
:10382000E8F09639B8F49E3848F4672F782F882747
:10383000985FF9CF86957795679593959539D0F3ED
:10384000B62FB1706B0F711D811D20F48795779590
:10385000679593950C94761C0C94911C0C94991B71
:1038600019F416F40C94541B0C94911C0E947E1BAA
:10387000B8F39923C9F3B6F39F57550B87FF0E94FE
:103880009F1C0024A0E640EA900180585695979529
:1038900028F4805C660F771F881F20F026173707F3
:1038A000480730F4621B730B840B202931294A2B03
:1038B000A69517940794202531254A2758F7660FB7
:1038C000771F881F20F026173707480730F4620B50
:1038D000730B840B200D311D411DA09581F7B9019B
:1038E000842F9158880F969587950895882371F4B1
:1038F000772321F09850872B762F07C0662311F489
:1039000099270DC09051862B70E060E02AF09A95BF
:10391000660F771F881FDAF7880F9695879597F9B6
:1039200008959F3F31F0915020F4879577956795E2
:10393000B795880F911D9695879597F908959150A1
:103940005040660F771F881FD2F70895052E97FB0A
:103950001EF400940E94BD1C57FD07D00E94CE1C8F
:1039600007FC03D04EF40C94BD1C50954095309547
:1039700021953F4F4F4F5F4F0895909580957095DB
:1039800061957F4F8F4F9F4F0895EE0FFF1F0024CB
:10399000001C0BBE0790F691E02D0994A1E21A2EAF
:1039A000AA1BBB1BFD010DC0AA1FBB1FEE1FFF1FE3
:1039B000A217B307E407F50720F0A21BB30BE40B33
:1039C000F50B661F771F881F991F1A9469F760957A
:1039D0007095809590959B01AC01BD01CF01089534
:1039E000283008F027E03327DA01990F311D87FDD1
:1039F000916000966105710539F432602E5F3D9348
:103A000030E32A95E1F708959F3F30F08038710543
:103A1000610509F03C5F3C5F3D93913008F08068A0
:103A2000911DDF93CF931F930F93FF92EF92192F66
:103A3000987F9695E92F96959695E90FFF27E2597D
:103A4000FE4F99273327EE24FF24A701E7010590B5
:103A50000894079428F4360FE71EF81E491F511DDD
:103A6000660F771F881F991F0694A1F7059007948A
:103A700028F4E70EF81E491F561FC11D770F881F37
:103A8000991F661F0694A1F70590079428F4F80E75
:103A9000491F561FC71FD11D880F991F661F771F0B
:103AA0000694A1F70590079420F4490F561FC71FED
:103AB000D81F990F661F771F881F0694A9F7849156
:103AC0001095177041F0D695C79557954795F7947F
:103AD000E7941A95C1F7E4E1F1E068941590159127
:103AE00035916591959105907FE27395E118F10A02
:103AF000430B560BC90BD009C0F7E10CF11E431F55
:103B0000561FC91FD01D7EF4703311F48A95E6CF7D
:103B1000E894015030F0080F0AF40027021708F467
:103B2000202F2395022F7A3328F079E37D932A956D
:103B3000E9F710C07D932A9589F6069497956795C5
:103B4000379517951794E118F10A430B560BC90BDB
:103B5000D00998F023957E9173957A3308F070E33D
:103B60007C932013B8F77E9170617D9330F083953C
:103B700071E37D9370E32A95E1F71124EF90FF90B4
:103B80000F911F91CF91DF91992787FD909508950F
:103B9000FC010590615070400110D8F78095909518
:103BA0008E0F9F1F0895FC0161507040019001101D
:103BB000D8F7809590958E0F9F1F0895FB01519126
:103BC0005523A9F0BF01DC014D9145174111E1F7E3
:103BD00059F4CD010190002049F04D91401541115B
:103BE000C9F3FB014111EFCF81E090E00197089507
:103BF0000F931F93CF93DF93FB01238121FD03C01C
:103C00008FEF9FEF2CC022FF16C046815781248181
:103C100035814217530744F4A081B1819D012F5F84
:103C20003F4F208331838C93268137812F5F3F4F15
:103C30002683378314C08B01EC01FB010084F185DE
:103C4000E02D0995892BE1F6D80116968D919C916E
:103C50001797019616968D939C931797CE01DF9137
:103C6000CF911F910F9108950F931F93CF93DF93DF
:103C7000CDB7DEB72E97CDBFDEBF0D891E8986E09A
:103C80008C8309831A838FEF9FE78D839E83AE0118
:103C9000475E5F4F6F89788DCE0101960E942801A3
:103CA000EF81F885E00FF11F10822E96CDBFDEBFA9
:103CB000DF91CF911F910F910895FA01AA27283023
:103CC00051F1203181F1E8946F936E7F6E5F7F4FE9
:103CD0008F4F9F4FAF4FB1E03ED0B4E03CD0670F65
:103CE000781F891F9A1FA11D680F791F8A1F911DB8
:103CF000A11D6A0F711D811D911DA11D20D009F408
:103D000068943F912AE0269F11243019305D319349
:103D1000DEF6CF010895462F4770405D4193B3E032
:103D20000FD0C9F7F6CF462F4F70405D4A3318F0D9
:103D3000495D31FD4052419302D0A9F7EACFB4E08A
:103D4000A6959795879577956795BA95C9F7009742
:103D50006105710508959B01AC010A2E06945795E3
:103D6000479537952795BA95C9F7620F731F841F3A
:103D7000951FA01D089503D0808199270895FC0107
:103D8000E050FC4E08950E94BF1E608171818281C7
:103D9000938108950E94BF1E808191810895262FEE
:103DA000AF93BF93E0E0F0E1328131FDFDCF3DE91B
:103DB00034BF33E13083DC01A050BC4E2C933DE98D
:103DC00034BF20E020830196BF91AF910895242F46
:103DD0000E94D01E252F0E94D01E0C94EF1E0E9420
:0C3DE000CF1E272F0C94D01EF894FFCFAC
:103DEC000000C8410000C841010101E2047F457F89
:103DFC004509437F453A437F457A43C4437F451782
:103E0C00447F457F45496E697469616C697A696E56
:103E1C0067204D4C583930333932204D61676E650F
:103E2C00746F6D657465722053656E736F722E2E90
:103E3C002E004641494C45440D0A0043414C20425A
:103E4C0041440D0A004F4B0D0A004D61782056611C
:103E5C006C75653A20256C752C20437261636B651B
:103E6C00643A20256C752C20666F756E6420256C69
:103E7C00750D0A003C5468726573686F6C6420455C
:103E8C00786365656465643E202D2000416C617229
:103E9C006D204241440A00416C61726D204F4B0A07
:103EAC00005B4552525D204661696C656420746FFD
:103EBC00206368616E6765204D4C58393033393258
:103ECC00206F7065726174696E67206D6F64652E0A
:103EDC000D0A00426567696E6E696E67206F7065CA
:103EEC006E2077696E646F772063616C69627261B2
:103EFC0074696F6E2E0D0A005A65726F696E6720B9
:103F0C00436F6D706C6574652E20585F6F6666200C
:103F1C003D2025642C20595F6F6666203D2025646A
:103F2C002C205A5F6F66663D2025640D0A004265A1
:103F3C0067696E6E696E6720636C6F73656420775A
:103F4C00696E646F772063616C6962726174696F0A
:103F5C006E2E0D0A005363616C696E6720436F6DA2
:103F6C00706C657465642E20585F7363616C65209A
:103F7C00203D20325E25642C20595F7363616C6593
:103F8C00203D20325E25642C205A5F7363616C6582
:103F9C00203D20325E25640D0A005B4552525D20A7
:103FAC0053656E736F722076616C75652069732032
:103FBC0062656C6F77206E6F697365206D617267D7
:103FCC00696E2C20706C6561736520636C6F736512
:103FDC00207468652077696E646F7720616E642049
:103FEC0070726573732074686520627574746F6E7B
:103FFC0020746F2072657472792E0D0A0042656709
:10400C00696E6E696E672077696E646F772074686D
:10401C00726573686F6C642063616C696272617441
:10402C00696F6E2E0D0A005B5741524E5D2054682D
:10403C00726573686F6C642069732062656C6F774E
:10404C00206E6F697365206D617267696E2E2053E7
:10405C00656E736F72206D6179206E6F74206F7056
:10406C00657261746520636F72726563746C792E0E
:10407C000D0A005468726573686F6C642063616C20
:10408C006962726174696F6E20636F6D706C6574B8
:10409C00652E205468726573686F6C643A20256CC9
:1040AC00750D0A0043616C6962726174696F6E20F0
:1040BC00436F6D706C657465642E0D0A004D6167FD
:1040CC006E65746F6D657465722053656E736F7277
:1040DC00204572726F72202D205265626F6F7420B2
:1040EC004465766963650D0A004F70656E207468CF
:1040FC00652077696E646F7720616E6420707265DD
:10410C0073732074686520627574746F6E20746F9D
:10411C002073746172742E0D0A00506C65617365A6
:10412C0020636C6F7365207468652077696E646FAB
:10413C007720616E642074686520707265737320DB
:10414C0074686520627574746F6E20746F20636F71
:10415C006E74696E75652E0D0A00506C6561736521
:10416C00206F70656E207468652077696E646F7758
:10417C0020746F20746865206465736972656420AF
:10418C007468726573686F6C642C207468656E203B
:10419C0070726573732074686520627574746F6EC9
:1041AC002E0D0A005B4552525D2057696E646F7785
:1041BC0020697320746F6F206F70656E2E20506CA9
:1041CC006561736520636C6F736520746865207717
:1041DC00696E646F7720616E6420707265737320F2
:1041EC0074686520627574746F6E20746F207265CC
:1041FC007472792E0D0A00506C6561736520636CC6
:10420C006F7365207468652077696E646F772061C1
:10421C006E642070726573732074686520627574A7
:10422C00746F6E20746F2066696E6973682E0D0A48
:10423C0000496E697469616C697A696E67204D4CCE
:10424C005839303633322054656D7065726174752F
:10425C0072652053656E736F722E2E2E000D0A4CF4
:10426C006F616465642063616368656420636F6E6D
:10427C007374616E747320616E64207365747469F9
:10428C006E67732E2E2E000D0A4C6F6164656420D0
:10429C00636F6E7374616E74732066726F6D2073CE
:1042AC00656E736F7220616E642072657365742025
:1042BC00746F2064656661756C74732E2E2E0054B9
:1042CC00656D70657261747572652053656E736F80
:1042DC0072204572726F72202D205265626F6F745E
:1042EC00204465766963650D0A0053656E736F72C1
:1042FC002054656D70657261747572653A20253253
:10430C002E3266430D0A526F6F6D2054656D7065C9
:10431C007261747572653A2025322E3266430D0A2D
:10432C0000242424002D2D2D004B4F410045786591
:10433C00637574696E6720436F6D6D616E643A20AE
:10434C002200222E2E2E00496E697469616C697AE6
:10435C00696E6720524E343837302E2E2E0D0A00DF
:10436C00456E746572696E6720436F6D6D616E6426
:10437C00204D6F64652E2E2E00532D2C4D4348502E
:06438C002D4D4C5800000D
:02000004008278
:090000000800000000C00D000022
:00000001FF
