:100000000C9425010C9444010C9444010C9444017B
:100010000C943A080C9442090C948E090C944401F7
:100020000C9444010C9444010C9444010C9444013C
:100030000C9444010C9444010C9444010C9444012C
:100040000C9444010C9444010C9444010C9444011C
:100050000C9444010C9444010C9444010C9444010C
:100060000C9444010C9444010C9444010C944401FC
:100070000C9444010C9444010C9444010C944401EC
:100080000C9444010C9444010C9444010C944401DC
:100090000C9444010C9444010C943A050C944401D2
:1000A0000C9444010C9444010C9444010C944401BC
:1000B0000C9444010C9444010C9444010C944401AC
:1000C0000C9444010C9444010C9444010C9444019C
:1000D0000C9444010C9400080C9444010C944401C9
:1000E0000C9444010C9444010C9444010C9444017C
:1000F0000C944401FC131B1429143A14FC140D1520
:1001000004162B163416CF1601170F176E616E00EA
:10011000696E660000407A10F35A00A0724E18090A
:100120000010A5D4E80000E87648170000E40B545E
:10013000020000CA9A3B000000E1F505000080962D
:100140009800000040420F000000A086010000005F
:10015000102700000000E803000000006400000019
:1001600000000A00000000000100000000002C76E2
:10017000D888DC674F0823DFC1DFAE59E1B1B796FD
:10018000E5E3E453C63AE651997696E8E6C284265A
:10019000EB898C9B62ED407C6FFCEFBC9C9F40F236
:1001A000BAA56FA5F490055A2AF75C936B6CF967B2
:1001B0006DC11BFCE0E40D47FEF520E6B500D0ED77
:1001C000902E0300943577050080841E08000020DF
:1001D0004E0A000000C80C333333330F986E12837D
:1001E0001141EF8D2114893BE65516CFFEE6DB1851
:1001F000D1844B381BF77C1D901DA4BBE424203216
:1002000084725E228100C9F124ECA1E53D274E41B4
:100210004E494E495459494E46CDCCCC3D0AD72380
:100220003C17B7D13877CC2B329595E6241FB14FC8
:100230000A000020410000C84200401C4620BCBE0D
:100240004CCA1B0E5AAEC59D740011241FBECFEFC1
:10025000CDBFDFE7DEBF1BE4A0E0B0E4E8EEFEE4E4
:1002600000E00BBF02C007900D92AA32B107D9F788
:100270002EE4AAE2BBE401C01D92A63EB207E1F75C
:100280000E9421110C9472270C9400002F923F922F
:100290004F925F926F927F928F929F92AF92BF9296
:1002A000CF92DF92EF92FF920F931F93CF93DF9342
:1002B000CDB7DEB76097CDBFDEBF7C011B016A0101
:1002C000FC0116821782838181FF44C39E012F5F48
:1002D0003F4F3901F7019381F10193FD859193FF20
:1002E00081911F01882309F431C3853239F493FDCC
:1002F000859193FF81911F01853239F4B70190E018
:100300000E94DC2456016501E5CF10E0512C912CB0
:10031000FFE1F915D8F08B3279F038F4803279F0BA
:100320008332A1F4F92DF0612EC08D3261F080335B
:1003300069F4292D21602DC0392D3260932E892D2D
:100340008460982E2AC0E92DE86015C097FC2DC066
:1003500020ED280F2A3088F496FE06C03AE0139F5D
:10036000200D1124122F19C08AE0589E200D11244F
:10037000522EE92DE0629E2E10C08E3231F496FC92
:10038000E5C2F92DF0649F2E08C08C3621F4292D8A
:100390002068922E02C0883641F4F10193FD8591C8
:1003A00093FF81911F018111B3CF9BEB980F933085
:1003B00020F4992D9061805E07C09BE9980F9330DF
:1003C00008F066C1992D9F7E96FF16E09F73992EC7
:1003D000853619F49064992E08C0863621F4392F99
:1003E0003068932E02C01111115097FE07C01C33C4
:1003F00050F444244394410E27E00BC0183038F0E9
:1004000027E017E005C027E09CE3492E02C0212F1A
:10041000412C560184E0A80EB11CF6016081718167
:1004200082819381042DA3010E94D4236C01F98160
:10043000FC87F0FF02C0F3FF06C091FC06C092FEED
:1004400006C000E205C00DE203C00BE201C000E0FF
:100450008C858C7019F001115AC29BC297FE10C096
:100460004C0CFC85F4FF04C08A81813309F44A9462
:10047000141474F528E0241578F588E0482E2CC073
:1004800096FC2AC0812F90E08C159D059CF03CEFD6
:10049000C3163FEFD30674F0892D8068982E0AC0EA
:1004A000E2E0F0E0EC0FFD1FE10FF11D80818033F1
:1004B00019F411501111F4CF97FE0EC04424439447
:1004C000410E812F90E0C816D9062CF41C1904C0E7
:1004D0004424439401C010E097FE06C01C141D0480
:1004E00034F4C601019605C085E090E002C081E0C9
:1004F00090E001110196112331F0212F30E02F5FA0
:100500003F4F820F931F252D30E08217930714F47D
:10051000581A01C0512C892D897049F4552039F0A1
:10052000B70180E290E00E94DC245A94F7CF0023C8
:1005300029F0B701802F90E00E94DC2493FC09C0D1
:10054000552039F0B70180E390E00E94DC245A94F2
:10055000F7CF97FE4CC04601D7FE02C0812C912CEC
:10056000C60188199909F301E80FF91FED87FE8785
:100570009601241931092F87388B012F10E011952E
:10058000019511093FEF8316930629F4B7018EE216
:1005900090E00E94DC24C814D9044CF08F8598891F
:1005A0008815990524F4ED85FE85818101C080E3DD
:1005B000F1E08F1A91082D853E852F5F3F4F2D87E3
:1005C0003E87801691062CF0B70190E00E94DC2453
:1005D000D9CFC814D90441F49A81963320F49533C5
:1005E00019F43C8534FF81E3B70190E04EC08A8165
:1005F000813319F09C859F7E9C87B70190E00E9413
:10060000DC24111105C094FC18C085E690E017C0E9
:10061000B7018EE290E00E94DC241E5F82E001E0E0
:10062000080FF301E80FF11D8081B70190E00E94EF
:10063000DC24802F0113F3CFE6CF85E490E0B701EF
:100640000E94DC24D7FC06C0C114D10441F4EC851F
:10065000E4FF05C0D194C194D1088DE201C08BE2C2
:10066000B70190E00E94DC2480E32AE0C216D104A6
:100670002CF08F5FFAE0CF1AD108F7CFB70190E0E6
:100680000E94DC24B701C601C0960E94DC2454C13C
:10069000833631F0833779F0833509F056C020C0B6
:1006A000560132E0A30EB11CF6018081898301E07E
:1006B00010E0630112C05601F2E0AF0EB11CF6016A
:1006C000C080D18096FE03C0612F70E002C06FEF42
:1006D0007FEFC6010E94B7248C01F92DFF7714C06B
:1006E000560122E0A20EB11CF601C080D18096FE18
:1006F00003C0612F70E002C06FEF7FEFC6010E9460
:10070000AC248C01F92DF0689F2EF3FD1AC0852DC5
:1007100090E008171907A8F4B70180E290E00E9462
:10072000DC245A94F4CFF60197FC859197FE8191D1
:100730006F01B70190E00E94DC2451105A940150DF
:1007400011090115110579F7F7C0843611F08936C2
:1007500061F5560197FE09C024E0A20EB11CF60116
:1007600060817181828193810AC0F2E0AF0EB11C79
:10077000F60160817181072E000C880B990BF92D11
:10078000FF769F2E97FF09C0909580957095619593
:100790007F4F8F4F9F4FF0689F2E2AE030E0A301DC
:1007A0000E944125C82EC6183FC0092D853721F467
:1007B0000F7E2AE030E01DC0097F8F3691F018F4DB
:1007C000883559F0C3C0803719F0883711F0BEC0A2
:1007D000006104FF09C0046007C094FE08C0066001
:1007E00006C028E030E005C020E130E002C020E192
:1007F00032E0560107FF09C084E0A80EB11CF601E3
:10080000608171818281938108C0F2E0AF0EB11CDA
:10081000F6016081718180E090E0A3010E94412592
:10082000C82EC6180F77902E96FE0BC0092D0E7F8E
:10083000C11650F494FE0AC092FC08C0092D0E7E29
:1008400005C0DC2C092D03C0DC2C01C0D12E04FF17
:100850000DC0FE01EC0DF11D8081803311F4097E85
:1008600009C002FF06C0D394D39404C0802F8678B9
:1008700009F0D39403FD11C000FF06C01C2DD51450
:1008800080F4150D1D190DC0D51458F4B70180E280
:1008900090E00E94DC24D394F7CFD51410F45D18B7
:1008A00001C0512C04FF10C0B70180E390E00E940A
:1008B000DC2402FF17C001FD03C088E790E002C0FE
:1008C00088E590E0B7010CC0802F867859F001FFD1
:1008D00002C08BE201C080E207FD8DE2B70190E02B
:1008E0000E94DC24C11638F4B70180E390E00E9436
:1008F000DC241150F7CFCA94F301EC0DF11D808177
:10090000B70190E00E94DC24C110F5CF15C0F4E0DF
:10091000F51560F584E0581A93FE1FC0011127C039
:100920002C8523FF2AC00CE011E0392D3071932E65
:10093000F8018491811124C0552009F4E4CCB70159
:1009400080E290E00E94DC245A94F6CFF701868181
:10095000978126C08FEF9FEF23C0B70180E290E020
:100960000E94DC245A945110F8CFD8CF512CB701F3
:10097000802F90E00E94DC24D3CF00E111E0D5CF9E
:1009800091108052B70190E00E94DC240F5F1F4F4E
:10099000CFCF23E0251510F483E0BDCF512CC0CF7D
:1009A0006096CDBFDEBFDF91CF911F910F91FF9079
:1009B000EF90DF90CF90BF90AF909F908F907F90FF
:1009C0006F905F904F903F902F90089510922B4B17
:1009D00010922C4BE0E4F8E081E0838780E8858387
:1009E00083E087838BE890E0808791871682089563
:1009F000A0EAB4E090E115969C931597E0EEF5E03F
:100A000082818F7C828382818061828311969C9314
:100A1000119780E212968C930895E0E4F8E08681C5
:100A2000806486830895E0E4F8E0868180688683A8
:100A3000089580932B4B90932C4B089580914408FC
:100A400085FB882780F90895CF93C82F0E941E0543
:100A5000882331F0E0E4F8E0948190649483C283C9
:100A6000CF9108958091440886FB882780F991E012
:100A7000892708951F920F920FB60F9211240BB67B
:100A80000F922F933F934F935F936F937F938F9327
:100A90009F93AF93BF93EF93FF9384E0809367049A
:100AA00080914008E0912B4BF0912C4B309709F04E
:100AB000099510922A4BFF91EF91BF91AF919F91B1
:100AC0008F917F916F915F914F913F912F910F90F7
:100AD0000BBE0F900FBE0F901F9018950F931F9392
:100AE000CF93DF930E94A30800E0C0E0D9E00E940A
:100AF0003608182F8823C1F00E949F08811103C077
:100B00000F5F0E94A3080A3071F08D8185FD0CC033
:100B10008D8182FD09C08D8183FD06C08D8183702A
:100B2000833029F701C010E0812FDF91CF911F9111
:100B30000F9108950E943608882361F0909105096D
:100B40009C7149F490910509937081E0933019F0FC
:100B500080E0089581E00895E0E0F9E084E080839A
:100B6000118281E082839DEF95839FE0968383834A
:100B70000895A0E4B4E09CE011969C931197E0EEF8
:100B8000F5E085818C7F85838581826085831C96D5
:100B90009C9308950895CF93909105099370933095
:100BA000B1F0880F682B609307090E946E05C82F6B
:100BB000811104C083E0809304090AC00E949A0551
:100BC000882331F083E080930409C0E001C0C0E0D5
:100BD0008C2FCF910895DF92EF92FF920F931F9386
:100BE000CF93DF9320E2209305096623F9F0D62FF7
:100BF000082F192FC0E00F2EE12CF9E0FF2EF02D69
:100C00006894DD24D1F80E946E05811104C083E050
:100C1000809304090EC0F7018085F80181938F014C
:100C2000CF5FDC1719F0F701D482EDCF87E0809316
:100C30000409DF91CF911F910F91FF90EF90DF900A
:100C40000895EF92FF920F931F93CF93DF93662344
:100C5000D1F07C01EC016150262F30E02F5F3F4F37
:100C6000E20EF31E00E019E09991F80190870E94CE
:100C70006E05882359F0F801958194FD06C0CE15C4
:100C8000DF0591F703C081E001C080E0DF91CF91E3
:100C90001F910F91FF90EF9008951F93CF93DF93D3
:100CA000EB01142F60E00E94CB05882339F0612FFF
:100CB000CE010E94210693E090930409DF91CF9129
:100CC0001F9108950F931F93CF938B0161E00E94B2
:100CD000CB05C82F882321F061E0C8010E94EB05F5
:100CE0008C2FCF911F910F9108950F931F93CF9346
:100CF000DF938B01D42F61E00E94CB05C82F88239E
:100D000021F06D2FC8010E94EB058C2FDF91CF9150
:100D10001F910F910895EF92FF920F931F93CF931E
:100D2000DF931F92CDB7DEB769837A01022F60E0AF
:100D30000E94CB05182F882349F161E0CE0101966E
:100D40000E942106182F811104C083E080930409BA
:100D50001DC0E0E0F9E087818160878381E08483C2
:100D60000E946E05182F811104C083E0809304094E
:100D70000DC00E949A05882329F083E0809304091E
:100D800010E004C0602FC7010E94EB05812F0F9077
:100D9000DF91CF911F910F91FF90EF900895809177
:100DA00025098C7141F490912509937081E093306D
:100DB00019F080E0089581E00895E0E2F9E084E030
:100DC0008083118281E082838DEF85838FE086832B
:100DD00085E083830895E0EAF4E08CE0818398E085
:100DE0009387848708959091250993709330E1F05B
:100DF000880F682B60932709E0E2F9E0858185FD83
:100E00000AC0858182FD07C0858183FD04C085817C
:100E10008370833099F70E94CF06882339F083E0EE
:100E20008093240980E0089580E0089581E008958A
:100E300020E2209325096623D1F0A82FB92F90E056
:100E4000E0E2F9E022E0858185FD17C0858182FD21
:100E500007C0858183FD04C085818370833099F745
:100E600080858D939F5F691711F02483ECCF87E015
:100E70008093240908952483E6CF80858D939F5F16
:100E80006913F9CFF4CF662309F1DC016150262FF5
:100E900030E02F5F3F4F280F391FE0E2F9E09D91CE
:100EA0009087958195FD0AC0958192FD07C0958137
:100EB00093FD04C095819370933099F7958194FDCB
:100EC00007C0A217B30759F781E0089581E008959C
:100ED00080E008951F93CF93DF93EB01142F60E020
:100EE0000E94F306882339F0612FCE010E94430748
:100EF00093E090932409DF91CF911F910895DF92A1
:100F0000EF92FF920F931F93CF93DF937B01D42E29
:100F1000E90160E00E94F306182F882361F16D2D2E
:100F2000C7010E944307182F811104C083E08093FA
:100F3000240921C0E0E2F9E087818160878381E0B4
:100F40008483858185FD0AC0858182FD07C08581F6
:100F500083FD04C085818370833099F70E94CF069A
:100F6000882329F083E08093240910E004C0602FD7
:100F7000CE010E941807812FDF91CF911F910F9111
:100F8000FF90EF90DF90089510922E4B10922F4B10
:100F9000E0E6F8E081E0838780E9858383E087836A
:100FA0008BE890E08087918716820895E0E2F4E074
:100FB00081E08583818382E082830895E0E6F8E022
:100FC00086818064868308958091640885FB8827E4
:100FD00080F90895CF93C82F0E94E407882331F049
:100FE000E0E6F8E0948190649483C283CF91089501
:100FF0008091640886FB882780F991E0892708950D
:101000001F920F920FB60F9211240BB60F922F93CF
:101010003F934F935F936F937F938F939F93AF9380
:10102000BF93EF93FF9380916008E0912E4BF09176
:101030002F4B309709F0099510922D4BFF91EF91AE
:10104000BF91AF919F918F917F916F915F914F91E0
:101050003F912F910F900BBE0F900FBE0F901F90DE
:1010600018951092304B1092314B08958091C20028
:10107000817008951F920F920FB60F9211240BB634
:101080000F922F933F934F935F936F937F938F9321
:101090009F93AF93BF93EF93FF93E091304BF09109
:1010A000314B309709F00995E0ECF0E081818160E7
:1010B0008183FF91EF91BF91AF919F918F917F912C
:1010C0006F915F914F913F912F910F900BBE0F90B9
:1010D0000FBE0F901F90189583E0809350000895E5
:1010E00081E080933E020E94C3090E9431080E9461
:1010F000AC050E94B9050E94DD060E94EB060E9425
:10110000E6040E94F8040E94C4070E94D6070E94C9
:1011100013050E940D050E94DE070E9492080E949E
:10112000A9080895E0E0FBE081E0808796E09183E4
:10113000848320EA3FE02487358780830895809167
:10114000070B817008950000000081E08093000289
:101150000895E0E4F1E081E08583858B83E082837C
:101160001782818182FDFDCF80E09FE080934A015C
:1011700090934B01E0E4F1E0818183FDFDCF80ECB1
:101180009DE080934C0190934D01E0E4F1E081817A
:1011900080FDFDCFE0E4F1E089EB808381E0828B8C
:1011A00081E3808B08958093354B9093364B08955F
:1011B00080914A0190914B01089580914C0190914A
:1011C0004D0108959C01E0E4F1E0918190FDFDCF97
:1011D000E0E4F1E090819E7F9083918191FDFDCFCD
:1011E0001092480110924901E0E4F1E0918192FDF2
:1011F000FDCF20934A0130934B01E0E4F1E081817F
:1012000080FDFDCFE0E4F1E080818160808308957E
:101210009C01E0E4F1E0918190FDFDCFE0E4F1E09C
:1012200090819E7F9083918191FDFDCF1092480126
:1012300010924901E0E4F1E0918193FDFDCF20930C
:101240004C0130934D01E0E4F1E0818180FDFDCF60
:10125000E0E4F1E08081816080830895F8948091DA
:10126000344B78940895F8941092344B7894089500
:10127000F8948091334B78940895F8941092334BFE
:10128000789408951F920F920FB60F9211240BB607
:101290000F922F933F934F935F936F937F938F930F
:1012A0009F93AF93BF93EF93FF938091430180FF90
:1012B0000FC081E08093334BE091374BF091384B76
:1012C000309709F00995E0E4F1E083818160838340
:1012D0008091430181FF0FC081E08093324BE09108
:1012E000354BF091364B309709F00995E0E4F1E089
:1012F000838182608383FF91EF91BF91AF919F9132
:101300008F917F916F915F914F913F912F910F90AE
:101310000BBE0F900FBE0F901F9018951F920F924B
:101320000FB60F9211240BB60F922F933F934F934A
:101330005F936F937F938F939F93AF93BF93EF933D
:10134000FF9381E08093344BE091394BF0913A4B1D
:10135000309709F00995E0E4F1E083898160838B9F
:10136000FF91EF91BF91AF919F918F917F916F917D
:101370005F914F913F912F910F900BBE0F900FBE39
:101380000F901F901895E0E2F4E088E8828B88E0E7
:101390008183E0E6F4E081E0858385E08183089540
:1013A0000F939B01EBE3FBE490838183042F42E0E6
:1013B000BF018AE30E947F070F910895CF93DF93C7
:1013C000C0E4DBE46881798180E090E00E945327EB
:1013D0006A817B8182E090E00E9453276C817D814D
:1013E00084E090E00E9453274091824B5091834BC0
:1013F0006091844B7091854B86E090E00E944B2772
:1014000040917E4B50917F4B6091804B7091814B0E
:101410008AE090E00E944B2740917A4B50917B4BA1
:1014200060917C4B70917D4B8EE090E00E944B2749
:101430004091764B5091774B6091784B7091794BFE
:1014400082E190E00E944B274091724B5091734B88
:101450006091744B7091754B86E190E00E944B2730
:1014600040916E4B50916F4B6091704B7091714BEE
:101470008AE190E00E944B2740916A4B50916B4B60
:1014800060916C4B70916D4B8EE190E00E944B2708
:101490004091664B5091674B6091684B7091694BDE
:1014A00082E290E00E944B274091624B5091634B47
:1014B0006091644B7091654B86E290E00E944B27EF
:1014C00040915E4B50915F4B6091604B7091614BCE
:1014D0008AE290E00E944B2740915A4B50915B4B1F
:1014E00060915C4B70915D4B8EE290E00E944B27C7
:1014F0004091564B5091574B6091584B7091594BBE
:1015000082E390E00E944B274091524B5091534B05
:101510006091544B7091554B86E390E00E944B27AD
:10152000688179818A819B81682779278C819D8157
:10153000682779278AE390E00E945327DF91CF91B3
:1015400008958091864B08950F931F93CF93DF9357
:10155000CDB7DEB72697CDBFDEBF8C0146E0BE011A
:101560006F5F7F4F85E094E20E94D0098823D9F015
:10157000898190E0982F88272A81822BF801808327
:1015800091838B8190E0982F88272C81822B8283F6
:1015900093838D8190E0982F88272E81822B8483DE
:1015A000958381E001C080E02696CDBFDEBFDF914C
:1015B000CF911F910F9108958F929F92AF92BF92FA
:1015C000CF92DF92EF92FF921F93CF93DF9300D0E1
:1015D000CDB7DEB780E49BE40E94A40A182F8823CD
:1015E00009F4DCC080E090E00E942E276C0182E0CC
:1015F00090E00E942E275C0184E090E00E942E275C
:101600004C017601EA24FB24E826F9268AE390E0DF
:101610000E942E2789839A8389819A81E816F90688
:1016200009F0B5C08091404B9091414BC816D90646
:1016300009F0AFC08091424B9091434BA816B90678
:1016400009F0A9C08091444B9091454B88169906AA
:1016500009F0A3C086E090E00E9427276093824BA8
:101660007093834B8093844B9093854B8AE090E0FA
:101670000E94272760937E4B70937F4B8093804B13
:101680009093814B8EE090E00E94272760937A4BE5
:1016900070937B4B80937C4B90937D4B82E190E0E9
:1016A0000E9427276093764B7093774B8093784BFB
:1016B0009093794B86E190E00E9427276093724BCC
:1016C0007093734B8093744B9093754B8AE190E0C9
:1016D0000E94272760936E4B70936F4B8093704BE3
:1016E0009093714B8EE190E00E94272760936A4BA4
:1016F00070936B4B80936C4B90936D4B82E290E0B8
:101700000E9427276093664B7093674B8093684BCA
:101710009093694B86E290E00E9427276093624B8A
:101720007093634B8093644B9093654B8AE290E097
:101730000E94272760935E4B70935F4B8093604BB2
:101740009093614B8EE290E00E94272760935A4B62
:1017500070935B4B80935C4B90935D4B82E390E086
:101760000E9427276093564B7093574B8093584B9A
:101770009093594B86E390E00E9427276093524B49
:101780007093534B8093544B9093554B07C010E08C
:1017900005C010E003C010E001C010E0812F0F90E1
:1017A0000F90DF91CF911F91FF90EF90DF90CF903E
:1017B000BF90AF909F908F900895CF92DF92EF925D
:1017C000FF921F93CF93DF93CDB7DEB76897CDBF5E
:1017D000DEBF80E49BE40E94A40A182F882309F44A
:1017E0001AC240E1BE016F5F7F4F8CE094E20E941D
:1017F000D009882309F40AC22B816C81862F90E0DE
:10180000A0E0B0E0DC0199278827B22B2A81AC0147
:10181000BD01422B898190E0982F8827A0E0B0E09D
:101820006A017B01C82AD92AEA2AFB2AC701B60124
:101830000E94CA2120E030E040E85BE30E947F2262
:101840006093824B7093834B8093844B9093854B32
:101850002F816885862F90E0A0E0B0E0DC01992719
:101860008827B22B2E81AC01BD01422B8D8190E0E7
:10187000982F8827A0E0B0E06A017B01C82AD92A06
:10188000EA2AFB2AC701B6010E94CA2120E030E003
:1018900040E855E30E947F2260937E4B70937F4B1C
:1018A0008093804B9093814B2B856C85862F90E0A5
:1018B000A0E0B0E0DC0199278827B22B2A85AC0193
:1018C000BD01422B898590E0982F8827A0E0B0E0E9
:1018D0006A017B01C82AD92AEA2AFB2AC701B60174
:1018E0000E94CA2120E030E040E859E20E947F22B5
:1018F00060937A4B70937B4B80937C4B90937D4BA2
:101900002F856889862F90E0A0E0B0E0DC01992760
:101910008827B22B2E85AC01BD01422B8D8590E02E
:10192000982F8827A0E0B0E06A017B01C82AD92A55
:10193000EA2AFB2AC701B6010E94CA2120E030E052
:1019400040E85BE30E947F226093764B7093774B75
:101950008093784B9093794B48E1BE016F5F7F4F46
:1019600084E294E20E94D009882309F451C12B81BA
:101970006C81862F90E0A0E0B0E0DC0199278827F9
:10198000B22B2A81AC01BD01422B898190E0982FB6
:101990008827A0E0B0E06A017B01C82AD92AEA2A98
:1019A000FB2AC701B6010E94CA2120E030E040E8CE
:1019B00057E30E947F226093724B7093734B809326
:1019C000744B9093754B2F816885862F90E0A0E033
:1019D000B0E0DC0199278827B22B2E81AC01BD0134
:1019E000422B8D8190E0982F8827A0E0B0E06A011B
:1019F0007B01C82AD92AEA2AFB2AC701B6010E941C
:101A0000CA2120E030E040E85BE30E947F2260933F
:101A10006E4B70936F4B8093704B9093714B2B85F3
:101A20006C85862F90E0A0E0B0E0DC019927882744
:101A3000B22B2A85AC01BD01422B898590E0982FFD
:101A40008827A0E0B0E06A017B01C82AD92AEA2AE7
:101A5000FB2AC701B6010E94CA2120E030E040E81D
:101A600058E20E947F2260936A4B70936B4B809385
:101A70006C4B90936D4B2F856889862F90E0A0E08A
:101A8000B0E0DC0199278827B22B2E85AC01BD017F
:101A9000422B8D8590E0982F8827A0E0B0E06A0166
:101AA0007B01C82AD92AEA2AFB2AC701B6010E946B
:101AB000CA2120E030E040E85DE20E947F2260938E
:101AC000664B7093674B8093684B9093694B2B895F
:101AD0006C89862F90E0A0E0B0E0DC019927882790
:101AE000B22B2A89AC01BD01422B898990E0982F45
:101AF0008827A0E0B0E06A017B01C82AD92AEA2A37
:101B0000FB2AC701B6010E94CA2120E030E040E86C
:101B10005DE20E947F226093624B7093634B8093DF
:101B2000644B9093654B6D8970E0762F66278E89A4
:101B3000682B072E000C880B990B0E94CA2120E00D
:101B400030E040E85AE30E947F2260935E4B70933E
:101B50005F4B8093604B9093614B6F8970E0762F61
:101B60006627888D682B072E000C880B990B0E9426
:101B7000CA2120E030E040E85AE30E947F226093CF
:101B80005A4B70935B4B80935C4B90935D4B44E05E
:101B9000BE016F5F7F4F81E894E20E94D0098823E5
:101BA000C9F1698170E0762F66278A81682B072E3C
:101BB000000C880B990B0E94CA2120E030E040E81D
:101BC00058E30E947F226093564B7093574B80934B
:101BD000584B9093594B6B8170E0762F66278C8120
:101BE000682B072E000C880B990B0E94CA2120E05D
:101BF00030E040E85AE30E947F226093524B70939A
:101C0000534B8093544B9093554B05C010E003C049
:101C100010E001C010E0812F6896CDBFDEBFDF91DC
:101C2000CF911F91FF90EF90DF90CF900895CF93C9
:101C3000811105C00E94DC0AC82F811108C00E94D2
:101C4000DD0BC82F882331F00E94DE0903C081E03C
:101C50008093864B8C2FCF9108950F93CF93DF9372
:101C6000EB01EBE3FBE49083818302E02DE33BE4B3
:101C700042E0BF018AE30E947F07882361F0EBE323
:101C8000FBE4828190E0982F88272381822B888330
:101C9000998381E001C080E0DF91CF910F91089599
:101CA000BC018FEF9FE30E942D0E0895CF93DF9329
:101CB000CDB7DEB72E97CDBFDEBF42E0BE016F5F6E
:101CC0007F4F8FEF9FE30E94D009882309F447C01C
:101CD0008A818C7790E095958795959587958093E7
:101CE0003F4B4CE0BE016D5F7F4F83E090E40E946C
:101CF000D0098823B1F1E6E4FBE48B8190E0982FD2
:101D000088272C81822B808391838D8190E0982F6E
:101D100088272E81822B828393838F8190E0982F56
:101D200088272885822B84839583898590E0982F46
:101D300088272A85822B868397838B8590E0982F2E
:101D400088272C85822B808791878D8590E0982F1E
:101D500088272E85822B8287938781E003C080E0CD
:101D600001C080E02E96CDBFDEBFDF91CF910895F8
:101D7000CF93DF9300D0CDB7DEB7CE0101960E949E
:101D8000500E882319F08981817001C080E00F9086
:101D90000F90DF91CF910895EBE3FBE49083818373
:101DA0007283638344E0BF018AE30E946A07089557
:101DB00062E078E081E090E30E94CC0E08954F92BB
:101DC0005F926F927F928F929F92AF92BF92CF92CB
:101DD000DF92EF92FF92CF93DF93CDB7DEB761979B
:101DE000CDBFDEBF80913F4B823029F080913F4BC9
:101DF000813009F08DC16091504B7091514B072E8D
:101E0000000C880B990B0E94CA214B015C01609168
:101E10004A4B70914B4B072E000C880B990B0E947C
:101E2000CA2120E030E040E451E40E9420216B010F
:101E30007C0120915E4B30915F4B4091604B509103
:101E4000614B0E947F22A50194010E94AF209B015B
:101E5000AC01C701B6010E94202120E030E040E043
:101E600059E40E947F2269837A838B839C838091CB
:101E70003F4B8130A9F4E6E4FBE46081718182810B
:101E80009381680F791F072E000C880B990B0E9415
:101E9000CA2120E030E040E05FE30E947F2214C0CE
:101EA000E6E4FBE46681778180859185680F791F80
:101EB000072E000C880B990B0E94CA2120E030E00D
:101EC00040E05FE30E947F2220E030E040E451E404
:101ED0000E9420212B013C0120915A4B30915B4BF9
:101EE00040915C4B50915D4BC701B6010E947F222F
:101EF000A50194010E94AF209B01AC01C301B20176
:101F00000E94202120E030E040E059E40E947F223E
:101F10006D837E838F8398872091824B3091834B92
:101F20004091844B5091854B69817A818B819C8152
:101F30000E94AE204B015C0120917E4B30917F4B83
:101F40004091804B5091814B0E9420212091764BF3
:101F50003091774B4091784B5091794B0E94AF2054
:101F60002B013C01A5019401C501B4010E947F220F
:101F700020917A4B30917B4B40917C4B50917D4B23
:101F80000E947F229B01AC01C301B2010E94AF20DD
:101F90002B013C016093004070930140809302400C
:101FA0009093034023E333E948E853E40E94AF20D1
:101FB0004B015C012091564B3091574B4091584B4F
:101FC0005091594B60916A4B70916B4B80916C4B67
:101FD00090916D4B0E947F2269837A838B839C83CF
:101FE0008091624B9091634BA091644BB091654B93
:101FF00089879A87AB87BC8720E030E048EC51E4C2
:10200000C301B2010E94AE202091664B3091674B14
:102010004091684B5091694B0E947F226D877E876B
:102020008F87988BA5019401C501B4010E947F227E
:10203000A50194010E947F22A50194010E947F22A4
:102040002B013C01C090524BD090534BE090544B2D
:10205000F090554B93E0B0E0A0E0F8ECE1E4998B10
:1020600020E030E048EC51E46B2F7A2F8F2F9E2F29
:102070000E94AE2029853A854B855C850E947F228F
:1020800020E030E040E85FE30E94AF202D853E85F0
:102090004F8558890E94AF2029813A814B815C810C
:1020A0000E947F229B01AC016D817E818F8198858A
:1020B0000E9420214B015C01A3019201C501B401E2
:1020C0000E94AF200E9416230E94162323E333E9C7
:1020D00048E853E40E94AE20A70196010E94AE207A
:1020E000A989A150A98BB62FA72FF82FE92F2989ED
:1020F0002111B6CFC62ED72EE82EF92EC09204405D
:10210000D0920540E0920640F092074081E001C085
:1021100080E06196CDBFDEBFDF91CF91FF90EF9061
:10212000DF90CF90BF90AF909F908F907F906F90F7
:102130005F904F90089560910040709101408091B0
:1021400002409091034008956091044070910540D1
:10215000809106409091074008950F931F93CF936D
:10216000C82F8B010E943608882331F021E0A80196
:102170006C2F8CE00E948B06CF911F910F910895D8
:102180000F931F93CF93DF9300D0CDB7DEB7082F07
:10219000162F0E943608882349F009831A8342E0EB
:1021A000BE016F5F7F4F8CE00E944D060F900F9035
:1021B000DF91CF911F910F91089566E081E10E9418
:1021C000C01008950E94DD10882359F065EB85E169
:1021D0000E94C010882339F06DE284E10E94C01093
:1021E000089580E0089580E00895CF93DF931F92D3
:1021F000CDB7DEB70E943608882359F01982BE0198
:102200006F5F7F4F8CE00E946206882311F0898106
:1022100081700F90DF91CF910895682F80E10E9427
:10222000C0100895CF93DF93EC010E9436088823F5
:1022300029F048E0BE018CE00E947506DF91CF9145
:1022400008950E946C080E94700882E59DE10E943A
:1022500019058AEC9FE10E94DF1B8BEF98E10E9439
:10226000D308C6B1C2FBCC27C0F98C2F0E949E1F99
:102270008C2F0E94F4118C2F0E94461878940E9493
:10228000DC1BA8950E94221D0E944D170E94461734
:1022900081110E94A5180E943809882371F00E94BC
:1022A0003D090E94381D882341F00E94461788236B
:1022B00021F00E9454130E94D4190E94E41B882329
:1022C00011F08895DECF0E9433090E942E098823E1
:1022D000E1F3D7CF99231CF49195819591099C0145
:1022E0008038910544F081E0359527958F5F20383F
:1022F0003105D4F7089581E008951092B34B089505
:10230000811103C01092B34B089588E490E00E94BD
:1023100027276093AE4B7093AF4B8093B04B909355
:10232000B14B8CE490E00E9427276093AA4B7093F6
:10233000AB4B8093AC4B9093AD4B80E590E00E940B
:102340002E278093A84B9093A94B82E590E00E94A2
:102350002E278093A64B9093A74B84E590E00E9494
:102360002E278093A44B9093A54B86E590E00E9486
:102370001F2780930A4087E590E00E941F278093E3
:10238000094088E590E00E941F27809308408BE079
:102390008093B34B08951F93CF93DF931F92CDB7D4
:1023A000DEB7182F1092B34BBE016F5F7F4F8BE0EB
:1023B0000E94AD10882371F087E490E00E941F27EF
:1023C00011110AC09981891309C081E00E9480110E
:1023D00081E005C080E003C080E001C080E00F9094
:1023E000DF91CF911F910895CF93C82F86B182FBC3
:1023F000882780F98093A24B8DE290E40E94F11A25
:102400000E94E210811108C08AE590E40E94F11A4E
:1024100082E08093B24B10C08C2F0E94CB118111AF
:1024200007C00E94801183E690E40E94F11A04C064
:102430008DE690E40E94F11ACF9108958F929F92B9
:10244000AF92BF92CF92DF92EF92FF92DC01FB013D
:1024500011964D915C9112978091A84B9091A94B48
:10246000481B590B13962D913C9114978091A64BC4
:102470009091A74B281B390B15968D919C9116971F
:102480006091A44B7091A54B861B970B00900A405E
:1024900002C0559547950A94E2F70090094002C0A2
:1024A000359527950A94E2F70090084002C095956B
:1024B00087950A94E2F7449F6001459FD00CD00CA9
:1024C00011244601DD0CAA08BB08229F6001239F4E
:1024D000D00CD00C11240D2C000CEE08FF08C80CF9
:1024E000D91CEA1CFB1C889F4001899F900C900C12
:1024F0001124092C000CAA08BB08C80CD91CEA1C22
:10250000FB1CC382D482E582F682403851051CF060
:102510004FE7408308C040386FEF56071CF440E88F
:10252000408301C04083203831051CF02FE7218310
:1025300008C020384FEF34071CF420E8218301C085
:102540002183803891051CF08FE7828308C0803892
:102550006FEF96071CF480E8828301C08283FF90AE
:10256000EF90DF90CF90BF90AF909F908F900895A5
:102570008F929F92AF92BF92CF92DF92EF92FF9293
:102580000F931F93CF93DF93FC01438154816581A7
:1025900076810091AE4B1091AF4B2091B04B3091B2
:1025A000B14B401751076207730768F00091AA4BBF
:1025B0001091AB4B2091AC4B3091AD4B04171507EC
:1025C00026073707C0F5EC0182E790E40E94F11A74
:1025D000BB80AC809D808E80F090AE4BE090AF4B86
:1025E000D090B04BC090B14BC091AA4BD091AB4BA7
:1025F0001091AC4B0091AD4B0E94BD1A8F929F92EF
:10260000AF92BF92CF92DF92EF92FF920F931F9300
:10261000DF93CF9321E930E43F932F939F938F93E0
:102620000E9418250E94C21A8DB79EB740968DBF92
:102630009EBF80E001C081E0DF91CF911F910F919B
:10264000FF90EF90DF90CF90BF90AF909F908F90D2
:1026500008950E94B812882359F080919F4B8823D7
:1026600019F0815080939F4B88E0809326040AC024
:1026700080919F4B843619F08F5F80939F4B88E049
:10268000809325048091874B843121F090919F4B5A
:102690009A3031F481E08093A14B1092874B0895DA
:1026A0008F5F8093874B08951092A14B80919F4B31
:1026B0008A3028F08AED90E40E943F1D089585EE4F
:1026C00090E40E943F1D0895CF9360EA7BE48BE085
:1026D0000E94AD10C82F882309F448C04091AE4B2A
:1026E0005091AF4B6091B04B7091B14B88E490E04A
:1026F0000E944B274091AA4B5091AB4B6091AC4B41
:102700007091AD4B8CE490E00E944B276091A84BF8
:102710007091A94B80E590E00E9453276091A64BF1
:102720007091A74B82E590E00E9453276091A44BE3
:102730007091A54B84E590E00E94532760910A4078
:1027400086E590E00E9433276091094087E590E09C
:102750000E9433276091084088E590E00E9433276B
:102760006091A04B87E490E00E9433278C2FCF919B
:1027700008954F925F926F927F928F929F92AF9245
:10278000BF92CF92DF92EF92FF92CF93DF93DC0163
:10279000EB0190919E4B993130F088E080932704B3
:1027A00010929E4B03C09F5F90939E4BCB80DC802A
:1027B000ED80FE804091AA4B5091AB4B6091AC4BA9
:1027C0007091AD4B4C155D056E057F0540F4C092D0
:1027D000AA4BD092AB4BE092AC4BF092AD4BE09158
:1027E000B34B4E2F50E04C30510508F01AC3FA019C
:1027F000E658FF4F0C94A52310929D4B81E08093E7
:10280000B34B1092994B10929A4B10929B4B109293
:102810009C4B1092954B1092964B1092974B1092A6
:10282000984B1092914B1092924B1092934B1092A6
:10283000944BE1E005C38AE00E940D11882321F04A
:1028400082E08093B34BEDC28FEE90E40E94F11AC8
:10285000E8C28091A34B882309F4E3C281E291E4AA
:102860000E943F1D83E08093B34B10928F4B1092D8
:10287000904BD7C280918F4B9091904B9C012F5FD2
:102880003F4F20938F4B3093904B11964D915C911D
:102890001297052E000C660B770BC090994BD090C9
:1028A0009A4BE0909B4BF0909C4BCB01BA016C0D86
:1028B0007D1D8E1D9F1D6093994B70939A4B809345
:1028C0009B4B90939C4B13968D909C901497092C46
:1028D000000CAA08BB08C090954BD090964BE09096
:1028E000974BF090984B8C0C9D1CAE1CBF1C80929B
:1028F000954B9092964BA092974BB092984B159611
:10290000CD90DC9016970D2C000CEE08FF0840903F
:10291000914B5090924B6090934B7090944BC40CA1
:10292000D51CE61CF71CC092914BD092924BE092C2
:10293000934BF092944B283E334008F472C20F2E12
:10294000F8EE4F2EF3E05F2E612C712CF02DA301D9
:1029500092010E948623CA01B9010E94CA210E94E5
:10296000EC220E949221C62FD72F6093A84B709320
:10297000A94BC501B401A30192010E948623CA019B
:10298000B9010E94CA210E94EC220E949221B62E17
:10299000A72E6093A64B7093A74BC701B601A30166
:1029A00092010E948623CA01B9010E94CA210E9495
:1029B000EC220E949221F62EE72E6093A44B709396
:1029C000A54B0E94BD1AEF92FF92AF92BF92DF9388
:1029D000CF9326E431E43F932F939F938F930E94EC
:1029E00018250E94C21A84E08093B34B8DB79EB71E
:1029F0000A968DBF9EBF15C28091A34B882309F410
:102A000010C28CE791E40E943F1D85E08093B34B98
:102A100010928F4B1092904B04C280918F4B9091EB
:102A2000904BFC013196E0938F4BF093904B1196B5
:102A30004D915C9112972091A84B3091A94B421B6C
:102A4000530B052E000C660B770BC090994BD09062
:102A50009A4BE0909B4BF0909C4BCB01BA016C0DD4
:102A60007D1D8E1D9F1D6093994B70939A4B809393
:102A70009B4B90939C4B13968D909C901497209118
:102A8000A64B3091A74B821A930A092C000CAA0876
:102A9000BB08C090954BD090964BE090974BF09030
:102AA000984B8C0C9D1CAE1CBF1C8092954B909239
:102AB000964BA092974BB092984B1596CD90DC9088
:102AC00016972091A44B3091A54BC21AD30A0D2C16
:102AD000000CEE08FF084090914B5090924B609094
:102AE000934B7090944BC40CD51CE61CF71CC09201
:102AF000914BD092924BE092934BF092944BE83EE4
:102B0000F34008F48EC128EE33E040E050E00E942C
:102B10008623CA01B9010E94CA210E94EC220E94A8
:102B200092212B013C016093994B70939A4B8093B7
:102B30009B4B90939C4BC501B40128EE33E040E0E1
:102B400050E00E948623CA01B9010E94CA210E9456
:102B5000EC220E9492214B015C016093954B709393
:102B6000964B8093974B9093984BC701B60128EEF4
:102B700033E040E050E00E948623CA01B9010E9480
:102B8000CA210E94EC220E9492216B017C01609379
:102B9000914B7093924B8093934B9093944BC201C3
:102BA0000E946A11C82F80930A40C4010E946A11D2
:102BB000D82F80930940C6010E946A11F82E809395
:102BC00008400E94BD1A1F92FF921F92DF931F922E
:102BD000CF9323EA31E43F932F939F938F930E94E7
:102BE00018250E94C21A86E08093B34B1092AA4B1C
:102BF0001092AB4B1092AC4B1092AD4B8DB79EB771
:102C00000A968DBF9EBF0DC199E2C916D104E10499
:102C1000F10440F488EE91E40E94F11A87E0809379
:102C2000B34BFFC08091A34B882309F4FAC08BE417
:102C300092E40E943F1D10928F4B1092904B109285
:102C40008B4B10928C4B10928D4B10928E4B88E0D8
:102C50008093B34BE6C08091A34B882309F4E1C075
:102C600086E08093B34BDDC080918F4B9091904B69
:102C70009C012F5F3F4F20938F4B3093904B40919F
:102C80008B4B50918C4B60918D4B70918E4BCB0147
:102C9000BA016C0D7D1D8E1D9F1D60938B4B709333
:102CA0008C4B80938D4B90938E4B283E334008F491
:102CB000B8C028EE33E040E050E00E948623CA010D
:102CC000B9010E94CA210E94EC220E9499216093BE
:102CD000AE4B7093AF4B8093B04B9093B14B683237
:102CE00071058105910520F485E792E40E94F11AAF
:102CF0006091AE4B7091AF4B8091B04B9091B14BC6
:102D00000E94C82126E636E646E65FE30E947F225F
:102D10000E94EC220E949921C62FD72FF82EE92E6F
:102D20006093AE4B7093AF4B8093B04B9093B14B8D
:102D30006091AA4B7091AB4B8091AC4B9091AD4B95
:102D40000E94C8212DEC3CEC4CE85FE30E947F22FE
:102D50000E94EC220E9499216093AA4B7093AB4B86
:102D60008093AC4B9093AD4B0E94BD1AEF92FF92B3
:102D7000DF93CF9321EC32E43F932F939F938F9374
:102D80000E9418250E94C21A89E08093B34B1092CA
:102D90008A4B8DB79EB708968DBF9EBF42C0CE01AD
:102DA0000E94B812882341F080918A4B8823B9F0A1
:102DB000815080938A4B07C080918A4B843618F4E7
:102DC0008F5F80938A4B80918A4B8A3040F082EFEC
:102DD00092E40E943F1D82E08093B34B22C0809119
:102DE000A34B8823F1F084E293E40E943F1D8AE024
:102DF0008093B34B10929E4B0E94641310929F4B92
:102E000010C082E00E940D11882321F08BE0809396
:102E1000B34B07C08FEE90E40E94F11A02C01092EB
:102E2000B34B20919D4BE091B34B2E1309C0809181
:102E3000884B9091894B803233E0930798F0E22FD2
:102E4000F0E0EE0FFF1FE55FFF4B808191810E9454
:102E50003F1D8091B34B80939D4B1092884B1092F5
:102E6000894B05C001968093884B9093894BDF91E5
:102E7000CF91FF90EF90DF90CF90BF90AF909F9059
:102E80008F907F906F905F904F90089581E0909128
:102E9000B34B9B3009F080E00895CF93DF93CDB71B
:102EA000DEB72F97CDBFDEBF8091A24B811108C046
:102EB000329B09C081E08093A24B8093A34B03C057
:102EC000329B1092A24B0E94360881110CC0809157
:102ED000B24B823041F082E08093B24B81E080932C
:102EE000A14B0E94CA058091B24B8130E9F038F0C5
:102EF000833009F446C0843009F447C058C080913B
:102F0000B34B8B3021F482E00E940D1103C08AE0A4
:102F10000E940D11882321F081E08093B24B4EC0B6
:102F200082E08093B24B4AC00E94F510882309F4D6
:102F300045C0CE0101960E9412118823E1F0BE0126
:102F4000675F7F4FCE0101960E941E128091B34BA6
:102F50008B3049F48091A34B811105C0CE010996B5
:102F60000E9429130BC0BE01675F7F4FCE010196FF
:102F70000E94B91303C082E08093B24B1092A34B1E
:102F80001DC084E08093B24B19C00E94E2108823D8
:102F900051F08DE393E40E94F11A80E00E94CB117E
:102FA0001092B24B0BC082E08093B24B07C00E94DC
:102FB0003608882319F083E08093B24B2F96CDBF5B
:102FC000DEBFDF91CF91089581113BC060EC7DE0C1
:102FD0008CE390E00E94532780EC9DE00E9408095A
:102FE0004DEC5CEC60E072E48EE390E00E944B27D5
:102FF0008DEC9CECA0E0B2E48093284090932940B3
:10300000A0932A40B0932B4040E050E060E271E48E
:1030100082E490E00E944B2780E090E0A0E2B1E4DF
:103020008093244090932540A0932640B09327405E
:1030300063E486E490E00E94332783E48093234096
:1030400008958CE390E00E942E270E9408098EE3E9
:1030500090E00E9427276093284070932940809336
:103060002A4090932B4082E490E00E9427276093AF
:10307000244070932540809326409093274086E417
:1030800090E00E941F27809323400895CF93C82F7C
:103090008BEA94E40E94F11ACC2329F081E00E948B
:1030A000170EC82F04C080E00E94170EC82F0E9480
:1030B000A10A882341F087ED94E40E94F11A81E08F
:1030C0000E94E41707C081E095E40E94F11A80E0B5
:1030D0000E94E417CC2329F08DE690E40E94F11AB7
:1030E00007C08AE590E40E94F11A85E08093B54B11
:1030F000CF91089580932340682F86E490E00E944A
:1031000033270895CF93DF93C82FD92F0E94080942
:103110006C2F7D2F8CE390E00E9453270E94BD1AF4
:10312000DF93CF9329E335E43F932F939F938F93BE
:103130000E9418250E94C21A0F900F900F900F90B6
:103140000F900F90DF91CF9108958091B54B823011
:1031500009F130F4882309F44DC0813039F043C0BF
:10316000833061F1843009F445C03DC00E94D80E1F
:10317000811108C081E595E40E94F11A85E08093F1
:10318000B54B089587E895E40E94F11A82E0809398
:10319000B54B08950E94B80E882361F10E94560E27
:1031A000811108C083EB95E40E94F11A85E08093B9
:1031B000B54B089583E08093B54B089588E08093E4
:1031C00027040E94DF0E882331F081E08093B44B06
:1031D0001092B54B08958EEE95E40E94F11A85E0A9
:1031E0008093B54B089580E396E40E943F1D84E0F0
:1031F0008093B54B08958091B54B811104C081E057
:103200008093B54B0895843019F485E08093B54BD5
:103210000895BF92CF92DF92EF92FF920F931F9388
:10322000CF93DF930E949B10F62EE72ED82EC92E47
:103230000E94A410C62FD72F182F092F20912840A5
:103240003091294040912A4050912B400E947A228F
:1032500088232CF082E796E40E943F1D14C0209141
:1032600024403091254040912640509127406C2FBA
:103270007D2F812F902F0E941B21181624F081E9A9
:1032800096E40E943F1D80912340863449F526E64E
:1032900036E646EE5FE36F2D7E2D8D2D9C2D0E9430
:1032A0007F2220E030E040E052E40E94AF20F62E82
:1032B000E72ED82EC92E26E636E646EE5FE36C2FC3
:1032C0007D2F812F902F0E947F2220E030E040E070
:1032D00052E40E94AF20C62FD72F182F092F3BC0D2
:1032E0008B34E9F423E333E948E853E46F2D7E2D72
:1032F0008D2D9C2D0E94AF20F62EE72ED82EC92EA4
:1033000023E333E948E853E46C2F7D2F812F902F7E
:103310000E94AF20C62FD72F182F092F1CC083342F
:10332000D1F08FEA96E40E94F11AB09023400E94F7
:10333000BD1A1F92BF9223E137E43F932F939F93CF
:103340008F930E9418250E94C21A0F900F900F9021
:103350000F900F900F90B09023400E94421D1F923B
:10336000BF920F931F93DF93CF931F92BF92CF9281
:10337000DF92EF92FF922FED36E43F932F939F93CE
:103380008F930E9418250E94451D8DB79EB74096C9
:103390008DBF9EBFDF91CF911F910F91FF90EF9056
:1033A000DF90CF90BF9008950F931F93CF93DF933B
:1033B0008091B44B811126C088E197E40E94F11AF4
:1033C0000E94D808182F092F0E94DD08C82FD92F76
:1033D0000E94BD1A0F931F93DF93CF932CE437E421
:1033E0003F932F939F938F930E9418250E94C21A98
:1033F0008FE697E40E943F1D8DB79EB708968DBF5C
:103400009EBF04C01092B44B0E940919DF91CF9166
:103410001F910F910895CF92DF92EF92FF92CF9379
:103420006B017C0180912340863489F420E030E0F8
:1034300040E052E4C701B6010E94AE2026E838E31E
:103440004EE05FE30E947F226B017C0129C08B3438
:1034500059F423E333E948E853E4C701B6010E9475
:10346000AE206B017C011CC08334D1F08FEA96E45E
:103470000E94F11AC09123400E94BD1A1F92CF935F
:1034800023E137E43F932F939F938F930E94182556
:103490000E94C21A0F900F900F900F900F900F90F4
:1034A000C0922840D0922940E0922A40F0922B40CE
:1034B000B701A6018EE390E00E944B27CF91FF90C9
:1034C000EF90DF90CF900895CF92DF92EF92FF922E
:1034D000CF936B017C0180912340863489F420E0F6
:1034E00030E040E052E4C701B6010E94AE2026E879
:1034F00038E34EE05FE30E947F226B017C0129C02C
:103500008B3459F423E333E948E853E4C701B601A7
:103510000E94AE206B017C011CC08334D1F08FEA85
:1035200096E40E94F11AC09123400E94BD1A1F9296
:10353000CF9323E137E43F932F939F938F930E9480
:1035400018250E94C21A0F900F900F900F900F90A5
:103550000F90C0922440D0922540E0922640F092F5
:103560002740B701A6018EE390E00E944B27CF9140
:10357000FF90EF90DF90CF90089585EB9CE4089545
:103580008FEF08951F93CF93DF938091B54C8823DD
:1035900021F1E0E6F8E0848180648483C0E0D0E03B
:1035A00010E00E94E4078823E1F3CB54D34B8881D9
:1035B0000E94EA071F5FC12FD0E0FE01EB54F34BDE
:1035C0008081882311F01F3F61F70E94E407882360
:1035D000E1F30E94F8078111FCCFDF91CF911F9199
:1035E0000895EF92FF920F931F93CF93FC012081D8
:1035F000222349F17C01E0E6F8E084818064848341
:10360000F7018081811114C016C00E94E40788234D
:10361000E1F3F80180810E94EA07CF5F87010C0F78
:10362000111DF8019081992331F0CF3F71F703C04C
:103630008701C0E0EACF0E94E4078823E1F30E94FB
:10364000F8078111FCCFCF911F910F91FF90EF9060
:10365000089586EB9BE408951F93CF93DF938091A9
:10366000B64B882359F1E0E4F8E0848180648483D8
:103670008091B64B811116C019C00E941E05882387
:10368000E1F3CA54D44B88810E9424051F5FC12FE7
:10369000D0E0FE01EA54F44B8081882339F01F3FCB
:1036A00061F704C0C0E0D0E010E0E7CF0E941E0543
:1036B0008823E1F30E9432058111FCCFDF91CF9185
:1036C0001F910895EF92FF920F931F93CF93FC01E8
:1036D0002081222349F17C01E0E4F8E084818064C8
:1036E0008483F7018081811114C016C00E941E05D9
:1036F0008823E1F3F80180810E942405CF5F8701D0
:103700000C0F111DF8019081992331F0CF3F71F713
:1037100003C08701C0E0EACF0E941E058823E1F3C1
:103720000E9432058111FCCFCF911F910F91FF9024
:10373000EF900895EF92FF920F931F93CF93DF9333
:10374000FC012081222389F1D62F7C01E0E4F8E0FE
:10375000848180648483F7018081811114C016C044
:103760000E941E058823E1F3F80180810E94240550
:10377000CF5F87010C0F111DF8019081992331F063
:10378000CF3F71F703C08701C0E0EACF0E941E055A
:103790008823E1F38D2F0E9424050E941E058823B3
:1037A000E1F30E9432058111FCCFDF91CF911F918F
:1037B0000F91FF90EF9008950E94301F089580931D
:1037C000B44D9093B54D089581E090912C409111A6
:1037D00080E00895CF930E94BD1D882381F184E984
:1037E00097E40E94F11A0E94C01AC82F0E94BD1AC5
:1037F0006C2F0E944B1E0E94C21A84E09BE40E9420
:10380000F11A8EEA97E40E941D1E81111AC085EB01
:1038100097E40E941D1E811116C088EB97E40E9458
:103820001D1E811112C080EC97E40E941D1E8111A3
:103830000EC08CEC97E40E94F11A80E009C080E091
:1038400007C081E005C084E003C083E001C082E0DE
:10385000CF910895CF930E94CE1D882329F188EF40
:1038600097E40E94F11A0E94C01AC82F0E94BD1A44
:103870006C2F0E944B1E0E94C21A84E09BE40E949F
:10388000F11AE091B44DF091B54D3097F9F00995EA
:10389000882329F080E198E40E94621B17C08BE125
:1038A00098E40E94621B12C087E298E40E94F11A19
:1038B0000E94C01AC82F0E94BD1A6C2F0E944B1E76
:1038C0000E94C21A84E09BE40E94F11ACF910895ED
:1038D000CF93A89581E0809366048AE398E40E94E0
:1038E000621B8EE398E40E94F11A84E690E00E9445
:1038F000641FC82F882329F08DE690E40E94F11AF6
:1039000004C08AE590E40E94F11A8C2FCF910895AB
:103910006DE08EE598E40E949A1B0E94161F81E0DC
:103920008093650408951F93CF93DF93EC01162FC6
:10393000A89586E698E40E94F11ACE010E94F11A39
:103940008BE798E40E94F11A6DE0CE010E949A1B69
:1039500062E678E4812F90E00E94351F882329F0E9
:103960008DE690E40E94F11A04C08AE590E40E947A
:10397000F11ADF91CF911F91089580E898E40E9499
:10398000F11AA8950E94681C811104C00E94881C2D
:1039900080E008956FEF8EEA98E40E94931C6FEF29
:1039A00084EB98E40E94931C60E080EC98E40E9411
:1039B000931C81E008950E94EA1B90912C40933063
:1039C00049F128F4913041F0923071F0089595302A
:1039D00079F1963099F108950E94BD1C882389F1F0
:1039E00082E080932C400895813049F462E384ECB6
:1039F00098E40E94931C83E080932C4008958330C8
:103A000001F569E186EC98E40E94931C85E08093BF
:103A10002C400895823021F485E080932C40089555
:103A2000833079F469E186EC98E40E94931C089550
:103A3000843039F483E080932C40089583E08093B0
:103A40002C400895A89580912C40813061F40E940B
:103A5000BD1C82E080932C4006C00E942A1C0E945C
:103A6000DB1C0E94251E0E94B71D8823B1F3089518
:103A700081E090912C40953009F080E008950E94FB
:103A8000621B08950E94291B089580912C40853067
:103A900011F40E942C1B08959FE9980F9A3108F4A5
:103AA00080520895CF93DF939091BC4D992371F18B
:103AB0009091C24D981721F08D3011F08A30B1F4F9
:103AC00084E080936604E091C04DF0E0ED53F24B4A
:103AD00010821092BC4D8091BE4D8F5F8093BE4D81
:103AE0008091C04D8F5F8093C04D3EC08032E1F128
:103AF000C091C04DD0E00E944C1DCD53D24B888365
:103B00008091C04D8F5F8093C04D2EC0982F9B7FBA
:103B10009132A1F494E090936504E091C04DF0E0FF
:103B2000ED53F24B80839091C04D9F5F9093C04DB9
:103B30008093C24D81E08093BC4D16C08D3021F43E
:103B400091E09093BD4D05C08E3319F491E09093B0
:103B5000BB4DE091C14DF0E0EC51F24B8083809180
:103B6000C14D8F5F8093C14DDF91CF9108959091AA
:103B7000BE4D81E0911180E008958091BE4D882373
:103B800059F0E091BF4DF0E0ED53F24B908181E0B0
:103B9000953219F080E0089580E008958091BE4D3F
:103BA000882359F0E091BF4DF0E0ED53F24B908146
:103BB00081E0913219F080E0089580E0089510923C
:103BC000BE4D1092BF4D1092C04D0895DC018C91F6
:103BD000882369F18091BE4D882361F19091BF4D9A
:103BE0009F5F40E018C0F901ED53F24B2081FD01C9
:103BF000E40FF11D308132130CC04F5FFD01E40F63
:103C0000F11D8081811106C0892F90E08D53924B68
:103C1000089540E09F5F2FEF290F30E0F901ED5349
:103C2000F24B50815111DFCF80E090E0089580E0A9
:103C300090E0089580E090E008950E94E61D21E064
:103C4000892B09F420E0822F08958091BE4D8823AE
:103C500009F18091BE4D81508093BE4D8091BE4D43
:103C6000811103C00E94DF1D08958091BF4D8F5FB9
:103C70008093BF4DE091BF4DF0E0ED53F24B80815A
:103C80008D3041F0E091BF4DF0E0ED53F24B80817B
:103C9000813259F708950F931F93CF938C016623B8
:103CA00081F18091BE4D882361F15091BF4D252F48
:103CB00030E0F901ED53F24B80818823B9F0F8012F
:103CC000762F750F952FD901AD53B24B2C912193BF
:103CD0009F5FC92FC51B971779F0292F30E0D901B5
:103CE000AD53B24B4C914111EECF01C0C0E0F80191
:103CF000EC0FF11D108205C0060F111DF801319760
:103D00001082CF911F910F910895DC018091BE4DDB
:103D10008823B1F16623B1F19091BF4D292F30E096
:103D2000F901ED53F24B8081882371F140E070E09E
:103D3000F901ED53F24B50815C3261F0772359F079
:103D4000F901ED53F24B8081FD01E40FF11D8083F9
:103D50004F5F01C071E09F5F292F30E0F901ED5303
:103D6000F24B5081552311F0461710F3772371F071
:103D7000461301C04150A40FB11D1C9281E008956B
:103D800080E0089580E0089580E0089580E008953F
:103D9000E7EBFDE4138212821182108208950E94E3
:103DA000C81E1092BD4D2091B64D822F90E0FC01AF
:103DB000EC51F24B30813D3071F13091C14D231700
:103DC00051F1E7EBFDE4718150812F5F03C0262F95
:103DD000752F542FFC01EC51F24B4081822F90E063
:103DE000FC01EC51F24B30813D3041F4E7EBFDE456
:103DF0005183728340832093B64D0DC03091C14DE5
:103E000061E0620F3213E3CFE7EBFDE4518372838D
:103E100040832093B64DFC01EC51F24B20812D30B4
:103E200021F4FC01EC51F24B108208950E94C81E4F
:103E300080E090E0FC01EC51F24B1082019681157C
:103E400021E09207B9F71092C04D1092C14D109227
:103E5000B64D1092BD4D1092BC4D1092BB4D0895C1
:103E60001092C34E0E94161F0895CF92DF92EF92D8
:103E7000FF920F931F93CF937C016B0100E010E042
:103E8000C091BD4DCC2361F00E94CF1EB60187EBDF
:103E90009DE40E94C224C1E0892B69F4C0E00BC0FC
:103EA0000E949F08811104C00E94A3080F5F1F4F4A
:103EB0000E151F0528F38C2FCF911F910F91FF90A6
:103EC000EF90DF90CF900895EF92FF920F931F93A2
:103ED000CF937C0100E010E0C091BB4DCC2319F0E2
:103EE0001092BB4D0BC00E949F08811104C00E941C
:103EF000A3080F5F1F4F0E151F0570F38C2FCF9176
:103F00001F910F91FF90EF900895811110C06AE703
:103F100089E590E00E94332760E07FE08AE590E049
:103F20000E94532780E09FE00E94E20808958AE5FE
:103F300090E00E942E270E94E2080895CF93C82F98
:103F400089E590E00E941F27C11106C08A3721F43D
:103F500081E00E94851F03C080E00E94851FCF91F1
:103F60000895CF93DF93EC010E94E208BE018AE539
:103F700090E00E945327C13481E0D80720F0CE01A1
:103F80008054914002C080E090E00E948218DF914E
:103F9000CF910895FF920F931F93CF93DF93CDB7E7
:103FA000DEB76097CDBFDEBF88EC98E40E941D1E8F
:103FB000182F8823B1F060E1CE0101960E94851E82
:103FC000082F8CEC98E40E94F11A002321F08981DB
:103FD0000E947A18B9C082EE98E40E94F11A10E0AB
:103FE000B3C08DE099E40E941D1E082F8823C9F0FC
:103FF00060E1CE0101960E94851EF82E82E199E4CF
:104000000E94F11AFF2041F0CE0101960E94D023B8
:104010000E94641A102F98C089E299E40E94F11A54
:1040200093C085E599E40E941D1E182F8823C9F0CE
:1040300060E1CE0101960E94851EF82E8AE599E482
:104040000E94F11AFF2039F0CE0101960E94D02380
:104050000E940B1A79C081E799E40E94F11A102F8F
:1040600073C08DE999E40E941D1E882369F182EADC
:1040700099E40E94F11A89EB99E40E941D1E182F01
:10408000882329F080E093E00E94B11F5DC08EEB91
:1040900099E40E941D1E182F882329F080E09FE0DC
:1040A0000E94B11F51C083EC99E40E941D1E182F7D
:1040B000882329F080E09EE10E94B11F45C088EC72
:1040C00099E40E94F11A40C089EF99E40E941D1EF4
:1040D000811106C08EEF99E40E941D1E882331F0E5
:1040E00083E09AE40E943F1D11E02EC087EE9AE41F
:1040F0000E941D1E182F882349F08EEE9AE40E941C
:104100003F1D0E9454130E9409191EC087E09BE4C2
:104110000E941D1E182F882319F00E947D1114C0C3
:104120008DE09BE40E941D1E182F882369F080E01B
:104130000E94801180E00E94E41780E00E94851FA9
:1041400083E19BE40E943F1D812F6096CDBFDEBFBF
:10415000DF91CF911F910F91FF9008955058BB2789
:10416000AA270E94C6200C9440220E94322238F0D6
:104170000E94392220F039F49F3F19F426F40C9460
:104180002F220EF4E095E7FB0C942922E92F0E94E0
:10419000512258F3BA17620773078407950720F076
:1041A00079F4A6F50C9473220EF4E0950B2EBA2F39
:1041B000A02D0B01B90190010C01CA01A00111242D
:1041C000FF27591B99F0593F50F4503E68F11A16D9
:1041D000F040A22F232F342F4427585FF3CF46956A
:1041E00037952795A795F0405395C9F77EF41F168C
:1041F000BA0B620B730B840BBAF09150A1F0FF0F56
:10420000BB1F661F771F881FC2F70EC0BA0F621F41
:10421000731F841F48F4879577956795B795F79531
:104220009E3F08F0B0CF9395880F08F09927EE0FC6
:104230009795879508950E94052208F481E00895D6
:104240000E9434210C9440220E94392258F00E948E
:10425000322240F029F45F3F29F00C9429225111B9
:104260000C9474220C942F220E94512268F39923FB
:10427000B1F3552391F3951B550BBB27AA27621762
:104280007307840738F09F5F5F4F220F331F441F6F
:10429000AA1FA9F335D00E2E3AF0E0E832D09150A3
:1042A0005040E695001CCAF72BD0FE2F29D0660F90
:1042B000771F881FBB1F261737074807AB07B0E8D3
:1042C00009F0BB0B802DBF01FF2793585F4F3AF0D9
:1042D0009E3F510578F00C9429220C9474225F3F84
:1042E000E4F3983ED4F3869577956795B795F7955F
:1042F0009F5FC9F7880F911D9695879597F9089547
:10430000E1E0660F771F881FBB1F621773078407E2
:10431000BA0720F0621B730B840BBA0BEE1F88F7F1
:10432000E09508950E9499216894B1110C9474222B
:1043300008950E94592288F09F5798F0B92F992725
:10434000B751B0F0E1F0660F771F881F991F1AF080
:10435000BA95C9F714C0B13091F00E947322B1E050
:1043600008950C947322672F782F8827B85F39F04F
:10437000B93FCCF3869577956795B395D9F73EF419
:1043800090958095709561957F4F8F4F9F4F0895C1
:10439000E89409C097FB3EF49095809570956195DF
:1043A0007F4F8F4F9F4F9923A9F0F92F96E9BB2795
:1043B0009395F695879577956795B795F111F8CF11
:1043C000FAF4BB0F11F460FF1BC06F5F7F4F8F4F7C
:1043D0009F4F16C0882311F096E911C0772321F072
:1043E0009EE8872F762F05C0662371F096E8862F0A
:1043F00070E060E02AF09A95660F771F881FDAF761
:10440000880F9695879597F90895990F0008550F8D
:10441000AA0BE0E8FEEF16161706E807F907C0F04A
:1044200012161306E407F50798F0621B730B840B52
:10443000950B39F40A2661F0232B242B252B21F42C
:1044400008950A2609F4A140A6958FEF811D811DCC
:10445000089597F99F6780E870E060E008959FEF06
:1044600080EC089500240A9416161706180609060B
:10447000089500240A9412161306140605060895DA
:10448000092E0394000C11F4882352F0BB0F40F462
:10449000BF2B11F460FF04C06F5F7F4F8F4F9F4FA2
:1044A000089557FD9058440F551F59F05F3F71F024
:1044B0004795880F97FB991F61F09F3F79F087958B
:1044C0000895121613061406551FF2CF4695F1DF14
:1044D00008C0161617061806991FF1CF86957105A4
:1044E000610508940895E894BB2766277727CB01D8
:1044F00097F908950E94052208F48FEF08950E940D
:1045000092220C9440220E94322238F00E943922DA
:1045100020F0952311F00C9429220C942F221124C1
:104520000C9474220E94512270F3959FC1F3950F51
:1045300050E0551F629FF001729FBB27F00DB11D27
:10454000639FAA27F00DB11DAA1F649F6627B00DB7
:10455000A11D661F829F2227B00DA11D621F739FA0
:10456000B00DA11D621F839FA00D611D221F749FAE
:104570003327A00D611D231F849F600D211D822FF5
:10458000762F6A2F11249F5750409AF0F1F088231C
:104590004AF0EE0FFF1FBB1F661F771F881F915049
:1045A0005040A9F79E3F510580F00C9429220C94AD
:1045B00074225F3FE4F3983ED4F386957795679530
:1045C000B795F795E7959F5FC1F7FE2B880F911D73
:1045D0009695879597F908950E945922E8F09E379D
:1045E000E8F09639B8F49E3848F4672F782F88277A
:1045F000985FF9CF86957795679593959539D0F320
:10460000B62FB1706B0F711D811D20F487957795C2
:10461000679593950C9456230C9471230C947422F3
:1046200019F416F40C942F220C9471230E94592231
:10463000B8F39923C9F3B6F39F57550B87FF0E9430
:104640007F230024A0E640EA900180585695979574
:1046500028F4805C660F771F881F20F02617370725
:10466000480730F4621B730B840B202931294A2B35
:10467000A69517940794202531254A2758F7660FE9
:10468000771F881F20F026173707480730F4620B82
:10469000730B840B200D311D411DA09581F7B901CD
:1046A000842F9158880F969587950895882371F4E3
:1046B000772321F09850872B762F07C0662311F4BB
:1046C00099270DC09051862B70E060E02AF09A95F2
:1046D000660F771F881FDAF7880F9695879597F9E9
:1046E00008959F3F31F0915020F487957795679515
:1046F000B795880F911D9695879597F908959150D4
:104700005040660F771F881FD2F70895052E97FB3C
:104710001EF400940E949D2357FD07D00E94AE23F3
:1047200007FC03D04EF40C949D2350954095309592
:1047300021953F4F4F4F5F4F08959095809570950D
:1047400061957F4F8F4F9F4F0895EE0FFF1F0024FD
:10475000001C0BBE0790F691E02D0994A1E21A2EE1
:10476000AA1BBB1BFD010DC0AA1FBB1FEE1FFF1F15
:10477000A217B307E407F50720F0A21BB30BE40B65
:10478000F50B661F771F881F991F1A9469F76095AC
:104790007095809590959B01AC01BD01CF01089566
:1047A000662777270C949F25283008F027E03327C9
:1047B000DA01990F311D87FD916000966105710541
:1047C00039F432602E5F3D9330E32A95E1F7089586
:1047D0009F3F30F080387105610509F03C5F3C5F18
:1047E0003D93913008F08068911DDF93CF931F9324
:1047F0000F93FF92EF92192F987F9695E92F969538
:104800009695E90FFF27E259FE4F99273327EE24AB
:10481000FF24A701E70105900894079428F4360FB8
:10482000E71EF81E491F511D660F771F881F991F2D
:104830000694A1F70590079428F4E70EF81E491F87
:10484000561FC11D770F881F991F661F0694A1F779
:104850000590079428F4F80E491F561FC71FD11D55
:10486000880F991F661F771F0694A1F7059007947C
:1048700020F4490F561FC71FD81F990F661F771FB7
:10488000881F0694A9F784911095177041F0D6956A
:10489000C79557954795F794E7941A95C1F7E4E1C2
:1048A000F1E0689415901591359165919591059079
:1048B0007FE27395E118F10A430B560BC90BD0093F
:1048C000C0F7E10CF11E431F561FC91FD01D7EF417
:1048D000703311F48A95E6CFE894015030F0080F58
:1048E0000AF40027021708F4202F2395022F7A33A9
:1048F00028F079E37D932A95E9F710C07D932A95F6
:1049000089F6069497956795379517951794E1184A
:10491000F10A430B560BC90BD00998F023957E91F1
:1049200073957A3308F070E37C932013B8F77E9187
:1049300070617D9330F0839571E37D9370E32A95E8
:10494000E1F71124EF90FF900F911F91CF91DF912C
:10495000992787FD90950895FC010590615070405E
:104960000110D8F7809590958E0F9F1F0895FC0138
:104970006150704001900110D8F7809590958E0F8E
:104980009F1F0895FB0151915523A9F0BF01DC0140
:104990004D9145174111E1F759F4CD0101900020E7
:1049A00049F04D9140154111C9F3FB014111EFCF81
:1049B00081E090E0019708950F931F93CF93DF93C9
:1049C000FB01238121FD03C08FEF9FEF2CC022FF4D
:1049D00016C046815781248135814217530744F41C
:1049E000A081B1819D012F5F3F4F208331838C9344
:1049F000268137812F5F3F4F2683378314C08B0179
:104A0000EC01FB010084F185E02D0995892BE1F68D
:104A1000D80116968D919C911797019616968D93B5
:104A20009C931797CE01DF91CF911F910F9108951D
:104A30000F931F93CF93DF93CDB7DEB72E97CDBFE4
:104A4000DEBF0D891E8986E08C8309831A838FEF70
:104A50009FE78D839E83AE01475E5F4F6F89788DA0
:104A6000CE0101960E944601EF81F885E00FF11F0B
:104A700010822E96CDBFDEBFDF91CF911F910F9197
:104A80000895FA01AA27283051F1203181F1E894E4
:104A90006F936E7F6E5F7F4F8F4F9F4FAF4FB1E031
:104AA0003ED0B4E03CD0670F781F891F9A1FA11D2C
:104AB000680F791F8A1F911DA11D6A0F711D811D2D
:104AC000911DA11D20D009F468943F912AE0269FF2
:104AD00011243019305D3193DEF6CF010895462F51
:104AE0004770405D4193B3E00FD0C9F7F6CF462F32
:104AF0004F70405D4A3318F0495D31FD405241939B
:104B000002D0A9F7EACFB4E0A69597958795779557
:104B10006795BA95C9F700976105710508959B01DE
:104B2000AC010A2E06945795479537952795BA9567
:104B3000C9F7620F731F841F951FA01D08958F92E0
:104B40009F92AF92BF92CF92DF92EF92FF920F931C
:104B50001F93CF93DF93EC016B016115710519F081
:104B6000FB01808391837E01FFEFEF1AFF0A08812A
:104B7000802F90E00E94FB26892B11F0E701F3CFF4
:104B80000D3239F47E0182E0E80EF11C098111E05A
:104B900008C00B3229F47E0192E0E90EF11C098174
:104BA00010E0E701219743E050E066E172E0CE01BA
:104BB0000E940427892BC1F4239645E050E061E16F
:104BC00072E0CE010E940427892B09F42596C114B6
:104BD000D10419F0F601C083D1831111F6C060E051
:104BE00070E080E89FE7FAC043E050E06EE072E0DA
:104BF000CE010E940427892B59F4C114D10409F471
:104C0000E9C0F2E0EF0EF11CF601E082F182E2C0B1
:104C100020E030E0A901C0E0D0E0F70160EDA62E71
:104C2000A00E89E08A1530F1912F9260B92E812F64
:104C3000887012FF04C0811124C0219622C0811106
:104C40002197A5E0B0E00E945827DC01CB01880F36
:104C5000991FAA1FBB1F9C01AD012A0D311D411DCB
:104C6000511D283989E93807480789E1580748F074
:104C7000166006C09EEFA9120AC013FD40C018605E
:104C8000B12E8FEFE81AF80A00811B2DC6CF802FB6
:104C90008F7D8534A1F580818D3211F4106106C0BD
:104CA0008B3221F0319661E070E004C08181329650
:104CB00062E070E080538A3018F0E61BF70B1FC0EB
:104CC00060E070E060389CE079075CF4DB01AA0FDB
:104CD000BB1FAA0FBB1F6A0F7B1F660F771F680FD2
:104CE000711D3196DF0111978C9180538A3050F3FA
:104CF00014FF03C0719561957109C60FD71F11FF8D
:104D000008C0C114D10429F0CF010197F6018083B6
:104D10009183CA01B9010E94C821212F2370233039
:104D200019F04B015C0106C04B015C01B7FAB0946D
:104D3000B7F8B09420E030E0A901C501B4010E94A9
:104D40001B21882309F43EC0D7FF06C0D195C19529
:104D5000D1090DE212E002C005E412E06801F8E1B9
:104D6000CF1AD10890E2E92EF12CCE15DF0574F0B0
:104D7000F8012591359145915491C501B4010E94E6
:104D80007F224B015C01CE19DF09EFCF04501109DE
:104D9000F594E7940C151D0541F78A2D880F8B2D8E
:104DA000881F8F3F49F020E030E0A901C501B40120
:104DB0000E941B21811106C082E290E08093E44EA4
:104DC0009093E54EC501B40109C060E070E080E851
:104DD0009FEF04C060E070E080EC9FE7DF91CF912F
:104DE0001F910F91FF90EF90DF90CF90BF90AF9009
:104DF0009F908F90089591110C941C27803219F088
:104E000089508550C8F70895FB01DC01415050409E
:104E100088F08D9181341CF08B350CF4805E6591A7
:104E200061341CF06B350CF4605E861B611171F30C
:104E3000990B0895881BFCCF99278827089503D0E4
:104E4000808199270895FC01E050FC4E08950E944E
:104E50002327608171818281938108950E94232795
:104E6000808191810895262FAF93BF93E0E0F0E118
:104E7000328131FDFDCF3DE934BF33E13083DC01C8
:104E8000A050BC4E2C933DE934BF20E02083019616
:104E9000BF91AF910895242F0E943427252F0E949F
:104EA00034270C9453270E943327272F0C94342740
:104EB0000E946327A59F900DB49F900DA49F800D25
:104EC000911D11240895A29FB001B39FC001A39F1B
:104ED000700D811D1124911DB29F700D811D112433
:084EE000911D0895F894FFCF25
:104EE8000000C8410000C841010101064B064B63A0
:104EF80043064B9443064BD4431E44064B71440669
:104F08004B064B4300002041CDCC004201496E695D
:104F18007469616C697A696E67204D4C5839303311
:104F28003932204D61676E65746F6D6574657220E6
:104F380053656E736F722E2E2E004641494C4544C0
:104F48000D0A0043414C204241440D0A004F4B0DCD
:104F58000A005B4552524F525D20416C61726D20D0
:104F6800436F6D70617265204661696C65640D0AF6
:104F7800004D6178204D61676E69747564652053D2
:104F88007472656E6774683A20256C752C204372BC
:104F980061636B6564205468726573686F6C643A0A
:104FA80020256C752C2043757272656E74205661CD
:104FB8006C756520256C750D0A00416C61726D2059
:104FC8004241440A00416C61726D204F4B0A005BFC
:104FD8004552525D204661696C656420746F206398
:104FE80068616E6765204D4C583930333932206F0F
:104FF8007065726174696E67206D6F64652E0D0A45
:1050080000426567696E6E696E67206F70656E2015
:1050180077696E646F772063616C69627261746925
:105028006F6E2E0D0A005A65726F696E6720436FA6
:105038006D706C6574652E20585F6F6666203D2024
:1050480025642C20595F6F6666203D2025642C203E
:105058005A5F6F66663D2025640D0A0042656769E0
:105068006E6E696E6720636C6F7365642077696E16
:10507800646F772063616C6962726174696F6E2E08
:105088000D0A005363616C696E6720436F6D706C25
:10509800657465642E20585F7363616C6520203DDC
:1050A80020325E25642C20595F7363616C65203D56
:1050B80020325E25642C205A5F7363616C65203D45
:1050C80020325E25640D0A005B4552525D2053650F
:1050D8006E736F722076616C7565206973206265E6
:1050E8006C6F77206E6F697365206D617267696E8A
:1050F8002C20706C6561736520636C6F7365207418
:1051080068652077696E646F7720616E64207072BD
:105118006573732074686520627574746F6E20748B
:105128006F2072657472792E0D0A00426567696E88
:105138006E696E672077696E646F77207468726530
:1051480073686F6C642063616C6962726174696F03
:105158006E2E0D0A005B5741524E5D2054687265F1
:1051680073686F6C642069732062656C6F77206E5A
:105178006F697365206D617267696E2E2053656E65
:10518800736F72206D6179206E6F74206F70657215
:1051980061746520636F72726563746C792E0D0A91
:1051A800005468726573686F6C642063616C69622F
:1051B800726174696F6E20636F6D706C6574652EB3
:1051C800205468726573686F6C643A20256C750D9D
:1051D8000A005B4552524F525D20416C61726D204E
:1051E80043616C6962726174696F6E204661696CB3
:1051F80065642C20706C65617365207265747279C2
:105208002E0D0A0043616C6962726174696F6E20C9
:10521800436F6D706C657465642E0D0A004D61678F
:105228006E65746F6D65746572205375636365731D
:105238007366756C6C7920526573746172746564F9
:105248000D0A004F70656E207468652077696E647A
:105258006F7720616E64207072657373207468655F
:1052680020627574746F6E20746F20737461727429
:105278002E0D0A00506C6561736520636C6F736551
:10528800207468652077696E646F7720616E64208A
:105298007468652070726573732074686520627520
:1052A80074746F6E20746F20636F6E74696E7565A9
:1052B8002E0D0A00506C65617365206F70656E2055
:1052C8007468652077696E646F7720746F207468DE
:1052D80065206465736972656420746872657368B3
:1052E8006F6C642C207468656E207072657373200F
:1052F80074686520627574746F6E2E0D0A005B45C4
:1053080052525D2057696E646F7720697320746FFD
:105318006F206F70656E2E20506C65617365206319
:105328006C6F7365207468652077696E646F772089
:10533800616E64207072657373207468652062758D
:1053480074746F6E20746F2072657472792E0D0AF2
:1053580000506C6561736520636C6F7365207468B9
:10536800652077696E646F7720616E64207072655E
:1053780073732074686520627574746F6E20746F1F
:105388002066696E6973682E0D0A00496E69746932
:10539800616C697A696E67204D4C58393036333202
:1053A8002054656D70657261747572652053656E01
:1053B800736F722E2E2E000D0A4C6F616465642087
:1053C80063616368656420636F6E7374616E747380
:1053D80020616E642073657474696E67732E2E2E57
:1053E800000D0A4C6F6164656420636F6E737461AD
:1053F8006E74732066726F6D2073656E736F7220A2
:10540800616E6420726573657420746F20646566CC
:1054180061756C74732E2E2E004E6577205254439E
:1054280020436F6D706172653A20307825780D0AD7
:10543800005B4552525D204661696C656420746F5B
:105448002073746172742074656D7020636F6E765A
:10545800657273696F6E20696E2054454D505F53B5
:10546800544152540D0A0053746172746564206E7D
:1054780065772074656D7020636F6E7665727369E9
:105488006F6E20696E2054454D505F5354415254FD
:105498000D0A005B4552525D204661696C656420C7
:1054A800746F206765742074656D70206461746121
:1054B8002066726F6D204D4C5839303633325F6735
:1054C8006574526573756C747328290D0A005B4501
:1054D80052525D204661696C656420746F20636F69
:1054E8006D707574652074656D702066726F6D20BF
:1054F8004D4C5839303633325F636F6D7075746553
:1055080054656D706572617475726528290D0A009D
:105518004572726F72202D2054656D7065726174CA
:105528007572652073656E736F7220636F6D6D752C
:105538006E69636174696F6E206661696C75726506
:105548002E205265626F6F74206465766963650DFD
:105558000A005B5741524E5D20526F6F6D205465B3
:105568006D706572617475726520486967680D0AA7
:10557800005B5741524E5D20526F6F6D2054656D30
:105588007065726174757265204C6F770D0A005BE7
:105598005741524E5D20496E76616C696420556EA4
:1055A80069742053706563696669657220666F72F5
:1055B8002054656D70657261747572653A20005388
:1055C800656E736F722054656D7065726174757263
:1055D800653A2025322E316625630D0A526F6F6DAC
:1055E8002054656D70657261747572653A20253254
:1055F8002E316625630D0A005B4552525D205465C5
:105608006D706572617475726520726573756C74FE
:1056180073206E6F7420726561647920666F7220E2
:105628007072696E74696E672E0D0A005254432EAB
:10563800434D50203D20307825780D0A2C205254B7
:10564800432E504552203D20307825780D0A0054CD
:10565800656D706572617475726520726573756CBD
:10566800747320617265206E6F742072656164794D
:105678002E0D0A005265636569766564205374616E
:10568800747573204D6573736167653A20005245E0
:10569800424F4F5400444953434F4E4E45435400E4
:1056A80053545245414D5F4F50454E005B45525251
:1056B8005D20556E61626C6520746F206D61746346
:1056C8006820737472696E6720746F2072657370D6
:1056D8006F6E73652E0D0A005265636569766564A1
:1056E800205573657220436F6D6D616E643A2000BA
:1056F8003C434D44204F4B3E0D0A003C434D442053
:105708004241443E0D0A004E6F6E2D55736572205E
:10571800436F6D6D616E643A200024242400524E5C
:105728003438373020456E746572696E6720436F70
:105738006D6D616E64204D6F64652E2E2E002D2DCB
:105748002D004B4F4100457865637574696E67207D
:10575800436F6D6D616E643A202200222E2E2E005A
:10576800426567696E6E696E6720524E343837300D
:1057780020496E697469616C20506F7765722D5588
:105788007020436F6E6669672E2E2E0D0A005353E4
:105798002C343000532D2C4D4348502D4D4C58007F
:1057A800522C3100430049005354550052756E6E17
:1057B800696E672053545520436F6D6D616E640D9B
:1057C8000A005B4552525D204E6F20706172616D18
:1057D8006574657220666F756E6420696E20535417
:1057E8005520636F6D6D616E642E0D0A005354571A
:1057F8004C0052756E6E696E67205354574C2043A7
:105808006F6D6D616E640D0A005B4552525D204EEE
:105818006F20706172616D6574657220666F756E58
:105828006420696E205354574C20636F6D6D616E10
:10583800642E0D0A00535457480052756E6E696EF7
:1058480067205354574820436F6D6D616E640D0A8D
:10585800005B4552525D204E6F20706172616D652C
:1058680074657220666F756E6420696E2053545794
:105878004820636F6D6D616E642E0D0A005354539A
:10588800520052756E6E696E67205354535220430E
:105898006F6D6D616E640D0A0046415354004E4FA2
:1058A800524D00534C4F57005B4552525D20496E94
:1058B80076616C696420706172616D6574657220CF
:1058C800666F756E6420696E205354535220636F5F
:1058D8006D6D616E642E0D0A00494E464F004445B9
:1058E8004D4F00536D6172742057696E646F772055
:1058F80053656375726974792053656E736F72208E
:10590800616E6420526F6F6D2054656D70657261B1
:1059180074757265204D6F6E69746F720D0A4465F7
:1059280076656C6F706564206279204D6963726F6B
:105938006368697020546563686E6F6C6F6779205F
:10594800496E632E20776974682061737369737474
:10595800616E63652066726F6D204D656C65786950
:1059680073204E2E562E0D0A536F757263652043B1
:105978006F646520697320617661696C61626C652A
:105988002061743A206769746875622E636F6D2FA1
:105998006D6963726F636869702D7069632D6176D4
:1059A800722D6578616D706C65732F617672313216
:1059B80038646234382D6D6C7839303339322D6D56
:1059C800706C61620D0A005354415455530043757D
:1059D8007272656E742053797374656D20537461A7
:1059E80074653A200D0A00524543414C0052455314
:1059F80045540053657474696E67732077657265E2
:0A5A08002072657365742E0D0A000C
:02000004008278
:090000000800000000C00D000022
:00000001FF
