:100000000C94FF000C941E010C941E010C941E0114
:100010000C9440060C9473070C94BF070C941E01BB
:100020000C94641D0C941E010C941E010C941E0172
:100030000C941E010C941E010C941E010C941E01C4
:100040000C941E010C941E010C941E010C941E01B4
:100050000C941E010C9470080C941E010C941E014B
:100060000C941E010C941E010C941E010C941E0194
:100070000C941E010C941E010C941E010C941E0184
:100080000C941E010C941E010C941E010C941E0174
:100090000C941E010C941E010C94DE080C941E019D
:1000A0000C941E010C941E0116143414451454149F
:1000B000F7140C15E61519162016BF16ED16F916CD
:1000C0006E616E00696E660000407A10F35A00A0FF
:1000D000724E18090010A5D4E80000E87648170011
:1000E00000E40B54020000CA9A3B000000E1F50551
:1000F000000080969800000040420F000000A0869B
:1001000001000000102700000000E80300000000CC
:100110006400000000000A00000000000100000070
:1001200000002C76D888DC674F0823DFC1DFAE598A
:10013000E1B1B796E5E3E453C63AE651997696E81D
:10014000E6C28426EB898C9B62ED407C6FFCEFBCA1
:100150009C9F40F2BAA56FA5F490055A2AF75C93CC
:100160006B6CF9676DC11BFCE0E40D47FEF520E602
:10017000B500D0ED902E0300943577050080841EE5
:10018000080000204E0A000000C80C333333330F40
:10019000986E12831141EF8D2114893BE65516CFDD
:1001A000FEE6DB18D1844B381BF77C1D901DA4BBE9
:1001B000E424203284725E228100C9F124ECA1E59E
:1001C0003D274E414E494E495459494E46CDCCCC1F
:1001D0003D0AD7233C17B7D13877CC2B329595E61B
:1001E000241FB14F0A000020410000C84200401CFB
:1001F0004620BCBE4CCA1B0E5AAEC59D74001124CD
:100200001FBECFEFCDBFDFE7DEBF11E5A0E0B0E45A
:10021000E0E1F6E500E00BBF02C007900D92A63FBB
:10022000B107D9F724E5A6EFB1E501C01D92A539C4
:10023000B207E1F70E94F1100C94062B0C94000019
:100240002F923F924F925F926F927F928F929F92E6
:10025000AF92BF92CF92DF92EF92FF920F931F93D4
:10026000CF93DF93CDB7DEB76097CDBFDEBF7C0104
:100270001B016A01FC0116821782838181FF44C33E
:100280009E012F5F3F4F3901F7019381F10193FDEB
:10029000859193FF81911F01882309F431C3853231
:1002A00039F493FD859193FF81911F01853239F4D3
:1002B000B70190E00E94702856016501E5CF10E07B
:1002C000512C912CFFE1F915D8F08B3279F038F4EC
:1002D000803279F08332A1F4F92DF0612EC08D3295
:1002E00061F0803369F4292D21602DC0392D3260F1
:1002F000932E892D8460982E2AC0E92DE86015C0C0
:1003000097FC2DC020ED280F2A3088F496FE06C0F9
:100310003AE0139F200D1124122F19C08AE0589E35
:10032000200D1124522EE92DE0629E2E10C08E3237
:1003300031F496FCE5C2F92DF0649F2E08C08C368E
:1003400021F4292D2068922E02C0883641F4F10153
:1003500093FD859193FF81911F018111B3CF9BEB99
:10036000980F933020F4992D9061805E07C09BE92F
:10037000980F933008F066C1992D9F7E96FF16E086
:100380009F73992E853619F49064992E08C086368D
:1003900021F4392F3068932E02C01111115097FEAD
:1003A00007C01C3350F444244394410E27E00BC093
:1003B000183038F027E017E005C027E09CE3492E0D
:1003C00002C0212F412C560184E0A80EB11CF60179
:1003D0006081718182819381042DA3010E94822713
:1003E0006C01F981FC87F0FF02C0F3FF06C091FCAD
:1003F00006C092FE06C000E205C00DE203C00BE29B
:1004000001C000E08C858C7019F001115AC29BC2AA
:1004100097FE10C04C0CFC85F4FF04C08A81813328
:1004200009F44A94141474F528E0241578F588E04A
:10043000482E2CC096FC2AC0812F90E08C159D057B
:100440009CF03CEFC3163FEFD30674F0892D806813
:10045000982E0AC0E2E0F0E0EC0FFD1FE10FF11D65
:100460008081803319F411501111F4CF97FE0EC022
:1004700044244394410E812F90E0C816D9062CF4F1
:100480001C1904C04424439401C010E097FE06C028
:100490001C141D0434F4C601019605C085E090E0EB
:1004A00002C081E090E001110196112331F0212F6B
:1004B00030E02F5F3F4F820F931F252D30E08217D2
:1004C000930714F4581A01C0512C892D897049F4EE
:1004D000552039F0B70180E290E00E9470285A94CC
:1004E000F7CF002329F0B701802F90E00E947028F9
:1004F00093FC09C0552039F0B70180E390E00E94D9
:1005000070285A94F7CF97FE4CC04601D7FE02C020
:10051000812C912CC60188199909F301E80FF91F64
:10052000ED87FE879601241931092F87388B012F1B
:1005300010E01195019511093FEF8316930629F4F8
:10054000B7018EE290E00E947028C814D9044CF0E4
:100550008F8598898815990524F4ED85FE8581811C
:1005600001C080E3F1E08F1A91082D853E852F5F51
:100570003F4F2D873E87801691062CF0B70190E003
:100580000E947028D9CFC814D90441F49A819633B7
:1005900020F4953319F43C8534FF81E3B70190E0F2
:1005A0004EC08A81813319F09C859F7E9C87B7015C
:1005B00090E00E947028111105C094FC18C085E6D7
:1005C00090E017C0B7018EE290E00E9470281E5F95
:1005D00082E001E0080FF301E80FF11D8081B7010F
:1005E00090E00E947028802F0113F3CFE6CF85E4BE
:1005F00090E0B7010E947028D7FC06C0C114D10456
:1006000041F4EC85E4FF05C0D194C194D1088DE29A
:1006100001C08BE2B70190E00E94702880E32AE0DD
:10062000C216D1042CF08F5FFAE0CF1AD108F7CFB1
:10063000B70190E00E947028B701C601C0960E94E1
:10064000702854C1833631F0833779F0833509F04F
:1006500056C020C0560132E0A30EB11CF6018081C5
:10066000898301E010E0630112C05601F2E0AF0E91
:10067000B11CF601C080D18096FE03C0612F70E0EE
:1006800002C06FEF7FEFC6010E9465288C01F92D33
:10069000FF7714C0560122E0A20EB11CF601C08003
:1006A000D18096FE03C0612F70E002C06FEF7FEF34
:1006B000C6010E945A288C01F92DF0689F2EF3FD87
:1006C0001AC0852D90E008171907A8F4B70180E239
:1006D00090E00E9470285A94F4CFF60197FC85911F
:1006E00097FE81916F01B70190E00E947028511030
:1006F0005A94015011090115110579F7F7C0843694
:1007000011F0893661F5560197FE09C024E0A20E6A
:10071000B11CF60160817181828193810AC0F2E08F
:10072000AF0EB11CF60160817181072E000C880BA1
:10073000990BF92DFF769F2E97FF09C09095809514
:10074000709561957F4F8F4F9F4FF0689F2E2AE0E5
:1007500030E0A3010E94D528C82EC6183FC0092D3D
:10076000853721F40F7E2AE030E01DC0097F8F36E7
:1007700091F018F4883559F0C3C0803719F08837E4
:1007800011F0BEC0006104FF09C0046007C094FE00
:1007900008C0066006C028E030E005C020E130E077
:1007A00002C020E132E0560107FF09C084E0A80E34
:1007B000B11CF601608171818281938108C0F2E0F1
:1007C000AF0EB11CF6016081718180E090E0A30161
:1007D0000E94D528C82EC6180F77902E96FE0BC003
:1007E000092D0E7FC11650F494FE0AC092FC08C079
:1007F000092D0E7E05C0DC2C092D03C0DC2C01C0A8
:10080000D12E04FF0DC0FE01EC0DF11D808180335F
:1008100011F4097E09C002FF06C0D394D39404C02A
:10082000802F867809F0D39403FD11C000FF06C025
:100830001C2DD51480F4150D1D190DC0D51458F4B8
:10084000B70180E290E00E947028D394F7CFD514CE
:1008500010F45D1801C0512C04FF10C0B70180E3F3
:1008600090E00E94702802FF17C001FD03C088E7D6
:1008700090E002C088E590E0B7010CC0802F867838
:1008800059F001FF02C08BE201C080E207FD8DE25A
:10089000B70190E00E947028C11638F4B70180E3D8
:1008A00090E00E9470281150F7CFCA94F301EC0D2C
:1008B000F11D8081B70190E00E947028C110F5CF32
:1008C00015C0F4E0F51560F584E0581A93FE1FC0DA
:1008D000011127C02C8523FF2AC000EC10E0392D20
:1008E0003071932EF8018491811124C0552009F4B0
:1008F000E4CCB70180E290E00E9470285A94F6CFD1
:10090000F7018681978126C08FEF9FEF23C0B70143
:1009100080E290E00E9470285A945110F8CFD8CF0E
:10092000512CB701802F90E00E947028D3CF04ECA7
:1009300010E0D5CF91108052B70190E00E9470284E
:100940000F5F1F4FCFCF23E0251510F483E0BDCFFD
:10095000512CC0CF6096CDBFDEBFDF91CF911F91EC
:100960000F91FF90EF90DF90CF90BF90AF909F904E
:100970008F907F906F905F904F903F902F90089551
:10098000CF93DF930E94A306D0E00E943C06C82FBD
:10099000811102C0C0E01AC00E949F06811103C0ED
:1009A000DF5F0E94A306DA30A9F38091050985FD77
:1009B0000DC08091050982FD09C08091050983FD64
:1009C00005C08091050983708330F9F68C2FDF9183
:1009D000CF9108950E943C06882361F0909105090B
:1009E0009C7149F490910509937081E0933019F05E
:1009F00080E0089581E00895E0E0F9E084E08083FC
:100A0000118281E082839DEF95839FE096838383AB
:100A10000895E0E4F4E08CE081838683E0EEF5E085
:100A200085818C7F85838581826085830895089583
:100A3000CF939091050993709330A1F0880F682BA4
:100A4000609307090E94C004C82F811104C083E08D
:100A50008093040908C00E94EA04882321F083E0FF
:100A600080930409C0E08C2FCF910895FF920F93DB
:100A70001F93CF93DF93D62F20E2209305098C019B
:100A8000C0E082E0F82ECD1789F00E94C0048111E9
:100A900002C083E00CC080910809F80181938F01A6
:100AA000CF5FDC1781F3F0920409EDCF87E08093EC
:100AB0000409DF91CF911F910F91FF9008950F933B
:100AC0001F93CF93DF93EC018C01060F111DC0170C
:100AD000D10769F08991809308090E94C004882396
:100AE00039F08091050984FFF2CF80E001C081E0F8
:100AF000DF91CF911F910F9108951F93CF93DF93B3
:100B0000EB01142F60E00E941805882339F0612F53
:100B1000CE010E945F0593E090930409DF91CF918D
:100B20001F9108950F931F93CF938B0161E00E9453
:100B30001805C82F882321F061E0C8010E943605FE
:100B40008C2FCF911F910F9108950F931F93CF93E7
:100B5000DF938B01D42F61E00E941805C82F8823F2
:100B600021F06D2FC8010E9436058C2FDF91CF91A7
:100B70001F910F910895EF92FF920F931F93CF93C0
:100B8000DF931F92CDB7DEB769837A01022F60E051
:100B90000E941805182F882331F161E0CE010196DB
:100BA0000E945F05182F882369F0809107098160F2
:100BB0008093070981E0809304090E94C004182FE4
:100BC000811104C083E0809304090DC00E94EA04EF
:100BD000882329F083E08093040910E004C0602F8B
:100BE000C7010E943605812F0F90DF91CF911F9191
:100BF0000F91FF90EF900895CF92DF92EF92FF92C6
:100C00000F93CF93DF936B01D42F790160E00E94A3
:100C10001805C82F882311F16D2FC6010E945F05AA
:100C2000C82F811104C083E08093040917C080910C
:100C3000070981608093070981E0809304090E947D
:100C4000C0040E94EA04882329F083E08093040909
:100C5000C0E004C0602FC7010E9436058C2FDF91D1
:100C6000CF910F91FF90EF90DF90CF900895109269
:100C7000F6511092F75108958091C2008170089545
:100C80001F920F920FB60F9211240BB60F922F9353
:100C90003F934F935F936F937F938F939F93AF9304
:100CA000BF93EF93FF93E091F651F091F751309796
:100CB00009F009958091C10081608093C100FF9186
:100CC000EF91BF91AF919F918F917F916F915F91C4
:100CD0004F913F912F910F900BBE0F900FBE0F9031
:100CE0001F90189583E08093500008950E94F407A8
:100CF0000E9437060E9409050E94FC040E940F080A
:100D00000E94A1080E94B3080E94BB080E9490069E
:100D10000E94A9060E940F090E9440090C944D09E7
:100D200081E080933E02E0E0FBE0808796E09183E3
:100D3000848320EA3FE0248735878083089580916B
:100D4000070B817008950000000081E0809300028D
:100D5000089581E0809345018093550183E080935D
:100D60004201109247018091410182FDFCCF80E059
:100D70009FE080934A0190934B018091410183FD54
:100D8000FCCF80EC9DE080934C0190934D018091CD
:100D9000410180FDFCCF89EB8093400181E080938D
:100DA00052018091510180FDFCCF81E3809350017D
:100DB00008958091410180FDFCCF809140018E7F9C
:100DC000809340018091410181FDFCCF1092480148
:100DD000109249018091410180FDFCCF809140013A
:100DE00081608093400108958093FB519093FC5162
:100DF000089580914A0190914B01089580914C0192
:100E000090914D010895E0E4F1E08085218590E026
:100E1000922B08959C018091410180FDFCCF90911F
:100E200040019E7F909340018091410181FDFCCF64
:100E300010924801109249018091410182FDFCCF3E
:100E400020934A0130934B018091410180FDFCCFFA
:100E50008091400181608093400108959C018091C0
:100E6000410180FDFCCF909140019E7F9093400115
:100E70008091410181FDFCCF1092480110924901FF
:100E80008091410183FDFCCF20934C0130934D01B3
:100E90008091410180FDFCCF809140018160809371
:100EA000400108959091510190FDFCCF81608093A5
:100EB00050010895F8948091FA5178940895F89427
:100EC0001092FA5178940895F8948091F951789499
:100ED0000895F8941092F95178940895F894109226
:100EE000F851789408951F920F920FB60F92112423
:100EF0000BB60F922F933F934F935F936F937F9314
:100F00008F939F93AF93BF93EF93FF938091430190
:100F100080FF0FC081E08093F951E091FD51F09185
:100F2000FE51309709F009958091430181608093CB
:100F300043018091430181FF0FC081E08093F8510C
:100F4000E091FB51F091FC51309709F009958091A7
:100F50004301826080934301FF91EF91BF91AF9174
:100F60009F918F917F916F915F914F913F912F91C1
:100F70000F900BBE0F900FBE0F901F9018951F92F1
:100F80000F920FB60F9211240BB60F922F933F932F
:100F90004F935F936F937F938F939F93AF93BF9381
:100FA000EF93FF9381E08093FA51E091FF51F0912C
:100FB0000052309709F00995809153018160809328
:100FC0005301FF91EF91BF91AF919F918F917F91CD
:100FD0006F915F914F913F912F910F900BBE0F90AA
:100FE0000FBE0F901F901895E0E0F4E084E0838737
:100FF0009CED9587918190649183E0E4F4E0808B8F
:10100000818BE0E6F4E09EE3918394E8938798E394
:101010009587838797EC95878093B0040895109205
:10102000025210920352E0E0F8E081E0838780E80A
:10103000858383E087838BE890E0808791871682A1
:101040000895A0E0B4E090E115969C931597E0EE2A
:10105000F5E082818C7F8283828181608283119618
:101060009C93119780E212968C930895E0E0F8E04B
:101070008681806486830895E0E0F8E086818F7B36
:1010800086830895E0E0F8E086818068868308958D
:10109000E0E0F8E086818F7786830895809302529E
:1010A0009093035208958091040885FB882780F966
:1010B0000895CF93C82F0E945308882339F0909148
:1010C0000408906490930408C0930208CF91089597
:1010D0008091040886FB882780F991E0892708958C
:1010E0001F920F920FB60F9211240BB60F922F93EF
:1010F0003F934F935F936F937F938F939F93AF93A0
:10110000BF93EF93FF9380910008E0910252F0911A
:101110000352309709F0099510920152FF91EF9117
:10112000BF91AF919F918F917F916F915F914F91FF
:101130003F912F910F900BBE0F900FBE0F901F90FD
:1011400018951092055210920652E0E4F8E081E002
:10115000838780E9858383E087838BE890E08087BD
:10116000918716820895E0EAF4E081E08583818327
:1011700082E082830895E0E4F8E0868180648683DB
:1011800008958091440885FB882780F90895CF93BE
:10119000C82F0E94C108882339F0909144089064B8
:1011A00090934408C0934208CF91089580914408D9
:1011B00086FB882780F991E0892708951F920F9276
:1011C0000FB60F9211240BB60F922F933F934F93AC
:1011D0005F936F937F938F939F93AF93BF93EF939F
:1011E000FF9380914008E0910552F09106523097AC
:1011F00009F0099510920452FF91EF91BF91AF91C0
:101200009F918F917F916F915F914F913F912F911E
:101210000F900BBE0F900FBE0F901F901895E0E03F
:10122000F6E081E0868784E0808385E08093B000EB
:101230008CE082838DE1858386E0808780E48187EE
:1012400080818160808308958093080681E0809387
:101250000A0680910A0680FDFCCF809110069091CD
:10126000110608950E942409BC0180E090E00E94CC
:10127000B72524E930E343ED5BE30E946E26089531
:10128000E0E0FAE081E083838EE187A383E081A739
:1012900083A785A78DE08083089583E08093E6058A
:1012A0000895E0E0FAE08181806181830895E0E0C3
:1012B000FAE08181806281830895E0E0FAE0818133
:1012C000806481830895E0E0FAE081818F7E8183EC
:1012D0000895E0E0FAE081818F7D81830895E0E068
:1012E000FAE081818F7B818308950F939B01E7E072
:1012F000F2E590838183042F42E0BF018AE30E94DC
:10130000FC050F910895CF93DF93CCE0D2E568817F
:10131000798180E090E00E94E72A6A817B8182E007
:1013200090E00E94E72A6C817D8184E090E00E9439
:10133000E72A40914E5250914F5260915052709115
:10134000515286E090E00E94DF2A40914A5250912B
:101350004B5260914C5270914D528AE090E00E9445
:10136000DF2A409146525091475260914852709105
:1013700049528EE090E00E94DF2A40914252509103
:101380004352609144527091455282E190E00E9434
:10139000DF2A40913E5250913F52609140527091ED
:1013A000415286E190E00E94DF2A40913A525091EA
:1013B0003B5260913C5270913D528AE190E00E9414
:1013C000DF2A4091365250913752609138527091D5
:1013D00039528EE190E00E94DF2A409132525091C2
:1013E0003352609134527091355282E290E00E9403
:1013F000DF2A40912E5250912F52609130527091BD
:10140000315286E290E00E94DF2A40912A525091A8
:101410002B5260912C5270912D528AE290E00E94E2
:10142000DF2A4091265250912752609128527091A4
:1014300029528EE290E00E94DF2A40912252509180
:101440002352609124527091255282E390E00E94D1
:10145000DF2A40911E5250911F526091205270918C
:10146000215286E390E00E94DF2A688179818A8197
:101470009B81682779278C819D81682779278AE35A
:1014800090E0DF91CF910C94E72A80915252089519
:101490000F931F93CF93DF93CDB7DEB72697CDBFC2
:1014A000DEBF8C0146E0BE016F5F7F4F85E094E2B6
:1014B0000E9475098823C1F089819A81982789271C
:1014C0009827F801808391838B819C8198278927B5
:1014D0009827828393838D819E81982789279827D7
:1014E0008483958381E001C080E02696CDBFDEBF76
:1014F000DF91CF911F910F9108958F929F92AF929C
:10150000BF92CF92DF92EF92FF921F93CF93DF9320
:1015100000D0CDB7DEB78CE092E50E94480A182FC4
:10152000811102C010E0D0C080E090E00E94C22A89
:101530004C0182E090E00E94C22A5C0184E090E0CD
:101540000E94C22A6C017401EA24FB24E826F926D1
:101550008AE390E00E94C22A89839A8389819A81D2
:10156000E816F906F9F680910C5290910D52881602
:101570009906C1F680910E5290910F52A816B906A5
:1015800089F68091105290911152C816D90651F6E1
:1015900086E090E00E94BB2A60934E5270934F52B7
:1015A00080935052909351528AE090E00E94BB2A5F
:1015B00060934A5270934B5280934C5290934D5289
:1015C0008EE090E00E94BB2A60934652709347528F
:1015D000809348529093495282E190E00E94BB2A46
:1015E0006093425270934352809344529093455279
:1015F00086E190E00E94BB2A60933E5270933F5276
:1016000080934052909341528AE190E00E94BB2A1D
:1016100060933A5270933B5280933C5290933D5268
:101620008EE190E00E94BB2A60933652709337524D
:10163000809338529093395282E290E00E94BB2A04
:101640006093325270933352809334529093355258
:1016500086E290E00E94BB2A60932E5270932F5234
:1016600080933052909331528AE290E00E94BB2ADC
:1016700060932A5270932B5280932C5290932D5248
:101680008EE290E00E94BB2A60932652709327520C
:10169000809328529093295282E390E00E94BB2AC3
:1016A0006093225270932352809324529093255238
:1016B00086E390E00E94BB2A60931E5270931F52F3
:1016C0008093205290932152812F0F900F90DF91A1
:1016D000CF911F91FF90EF90DF90CF90BF90AF9090
:1016E0009F908F900895CF92DF92EF92FF921F9379
:1016F000CF93DF93CDB7DEB76897CDBFDEBF8CE069
:1017000092E50E94480A182F882309F412C240E18A
:10171000BE016F5F7F4F8CE094E20E9475098111DA
:1017200002C010E006C22B816C81862F90E0A0E001
:10173000B0E0DC0199278827B22B2A81AC01BD01DA
:10174000422B898190E0982F8827A0E0B0E06A01C1
:101750007B01C82AD92AEA2AFB2AC701B6010E94BE
:10176000B92520E030E040E85BE30E946E266093FC
:101770004E5270934F5280935052909351522F81FA
:101780006885862F90E0A0E0B0E0DC0199278827EB
:10179000B22B2E81AC01BD01422B8D8190E0982FA0
:1017A0008827A0E0B0E06A017B01C82AD92AEA2A8A
:1017B000FB2AC701B6010E94B92520E030E040E8CD
:1017C00055E30E946E2660934A5270934B52809369
:1017D0004C5290934D522B856C85862F90E0A0E063
:1017E000B0E0DC0199278827B22B2A85AC01BD0126
:1017F000422B898590E0982F8827A0E0B0E06A010D
:101800007B01C82AD92AEA2AFB2AC701B6010E940D
:10181000B92520E030E040E859E20E946E2660934E
:1018200046527093475280934852909349522F8565
:101830006889862F90E0A0E0B0E0DC019927882736
:10184000B22B2E85AC01BD01422B8D8590E0982FE7
:101850008827A0E0B0E06A017B01C82AD92AEA2AD9
:10186000FB2AC701B6010E94B92520E030E040E81C
:101870005BE30E946E2660934252709343528093C2
:1018800044529093455248E1BE016F5F7F4F84E21E
:1018900094E20E947509882309F443CF2B816C815F
:1018A000862F90E0A0E0B0E0DC0199278827B22BDA
:1018B0002A81AC01BD01422B898190E0982F8827B5
:1018C000A0E0B0E06A017B01C82AD92AEA2AFB2AF3
:1018D000C701B6010E94B92520E030E040E857E397
:1018E0000E946E2660933E5270933F528093405206
:1018F000909341522F816885862F90E0A0E0B0E060
:10190000DC0199278827B22B2E81AC01BD01422B27
:101910008D8190E0982F8827A0E0B0E06A017B01DC
:10192000C82AD92AEA2AFB2AC701B6010E94B9258A
:1019300020E030E040E85BE30E946E2660933A527C
:1019400070933B5280933C5290933D522B856C8513
:10195000862F90E0A0E0B0E0DC0199278827B22B29
:101960002A85AC01BD01422B898590E0982F8827FC
:10197000A0E0B0E06A017B01C82AD92AEA2AFB2A42
:10198000C701B6010E94B92520E030E040E858E2E6
:101990000E946E266093365270933752809338526D
:1019A000909339522F856889862F90E0A0E0B0E0AF
:1019B000DC0199278827B22B2E85AC01BD01422B73
:1019C0008D8590E0982F8827A0E0B0E06A017B0128
:1019D000C82AD92AEA2AFB2AC701B6010E94B925DA
:1019E00020E030E040E85DE20E946E2660933252D3
:1019F0007093335280933452909335522B896C8973
:101A0000862F90E0A0E0B0E0DC0199278827B22B78
:101A10002A89AC01BD01422B898990E0982F882743
:101A2000A0E0B0E06A017B01C82AD92AEA2AFB2A91
:101A3000C701B6010E94B92520E030E040E85DE230
:101A40000E946E2660932E5270932F5280933052D4
:101A5000909331526D897E89762767277627072EE6
:101A6000000C880B990B0E94B92520E030E040E87B
:101A70005AE30E946E2660932A5270932B528093F1
:101A80002C5290932D526F89788D76276727762771
:101A9000072E000C880B990B0E94B92520E030E03E
:101AA00040E85AE30E946E266093265270932752B4
:101AB000809328529093295244E0BE016F5F7F4F7C
:101AC00081E894E20E947509882309F42ACE69818D
:101AD0007A81762767277627072E000C880B990BCB
:101AE0000E94B92520E030E040E858E30E946E26CD
:101AF00060932252709323528093245290932552E4
:101B00006B817C81762767277627072E000C880B50
:101B1000990B0E94B92520E030E040E85AE30E948A
:101B20006E2660931E5270931F52809320529093A2
:101B30002152812F6896CDBFDEBFDF91CF911F91DB
:101B4000FF90EF90DF90CF900895CF93882341F0DE
:101B50000E94730BC82F882359F00E94830908C084
:101B60000E947D0AC82F882399F381E08093525206
:101B70008C2FCF9108950F93CF93DF93EB01909328
:101B800007528093085202E029E032E542E067E024
:101B900072E58AE30E94FC05882359F0809109527E
:101BA00090910A529827892798278883998381E002
:101BB00001C080E0DF91CF910F910895BC018FEFBC
:101BC0009FE30C94BB0DCF93DF93CDB7DEB72E9779
:101BD000CDBFDEBF42E0BE01635F7F4F8FEF9FE36B
:101BE0000E947509811102C080E04AC08E858C7701
:101BF00090E0959587959595879580930B524CE04D
:101C0000BE016F5F7F4F83E090E40E9475098823D7
:101C100059F389819A8198278927982780931252AE
:101C2000909313528B819C819827892798278093C2
:101C30001452909315528D819E8198278927982759
:101C400080931652909317528F81988598278927F1
:101C50009827809318529093195289859A859827CE
:101C60008927982780931A5290931B528B859C85C5
:101C700098278927982780931C5290931D5281E0C2
:101C80002E96CDBFDEBFDF91CF9108950F931F93A6
:101C9000CF93DF9300D0CDB7DEB7CE0101960E947F
:101CA000DE0D882381F099818A8190FF08C0082F7A
:101CB0000695069510E081E00827017001C000E05C
:101CC000802F817001C080E00F900F90DF91CF9145
:101CD0001F910F910895E7E0F2E59083818372836D
:101CE000638344E0BF018AE30C947D0562E078E001
:101CF00081E090E30C946B0E4F925F926F927F9213
:101D00008F929F92AF92BF92CF92DF92EF92FF920B
:101D1000CF93DF93CDB7DEB72D97CDBFDEBF8091D8
:101D20000B52823029F080910B52813009F07DC135
:101D300060911C5270911D52072E000C880B990B5C
:101D40000E94B9254B015C016091165270911752A7
:101D5000072E000C880B990B0E94B92520E030E07B
:101D600040E451E40E9416256B017C0120912A5227
:101D700030912B5240912C5250912D520E946E2640
:101D8000A50194010E94A5249B01AC01C701B601E5
:101D90000E94162520E030E040E059E40E946E26C3
:101DA00069837A838B839C8380910B52813049F4C1
:101DB0006091125270911352809114529091155269
:101DC00008C0609118527091195280911A529091E6
:101DD0001B52680F791F072E000C880B990B0E946D
:101DE000B92520E030E040E05FE30E946E2620E06D
:101DF00030E040E451E40E9416252B013C01209183
:101E00002652309127524091285250912952C701B1
:101E1000B6010E946E26A50194010E94A5249B0193
:101E2000AC01C301B2010E94162520E030E040E081
:101E300059E40E946E262B013C0120914E523091B4
:101E40004F52409150525091515269817A818B8109
:101E50009C810E94A4246B017C0120914A52309104
:101E60004B5240914C5250914D520E941625209158
:101E700042523091435240914452509145520E94F7
:101E8000A5244B015C01A7019601C701B6010E9480
:101E90006E262091465230914752409148525091BF
:101EA00049520E946E269B01AC01C501B4010E94FB
:101EB000A5244B015C016093004070930140809326
:101EC00002409093034023E333E948E853E40E943F
:101ED000A5246B017C012091225230912352409124
:101EE0002452509125526091365270913752809110
:101EF0003852909139520E946E2669837A838B837F
:101F00009C8380912E5290912F52A0913052B0918B
:101F100031528D839E83AF83B88720E030E048EC58
:101F200051E4C501B4010E94A424209132523091A1
:101F3000335240913452509135520E946E264B01DB
:101F40005C01A7019601C701B6010E946E26A70198
:101F500096010E946E26A70196010E946E266B01D3
:101F60007C0180911E5290911F52A0912052B091FD
:101F7000215289879A87AB87BC8793E09D87B0E021
:101F8000A0E0F8ECE1E420E030E048EC51E46B2F15
:101F90007A2F8F2F9E2F0E94A4242D813E814F8166
:101FA00058850E946E2620E030E040E85FE30E9402
:101FB000A524A50194010E94A52429813A814B8181
:101FC0005C810E946E269B01AC01C301B2010E949C
:101FD0001625A70196010E94A5240E9405270E94AC
:101FE000052723E333E948E853E40E94A424298524
:101FF0003A854B855C850E94A424AD85A150AD87B0
:10200000B62FA72FF82FE92F2D852111BCCFC62E73
:10201000D72EE82EF92EC0920440D0920540E092CF
:102020000640F092074081E001C080E02D96CDBFD0
:10203000DEBFDF91CF91FF90EF90DF90CF90BF9008
:10204000AF909F908F907F906F905F904F9008958A
:102050006091004070910140809102409091034056
:1020600008956091044070910540809106409091E0
:10207000074008950F931F93CF93C82F8B010E94A1
:102080003C06882349F021E0A8016C2F8CE0CF9119
:102090001F910F910C94BB0580E0CF911F910F9180
:1020A00008950F931F93CF93DF9300D0CDB7DEB782
:1020B000082F162F0E943C06882349F009831A83B3
:1020C00042E0BE016F5F7F4F8CE00E947D050F9064
:1020D0000F90DF91CF911F910F91089566E081E1FC
:1020E0000C9451100E946E10882351F065EB85E12D
:1020F0000E945110882321F06DE284E10C9451106C
:1021000080E00895CF93DF931F92CDB7DEB70E9492
:102110003C06882359F01982BE016F5F7F4F8CE027
:102120000E949205882311F0898181700F90DF91C0
:10213000CF910895682F80E10C945110CF93DF93D5
:10214000EC010E943C06882339F048E0BE018CE097
:10215000DF91CF910C94A50580E0DF91CF91089598
:102160000E9412220E9450248823A1F08CE290E465
:102170000E94761E0E9439240E9469070E94F6126E
:1021800081110E94F9120E947F1981110E945E1A2A
:102190000C94D9060E943C24811116C00E94DE1DB9
:1021A000882391F00E94F61281110C94F9120E947A
:1021B0006407882349F00E9469070E94F9120E946F
:1021C000151781110C945E1A08950E9464078823E4
:1021D00021F00E9469070C9412220E9447220C945D
:1021E00038220E9472060E94760680EF9EE10E94CD
:1021F0004E0881E090E20E94E01C80E799E10E9495
:10220000F406C2B1C1708C2F0E94E51F8C2F0E9472
:10221000EB118C2F0E94881878940E94941D0E94C4
:10222000CE23A8950E94BF1E0E94E51C882349F07A
:102230000E945F070E9427170E9415178823A9F0A4
:1022400009C00E94E51C811110C00E945A0781112B
:10225000EFCF0BC00E94E51C811103C00E94291919
:1022600004C00E94E5188111F9CF0E94E51C882363
:1022700079F00E94E5100E941C17882331F00E941B
:10228000E818882311F08895CCCF0E94461DC9CF4D
:102290000E94B0100E94F1230E945E240E94E0235D
:1022A000882309F4BECF0E941C17882309F4B9CFF4
:1022B0000E941517882309F4B4CF0E94DE1D8111F6
:1022C000B0CF87E890E40E94331C0E94981DA9CFEC
:1022D00087E490E00E94BB2A609377527093785213
:1022E0008093795290937A528BE490E00E94BB2ABB
:1022F0006093735270937452809375529093765298
:102300008FE490E00E94C22A80937152909372529F
:1023100081E590E00E94C22A80936F5290937052A0
:1023200083E590E00E94C22A80936D5290936E5292
:1023300085E590E00E94B32A80930A4086E590E00C
:102340000E94B32A8093094087E590E00E94B32A57
:10235000809308408BE080937C52089597FF03C0E0
:102360009195819591099C0181E02038310524F0F7
:10237000359527958F5FF9CF089510927C52089577
:10238000811103C010927C5208950C9468111F9320
:10239000CF93DF931F92CDB7DEB7182F10927C52E8
:1023A000BE016F5F7F4F8BE00E943A10882369F077
:1023B00086E490E00E94B32A111107C09981891325
:1023C00004C00E94681181E001C080E00F90DF919D
:1023D000CF911F910895CF93C82F82B181708093C0
:1023E000695289EC90E40E94021C0E9472108111D3
:1023F00009C086EF90E40E94331C82E080937B52F8
:10240000CF9108958C2F0E94C711811105C01092A1
:102410007C528DEF90E402C08FE891E4CF910C9450
:10242000331CFC018781817008958F929F92AF9237
:10243000BF92CF92DF92EF92FF92CF93DF937C0116
:10244000EB010E941112882381F085E091E40E9443
:10245000331C8FEF888389838A838FEF9FEFDC01A2
:102460008B839C83AD83BE8379C0F7014181528108
:102470008091715290917252481B590B2381348183
:1024800080916F5290917052281B390B85819681F3
:1024900060916D5270916E52861B970B00900A40AE
:1024A00002C0559547950A94E2F70090094002C092
:1024B000359527950A94E2F70090084002C095955B
:1024C00087950A94E2F7449F6001459FD00CD00C99
:1024D00011244601DD0CAA08BB08229F6001239F3E
:1024E000D00CD00C11240D2C000CEE08FF08C80CE9
:1024F000D91CEA1CFB1C889F4001899F900C900C02
:102500001124092C000CAA08BB08C80CD91CEA1C11
:10251000FB1CCB82DC82ED82FE824038510514F038
:102520004FE705C04038FFEF5F070CF440E84883F1
:102530002038310514F02FE705C020384FEF34075D
:102540000CF420E829838038910514F08FE705C04A
:1025500080386FEF96070CF480E88A83DF91CF9183
:10256000FF90EF90DF90CF90BF90AF909F908F90B3
:1025700008950F931F93FC014381548165817681F7
:102580008091775290917852A0917952B0917A527D
:10259000481759076A077B0770F081E00091735272
:1025A000109174522091755230917652041715078C
:1025B0002607370708F480E01F910F9108950E94C5
:1025C000B91290916752882321F0992339F09150E4
:1025D00003C0943119F09F5F9093675280916752C6
:1025E0008A3019F481E080936B52089580916B5288
:1025F000089510926B5280917B52823029F48EE3C1
:1026000091E40E94761E0CC0E0917C52EB3041F0C8
:10261000F0E0EE0FFF1FE55FFF4B8081918109C065
:10262000809167528A3018F08FE791E402C089E800
:1026300091E40C94761E3F924F925F926F927F923C
:102640008F929F92AF92BF92CF92DF92EF92FF92C2
:102650000F931F93CF93DF936090735250907452F7
:102660004090755230907652A09077529090785268
:102670008090795270907A52B0900840C090094092
:10268000D0900A40F0906D52E0906E5210916F52CF
:1026900000917052C0917152D09172520E94DA1E14
:1026A0003F924F925F926F927F928F929F92AF92E2
:1026B0001F92BF921F92CF921F92DF92EF92FF92D2
:1026C0000F931F93DF93CF9322E931E43F932F932E
:1026D0009F938F930E94AC288DB79EB748968DBF6D
:1026E0009EBFDF91CF911F910F91FF90EF90DF90F0
:1026F000CF90BF90AF909F908F907F906F905F90A2
:102700004F903F900C94DC1E81E080936C520895B2
:10271000CF9368E672E58BE00E943A10C82F8823B9
:1027200009F448C0409177525091785260917952A3
:1027300070917A5287E490E00E94DF2A40917352B0
:102740005091745260917552709176528BE490E082
:102750000E94DF2A60917152709172528FE490E072
:102760000E94E72A60916F527091705281E590E06B
:102770000E94E72A60916D5270916E5283E590E05D
:102780000E94E72A60910A4085E590E00E94C72AEE
:102790006091094086E590E00E94C72A6091084058
:1027A00087E590E00E94C72A6091685286E490E035
:1027B0000E94C72A8C2FCF9108954F925F926F92FB
:1027C0007F928F929F92AF92BF92CF92DF92EF92C1
:1027D000FF92CF93DF93DB0113968D909D90AD9088
:1027E000BC901697409173525091745260917552FB
:1027F00070917652481559056A057B0540F4809220
:10280000735290927452A0927552B0927652E091A7
:102810007C524E2F50E04C30510508F0ECC27D0147
:10282000EC01FA01EC5AFF4F0C9475271092665296
:1028300081E080937C521092625210926352109207
:1028400064521092655210925E5210925F52109232
:1028500060521092615210925A5210925B52109232
:102860005C5210925D52C7C28AE00E949A1088237F
:1028700039F082E080937C5281E080936B52BBC23E
:1028800085E092E40E94331CB6C280916A5288238C
:1028900009F4B1C285E392E40E94331C87E592E417
:1028A0000E94761E83E0B1C00E941112882339F085
:1028B0008AE792E40E94761E82E080937C52209107
:1028C0005852309159522F5F3F4F209358523093B6
:1028D0005952C980DA800D2C000CEE08FF08809157
:1028E000625290916352A0916452B0916552C80EA9
:1028F000D91EEA1EFB1EC0926252D0926352E09231
:102900006452F09265528B809C80092C000CAA08BE
:10291000BB0880915E5290915F52A0916052B0913D
:102920006152880E991EAA1EBB1E80925E52909222
:102930005F52A0926052B09261524D805E80052C31
:10294000000C6608770880915A5290915B52A091D2
:102950005C52B0915D52480E591E6A1E7B1E409219
:102960005A5250925B5260925C5270925D522115A5
:10297000344008F440C26AE0F594E794D794C794D1
:102980006A95D1F7C0927152D09272527AE0B594A2
:10299000A794979487947A95D1F780926F529092EA
:1029A0007052EAE07594679457944794EA95D1F78A
:1029B00040926D5250926E520E94D01B5F924F9285
:1029C0009F928F92DF92CF922CEA32E43F932F9323
:1029D0009F938F930E94AC280E94D51B84E0809324
:1029E0007C528DB79EB70A968DBF9EBF04C2809160
:1029F0006A52882309F4FFC182EE92E40E94331CDC
:102A000086E093E40E94761E85E080937C521092CB
:102A1000585210925952EFC10E941112882339F076
:102A20008AE792E40E94761E84E080937C52209193
:102A30005852309159522F5F3F4F20935852309344
:102A4000595289819A814091715250917252841BDE
:102A5000950B092E000CAA0BBB0B409162525091B2
:102A600063526091645270916552840F951FA61F46
:102A7000B71F8093625290936352A0936452B093B5
:102A800065528B809C8040916F5250917052841A95
:102A9000950A092C000CAA08BB0840915E5250917F
:102AA0005F526091605270916152840E951EA61E15
:102AB000B71E80925E5290925F52A0926052B09286
:102AC0006152CD80DE8040916D5250916E52C41A99
:102AD000D50A0D2C000CEE08FF0840915A52509177
:102AE0005B5260915C5270915D52C40ED51EE61E21
:102AF000F71EC0925A52D0925B52E0925C52F09212
:102B00005D522115344008F476C13AE0B595A79599
:102B1000979587953A95D1F7809362529093635237
:102B2000A0936452B09365524AE0B594A7949794E9
:102B300087944A95D1F780925E5290925F52A0920C
:102B40006052B09261525AE0F594E794D794C794DA
:102B50005A95D1F7C0925A52D0925B52E0925C5291
:102B6000F0925D520E94AE11C82F80930A40C401BA
:102B70000E94AE11D82F80930940C6010E94AE1169
:102B8000F82E809308400E94D01B1F92FF921F9244
:102B9000DF931F92CF932BE233E43F932F939F93C6
:102BA0008F930E94AC280E94D51B86E080937C52B4
:102BB0001092735210927452109275521092765273
:102BC0008DB79EB70A968DBF9EBF15C199E2891633
:102BD0009104A104B10428F480E793E40E94331C1B
:102BE00009C0CE010E941112882331F08AE792E4D5
:102BF0000E94761E87E01AC080916A52882309F4E9
:102C0000FAC081ED93E40E94331C88EF93E40E94A4
:102C1000761E10925852109259521092545210929D
:102C20005552109256521092575288E080937C521F
:102C3000E2C080916A52882309F4DDC086E0F6CFB5
:102C40000E941112882339F08AE792E40E94761ECE
:102C500087E080937C5220915852309159522F5FD7
:102C60003F4F2093585230935952F701438154817A
:102C7000658176818091545290915552A09156521F
:102C8000B0915752840F951FA61FB71F80935452BF
:102C900090935552A0935652B093575221153440F9
:102CA00008F4A9C02AE0B595A795979587952A9528
:102CB000D1F78093775290937852A0937952B09342
:102CC0007A528897A105B10520F480E294E40E942D
:102CD000331C609177527091785280917952909123
:102CE0007A520E94B7252AE939E949E55FE30E9453
:102CF0006E260E94DB260E948825EB01F82EE92E25
:102D000060937752D09378528093795290937A520D
:102D10006091735270917452809175529091765275
:102D20000E94B72523E333E343E95FE30E946E2665
:102D30000E94DB260E948825609373527093745220
:102D400080937552909376520E94D01BEF92FF921F
:102D5000DF93CF932AE634E43F932F939F938F938F
:102D60000E94AC280E94D51B89E080937C5210926F
:102D700053528DB79EB708968DBF9EBF3CC0CD0104
:102D80000E94B91290915352882321F0992339F06F
:102D9000915003C0943118F49F5F909353528091E7
:102DA00053528A3030F08BE994E40E94761E82E020
:102DB0003DCF80916A528823F1F08BEC94E40E941D
:102DC000331C81EE94E40E94761E8AE080937C524C
:102DD0000E948813109267520EC082E00E949A10DF
:102DE000882309F44DCD8BE080937C520E94D5233B
:102DF00002C010927C5280917C529091665298173A
:102E000029F091E090936B5280936652DF91CF91BD
:102E1000FF90EF90DF90CF90BF90AF909F908F90FA
:102E20007F906F905F904F90089581E090917C52D9
:102E30009B3009F080E0089580917B52823029F028
:102E400081E0909167529A3008F080E008952F92C7
:102E50003F924F925F926F927F928F929F92AF922A
:102E6000BF92CF92DF92EF92FF920F931F93CF9377
:102E7000DF93CDB7DEB72F97CDBFDEBF809169520C
:102E8000811108C0109B09C081E080936952809332
:102E90006A5203C0109B109269520E943C06811135
:102EA0000CC080917B52823041F082E080937B5253
:102EB00081E080936B520E94170580917B52813094
:102EC000B1F038F0833009F486C0843009F485C04D
:102ED00094C080917C528B3011F482E001C08AE072
:102EE0000E949A10882309F486C081E08BC00E945A
:102EF0008210882309F488C0CE0101960E949E109A
:102F0000882309F462C0BE01675F7F4FCE0101963E
:102F10000E94151280916C52882309F441C01092CE
:102F20006C5287EF94E40E94761E5C844D843E844C
:102F30002F84FB846F2C0F2C000C77080A85802EC1
:102F4000002E000C99081985A12E012E000CBB083B
:102F50008E806F80CC80AD80EA80DB800E94DA1E9C
:102F60002F923F924F925F927F92FF929F920F9388
:102F7000BF921F936F928F92AF92CF92DF92EF9298
:102F800023E135E43F932F939F938F930E94AC28C6
:102F90000E94DC1E8FE595E40E94761ECDBFDEBF49
:102FA00080917C528B3049F480916A52811105C026
:102FB000CE0109960E94DF120BC0BE01675F7F4FF2
:102FC000CE0101960E94DD1303C082E080937B5204
:102FD00010926A5219C084E015C00E9472108823B2
:102FE00051F089E795E40E94331C80E00E94C711EC
:102FF00010927B5209C082E005C00E943C068823E3
:1030000019F083E080937B522F96CDBFDEBFDF9116
:10301000CF911F910F91FF90EF90DF90CF90BF90D5
:10302000AF909F908F907F906F905F904F903F9068
:103030002F90089581E0809369520895CF93C82F0F
:1030400080E090E00E942E07C11138C04DEC5CEC8E
:1030500060E072E48CE390E00E94DF2A8DEC9CEC4F
:10306000A0E0B2E48093284090932940A0932A40A6
:10307000B0932B4040E050E060E271E480E490E0E7
:103080000E94DF2A80E090E0A0E2B1E48093244037
:1030900090932540A0932640B093274063E484E4B6
:1030A00090E00E94C72A83E48093234060E085E497
:1030B00090E00E94C72A10927D5228C08CE390E0D5
:1030C0000E94BB2A609328407093294080932A4035
:1030D00090932B4080E490E00E94BB2A60932440B0
:1030E00070932540809326409093274084E490E09D
:1030F0000E94B32A8093234085E490E00E94B32A83
:1031000091E0811101C090E090937D52CF9108959C
:10311000CF93C82F8BED96E40E94021CCC2311F0B4
:1031200081E001C080E00E94A50DC82F0E94450AE1
:10313000882331F087E097E40E94021C81E005C0FB
:1031400081E397E40E94021C80E00E941E18CC23B9
:1031500041F081E080937F528FE891E4CF910C940D
:10316000331C86EF90E40E94331C85E080937F52ED
:10317000CF910895863471F0982F977F933451F052
:1031800089E697E40E94761E89E697E40E94331C44
:1031900080E0089580932340682F84E490E00E94AB
:1031A000C72A81E0089580937D52682F85E490E0DE
:1031B0000E94C72A80917D52882319F086E897E4FF
:1031C00002C08CE997E40C94331C80917D520895E1
:1031D000CF92DF92EF92FF920E94E51C882331F09C
:1031E00080917D52811102C081E02EC00E94311079
:1031F0006B017C01209128403091294040912A4068
:1032000050912B400E94692687FD07C083EB97E40D
:103210000E94761E83EB97E414C0209124403091E5
:1032200025404091264050912740C701B6010E9499
:1032300011251816CCF280ED97E40E94761E80EDE1
:1032400097E40E94331C80E0FF90EF90DF90CF90D6
:10325000089580917F528230B1F018F4813031F0BE
:1032600008958330E9F0843041F108950E94760E8C
:10327000811103C08CEE97E42DC080E298E40E9497
:10328000331C82E02AC00E94460E882341F10E942E
:10329000E30D811103C08AE498E41CC083E01DC0E3
:1032A0000E947C0E882331F081E080937E52109240
:1032B0007F52089583E898E407C080E00E94A50D3E
:1032C000882331F08CED98E40E94331C81E005C026
:1032D0008AEF98E40E94331C85E080937F52089522
:1032E00080917F52811103C081E080937F52809151
:1032F0007F52853019F484E080937F520895809145
:103300007E520895BF92CF92DF92EF92FF920F9379
:103310001F93CF93DF9380917F528450823020F4AB
:1033200088E199E40E94761E0E942810F62EE72E6E
:10333000D82EC92E0E943110EB01182F092F209191
:1033400028403091294040912A4050912B40F8016B
:103350007D2F8F2F9E2F0E94692687FD07C083EB4C
:1033600097E40E94761E83EB97E417C020912440D7
:10337000309125404091264050912740F8016C2F14
:103380007D2F8F2F9E2F0E941125181644F080ED5F
:1033900097E40E94761E80ED97E40E94331C809192
:1033A0002340863431F526E636E646EE5FE3D70164
:1033B000F6016B2F7E2D8F2F9C2D0E946E2620E014
:1033C00030E040E052E40E94A524F62EE72ED82EED
:1033D000C92E26E636E646EE5FE3F8016C2F7D2F18
:1033E0008F2F902F0E946E2620E030E040E052E4C4
:1033F0001BC08B34F9F423E333E948E853E4D701E5
:10340000F6016B2F7E2D8F2F9C2D0E94A524F62E6A
:10341000E72ED82EC92E23E333E948E853E4F80118
:103420006C2F7D2F8F2F902F0E94A524EB01182F3A
:10343000092F1CC08334D1F08FE699E40E94021C4E
:10344000B09023400E94D01B1F92BF9223ED39E41D
:103450003F932F939F938F930E94AC280E94D51B7C
:103460000F900F900F900F900F900F90B0902340FF
:103470000E94DA1E1F92BF920F931F93DF93CF9388
:103480001F92BF92CF92DF92EF92FF922FE939E421
:103490003F932F939F938F930E94AC288DB79EB735
:1034A00040968DBF9EBFDF91CF911F910F91FF90EE
:1034B000EF90DF90CF90BF900C94DC1E0F931F9382
:1034C000CF93DF9380917E52811128C088ED99E4DB
:1034D0000E94331C0E94F906182F092F0E94FE0635
:1034E000EC010E94D01B0F931F93DF93CF932AE030
:1034F0003AE43F932F939F938F930E94AC280E94AE
:10350000D51B8DB79EB708968DBF9EBF8BE29AE400
:10351000DF91CF911F910F910C94761E10927E52E5
:10352000DF91CF911F910F910C948219CF92DF926E
:10353000EF92FF92CF936B017C0180912340863400
:1035400079F420E030E040E052E4C701B6010E9487
:10355000A42426E838E34EE05FE30E946E260AC00A
:103560008B3459F423E333E948E853E4C701B60147
:103570000E94A4246B017C011CC08334D1F08FE62F
:1035800099E40E94021CC09123400E94D01B1F920C
:10359000CF9323ED39E43F932F939F938F930E9412
:1035A000AC280E94D51B0F900F900F900F900F909A
:1035B0000F90C0922840D0922940E0922A40F09289
:1035C0002B40B701A6018CE390E0CF91FF90EF90E4
:1035D000DF90CF900C94DF2A6091284070912940B1
:1035E00080912A4090912B4020912340263459F419
:1035F00026E636E646EE5FE30E946E2620E030E0E7
:1036000040E052E406C02B3431F423E333E948E8C8
:1036100053E40E94A5240895CF92DF92EF92FF9287
:10362000CF936B017C0180912340863479F420E0B4
:1036300030E040E052E4C701B6010E94A42426E82D
:1036400038E34EE05FE30E946E260AC08B3459F4E3
:1036500023E333E948E853E4C701B6010E94A424F8
:103660006B017C011CC08334D1F08FE699E40E9489
:10367000021CC09123400E94D01B1F92CF9323EDC8
:1036800039E43F932F939F938F930E94AC280E941D
:10369000D51B0F900F900F900F900F900F90C0922E
:1036A0002440D0922540E0922640F0922740B70176
:1036B000A6018CE390E0CF91FF90EF90DF90CF9048
:1036C0000C94DF2A6091244070912540809126401F
:1036D0009091274020912340263459F426E636E67F
:1036E00046EE5FE30E946E2620E030E040E052E4C8
:1036F00006C02B3431F423E333E948E853E40E9455
:10370000A5240895BF92CF92DF92EF92FF920F937C
:103710001F93CF93DF938EE49AE40E94CE1E809194
:103720007D52882319F08DE69AE402C081E79AE47D
:103730000E94761EC09123400E94621BE62ED72E67
:10374000C82EB92E0E94EC1AD62F172F082FF92E4B
:103750000E94DA1E1F92CF93BF92CF92DF92EF9218
:103760001F92CF93FF920F931F93DF931F92CF93DC
:1037700024E73AE43F932F939F938F930E94AC28C2
:103780008DB79EB742968DBF9EBFDF91CF911F919F
:103790000F91FF90EF90DF90CF90BF900C94DC1EC4
:1037A00080E892E508958FEF08950F931F93CF93CC
:1037B00080918052882311F1809144088064809325
:1037C0004408C0E00C2F10E000581D4AF801808129
:1037D000882361F0CF3F51F00E94C1088823E1F3B4
:1037E000F80180810E94C708CF5FECCF0E94C1081A
:1037F0008823E1F30E94D6088111FCCFCF911F915D
:103800000F910895EF92FF920F931F93CF93FC01B6
:103810002081222311F18C018091440880648093DF
:103820004408C0E07801EC0EF11CF7018081882388
:1038300061F0CF3F51F00E94C1088823E1F3F70106
:1038400080810E94C708CF5FEDCF0E94C108882306
:10385000E1F30E94D6088111FCCFCF911F910F9107
:10386000FF90EF900895FC012081222331F00E9407
:10387000021C84E890E40C94021C089580E892E510
:1038800008950F931F93CF9380918052882311F155
:1038900080910408806480930408C0E00C2F10E03D
:1038A00000581D4AF8018081882361F0CF3F51F014
:1038B0000E9453088823E1F3F80180810E9459088F
:1038C000CF5FECCF0E9453088823E1F30E94680881
:1038D0008111FCCFCF911F910F910895EF92FF922C
:1038E0000F931F93CF93FC012081222311F18C01B0
:1038F00080910408806480930408C0E07801EC0E95
:10390000F11CF7018081882361F0CF3F51F00E94C4
:1039100053088823E1F3F70180810E945908CF5FA3
:10392000EDCF0E9453088823E1F30E9468088111BB
:10393000FCCFCF911F910F91FF90EF9008950E94BF
:103940006E1C84E890E40C946E1CEF92FF920F932F
:103950001F93CF93DF93FC012081222351F1D62FB7
:103960008C0180910408806480930408C0E0780191
:10397000EC0EF11CF7018081882361F0CF3F51F0FC
:103980000E9453088823E1F3F70180810E945908BF
:10399000CF5FEDCF0E9453088823E1F38D2F0E9463
:1039A00059080E9453088823E1F30E946808811196
:1039B000FCCFDF91CF911F910F91FF90EF90089571
:1039C00080937F5390938053089581E09091815329
:1039D000911180E00895CF930E94241F882309F459
:1039E00052C08EEB9AE40E94021C0E94D31BC82F87
:1039F0000E94D01B6C2F0E944B1F0E94D51B84E895
:103A000090E40E94021C85EE9AE40E94381F8823ED
:103A100031F088ED9AE40E94331C81E035C089EFD3
:103A20009AE40E94381F882331F08CEE9AE40E94B9
:103A3000331C85E029C081E19BE40E94381F882364
:103A400031F084E09BE40E94331C84E01DC086E2D8
:103A50009BE40E94381F882331F089E19BE40E9497
:103A6000331C82E011C08FE39BE40E94381F88233F
:103A700031F082E39BE40E94331C83E005C08AE4BA
:103A80009BE40E94331C80E0CF9108958091815384
:103A9000811119C080911004887F8093100480E305
:103AA0000E9452070E945B2282E08093650484E0BA
:103AB000809365040E9421080E9436080E944208F3
:103AC00081E08093815308951F920F920FB60F9259
:103AD00011240BB60F922F933F934F935F936F93E5
:103AE0007F938F939F93AF93BF93EF93FF93E0E008
:103AF000F4E08089887F808B0E94461D0E941A18FE
:103B0000189AFF91EF91BF91AF919F918F917F9103
:103B10006F915F914F913F912F910F900BBE0F903E
:103B20000FBE0F901F9018950E94E91E0C94461D21
:103B3000CF93DF931092815388E40E945207C0E62E
:103B4000D4E084E08E830E943C080E94480882E012
:103B50008E83E0E0F4E080898160808B0E943822CF
:103B60000E9447220E9456220E946E070E94690707
:103B7000DF91CF910C94D523CF93A89584E79BE454
:103B80000E946E1C88E79BE40E94021C84E690E081
:103B90000E949F1FC82F882319F088E99BE402C068
:103BA0008DE99BE40E94021C8C2FCF9108956DE05B
:103BB00086EA9BE40E94A51C0C946B1F81E0909107
:103BC0008153943009F080E00895A8958AEA9BE437
:103BD0000E94021C8FEB9BE40E94021C83EC9BE47E
:103BE0000E94021C6DE08FEB9BE40E94A51C68EC18
:103BF0007BE484E690E00E94741F882319F08FE82C
:103C000091E402C086EF90E40E94331C81E00895A5
:103C10000F931F93CF938C01C62FA8958AEA9BE43C
:103C20000E94021CC8010E94021C83EC9BE40E94BB
:103C3000021C6DE0C8010E94A51CC11103C08FE8E1
:103C400091E40AC062ED7BE48C2F90E00E94741F27
:103C50008111F5CF86EF90E4CF911F910F910C94D5
:103C6000331C86ED9BE40E94331CA8950E94BC1D6A
:103C7000811104C00E94D71D80E008956FEF8AEF84
:103C80009BE40E94081E6FEF80E09CE40E94081EE7
:103C90000E94E51D81E008950E94EB1C90918153E4
:103CA000923089F018F4913031F00895933069F032
:103CB0009430A1F008958130C1F40E94311E882310
:103CC000A1F082E010C0813069F0823071F40E946E
:103CD0004C2284E0809381530C944A24853029F44B
:103CE0000E94562283E0809381530895209181534E
:103CF000243039F4009729F0FC01208121110C9423
:103D00009F1C0895CF930E942E1F882319F18CE0E9
:103D10009CE40E94021C0E94D31BC82F0E94D01B4F
:103D20006C2F0E944B1F0E94D51B84E890E40E94D8
:103D3000021CE0917F53F09180533097F1F0099588
:103D4000882319F084E29CE402C08DE29CE4CF91C8
:103D50000C94761E87E39CE40E94021C0E94D31BF5
:103D6000C82F0E94D01B6C2F0E944B1F0E94D51B96
:103D700084E890E4CF910C94021CCF910895A8950B
:103D80000E94191F811109C00E94D5230E94821E22
:103D90000E944C1E0E943D1FF3CF08952091815335
:103DA000243039F4009729F0FC01208121110C9472
:103DB0006E1C08950C943E1C80918153843011F444
:103DC0000C94411C08959FE9980F9A3108F4805291
:103DD00008954FEF67E873E582E893E50C9471224C
:103DE000833231F190EE980F9F3510F52091875472
:103DF000982F9B7F222391F0913259F463E282E85D
:103E000093E50E94CF2281E08093865410928754DC
:103E10000895803269F00E94E31E05C0913219F4C2
:103E200091E090938754682F82E893E50C94CF2219
:103E3000089582E893E50E947822811104C0909150
:103E4000865481E08927089582E893E50E94E32261
:103E500091E0853209F090E0892F089582E893E59A
:103E60000E94E32291E0813209F090E0892F0895C9
:103E7000BC0182E893E50C948B226AE47CE482E83E
:103E800093E50E94F12282E893E50E947822811155
:103E9000109286540895262F43E2BC0182E893E5F0
:103EA0000C9427230F93CF93DF93EC01062F0E94EE
:103EB000191F81110AC023E24CE2BE0182E893E59A
:103EC0000E94552391E0813009F490E0892FDF9121
:103ED000CF910F91089582E893E50E94C22210923B
:103EE0008754109286540895CF92DF92EF92FF92FA
:103EF0001F93CF93DF937C016B0182E893E50E94CF
:103F0000C222C0E0D0E0B60182E893E50E948B2295
:103F1000182F81110BC00E949F06811103C00E94BF
:103F2000A3062196CE15DF0570F30000812FDF91E7
:103F3000CF911F91FF90EF90DF90CF9008950F9356
:103F40001F93CF93DF938C0182E893E50E94C222F6
:103F5000C0E0D0E082E893E50E94B922853050F0BD
:103F60006CE47CE482E893E5DF91CF911F910F919F
:103F70000C94F1220E949F06811103C00E94A306A7
:103F80002196C017D10730F380E0DF91CF911F91C8
:103F90000F910895CF93C82F0E949A23C1110EC08C
:103FA0006AE788E590E00E94C72A60E07FE089E543
:103FB00090E00E94E72A80E09FE004C089E590E05D
:103FC0000E94C22ACF910C940A07CF93C82F88E58C
:103FD00090E00E94B32AC11104C08A3711F481E035
:103FE00001C080E0CF910C94CA1FCF93DF93EC0106
:103FF0000E940A07BE0189E590E0DF91CF910C9401
:10400000E72ACF92DF92EF92FF920F931F93CF9305
:10401000DF93CDB7DEB76097CDBFDEBF8FE49CE402
:104020000E94381F8823A1F060E1CE0101960E9412
:10403000521F182F83E59CE40E94331C112329F0A2
:1040400089810E94BA18182FE0C187E69CE41CC041
:1040500080E99CE40E94381F182F8823C1F060E19A
:10406000CE0101960E94521F082F85E99CE40E9410
:10407000331C002339F0CE0101960E947E270E9456
:104080000C1BC3C18AEA9CE40E94331C59C184ED15
:104090009CE40E94381F082F8823B9F060E1CE010C
:1040A00001960E94521FF82E89ED9CE40E94331C59
:1040B000FF2041F0CE0101960E947E270E94961AB1
:1040C000102FA3C18EEE9CE48FC188E19DE40E9475
:1040D000381F882389F18DE19DE40E94331C82E31F
:1040E0009DE40E94381F182F882319F184E39DE472
:1040F0000E94381F182F882319F080E093E013C026
:1041000089E39DE40E94381F182F882319F080E06E
:104110009FE009C08EE39DE40E94381F182F88237A
:1041200029F080E09EE10E94F51F6FC183E49DE4C9
:104130005BC182E79DE458C18CE99DE40E94381F71
:10414000882331F081EA9DE40E94761E11E05DC172
:104150008EE79EE40E94381F8111F4CF83E89EE42D
:104160000E94381F182F8823F9F000E400930504FB
:1041700086E00E943209F62EE72ED82EC92E0E9424
:10418000DA1ECF92DF92EF92FF9228E83EE43F934F
:104190002F939F938F930E94AC28009306040E9454
:1041A000DC1ECDBFDEBF31C18AEA9EE40E94381F0B
:1041B000182F882359F081EB9EE40E94761E0E94FE
:1041C000F9120E94821989EC9EE41DC18FED9EE4D4
:1041D0000E94381F182F882309F44CC084EE9EE4F7
:1041E0000E94761E0E94BD238CEF9EE40E94CE1E8C
:1041F0000E94F9067C01E11493E0F90619F48DE0C0
:104200009FE406C0E1148FE0F80629F487E19FE4FB
:104210000E94761E1BC0E1149EE1F90619F484E2A7
:104220009FE4F6CF0E94DA1EFF92EF922FE23FE466
:104230003F932F939F938F930E94AC280E94DC1E84
:104240000F900F900F900F900F900F908EE39FE4C0
:104250000E94CE1E0E941517882319F08DE69AE45D
:1042600002C081E79AE40E94761E0E94821B88E5C4
:104270009FE4C9C08EE69FE40E94381F182F882350
:1042800019F00E94BD11C1C080E79FE40E94381F51
:10429000182F882349F084E79FE40E94761E0E942D
:1042A0001B1385E99FE4AFC084EB9FE40E94381F95
:1042B000182F882329F00E9484138BEB9FE4A3C05E
:1042C0008DED9FE40E94381F182F882361F080E055
:1042D0000E94C01180E00E941E1880E00E94CA1F48
:1042E00083EE9FE490C085EE9AE40E94381F182F59
:1042F000882319F00E94981DFFCF88EF9FE40E9449
:10430000381F882329F00E941517811108C010C09A
:104310008EEF9FE40E94381F8111F5CF16C00E94D6
:104320001C17F82E882321F00E94981D1F2D6DC0A8
:104330000E941517811106C085E090E50E94761E47
:1043400010E063C08AE390E55EC08AE690E50E94D3
:10435000381F882319F182E39DE40E94381F182F2B
:104360008823C9F082E790E50E94381F182F882320
:1043700019F080E09EE109C087E790E50E94381FB0
:10438000182F882329F080E090E00E94AE233DC0E2
:104390008DE790E529C080EB90E526C08DED90E596
:1043A0000E94381F882319F182E39DE40E94381F80
:1043B000182F8823B9F082E790E50E94381F182F44
:1043C000882311F081E008C087E790E50E94381F3C
:1043D000182F882321F080E00E94D31816C087EEA2
:1043E00090E502C08CE191E50E94331C0EC08BE485
:1043F00091E50E94381F182F882319F080E591E578
:1044000002C081EB91E50E94761E812F6096CDBFA0
:10441000DEBFDF91CF911F910F91FF90EF90DF9062
:10442000CF9008950E941517811106C00E94D523D0
:104430000E943D220C942E220E941C17882341F0DA
:104440000E94E818882321F00E9438220C943D2213
:104450000E94D5230E942E220C9447220E94E51C24
:10446000882321F088E08093650408950C94510915
:1044700088E0809366040C9463090E94E51C8823FD
:1044800021F080E18093650408950C94570980E140
:10449000809366040C9469090E94E51C882321F02E
:1044A00080E28093650408950C945D0980E2809316
:1044B00066040C946F096B9B05C00E94510988E04B
:1044C000809366046C9B05C00E94570980E180932D
:1044D00066046D9B05C00E945D0980E280936604BE
:1044E0000895FC01608371834283138214820895CE
:1044F000FC0181E023819481291380E00895FC016F
:1045000083819481891731F08F5F8383928189172A
:1045100008F013820895CF93DF93FC019381848187
:10452000981709F14081518120E0DA01A90FB11DEE
:104530003C91DB01A20FB11DAC913A1302C02F5F79
:1045400005C021E0EB01A881A31320E0DB01A20F4D
:10455000B11D3C91332349F09F5F3281931301C019
:1045600090E09813E2CF80E001C081E0DF91CF912D
:104570000895FC0184812381821710F49281890FB0
:10458000821B0895FC01248123830895FC0184810A
:104590008F5F84839281891301C014820895CF9321
:1045A000DF93EC018C81E881F981E80FF11D6083D4
:1045B000CE010E94C62281E02C819B81291380E0DC
:1045C000DF91CF910895FC0183819481981739F090
:1045D0000190F081E02DE80FF11D8081089580E0C9
:1045E0000895EF92FF920F931F93CF93DF938C0167
:1045F0007B01C0E0F801938184816C2F70E09813F7
:1046000009C0F701E60FF71F81E090819923C1F0FF
:1046100080E016C0F701E60FF71FD081DD2389F394
:10462000C8010E94E322D81302C0CF5F05C0C1E0D9
:10463000F70190819813C0E0C8010E947F22DACF71
:10464000DF91CF911F910F91FF90EF900895CF933D
:10465000DF93EC013A81231708F4322F9B815C81B0
:10466000DB0180E08317C9F0951308C08317A8F415
:10467000FB01E80FF11D10828F5F14C0E881F98102
:10468000E90FF11D2081241789F32D938F5F9F5F20
:104690002A81921738F390E0E5CF680F711DFB0176
:1046A00031971082DF91CF9108950F93CF93DF93CD
:1046B000DC0112963C911297031708F4302F1396E1
:1046C0009C91139714960C91149750E080E08317F7
:1046D00041F1901308C0831720F5FB01E80FF11D8D
:1046E00010828F5F23C0E92FF0E0CD91DC9111970C
:1046F000EC0FFD1F51110CC051E0E081E41350E0BC
:104700009F5F1296EC9112979E1708F390E0DFCF0F
:10471000E081E21701F3EB01C80FD11DE8838F5F41
:10472000EFCF680F711DFB0131971082DF91CF91A0
:104730000F910895811109C060E07EE18BE590E062
:104740000E94E72A80E09EE104C08BE590E00E9491
:10475000C22A80938854909389540895CF93DF930D
:10476000EC01BC018BE590E00E94E72AC0938854DD
:10477000D0938954DF91CF91089580EE91E50E9406
:10478000CE1E8091885490918954892B19F481E729
:104790009AE402C08DE69AE40C94761E0E94030708
:1047A00080938C5490938D54089510928A54109253
:1047B0008B540E94030780938C5490938D540895DA
:1047C00020918854309189542115310541F081E0C0
:1047D00040918A5450918B544217530708F480E05B
:1047E0000895CF93DF9300D0CDB7DEB70E94E023CA
:1047F00081113AC08091885490918954892BA1F1FC
:104800000E94030789839A8389819A8120918C541D
:1048100030918D548217930758F049815A818091C5
:104820008A5490918B54840F951F821B930B12C056
:104830000E94F90649815A8120918A5430918B5403
:10484000240F351F40918C5450918D54241B350BEF
:10485000820F931F80938A5490938B5489819A81FD
:1048600080938C5490938D540F900F90DF91CF9143
:10487000089510928E54089580918E540895109248
:104880008F54109290540E940307809391549093F8
:10489000925408950E943F2481E080938E5408959D
:1048A00080918E54882349F081E020918F5430917B
:1048B00090542734314008F480E00895CF93DF937B
:1048C00000D0CDB7DEB70E945024811138C080914E
:1048D0008E548823A1F10E94030789839A838981DA
:1048E0009A8120919154309192548217930758F0F5
:1048F00049815A8180918F5490919054840F951FD3
:10490000821B930B12C00E94F90649815A812091A3
:104910008F5430919054240F351F409191545091F1
:104920009254241B350B820F931F80938F549093C6
:10493000905489819A8180939154909392540F90CE
:104940000F90DF91CF9108955058BB27AA270E945E
:10495000BC240C942F260E94212638F00E94282681
:1049600020F039F49F3F19F426F40C941E260EF41F
:10497000E095E7FB0C941826E92F0E94402658F397
:10498000BA17620773078407950720F079F4A6F534
:104990000C9462260EF4E0950B2EBA2FA02D0B017D
:1049A000B90190010C01CA01A0011124FF27591B74
:1049B00099F0593F50F4503E68F11A16F040A22F7A
:1049C000232F342F4427585FF3CF469537952795EB
:1049D000A795F0405395C9F77EF41F16BA0B620BEA
:1049E000730B840BBAF09150A1F0FF0FBB1F661F31
:1049F000771F881FC2F70EC0BA0F621F731F841F74
:104A000048F4879577956795B795F7959E3F08F099
:104A1000B0CF9395880F08F09927EE0F979587955B
:104A200008950E94F42508F481E008950E942A2543
:104A30000C942F260E94282658F00E94212640F030
:104A400029F45F3F29F00C94182651110C94632629
:104A50000C941E260E94402668F39923B1F3552337
:104A600091F3951B550BBB27AA2762177307840781
:104A700038F09F5F5F4F220F331F441FAA1FA9F317
:104A800035D00E2E3AF0E0E832D091505040E69505
:104A9000001CCAF72BD0FE2F29D0660F771F881F66
:104AA000BB1F261737074807AB07B0E809F0BB0B59
:104AB000802DBF01FF2793585F4F3AF09E3F51056D
:104AC00078F00C9418260C9463265F3FE4F3983E2C
:104AD000D4F3869577956795B795F7959F5FC9F756
:104AE000880F911D9695879597F90895E1E0660FD7
:104AF000771F881FBB1F621773078407BA0720F050
:104B0000621B730B840BBA0BEE1F88F7E0950895B8
:104B10000E94482688F09F5798F0B92F9927B751DF
:104B2000B0F0E1F0660F771F881F991F1AF0BA9551
:104B3000C9F714C0B13091F00E946226B1E0089527
:104B40000C946226672F782F8827B85F39F0B93F19
:104B5000CCF3869577956795B395D9F73EF4909504
:104B60008095709561957F4F8F4F9F4F0895E89482
:104B700009C097FB3EF490958095709561957F4FA5
:104B80008F4F9F4F9923A9F0F92F96E9BB27939553
:104B9000F695879577956795B795F111F8CFFAF463
:104BA000BB0F11F460FF1BC06F5F7F4F8F4F9F4F94
:104BB00016C0882311F096E911C0772321F09EE8F2
:104BC000872F762F05C0662371F096E8862F70E058
:104BD00060E02AF09A95660F771F881FDAF7880F32
:104BE0009695879597F90895990F0008550FAA0B88
:104BF000E0E8FEEF16161706E807F907C0F01216F0
:104C00001306E407F50798F0621B730B840B950BF2
:104C100039F40A2661F0232B242B252B21F4089547
:104C20000A2609F4A140A6958FEF811D811D0895E4
:104C300097F99F6780E870E060E008959FEF80EC4F
:104C4000089500240A9416161706180609060895F2
:104C500000240A9412161306140605060895092E58
:104C60000394000C11F4882352F0BB0F40F4BF2BC7
:104C700011F460FF04C06F5F7F4F8F4F9F4F089507
:104C800057FD9058440F551F59F05F3F71F04795FD
:104C9000880F97FB991F61F09F3F79F087950895E2
:104CA000121613061406551FF2CF4695F1DF08C001
:104CB000161617061806991FF1CF8695710561051E
:104CC00008940895E894BB2766277727CB0197F9C6
:104CD00008950E94F42508F48FEF08950E9481261C
:104CE0000C942F260E94212638F00E94282620F0BE
:104CF000952311F00C9418260C941E2611240C9464
:104D000063260E94402670F3959FC1F3950F50E0F3
:104D1000551F629FF001729FBB27F00DB11D639F6D
:104D2000AA27F00DB11DAA1F649F6627B00DA11D13
:104D3000661F829F2227B00DA11D621F739FB00DB9
:104D4000A11D621F839FA00D611D221F749F332729
:104D5000A00D611D231F849F600D211D822F762FC2
:104D60006A2F11249F5750409AF0F1F088234AF09F
:104D7000EE0FFF1FBB1F661F771F881F915050400B
:104D8000A9F79E3F510580F00C9418260C946326D9
:104D90005F3FE4F3983ED4F3869577956795B79592
:104DA000F795E7959F5FC1F7FE2B880F911D9695AC
:104DB000879597F908950E944826E8F09E37E8F015
:104DC0009639B8F49E3848F4672F782F8827985F73
:104DD000F9CF86957795679593959539D0F3B62F4A
:104DE000B1706B0F711D811D20F4879577956795C4
:104DF00093950C9445270C9460270C94632619F422
:104E000016F40C941E260C9460270E944826B8F3D2
:104E10009923C9F3B6F39F57550B87FF0E946E275E
:104E20000024A0E640EA900180585695979528F412
:104E3000805C660F771F881F20F02617370748070A
:104E400030F4621B730B840B202931294A2BA69561
:104E500017940794202531254A2758F7660F771FA6
:104E6000881F20F026173707480730F4620B730BB2
:104E7000840B200D311D411DA09581F7B901842FB0
:104E80009158880F969587950895882371F4772314
:104E900021F09850872B762F07C0662311F49927AD
:104EA0000DC09051862B70E060E02AF09A95660F55
:104EB000771F881FDAF7880F9695879597F90895D9
:104EC0009F3F31F0915020F4879577956795B7957E
:104ED000880F911D9695879597F9089591505040A8
:104EE000660F771F881FD2F70895EE0FFF1F00246B
:104EF000001C0BBE0790F691E02D099466277727DA
:104F00000C943329283008F027E03327DA01990F71
:104F1000311D87FD916000966105710539F432609D
:104F20002E5F3D9330E32A95E1F708959F3F30F0DF
:104F300080387105610509F03C5F3C5F3D9391301D
:104F400008F08068911DDF93CF931F930F93FF921A
:104F5000EF92192F987F9695E92F96959695E90FE0
:104F6000FF27EE5DFE4F99273327EE24FF24A7018C
:104F7000E70105900894079428F4360FE71EF81E01
:104F8000491F511D660F771F881F991F0694A1F7AF
:104F90000590079428F4E70EF81E491F561FC11DFF
:104FA000770F881F991F661F0694A1F70590079435
:104FB00028F4F80E491F561FC71FD11D880F991FCF
:104FC000661F771F0694A1F70590079420F4490FF8
:104FD000561FC71FD81F990F661F771F881F06947B
:104FE000A9F784911095177041F0D695C7955795FC
:104FF0004795F794E7941A95C1F7E8ECF0E06894C8
:105000001590159135916591959105907FE2739575
:10501000E118F10A430B560BC90BD009C0F7E10C9C
:10502000F11E431F561FC91FD01D7EF4703311F4AB
:105030008A95E6CFE894015030F0080F0AF4002773
:10504000021708F4202F2395022F7A3328F079E3F2
:105050007D932A95E9F710C07D932A9589F60694E9
:1050600097956795379517951794E118F10A430BB3
:10507000560BC90BD00998F023957E9173957A331E
:1050800008F070E37C932013B8F77E9170617D93F4
:1050900030F0839571E37D9370E32A95E1F7112455
:1050A000EF90FF900F911F91CF91DF91992787FD8E
:1050B00090950895FC010590615070400110D8F75B
:1050C000809590958E0F9F1F0895FC016150704050
:1050D00001900110D8F7809590958E0F9F1F08952D
:1050E0000F931F93CF93DF93FB01238121FD03C017
:1050F0008FEF9FEF2CC022FF16C04681578124817D
:1051000035814217530744F4A081B1819D012F5F7F
:105110003F4F208331838C93268137812F5F3F4F10
:105120002683378314C08B01EC01FB010084F185D9
:10513000E02D0995892BE1F6D80116968D919C9169
:105140001797019616968D939C931797CE01DF9132
:10515000CF911F910F9108950F931F93CF93DF93DA
:10516000CDB7DEB72E97CDBFDEBF0D891E8986E095
:105170008C8309831A838FEF9FE78D839E83AE0113
:10518000475E5F4F6F89788DCE0101960E942001A6
:10519000EF81F885E00FF11F10822E96CDBFDEBFA4
:1051A000DF91CF911F910F910895FA01AA2728301E
:1051B00051F1203181F1E8946F936E7F6E5F7F4FE4
:1051C0008F4F9F4FAF4FB1E03ED0B4E03CD0670F60
:1051D000781F891F9A1FA11D680F791F8A1F911DB3
:1051E000A11D6A0F711D811D911DA11D20D009F403
:1051F00068943F912AE0269F11243019305D319345
:10520000DEF6CF010895462F4770405D4193B3E02D
:105210000FD0C9F7F6CF462F4F70405D4A3318F0D4
:10522000495D31FD4052419302D0A9F7EACFB4E085
:10523000A6959795879577956795BA95C9F700973D
:105240006105710508959B01AC010A2E06945795DE
:10525000479537952795BA95C9F7620F731F841F35
:10526000951FA01D08958F929F92AF92BF92CF92EB
:10527000DF92EF92FF920F931F93CF93DF93EC0196
:105280006B016115710519F0FB01808391837E012B
:10529000FFEFEF1AFF0A0881802F90E00E948F2A0B
:1052A000892B11F0E701F3CF0D3239F47E0182E052
:1052B000E80EF11C098111E008C00B3229F47E01CF
:1052C00092E0E90EF11C098110E0E701219743E02B
:1052D00050E06AEC71E0CE010E94982A892BC1F45B
:1052E000239645E050E065EC71E0CE010E94982ADB
:1052F000892B09F42596C114D10419F0F601C08355
:10530000D1831111F6C060E070E080E89FE7FAC039
:1053100043E050E062EC71E0CE010E94982A892BB4
:1053200059F4C114D10409F4E9C0F2E0EF0EF11C04
:10533000F601E082F182E2C020E030E0A901C0E0A5
:10534000D0E0F70160EDA62EA00E89E08A1530F1BD
:10535000912F9260B92E812F887012FF04C08111A5
:1053600024C0219622C081112197A5E0B0E00E94BF
:10537000EC2ADC01CB01880F991FAA1FBB1F9C01DF
:10538000AD012A0D311D411D511D283989E938070C
:10539000480789E1580748F0166006C09EEFA91239
:1053A0000AC013FD40C01860B12E8FEFE81AF80A4A
:1053B00000811B2DC6CF802F8F7D8534A1F5808184
:1053C0008D3211F4106106C08B3221F0319661E00C
:1053D00070E004C08181329662E070E080538A30D0
:1053E00018F0E61BF70B1FC060E070E060389CE02F
:1053F00079075CF4DB01AA0FBB1FAA0FBB1F6A0F62
:105400007B1F660F771F680F711D3196DF011197A3
:105410008C9180538A3050F314FF03C071956195CD
:105420007109C60FD71F11FF08C0C114D10429F09C
:10543000CF010197F60180839183CA01B9010E94CF
:10544000B725212F2370233019F04B015C0106C0D2
:105450004B015C01B7FAB094B7F8B09420E030E0AB
:10546000A901C501B4010E941125882309F43EC099
:10547000D7FF06C0D195C195D10901EE11E002C058
:1054800009EF11E06801F8E1CF1AD10890E2E92EA6
:10549000F12CCE15DF0574F0F80125913591459179
:1054A0005491C501B4010E946E264B015C01CE19D6
:1054B000DF09EFCF04501109F594E7940C151D0591
:1054C00041F78A2D880F8B2D881F8F3F49F020E0F0
:1054D00030E0A901C501B4010E941125811106C067
:1054E00082E290E08093935490939454C501B40168
:1054F00009C060E070E080E89FEF04C060E070E009
:1055000080EC9FE7DF91CF911F910F91FF90EF907B
:10551000DF90CF90BF90AF909F908F9008959111A2
:105520000C94B02A803219F089508550C8F708953C
:10553000FB01DC014150504088F08D9181341CF01A
:105540008B350CF4805E659161341CF06B350CF486
:10555000605E861B611171F3990B0895881BFCCF67
:1055600099278827089503D0808199270895FC0101
:10557000E050FC4E08950E94B72A608171818281BB
:10558000938108950E94B72A808191810895262FE2
:10559000AF93BF93E0E0F0E1328131FDFDCF3DE913
:1055A00034BF33E13083DC01A050BC4E2C933DE985
:1055B00034BF20E020830196BF91AF910895242F3E
:1055C0000E94C82A252F0E94C82A0C94E72A0E940C
:1055D000C72A272F0C94C82A0E94F72AA59F900D4E
:1055E000B49F900DA49F800D911D11240895A29F3A
:1055F000B001B39FC001A39F700D811D1124911DA7
:10560000B29F700D811D1124911D0895F894FFCF54
:105610000000C8410000C841010101864086409D4C
:10562000458640CC4586400A4652468640A346867B
:105630004086404300002041CDCC004257656C635A
:105640006F6D6520746F20746865204D6963726F9B
:105650006368697020536D6172742057696E646F5E
:10566000772053656375726974792053656E736F23
:105670007220616E6420526F6F6D2054656D70658D
:10568000726174757265204D6F6E69746F7220441B
:10569000656D6F210D0A00426C7565746F6F7468DB
:1056A0002049646C652074696D656F75742068614C
:1056B00073206F636375727265642E20537769740B
:1056C0006368696E6720746F206C6F7720706F77E6
:1056D0006572206D6F64652E00496E697469616C36
:1056E000697A696E67204D4C583930333932204D14
:1056F00061676E65746F6D657465722053656E7356
:105700006F722E2E2E004641494C45440043414CB9
:1057100020424144005B4552525D204D61676E65F9
:10572000746963204F766572666C6F772064657468
:105730006563746564207768696C65206E6F726D4F
:10574000616C697A696E6720646174612E005B45E3
:1057500052525D20436F6D6D756E69636174696F40
:105760006E206572726F722077697468206D616750
:105770006E65746F6D657465722E20506F776572FB
:10578000206379636C65206465766963652E0041EA
:105790006C61726D2042414400416C61726D204F1A
:1057A0004B004F666673657420582C592C5A3A206A
:1057B00025642C2025642C2025640D0A4E6F726D03
:1057C000616C697A696E672052696768742D5368E5
:1057D0006966747320582C592C5A3A2025642C2061
:1057E00025642C2025640D0A437261636B65642077
:1057F0005468726573686F6C643A20256C750D0A85
:105800004D6178204D61676E69747564653A202535
:105810006C750D0A005B4552525D204661696C65EE
:105820006420746F206368616E6765204D4C583941
:1058300030333932206F7065726174696E67206D24
:105840006F64652E005374617274696E67206F70A7
:10585000656E2077696E646F772063616C69627230
:105860006174696F6E2E00426567696E6E696E675E
:10587000206F70656E2077696E646F772063616C4E
:105880006962726174696F6E2E005B4552525D20D1
:105890004D61676E65746963204669656C64206953
:1058A0007320746F6F207374726F6E672E20506C4C
:1058B000656173652072657472792E005A65726F26
:1058C000696E6720436F6D706C6574652E20585F3C
:1058D0006F6666203D2025642C20595F6F66662028
:1058E0003D2025642C205A5F6F66663D2025640D9F
:1058F0000A005374617274696E6720636C6F73651C
:10590000642077696E646F772063616C696272618D
:1059100074696F6E2E00426567696E6E696E6720EE
:10592000636C6F7365642077696E646F7720636161
:105930006C6962726174696F6E2E005363616C6989
:105940006E6720436F6D706C657465642E20585FC0
:105950007363616C6520203D20325E25642C2059E4
:105960005F7363616C65203D20325E25642C205A94
:105970005F7363616C65203D20325E25640D0A0013
:105980005B4552525D2053656E736F722076616C79
:1059900075652069732062656C6F77206E6F69731F
:1059A00065206D617267696E2C20706C656173652E
:1059B00020636C6F7365207468652077696E646F0F
:1059C0007720616E6420707265737320746865203F
:1059D000627574746F6E20746F2072657472792EA4
:1059E000005374617274696E672077696E646F77B3
:1059F000207468726573686F6C642063616C69629F
:105A0000726174696F6E2E00426567696E6E696EB1
:105A1000672077696E646F77207468726573686F4A
:105A20006C642063616C6962726174696F6E2E00D0
:105A30005B5741524E5D205468726573686F6C64A9
:105A40002069732062656C6F77206E6F69736520C3
:105A50006D617267696E2E2053656E736F72206D73
:105A60006179206E6F74206F706572617465206358
:105A70006F72726563746C792E0054687265736816
:105A80006F6C642063616C6962726174696F6E200F
:105A9000636F6D706C6574652E20546872657368F1
:105AA0006F6C643A20256C750D0A005B4552524FAD
:105AB000525D20416C61726D2043616C696272615C
:105AC00074696F6E204661696C65642C20706C652A
:105AD0006173652072657472792E0043616C69622E
