:100000000C94FF000C941E010C941E010C941E0114
:100010000C9464060C9468070C94B4070C941E01AD
:100020000C941E010C941E010C941E010C941E01D4
:100030000C941E010C941E010C941E010C941E01C4
:100040000C941E010C941E010C941E010C941E01B4
:100050000C941E010C94131F0C941E010C941E0191
:100060000C941E010C941E010C941E010C941E0194
:100070000C941E010C941E010C941E010C941E0184
:100080000C941E010C941E010C941E010C941E0174
:100090000C941E010C941E010C94801F0C941E01E4
:1000A0000C941E010C941E0120123F124D125E1280
:1000B0002013311328144F145814F3142515331535
:1000C0006E616E00696E660000407A10F35A00A0FF
:1000D000724E18090010A5D4E80000E87648170011
:1000E00000E40B54020000CA9A3B000000E1F50551
:1000F000000080969800000040420F000000A0869B
:1001000001000000102700000000E80300000000CC
:100110006400000000000A00000000000100000070
:1001200000002C76D888DC674F0823DFC1DFAE598A
:10013000E1B1B796E5E3E453C63AE651997696E81D
:10014000E6C28426EB898C9B62ED407C6FFCEFBCA1
:100150009C9F40F2BAA56FA5F490055A2AF75C93CC
:100160006B6CF9676DC11BFCE0E40D47FEF520E602
:10017000B500D0ED902E0300943577050080841EE5
:10018000080000204E0A000000C80C333333330F40
:10019000986E12831141EF8D2114893BE65516CFDD
:1001A000FEE6DB18D1844B381BF77C1D901DA4BBE9
:1001B000E424203284725E228100C9F124ECA1E59E
:1001C0003D274E414E494E495459494E46CDCCCC1F
:1001D0003D0AD7233C17B7D13877CC2B329595E61B
:1001E000241FB14F0A000020410000C84200401CFB
:1001F0004620BCBE4CCA1B0E5AAEC59D74001124CD
:100200001FBECFEFCDBFDFE7DEBF1BE4A0E0B0E451
:10021000EEEEFCE400E00BBF02C007900D92AA32A4
:10022000B107D9F72EE4AAE2BBE401C01D92A63EB5
:10023000B207E1F70E94480F0C9475260C94000059
:100240002F923F924F925F926F927F928F929F92E6
:10025000AF92BF92CF92DF92EF92FF920F931F93D4
:10026000CF93DF93CDB7DEB76097CDBFDEBF7C0104
:100270001B016A01FC0116821782838181FF44C33E
:100280009E012F5F3F4F3901F7019381F10193FDEB
:10029000859193FF81911F01882309F431C3853231
:1002A00039F493FD859193FF81911F01853239F4D3
:1002B000B70190E00E94DF2356016501E5CF10E011
:1002C000512C912CFFE1F915D8F08B3279F038F4EC
:1002D000803279F08332A1F4F92DF0612EC08D3295
:1002E00061F0803369F4292D21602DC0392D3260F1
:1002F000932E892D8460982E2AC0E92DE86015C0C0
:1003000097FC2DC020ED280F2A3088F496FE06C0F9
:100310003AE0139F200D1124122F19C08AE0589E35
:10032000200D1124522EE92DE0629E2E10C08E3237
:1003300031F496FCE5C2F92DF0649F2E08C08C368E
:1003400021F4292D2068922E02C0883641F4F10153
:1003500093FD859193FF81911F018111B3CF9BEB99
:10036000980F933020F4992D9061805E07C09BE92F
:10037000980F933008F066C1992D9F7E96FF16E086
:100380009F73992E853619F49064992E08C086368D
:1003900021F4392F3068932E02C01111115097FEAD
:1003A00007C01C3350F444244394410E27E00BC093
:1003B000183038F027E017E005C027E09CE3492E0D
:1003C00002C0212F412C560184E0A80EB11CF60179
:1003D0006081718182819381042DA3010E94D722C3
:1003E0006C01F981FC87F0FF02C0F3FF06C091FCAD
:1003F00006C092FE06C000E205C00DE203C00BE29B
:1004000001C000E08C858C7019F001115AC29BC2AA
:1004100097FE10C04C0CFC85F4FF04C08A81813328
:1004200009F44A94141474F528E0241578F588E04A
:10043000482E2CC096FC2AC0812F90E08C159D057B
:100440009CF03CEFC3163FEFD30674F0892D806813
:10045000982E0AC0E2E0F0E0EC0FFD1FE10FF11D65
:100460008081803319F411501111F4CF97FE0EC022
:1004700044244394410E812F90E0C816D9062CF4F1
:100480001C1904C04424439401C010E097FE06C028
:100490001C141D0434F4C601019605C085E090E0EB
:1004A00002C081E090E001110196112331F0212F6B
:1004B00030E02F5F3F4F820F931F252D30E08217D2
:1004C000930714F4581A01C0512C892D897049F4EE
:1004D000552039F0B70180E290E00E94DF235A9462
:1004E000F7CF002329F0B701802F90E00E94DF238F
:1004F00093FC09C0552039F0B70180E390E00E94D9
:10050000DF235A94F7CF97FE4CC04601D7FE02C0B6
:10051000812C912CC60188199909F301E80FF91F64
:10052000ED87FE879601241931092F87388B012F1B
:1005300010E01195019511093FEF8316930629F4F8
:10054000B7018EE290E00E94DF23C814D9044CF07A
:100550008F8598898815990524F4ED85FE8581811C
:1005600001C080E3F1E08F1A91082D853E852F5F51
:100570003F4F2D873E87801691062CF0B70190E003
:100580000E94DF23D9CFC814D90441F49A8196334D
:1005900020F4953319F43C8534FF81E3B70190E0F2
:1005A0004EC08A81813319F09C859F7E9C87B7015C
:1005B00090E00E94DF23111105C094FC18C085E66D
:1005C00090E017C0B7018EE290E00E94DF231E5F2B
:1005D00082E001E0080FF301E80FF11D8081B7010F
:1005E00090E00E94DF23802F0113F3CFE6CF85E454
:1005F00090E0B7010E94DF23D7FC06C0C114D104EC
:1006000041F4EC85E4FF05C0D194C194D1088DE29A
:1006100001C08BE2B70190E00E94DF2380E32AE073
:10062000C216D1042CF08F5FFAE0CF1AD108F7CFB1
:10063000B70190E00E94DF23B701C601C0960E9477
:10064000DF2354C1833631F0833779F0833509F0E5
:1006500056C020C0560132E0A30EB11CF6018081C5
:10066000898301E010E0630112C05601F2E0AF0E91
:10067000B11CF601C080D18096FE03C0612F70E0EE
:1006800002C06FEF7FEFC6010E94BA238C01F92DE3
:10069000FF7714C0560122E0A20EB11CF601C08003
:1006A000D18096FE03C0612F70E002C06FEF7FEF34
:1006B000C6010E94AF238C01F92DF0689F2EF3FD37
:1006C0001AC0852D90E008171907A8F4B70180E239
:1006D00090E00E94DF235A94F4CFF60197FC8591B5
:1006E00097FE81916F01B70190E00E94DF235110C6
:1006F0005A94015011090115110579F7F7C0843694
:1007000011F0893661F5560197FE09C024E0A20E6A
:10071000B11CF60160817181828193810AC0F2E08F
:10072000AF0EB11CF60160817181072E000C880BA1
:10073000990BF92DFF769F2E97FF09C09095809514
:10074000709561957F4F8F4F9F4FF0689F2E2AE0E5
:1007500030E0A3010E944424C82EC6183FC0092DD2
:10076000853721F40F7E2AE030E01DC0097F8F36E7
:1007700091F018F4883559F0C3C0803719F08837E4
:1007800011F0BEC0006104FF09C0046007C094FE00
:1007900008C0066006C028E030E005C020E130E077
:1007A00002C020E132E0560107FF09C084E0A80E34
:1007B000B11CF601608171818281938108C0F2E0F1
:1007C000AF0EB11CF6016081718180E090E0A30161
:1007D0000E944424C82EC6180F77902E96FE0BC098
:1007E000092D0E7FC11650F494FE0AC092FC08C079
:1007F000092D0E7E05C0DC2C092D03C0DC2C01C0A8
:10080000D12E04FF0DC0FE01EC0DF11D808180335F
:1008100011F4097E09C002FF06C0D394D39404C02A
:10082000802F867809F0D39403FD11C000FF06C025
:100830001C2DD51480F4150D1D190DC0D51458F4B8
:10084000B70180E290E00E94DF23D394F7CFD51464
:1008500010F45D1801C0512C04FF10C0B70180E3F3
:1008600090E00E94DF2302FF17C001FD03C088E76C
:1008700090E002C088E590E0B7010CC0802F867838
:1008800059F001FF02C08BE201C080E207FD8DE25A
:10089000B70190E00E94DF23C11638F4B70180E36E
:1008A00090E00E94DF231150F7CFCA94F301EC0DC2
:1008B000F11D8081B70190E00E94DF23C110F5CFC8
:1008C00015C0F4E0F51560F584E0581A93FE1FC0DA
:1008D000011127C02C8523FF2AC000EC10E0392D20
:1008E0003071932EF8018491811124C0552009F4B0
:1008F000E4CCB70180E290E00E94DF235A94F6CF67
:10090000F7018681978126C08FEF9FEF23C0B70143
:1009100080E290E00E94DF235A945110F8CFD8CFA4
:10092000512CB701802F90E00E94DF23D3CF04EC3D
:1009300010E0D5CF91108052B70190E00E94DF23E4
:100940000F5F1F4FCFCF23E0251510F483E0BDCFFD
:10095000512CC0CF6096CDBFDEBFDF91CF911F91EC
:100960000F91FF90EF90DF90CF90BF90AF909F904E
:100970008F907F906F905F904F903F902F90089551
:100980000F931F93CF93DF930E94C90600E0C0E04E
:10099000D9E00E946006182F8823C1F00E94C50686
:1009A000811103C00F5F0E94C9060A3071F08D816A
:1009B00085FD0CC08D8182FD09C08D8183FD06C03F
:1009C0008D818370833029F701C010E0812FDF9182
:1009D000CF911F910F9108950E946006882361F0C6
:1009E000909105099C7149F490910509937081E0FB
:1009F000933019F080E0089581E00895E0E0F9E097
:100A000084E08083118281E082839DEF95839FE063
:100A1000968383830895A0E4B4E09CE011969C93B0
:100A20001197E0EEF5E085818C7F8583858182607A
:100A300085831C969C9308950895CF939091050902
:100A400093709330B1F0880F682B609307090E9470
:100A5000C004C82F811104C083E0809304090AC038
:100A60000E94EC04882331F083E080930409C0E005
:100A700001C0C0E08C2FCF910895DF92EF92FF92DA
:100A80000F931F93CF93DF9320E2209305096623F2
:100A9000F9F0D62F082F192FC0E00F2EE12CF9E026
:100AA000FF2EF02D6894DD24D1F80E94C00481113E
:100AB00004C083E0809304090EC0F7018085F8012B
:100AC00081938F01CF5FDC1719F0F701D482EDCF4E
:100AD00087E080930409DF91CF911F910F91FF90E0
:100AE000EF90DF900895EF92FF920F931F93CF93B3
:100AF000DF936623D1F07C01EC016150262F30E0BA
:100B00002F5F3F4FE20EF31E00E019E09991F801CC
:100B100090870E94C004882359F0F801958194FDC4
:100B200006C0CE15DF0591F703C081E001C080E06B
:100B3000DF91CF911F910F91FF90EF9008951F9338
:100B4000CF93DF93EB01142F60E00E941D058823F3
:100B500039F0612FCE010E94730593E09093040950
:100B6000DF91CF911F9108950F931F93CF938B0126
:100B700061E00E941D05C82F882321F061E0C801B3
:100B80000E943D058C2FCF911F910F9108950F93D7
:100B90001F93CF93DF938B01D42F61E00E941D053B
:100BA000C82F882321F06D2FC8010E943D058C2F8E
:100BB000DF91CF911F910F910895EF92FF920F93C4
:100BC0001F93CF93DF931F92CDB7DEB769837A016E
:100BD000022F60E00E941D05182F882349F161E073
:100BE000CE0101960E947305182F811104C083E085
:100BF000809304091DC0E0E0F9E08781816087836C
:100C000081E084830E94C004182F811104C083E016
:100C1000809304090DC00E94EC04882329F083E02E
:100C20008093040910E004C0602FC7010E943D05B5
:100C3000812F0F90DF91CF911F910F91FF90EF9037
:100C40000895CF92DF92EF92FF920F93CF93DF93AD
:100C50007B01D42F690160E00E941D05C82F882305
:100C600009F16D2FC7010E947305C82F811104C0BF
:100C700083E08093040916C0E0E0F9E08781816099
:100C8000878381E084830E94C0040E94EC0488234F
:100C900029F083E080930409C0E004C0602FC601FE
:100CA0000E943D058C2FDF91CF910F91FF90EF9027
:100CB000DF90CF90089510922A4B10922B4B0895FD
:100CC0008091C200817008951F920F920FB60F920B
:100CD00011240BB60F922F933F934F935F936F9313
:100CE0007F938F939F93AF93BF93EF93FF93E09185
:100CF0002A4BF0912B4B309709F00995E0ECF0E08E
:100D0000818181608183FF91EF91BF91AF919F912C
:100D10008F917F916F915F914F913F912F910F90A4
:100D20000BBE0F900FBE0F901F90189583E080931D
:100D30005000089581E080933E020E94E9070E94DE
:100D40005B060E94FE040E940B050E94BF1E0E94CB
:100D5000D11E0E94441F0E94561F0E94EC1E0E943A
:100D6000E61E0E945E1F0E94B8060E94CF060895EC
:100D7000E0E0FBE081E0808796E09183848320EAD5
:100D80003FE024873587808308958091070B817029
:100D900008950000000081E0809300020895E0E4DF
:100DA000F1E081E08583858B83E0828317828181F6
:100DB00082FDFDCF80E09FE080934A0190934B013C
:100DC000E0E4F1E0818183FDFDCF80EC9DE0809344
:100DD0004C0190934D01E0E4F1E0818180FDFDCF75
:100DE000E0E4F1E089EB808381E0828B81E3808B1A
:100DF000089580932F4B9093304B089580914A0132
:100E000090914B01089580914C0190914D0108956E
:100E10009C01E0E4F1E0918190FDFDCFE0E4F1E0A0
:100E200090819E7F9083918191FDFDCF109248012A
:100E300010924901E0E4F1E0918192FDFDCF209311
:100E40004A0130934B01E0E4F1E0818180FDFDCF68
:100E5000E0E4F1E080818160808308959C01E0E41A
:100E6000F1E0918190FDFDCFE0E4F1E090819E7F83
:100E70009083918191FDFDCF10924801109249011C
:100E8000E0E4F1E0918193FDFDCF20934C0130939C
:100E90004D01E0E4F1E0818180FDFDCFE0E4F1E08F
:100EA0008081816080830895F89480912E4B78949E
:100EB0000895F89410922E4B78940895F8948091A8
:100EC0002D4B78940895F89410922D4B78940895B2
:100ED0001F920F920FB60F9211240BB60F922F9301
:100EE0003F934F935F936F937F938F939F93AF93B2
:100EF000BF93EF93FF938091430180FF0FC081E088
:100F000080932D4BE091314BF091324B309709F0AB
:100F10000995E0E4F1E0838181608383809143015E
:100F200081FF0FC081E080932C4BE0912F4BF0911B
:100F3000304B309709F00995E0E4F1E0838182605D
:100F40008383FF91EF91BF91AF919F918F917F919B
:100F50006F915F914F913F912F910F900BBE0F902A
:100F60000FBE0F901F9018951F920F920FB60F9201
:100F700011240BB60F922F933F934F935F936F9370
:100F80007F938F939F93AF93BF93EF93FF9381E0F2
:100F900080932E4BE091334BF091344B309709F016
:100FA0000995E0E4F1E083898160838BFF91EF9103
:100FB000BF91AF919F918F917F916F915F914F9171
:100FC0003F912F910F900BBE0F900FBE0F901F906F
:100FD000189588E880931004E0E6F4E08EE38183BE
:100FE00080E8838788E3858784E0868B08950F9364
:100FF0009B01E5E3FBE490838183042F42E0BF0182
:101000008AE30E9421060F910895CF93DF93CAE3EC
:10101000DBE46881798180E090E00E9456266A8155
:101020007B8182E090E00E9456266C817D8184E085
:1010300090E00E94562640917C4B50917D4B6091F0
:101040007E4B70917F4B86E090E00E944E2640914F
:10105000784B5091794B60917A4B70917B4B8AE041
:1010600090E00E944E264091744B5091754B6091D8
:10107000764B7091774B8EE090E00E944E26409127
:10108000704B5091714B6091724B7091734B82E138
:1010900090E00E944E2640916C4B50916D4B6091B8
:1010A0006E4B70916F4B86E190E00E944E2640910E
:1010B000684B5091694B60916A4B70916B4B8AE120
:1010C00090E00E944E264091644B5091654B609198
:1010D000664B7091674B8EE190E00E944E264091E6
:1010E000604B5091614B6091624B7091634B82E217
:1010F00090E00E944E2640915C4B50915D4B609178
:101100005E4B70915F4B86E290E00E944E264091CC
:10111000584B5091594B60915A4B70915B4B8AE2FE
:1011200090E00E944E264091544B5091554B609157
:10113000564B7091574B8EE290E00E944E264091A4
:10114000504B5091514B6091524B7091534B82E3F5
:1011500090E00E944E2640914C4B50914D4B609137
:101160004E4B70914F4B86E390E00E944E26688173
:1011700079818A819B81682779278C819D81682765
:1011800079278AE390E00E945626DF91CF91089557
:101190008091804B08950F931F93CF93DF93CDB72A
:1011A000DEB72697CDBFDEBF8C0146E0BE016F5F84
:1011B0007F4F85E094E20E94F7078823D9F0898168
:1011C00090E0982F88272A81822BF80180839183D1
:1011D0008B8190E0982F88272C81822B82839383A8
:1011E0008D8190E0982F88272E81822B8483958390
:1011F00081E001C080E02696CDBFDEBFDF91CF91B8
:101200001F910F9108958F929F92AF92BF92CF92AC
:10121000DF92EF92FF921F93CF93DF9300D0CDB771
:10122000DEB78AE39BE40E94CB08182F882309F4D9
:10123000DCC080E090E00E9431266C0182E090E00A
:101240000E9431265C0184E090E00E9431264C012E
:101250007601EA24FB24E826F9268AE390E00E943E
:10126000312689839A8389819A81E816F90609F0E3
:10127000B5C080913A4B90913B4BC816D90609F006
:10128000AFC080913C4B90913D4BA816B90609F038
:10129000A9C080913E4B90913F4B8816990609F06A
:1012A000A3C086E090E00E942A2660937C4B709356
:1012B0007D4B80937E4B90937F4B8AE090E00E9421
:1012C0002A266093784B7093794B80937A4B909356
:1012D0007B4B8EE090E00E942A266093744B7093C3
:1012E000754B8093764B9093774B82E190E00E9410
:1012F0002A266093704B7093714B8093724B90933E
:10130000734B86E190E00E942A2660936C4B7093A9
:101310006D4B80936E4B90936F4B8AE190E00E94EF
:101320002A266093684B7093694B80936A4B909325
:101330006B4B8EE190E00E942A266093644B709381
:10134000654B8093664B9093674B82E290E00E94DE
:101350002A266093604B7093614B8093624B90930D
:10136000634B86E290E00E942A2660935C4B709368
:101370005D4B80935E4B90935F4B8AE290E00E94BE
:101380002A266093584B7093594B80935A4B9093F5
:101390005B4B8EE290E00E942A266093544B709340
:1013A000554B8093564B9093574B82E390E00E94AD
:1013B0002A266093504B7093514B8093524B9093DD
:1013C000534B86E390E00E942A2660934C4B709327
:1013D0004D4B80934E4B90934F4B07C010E005C090
:1013E00010E003C010E001C010E0812F0F900F90BB
:1013F000DF91CF911F91FF90EF90DF90CF90BF9042
:10140000AF909F908F900895CF92DF92EF92FF92CE
:101410001F93CF93DF93CDB7DEB76897CDBFDEBF05
:101420008AE39BE40E94CB08182F882309F41AC290
:1014300040E1BE016F5F7F4F8CE094E20E94F707AE
:10144000882309F40AC22B816C81862F90E0A0E0EA
:10145000B0E0DC0199278827B22B2A81AC01BD01BD
:10146000422B898190E0982F8827A0E0B0E06A01A4
:101470007B01C82AD92AEA2AFB2AC701B6010E94A1
:10148000CD2020E030E040E85BE30E9482216093C1
:101490007C4B70937D4B80937E4B90937F4B2F8141
:1014A0006885862F90E0A0E0B0E0DC0199278827CE
:1014B000B22B2E81AC01BD01422B8D8190E0982F83
:1014C0008827A0E0B0E06A017B01C82AD92AEA2A6D
:1014D000FB2AC701B6010E94CD2020E030E040E8A1
:1014E00055E30E9482216093784B7093794B8093EF
:1014F0007A4B90937B4B2B856C85862F90E0A0E0F8
:10150000B0E0DC0199278827B22B2A85AC01BD0108
:10151000422B898590E0982F8827A0E0B0E06A01EF
:101520007B01C82AD92AEA2AFB2AC701B6010E94F0
:10153000CD2020E030E040E859E20E948221609313
:10154000744B7093754B8093764B9093774B2F85AC
:101550006889862F90E0A0E0B0E0DC019927882719
:10156000B22B2E85AC01BD01422B8D8590E0982FCA
:101570008827A0E0B0E06A017B01C82AD92AEA2ABC
:10158000FB2AC701B6010E94CD2020E030E040E8F0
:101590005BE30E9482216093704B7093714B809348
:1015A000724B9093734B48E1BE016F5F7F4F84E2B3
:1015B00094E20E94F707882309F451C12B816C81C2
:1015C000862F90E0A0E0B0E0DC0199278827B22BBD
:1015D0002A81AC01BD01422B898190E0982F882798
:1015E000A0E0B0E06A017B01C82AD92AEA2AFB2AD6
:1015F000C701B6010E94CD2020E030E040E857E36B
:101600000E94822160936C4B70936D4B80936E4B64
:1016100090936F4B2F816885862F90E0A0E0B0E01B
:10162000DC0199278827B22B2E81AC01BD01422B0A
:101630008D8190E0982F8827A0E0B0E06A017B01BF
:10164000C82AD92AEA2AFB2AC701B6010E94CD205E
:1016500020E030E040E85BE30E9482216093684B29
:101660007093694B80936A4B90936B4B2B856C8581
:10167000862F90E0A0E0B0E0DC0199278827B22B0C
:101680002A85AC01BD01422B898590E0982F8827DF
:10169000A0E0B0E06A017B01C82AD92AEA2AFB2A25
:1016A000C701B6010E94CD2020E030E040E858E2BA
:1016B0000E9482216093644B7093654B8093664BCC
:1016C0009093674B2F856889862F90E0A0E0B0E06B
:1016D000DC0199278827B22B2E85AC01BD01422B56
:1016E0008D8590E0982F8827A0E0B0E06A017B010B
:1016F000C82AD92AEA2AFB2AC701B6010E94CD20AE
:1017000020E030E040E85DE20E9482216093604B7F
:101710007093614B8093624B9093634B2B896C89E0
:10172000862F90E0A0E0B0E0DC0199278827B22B5B
:101730002A89AC01BD01422B898990E0982F882726
:10174000A0E0B0E06A017B01C82AD92AEA2AFB2A74
:10175000C701B6010E94CD2020E030E040E85DE204
:101760000E94822160935C4B70935D4B80935E4B33
:1017700090935F4B6D8970E0762F66278E89682B7A
:10178000072E000C880B990B0E94CD2020E030E042
:1017900040E85AE30E9482216093584B7093594B62
:1017A00080935A4B90935B4B6F8970E0762F66273E
:1017B000888D682B072E000C880B990B0E94CD207A
:1017C00020E030E040E85AE30E9482216093544BCD
:1017D0007093554B8093564B9093574B44E0BE010A
:1017E0006F5F7F4F81E894E20E94F7078823C9F179
:1017F000698170E0762F66278A81682B072E000C9E
:10180000880B990B0E94CD2020E030E040E858E39F
:101810000E9482216093504B7093514B8093524BA6
:101820009093534B6B8170E0762F66278C81682BE9
:10183000072E000C880B990B0E94CD2020E030E091
:1018400040E85AE30E94822160934C4B70934D4BC9
:1018500080934E4B90934F4B05C010E003C010E0B7
:1018600001C010E0812F6896CDBFDEBFDF91CF9120
:101870001F91FF90EF90DF90CF900895CF9381114B
:1018800005C00E940309C82F811108C00E94040AE4
:10189000C82F882331F00E94050803C081E080939F
:1018A000804B8C2FCF9108950F93CF93DF93EB0153
:1018B000E5E3FBE49083818302E027E33BE442E03D
:1018C000BF018AE30E942106882361F0E5E3FBE47F
:1018D000828190E0982F88272381822B88839983A7
:1018E00081E001C080E0DF91CF910F910895BC01AC
:1018F0008FEF9FE30E94540C0895CF93DF93CDB7F1
:10190000DEB72E97CDBFDEBF42E0BE016F5F7F4FD7
:101910008FEF9FE30E94F707882309F447C08A816D
:101920008C7790E095958795959587958093394B21
:101930004CE0BE016D5F7F4F83E090E40E94F707AB
:101940008823B1F1E0E4FBE48B8190E0982F8827B5
:101950002C81822B808391838D8190E0982F882722
:101960002E81822B828393838F8190E0982F88270A
:101970002885822B84839583898590E0982F8827FA
:101980002A85822B868397838B8590E0982F8827E2
:101990002C85822B808791878D8590E0982F8827D2
:1019A0002E85822B8287938781E003C080E001C06F
:1019B00080E02E96CDBFDEBFDF91CF910895CF930B
:1019C000DF9300D0CDB7DEB7CE0101960E94770C31
:1019D000882319F08981817001C080E00F900F90F9
:1019E000DF91CF910895E5E3FBE4908381837283D7
:1019F000638344E0BF018AE30E949F05089562E08B
:101A000078E081E090E30E94F30C08954F925F929A
:101A10006F927F928F929F92AF92BF92CF92DF92FE
:101A2000EF92FF92CF93DF93CDB7DEB76197CDBF33
:101A3000DEBF8091394B823029F08091394B813063
:101A400009F08DC160914A4B70914B4B072E000CF1
:101A5000880B990B0E94CD204B015C016091444B97
:101A60007091454B072E000C880B990B0E94CD20DE
:101A700020E030E040E451E40E9423206B017C012F
:101A80002091584B3091594B40915A4B50915B4BA0
:101A90000E948221A50194010E94B21F9B01AC010A
:101AA000C701B6010E94232020E030E040E059E465
:101AB0000E94822169837A838B839C838091394B36
:101AC0008130A9F4E0E4FBE460817181828193813B
:101AD000680F791F072E000C880B990B0E94CD20F0
:101AE00020E030E040E05FE30E94822114C0E0E4A7
:101AF000FBE46681778180859185680F791F072EC9
:101B0000000C880B990B0E94CD2020E030E040E0D3
:101B10005FE30E94822120E030E040E451E40E9433
:101B200023202B013C012091544B3091554B409187
:101B3000564B5091574BC701B6010E948221A50117
:101B400094010E94B21F9B01AC01C301B2010E942B
:101B5000232020E030E040E059E40E9482216D83A0
:101B60007E838F83988720917C4B30917D4B409171
:101B70007E4B50917F4B69817A818B819C810E9441
:101B8000B11F4B015C012091784B3091794B409112
:101B90007A4B50917B4B0E9423202091704B3091C7
:101BA000714B4091724B5091734B0E94B21F2B01AD
:101BB0003C01A5019401C501B4010E94822120913C
:101BC000744B3091754B4091764B5091774B0E94FE
:101BD00082219B01AC01C301B2010E94B21F2B0103
:101BE0003C016093004070930140809302409093C9
:101BF000034023E333E948E853E40E94B21F4B015A
:101C00005C012091504B3091514B4091524B50917F
:101C1000534B6091644B7091654B8091664B9091F2
:101C2000674B0E94822169837A838B839C83809196
:101C30005C4B90915D4BA0915E4BB0915F4B89875F
:101C40009A87AB87BC8720E030E048EC51E4C301C1
:101C5000B2010E94B11F2091604B3091614B4091C5
:101C6000624B5091634B0E9482216D877E878F87E4
:101C7000988BA5019401C501B4010E948221A501A0
:101C800094010E948221A50194010E9482212B01CE
:101C90003C01C0904C4BD0904D4BE0904E4BF0909F
:101CA0004F4B93E0B0E0A0E0F8ECE1E4998B20E04A
:101CB00030E048EC51E46B2F7A2F8F2F9E2F0E943B
:101CC000B11F29853A854B855C850E94822120E0E1
:101CD00030E040E85FE30E94B21F2D853E854F85CE
:101CE00058890E94B21F29813A814B815C810E94F0
:101CF00082219B01AC016D817E818F8198850E943C
:101D000023204B015C01A3019201C501B4010E9493
:101D1000B21F0E9419220E94192223E333E948E8E6
:101D200053E40E94B11FA70196010E94B11FA98927
:101D3000A150A98BB62FA72FF82FE92F29892111A0
:101D4000B6CFC62ED72EE82EF92EC0920440D092E0
:101D50000540E0920640F092074081E001C080E03B
:101D60006196CDBFDEBFDF91CF91FF90EF90DF9006
:101D7000CF90BF90AF909F908F907F906F905F902B
:101D80004F90089560910040709101408091024011
:101D900090910340089560910440709105408091B6
:101DA00006409091074008950F931F93CF93C82F3B
:101DB0008B010E946006882331F021E0A8016C2F7E
:101DC0008CE00E94DD05CF911F910F9108950F9334
:101DD0001F93CF93DF9300D0CDB7DEB7082F162F18
:101DE0000E946006882349F009831A8342E0BE01FD
:101DF0006F5F7F4F8CE00E949F050F900F90DF91E7
:101E0000CF911F910F91089566E081E10E94E70E46
:101E100008950E94040F882359F065EB85E10E9424
:101E2000E70E882339F06DE284E10E94E70E089501
:101E300080E0089580E00895CF93DF931F92CDB79F
:101E4000DEB70E946006882359F01982BE016F5FD9
:101E50007F4F8CE00E94B405882311F08981817046
:101E60000F90DF91CF910895682F80E10E94E70ED7
:101E70000895CF93DF93EC010E946006882329F038
:101E800048E0BE018CE00E94C705DF91CF91089524
:101E90000E9496060E949A0689E69BE10E94F21E25
:101EA0008BED9DE10E94031A8CE197E10E94F906F7
:101EB000C2B1C1708C2F0E94AF1D8C2F0E941E10CA
:101EC0008C2F0E946A1678940E94FD1900E614E097
:101ED000C0E1A895F801C7830E94421B0E947115BA
:101EE0000E946A1581110E94C9160E945E0788230C
:101EF00071F00E9463070E944F1B882341F00E94EB
:101F00006A15882321F00E947B110E94F5170E9418
:101F1000081A882311F08895DCCF0E9459070E9487
:101F200054078823E1F3D5CF99231CF4919581952B
:101F300091099C018038910544F081E03595279501
:101F40008F5F20383105D4F7089581E0089510920D
:101F5000AD4B0895811103C01092AD4B089588E4F4
:101F600090E00E942A266093A84B7093A94B80931F
:101F7000AA4B9093AB4B8CE490E00E942A2660938E
:101F8000A44B7093A54B8093A64B9093A74B80E5F1
:101F900090E00E9431268093A24B9093A34B82E560
:101FA00090E00E9431268093A04B9093A14B84E552
:101FB00090E00E94312680939E4B90939F4B86E544
:101FC00090E00E94222680930A4087E590E00E94DC
:101FD00022268093094088E590E00E942226809383
:101FE00008408BE08093AD4B08951F93CF93DF9310
:101FF0001F92CDB7DEB7182F1092AD4BBE016F5FA9
:102000007F4F8BE00E94D40E882371F087E490E02C
:102010000E94222611110AC09981891309C081E00A
:102020000E94AA0F81E005C080E003C080E001C0EB
:1020300080E00F90DF91CF911F910895CF93C82F2B
:1020400082B1817080939C4B8DE290E40E941219C2
:102050000E94090F811108C08AE590E40E941219BC
:1020600082E08093AC4B10C08C2F0E94F50F811141
:1020700007C00E94AA0F83E690E40E94121904C0D0
:102080008DE690E40E941219CF9108958F929F924D
:10209000AF92BF92CF92DF92EF92FF92DC01FB01F1
:1020A00011964D915C9112978091A24B9091A34B08
:1020B000481B590B13962D913C9114978091A04B7E
:1020C0009091A14B281B390B15968D919C911697D9
:1020D00060919E4B70919F4B861B970B00900A401E
:1020E00002C0559547950A94E2F70090094002C056
:1020F000359527950A94E2F70090084002C095951F
:1021000087950A94E2F7449F6001459FD00CD00C5C
:1021100011244601DD0CAA08BB08229F6001239F01
:10212000D00CD00C11240D2C000CEE08FF08C80CAC
:10213000D91CEA1CFB1C889F4001899F900C900CC5
:102140001124092C000CAA08BB08C80CD91CEA1CD5
:10215000FB1CC382D482E582F682403851051CF014
:102160004FE7408308C040386FEF56071CF440E843
:10217000408301C04083203831051CF02FE72183C4
:1021800008C020384FEF34071CF420E8218301C039
:102190002183803891051CF08FE7828308C0803846
:1021A0006FEF96071CF480E8828301C08283FF9062
:1021B000EF90DF90CF90BF90AF909F908F90089559
:1021C0008F929F92AF92BF92CF92DF92EF92FF9247
:1021D0000F931F93CF93DF93FC014381548165815B
:1021E00076810091A84B1091A94B2091AA4B309178
:1021F000AB4B401751076207730768F00091A44B7F
:102200001091A54B2091A64B3091A74B04171507B1
:1022100026073707C0F5EC0182E790E40E94121907
:10222000BB80AC809D808E80F090A84BE090A94B45
:10223000D090AA4BC090AB4BC091A44BD091A54B72
:102240001091A64B0091A74B0E94DE188F929F928F
:10225000AF92BF92CF92DF92EF92FF920F931F93B4
:10226000DF93CF9321E930E43F932F939F938F9394
:102270000E941B240E94E3188DB79EB740968DBF25
:102280009EBF80E001C081E0DF91CF911F910F914F
:10229000FF90EF90DF90CF90BF90AF909F908F9086
:1022A00008950E94E010882341F08091994B882383
:1022B000E9F081508093994B07C08091994B843607
:1022C000A9F08F5F8093994B8091814B843121F0ED
:1022D0009091994B9A3031F481E080939B4B10920E
:1022E000814B08958F5F8093814B08958091814B3E
:1022F0008431C1F7F1CF10929B4B8091994B8A307A
:1023000028F08AED90E40E94561B089585EE90E433
:102310000E94561B0895CF936AE97BE48BE00E94EC
:10232000D40EC82F882309F448C04091A84B50917F
:10233000A94B6091AA4B7091AB4B88E490E00E944E
:102340004E264091A44B5091A54B6091A64B7091A5
:10235000A74B8CE490E00E944E266091A24B7091B6
:10236000A34B80E590E00E9456266091A04B7091AF
:10237000A14B82E590E00E94562660919E4B7091A1
:102380009F4B84E590E00E94562660910A4086E5C6
:1023900090E00E9436266091094087E590E00E9417
:1023A00036266091084088E590E00E9436266091CC
:1023B0009A4B87E490E00E9436268C2FCF910895A7
:1023C0004F925F926F927F928F929F92AF92BF9245
:1023D000CF92DF92EF92FF92CF93DF93DC01EB017C
:1023E0009091984B993118F01092984B03C09F5FD1
:1023F0009093984BCB80DC80ED80FE804091A44B85
:102400005091A54B6091A64B7091A74B4C155D0563
:102410006E057F0540F4C092A44BD092A54BE0928C
:10242000A64BF092A74BE091AD4B4E2F50E04C30B5
:10243000510508F01AC3FA01EC5AFF4F0C94A82278
:102440001092974B81E08093AD4B1092934B10927A
:10245000944B1092954B1092964B10928F4B10927A
:10246000904B1092914B1092924B10928B4B10927A
:102470008C4B10928D4B10928E4BE1E005C38AE09D
:102480000E94340F882321F082E08093AD4BEDC28F
:102490008FEE90E40E941219E8C280919D4B882330
:1024A00009F4E3C281E291E40E94561B83E0809329
:1024B000AD4B1092894B10928A4BD7C28091894BB9
:1024C00090918A4B9C012F5F3F4F2093894B309313
:1024D0008A4B11964D915C911297052E000C660B5C
:1024E000770BC090934BD090944BE090954BF0902D
:1024F000964BCB01BA016C0D7D1D8E1D9F1D609307
:10250000934B7093944B8093954B9093964B13966B
:102510008D909C901497092C000CAA08BB08C090C1
:102520008F4BD090904BE090914BF090924B8C0C55
:102530009D1CAE1CBF1C80928F4B9092904BA09222
:10254000914BB092924B1596CD90DC9016970D2C36
:10255000000CEE08FF0840908B4B50908C4B609025
:102560008D4B70908E4BC40CD51CE61CF71CC09292
:102570008B4BD0928C4BE0928D4BF0928E4B283E41
:10258000334008F472C20F2EF8EE4F2EF3E05F2EA8
:10259000612C712CF02DA30192010E948922CA01A5
:1025A000B9010E94CD200E94EF210E949520C62FE4
:1025B000D72F6093A24B7093A34BC501B401A30125
:1025C00092010E948922CA01B9010E94CD200E9475
:1025D000EF210E949520B62EA72E6093A04B7093FA
:1025E000A14BC701B601A30192010E948922CA0131
:1025F000B9010E94CD200E94EF210E949520F62E65
:10260000E72E60939E4B70939F4B0E94DE18EF92D3
:10261000FF92AF92BF92DF93CF9326E431E43F93D2
:102620002F939F938F930E941B240E94E31884E0B2
:102630008093AD4B8DB79EB70A968DBF9EBF15C2D6
:1026400080919D4B882309F410C28CE791E40E948D
:10265000561B85E08093AD4B1092894B10928A4BAC
:1026600004C28091894B90918A4BFC013196E09392
:10267000894BF0938A4B11964D915C911297209162
:10268000A24B3091A34B421B530B052E000C660B43
:10269000770BC090934BD090944BE090954BF0907B
:1026A000964BCB01BA016C0D7D1D8E1D9F1D609355
:1026B000934B7093944B8093954B9093964B1396BA
:1026C0008D909C9014972091A04B3091A14B821A31
:1026D000930A092C000CAA08BB08C0908F4BD0901D
:1026E000904BE090914BF090924B8C0C9D1CAE1C4B
:1026F000BF1C80928F4B9092904BA092914BB092C6
:10270000924B1596CD90DC90169720919E4B309170
:102710009F4BC21AD30A0D2C000CEE08FF08409004
:102720008B4B50908C4B60908D4B70908E4BC40CAB
:10273000D51CE61CF71CC0928B4BD0928C4BE092C0
:102740008D4BF0928E4BE83EF34008F48EC128EE9C
:1027500033E040E050E00E948922CA01B9010E94A2
:10276000CD200E94EF210E9495202B013C01609317
:10277000934B7093944B8093954B9093964BC501DC
:10278000B40128EE33E040E050E00E948922CA0103
:10279000B9010E94CD200E94EF210E9495204B019B
:1027A0005C0160938F4B7093904B8093914B90930F
:1027B000924BC701B60128EE33E040E050E00E94A2
:1027C0008922CA01B9010E94CD200E94EF210E94F6
:1027D00095206B017C0160938B4B70938C4B8093A5
:1027E0008D4B90938E4BC2010E94940FC82F809303
:1027F0000A40C4010E94940FD82F80930940C6015B
:102800000E94940FF82E809308400E94DE181F92B9
:10281000FF921F92DF931F92CF9323EA31E43F93FD
:102820002F939F938F930E941B240E94E31886E0AE
:102830008093AD4B1092A44B1092A54B1092A64BD7
:102840001092A74B8DB79EB70A968DBF9EBF0DC144
:1028500099E2C916D104E104F10440F488EE91E450
:102860000E94121987E08093AD4BFFC080919D4B71
:10287000882309F4FAC08BE492E40E94561B10925C
:10288000894B10928A4B1092854B1092864B109276
:10289000874B1092884B88E08093AD4BE6C08091C7
:1028A0009D4B882309F4E1C086E08093AD4BDDC0E9
:1028B0008091894B90918A4B9C012F5F3F4F2093D1
:1028C000894B30938A4B4091854B5091864B609158
:1028D000874B7091884BCB01BA016C0D7D1D8E1D0D
:1028E0009F1D6093854B7093864B8093874B90938D
:1028F000884B283E334008F4B8C028EE33E040E06F
:1029000050E00E948922CA01B9010E94CD200E9494
:10291000EF210E949C206093A84B7093A94B809359
:10292000AA4B9093AB4B683271058105910520F459
:1029300085E792E40E9412196091A84B7091A94B0F
:102940008091AA4B9091AB4B0E94CB2026E636E6B5
:1029500046E65FE30E9482210E94EF210E949C20B4
:10296000C62FD72FF82EE92E6093A84B7093A94B52
:102970008093AA4B9093AB4B6091A44B7091A54B65
:102980008091A64B9091A74B0E94CB202DEC3CEC64
:102990004CE85FE30E9482210E94EF210E949C206C
:1029A0006093A44B7093A54B8093A64B9093A74B39
:1029B0000E94DE18EF92FF92DF93CF9321EC32E476
:1029C0003F932F939F938F930E941B240E94E318A1
:1029D00089E08093AD4B1092844B8DB79EB70896DB
:1029E0008DBF9EBF42C0CE010E94E010882341F0FF
:1029F0008091844B8823B9F081508093844B07C029
:102A00008091844B843618F48F5F8093844B80913F
:102A1000844B8A3040F082EF92E40E94561B82E0A1
:102A20008093AD4B22C080919D4B8823F1F084E2CE
:102A300093E40E94561B8AE08093AD4B1092984B12
:102A40000E948B111092994B10C082E00E94340FAB
:102A5000882321F08BE08093AD4B07C08FEE90E48C
:102A60000E94121902C01092AD4B2091974BE09139
:102A7000AD4B2E1309C08091824B9091834B8032D5
:102A800033E0930798F0E22FF0E0EE0FFF1FE55FD1
:102A9000FF4B808191810E94561B8091AD4B8093AA
:102AA000974B1092824B1092834B05C001968093F6
:102AB000824B9093834BDF91CF91FF90EF90DF900B
:102AC000CF90BF90AF909F908F907F906F905F90CE
:102AD0004F90089581E09091AD4B9B3009F080E0DC
:102AE0000895CF93DF93CDB7DEB72F97CDBFDEBF6D
:102AF00080919C4B811108C0109B09C081E080939C
:102B00009C4B80939D4B03C0109B10929C4B0E944A
:102B1000600681110CC08091AC4B823041F082E0A4
:102B20008093AC4B81E080939B4B0E941C0580916D
:102B3000AC4B8130E9F038F0833009F446C0843082
:102B400009F447C058C08091AD4B8B3021F482E02E
:102B50000E94340F03C08AE00E94340F882321F0C2
:102B600081E08093AC4B4EC082E08093AC4B4AC076
:102B70000E941C0F882309F445C0CE0101960E94D3
:102B8000390F8823E1F0BE01675F7F4FCE010196C8
:102B90000E9446108091AD4B8B3049F480919D4B43
:102BA000811105C0CE0109960E9451110BC0BE01D2
:102BB000675F7F4FCE0101960E94E01103C082E063
:102BC0008093AC4B10929D4B1DC084E08093AC4B26
:102BD00019C00E94090F882351F08DE393E40E94ED
:102BE000121980E00E94F50F1092AC4B0BC082E0EE
:102BF0008093AC4B07C00E946006882319F083E0E5
:102C00008093AC4B2F96CDBFDEBFDF91CF9108955F
:102C100081113BC060EC7DE08CE390E00E94562681
:102C200080EC9DE00E942E074DEC5CEC60E072E4CD
:102C30008EE390E00E944E268DEC9CECA0E0B2E486
:102C40008093284090932940A0932A40B0932B4032
:102C500040E050E060E271E482E490E00E944E26A1
:102C600080E090E0A0E2B1E480932440909325407E
:102C7000A0932640B093274063E486E490E00E944E
:102C8000362683E48093234008958CE390E00E94ED
:102C900031260E942E078EE390E00E942A26609340
:102CA00028407093294080932A4090932B4082E4DF
:102CB00090E00E942A2660932440709325408093E0
:102CC00026409093274086E490E00E94222680933D
:102CD00023400895CF93C82F8BEA94E40E941219E1
:102CE000CC2329F081E00E943E0CC82F04C080E074
:102CF0000E943E0CC82F0E94C808882341F087ED2F
:102D000094E40E94121981E00E94081607C081E035
:102D100095E40E94121980E00E940816CC2329F045
:102D20008DE690E40E94121907C08AE590E40E94A3
:102D3000121985E08093AF4BCF9108958093234083
:102D4000682F86E490E00E9436260895CF93DF93A3
:102D5000C82FD92F0E942E076C2F7D2F8CE390E077
:102D60000E9456260E94DE18DF93CF9329E335E4B4
:102D70003F932F939F938F930E941B240E94E318ED
:102D80000F900F900F900F900F900F90DF91CF91B9
:102D900008958091AF4B823009F130F4882309F413
:102DA0004AC0813039F040C0833061F1843009F489
:102DB00042C03AC00E94FF0C811108C081E595E431
:102DC0000E94121985E08093AF4B089587E895E43F
:102DD0000E94121982E08093AF4B08950E94DF0C8D
:102DE000882349F10E947D0C811108C083EB95E492
:102DF0000E94121985E08093AF4B089583E0809381
:102E0000AF4B08950E94060D882331F081E0809336
:102E1000AE4B1092AF4B08958EEE95E40E941219BE
:102E200085E08093AF4B089580E396E40E94561BA3
:102E300084E08093AF4B08958091AF4B811104C023
:102E400081E08093AF4B0895843019F485E080933E
:102E5000AF4B0895BF92CF92DF92EF92FF920F9304
:102E60001F93CF93DF930E94C20EF62EE72ED82E2B
:102E7000C92E0E94CB0EC62FD72F182F092F2091B5
:102E800028403091294040912A4050912B400E9487
:102E90007D2188232CF082E796E40E94561B14C003
:102EA0002091244030912540409126405091274068
:102EB0006C2F7D2F812F902F0E941E20181624F03A
:102EC00081E996E40E94561B80912340863449F59F
:102ED00026E636E646EE5FE36F2D7E2D8D2D9C2D8A
:102EE0000E94822120E030E040E052E40E94B21FC4
:102EF000F62EE72ED82EC92E26E636E646EE5FE3FE
:102F00006C2F7D2F812F902F0E94822120E030E0B6
:102F100040E052E40E94B21FC62FD72F182F092F6E
:102F20003BC08B34E9F423E333E948E853E46F2DE5
:102F30007E2D8D2D9C2D0E94B21FF62EE72ED82EB1
:102F4000C92E23E333E948E853E46C2F7D2F812F0A
:102F5000902F0E94B21FC62FD72F182F092F1CC0E9
:102F60008334D1F08FEA96E40E941219B090234086
:102F70000E94DE181F92BF9223E137E43F932F9304
:102F80009F938F930E941B240E94E3180F900F9031
:102F90000F900F900F900F90B09023400E94591BFC
:102FA0001F92BF920F931F93DF93CF931F92BF92F5
:102FB000CF92DF92EF92FF922FED36E43F932F9363
:102FC0009F938F930E941B240E945C1B8DB79EB71A
:102FD00040968DBF9EBFDF91CF911F910F91FF90C3
:102FE000EF90DF90CF90BF9008950F931F93CF93F2
:102FF000DF938091AE4B811126C088E197E40E9457
:1030000012190E94FE06182F092F0E940307C82FCD
:10301000D92F0E94DE180F931F93DF93CF932CE4D8
:1030200037E43F932F939F938F930E941B240E941A
:10303000E3188FE697E40E94561B8DB79EB708965B
:103040008DBF9EBF04C01092AE4B0E942A17DF9125
:10305000CF911F910F910895CF92DF92EF92FF923F
:10306000CF936B017C0180912340863489F420E06A
:1030700030E040E052E4C701B6010E94B11F26E8EB
:1030800038E34EE05FE30E9482216B017C0129C09E
:103090008B3459F423E333E948E853E4C701B6011C
:1030A0000E94B11F6B017C011CC08334D1F08FEAF8
:1030B00096E40E941219C09123400E94DE181F92CC
:1030C000CF9323E137E43F932F939F938F930E94F5
:1030D0001B240E94E3180F900F900F900F900F90F9
:1030E0000F90C0922840D0922940E0922A40F0925E
:1030F0002B40B701A6018EE390E00E944E26CF91AF
:10310000FF90EF90DF90CF900895CF92DF92EF92F3
:10311000FF92CF936B017C0180912340863489F428
:1031200020E030E040E052E4C701B6010E94B11F48
:1031300026E838E34EE05FE30E9482216B017C01C8
:1031400029C08B3459F423E333E948E853E4C70139
:10315000B6010E94B11F6B017C011CC08334D1F009
:103160008FEA96E40E941219C09123400E94DE1853
:103170001F92CF9323E137E43F932F939F938F9335
:103180000E941B240E94E3180F900F900F900F9045
:103190000F900F90C0922440D0922540E09226409C
:1031A000F0922740B701A6018EE390E00E944E26E0
:1031B000CF91FF90EF90DF90CF9008958FEA9CE43D
:1031C00008958FEF08951F93CF93DF938091AF4CB5
:1031D000882321F1E0E4F8E0848180648483C0E006
:1031E000D0E010E00E94641F8823E1F3C155D34B67
:1031F00088810E946A1F1F5FC12FD0E0FE01E15548
:10320000F34B8081882311F01F3F61F70E94641FF8
:103210008823E1F30E94781F8111FCCFDF91CF91C9
:103220001F910895EF92FF920F931F93CF93FC018C
:103230002081222349F17C01E0E4F8E0848180646C
:103240008483F7018081811114C016C00E94641F1D
:103250008823E1F3F80180810E946A1FCF5F870114
:103260000C0F111DF8019081992331F0CF3F71F7B8
:1032700003C08701C0E0EACF0E94641F8823E1F306
:103280000E94781F8111FCCFCF911F910F91FF9069
:10329000EF90089580EB9BE408951F93CF93DF9305
:1032A0008091B04B882359F1E0E0F8E0848180649C
:1032B00084838091B04B811116C019C00E94F71E03
:1032C0008823E1F3C055D44B88810E94FD1E1F5F07
:1032D000C12FD0E0FE01E055F44B8081882339F006
:1032E0001F3F61F704C0C0E0D0E010E0E7CF0E94CC
:1032F000F71E8823E1F30E940B1F8111FCCFDF91A1
:10330000CF911F910895EF92FF920F931F93CF9348
:10331000FC012081222349F17C01E0E0F8E0848176
:1033200080648483F7018081811114C016C00E94DB
:10333000F71E8823E1F3F80180810E94FD1ECF5F14
:1033400087010C0F111DF8019081992331F0CF3FB7
:1033500071F703C08701C0E0EACF0E94F71E8823FF
:10336000E1F30E940B1F8111FCCFCF911F910F91B0
:10337000FF90EF900895EF92FF920F931F93CF93DA
:10338000DF93FC012081222389F1D62F7C01E0E02C
:10339000F8E0848180648483F7018081811114C006
:1033A00016C00E94F71E8823E1F3F80180810E9475
:1033B000FD1ECF5F87010C0F111DF801908199232D
:1033C00031F0CF3F71F703C08701C0E0EACF0E9420
:1033D000F71E8823E1F38D2F0E94FD1E0E94F71E29
:1033E0008823E1F30E940B1F8111FCCFDF91CF9165
:1033F0001F910F91FF90EF9008950E94411D84E06E
:103400008093650408958093AE4D9093AF4D0895D9
:1034100081E090912C40911180E00895CF930E941B
:10342000CE1B882381F184E997E40E9412190E943F
:10343000E118C82F0E94DE186C2F0E945C1C0E94AD
:10344000E31884E09BE40E9412198EEA97E40E943C
:103450002E1C81111AC085EB97E40E942E1C81114D
:1034600016C088EB97E40E942E1C811112C080ECDC
:1034700097E40E942E1C81110EC08CEC97E40E94F0
:10348000121980E009C080E007C081E005C084E037
:1034900003C083E001C082E0CF910895CF930E94E2
:1034A000DF1B882329F188EF97E40E9412190E94FC
:1034B000E118C82F0E94DE186C2F0E945C1C0E942D
:1034C000E31884E09BE40E941219E091AE4DF09164
:1034D000AF4D3097F9F00995882329F080E198E401
:1034E0000E94831917C08BE198E40E94831912C0CF
:1034F00087E298E40E9412190E94E118C82F0E94E6
:10350000DE186C2F0E945C1C0E94E31884E09BE490
:103510000E941219CF910895CF93A8958AE398E459
:103520000E9483198EE398E40E94121984E690E0C9
:103530000E94751DC82F882329F08DE690E40E9413
:10354000121904C08AE590E40E9412198C2FCF91C1
:1035500008956DE08EE598E40E94BB190E94271D36
:1035600008951F93CF93DF93EC01162FA89586E65D
:1035700098E40E941219CE010E9412198BE798E478
:103580000E9412196DE0CE010E94BB1962E678E438
:10359000812F90E00E94461D882329F08DE690E45B
:1035A0000E94121904C08AE590E40E941219DF916A
:1035B000CF911F91089580E898E40E941219A89570
:1035C0000E948C1A811104C00E94A91A80E00895FB
:1035D0006FEF8EEA98E40E94B11A6FEF84EB98E4E3
:1035E0000E94B11A60E080EC98E40E94B11A81E078
:1035F00008950E940E1A90912C40933059F128F4AE
:10360000913041F0923081F00895953089F19630F3
:10361000A9F108958130A9F50E94DB1A882389F168
:1036200082E080932C400895813049F462E384EC79
:1036300098E40E94B11A83E080932C40089583306F
:1036400001F569E186EC98E40E94B11A85E0809367
:103650002C400895823021F485E080932C40089519
:10366000833079F469E186EC98E40E94B11A0895F8
:10367000843039F483E080932C40089583E0809374
:103680002C400895A89506C00E944E1A0E94F91A6F
:103690000E94361C0E94C81B8823B1F3089581E064
:1036A00090912C40953009F080E008950E94831994
:1036B00008950E944A19089580912C40853011F494
:1036C0000E944D1908959FE9980F9A3108F480528D
:1036D0000895CF93DF939091B64D992359F190912E
:1036E000BC4D981721F08D3011F08A3099F4E0919B
:1036F000BA4DF0E0E354F24B10821092B64D809137
:10370000B84D8F5F8093B84D8091BA4D8F5F809395
:10371000BA4D3BC08032C9F1C091BA4DD0E00E9491
:10372000631BC354D24B88838091BA4D8F5F8093C3
:10373000BA4D2BC0982F9B7F913289F4E091BA4DFE
:10374000F0E0E354F24B80839091BA4D9F5F9093E9
:10375000BA4D8093BC4D81E08093B64D16C08D303C
:1037600021F491E09093B74D05C08E3319F491E0A8
:103770009093B54DE091BB4DF0E0E252F24B808367
:103780008091BB4D8F5F8093BB4DDF91CF910895AA
:103790009091B84D81E0911180E008958091B84DED
:1037A000882359F0E091B94DF0E0E354F24B908159
:1037B00081E0953219F080E0089580E008958091CD
:1037C000B84D882359F0E091B94DF0E0E354F24B45
:1037D000908181E0913219F080E0089580E00895B1
:1037E0001092B84D1092B94D1092BA4D0895DC0167
:1037F0008C91882369F18091B84D882361F1909173
:10380000B94D9F5F40E018C0F901E354F24B2081AD
:10381000FD01E40FF11D308132130CC04F5FFD013B
:10382000E40FF11D8081811106C0892F90E083543F
:10383000924B089540E09F5F2FEF290F30E0F90190
:10384000E354F24B50815111DFCF80E090E00895B6
:1038500080E090E0089580E090E008950E94F71BDA
:1038600021E0892B09F420E0822F08958091B84D42
:10387000882309F18091B84D81508093B84D809193
:10388000B84D811103C00E94F01B08958091B94D7D
:103890008F5F8093B94DE091B94DF0E0E354F24B66
:1038A00080818D3041F0E091B94DF0E0E354F24B6E
:1038B0008081813259F708950F931F93CF938C0124
:1038C000662381F18091B84D882361F15091B94D03
:1038D000252F30E0F901E354F24B80818823B9F0C1
:1038E000F801762F750F952FD901A354B24B2C9167
:1038F00021939F5FC92FC51B971779F0292F30E0BF
:10390000D901A354B24B4C914111EECF01C0C0E09C
:10391000F801EC0FF11D108205C0060F111DF80112
:1039200031971082CF911F910F910895DC01809102
:10393000B84D8823B1F16623B1F19091B94D292F8B
:1039400030E0F901E354F24B8081882371F140E0CB
:1039500070E0F901E354F24B50815C3261F077235F
:1039600059F0F901E354F24B8081FD01E40FF11DA0
:1039700080834F5F01C071E09F5F292F30E0F90124
:10398000E354F24B5081552311F0461710F377237F
:1039900071F0461301C04150A40FB11D1C9281E08B
:1039A000089580E0089580E0089580E0089580E023
:1039B0000895E1EBFDE413821282118210820895D2
:1039C0000E94D91C1092B74D2091B04D822F90E0EB
:1039D000FC01E252F24B30813D3071F13091BB4D30
:1039E000231751F1E1EBFDE4718150812F5F03C09A
:1039F000262F752F542FFC01E252F24B4081822F6B
:103A000090E0FC01E252F24B30813D3041F4E1EBB9
:103A1000FDE45183728340832093B04D0DC03091FB
:103A2000BB4D61E0620F3213E3CFE1EBFDE4518364
:103A3000728340832093B04DFC01E252F24B20810F
:103A40002D3021F4FC01E252F24B108208950E94C5
:103A5000D91C80E090E0FC01E252F24B108201960A
:103A6000811521E09207B9F71092BA4D1092BB4D23
:103A70001092B04D1092B74D1092B64D1092B54DB8
:103A800008951092BD4E0E94271D0895CF92DF9297
:103A9000EF92FF920F931F93CF937C016B0100E095
:103AA00010E0C091B74DCC2361F00E94E01CB6013C
:103AB00081EB9DE40E94C523C1E0892B69F4C0E03D
:103AC0000BC00E94C506811104C00E94C9060F5F89
:103AD0001F4F0E151F0528F38C2FCF911F910F91AB
:103AE000FF90EF90DF90CF900895EF92FF920F93A9
:103AF0001F93CF937C0100E010E0C091B54DCC2323
:103B000019F01092B54D0BC00E94C506811104C07A
:103B10000E94C9060F5F1F4F0E151F0570F38C2FF3
:103B2000CF911F910F91FF90EF900895811110C0D8
:103B30006AE789E590E00E94362660E07FE08AE54A
:103B400090E00E94562680E09FE00E9408070895BA
:103B50008AE590E00E9431260E9408070895CF93DD
:103B6000C82F89E590E00E942226C11106C08A373D
:103B700021F481E00E94961D03C080E00E94961D02
:103B8000CF910895CF93DF93EC010E940807BE0107
:103B90008AE590E00E945626C13481E0D80720F0E3
:103BA000CE018054914002C080E090E00E94A616B1
:103BB000DF91CF910895FF920F931F93CF93DF93DF
:103BC000CDB7DEB76097CDBFDEBF88EC98E40E942A
:103BD0002E1C182F8823B1F060E1CE0101960E94BF
:103BE000961C082F8CEC98E40E941219002321F0F7
:103BF00089810E949E16B9C082EE98E40E94121933
:103C000010E0B3C08DE099E40E942E1C082F882399
:103C1000C9F060E1CE0101960E94961CF82E82E167
:103C200099E40E941219FF2041F0CE0101960E94F2
:103C3000D3220E948518102F98C089E299E40E942F
:103C4000121993C085E599E40E942E1C182F882331
:103C5000C9F060E1CE0101960E94961CF82E8AE51B
:103C600099E40E941219FF2039F0CE0101960E94BA
:103C7000D3220E942C1879C081E799E40E9412197E
:103C8000102F73C08DE999E40E942E1C882369F1DE
:103C900082EA99E40E94121989EB99E40E942E1C91
:103CA000182F882329F080E093E00E94C21D5DC098
:103CB0008EEB99E40E942E1C182F882329F080E0B7
:103CC0009FE00E94C21D51C083EC99E40E942E1C0B
:103CD000182F882329F080E09EE10E94C21D45C074
:103CE00088EC99E40E94121940C089EF99E40E947F
:103CF0002E1C811106C08EEF99E40E942E1C882391
:103D000031F083E09AE40E94561B11E02EC087EE4A
:103D10009AE40E942E1C182F882349F08EEE9AE414
:103D20000E94561B0E947B110E942A171EC087E02A
:103D30009BE40E942E1C182F882319F00E94A70FC5
:103D400014C08DE09BE40E942E1C182F882369F07C
:103D500080E00E94AA0F80E00E94081680E00E9486
:103D6000961D83E19BE40E94561B812F6096CDBF78
:103D7000DEBFDF91CF911F910F91FF9008951092B8
:103D8000DF4E1092E04EE0E0F8E081E0838780E8CB
:103D9000858383E087838BE890E080879187168214
:103DA0000895A0E0B4E090E115969C931597E0EE9D
:103DB000F5E082818C7F828382818160828311968B
:103DC0009C93119780E212968C930895E0E0F8E0BE
:103DD0008681806486830895E0E0F8E086818068CB
:103DE000868308958093DF4E9093E04E08958091EE
:103DF000040885FB882780F90895CF93C82F0E9477
:103E0000F71E882331F0E0E0F8E094819064948319
:103E1000C283CF9108958091040886FB882780F99A
:103E200091E0892708951F920F920FB60F921124E7
:103E30000BB60F922F933F934F935F936F937F93A4
:103E40008F939F93AF93BF93EF93FF93809100085D
:103E5000E091DF4EF091E04E309709F00995109215
:103E6000DE4EFF91EF91BF91AF919F918F917F9126
:103E70006F915F914F913F912F910F900BBE0F90DB
:103E80000FBE0F901F9018951092E24E1092E34EC5
:103E9000E0E4F8E081E0838780E9858383E087833D
:103EA0008BE890E08087918716820895E0EAF4E03D
:103EB00081E08583818382E082830895E0E4F8E0F5
:103EC00086818064868308958091440885FB8827D5
:103ED00080F90895CF93C82F0E94641F882331F082
:103EE000E0E4F8E0948190649483C283CF910895D4
:103EF0008091440886FB882780F991E089270895FE
:103F00001F920F920FB60F9211240BB60F922F93A0
:103F10003F934F935F936F937F938F939F93AF9351
:103F2000BF93EF93FF9380914008E091E24EF091B0
:103F3000E34E309709F009951092E14EFF91EF9111
:103F4000BF91AF919F918F917F916F915F914F91B1
:103F50003F912F910F900BBE0F900FBE0F901F90AF
:103F600018955058BB27AA270E94C91F0C944321BB
:103F70000E94352138F00E943C2120F039F49F3F07
:103F800019F426F40C9432210EF4E095E7FB0C941E
:103F90002C21E92F0E94542158F3BA1762077307A6
:103FA0008407950720F079F4A6F50C9476210EF499
:103FB000E0950B2EBA2FA02D0B01B90190010C0139
:103FC000CA01A0011124FF27591B99F0593F50F451
:103FD000503E68F11A16F040A22F232F342F4427A9
:103FE000585FF3CF469537952795A795F0405395A1
:103FF000C9F77EF41F16BA0B620B730B840BBAF071
:104000009150A1F0FF0FBB1F661F771F881FC2F7DB
:104010000EC0BA0F621F731F841F48F487957795EF
:104020006795B795F7959E3F08F0B0CF9395880FA9
:1040300008F09927EE0F9795879508950E9408211B
:1040400008F481E008950E9437200C9443210E94D7
:104050003C2158F00E94352140F029F45F3F29F0BF
:104060000C942C2151110C9477210C9432210E9434
:10407000542168F39923B1F3552391F3951B550B04
:10408000BB27AA2762177307840738F09F5F5F4F2B
:10409000220F331F441FAA1FA9F335D00E2E3AF06A
:1040A000E0E832D091505040E695001CCAF72BD082
:1040B000FE2F29D0660F771F881FBB1F26173707D3
:1040C0004807AB07B0E809F0BB0B802DBF01FF2705
:1040D00093585F4F3AF09E3F510578F00C942C2195
:1040E0000C9477215F3FE4F3983ED4F3869577955F
:1040F0006795B795F7959F5FC9F7880F911D9695BE
:10410000879597F90895E1E0660F771F881FBB1F19
:10411000621773078407BA0720F0621B730B840BC6
:10412000BA0BEE1F88F7E09508950E949C206894D2
:10413000B1110C94772108950E945C2188F09F575B
:1041400098F0B92F9927B751B0F0E1F0660F771FBB
:10415000881F991F1AF0BA95C9F714C0B13091F0B1
:104160000E947621B1E008950C947621672F782F74
:104170008827B85F39F0B93FCCF386957795679576
:10418000B395D9F73EF490958095709561957F4FE2
:104190008F4F9F4F0895E89409C097FB3EF4909588
:1041A0008095709561957F4F8F4F9F4F9923A9F010
:1041B000F92F96E9BB279395F6958795779567959F
:1041C000B795F111F8CFFAF4BB0F11F460FF1BC0E3
:1041D0006F5F7F4F8F4F9F4F16C0882311F096E976
:1041E00011C0772321F09EE8872F762F05C0662324
:1041F00071F096E8862F70E060E02AF09A95660FDD
:10420000771F881FDAF7880F9695879597F9089595
:10421000990F0008550FAA0BE0E8FEEF16161706D7
:10422000E807F907C0F012161306E407F50798F03F
:10423000621B730B840B950B39F40A2661F0232B58
:10424000242B252B21F408950A2609F4A140A695D4
:104250008FEF811D811D089597F99F6780E870E0B9
:1042600060E008959FEF80EC089500240A941616EC
:10427000170618060906089500240A941216130654
:10428000140605060895092E0394000C11F48823E2
:1042900052F0BB0F40F4BF2B11F460FF04C06F5FFE
:1042A0007F4F8F4F9F4F089557FD9058440F551FD4
:1042B00059F05F3F71F04795880F97FB991F61F0A8
:1042C0009F3F79F087950895121613061406551F1F
:1042D000F2CF4695F1DF08C0161617061806991F8B
:1042E000F1CF86957105610508940895E894BB2780
:1042F00066277727CB0197F908950E94082108F4D3
:104300008FEF08950E9495210C9443210E9435213E
:1043100038F00E943C2120F0952311F00C942C21C0
:104320000C94322111240C9477210E94542170F3B3
:10433000959FC1F3950F50E0551F629FF001729F4A
:10434000BB27F00DB11D639FAA27F00DB11DAA1F59
:10435000649F6627B00DA11D661F829F2227B00DA6
:10436000A11D621F739FB00DA11D621F839FA00D31
:10437000611D221F749F3327A00D611D231F849F81
:10438000600D211D822F762F6A2F11249F575040D8
:104390009AF0F1F088234AF0EE0FFF1FBB1F661F53
:1043A000771F881F91505040A9F79E3F510580F01C
:1043B0000C942C210C9477215F3FE4F3983ED4F3C6
:1043C000869577956795B795F795E7959F5FC1F7C0
:1043D000FE2B880F911D9695879597F908950E9459
:1043E0005C21E8F09E37E8F09639B8F49E3848F43E
:1043F000672F782F8827985FF9CF869577956795EF
:1044000093959539D0F3B62FB1706B0F711D811D47
:1044100020F487957795679593950C9459220C9481
:1044200074220C94772119F416F40C9432210C9414
:1044300074220E945C21B8F39923C9F3B6F39F5705
:10444000550B87FF0E9482220024A0E640EA9001DB
:1044500080585695979528F4805C660F771F881FC3
:1044600020F026173707480730F4621B730B840BC4
:10447000202931294A2BA695179407942025312508
:104480004A2758F7660F771F881F20F0261737072F
:10449000480730F4620B730B840B200D311D411D56
:1044A000A09581F7B901842F9158880F969587952B
:1044B0000895882371F4772321F09850872B762F65
:1044C00007C0662311F499270DC09051862B70E028
:1044D00060E02AF09A95660F771F881FDAF7880F39
:1044E0009695879597F908959F3F31F0915020F464
:1044F000879577956795B795880F911D96958795C0
:1045000097F9089591505040660F771F881FD2F792
:104510000895052E97FB1EF400940E94A02257FDDB
:1045200007D00E94B12207FC03D04EF40C94A022C5
:1045300050954095309521953F4F4F4F5F4F0895CF
:1045400090958095709561957F4F8F4F9F4F0895FF
:10455000EE0FFF1F0024001C0BBE0790F691E02D0C
:104560000994A1E21A2EAA1BBB1BFD010DC0AA1FB4
:10457000BB1FEE1FFF1FA217B307E407F50720F0CC
:10458000A21BB30BE40BF50B661F771F881F991F47
:104590001A9469F760957095809590959B01AC0190
:1045A000BD01CF010895662777270C94A2242830F7
:1045B00008F027E03327DA01990F311D87FD91605C
:1045C00000966105710539F432602E5F3D9330E34A
:1045D0002A95E1F708959F3F30F080387105610515
:1045E00009F03C5F3C5F3D93913008F08068911D7D
:1045F000DF93CF931F930F93FF92EF92192F987F22
:104600009695E92F96959695E90FFF27EE5DFE4F5B
:1046100099273327EE24FF24A701E701059008948A
:10462000079428F4360FE71EF81E491F511D660F28
:10463000771F881F991F0694A1F70590079428F407
:10464000E70EF81E491F561FC11D770F881F991FBF
:10465000661F0694A1F70590079428F4F80E491FE9
:10466000561FC71FD11D880F991F661F771F0694FD
:10467000A1F70590079420F4490F561FC71FD81FB4
:10468000990F661F771F881F0694A9F784911095CC
:10469000177041F0D695C79557954795F794E794CD
:1046A0001A95C1F7E8ECF0E06894159015913591F2
:1046B0006591959105907FE27395E118F10A430B9E
:1046C000560BC90BD009C0F7E10CF11E431F561F52
:1046D000C91FD01D7EF4703311F48A95E6CFE8949B
:1046E000015030F0080F0AF40027021708F4202FB9
:1046F0002395022F7A3328F079E37D932A95E9F701
:1047000010C07D932A9589F60694979567953795FD
:1047100017951794E118F10A430B560BC90BD009F2
:1047200098F023957E9173957A3308F070E37C932B
:104730002013B8F77E9170617D9330F0839571E31B
:104740007D9370E32A95E1F71124EF90FF900F918C
:104750001F91CF91DF91992787FD90950895FC01D6
:104760000590615070400110D8F7809590958E0F9C
:104770009F1F0895FC016150704001900110D8F70F
:10478000809590958E0F9F1F0895FB0151915523A1
:10479000A9F0BF01DC014D9145174111E1F759F432
:1047A000CD010190002049F04D9140154111C9F310
:1047B000FB014111EFCF81E090E0019708950F9345
:1047C0001F93CF93DF93FB01238121FD03C08FEF64
:1047D0009FEF2CC022FF16C046815781248135816E
:1047E0004217530744F4A081B1819D012F5F3F4FD1
:1047F000208331838C93268137812F5F3F4F26831F
:10480000378314C08B01EC01FB010084F185E02D9E
:104810000995892BE1F6D80116968D919C911797F1
:10482000019616968D939C931797CE01DF91CF91A9
:104830001F910F9108950F931F93CF93DF93CDB7DF
:10484000DEB72E97CDBFDEBF0D891E8986E08C8333
:1048500009831A838FEF9FE78D839E83AE01475EA6
:104860005F4F6F89788DCE0101960E942001EF8104
:10487000F885E00FF11F10822E96CDBFDEBFDF91CD
:10488000CF911F910F910895FA01AA27283051F175
:10489000203181F1E8946F936E7F6E5F7F4F8F4F71
:1048A0009F4FAF4FB1E03ED0B4E03CD0670F781FD0
:1048B000891F9A1FA11D680F791F8A1F911DA11DB5
:1048C0006A0F711D811D911DA11D20D009F46894EE
:1048D0003F912AE0269F11243019305D3193DEF696
:1048E000CF010895462F4770405D4193B3E00FD04C
:1048F000C9F7F6CF462F4F70405D4A3318F0495D37
:1049000031FD4052419302D0A9F7EACFB4E0A69519
:104910009795879577956795BA95C9F7009761053B
:10492000710508959B01AC010A2E06945795479591
:1049300037952795BA95C9F7620F731F841F951F86
:10494000A01D08958F929F92AF92BF92CF92DF9257
:10495000EF92FF920F931F93CF93DF93EC016B01C4
:104960006115710519F0FB01808391837E01FFEFD2
:10497000EF1AFF0A0881802F90E00E94FE25892B04
:1049800011F0E701F3CF0D3239F47E0182E0E80E39
:10499000F11C098111E008C00B3229F47E0192E07C
:1049A000E90EF11C098110E0E701219743E050E096
:1049B0006AEC71E0CE010E940726892BC1F4239690
:1049C00045E050E065EC71E0CE010E940726892B9E
:1049D00009F42596C114D10419F0F601C083D183DE
:1049E0001111F6C060E070E080E89FE7FAC043E094
:1049F00050E062EC71E0CE010E940726892B59F449
:104A0000C114D10409F4E9C0F2E0EF0EF11CF60183
:104A1000E082F182E2C020E030E0A901C0E0D0E015
:104A2000F70160EDA62EA00E89E08A1530F1912FD6
:104A30009260B92E812F887012FF04C0811124C0AA
:104A4000219622C081112197A5E0B0E00E945B264B
:104A5000DC01CB01880F991FAA1FBB1F9C01AD0170
:104A60002A0D311D411D511D283989E93807480794
:104A700089E1580748F0166006C09EEFA9120AC0E7
:104A800013FD40C01860B12E8FEFE81AF80A0081BC
:104A90001B2DC6CF802F8F7D8534A1F580818D326F
:104AA00011F4106106C08B3221F0319661E070E0A4
:104AB00004C08181329662E070E080538A3018F041
:104AC000E61BF70B1FC060E070E060389CE07907E0
:104AD0005CF4DB01AA0FBB1FAA0FBB1F6A0F7B1F71
:104AE000660F771F680F711D3196DF0111978C914A
:104AF00080538A3050F314FF03C07195619571099A
:104B0000C60FD71F11FF08C0C114D10429F0CF016F
:104B10000197F60180839183CA01B9010E94CB20DD
:104B2000212F2370233019F04B015C0106C04B018B
:104B30005C01B7FAB094B7F8B09420E030E0A90176
:104B4000C501B4010E941E20882309F43EC0D7FF8E
:104B500006C0D195C195D10901EE11E002C009EF5F
:104B600011E06801F8E1CF1AD10890E2E92EF12CAA
:104B7000CE15DF0574F0F8012591359145915491DA
:104B8000C501B4010E9482214B015C01CE19DF09ED
:104B9000EFCF04501109F594E7940C151D0541F76A
:104BA0008A2D880F8B2D881F8F3F49F020E030E041
:104BB000A901C501B4010E941E20811106C082E234
:104BC00090E08093E44E9093E54EC501B40109C096
:104BD00060E070E080E89FEF04C060E070E080EC8F
:104BE0009FE7DF91CF911F910F91FF90EF90DF90A2
:104BF000CF90BF90AF909F908F90089591110C949B
:104C00001F26803219F089508550C8F70895FB019E
:104C1000DC014150504088F08D9181341CF08B357F
:104C20000CF4805E659161341CF06B350CF4605EB1
:104C3000861B611171F3990B0895881BFCCF99278E
:104C40008827089503D0808199270895FC01E050BA
:104C5000FC4E08950E942626608171818281938195
:104C600008950E942626808191810895262FAF9372
:104C7000BF93E0E0F0E1328131FDFDCF3DE934BF8B
:104C800033E13083DC01A050BC4E2C933DE934BFAE
:104C900020E020830196BF91AF910895242F0E94B8
:104CA0003726252F0E9437260C9456260E9436263A
:104CB000272F0C9437260E946626A59F900DB49F3F
:104CC000900DA49F800D911D11240895A29FB00105
:104CD000B39FC001A39F700D811D1124911DB29F30
:0E4CE000700D811D1124911D0895F894FFCFD1
:104CEE000000C8410000C841010101064B064B639C
:104CFE0043064B9443064BD4431E44064B71440665
:104D0E004B064B4300002041CDCC004201496E6959
:104D1E007469616C697A696E67204D4C583930330D
:104D2E003932204D61676E65746F6D6574657220E2
:104D3E0053656E736F722E2E2E004641494C4544BC
:104D4E000D0A0043414C204241440D0A004F4B0DC9
:104D5E000A005B4552524F525D20416C61726D20CC
:104D6E00436F6D70617265204661696C65640D0AF2
:104D7E00004D6178204D61676E69747564652053CE
:104D8E007472656E6774683A20256C752C204372B8
:104D9E0061636B6564205468726573686F6C643A06
:104DAE0020256C752C2043757272656E74205661C9
:104DBE006C756520256C750D0A00416C61726D2055
:104DCE004241440A00416C61726D204F4B0A005BF8
:104DDE004552525D204661696C656420746F206394
:104DEE0068616E6765204D4C583930333932206F0B
:104DFE007065726174696E67206D6F64652E0D0A41
:104E0E0000426567696E6E696E67206F70656E2011
:104E1E0077696E646F772063616C69627261746921
:104E2E006F6E2E0D0A005A65726F696E6720436FA2
:104E3E006D706C6574652E20585F6F6666203D2020
:104E4E0025642C20595F6F6666203D2025642C203A
:104E5E005A5F6F66663D2025640D0A0042656769DC
:104E6E006E6E696E6720636C6F7365642077696E12
:104E7E00646F772063616C6962726174696F6E2E04
:104E8E000D0A005363616C696E6720436F6D706C21
:104E9E00657465642E20585F7363616C6520203DD8
:104EAE0020325E25642C20595F7363616C65203D52
:104EBE0020325E25642C205A5F7363616C65203D41
:104ECE0020325E25640D0A005B4552525D2053650B
:104EDE006E736F722076616C7565206973206265E2
:104EEE006C6F77206E6F697365206D617267696E86
:104EFE002C20706C6561736520636C6F7365207414
:104F0E0068652077696E646F7720616E64207072B9
:104F1E006573732074686520627574746F6E207487
:104F2E006F2072657472792E0D0A00426567696E84
:104F3E006E696E672077696E646F7720746872652C
:104F4E0073686F6C642063616C6962726174696FFF
:104F5E006E2E0D0A005B5741524E5D2054687265ED
:104F6E0073686F6C642069732062656C6F77206E56
:104F7E006F697365206D617267696E2E2053656E61
:104F8E00736F72206D6179206E6F74206F70657211
:104F9E0061746520636F72726563746C792E0D0A8D
:104FAE00005468726573686F6C642063616C69622B
:104FBE00726174696F6E20636F6D706C6574652EAF
:104FCE00205468726573686F6C643A20256C750D99
:104FDE000A005B4552524F525D20416C61726D204A
:104FEE0043616C6962726174696F6E204661696CAF
:104FFE0065642C20706C65617365207265747279BE
:10500E002E0D0A0043616C6962726174696F6E20C5
:10501E00436F6D706C657465642E0D0A004D61678B
:10502E006E65746F6D657465722053756363657319
:10503E007366756C6C7920526573746172746564F5
:10504E000D0A004F70656E207468652077696E6476
:10505E006F7720616E64207072657373207468655B
:10506E0020627574746F6E20746F20737461727425
:10507E002E0D0A00506C6561736520636C6F73654D
:10508E00207468652077696E646F7720616E642086
:10509E00746865207072657373207468652062751C
:1050AE0074746F6E20746F20636F6E74696E7565A5
:1050BE002E0D0A00506C65617365206F70656E2051
:1050CE007468652077696E646F7720746F207468DA
:1050DE0065206465736972656420746872657368AF
:1050EE006F6C642C207468656E207072657373200B
:1050FE0074686520627574746F6E2E0D0A005B45C0
:10510E0052525D2057696E646F7720697320746FF9
:10511E006F206F70656E2E20506C65617365206315
:10512E006C6F7365207468652077696E646F772085
:10513E00616E642070726573732074686520627589
:10514E0074746F6E20746F2072657472792E0D0AEE
:10515E0000506C6561736520636C6F7365207468B5
:10516E00652077696E646F7720616E64207072655A
:10517E0073732074686520627574746F6E20746F1B
:10518E002066696E6973682E0D0A00496E6974692E
:10519E00616C697A696E67204D4C583930363332FE
:1051AE002054656D70657261747572652053656EFD
:1051BE00736F722E2E2E000D0A4C6F616465642083
:1051CE0063616368656420636F6E7374616E74737C
:1051DE0020616E642073657474696E67732E2E2E53
:1051EE00000D0A4C6F6164656420636F6E737461A9
:1051FE006E74732066726F6D2073656E736F72209E
:10520E00616E6420726573657420746F20646566C8
:10521E0061756C74732E2E2E004E6577205254439A
:10522E0020436F6D706172653A20307825780D0AD3
:10523E00005B4552525D204661696C656420746F57
:10524E002073746172742074656D7020636F6E7656
:10525E00657273696F6E20696E2054454D505F53B1
:10526E00544152540D0A0053746172746564206E79
:10527E0065772074656D7020636F6E7665727369E5
:10528E006F6E20696E2054454D505F5354415254F9
:10529E000D0A005B4552525D204661696C656420C3
:1052AE00746F206765742074656D7020646174611D
:1052BE002066726F6D204D4C5839303633325F6731
:1052CE006574526573756C747328290D0A005B45FD
:1052DE0052525D204661696C656420746F20636F65
:1052EE006D707574652074656D702066726F6D20BB
:1052FE004D4C5839303633325F636F6D707574654F
:10530E0054656D706572617475726528290D0A0099
:10531E004572726F72202D2054656D7065726174C6
:10532E007572652073656E736F7220636F6D6D7528
:10533E006E69636174696F6E206661696C75726502
:10534E002E205265626F6F74206465766963650DF9
:10535E000A005B5741524E5D20526F6F6D205465AF
:10536E006D706572617475726520486967680D0AA3
:10537E00005B5741524E5D20526F6F6D2054656D2C
:10538E007065726174757265204C6F770D0A005BE3
:10539E005741524E5D20496E76616C696420556EA0
:1053AE0069742053706563696669657220666F72F1
:1053BE002054656D70657261747572653A20005384
:1053CE00656E736F722054656D706572617475725F
:1053DE00653A2025322E316625630D0A526F6F6DA8
:1053EE002054656D70657261747572653A20253250
:1053FE002E316625630D0A005B4552525D205465C1
:10540E006D706572617475726520726573756C74FA
:10541E0073206E6F7420726561647920666F7220DE
:10542E007072696E74696E672E0D0A005254432EA7
:10543E00434D50203D20307825780D0A2C205254B3
:10544E00432E504552203D20307825780D0A0054C9
:10545E00656D706572617475726520726573756CB9
:10546E00747320617265206E6F7420726561647949
:10547E002E0D0A005265636569766564205374616A
:10548E00747573204D6573736167653A20005245DC
:10549E00424F4F5400444953434F4E4E45435400E0
:1054AE0053545245414D5F4F50454E005B4552524D
:1054BE005D20556E61626C6520746F206D61746342
:1054CE006820737472696E6720746F2072657370D2
:1054DE006F6E73652E0D0A0052656365697665649D
:1054EE00205573657220436F6D6D616E643A2000B6
:1054FE003C434D44204F4B3E0D0A003C434D44204F
:10550E004241443E0D0A004E6F6E2D55736572205A
:10551E00436F6D6D616E643A200024242400524E58
:10552E003438373020456E746572696E6720436F6C
:10553E006D6D616E64204D6F64652E2E2E002D2DC7
:10554E002D004B4F4100457865637574696E672079
:10555E00436F6D6D616E643A202200222E2E2E0056
:10556E00426567696E6E696E6720524E3438373009
:10557E0020496E697469616C20506F7765722D5584
:10558E007020436F6E6669672E2E2E0D0A005353E0
:10559E002C343000532D2C4D4348502D4D4C58007B
:1055AE00522C3100430049005354550052756E6E13
:1055BE00696E672053545520436F6D6D616E640D97
:1055CE000A005B4552525D204E6F20706172616D14
:1055DE006574657220666F756E6420696E20535413
:1055EE005520636F6D6D616E642E0D0A0053545716
:1055FE004C0052756E6E696E67205354574C2043A3
:10560E006F6D6D616E640D0A005B4552525D204EEA
:10561E006F20706172616D6574657220666F756E54
:10562E006420696E205354574C20636F6D6D616E0C
:10563E00642E0D0A00535457480052756E6E696EF3
:10564E0067205354574820436F6D6D616E640D0A89
:10565E00005B4552525D204E6F20706172616D6528
:10566E0074657220666F756E6420696E2053545790
:10567E004820636F6D6D616E642E0D0A0053545396
:10568E00520052756E6E696E67205354535220430A
:10569E006F6D6D616E640D0A0046415354004E4F9E
:1056AE00524D00534C4F57005B4552525D20496E90
:1056BE0076616C696420706172616D6574657220CB
:1056CE00666F756E6420696E205354535220636F5B
:1056DE006D6D616E642E0D0A00494E464F004445B5
:1056EE004D4F00536D6172742057696E646F772051
:1056FE0053656375726974792053656E736F72208A
:10570E00616E6420526F6F6D2054656D70657261AD
:10571E0074757265204D6F6E69746F720D0A4465F3
:10572E0076656C6F706564206279204D6963726F67
:10573E006368697020546563686E6F6C6F6779205B
:10574E00496E632E20776974682061737369737470
:10575E00616E63652066726F6D204D656C6578694C
:10576E0073204E2E562E0D0A536F757263652043AD
:10577E006F646520697320617661696C61626C6526
:10578E002061743A206769746875622E636F6D2F9D
:10579E006D6963726F636869702D7069632D6176D0
:1057AE00722D6578616D706C65732F617672313212
:1057BE0038646234382D6D6C7839303339322D6D52
:1057CE00706C61620D0A0053544154555300437579
:1057DE007272656E742053797374656D20537461A3
:1057EE0074653A200D0A00524543414C0052455310
:1057FE0045540053657474696E67732077657265DE
:0A580E002072657365742E0D0A0008
:02000004008278
:090000000800000000C00D000022
:00000001FF
