:100000000C9407010C9426010C9426010C942601F3
:100010000C94E4070C947F080C94B3080C9426010C
:100020000C948A090C9426010C9426010C94260148
:100030000C9426010C9426010C9426010C942601A4
:100040000C9426010C9426010C9426010C94260194
:100050000C9426010C9426010C9426010C94260184
:100060000C94DC090C9426010C9426010C942601B6
:100070000C9426010C9426010C94CE090C942601B4
:100080000C9426010C9426010C9426010C94190A58
:100090000C9426010C9426010C941C050C9426014A
:1000A0000C9426010C9426010C9426010C94260134
:1000B0000C9426010C9498090C940B0A0C942601BC
:1000C0000C9426010C9426010C9426010C94260114
:1000D0000C9426010C94A4070C9426010C94260180
:1000E0000C9426010C9426010C9426010C942601F4
:1000F0000C9426011814371445145614171530158E
:10010000211648165116E716F71605176E616E0090
:10011000696E660000407A10F35A00A0724E18090A
:100120000010A5D4E80000E87648170000E40B545E
:10013000020000CA9A3B000000E1F505000080962D
:100140009800000040420F000000A086010000005F
:10015000102700000000E803000000006400000019
:1001600000000A00000000000100000000002C76E2
:10017000D888DC674F0823DFC1DFAE59E1B1B796FD
:10018000E5E3E453C63AE651997696E8E6C284265A
:10019000EB898C9B62ED407C6FFCEFBC9C9F40F236
:1001A000BAA56FA5F490055A2AF75C936B6CF967B2
:1001B0006DC11BFCE0E40D47FEF520E6B500D0ED77
:1001C000902E0300943577050080841E08000020DF
:1001D0004E0A000000C80C333333330F986E12837D
:1001E0001141EF8D2114893BE65516CFFEE6DB1851
:1001F000D1844B381BF77C1D901DA4BBE424203216
:1002000084725E228100C9F124ECA1E53D2711240E
:100210001FBECFEFCDBFDFE7DEBF15E4A0E0B0E447
:10022000E4EAF0E400E00BBF02C007900D92A63AAA
:10023000B107D9F729E4A6EAB5E401C01D92A333BA
:10024000B207E1F70E94C8110C9450200C940000F2
:100250002F923F924F925F926F927F928F929F92D6
:10026000AF92BF92CF92DF92EF92FF920F931F93C4
:10027000CF93DF93CDB7DEB76097CDBFDEBF7C01F4
:100280001B016A01FC0116821782838181FF44C32E
:100290009E012F5F3F4F3901F7019381F10193FDDB
:1002A000859193FF81911F01882309F431C3853221
:1002B00039F493FD859193FF81911F01853239F4C3
:1002C000B70190E00E948D1F56016501E5CF10E057
:1002D000512C912CFFE1F915D8F08B3279F038F4DC
:1002E000803279F08332A1F4F92DF0612EC08D3285
:1002F00061F0803369F4292D21602DC0392D3260E1
:10030000932E892D8460982E2AC0E92DE86015C0AF
:1003100097FC2DC020ED280F2A3088F496FE06C0E9
:100320003AE0139F200D1124122F19C08AE0589E25
:10033000200D1124522EE92DE0629E2E10C08E3227
:1003400031F496FCE5C2F92DF0649F2E08C08C367E
:1003500021F4292D2068922E02C0883641F4F10143
:1003600093FD859193FF81911F018111B3CF9BEB89
:10037000980F933020F4992D9061805E07C09BE91F
:10038000980F933008F066C1992D9F7E96FF16E076
:100390009F73992E853619F49064992E08C086367D
:1003A00021F4392F3068932E02C01111115097FE9D
:1003B00007C01C3350F444244394410E27E00BC083
:1003C000183038F027E017E005C027E09CE3492EFD
:1003D00002C0212F412C560184E0A80EB11CF60169
:1003E0006081718182819381042DA3010E94851E09
:1003F0006C01F981FC87F0FF02C0F3FF06C091FC9D
:1004000006C092FE06C000E205C00DE203C00BE28A
:1004100001C000E08C858C7019F001115AC29BC29A
:1004200097FE10C04C0CFC85F4FF04C08A81813318
:1004300009F44A94141474F528E0241578F588E03A
:10044000482E2CC096FC2AC0812F90E08C159D056B
:100450009CF03CEFC3163FEFD30674F0892D806803
:10046000982E0AC0E2E0F0E0EC0FFD1FE10FF11D55
:100470008081803319F411501111F4CF97FE0EC012
:1004800044244394410E812F90E0C816D9062CF4E1
:100490001C1904C04424439401C010E097FE06C018
:1004A0001C141D0434F4C601019605C085E090E0DB
:1004B00002C081E090E001110196112331F0212F5B
:1004C00030E02F5F3F4F820F931F252D30E08217C2
:1004D000930714F4581A01C0512C892D897049F4DE
:1004E000552039F0B70180E290E00E948D1F5A94A8
:1004F000F7CF002329F0B701802F90E00E948D1FD5
:1005000093FC09C0552039F0B70180E390E00E94C8
:100510008D1F5A94F7CF97FE4CC04601D7FE02C0FC
:10052000812C912CC60188199909F301E80FF91F54
:10053000ED87FE879601241931092F87388B012F0B
:1005400010E01195019511093FEF8316930629F4E8
:10055000B7018EE290E00E948D1FC814D9044CF0C0
:100560008F8598898815990524F4ED85FE8581810C
:1005700001C080E3F1E08F1A91082D853E852F5F41
:100580003F4F2D873E87801691062CF0B70190E0F3
:100590000E948D1FD9CFC814D90441F49A81963393
:1005A00020F4953319F43C8534FF81E3B70190E0E2
:1005B0004EC08A81813319F09C859F7E9C87B7014C
:1005C00090E00E948D1F111105C094FC18C085E6B3
:1005D00090E017C0B7018EE290E00E948D1F1E5F71
:1005E00082E001E0080FF301E80FF11D8081B701FF
:1005F00090E00E948D1F802F0113F3CFE6CF85E49A
:1006000090E0B7010E948D1FD7FC06C0C114D10431
:1006100041F4EC85E4FF05C0D194C194D1088DE28A
:1006200001C08BE2B70190E00E948D1F80E32AE0B9
:10063000C216D1042CF08F5FFAE0CF1AD108F7CFA1
:10064000B70190E00E948D1FB701C601C0960E94BD
:100650008D1F54C1833631F0833779F0833509F02B
:1006600056C020C0560132E0A30EB11CF6018081B5
:10067000898301E010E0630112C05601F2E0AF0E81
:10068000B11CF601C080D18096FE03C0612F70E0DE
:1006900002C06FEF7FEFC6010E94681F8C01F92D29
:1006A000FF7714C0560122E0A20EB11CF601C080F3
:1006B000D18096FE03C0612F70E002C06FEF7FEF24
:1006C000C6010E945D1F8C01F92DF0689F2EF3FD7D
:1006D0001AC0852D90E008171907A8F4B70180E229
:1006E00090E00E948D1F5A94F4CFF60197FC8591FB
:1006F00097FE81916F01B70190E00E948D1F51100C
:100700005A94015011090115110579F7F7C0843683
:1007100011F0893661F5560197FE09C024E0A20E5A
:10072000B11CF60160817181828193810AC0F2E07F
:10073000AF0EB11CF60160817181072E000C880B91
:10074000990BF92DFF769F2E97FF09C09095809504
:10075000709561957F4F8F4F9F4FF0689F2E2AE0D5
:1007600030E0A3010E94F21FC82EC6183FC0092D19
:10077000853721F40F7E2AE030E01DC0097F8F36D7
:1007800091F018F4883559F0C3C0803719F08837D4
:1007900011F0BEC0006104FF09C0046007C094FEF0
:1007A00008C0066006C028E030E005C020E130E067
:1007B00002C020E132E0560107FF09C084E0A80E24
:1007C000B11CF601608171818281938108C0F2E0E1
:1007D000AF0EB11CF6016081718180E090E0A30151
:1007E0000E94F21FC82EC6180F77902E96FE0BC0DF
:1007F000092D0E7FC11650F494FE0AC092FC08C069
:10080000092D0E7E05C0DC2C092D03C0DC2C01C097
:10081000D12E04FF0DC0FE01EC0DF11D808180334F
:1008200011F4097E09C002FF06C0D394D39404C01A
:10083000802F867809F0D39403FD11C000FF06C015
:100840001C2DD51480F4150D1D190DC0D51458F4A8
:10085000B70180E290E00E948D1FD394F7CFD514AA
:1008600010F45D1801C0512C04FF10C0B70180E3E3
:1008700090E00E948D1F02FF17C001FD03C088E7B2
:1008800090E002C088E590E0B7010CC0802F867828
:1008900059F001FF02C08BE201C080E207FD8DE24A
:1008A000B70190E00E948D1FC11638F4B70180E3B4
:1008B00090E00E948D1F1150F7CFCA94F301EC0D08
:1008C000F11D8081B70190E00E948D1FC110F5CF0E
:1008D00015C0F4E0F51560F584E0581A93FE1FC0CA
:1008E000011127C02C8523FF2AC00CE011E0392D0F
:1008F0003071932EF8018491811124C0552009F4A0
:10090000E4CCB70180E290E00E948D1F5A94F6CFAC
:10091000F7018681978126C08FEF9FEF23C0B70133
:1009200080E290E00E948D1F5A945110F8CFD8CFEA
:10093000512CB701802F90E00E948D1FD3CF00E192
:1009400011E0D5CF91108052B70190E00E948D1F29
:100950000F5F1F4FCFCF23E0251510F483E0BDCFED
:10096000512CC0CF6096CDBFDEBFDF91CF911F91DC
:100970000F91FF90EF90DF90CF90BF90AF909F903E
:100980008F907F906F905F904F903F902F90089541
:100990001092294810922A48E0E4F8E081E0838729
:1009A00080E8858383E087838BE890E08087918768
:1009B00016820895A0EAB4E090E115969C931597ED
:1009C000E0EEF5E082818F7C828382818061828388
:1009D00011969C93119780E212968C930895E0E40F
:1009E000F8E08681806486830895E0E4F8E08681FB
:1009F0008068868308958093294890932A480895B3
:100A00008091440885FB882780F90895CF93C82FEB
:100A10000E940005882331F0E0E4F8E094819064BE
:100A20009483C283CF9108958091440886FB8827E0
:100A300080F991E0892708951F920F920FB60F92C7
:100A400011240BB60F922F933F934F935F936F93A5
:100A50007F938F939F93AF93BF93EF93FF93809177
:100A60004008E0912948F0912A48309709F009950B
:100A7000FF91EF91BF91AF919F918F917F916F9176
:100A80005F914F913F912F910F900BBE0F900FBE32
:100A90000F901F901895809105098C7141F49091E9
:100AA0000509937081E0933019F080E0089581E0AA
:100AB0000895E0E0F9E084E08083118281E08283A0
:100AC0009DEF95839FE0968383830895A0E4B4E02F
:100AD0009CE011969C931197E0EEF5E085818C7F68
:100AE00085838581826085831C969C93089590916F
:100AF000050993709330E1F0880F682B6093070924
:100B0000E0E0F9E0858185FD0AC0858182FD07C0AE
:100B1000858183FD04C085818370833099F70E94AD
:100B20004B05882339F083E08093040980E0089521
:100B300080E0089581E0089520E22093050966236E
:100B4000D1F0A82FB92F90E0E0E0F9E022E0858114
:100B500085FD17C0858182FD07C0858183FD04C0A6
:100B600085818370833099F780858D939F5F6917A6
:100B700011F02483ECCF87E0809304090895248347
:100B8000E6CF80858D939F5F6913F9CFF4CF6623FD
:100B900009F1DC016150262F30E02F5F3F4F280F15
:100BA000391FE0E0F9E09D919087958195FD0AC09D
:100BB000958192FD07C0958193FD04C09581937046
:100BC000933099F7958194FD07C0A217B30759F7A1
:100BD00081E0089581E0089580E008951F93CF9308
:100BE000DF93EB01142F60E00E947705882339F032
:100BF000612FCE010E94C70593E090930409DF9115
:100C0000CF911F9108950F931F93CF938B0161E0B4
:100C10000E947705C82F882321F061E0C8010E9457
:100C20009C058C2FCF911F910F9108950F931F93C7
:100C3000CF93DF938B01D42F61E00E947705C82FFB
:100C4000882321F06D2FC8010E949C058C2FDF9115
:100C5000CF911F910F910895EF92FF920F931F93E1
:100C6000CF93DF931F92CDB7DEB769838A01E22E5F
:100C700060E00E947705F82E882369F161E0CE01DB
:100C800001960E94C705F82E811104C083E080936D
:100C9000040921C0E0E0F9E087818160878381E079
:100CA0008483858185FD0AC0858182FD07C0858199
:100CB00083FD04C085818370833099F70E944B05C2
:100CC000882329F083E080930409F12C04C06E2D61
:100CD000C8010E949C058F2D0F90DF91CF911F912D
:100CE0000F91FF90EF900895809125098C7141F448
:100CF00090912509937081E0933019F080E0089578
:100D000081E00895E0E2F9E084E08083118281E0EF
:100D100082839DEF95839FE0968383830895E0EA25
:100D2000F4E08CE0818398E0938784870895909124
:100D3000250993709330E1F0880F682B60932709A1
:100D4000E0E2F9E0858185FD0AC0858182FD07C06A
:100D5000858183FD04C085818370833099F70E946B
:100D60007406882339F083E08093240980E0089595
:100D700080E0089581E0089520E22093250966230C
:100D8000D1F0A82FB92F90E0E0E2F9E022E08581D0
:100D900085FD17C0858182FD07C0858183FD04C064
:100DA00085818370833099F780858D939F5F691764
:100DB00011F02483ECCF87E08093240908952483E5
:100DC000E6CF80858D939F5F6913F9CFF4CF6623BB
:100DD00009F1DC016150262F30E02F5F3F4F280FD3
:100DE000391FE0E2F9E09D919087958195FD0AC059
:100DF000958192FD07C0958193FD04C09581937004
:100E0000933099F7958194FD07C0A217B30759F75E
:100E100081E0089581E0089580E008951F93CF93C5
:100E2000DF93EB01142F60E00E949706882339F0CE
:100E3000612FCE010E94E70693E090932409DF9191
:100E4000CF911F910895DF92EF92FF920F931F931E
:100E5000CF93DF937B01D42EE90160E00E949706D7
:100E6000182F882361F16D2DC7010E94E706182F06
:100E7000811104C083E08093240921C0E0E2F9E0FD
:100E800087818160878381E08483858185FD0AC0B5
:100E9000858182FD07C0858183FD04C085818370C3
:100EA000833099F70E947406882329F083E08093A9
:100EB000240910E004C0602FCE010E94BC06812FDF
:100EC000DF91CF911F910F91FF90EF90DF900895E8
:100ED0001092294810922A48E0E6F8E081E08387E2
:100EE00080E8858383E087838BE890E08087918723
:100EF00016820895E0E2F4E081E08583818382E058
:100F000082830895E0E6F8E0868180648683089510
:100F10008091640885FB882780F90895CF93C82FB6
:100F20000E948807882331F0E0E6F8E0948190641D
:100F30009483C283CF9108958091640886FB8827AB
:100F400080F991E0892708951F920F920FB60F92B2
:100F500011240BB60F922F933F934F935F936F9390
:100F60007F938F939F93AF93BF93EF93FF93809162
:100F70006008E0912948F0912A48309709F00995D6
:100F8000FF91EF91BF91AF919F918F917F916F9161
:100F90005F914F913F912F910F900BBE0F900FBE1D
:100FA0000F901F9018951092A6451092A74581E0CA
:100FB0008093C00008958093A6459093A745089517
:100FC0008091C200817008951F920F920FB60F9208
:100FD00011240BB60F922F933F934F935F936F9310
:100FE0007F938F939F93AF93BF93EF93FF93E09182
:100FF000A645F091A745309709F00995E0ECF0E09F
:10100000818181608183FF91EF91BF91AF919F9129
:101010008F917F916F915F914F913F912F910F90A1
:101020000BBE0F900FBE0F901F90189583E080931A
:101030005000089581E080933E020E94D3070E94F1
:1010400059050E9466050E9482060E948F060E9432
:10105000C8040E94DA040E9468070E947A070E946E
:10106000F5040E94EF040E9482070E943A080E9441
:1010700051080895E0E0FBE081E0808796E09183ED
:10108000848320EA3FE02487358780830895809118
:10109000070B817008950000000081E0809300023A
:1010A000089510922B4810922C4810922D481092BF
:1010B0002E48E0E4F1E081E08583858B828317820E
:1010C00020E03FE02287338799EB9083828B81E396
:1010D000808B089580932D4890932E480895809199
:1010E0004A0190914B0108959C01E0E4F1E0918167
:1010F00092FDFDCF20934A0130934B0108951F923A
:101100000F920FB60F9211240BB60F922F933F93AD
:101110004F935F936F937F938F939F93AF93BF93FF
:10112000EF93FF9380914301E0912D48F0912E4879
:10113000309709F00995E0E4F1E0838181608383D1
:10114000FF91EF91BF91AF919F918F917F916F919F
:101150005F914F913F912F910F900BBE0F900FBE5B
:101160000F901F9018951F920F920FB60F92112497
:101170000BB60F922F933F934F935F936F937F9391
:101180008F939F93AF93BF93EF93FF93E0912B487F
:10119000F0912C48309709F00995E0E4F1E083895B
:1011A0008160838BFF91EF91BF91AF919F918F9160
:1011B0007F916F915F914F913F912F910F900BBE57
:1011C0000F900FBE0F901F9018951BBEFC0164BFBF
:1011D0004083089540E068ED80E191E00E94E508D9
:1011E000E0E1F1E01282138280E00895089508950D
:1011F00008950F931F93CF93DF9340E054E0FA01DB
:10120000108220E234E088E0F901808380E494E0F9
:10121000FC011082C0E6D4E061E06883A0E8B4E09D
:101220001C9200EA14E0F8011082FA011482F9011C
:101230001482FC0114826C8314961C921497F8019A
:101240001482FA01108A118A128A138A148A158A62
:10125000168A178AF901108A118A48E8428B138A84
:10126000148A158A168A178AFC01108A118A128A32
:10127000138A148A158A168A178A188A198A1A8A6A
:101280001B8A1C8A1D8A1E8A1F8A50961C925097A0
:1012900051961C92519752961C92529753961C92BB
:1012A000539754961C92549755961C925597569660
:1012B0001C92569757961C92F801108A118A128A2E
:1012C000138A148A158A168A178AE0EEF5E01186C9
:1012D000118210821482168217821086658380E143
:1012E00082831382128686EF98E08093AC459093B8
:1012F000AD4587EF98E08093AA459093AB4588EF82
:1013000098E08093A8459093A945DF91CF911F91D4
:101310000F9108951F920F920FB60F9211248F9381
:101320008FEF83B98F910F900FBE0F901F9018957C
:101330001F920F920FB60F9211240BB60F922F939C
:101340003F934F935F936F937F938F939F93AF934D
:10135000BF93EF93FF933A9B05C0E091AC45F091AA
:10136000AD4509953B9B05C0E091AA45F091AB4581
:1013700009958FEF87B9FF91EF91BF91AF919F9141
:101380008F917F916F915F914F913F912F910F902E
:101390000BBE0F900FBE0F901F9018951F920F92CB
:1013A0000FB60F9211248F938FEF8BB98F910F90FF
:1013B0000FBE0F901F9018951F920F920FB60F92AD
:1013C00011240BB60F922F933F934F935F936F931C
:1013D0007F938F939F93AF93BF93EF93FF93789BEC
:1013E00005C0E091A845F091A94509958FEF8FB907
:1013F000FF91EF91BF91AF919F918F917F916F91ED
:101400005F914F913F912F910F900BBE0F900FBEA8
:101410000F901F9018951F920F920FB60F921124E4
:101420008F938FEF83BB8F910F900FBE0F901F9004
:1014300018951F920F920FB60F9211248F938FEF72
:1014400087BB8F910F900FBE0F901F90189540E0B3
:1014500068ED80E690E00E94E50840E068ED81E6F6
:1014600090E00E94E50840E068ED85E690E00E948B
:10147000E50840E068ED88E790E00E94E5084CE070
:1014800068ED88E690E00E94E50840E068ED89E6B6
:1014900090E00E94E50840E068ED80E790E00E945F
:1014A000E50840E068ED8CE790E00E94E50840E048
:1014B00068ED82E690E00E94E50840E068ED83E692
:1014C00090E00E94E50840E068ED84E690E00E942C
:1014D000E50840E068ED80E890E00E94E5080895A6
:1014E0000E94F9080E94270A0E94EA0808950F93B3
:1014F0009B01EEEAF5E490838183042F42E0BF0173
:101500008AE30E9423070F910895CF93DF93C3EBE3
:10151000D5E46881798180E094E10E94D6186A81DF
:101520007B8182E094E10E94D6186C817D8184E009
:1015300094E10E94D6184091F5455091F64560918E
:10154000F7457091F84586E094E10E94E7184091D4
:10155000F1455091F2456091F3457091F4458AE070
:1015600094E10E94E7184091ED455091EE4560915D
:10157000EF457091F0458EE094E10E94E7184091AC
:10158000E9455091EA456091EB457091EC4582E167
:1015900094E10E94E7184091E5455091E64560913D
:1015A000E7457091E84586E194E10E94E718409193
:1015B000E1455091E2456091E3457091E4458AE14F
:1015C00094E10E94E7184091DD455091DE4560911D
:1015D000DF457091E0458EE194E10E94E71840916B
:1015E000D9455091DA456091DB457091DC4582E246
:1015F00094E10E94E7184091D5455091D6456091FD
:10160000D7457091D84586E294E10E94E718409151
:10161000D1455091D2456091D3457091D4458AE22D
:1016200094E10E94E7184091CD455091CE456091DC
:10163000CF457091D0458EE294E10E94E718409129
:10164000C9455091CA456091CB457091CC4582E324
:1016500094E10E94E7184091C5455091C6456091BC
:10166000C7457091C84586E394E10E94E7186881F8
:1016700079818A819B81682779278C819D81682760
:1016800079278AE394E10E94D618DF91CF910895DB
:101690008091F94508950F931F93CF93DF93CDB7B2
:1016A000DEB72697CDBFDEBF8C0146E0BE016F5F7F
:1016B0007F4F85E094E20E94770A8823D9F08981E0
:1016C00090E0982F88272A81822BF80180839183CC
:1016D0008B8190E0982F88272C81822B82839383A3
:1016E0008D8190E0982F88272E81822B848395838B
:1016F00081E001C080E02696CDBFDEBFDF91CF91B3
:101700001F910F9108958F929F92AF92BF92CF92A7
:10171000DF92EF92FF921F93CF93DF9300D0CDB76C
:10172000DEB783EB95E40E944B0B182F882309F456
:10173000DCC080E094E10E9420196C0182E094E119
:101740000E9420195C0184E094E10E9420194C0160
:101750007601EA24FB24E826F9268AE394E10E9434
:10176000201989839A8389819A81E816F90609F0FC
:10177000B5C08091B3459091B445C816D90609F01B
:10178000AFC08091B5459091B645A816B90609F04D
:10179000A9C08091B7459091B8458816990609F07F
:1017A000A3C086E094E10E940D196093F545709303
:1017B000F6458093F7459093F8458AE094E10E94BE
:1017C0000D196093F1457093F2458093F345909322
:1017D000F4458EE094E10E940D196093ED457093FD
:1017E000EE458093EF459093F04582E194E10E94AD
:1017F0000D196093E9457093EA458093EB4590930A
:10180000EC4586E194E10E940D196093E5457093E3
:10181000E6458093E7459093E8458AE194E10E948C
:101820000D196093E1457093E2458093E3459093F1
:10183000E4458EE194E10E940D196093DD457093BB
:10184000DE458093DF459093E04582E294E10E947B
:101850000D196093D9457093DA458093DB459093D9
:10186000DC4586E294E10E940D196093D5457093A2
:10187000D6458093D7459093D8458AE294E10E945B
:101880000D196093D1457093D2458093D3459093C1
:10189000D4458EE294E10E940D196093CD4570937A
:1018A000CE458093CF459093D04582E394E10E944A
:1018B0000D196093C9457093CA458093CB459093A9
:1018C000CC4586E394E10E940D196093C545709361
:1018D000C6458093C7459093C84507C010E005C032
:1018E00010E003C010E001C010E0812F0F900F90B6
:1018F000DF91CF911F91FF90EF90DF90CF90BF903D
:10190000AF909F908F900895CF92DF92EF92FF92C9
:101910001F93CF93DF93CDB7DEB76897CDBFDEBF00
:1019200083EB95E40E944B0B182F882309F41AC20D
:1019300040E1BE016F5F7F4F8CE094E20E94770A26
:10194000882309F40AC22B816C81862F90E0A0E0E5
:10195000B0E0DC0199278827B22B2A81AC01BD01B8
:10196000422B898190E0982F8827A0E0B0E06A019F
:101970007B01C82AD92AEA2AFB2AC701B6010E949C
:10198000A81C20E030E040E85BE30E94341D609337
:10199000F5457093F6458093F7459093F8452F8170
:1019A0006885862F90E0A0E0B0E0DC0199278827C9
:1019B000B22B2E81AC01BD01422B8D8190E0982F7E
:1019C0008827A0E0B0E06A017B01C82AD92AEA2A68
:1019D000FB2AC701B6010E94A81C20E030E040E8C5
:1019E00055E30E94341D6093F1457093F245809356
:1019F000F3459093F4452B856C85862F90E0A0E00D
:101A0000B0E0DC0199278827B22B2A85AC01BD0103
:101A1000422B898590E0982F8827A0E0B0E06A01EA
:101A20007B01C82AD92AEA2AFB2AC701B6010E94EB
:101A3000A81C20E030E040E859E20E94341D609389
:101A4000ED457093EE458093EF459093F0452F85DB
:101A50006889862F90E0A0E0B0E0DC019927882714
:101A6000B22B2E85AC01BD01422B8D8590E0982FC5
:101A70008827A0E0B0E06A017B01C82AD92AEA2AB7
:101A8000FB2AC701B6010E94A81C20E030E040E814
:101A90005BE30E94341D6093E9457093EA458093AF
:101AA000EB459093EC4548E1BE016F5F7F4F84E2C8
:101AB00094E20E94770A882309F451C12B816C813A
:101AC000862F90E0A0E0B0E0DC0199278827B22BB8
:101AD0002A81AC01BD01422B898190E0982F882793
:101AE000A0E0B0E06A017B01C82AD92AEA2AFB2AD1
:101AF000C701B6010E94A81C20E030E040E857E38F
:101B00000E94341D6093E5457093E6458093E74558
:101B10009093E8452F816885862F90E0A0E0B0E0A3
:101B2000DC0199278827B22B2E81AC01BD01422B05
:101B30008D8190E0982F8827A0E0B0E06A017B01BA
:101B4000C82AD92AEA2AFB2AC701B6010E94A81C82
:101B500020E030E040E85BE30E94341D6093E14503
:101B60007093E2458093E3459093E4452B856C8523
:101B7000862F90E0A0E0B0E0DC0199278827B22B07
:101B80002A85AC01BD01422B898590E0982F8827DA
:101B9000A0E0B0E06A017B01C82AD92AEA2AFB2A20
:101BA000C701B6010E94A81C20E030E040E858E2DE
:101BB0000E94341D6093DD457093DE458093DF45C0
:101BC0009093E0452F856889862F90E0A0E0B0E0F3
:101BD000DC0199278827B22B2E85AC01BD01422B51
:101BE0008D8590E0982F8827A0E0B0E06A017B0106
:101BF000C82AD92AEA2AFB2AC701B6010E94A81CD2
:101C000020E030E040E85DE20E94341D6093D94559
:101C10007093DA458093DB459093DC452B896C8982
:101C2000862F90E0A0E0B0E0DC0199278827B22B56
:101C30002A89AC01BD01422B898990E0982F882721
:101C4000A0E0B0E06A017B01C82AD92AEA2AFB2A6F
:101C5000C701B6010E94A81C20E030E040E85DE228
:101C60000E94341D6093D5457093D6458093D74527
:101C70009093D8456D8970E0762F66278E89682B02
:101C8000072E000C880B990B0E94A81C20E030E066
:101C900040E85AE30E94341D6093D1457093D245C9
:101CA0008093D3459093D4456F8970E0762F662753
:101CB000888D682B072E000C880B990B0E94A81C9E
:101CC00020E030E040E85AE30E94341D6093CD45A7
:101CD0007093CE458093CF459093D04544E0BE01AC
:101CE0006F5F7F4F81E894E20E94770A8823C9F1F1
:101CF000698170E0762F66278A81682B072E000C99
:101D0000880B990B0E94A81C20E030E040E858E3C3
:101D10000E94341D6093C9457093CA458093CB459A
:101D20009093CC456B8170E0762F66278C81682B71
:101D3000072E000C880B990B0E94A81C20E030E0B5
:101D400040E85AE30E94341D6093C5457093C64530
:101D50008093C7459093C84505C010E003C010E0CC
:101D600001C010E0812F6896CDBFDEBFDF91CF911B
:101D70001F91FF90EF90DF90CF900895CF93811146
:101D800005C00E94830BC82F811108C00E94840CDB
:101D9000C82F882331F00E94850A03C081E0809318
:101DA000F9458C2FCF9108950F93CF93DF93EB01DB
:101DB000EEEAF5E49083818302E020EB35E442E033
:101DC000BF018AE30E942307882361F0EEEAF5E46D
:101DD000828190E0982F88272381822B88839983A2
:101DE00081E001C080E0DF91CF910F910895BC01A7
:101DF0008FEF9FE30E94D40E0895CF93DF93CDB76A
:101E0000DEB72E97CDBFDEBF42E0BE016F5F7F4FD2
:101E10008FEF9FE30E94770A882309F447C08A81E5
:101E20008C7790E095958795959587958093B245A9
:101E30004CE0BE016D5F7F4F83E090E40E94770A23
:101E40008823B1F1E9EBF5E48B8190E0982F8827A6
:101E50002C81822B808391838D8190E0982F88271D
:101E60002E81822B828393838F8190E0982F882705
:101E70002885822B84839583898590E0982F8827F5
:101E80002A85822B868397838B8590E0982F8827DD
:101E90002C85822B808791878D8590E0982F8827CD
:101EA0002E85822B8287938781E003C080E001C06A
:101EB00080E02E96CDBFDEBFDF91CF910895CF9306
:101EC000DF9300D0CDB7DEB7CE0101960E94F70EAA
:101ED000882319F08981817001C080E00F900F90F4
:101EE000DF91CF910895EEEAF5E4908381837283C8
:101EF000638344E0BF018AE30E940E07089562E015
:101F000078E081E090E30E94730F08954F925F9212
:101F10006F927F928F929F92AF92BF92CF92DF92F9
:101F2000EF92FF92CF93DF93CDB7DEB76197CDBF2E
:101F3000DEBF8091B245823029F08091B245813078
:101F400009F08DC16091C3457091C445072E000C06
:101F5000880B990B0E94A81C4B015C016091BD4548
:101F60007091BE45072E000C880B990B0E94A81C8F
:101F700020E030E040E451E40E94FE1B6B017C0154
:101F80002091D1453091D2454091D3455091D445CF
:101F90000E94341DA50194010E94921B9B01AC017B
:101FA000C701B6010E94FE1B20E030E040E059E48A
:101FB0000E94341D69837A838B839C838091B24510
:101FC0008130A9F4E9EBF5E460817181828193812C
:101FD000680F791F072E000C880B990B0E94A81C14
:101FE00020E030E040E05FE30E94341D14C0E9EBE4
:101FF000F5E46681778180859185680F791F072ECA
:10200000000C880B990B0E94A81C20E030E040E0F7
:102010005FE30E94341D20E030E040E451E40E9480
:10202000FE1B2B013C012091CD453091CE454091C6
:10203000CF455091D045C701B6010E94341DA5017E
:1020400094010E94921B9B01AC01C301B2010E944A
:10205000FE1B20E030E040E059E40E94341D6D8317
:102060007E838F8398872091F5453091F645409186
:10207000F7455091F84569817A818B819C810E9456
:10208000911B4B015C012091F1453091F24540914B
:10209000F3455091F4450E94FE1B2091E945309193
:1020A000EA454091EB455091EC450E94921B2B0173
:1020B0003C01A5019401C501B4010E94341D209189
:1020C000ED453091EE454091EF455091F0450E942D
:1020D000341D9B01AC01C301B2010E94921B2B0174
:1020E0003C016093004070930140809302409093C4
:1020F000034023E333E948E853E40E94921B4B0179
:102100005C012091C9453091CA454091CB45509121
:10211000CC456091DD457091DE458091DF45909121
:10212000E0450E94341D69837A838B839C83809170
:10213000D5459091D645A091D745B091D84589878E
:102140009A87AB87BC8720E030E048EC51E4C301BC
:10215000B2010E94911B2091D9453091DA454091FE
:10216000DB455091DC450E94341D6D877E878F874B
:10217000988BA5019401C501B4010E94341DA501ED
:1021800094010E94341DA50194010E94341D2B016D
:102190003C01C090C545D090C645E090C745F09041
:1021A000C84593E0B0E0A0E0F8ECE1E4998B20E0D2
:1021B00030E048EC51E46B2F7A2F8F2F9E2F0E9436
:1021C000911B29853A854B855C850E94341D20E052
:1021D00030E040E85FE30E94921B2D853E854F85ED
:1021E00058890E94921B29813A814B815C810E940F
:1021F000341D9B01AC016D817E818F8198850E9489
:10220000FE1B4B015C01A3019201C501B4010E94B8
:10221000921B0E94CB1D0E94CB1D23E333E948E8AB
:1022200053E40E94911BA70196010E94911BA9896A
:10223000A150A98BB62FA72FF82FE92F298921119B
:10224000B6CFC62ED72EE82EF92EC0920440D092DB
:102250000540E0920640F092074081E001C080E036
:102260006196CDBFDEBFDF91CF91FF90EF90DF9001
:10227000CF90BF90AF909F908F907F906F905F9026
:102280004F9008956091004070910140809102400C
:1022900090910340089560910440709105408091B1
:1022A00006409091074008950F931F93CF93C82F36
:1022B0008B010E94E007882331F021E0A8016C2FF8
:1022C0008CE00E942C06CF911F910F9108950F93DF
:1022D0001F93CF93DF9300D0CDB7DEB7082F162F13
:1022E0000E94E007882349F009831A8342E0BE0177
:1022F0006F5F7F4F8CE00E94EE050F900F90DF9193
:10230000CF911F910F91089566E081E10E946711BE
:1023100008950E948411882359F065EB85E10E949D
:102320006711882339F06DE284E10E9467110895F6
:1023300080E0089580E00895CF93DF931F92CDB79A
:10234000DEB70E94E007882359F01982BE016F5F53
:102350007F4F8CE00E940306882311F089818170F1
:102360000F90DF91CF910895682F80E10E9467114F
:102370000895CF93DF93EC010E94E007882329F0B2
:1023800048E0BE018CE00E941606DF91CF910895CF
:102390000E94700A0E9416080E941A0880EB9AE1B7
:1023A0000E94FB0481EB98E10E946A0883EE97E1AA
:1023B0000E94DB07C6B1C2FBCC27C0F98C2F0E945C
:1023C00070128C2F0E94FD1778940E948C1AA89589
:1023D0000E9446170E943F1781110E943818889565
:1023E000F6CF99231CF49195819591099C01803831
:1023F000910544F081E0359527958F5F20383105B0
:10240000D4F7089581E008951F93CF93DF931F922F
:10241000CDB7DEB7182F10922446BE016F5F7F4FF5
:102420008BE00E945411882309F450C08EE394E19C
:102430000E942A1911114CC0998189134BC08FE356
:1024400094E10E940D1960931F467093204680937B
:1024500021469093224683E494E10E940D196093F3
:102460001B4670931C4680931D4690931E4687E43E
:1024700094E10E9420198093194690931A4689E4AA
:1024800094E10E94201980931746909318468BE49C
:1024900094E10E94201980931546909316468DE48E
:1024A00094E10E942A1980930A408EE494E10E94EC
:1024B0002A19809309408FE494E10E942A1980939D
:1024C00008408BE08093244681E005C080E003C093
:1024D00080E001C080E00F90DF91CF911F910895BF
:1024E000CF93C82F85E290E40E945F190E94891162
:1024F000811108C082E590E40E945F1982E0809318
:10250000234610C08C2F0E940412811107C08BE556
:1025100090E40E945F191092244604C085E690E47E
:102520000E945F19CF910895DC01FB0111966D9116
:102530007C9112978091194690911A46681B790BED
:1025400000900A4002C0759567950A94E2F760838F
:1025500013962D913C9114978091174690911846AF
:10256000281B390B0090094002C0359527950A9425
:10257000E2F7218315964D915C911697809115464F
:1025800090911646481B590B0090084002C0559583
:1025900047950A94E2F742832202C00111246602A1
:1025A000800D911D11244402800D911D1124A0E085
:1025B000B0E081879287A387B48713821482158243
:1025C00016821782108608958F929F92AF92BF92C3
:1025D000CF92DF92EF92FF920F931F93CF93DF93EF
:1025E000FC01C184D284E384F48480901F469090DF
:1025F0002046A0902146B0902246C814D904EA048F
:10260000FB0470F080911B4690911C46A0911D46E2
:10261000B0911E468C159D05AE05BF0508F059C04A
:10262000C0911B46D0911C4610911D4600911E463C
:102630000E942D19FF92EF92DF92CF92BF92AF923C
:102640009F928F920F931F93DF93CF932AE630E4EC
:102650003F932F939F938F930E94C91F0E9430191D
:1026600084E990E40E945F19809111462DB73EB72E
:10267000205F3F4F2DBF3EBF843641F40AC08150DA
:102680008093114688E08093260406C08F5F809374
:10269000114688E0809325048091FA45843129F021
:1026A000909111469A3089F404C0809111468A3085
:1026B00028F08CEA90E40E94D01904C087EB90E4E3
:1026C0000E94D0191092FA4509C08F5F8093FA4595
:1026D00005C0809111468111D2CFD4CFDF91CF9127
:1026E0001F910F91FF90EF90DF90CF90BF90AF9030
:1026F0009F908F900895CF9362E176E48BE00E94E3
:102700005411C82F882309F448C040911F465091A6
:10271000204660912146709122468FE394E10E9409
:10272000E71840911B4650911C4660911D467091E0
:102730001E4683E494E10E94E71860911946709167
:102740001A4687E494E10E94D6186091174670916A
:10275000184689E494E10E94D6186091154670915C
:1027600016468BE494E10E94D61860910A408DE4ED
:1027700094E10E94C018609109408EE494E10E94A7
:10278000C018609108408FE494E10E94C0186091E5
:1027900012468EE394E10E94C0188C2FCF910895C9
:1027A0004F925F926F927F928F929F92AF92BF9261
:1027B000CF92DF92EF92FF92CF93DF93CDB7DEB748
:1027C0002597CDBFDEBFDC0190911046993130F0E6
:1027D00088E0809327041092104603C09F5F909377
:1027E0001046FB01C184D284E384F48440911B46EB
:1027F00050911C4660911D4670911E464C155D051A
:102800006E057F0540F4C0921B46D0921C46E092B4
:102810001D46F0921E46E09124464E2F50E04C306B
:10282000510508F0F4C2FA01E658FF4F0C945A1E05
:1028300010920F4681E08093244610920B4610922E
:102840000C4610920D4610920E46109207461092BA
:1028500008461092094610920A46109203461092BA
:1028600004461092054610920646E1E0DFC28AE077
:102870000E94B411882321F082E080932446C7C2CD
:1028800081EC90E40E945F19C2C2809114468823B3
:1028900009F4BDC283EF90E40E94D01983E08093D5
:1028A00024461092014610920246B1C28091014620
:1028B000909102469C012F5F3F4F20930146309339
:1028C000024611964D915C911297052E000C660BF5
:1028D000770BC0900B46D0900C46E0900D46F090E0
:1028E0000E46CB01BA016C0D7D1D8E1D9F1D6093A0
:1028F0000B4670930C4680930D4690930E461396AC
:102900008D909C901497092C000CAA08BB08C090CD
:102910000746D0900846E0900946F0900A468C0C95
:102920009D1CAE1CBF1C8092074690920846A09248
:102930000946B0920A461596CD90DC9016970D2C5C
:10294000000CEE08FF08409003465090044660904B
:10295000054670900646C40CD51CE61CF71CC092B8
:102960000346D0920446E0920546F0920646283E81
:10297000334008F44CC20F2EF8EE4F2EF3E05F2EDA
:10298000612C712CF02DA30192010E943B1ECA0103
:10299000B9010E94A81C0E94A11D0E94701C69839D
:1029A0007D836093194670931A46C501B401A30153
:1029B00092010E943B1ECA01B9010E94A81C0E94FC
:1029C000A11D0E94701CB62EA72E6093174670930F
:1029D0001846C701B601A30192010E943B1ECA011D
:1029E000B9010E94A81C0E94A11D0E94701CF62E15
:1029F000E72E60931546709316460E942D19EF92AC
:102A0000FF92AF92BF923D813F9349814F9328E15E
:102A100031E43F932F939F938F930E94C91F0E948D
:102A2000301984E080932446CDBFDEBFF0C1809191
:102A30001446882309F4EBC110921B4610921C46E1
:102A400010921D4610921E468EE491E40E94D01909
:102A500085E0809324461092014610920246D7C129
:102A60008091014690910246FC013196E093014627
:102A7000F093024611964D915C9112972091194660
:102A800030911A46421B530B052E000C660B770B38
:102A9000C0900B46D0900C46E0900D46F0900E464C
:102AA000CB01BA016C0D7D1D8E1D9F1D60930B46E1
:102AB00070930C4680930D4690930E4613968D901E
:102AC0009C9014972091174630911846821A930AC9
:102AD000092C000CAA08BB08C0900746D0900846F5
:102AE000E0900946F0900A468C0C9D1CAE1CBF1C61
:102AF0008092074690920846A0920946B0920A46F4
:102B00001596CD90DC90169720911546309116467B
:102B1000C21AD30A0D2C000CEE08FF0840900346A1
:102B2000509004466090054670900646C40CD51C33
:102B3000E61CF71CC0920346D0920446E09205467C
:102B4000F0920646E83EF34008F461C10F2EF8EE1D
:102B50004F2EF3E05F2E612C712CF02DA30192011A
:102B60000E943B1ECA01B9010E94A81C0E94A11D1F
:102B70000E94701C69837A838B839C8360930B46CD
:102B800070930C4680930D4690930E46C501B40198
:102B9000A30192010E943B1ECA01B9010E94A81C18
:102BA0000E94A11D0E94701C4B015C0160930746AE
:102BB000709308468093094690930A46C701B60170
:102BC000A30192010E943B1ECA01B9010E94A81CE8
:102BD0000E94A11D0E94701C2B013C0160930346C2
:102BE00070930446809305469093064689819A81A6
:102BF0000E94F111F82E80930A40C4010E94F11145
:102C0000E82E80930940C2010E94F111D82E8093D2
:102C100008400E942D191F92DF921F92EF921F927F
:102C2000FF9225E731E43F932F939F938F930E9468
:102C3000C91F0E94301986E080932446CDBFDEBFB5
:102C4000E6C0F9E2CF16D104E104F10440F48AEBC6
:102C500091E40E945F1987E080932446D8C0809158
:102C60001446882309F4D3C08DE192E40E94D01960
:102C700010920146109202461092FD451092FE45B8
:102C80001092FF451092004688E080932446BFC012
:102C900080911446882309F4BAC086E080932446C4
:102CA000B6C080910146909102469C012F5F3F4F34
:102CB00020930146309302464091FD455091FE45D8
:102CC0006091FF4570910046CB01BA016C0D7D1DEE
:102CD0008E1D9F1D6093FD457093FE458093FF45BB
:102CE00090930046283E334008F491C028EE33E02C
:102CF00040E050E00E943B1ECA01B9010E94A81C9E
:102D00000E94A11D0E94771C60931F46709320466D
:102D10008093214690932246683271058105910582
:102D200020F487E492E40E945F1960911F4670913D
:102D3000204680912146909122460E94A61C2DECAF
:102D40003CEC4CE85FE30E94341D0E94A11D0E94F0
:102D5000771CF62EE72ED82EC92E60931F4670934F
:102D60002046809321469093224660911B467091A5
:102D70001C4680911D4690911E460E94A61C2DEC7B
:102D80003CEC4CE85FE30E94341D0E94A11D0E94B0
:102D9000771C60931B4670931C4680931D4690934E
:102DA0001E460E942D19CF92DF92EF92FF9223E9E7
:102DB00032E43F932F939F938F930E94C91F0E94E9
:102DC000301989E080932446CDBFDEBF20C08091BA
:102DD00014468823E1F084EC92E40E94D0198AE042
:102DE00080932446109210460E947B1310C082E00C
:102DF0000E94B411882321F08BE08093244607C001
:102E000081EC90E40E945F1902C010922446209148
:102E10000F46E09124462E1309C08091FB45909106
:102E2000FC458032A3E09A0798F0E22FF0E0EE0F25
:102E3000FF1FE35FFF4B808191810E94D019809139
:102E4000244680930F461092FB451092FC4505C026
:102E500001968093FB459093FC452596CDBFDEBF40
:102E6000DF91CF91FF90EF90DF90CF90BF90AF9028
:102E70009F908F907F906F905F904F90089581E02A
:102E8000909124469B3009F080E00895CF93DF9322
:102E9000CDB7DEB76597CDBFDEBF809113468111F8
:102EA00008C0329B09C081E080931346809314468A
:102EB00003C0329B10921346809123468130E9F083
:102EC00038F0833009F446C0843009F447C05AC052
:102ED000809124468B3021F482E00E94B41103C01B
:102EE0008AE00E94B411882321F081E08093234678
:102EF00064C082E08093234660C00E949C118823B6
:102F000009F45BC0CE010E960E94B9118823E1F04E
:102F1000BE016F5F7F4FCE010E960E94941280918A
:102F200024468B3049F480911446811105C0CE01AE
:102F300001960E94E4120BC0BE016F5F7F4FCE016D
:102F40000E960E94D01303C082E080932346109215
:102F5000144633C084E0809323462FC00E94891119
:102F6000882361F080E00E9404121092234682EED2
:102F700094E080930B4090930C401FC082E08093BC
:102F800023461BC080910B4090910C40823E9440A0
:102F900058F08DED92E40E94D01981E090E080938A
:102FA0000B4090930C4009C080910B4090910C40D5
:102FB000019680930B4090930C406596CDBFDEBF89
:102FC000DF91CF9108950E94E007882341F080911E
:102FD0002346823021F483E08093234608950E94A3
:102FE000E007811109C082E08093234682EE94E0DD
:102FF00080930B4090930C400895CF93C82F81E5A8
:1030000094E40E945F19CC2329F081E00E94BE0E57
:10301000C82F04C080E00E94BE0EC82F0E94480B3B
:10302000882359F08DE794E40E945F198CE394E1C2
:103030000E9420190E9474080BC087EA94E40E9441
:103040005F190E946F08BC018CE394E10E94D618BE
:10305000CC2329F085E690E40E945F1907C082E541
:1030600090E40E945F1985E080932546CF910895F2
:10307000CF92DF92EF92FF920F931F93CF93DF9344
:10308000809125468230C9F030F4882309F460C06D
:10309000813039F056C0833009F1843009F458C0CA
:1030A00050C00E947F0F811104C085E080932546A7
:1030B0004FC082E0809325464BC00E945F0F88235B
:1030C00009F446C00E94FD0E811104C085E0809382
:1030D00025463EC083E0809325463AC088E0809331
:1030E00027040E94860F882341F10E944B11F62E7F
:1030F000E72ED82EC92E0E944211C62FD72F182F87
:10310000092F0E949719CF92DF92EF92FF920F93AF
:103110001F93DF93CF932FED34E43F932F939F932F
:103120008F930E94C91F0E949A19109225468DB74D
:103130009EB70C968DBF9EBF0BC085E08093254641
:1031400007C086E195E40E94D01984E0809325466B
:10315000DF91CF911F910F91FF90EF90DF90CF9073
:10316000089580912546811103C081E08093254612
:1031700080912546843019F485E080932546089592
:103180001F93CF93DF93EC01162F43E16DE980E0AD
:1031900090E10E94E508188340E06DE980E090E14D
:1031A0000E94E508DF91CF911F9108951F93CF935F
:1031B000DF93EC01162F672F0E94C018612FCE01FC
:1031C00001960E94C018DF91CF911F910895CF9270
:1031D000DF92EF92FF92CF93DF93EC016A017B01C4
:1031E0006F2D772788279927CE010E94C0186E2D52
:1031F000CE0101960E94C0186D2DCE0102960E944C
:10320000C0186C2DCE0103960E94C018DF91CF919B
:10321000FF90EF90DF90CF900895FC01AC014C5FE0
:103220005F4F60E070E0CB01B82FA72F962F882763
:103230002191BC01CD01622B4E175F07A9F70895BC
:10324000FC01208130E0322F22278181A901482B07
:10325000CA010895FC018081089585E297E40895EC
:103260001F93CF93DF9380912547882321F1E0E6D8
:10327000F8E0848180648483C0E0D0E010E00E94A4
:1032800088078823E1F3CB5DD84B88810E948E07A5
:103290001F5FC12FD0E0FE01EB5DF84B80818823DA
:1032A00011F01F3F61F70E9488078823E1F30E9415
:1032B0009C078111FCCFDF91CF911F910895EF9270
:1032C000FF920F931F93CF93FC012081222349F19A
:1032D0007C01E0E6F8E0848180648483F7018081EA
:1032E000811114C016C00E9488078823E1F3F801F9
:1032F00080810E948E07CF5F87010C0F111DF8019E
:103300009081992331F0CF3F71F703C08701C0E06E
:10331000EACF0E9488078823E1F30E949C0781116D
:10332000FCCFCF911F910F91FF90EF90089586E20F
:1033300096E408951F93CF93DF93809126468823C8
:1033400059F1E0E4F8E0848180648483809126462A
:10335000811116C019C00E9400058823E1F3CA5DDF
:10336000D94B88810E9406051F5FC12FD0E0FE0166
:10337000EA5DF94B8081882339F01F3F61F704C073
:10338000C0E0D0E010E0E7CF0E9400058823E1F321
:103390000E9414058111FCCFDF91CF911F910895F8
:1033A000EF92FF920F931F93CF93FC012081222372
:1033B00049F17C01E0E4F8E0848180648483F701D2
:1033C0008081811114C016C00E9400058823E1F39A
:1033D000F80180810E940605CF5F87010C0F111D47
:1033E000F8019081992331F0CF3F71F703C0870135
:1033F000C0E0EACF0E9400058823E1F30E94140593
:103400008111FCCFCF911F910F91FF90EF90089504
:10341000EF92FF920F931F93CF93DF93FC012081D4
:10342000222389F1D62F7C01E0E4F8E084818064D6
:103430008483F7018081811114C016C00E940005A9
:103440008823E1F3F80180810E940605CF5F8701A0
:103450000C0F111DF8019081992331F0CF3F71F7C6
:1034600003C08701C0E0EACF0E9400058823E1F392
:103470008D2F0E9406050E9400058823E1F30E941B
:1034800014058111FCCFDF91CF911F910F91FF9017
:10349000EF900895A89581E08093660481E495E417
:1034A0000E94D01984E690E00E94701B08956DE0A0
:1034B00085E495E40E94081A0E94241B81E0809311
:1034C000650408951F93CF93DF93EC01162FA89501
:1034D0008DE495E40E945F19CE010E945F1982E697
:1034E00095E40E945F196DE0CE010E94081A69E41C
:1034F00075E4812F90E00E943F1B882329F085E628
:1035000090E40E945F1904C082E590E40E945F1974
:10351000DF91CF911F91089581E08093650487E644
:1035200095E40E945F190E943C1B80E895E40E948C
:103530005F190E944A1A811107C082E590E40E9437
:103540005F190E94571A089585E690E40E945F195A
:103550006FEF89E995E40E94621A0E94571A089554
:1035600090912648992329F08532F9F41092264843
:103570000895853221F481E08093264808958D30A6
:1035800021F491E09093274805C08E3319F491E01F
:1035900090932548E0912848F0E0ED5CF74B80835C
:1035A000809128488F5F809328480895EFE2F8E4DF
:1035B000138212821182108208950E94D61A1092EC
:1035C000274820912448822F90E0FC01ED5CF74BC6
:1035D00030813D3071F130912848231751F1EFE2ED
:1035E000F8E4718150812F5F03C0262F752F542F6F
:1035F000FC01ED5CF74B4081822F90E0FC01ED5C1B
:10360000F74B30813D3041F4EFE2F8E451837283AF
:103610004083209324480DC03091284861E0620F18
:103620003213E3CFEFE2F8E45183728340832093B7
:103630002448FC01ED5CF74B20812D3021F4FC0186
:10364000ED5CF74B108208950E94D61A80E090E05E
:10365000FC01ED5CF74B10820196811521E0920789
:10366000B9F71092284810922448109227481092D7
:1036700026481092254808950E94241B0895CF9251
:10368000DF92EF92FF920F931F93CF937C016B0118
:1036900000E010E0C0912748CC2371F00E94DD1AB1
:1036A000B6018FE298E40E94731F892B11F000008D
:1036B0000EC00000C0E00BC00E944708811104C08A
:1036C0000E944B080F5F1F4F0E151F0518F38C2F1C
:1036D000CF911F910F91FF90EF90DF90CF900895C1
:1036E000EF92FF920F931F93CF937C0100E010E0C5
:1036F000C0912548CC2319F0109225480BC00E9498
:103700004708811104C00E944B080F5F1F4F0E1520
:103710001F0570F38C2FCF911F910F91FF90EF90A9
:1037200008955058BB27AA270E94A91B0C94FA1C85
:103730000E94EC1C38F00E94F31C20F039F49F3FEB
:1037400019F426F40C94E91C0EF4E095E7FB0C94B4
:10375000E31CE92F0E940B1D58F3BA176207730789
:103760008407950720F079F4A6F50C942D1D0EF42E
:10377000E0950B2EBA2FA02D0B01B90190010C0181
:10378000CA01A0011124FF27591B99F0593F50F499
:10379000503E68F11A16F040A22F232F342F4427F1
:1037A000585FF3CF469537952795A795F0405395E9
:1037B000C9F77EF41F16BA0B620B730B840BBAF0B9
:1037C0009150A1F0FF0FBB1F661F771F881FC2F724
:1037D0000EC0BA0F621F731F841F48F48795779538
:1037E0006795B795F7959E3F08F0B0CF9395880FF2
:1037F00008F09927EE0F9795879508950E94121C5F
:103800000C94FA1C0E94F31C58F00E94EC1C40F02F
:1038100029F45F3F29F00C94E31C51110C942E1DE8
:103820000C94E91C0E940B1D68F39923B1F35523F6
:1038300091F3951B550BBB27AA27621773078407C3
:1038400038F09F5F5F4F220F331F441FAA1FA9F359
:1038500035D00E2E3AF0E0E832D091505040E69547
:10386000001CCAF72BD0FE2F29D0660F771F881FA8
:10387000BB1F261737074807AB07B0E809F0BB0B9B
:10388000802DBF01FF2793585F4F3AF09E3F5105AF
:1038900078F00C94E31C0C942E1D5F3FE4F3983EEB
:1038A000D4F3869577956795B795F7959F5FC9F798
:1038B000880F911D9695879597F90895E1E0660F19
:1038C000771F881FBB1F621773078407BA0720F092
:1038D000621B730B840BBA0BEE1F88F7E0950895FB
:1038E0000E94771C6894B1110C942E1D08950E94BB
:1038F000131D88F09F5798F0B92F9927B751B0F052
:10390000E1F0660F771F881F991F1AF0BA95C9F763
:1039100014C0B13091F00E942D1DB1E008950C94B7
:103920002D1D672F782F8827B85F39F0B93FCCF36A
:10393000869577956795B395D9F73EF490958095E0
:10394000709561957F4F8F4F9F4F0895E89409C000
:1039500097FB3EF490958095709561957F4F8F4FC2
:103960009F4F9923A9F0F92F96E9BB279395F695D8
:10397000879577956795B795F111F8CFFAF4BB0F56
:1039800011F460FF1BC06F5F7F4F8F4F9F4F16C0BA
:10399000882311F096E911C0772321F09EE8872F44
:1039A000762F05C0662371F096E8862F70E060E000
:1039B0002AF09A95660F771F881FDAF7880F969579
:1039C000879597F9089597F99F6780E870E060E020
:1039D00008959FEF80EC089500240A9416161706A8
:1039E00018060906089500240A94121613061406F0
:1039F00005060895092E0394000C11F4882352F053
:103A0000BB0F40F4BF2B11F460FF04C06F5F7F4F0A
:103A10008F4F9F4F089557FD9058440F551F59F0F1
:103A20005F3F71F04795880F97FB991F61F09F3FAB
:103A300079F087950895121613061406551FF2CFD4
:103A40004695F1DF08C0161617061806991FF1CF24
:103A500086957105610508940895E894BB2766274B
:103A60007727CB0197F908950E94471D0C94FA1C03
:103A70000E94EC1C38F00E94F31C20F0952311F0FA
:103A80000C94E31C0C94E91C11240C942E1D0E9430
:103A90000B1D70F3959FC1F3950F50E0551F629F6A
:103AA000F001729FBB27F00DB11D639FAA27F00D97
:103AB000B11DAA1F649F6627B00DA11D661F829FBE
:103AC0002227B00DA11D621F739FB00DA11D621FA3
:103AD000839FA00D611D221F749F3327A00D611DC0
:103AE000231F849F600D211D822F762F6A2F1124A2
:103AF0009F5750409AF0F1F088234AF0EE0FFF1FD5
:103B0000BB1F661F771F881F91505040A9F79E3F2B
:103B1000510580F00C94E31C0C942E1D5F3FE4F3E0
:103B2000983ED4F3869577956795B795F795E79581
:103B30009F5FC1F7FE2B880F911D9695879597F98A
:103B400008950E94131DE8F09E37E8F09639B8F406
:103B50009E3848F4672F782F8827985FF9CF86958D
:103B60007795679593959539D0F3B62FB1706B0F14
:103B7000711D811D20F487957795679593950C9419
:103B80000B1E0C94261E0C942E1D19F416F40C9486
:103B9000E91C0C94261E0E94131DB8F39923C9F347
:103BA000B6F39F57550B87FF0E94341E0024A0E6F2
:103BB00040EA900180585695979528F4805C660FEE
:103BC000771F881F20F026173707480730F4621B3D
:103BD000730B840B202931294A2BA695179407943F
:103BE000202531254A2758F7660F771F881F20F0B8
:103BF00026173707480730F4620B730B840B200D30
:103C0000311D411DA09581F7B901842F9158880F6E
:103C1000969587950895882371F4772321F098501D
:103C2000872B762F07C0662311F499270DC090517A
:103C3000862B70E060E02AF09A95660F771F881F48
:103C4000DAF7880F9695879597F908959F3F31F099
:103C5000915020F4879577956795B795880F911DBA
:103C60009695879597F9089591505040660F771F64
:103C7000881FD2F70895052E97FB1EF400940E942A
:103C8000521E57FD07D00E94631E07FC03D04EF45E
:103C90000C94521E50954095309521953F4F4F4FB3
:103CA0005F4F089590958095709561957F4F8F4FE8
:103CB0009F4F0895EE0FFF1F0024001C0BBE0790BE
:103CC000F691E02D0994A1E21A2EAA1BBB1BFD015F
:103CD0000DC0AA1FBB1FEE1FFF1FA217B307E407EB
:103CE000F50720F0A21BB30BE40BF50B661F771F43
:103CF000881F991F1A9469F7609570958095909523
:103D00009B01AC01BD01CF010895283008F027E0E8
:103D10003327DA01990F311D87FD91600096610507
:103D2000710539F432602E5F3D9330E32A95E1F757
:103D300008959F3F30F080387105610509F03C5FC0
:103D40003C5F3D93913008F08068911DDF93CF93E5
:103D50001F930F93FF92EF92192F987F9695E92F5B
:103D600096959695E90FFF27E259FE4F992733273D
:103D7000EE24FF24A701E70105900894079428F496
:103D8000360FE71EF81E491F511D660F771F881F4B
:103D9000991F0694A1F70590079428F4E70EF81EE2
:103DA000491F561FC11D770F881F991F661F069454
:103DB000A1F70590079428F4F80E491F561FC71F56
:103DC000D11D880F991F661F771F0694A1F70590D4
:103DD000079420F4490F561FC71FD81F990F661F5D
:103DE000771F881F0694A9F784911095177041F0EA
:103DF000D695C79557954795F794E7941A95C1F7C7
:103E0000E4E1F1E0689415901591359165919591F3
:103E100005907FE27395E118F10A430B560BC90B2D
:103E2000D009C0F7E10CF11E431F561FC91FD01D5A
:103E30007EF4703311F48A95E6CFE894015030F0A7
:103E4000080F0AF40027021708F4202F2395022FE9
:103E50007A3328F079E37D932A95E9F710C07D93B2
:103E60002A9589F60694979567953795179517942F
:103E7000E118F10A430B560BC90BD00998F02395B2
:103E80007E9173957A3308F070E37C932013B8F732
:103E90007E9170617D9330F0839571E37D9370E343
:103EA0002A95E1F71124EF90FF900F911F91CF9188
:103EB000DF91992787FD90950895FC010590615049
:103EC00070400110D8F7809590958E0F9F1F089530
:103ED000FC016150704001900110D8F780959095D9
:103EE0008E0F9F1F0895FB0151915523A9F0BF012B
:103EF000DC014D9145174111E1F759F4CD010190D5
:103F0000002049F04D9140154111C9F3FB014111C9
:103F1000EFCF81E090E0019708950F931F93CF9327
:103F2000DF93FB01238121FD03C08FEF9FEF2CC0A6
:103F300022FF16C0468157812481358142175307DD
:103F400044F4A081B1819D012F5F3F4F20833183D5
:103F50008C93268137812F5F3F4F2683378314C090
:103F60008B01EC01FB010084F185E02D0995892B83
:103F7000E1F6D80116968D919C91179701961696A9
:103F80008D939C931797CE01DF91CF911F910F9145
:103F900008950F931F93CF93DF93CDB7DEB72E977E
:103FA000CDBFDEBF0D891E8986E08C8309831A830D
:103FB0008FEF9FE78D839E83AE01475E5F4F6F89D2
:103FC000788DCE0101960E942801EF81F885E00FDF
:103FD000F11F10822E96CDBFDEBFDF91CF911F91D2
:103FE0000F910895FA01AA27283051F1203181F16B
:103FF000E8946F936E7F6E5F7F4F8F4F9F4FAF4FF1
:10400000B1E03ED0B4E03CD0670F781F891F9A1F03
:10401000A11D680F791F8A1F911DA11D6A0F711DB7
:10402000811D911DA11D20D009F468943F912AE0C3
:10403000269F11243019305D3193DEF6CF010895AB
:10404000462F4770405D4193B3E00FD0C9F7F6CFDC
:10405000462F4F70405D4A3318F0495D31FD4052A4
:10406000419302D0A9F7EACFB4E0A695979587953A
:1040700077956795BA95C9F7009761057105089519
:104080009B01AC010A2E06945795479537952795C5
:10409000BA95C9F7620F731F841F951FA01D08955D
:0440A000F894FFCFC2
:1040A4000000C8410000C841010101E2047F457FCE
:1040B4004509437F453A437F457A43C4437F4517C7
:1040C400447F457F45496E697469616C697A696E9C
:1040D40067204D4C583930333932204D61676E6555
:1040E400746F6D657465722053656E736F722E2ED6
:1040F4002E004641494C45440D0A0043414C2042A0
:1041040041440D0A004F4B0D0A004D617820566161
:104114006C75653A20256C752C20437261636B6560
:10412400643A20256C752C20666F756E6420256CAE
:10413400750D0A003C5468726573686F6C642045A1
:10414400786365656465643E202D2000416C61726E
:104154006D204241440A00416C61726D204F4B0A4C
:10416400005B4552525D204661696C656420746F42
:10417400206368616E6765204D4C5839303339329D
:10418400206F7065726174696E67206D6F64652E4F
:104194000D0A00426567696E6E696E67206F70650F
:1041A4006E2077696E646F772063616C69627261F7
:1041B40074696F6E2E0D0A005A65726F696E6720FE
:1041C400436F6D706C6574652E20585F6F66662052
:1041D4003D2025642C20595F6F6666203D202564B0
:1041E4002C205A5F6F66663D2025640D0A004265E7
:1041F40067696E6E696E6720636C6F7365642077A0
:10420400696E646F772063616C6962726174696F4F
:104214006E2E0D0A005363616C696E6720436F6DE7
:10422400706C657465642E20585F7363616C6520DF
:10423400203D20325E25642C20595F7363616C65D8
:10424400203D20325E25642C205A5F7363616C65C7
:10425400203D20325E25640D0A005B4552525D20EC
:1042640053656E736F722076616C75652069732077
:1042740062656C6F77206E6F697365206D6172671C
:10428400696E2C20706C6561736520636C6F736557
:10429400207468652077696E646F7720616E64208E
:1042A40070726573732074686520627574746F6EC0
:1042B40020746F2072657472792E0D0A004265674E
:1042C400696E6E696E672077696E646F77207468B3
:1042D400726573686F6C642063616C696272617487
:1042E400696F6E2E0D0A005B5741524E5D20546873
:1042F400726573686F6C642069732062656C6F7794
:10430400206E6F697365206D617267696E2E20532C
:10431400656E736F72206D6179206E6F74206F709B
:10432400657261746520636F72726563746C792E53
:104334000D0A005468726573686F6C642063616C65
:104344006962726174696F6E20636F6D706C6574FD
:10435400652E205468726573686F6C643A20256C0E
:10436400750D0A0043616C6962726174696F6E2035
:10437400436F6D706C657465642E0D0A004D616742
:104384006E65746F6D657465722053656E736F72BC
:10439400204572726F72202D205265626F6F7420F7
:1043A4004465766963650D0A004F70656E20746814
:1043B400652077696E646F7720616E642070726522
:1043C40073732074686520627574746F6E20746FE3
:1043D4002073746172742E0D0A00506C65617365EC
:1043E40020636C6F7365207468652077696E646FF1
:1043F4007720616E64207468652070726573732021
:1044040074686520627574746F6E20746F20636FB6
:104414006E74696E75652E0D0A00506C6561736566
:10442400206F70656E207468652077696E646F779D
:1044340020746F20746865206465736972656420F4
:104444007468726573686F6C642C207468656E2080
:1044540070726573732074686520627574746F6E0E
:104464002E0D0A005B4552525D2057696E646F77CA
:1044740020697320746F6F206F70656E2E20506CEE
:104484006561736520636C6F73652074686520775C
:10449400696E646F7720616E642070726573732037
:1044A40074686520627574746F6E20746F20726511
:1044B4007472792E0D0A00506C6561736520636C0B
:1044C4006F7365207468652077696E646F77206107
:1044D4006E642070726573732074686520627574ED
:1044E400746F6E20746F2066696E6973682E0D0A8E
:1044F40000496E697469616C697A696E67204D4C14
:104504005839303633322054656D70657261747574
:1045140072652053656E736F722E2E2E000D0A4C39
:104524006F616465642063616368656420636F6EB2
:104534007374616E747320616E642073657474693E
:104544006E67732E2E2E000D0A4C6F616465642015
:10455400636F6E7374616E74732066726F6D207313
:10456400656E736F7220616E64207265736574206A
:10457400746F2064656661756C74732E2E2E0053FF
:10458400656E736F722054656D70657261747572B7
:10459400653A2025322E3266430D0A526F6F6D2024
:1045A40054656D70657261747572653A2025322E9A
:1045B4003266430D0A0054656D70657261747572DC
:1045C400652053656E736F72204572726F72202D71
:1045D400205265626F6F74204465766963650D0AC5
:1045E40000242424002D2D2D004B4F4100457865D7
:1045F400637574696E6720436F6D6D616E643A20F4
:104604002200222E2E2E00496E697469616C697A2B
:10461400696E6720524E343837302E2E2E0D0A0024
:10462400456E746572696E6720436F6D6D616E646B
:10463400204D6F64652E2E2E00532D2C4D43485073
:064644002D4D4C58000052
:02000004008278
:090000000800000000C00D000022
:00000001FF
