:100000000C9496000C94FB1C0C94FB1C0C94FB1C95
:100010000C9450150C94A8120C9480150C94FB1C95
:100020000C94E4190C94FB1C0C94FB1C0C94FB1C0E
:100030000C94FB1C0C94FB1C0C94FB1C0C94FB1CE4
:100040000C94FB1C0C94FB1C0C94FB1C0C94FB1CD4
:100050000C94FB1C0C94FB1C0C94FB1C0C94FB1CC4
:100060000C94E7120C94FB1C0C94FB1C0C94FB1CD2
:100070000C94FB1C0C94FB1C0C944E140C94FB1C59
:100080000C94FB1C0C94FB1C0C94FB1C0C94841413
:100090000C94FB1C0C94FB1C0C94FB1C0C94FB1C84
:1000A0000C94FB1C0C94FB1C0C94FB1C0C94FB1C74
:1000B0000C94FB1C0C94DE110C94F2190C94FB1C98
:1000C0000C94FB1C0C94FB1C0C94FB1C0C94FB1C54
:1000D0000C94FB1C0C94FB1C0C94FB1C0C94FB1C44
:1000E0000C94FB1C0C94FB1C0C94FB1C0C94FB1C34
:1000F0000C94FB1C350756076107F8070D08DC0850
:10010000FE080B098C09AC094000419D80419D41CE
:100110009F003A16419F41A68041A641A70006A133
:1001200041A741A9003A1841A941AC8011241FBE42
:10013000CFEFCDBFDFE7DEBFE8E0F1E041E019C07F
:10014000B791A79137912791079107FD0EC097911D
:100150008791EF01F92FE82F0BBF07900D92A2179F
:10016000B307D9F7FE011BBE04C01D92A217B30747
:10017000E1F7EC32F40721F70E946C0F0C94C000F9
:04018000F894FFCF21
:10018400496E697469616C697A696E67204D4C586F
:100194003930333932204D61676E65746F6D657423
:1001A40065722053656E736F722E2E2E0046414980
:1001B4004C45440D0A0043414C204241440D0A0081
:1001C4004F4B0D0A004D61782056616C75653A20DD
:1001D400256C752C20437261636B65643A20256C31
:1001E400752C20666F756E6420256C750D0A003CB5
:1001F4005468726573686F6C6420457863656564E0
:1002040065643E202D2000416C61726D20424144A2
:100214000D0A00416C61726D204F4B0D0A004F7046
:10022400656E207468652077696E646F7720616EEF
:1002340064207072657373207468652062757474C9
:100244006F6E20746F2073746172742E0D0A0042F5
:100254006567696E6E696E67204F70656E205769B9
:100264006E646F772043616C6962726174696F6E4A
:100274002E0D0A005A65726F696E6720436F6D70A8
:100284006C6574652E20585F6F6666203D2025647A
:100294002C20595F6F6666203D2025642C205A5F10
:1002A4006F66663D2025640D0A00506C65617365B8
:1002B40020636C6F7365207468652077696E646F62
:1002C4007720616E64207468652070726573732092
:1002D40074686520627574746F6E20746F20636F28
:1002E4006E74696E75652E0D0A00426567696E6EDF
:1002F400696E6720436C6F7365642057696E646F21
:10030400772043616C6962726174696F6E2E0D0AA5
:10031400005363616C696E6720436F6D706C657424
:1003240065642E20585F7363616C6520203D203224
:100334005E25642C20595F7363616C65203D203217
:100344005E25642C205A5F7363616C65203D203206
:100354005E25640D0A00506C6561736520637261EB
:10036400636B207468652077696E646F7720746F9F
:10037400207365742074686520616C61726D2074EB
:1003840068726573686F6C642C207468656E207085
:10039400726573732074686520627574746F6E2E51
:1003A4000D0A005B4552525D2053656E736F7220D7
:1003B40076616C75652069732062656C6F77206E59
:1003C4006F697365206D617267696E2C20706C654E
:1003D40061736520636C6F73652074686520776949
:1003E4006E646F7720616E6420707265737320741D
:1003F400686520627574746F6E20746F2072657402
:1004040072792E0D0A00426567696E6E696E672007
:10041400437261636B65642057696E646F77204330
:10042400616C6962726174696F6E2E0D0A005B57AC
:1004340041524E5D205468726573686F6C64206924
:10044400732062656C6F77206E6F697365206D61D0
:100454007267696E2E2053656E736F72206D6179B9
:10046400206E6F74206F70657261746520636F72A3
:10047400726563746C792E0D0A0054687265736832
:100484006F6C642063616C6962726174696F6E2061
:10049400636F6D706C6574652E2054687265736843
:1004A4006F6C643A20256C750D0A00506C6561739D
:1004B4006520636C6F7365207468652077696E646A
:1004C4006F7720616E642070726573732074686541
:1004D40020627574746F6E20746F2066696E697320
:1004E400682E0D0A0043616C6962726174696F6EF3
:1004F40020436F6D706C657465642E0D0A004D6148
:10050400676E65746F6D657465722053656E736F85
:1005140072204572726F72202D205265626F6F7463
:0A052400204465766963650D0A0046
:10052E00496E697469616C697A696E67204D4C58C1
:10053E0039303633322054656D7065726174757260
:10054E00652053656E736F722E2E2E000D0A4C6F42
:10055E00616465642063616368656420636F6E73B4
:10056E0074616E747320616E642073657474696E49
:10057E0067732E2E2E000D0A4C6F61646564206326
:10058E006F6E7374616E74732066726F6D20736517
:10059E006E736F7220616E64207265736574207461
:1005AE006F2064656661756C74732E2E2E004F4B32
:1005BE000D0A004641494C45440D0A0053656E73C1
:1005CE006F722054656D70657261747572653A2034
:1005DE0025322E3266430D0A526F6F6D2054656DB3
:1005EE0070657261747572653A2025322E326643DB
:1005FE000D0A0054656D70657261747572652053D5
:10060E00656E736F72204572726F72202D20526567
:0E061E00626F6F74204465766963650D0A0093
:10062C005253544354524C203D20307825780D0AB7
:10063C0000465553452E574454203D20307825789C
:10064C000D0A005744542E4354524C41203D203047
:10065C007825780D0A5744542E5354415455532041
:09066C003D20307825780D0A00CC
:10067500891BC61A151BB71824173C1C1E1B361CD4
:020685002A1C2D
:10068700991BE41A271BD1184A17541C301B4E1C00
:02069700421C03
:08069900696E66006E616E00DF
:0106A1000157
:1006A2002F923F924F925F926F927F928F929F9280
:1006B200AF92BF92CF92DF92EF92FF920F931F936E
:1006C200CF93DF93CDB7DEB76497CDBFDEBF6C01AA
:1006D2001A01462E5901FC0117821086848181FF7E
:1006E20040C3CE0101968C879D87A0E88A8B9B8BA5
:1006F200AC8BF101542D0E94171C862F662309F43E
:100702002CC3442D91012F5F3F4F4F4F653219F09B
:100712001901442E0BC0F901542F0E94171C862F79
:1007220092E0290E311C411C653249F4B60190E079
:100732000E94DA13AE86BF86AE84BF84DACF10E0A1
:10074200F12C00E00032A0F48B3269F030F48032F8
:1007520059F0833269F400612CC08D3239F0803354
:1007620039F4016026C00260046023C0086021C021
:1007720007FD2AC090ED980F9A3078F406FF06C064
:10078200AAE01A9F900D1124192F13C0EAE0FE9ED1
:10079200900D1124F92E00620CC08E3221F406FD58
:1007A200DCC2006406C08C3611F4006802C08836D0
:1007B20059F4F101542D0E94171C862FFFEF2F1AB6
:1007C2003F0A4F0A6111BECF9BEB980F933018F48A
:1007D2000061805E06C09BE9980F933008F065C106
:1007E2000F7E06FF16E00F73702E853621F4202F40
:1007F2002064722E08C0863621F4802F8068782EFD
:1008020002C01111115077FE07C01C3350F4EE24C0
:10081200E394E10E27E00BC0183038F027E017E030
:1008220005C027E06CE3E62E02C0212FE12CF50182
:100832003496EE87FF87F501608171818281938111
:100842000E2DAE014F5F5F4F0E94A60A5C015980D8
:1008520050FE02C053FE06C071FC06C072FE06C006
:1008620000E205C00DE203C00BE201C000E0852DED
:100872008C7019F001114EC298C277FE0FC0EA0CBB
:1008820054FE04C08A81813309F4EA941E1474F57B
:1008920028E02E1578F538E0E32E2CC076FC2AC02D
:1008A200812F90E08A159B059CF08CEFA8168FEFA4
:1008B200B80674F0972D9068792E0AC0E2E0F0E055
:1008C200EC0FFD1FE10FF11D8081803319F41150EF
:1008D2001111F4CF77FE0EC0EE24E394E10E812FC6
:1008E20090E0A816B9062CF41A1904C0EE24E39479
:1008F20001C010E077FE06C01A141B0434F4C501CF
:10090200019605C085E090E002C081E090E001110F
:100912000196112331F0212F30E02F5F3F4F820FDC
:10092200931F2F2D30E08217930714F4F81A01C099
:10093200F12C872D897041F4FF2031F00E94B21C06
:100942000E94DA13FA94F8CF002329F0B601802F1F
:1009520090E00E94DA1373FC09C0FF2039F0B6015F
:1009620080E390E00E94DA13FA94F7CF77FE49C051
:100972003501B7FE02C0612C712CC5018619970999
:1009820088248394912C8C0E9D1E880E991EF5014D
:10099200EE19F109E88BF98B012F10E01195019501
:1009A2001109FFEF6F167F0629F4B6018EE290E07F
:1009B2000E94DA13A614B70444F08889998986152F
:1009C20097051CF4F401818101C080E3F1E06F1A04
:1009D20071082FEF821A920A601671062CF0B60186
:1009E20090E00E94DA13DDCFA614B70439F49A819D
:1009F200963318F4953311F454FE81E3B60190E076
:100A020051C08A81813319F0952D9F7E592EB601EE
:100A120090E00E94DA13111105C074FC1CC085E637
:100A220090E01BC0B6018EE290E00E94DA1302E071
:100A3200010F82E011E0180FE1E0F0E0EC0FFD1F82
:100A4200E80FF11D8081B60190E00E94DA13812F38
:100A52001013F0CFE2CF85E490E0B6010E94DA13E2
:100A6200B7FC05C0A114B10439F454FE05C0B19419
:100A7200A194B1088DE201C08BE2B60190E00E9420
:100A8200DA1380E3EAE0AE16B1042CF08F5FAAE03D
:100A9200AA1AB108F7CFB60190E00E94DA13B601A4
:100AA200C501C0960E94DA134FC1833631F08337F5
:100AB20091F0833509F051C01EC0C50102968E87A0
:100AC2009F87F501808189836A887B888C88AA2424
:100AD200A394B12C0EC00E940C1B06FF03C0412F31
:100AE20050E002C04FEF5FEF882DB3010E946518FE
:100AF2005C010F770FC00E940C1B06FF03C0412F41
:100B020050E002C04FEF5FEF882DB3010E946518DD
:100B12005C01006803FD1DC08F2D90E0A816B90688
:100B2200C0F40E94B21C0E94DA13FA94F5CFF301CA
:100B3200582D0E94171C862FFFEF6F1A7F0A8F0A0B
:100B4200B60190E00E94DA13F110FA9421E0A21AA1
:100B5200B108A114B10459F7F7C0843611F08936EF
:100B620009F5C50107FF03C00E941E1C07C00296BB
:100B72000E94241C072E000C880B990B0F76E02E86
:100B820097FF05C00E94811BF02FF068EF2E2AE02C
:100B920030E0AE014F5F5F4F0E943110A82E2C85CE
:100BA200A21A42C0853729F40F7EE02E2AE030E0F7
:100BB20025C0902F997FE92E8F36C1F018F4883521
:100BC20079F0CBC0803719F0883721F0C6C0A92F41
:100BD200A061EA2EE4FE0DC0EE2DE460EE2E09C007
:100BE20004FF0AC0F92FF660EF2E06C028E030E0BD
:100BF20005C020E130E002C020E132E0C501E7FE9D
:100C020003C00E941E1C05C002960E94241C80E0A4
:100C120090E0AE014F5F5F4F0E943110A82EFC851D
:100C2200AF1A2E2D2F77E22EE6FE0BC00E2D0E7F71
:100C3200A11650F4E4FE0AC0E2FC08C00E2D0E7E9E
:100C420005C0BA2C0E2D03C0BA2C01C0B12E04FF70
:100C52000DC0FE01EA0DF11D8081803311F4097E81
:100C620009C002FF06C0B394B39404C0802F8678F3
:100C720009F0B39403FD10C000FF06C0BF1480F456
:100C8200FA0C1F2D1B190DC0BF1458F40E94B21C80
:100C92000E94DA13B394F8CFBF1418F4FB1802C001
:100CA2001A2DF12C04FF10C0B60180E390E00E94DF
:100CB200DA1302FF17C001FD03C088E790E002C00B
:100CC20088E590E0B6010CC0802F867859F001FFCC
:100CD20002C08BE201C080E207FD8DE2B60190E026
:100CE2000E94DA13A11638F4B60180E390E00E9464
:100CF200DA131150F7CFAA94E1E0F0E0EC0FFD1FF8
:100D0200EA0DF11D8081B60190E00E94DA13A11074
:100D1200F2CF1AC0F4E0FF1578F584E0F81A73FEFA
:100D220023C001112AC053FE2EC05DE9852E56E074
:100D3200952E50E0A52E072D0071F4015A2D0E9428
:100D4200171C862F611126C0FF2009F4F5CC0E94E2
:100D5200B21C0E94DA13FA94F7CFF60187819085CC
:100D62002BC08FEF9FEF28C00E94B21C0E94DA13A3
:100D7200FA94F110F9CFD5CFF12CB601802F90E083
:100D82000E94DA13D0CF49E9842E46E0942E40E047
:100D9200A42ED1CF01118052B60190E00E94DA1345
:100DA200FFEF8F1A9F0AAF0AC8CF23E02F1510F466
:100DB20083E0B4CFF12CB7CF6496CDBFDEBFDF9115
:100DC200CF911F910F91FF90EF90DF90CF90BF9046
:100DD200AF909F908F907F906F905F904F903F90D9
:040DE2002F900895B1
:100DE6004F925F926F927F928F929F92AF92BF9235
:100DF600CF92DF92EF92FF92CF93DF93CDB7DEB71C
:100E06002597CDBFDEBFDC019091A141993130F02D
:100E160088E0809327041092A14103C09F5F9093BE
:100E2600A141FB01C184D284E384F484E9E6F1E4C0
:100E36000E94A81C4C155D056E057F0530F4E9E699
:100E4600F1E4C082D182E282F382E091AA414E2F80
:100E560050E04A30510508F07EC2FA01E658FF4FCD
:100E66000C946F1B62E272E080E00E94611381E0E5
:100E76008093AA4110926541109266411092674193
:100E86001092684110926141109262411092634142
:100E96001092644110925D4110925E4110925F4142
:100EA6001092604158C20E94DE1C09F454C263E5E8
:100EB60072E080E00E94611382E0A9C00E94B11A2C
:100EC60011966D917C911297AB01770F660B770B9C
:100ED600E5E6F1E4C080D180E280F380CB01BA017F
:100EE6000E94AD1CE5E6F1E40E949E1C13968D90CF
:100EF6009C901497092C000CAA08BB08E1E6F1E4C3
:100F0600C080D180E280F3808C0C9D1CAE1CBF1C7F
:100F1600E1E6F1E480829182A282B3821596CD90B9
:100F2600DC9016970E94D519EDE5F1E4C082D182D6
:100F3600E282F382283E334008F40DC20E94661B0B
:100F46000E941C19CA01B9010E9418140E94DD17DB
:100F56000E94021C69837D8360939B4170939C4130
:100F6600C501B401A30192010E941C19CA01B9016D
:100F76000E9418140E94DD170E94021CB62EA72E8E
:100F86006093994170939A41C701B601A3019201FA
:100F96000E941C19CA01B9010E9418140E94DD178B
:100FA6000E94021CF62EE72E60939741709398419B
:100FB6000E94F51CEF92FF92AF92BF924D814F9324
:100FC600A981AF9328E732E040E04F933F932F93F8
:100FD6009F938F930E9432160E9485166EEA72E0E6
:100FE60080E00E94611383E08FC10E94DE1C09F439
:100FF600B2C11092694110926A4110926B411092EF
:101006006C416EEE72E080E00E94611384E00E9403
:10101600F41BA1C18091954190919641FC013196B6
:10102600E0939541F093964111964D915C911297FC
:1010360020919B4130919C41421B530B052E000C85
:10104600660B770BC0906541D0906641E090674192
:10105600F0906841CB01BA010E94AD1C60936541D6
:1010660070936641809367419093684113968D9083
:101076009C9014972091994130919A41821A930A33
:10108600092C000CAA08BB08C0906141D0906241AF
:10109600E0906341F09064418C0C9D1CAE1CBF1C1B
:1010A6008092614190926241A0926341B092644104
:1010B6001596CD90DC9016972091974130919841E6
:1010C600C21AD30A0E94D519ADE5B1E4CD92DD92DC
:1010D600ED92FC921397E83EF34008F43CC10E945F
:1010E600661B0E941C19CA01B9010E9418140E94AD
:1010F600DD170E94021C69837A838B839C83E5E655
:10110600F1E40E949E1CC501B401A30192010E9454
:101116001C19CA01B9010E9418140E94DD170E9409
:10112600021C4B015C01A1E6B1E40E94F21CC7015E
:10113600B601A30192010E941C19CA01B9010E94BD
:1011460018140E94DD170E94021C2B013C01EDE5DC
:10115600F1E40E949E1C89819A810E94C619F82E8C
:101166008093A841C4010E94C619E82E8093A74126
:10117600C2010E94C619D82E8093A6410E94F51C72
:101186001F92DF921F92EF921F92FF9225E133E0AA
:1011960040E04F933F932F939F938F930E94321675
:1011A6000E9485166AE573E080E00E94611385E07F
:1011B600ABC099E2C916D104E104F10438F467EA38
:1011C60073E080E00E94611386E01FC00E94DE1C6F
:1011D60009F4C1C06AE074E080E00E94611387E010
:1011E6000E94F41B1092594110925A4110925B4191
:1011F60010925C41B0C00E94DE1C09F4ACC06AE5E6
:1012060073E080E00E94611385E08093AA41A3C049
:101216000E94B11AE9E5F1E480819181A281B3814E
:10122600BC01CD010E94AD1CA9E5B1E40E94F21CEF
:10123600283E334008F48FC028EE33E040E050E00B
:101246000E941C19CA01B9010E9418140E94DD17D8
:101256000E94DE15ADE6B1E40E94F21C683271050B
:101266008105910528F462E374E080E00E94611331
:10127600EDE6F1E460817181828193810E9416140A
:101286002DEC3CEC4CE85FE30E94E21C0E94DD176B
:101296000E94DE15F62EE72ED82EC92E60936D41DC
:1012A60070936E4180936F4190937041A9E6B1E4CB
:1012B6006D917D918D919C910E9416142DEC3CECC4
:1012C6004CE85FE30E94E21C0E94DD170E94DE15D7
:1012D600E9E6F1E40E949E1C0E94F51CCF92DF9283
:1012E600EF92FF922EE734E040E04F933F932F9327
:1012F6009F938F930E9432160E9485166FEA74E0C0
:1013060080E00E94611388E08093AA41CDBFDEBFD2
:1013160022C00E94DE1CF9F069EE74E080E00E94B3
:10132600611389E08093AA411092A1412596CDBF11
:10133600DEBFDF91CF91FF90EF90DF90CF90BF900F
:10134600AF909F908F907F906F905F904F900C948E
:1013560091111092AA412596CDBFDEBFDF91CF91A4
:10136600FF90EF90DF90CF90BF90AF909F908F90BF
:0A1376007F906F905F904F900895F4
:10138000CF92DF92EF92FF921F93CF93DF93CDB76F
:10139000DEB76897CDBFDEBF8BE191E40E94BA143F
:1013A000182F882309F4C6C040E10E94DA1C8CE0A3
:1013B00094E20E948118811102C010E0BBC00E941B
:1013C000A61A0E9418140E94941C0E94E21CA5E513
:1013D000B1E40E94451A0E9418140E94D21C55E3E1
:1013E0000E94E21CA1E5B1E40E94521A0E94181466
:1013F0000E94D21C59E20E94E21CADE4B1E40E94BA
:101400005F1A0E9418140E94941C0E94E21CA9E416
:10141000B1E40E94F21C48E10E94DA1C84E294E2EA
:101420000E948118882309F4C8CF0E94A61A0E943E
:1014300018140E94D21C57E30E94E21CA5E4B1E4F8
:101440000E94451A0E9418140E94941C0E94E21CDB
:10145000A1E4B1E40E94521A0E9418140E94D21C06
:1014600058E20E94E21CADE3B1E40E945F1A0E94C0
:1014700018140E94D21C5DE20E94E21CA9E3B1E4B0
:101480000E94F21C2B896C890E945D1B2A890E9494
:10149000D61C89890E941C1A0E9418140E94D21C12
:1014A0005DE20E94E21CA5E3B1E40E94F21C6D899A
:1014B0007E890E94C11B0E9418140E94991C0E94E0
:1014C000E21CE1E3F1E40E949E1C6F89788D0E948A
:1014D000C11B0E9418140E94991C0E94E21CADE2DC
:1014E000B1E40E94F21C44E00E94DA1C81E894E21C
:1014F0000E948118882309F460CF69817A810E9453
:10150000C11B0E9418140E94D21C58E30E94E21CC6
:10151000E9E2F1E40E949E1C6B817C810E94C11B68
:101520000E9418140E94991C0E94E21CA5E2B1E4DA
:101530000E94F21C812F6896CDBFDEBFDF91CF9154
:0C1540001F91FF90EF90DF90CF90089576
:10154C00283008F027E03327DA01990F311D87FD89
:10155C00916000966105710539F432602E5F3D9300
:10156C0030E32A95E1F708959F3F30F080387105FC
:10157C00610509F03C5F3C5F3D93913008F0806859
:10158C00911DDF93CF931F930F93FF92EF92192F1F
:10159C00987F9695E92F96959695E90FFF27EC592C
:1015AC00F24E99273327EE24FF24A701E70105907B
:1015BC000894079428F4360FE71EF81E491F511D96
:1015CC00660F771F881F991F0694A1F70590079443
:1015DC0028F4E70EF81E491F561FC11D770F881FF0
:1015EC00991F661F0694A1F70590079428F4F80E2E
:1015FC00491F561FC71FD11D880F991F661F771FC4
:10160C000694A1F70590079420F4490F561FC71FA5
:10161C00D81F990F661F771F881F0694A9F784910E
:10162C001095177041F0D695C79557954795F79437
:10163C00E7941A95C1F7EAE0FDE1689415901591CD
:10164C0035916591959105907FE273950E94D11B20
:10165C00E0F7E10CF11E431F561FC91FD01D7EF48D
:10166C00703311F48A95EACFE894015030F0080FEA
:10167C000AF40027021708F4202F2395022F7A333F
:10168C0028F079E37D932A95E9F70CC07D932A9590
:10169C00A9F60694979567953795179517940E9418
:1016AC00D11B98F023957E9173957A3308F070E3F3
:1016BC007C932013B8F77E9170617D9330F0839505
:1016CC0071E37D9370E32A95E1F71124EF90FF907D
:1016DC000F911F91CF91DF91992787FD90950895D8
:1016EC008F929F92AF92BF92CF92DF92EF92FF9226
:1016FC001F93CF93DF9300D0CDB7DEB78BE191E48E
:10170C000E94BA14182F811102C010E098C080E01A
:10171C0094E10E9405195C0182E094E10E94051994
:10172C006C0184E094E10E9405194C017501EC24D4
:10173C00FD24E826F9268AE394E10E9405198983A1
:10174C009A8389819A81E816F906F9F6EBE1F1E4BE
:10175C0080819181A816B906C1F682819381C81641
:10176C00D90699F6848195818816990671F686E0DA
:10177C0094E10E94AE16E5E5F1E40E949E1C8AE01D
:10178C0094E10E94AE16A1E5B1E40E94F21C8EE039
:10179C0094E10E94AE16EDE4F1E40E949E1C82E1FD
:1017AC0094E10E94AE16A9E4B1E40E94F21C86E119
:1017BC0094E10E94AE16E5E4F1E40E949E1C8AE1DD
:1017CC0094E10E94AE16A1E4B1E40E94F21C8EE1F9
:1017DC0094E10E94AE16EDE3F1E40E949E1C82E2BD
:1017EC0094E10E94AE16A9E3B1E40E94F21C86E2D9
:1017FC0094E10E94AE16E5E3F1E40E949E1C8AE29D
:10180C0094E10E94AE16A1E3B1E40E94F21C8EE2B8
:10181C0094E10E94AE16EDE2F1E40E949E1C82E37C
:10182C0094E10E94AE16A9E2B1E40E94F21C86E398
:10183C0094E10E94AE16E5E2F1E40E949E1C812F19
:10184C000F900F90DF91CF911F91FF90EF90DF9051
:0C185C00CF90BF90AF909F908F900895A8
:10186800CF93DF9340E054E0FA01108220E234E0A5
:1018780089E0F901808380E494E0FC011082C0E6ED
:10188800D4E061E46883A0E8B4E01C9260EA74E004
:10189800FB011082FA011482F9011482FC011482FE
:1018A8001C8214961C921497FB011482FA010E9460
:1018B800E61BF901108A118A48E8428B138A0E94B4
:1018C800851CFC010E94E61B188A198A1A8A1B8A41
:1018D8001C8A1D8A1E8A1F8A50961C925097519600
:1018E8001C92519752961C92529753961C9253975A
:1018F80054961C92549755961C92559756961C923E
:10190800569757961C92FB01108A118A88E0828BA1
:10191800838B0E94851CE0EEF5E01186118210820F
:10192800148216821782108681E0858380E1828383
:101938001382128682E09DE180938D4190938E41BF
:1019480083E09DE180938B4190938C4184E09DE1FD
:101958008093894190938A4185E09DE180938741F6
:101968009093884186E09DE18093854190938641DC
:1019780087E09DE1809383419093844188E09DE1D5
:10198800809381419093824189E09DE180937F41DA
:10199800909380418AE09DE180937D4190937E41C0
:1019A80081E09DE180937B4190937C4180E09DE1C3
:0E19B8008093794190937A41DF91CF91089509
:1019C6008F929F92AF92BF92CF92DF92EF92FF9249
:1019D6000F931F93CF93DF93FC01C184D284E384DA
:1019E600F484ADE6B1E48D909D90AD90BC90C814A2
:1019F600D904EA04FB0460F0E9E6F1E48081918110
:101A0600A281B3818C159D05AE05BF0508F052C0B5
:101A1600C0916941D0916A4110916B4100916C412E
:101A26000E94F51CFF92EF92DF92CF92BF92AF9287
:101A36009F928F920F931F93DF93CF9329EC31E000
:101A460040E04F933F932F939F938F930E943216BC
:101A56000E94851663EF71E080E00E946113809119
:101A6600A2412DB73EB72F5E3F4F2DBF3EBF8639F1
:101A760019F08F5F8093A24188E0809325048091BE
:101A8600A0419091A241843119F0943679F402C0B4
:101A9600943620F06BE072E080E003C067E172E00C
:101AA60080E00E9461131092A0410FC08F5F809367
:101AB600A0410BC08091A241882319F081508093E8
:101AC600A24188E080932604DACFDF91CF911F915F
:101AD6000F91FF90EF90DF90CF90BF90AF909F90C7
:041AE6008F90089540
:101AEA00CF93DF93CBE1D1E46881798180E094E1FF
:101AFA000E94B6196A817B8182E094E10E94B6193C
:101B0A006C817D8184E094E10E94B619E5E5F1E4F7
:101B1A000E94A81C86E094E10E947017A1E5B1E436
:101B2A000E94A31C8AE094E10E947017EDE4F1E49C
:101B3A000E94A81C8EE094E10E947017A9E4B1E407
:101B4A000E94A31C82E194E10E947017E5E4F1E48B
:101B5A000E94A81C86E194E10E947017A1E4B1E4F6
:101B6A000E94A31C8AE194E10E947017EDE3F1E45C
:101B7A000E94A81C8EE194E10E947017A9E3B1E4C7
:101B8A000E94A31C82E294E10E947017E5E3F1E44B
:101B9A000E94A81C86E294E10E947017A1E3B1E4B6
:101BAA000E94A31C8AE294E10E947017EDE2F1E41C
:101BBA000E94A81C8EE294E10E947017A9E2B1E487
:101BCA000E94A31C82E394E10E947017E5E2F1E40B
:101BDA000E94A81C86E394E10E94701768817981AB
:101BEA008A819B81682779278C819D81682779273B
:0C1BFA008AE394E1DF91CF910C94B619BE
:101C0600CF93DF93CDB7DEB76597CDBFDEBF8091AB
:101C1600A441811108C0329B09C081E08093A44190
:101C26008093A54103C0329B1092A4418091A941A3
:101C3600813069F028F08330A9F18430A9F144C0DD
:101C46008AE00E94CE1C8823D9F181E03AC00E9426
:101C5600B917882309F450C0CE010E960E94451884
:101C66008823D1F00E94DA1CCE010E960E94411103
:101C76008091AA41893049F48091A541811105C01E
:101C8600CE0101960E94E30C0AC00E94DA1CCE0126
:101C96000E960E94F30603C082E08093A94110923B
:101CA600A5412AC084E00DC00E94A619882341F0F0
:101CB60080E00E94D30F1092A94182EE94E018C0F2
:101CC60082E08093A94118C080919D4190919E41E8
:101CD600823E944040F062E075E080E00E9461132D
:101CE60081E090E005C080919D4190919E410196D2
:101CF60080939D4190939E416596CDBFDEBFDF9157
:041D0600CF910895DC
:101D0A0000407A10F35A00A0724E18090010A5D4A8
:101D1A00E80000E87648170000E40B54020000CA05
:101D2A009A3B000000E1F50500008096980000004B
:101D3A0040420F000000A0860100000010270000AA
:101D4A000000E803000000006400000000000A0030
:101D5A00000000000100000000002C76D888DC6733
:101D6A004F0823DFC1DFAE59E1B1B796E5E3E4538B
:101D7A00C63AE651997696E8E6C28426EB898C9BA8
:101D8A0062ED407C6FFCEFBC9C9F40F2BAA56FA548
:101D9A00F490055A2AF75C936B6CF9676DC11BFCCA
:101DAA00E0E40D47FEF520E6B500D0ED902E0300E5
:101DBA00943577050080841E080000204E0A000032
:101DCA0000C80C333333330F986E12831141EF8DF1
:101DDA002114893BE65516CFFEE6DB18D1844B3831
:101DEA001BF77C1D901DA4BBE424203284725E2262
:0A1DFA008100C9F124ECA1E53D27AA
:101E04000FC00E94091C38F00E94101C20F095237A
:101E140011F00C94661C0C94F81C11240C94D91B1E
:101E24000E94011870F3959FC1F3950F50E0551F60
:101E3400629FF001729FBB27F00DB11D639FAA271B
:101E4400F00DB11DAA1F649F6627B00DA11D661F6A
:101E5400829F2227B00DA11D621F739FB00DA11D8B
:101E6400621F839FA00D611D221F749F3327A00D45
:101E7400611D231F849F600D211D822F762F6A2FE1
:101E840011249F5750409AF0F1F088234AF0EE0F46
:101E9400FF1FBB1F661F771F881F91505040A9F773
:101EA4009E3F510580F00C94661C0C94D91B5F3F37
:101EB400E4F3983ED4F3869577956795B795F795AF
:101EC400E7959F5FC1F7FE2B880F911D9695879527
:041ED40097F90895DD
:101ED8000E943319C09140000E94F51C1F92CF93B5
:101EE8002CE236E040E04F933F932F939F938F93DC
:101EF8000E9432160E948516C09150100E94F51C4F
:101F08001F92CF932DE336E040E04F933F932F93FA
:101F18009F938F930E9432160E948516D0910101DB
:101F2800C09100010E94F51C1F92DF931F92CF936E
:101F38002FE436E040E04F933F932F939F938F9386
:101F48000E9432160E9485168FEF8093400081E030
:101F5800809302098093220980936B0880936B0811
:101F680082E08093E50589EC9BE10E948A1C8BEE58
:101F780098E10E947B1CC6B1C2FBCC27C0F98C2F0C
:101F88000E945C168C2F0E94241378948DB79EB7FC
:0E1F980047968DBF9EBF0E94030E8895FCCF1A
:101FA6001F93CF93DF931F92CDB7DEB7182F1092F2
:101FB600AA410E94DA1C8BE00E94B015811102C072
:101FC60080E047C08EE394E10E94E91C1111F8CF2E
:101FD60099818913F5CF8FE394E10E94AE16EDE661
:101FE600F1E40E949E1C83E494E10E94AE16A9E6E9
:101FF600B1E40E94F21C87E494E10E9405198093E3
:102006009B4190939C4189E494E10E940519809339
:10201600994190939A418BE494E10E94051980932B
:102026009741909398418DE494E10E94E91C809336
:10203600A8418EE494E10E94E91C8093A7418FE4B5
:1020460094E10E94E91C8093A64189E08093AA410D
:0C20560081E00F90DF91CF911F91089561
:10206200FA01AA27283051F1203181F1E8946F93C7
:102072006E7F6E5F7F4F8F4F9F4FAF4FB1E03ED06D
:10208200B4E03CD0670F781F891F9A1FA11D680F0B
:10209200791F8A1F911DA11D6A0F711D811D911D3E
:1020A200A11D20D009F468943F912AE0269F1124B3
:1020B2003019305D3193DEF6CF010895462F477017
:1020C200405D4193B3E00FD0C9F7F6CF462F4F7072
:1020D200405D4A3318F0495D31FD4052419302D0D0
:1020E200A9F7EACFB4E0A695979587957795679576
:1020F200BA95C9F700976105710508959B01AC0176
:102102000A2E06945795479537952795BA95C9F79C
:0C211200620F731F841F951FA01D08950D
:10211E008091250982FF0AC086E080930C4183E0FE
:10212E0080930B418091250984602CC080912709F2
:10213E00882349F08091250984FF05C085E08093AE
:10214E000C4181E00CC080912809882371F08091A8
:10215E00250984FF0AC085E080930C4182E08093BC
:10216E000B418091250980610DC08091250983FF67
:10217E000BC086E080930C4183E080930B418091ED
:10218E00250988608093250980910C4190E0880F85
:10219E00991F092E000CAA0B8B58994FAF4FFC01BB
:1021AE005A2F0E94781BFB01099580930C41809158
:1021BE000B41882329F0E0917141F091724109940D
:0221CE00089572
:1021D0008091050982FF0AC086E080931A4183E05E
:1021E000809319418091050984602CC08091070972
:1021F000882349F08091050984FF05C085E080931C
:102200001A4181E00CC080910809882371F0809107
:10221000050984FF0AC085E080931A4182E080931B
:1022200019418091050980610DC08091050983FFE6
:102230000BC086E080931A4183E08093194180911E
:10224000050988608093050980911A4190E0880F04
:10225000991F092E000CAA0B8957994FAF4FFC010B
:102260005A2F0E94781BFB01099580931A41809197
:102270001941882329F0E0917341F0917441099448
:022280000895BF
:10228200DC01FB0111966D917C91129780919B412B
:1022920090919C41681B790B0090A84102C07595F2
:1022A20067950A94E2F7608313962D913C911497F7
:1022B2008091994190919A41281B390B0090A74136
:1022C20002C0359527950A94E2F7218315964D9120
:1022D2005C9116978091974190919841481B590BB8
:1022E2000090A64102C0559547950A94E2F74283B1
:1022F2002202C00111246602800D911D11244402A4
:10230200800D911D1124A0E0B0E081879287A38700
:10231200B48713821482158216821782108608955A
:10232200CF9363EA71E48BE00E94B015C82F882333
:1023320009F440C0EDE6F1E40E94A81C8FE394E1A9
:102342000E947017A9E6B1E40E94A31C83E494E101
:102352000E94701760919B4170919C4187E494E1C7
:102362000E94B6196091994170919A4189E494E171
:102372000E94B61960919741709198418BE494E163
:102382000E94B6196091A8418DE494E10E945F1900
:102392006091A7418EE494E10E945F196091A64189
:1023A2008FE494E10E945F196091A3418EE394E16E
:0A23B2000E945F198C2FCF9108954F
:1023BC001F920F920FB60F9211240BB60F922F9300
:1023CC003F934F935F936F937F938F939F93AF93B1
:1023DC00BF93EF93FF93399B05C0E0918D41F09132
:1023EC008E410995389B05C0E0918B41F0918C4151
:1023FC0009953A9B05C0E0918141F0918241099584
:10240C003B9B05C0E0917D41F0917E4109958FEF9A
:10241C0087B9FF91EF91BF91AF919F918F917F9170
:10242C006F915F914F913F912F910F900BBE0F9039
:08243C000FBE0F901F901895D0
:102444000E946C1A882309F43DC08091250984FFF9
:102454000CC08091250986FF08C08091250982FD62
:1024640004C08091250983FF07C08091250982FD5E
:1024740003C08091250983FD0E948F108091250956
:1024840087FD04C08091250986FF1CC08091250921
:1024940084FD07C08091250982FD03C08091250930
:1024A40083FD0C948F1080910C410E94DF1B8B588C
:1024B400994FAF4FFC015A2F0E94781BFB010995DD
:0624C40080930C41089515
:1024CA000E94781A882309F43DC08091050984FF87
:1024DA000CC08091050986FF08C08091050982FD1C
:1024EA0004C08091050983FF07C08091050982FD18
:1024FA0003C08091050983FD0E94E81080910509B7
:10250A0087FD04C08091050986FF1CC080910509DA
:10251A0084FD07C08091050982FD03C080910509E9
:10252A0083FD0C94E81080911A410E94DF1B8957A1
:10253A00994FAF4FFC015A2F0E94781BFB01099556
:06254A0080931A41089580
:102550001F920F920FB60F9211240BB60F922F936A
:102560003F934F935F936F937F938F939F93AF931B
:10257000BF93EF93FF938091430180FF07C0E091E9
:102580009341F0919441309709F00995809143016E
:1025900081FF07C0E0919141F0919241309709F09D
:1025A000099583E080934301FF91EF91BF91AF9133
:1025B0009F918F917F916F915F914F913F912F915B
:0E25C0000F900BBE0F900FBE0F901F9018953E
:1025CE001F920F920FB60F9211240BB60F922F93EC
:1025DE003F934F935F936F937F938F939F93AF939D
:1025EE00BF93EF93FF937C9B05C0E0917F41F091E9
:1025FE0080410995789B05C0E0917B41F0917C412B
:10260E0009957E9B05C0E0917941F0917A4109953B
:10261E008FEF8FB9FF91EF91BF91AF919F918F91F6
:10262E007F916F915F914F913F912F910F900BBEC4
:0A263E000F900FBE0F901F9018952B
:10264800CF93C82F6EE275E080E00E946113CC231F
:1026580011F081E001C080E00E944919C82F0E9452
:10266800EF1C882361F06AE575E080E00E94611341
:102678008CE394E10E9405190E94541B0CC064E885
:1026880075E080E00E9461130E948F1CBC018CE3FE
:1026980094E10E94B619CC2331F06CEB75E080E030
:1026A800CF910C94611361EC75E080E00E94611396
:0A26B80084E08093AB41CF910895B8
:1026C2006F927F928F92CF92DF92EF92CF93A82F49
:1026D200CB01FC015A2F0E94171C662331F16C01B9
:1026E200EA2E0E94FB1B36018E2C6C0E711C811C83
:1026F200F301582D0E94171C662379F0CF3F69F031
:102702000E945A1C8823E1F3F301582D0E94171CE2
:10271200862F0E94EC1CCF5FE6CF0E945A1C8823B2
:10272200E1F30E94B11B8111FCCFCF91EF90DF90BA
:0A273200CF908F907F906F90089574
:10273C0060E080E690E00E94C61C60E081E690E0DC
:10274C000E94C61C60E085E690E00E94C61C60E01A
:10275C0088E790E00E94C61C6CE088E690E00E943E
:10276C00C61C60E089E690E00E94C61C60E080E731
:10277C0090E00E94C61C60E08CE790E00E94C61CB2
:10278C0060E082E690E00E94C61C60E083E690E088
:10279C000E94C61C60E084E690E00E94C61C60E0CB
:0827AC0080E890E00C94C61CCB
:1027B4000F931F93CF93DF93FB01248121FD03C06B
:1027C4008FEF9FEF2CC022FF16C0478150852581D3
:1027D40036814217530744F4A081B1819D012F5FD4
:1027E4003F4F208331838C93278130852F5F3F4F68
:1027F4002783308714C08B01EC01FB010184F2852F
:10280400E02D0995892BE1F6D80117968D919C91BD
:102814001897019617968D939C931897CE01DF9184
:08282400CF911F910F9108955F
:10282C00E89404C097FB16F40E94811B9923A9F02D
:10283C00F92F96E9BB279395F6958795779567952C
:10284C00B795F111F8CFFAF4BB0F11F460FF1BC070
:10285C006F5F7F4F8F4F9F4F16C0882311F096E903
:10286C0011C0772321F09EE8872F762F05C06623B1
:10287C0071F096E8862F70E060E02AF09A95660F6A
:10288C00771F881FDAF7880F9695879597F9089523
:10289C001F920F920FB60F9211240BB60F922F931B
:1028AC003F934F935F936F937F938F939F93AF93CC
:1028BC00BF93EF93FF935B9B05C0E0918541F09133
:1028CC00864109955A9B05C0E0918341F091844162
:1028DC0009958FEF8BB9FF91EF91BF91AF919F91BC
:1028EC008F917F916F915F914F913F912F910F90AD
:0C28FC000BBE0F900FBE0F901F901895A0
:102908001F920F920FB60F9211240BB60F922F93AE
:102918003F934F935F936F937F938F939F93AF935F
:10292800BF93EF93FF93BB9B05C0E0918941F09162
:102938008A410995BA9B05C0E0918741F091884189
:1029480009958FEF87BBFF91EF91BF91AF919F9151
:102958008F917F916F915F914F913F912F910F9040
:0C2968000BBE0F900FBE0F901F90189533
:102974000F931F93CF93DF93CDB7DEB72697CDBFC9
:10298400DEBF8C0146E00E94DA1C85E094E20E94DE
:1029940081188823C1F089819A81982789279827EB
:1029A400F801808391838B819C81982789279827BC
:1029B400828393838D819E81982789279827848396
:1029C400958381E001C080E02696CDBFDEBFDF9114
:0829D400CF911F910F910895AE
:1029DC00AF92BF92CF92DF92EF92FF920F931F9321
:1029EC00CF93DF935C016B017A01E9010E946C1AB1
:1029FC00811113C0EFEFF0E481E08093FF40A182DE
:102A0C00B28280930A410E94391B10920B410E94A2
:102A1C00151B80930C4181E001C080E0DF91CF91C8
:102A2C001F910F91FF90EF90DF90CF90BF90AF90E0
:022A3C000895FB
:102A3E00AF92BF92CF92DF92EF92FF920F931F93BE
:102A4E00CF93DF935C016B017A01E9010E94781A42
:102A5E00811113C0EDE0F1E481E080930D41A1827C
:102A6E00B282809318410E94391B109219410E9424
:102A7E00271B80931A4181E001C080E0DF91CF9146
:102A8E001F910F91FF90EF90DF90CF90BF90AF907E
:022A9E00089599
:102AA0001F920F920FB60F9211240BB60F922F9315
:102AB0003F934F935F936F937F938F939F93AF93C6
:102AC000BF93EF93FF93E0917541F091764130977A
:102AD00009F0099581E08093C100FF91EF91BF91CA
:102AE000AF919F918F917F916F915F914F913F91A6
:102AF0002F910F900BBE0F900FBE0F901F90189547
:102B00001F920F920FB60F9211240BB60F922F93B4
:102B10003F934F935F936F937F938F939F93AF9365
:102B2000BF93EF93FF93E0918F41F09190413097E5
:102B300009F0099581E080935301FF91EF91BF91D6
:102B4000AF919F918F917F916F915F914F913F9145
:102B50002F910F900BBE0F900FBE0F901F901895E6
:102B6000EF92FF920F931F93CF93DF931F92CDB7F6
:102B7000DEB789837B010E94C21C8823A9F001E093
:102B800010E0970141E00E94ED1B0E941F15882371
:102B900059F00E94781A882319F00E946512F9CF23
:102BA0000E94711C91E0811190E0892F0F90DF91BC
:0C2BB000CF911F910F91FF90EF900895BE
:102BBC000E94091888F09F5798F0B92F9927B751A0
:102BCC00B0F0E1F0660F771F881F991F1AF0BA95C5
:102BDC00C9F714C0B13091F00E94D81BB1E0089530
:102BEC000C94D81B672F782F8827B85F39F0B93F22
:102BFC00CCF3869577956795B395D9F716F40E9423
:042C0C00811B08958B
:102C10000F931F93CF93DF9300D0CDB7DEB7082F6C
:102C2000162F0E94C21C8823A1F009831A8342E058
:102C30000E94ED1B0E94FD16882359F00E94781A0D
:102C4000882319F00E946512F9CF0E94711C91E04F
:102C5000811190E0892F0F900F90DF91CF911F91FC
:042C60000F91089533
:102C64000F931F93CF93DF93CDB7DEB72F97CDBFCD
:102C7400DEBF0E891F8986E08D8309831A838FEF57
:102C84009FE78E839F839E01255E3F4F488D598D1C
:102C94006A8DCE0101960E945103E885F985E00F03
:102CA400F11F10822F96CDBFDEBFDF91CF911F9110
:042CB4000F910895DF
:102CB800CF93C82F64E871E080E00E9461130E94FE
:102CC800A619811109C061EB71E080E00E946113CF
:102CD80082E08093A94113C08C2F0E94D30F8111E9
:102CE80008C06AEB71E080E00E9461131092AA416B
:102CF80006C064EC71E080E0CF910C946113CF9131
:022D080008952C
:102D0A000F931F93CF93809100408823F1F00E9484
:102D1A00FB1B0C2F10E00050104CF8018081882317
:102D2A0061F0CF3F51F00E945A1C8823E1F3F80169
:102D3A0080810E94EC1CCF5FECCF0E945A1C882332
:102D4A00E1F30E94B11B8111FCCFCF911F910F912A
:022D5A000895DA
:102D5C00CF92DF92EF92FF920F931F93CF93DF935B
:102D6C00EC018C010C5F1F4F60E070E0CB01CC24B8
:102D7C00D62EE72EF82ECE010E94E91CA701960153
:102D8C00282BCA01B90121960C171D0781F7DF9179
:102D9C00CF911F910F91FF90EF90DF90CF900895FE
:102DAC00EF92FF920F931F93CF93DF937C018B01D4
:102DBC00EA010E94781A811112C00E94021B07833B
:102DCC001087C187D28713821482158216821092C3
:102DDC0019410E94E41A80931A4181E001C080E0FD
:0E2DEC00DF91CF911F910F91FF90EF9008950E
:102DFA00EF92FF920F931F93CF93DF937C018B0186
:102E0A00EA010E94781A811112C00E94021B0383F0
:102E1A001483C583D6831782108611861286109270
:102E2A0019410E94271B80931A4181E001C080E06A
:0E2E3A00DF91CF911F910F91FF90EF900895BF
:102E48008091084190910941019721F480912409CA
:102E5800846003C0809124098B7F80932409EFEF5D
:102E6800F0E40E94421B39F00E94D01A82608093DD
:102E7800240984E008950E94D01A8460809324096C
:0C2E88000E94301C0E94911B80E0089505
:102E94008091164190911741019721F48091040982
:102EA400846003C0809104098B7F80930409EDE062
:102EB400F1E40E94421B39F00E94EE1A8260809372
:102EC400040984E008950E94EE1A84608093040942
:0C2ED4000E94481C0E94A11B80E0089591
:102EE000CF92DF92EF92FF92CF93DF93EC016A01D2
:102EF0007B01672F772788279927CE010E945F19CA
:102F00006E2DCE0101960E945F196D2DCE010296A5
:102F10000E945F196C2DCE010396DF91CF91FF9037
:0A2F2000EF90DF90CF900C945F1942
:102F2A00E0E4F1E0809141018111FACF8FEF90E066
:102F3A0084879587108611868FEF9EE08287938714
:102F4A001092470181E08093420189EB809340010E
:102F5A00809151018111FCCF81E08093520181E37C
:082F6A008093500180E00895FE
:102F7200CF93DF931F92CDB7DEB70E94C21C882386
:102F8200B9F0198241E00E94ED1B0E94D616811110
:102F920002C080E00DC00E94781A882319F00E94B6
:102FA2006512F9CF0E94711C8111F3CF8981817062
:082FB2000F90DF91CF9108950B
:102FBA000E940918E8F09E37E8F09639B8F49E386E
:102FCA0048F4672F782F8827985FF9CF86957795E9
:102FDA00679593959539D0F3B62FB1706B0F711D24
:102FEA00811D20F487957795679593950C949C1885
:082FFA000C942A1A0C94D91B57
:1030020057FD9058440F551F59F05F3F71F0479597
:10301200880F97FB991F61F09F3F79F0879508957C
:10302200121613061406551FF2CF4695F1DF08C09B
:10303200161617061806991FF1CF869571056105B8
:043042000894089551
:10304600A1E21A2EAA1BBB1BFD010DC0AA1FBB1FA6
:10305600EE1FFF1FA217B307E407F50720F0A21B18
:10306600B30BE40BF50B661F771F881F991F1A9485
:1030760069F760957095809590959B01AC01BD01AF
:04308600CF010895D9
:10308A00CF93DF93EC010E94C21C8823A1F048E091
:10309A0050E0BE018CE090E00E94D616882359F0D9
:1030AA000E94781A882319F00E946512F9CF0E94AB
:1030BA00711C91E0811190E0892FDF91CF910895E1
:1030CA00CF92DF92EF926B01E82E9A01A82FCB01E3
:1030DA002115310531F48C199D09EF90DF90CF90BD
:1030EA000895FC015A2F0E94171C6623A1F301962A
:0830FA00A11D21503109ECCFAA
:103102000F931F939B019093214180932241042F9F
:1031120010E042E050E061E271E48AE390E00E9454
:10312200EE14882321F01F910F910C940E1A80E067
:063132001F910F910895AA
:10313800882371F4772321F09850872B762F07C0C6
:10314800662311F499270DC09051862B70E060E03A
:103158002AF09A95660F771F881FDAF7880F9695D9
:06316800879597F9089518
:10316E00EFEFF0E485819681892B31F00E94381AB9
:10317E008093280983E0089580910A41882321F0E5
:10318E0010920A4181E008950E94301C0E94911B0A
:04319E0080E0089530
:1031A200EDE0F1E485819681892B31F00E94381A95
:1031B2008093080983E0089580911841882321F0C3
:1031C2001092184181E008950E94481C0E94A11BA0
:0431D20080E00895FC
:1031D6000E94C21C882341F08091A941823021F4CB
:1031E60083E08093A94108950E94C21C811109C001
:1031F60082E08093A94182EE94E080939D41909372
:043206009E41089548
:10320A000F931F93CF93DF938C010E94E91CC82F61
:10321A00D0E0DC2FCC27C80101960E94E91C9E0150
:0E322A00282BC901DF91CF911F910F910895BC
:10323800052E97FB1EF400940E94E61C57FD07D04C
:103248000E94231807FC03D04EF40C94E61C5095FA
:0E3258004095309521953F4F4F4F5F4F0895A1
:103266000E94340C0E949E130E94DA1A0E94BC1A15
:103276000E944B1B0E949B1A0E9495170E94001ADF
:0C3286000E9496190E94B91B0C94841A37
:10329200CF93882341F00E94C009C82F882359F098
:1032A2000E94750D08C00E94760BC82F882399F3DF
:0C32B20081E080939F418C2FCF91089504
:1032BE001F93CF93DF93EC01162F43E16DE980E06E
:1032CE0090E10E94801C188340E06DE980E090E15F
:0A32DE00DF91CF911F910C94801C2A
:1032E800F9E0108212828FE0868381E08383158261
:1032F8001782148210868481886084830E94BE1C91
:02330800089526
:10330A00092E0394000C11F4882352F0BB0F40F4E9
:10331A00BF2B11F460FF04C06F5F7F4F8F4F9F4F29
:02332A00089504
:10332C00E0E6F8E08BE890E080879187158280ECEE
:10333C00868383E087831386148616861586089504
:10334C000E94CA1C882351F065EB85E10E94081687
:10335C00882321F06DE284E10C94081680E0089536
:10336C001F93CF93DF93EC01162F672F0E945F19E9
:10337C00612FCE010196DF91CF911F910C945F19B3
:10338C0097FF03C09195819591099C0181E02038AC
:0E339C00310524F0359527958F5FF9CF089500
:1033AA000D2C000CEE08FF08ADE5B1E44D905D90E0
:0E33BA006D907C90C40CD51CE61CF71C089589
:1033C8001F920F920FB60F9211248F938FEF83B92C
:0C33D8008F910F900FBE0F901F90189562
:1033E4001F920F920FB60F9211248F938FEF83BB0E
:0C33F4008F910F900FBE0F901F90189546
:1034000043E068ED80E590E00E94801C40E068EDBC
:0C34100081E590E00E94801C80E008959F
:10341C000E946C1A882319F00E942212F9CF0E9484
:0C342C006C1C91E0811190E0892F089544
:1034380090E0982F8827A0E0B0E06A017B01C82AB5
:0C344800D92AEA2AFB2AC701B601089520
:103454009F3F31F0915020F4879577956795B79504
:0C346400880F911D9695879597F90895A3
:1034700085819681019785839683A381B481CD014F
:0A3480000196838394838C910895D4
:10348A000E94601C2F8168850E945D1B2E810E940C
:0A349A00D61C8D810E941C1A0895B3
:1034A4000E94601C2B856C850E945D1B2A850E94EE
:0A34B400D61C89850E941C1A089599
:1034BE000E94601C2F8568890E945D1B2E850E94CC
:0A34CE00D61C8D850E941C1A08957B
:1034D8008091FF40811105C08091250980958170F8
:0834E80001C081E0817008952C
:1034F00080910D41811105C08091050980958170F1
:0835000001C081E08170089513
:1035080040E068ED80E191E00E94801CE0E1F1E09C
:083518001282138280E0089585
:1035200010828FEF90E0818392831382148217823E
:06353000108615860895C7
:10353600E0E0F0E111828FEF9CE180937741909378
:0635460078411382089594
:10354C002B816C810E945D1B2A810E94D61C898173
:06355C000E941C1A0895F4
:1035620020919541309196412F5F3F4F2093954195
:063572003093964108951C
:10357800E0E20E9474198DEF9CE180937141909371
:0435880072410895EF
:10358C008091004190910141880F816080932709BF
:04359C0084E008952A
:1035A000CD01019687839087809128098C93809123
:0435B000240908954D
:1035B400E0E00E9474198EEF9CE180937341909334
:0435C40074410895B1
:1035C80080910E4190910F41880F81608093070987
:0435D80084E00895EE
:1035DC00CD01019687839087809108098C93809107
:0435EC000409089531
:1035F000F9E083818E7F83838381816083830E944E
:04360000BE1C08954F
:10360400EDE0F1E481E080930D41E182F2821092D9
:0436140018410895BC
:10361800C50103968E879F87F5016080718082803F
:02362800089503
:10362A008091004190910141880F8093270983E09E
:02363A000895F1
:10363C00E0E20E94761C0E94B61C1092FF4080E0D3
:02364C000895DF
:10364E0080910E4190910F41880F8093070983E07E
:02365E000895CD
:10366000E0E00E94761C0E94BA1C10920D4180E09E
:023670000895BB
:10367200C382D482E582F682C783D087018712870C
:023682000895A9
:1036840081859285019781879287A781B085892B4F
:02369400089597
:1036960081E08093C000109275411092764180E0DF
:0236A600089585
:1036A8002091410122FDFCCF80934A0190934B0168
:0236B800089573
:1036BA00862F90E0A0E0B0E0DC0199278827B22BA2
:0236CA00089561
:1036CC00B8EE4B2EB3E05B2E612C712CA301920152
:0236DC0008954F
:1036DE00EE0FFF1F0024001C0BBE0790F691E02D8D
:0236EE0009943D
:1036F00057FD04C05BBF6791779108956191719107
:0237000008952A
:1037020090958095709561957F4F8F4F9F4F08954B
:103712001092FF40E0E2F9E00E94BE1C88E00895AA
:10372200EFEFF0E40E94901AE0E20E94A91B0895D4
:1037320010920D41E0E0F9E00E94BE1C88E008957D
:10374200EDE0F1E40E94901AE0E00E94A91B0895C6
:103752000E94761C83818F7383830E94BE1C08950E
:103762008091640886FB882780F991E08927089573
:10377200E0EBF0E01482108281E0828380E0089521
:10378200762767277627072E000C880B990B08955A
:103792008091AB41811103C081E08093AB410895D8
:0E37A200E118F10A430B560BC90BD00908952C
:0E37B000E894BB2766277727CB0197F9089589
:0E37BE0090E0880F991F092E000CAA0B0895A9
:0E37CC00108A118A128A138A0E94851C0895A1
:0E37DA0050E0BE016F5F7F4F8CE090E00895DD
:0E37E8008093AA411092954110929641089547
:0E37F60080916408806480936408C0E00895A8
:0E3804000E94DE156894B1110C94D91B089532
:0E38120000240A9416161706180609060895D3
:0E38200000240A9412161306140605060895D5
:0E382E0057FD03C05BBF679108956081089548
:0C383C0004960E94241C82819381089550
:0C3848008E879F87F501608171810895D3
:0C3854000E94B61C1092FF4080E0089516
:0C386000E0E2F9E0848183608483089535
:0C386C000E94301C0E94911B80E0089517
:0C3878000E94301C0E94911B80E008950B
:0C3884000E94BA1C10920D4180E00895D3
:0C389000E0E0F9E0848183608483089507
:0C389C000E94481C0E94A11B80E00895BF
:0C38A8000E94481C0E94A11B80E00895B3
:0C38B4008091640885FB882780F9089546
:0C38C0006D937D938D939C931397089556
:0C38CC0097F99F6780E870E060E00895C5
:0A38D800EFEFF0E4848514860895F4
:0A38E200EDE0F1E4848514860895FA
:0A38EC00F9E08581806C8583089562
:0A38F6008093754190937641089588
:0A3900001BBEFC0164BF4083089564
:0A390A00148A158A168A178A089598
:0A391400809393419093944108952D
:0A391E0080914A0190914B01089539
:0A39280020E030E040E85BE3089582
:0A39320020E030E040E85AE3089579
:0A393C0060837183828393830895F2
:0A3946004D915D916D917C91089503
:0A3950004081518162817381089566
:0A395A006C0D7D1D8E1D9F1D08954C
:08396400B60180E290E0089535
:08396C00E0E20E94F81A089540
:08397400E0E00E94F81A08953A
:08397C008581816085830895B7
:083984008091C20081700895DA
:08398C00462F68ED0C94801C2D
:0839940066E081E10C940816C5
:08399C00682F80E10C9408166D
:0839A40020E030E040E8089546
:0839AC00AC01BD01422B08959E
:0839B400BE016F5F7F4F089513
:0839BC008091A54188230895C4
:0839C4000E94020F0C9485190A
:0639CC000E94811B08951A
:0639D200FC018081089554
:0639D800809362080895CF
:0639DE0080919F41089555
:0639E4000E94601C089522
:0639EA0080E090E4089566
:0639F0009FEF80EC08953A
:0439F6000C9400002D
:0239FA0008952E
:0239FC0008952C
:0239FE0008952A
:023A0000089527
:023A0200089525
:023A0400089523
:023A0600089521
:023A080008951F
:023A0A0008951D
:023A0C0008951B
:023A0E00089519
:023A1000089517
:023A1200089515
:023A1400089513
:023A1600E204C8
:013A180001AC
:013A190001AB
:02000004008278
:090000000000000000C00D00002A
:00000001FF
