:100000000C9483000C94F0060C94F0060C94F0060B
:100010000C946E060C9407020C9498030C94F00652
:100020000C94C7050C94F0060C94F0060C94F006A2
:100030000C94F0060C94F0060C94F0060C94F00668
:100040000C94F0060C94F0060C94F0060C94F00658
:100050000C94F0060C94F0060C94F0060C94F00648
:100060000C9431030C94F0060C94F0060C94F006FA
:100070000C94F0060C94F0060C94FB020C94F00621
:100080000C94F0060C94F0060C94F0060C94E30526
:100090000C94F0060C94F0060C94F0060C94F00608
:1000A0000C94F0060C94F0060C94F0060C94F006F8
:1000B0000C94F0060C9446020C94D5050C94F006B2
:1000C0000C94F0060C94F0060C94F0060C94F006D8
:1000D0000C94F0060C94F0060C94F0060C94F006C8
:1000E0000C94F0060C94F0060C94F0060C94F006B8
:1000F0000C94F006400040068040064015000DF4C8
:1001000040154039800011241FBECFEFCDBFDFE77F
:10011000DEBFE4EFF0E041E019C0B791A79137915D
:100120002791079107FD0EC097918791EF01F92F55
:10013000E82F0BBF07900D92A217B307D9F7FE0166
:100140001BBE04C01D92A217B307E1F7E530F40708
:0E01500021F70E94C8030C94AD00F894FFCF75
:10015E007806500681067204F803BD063006B7060F
:02016E00AB06DE
:100170000F931F93CF93DF930E94670340E054E0F7
:10018000FA01108220E234E089E0F901808380E402
:1001900094E0FC011082C0E6D4E060E46883A0E84B
:1001A000B4E01C9200EA14E0F8011082FA01148213
:1001B000F9011482FC0114821C8214961C9214977B
:1001C000F8011482FA010E948A06F9010E948A0647
:1001D000FC010E948A06188A198A64E06A8B1B8ACD
:1001E0001C8A1D8A1E8A1F8A50961C92509751960F
:1001F0001C92519752961C92529753961C92539769
:1002000054961C92549755961C92559756961C924C
:10021000569757961C925797F8010E948A06FA0142
:100220000E94DF06F9010E94DF06FC010E94DF0642
:100230001B861E861D861C861B961C921B971E966F
:100240001C921E971D961C921D971C961C92F801DD
:100250000E94DF06E0EEF5E0118611821082148222
:1002600016821782108681E085831282138212869D
:1002700085EF96E0809331409093324086EF96E090
:1002800080932F409093304087EF96E080932D40ED
:1002900090932E4088EF96E080932B4090932C40D3
:1002A00089EF96E08093294090932A4084EF96E06E
:1002B000809327409093284083EF96E080932540D9
:0E02C00090932640DF91CF911F910F910895EA
:1002CE008091050982FF0AC086E08093224083E078
:1002DE00809321408091050984602CC0809107098C
:1002EE00882349F08091050984FF05C085E080933D
:1002FE00224081E00CC080910809882371F0809122
:10030E00050984FF0AC085E08093224082E0809335
:10031E0021408091050980610DC08091050983FF00
:10032E000BC086E08093224083E080932140809131
:10033E0005098860809305098091224090E0880F1E
:10034E00991F092E000CAA0B825A9E4FAF4FFC012B
:10035E005A2F0E949306FB010995809322408091AB
:10036E002140882329F0E0912340F0912440099404
:02037E000895E0
:100380000E940C06882309F441C08091050984FF6E
:100390000CC08091050986FF08C08091050982FD87
:1003A00004C08091050983FF07C08091050982FD83
:1003B00003C08091050983FD0E94670180910509B2
:1003C00087FD04C08091050986FF20C08091050942
:1003D00084FD07C08091050982FD03C08091050955
:1003E00083FD0C9467018091224090E0880F991F53
:1003F000092E000CAA0B825A9E4FAF4FFC015A2FB8
:0E0400000E949306FB01099580932240089507
:10040E001F920F920FB60F9211240BB60F922F93CD
:10041E003F934F935F936F937F938F939F93AF937E
:10042E00BF93EF93FF938091430180FF07C0E0914C
:10043E003740F0913840309709F00995809143018B
:10044E0081FF07C0E0913540F0913640309709F0BA
:10045E00099583E080934301FF91EF91BF91AF9196
:10046E009F918F917F916F915F914F913F912F91BE
:0E047E000F900BBE0F900FBE0F901F901895A1
:10048C001F920F920FB60F9211240BB60F922F934F
:10049C003F934F935F936F937F938F939F93AF9300
:1004AC00BF93EF93FF93399B05C0E0913140F091DE
:1004BC0032400995389B05C0E0912F40F0913040B7
:1004CC0009953B9B05C0E0912540F091264009958C
:1004DC008FEF87B9FF91EF91BF91AF919F918F9162
:1004EC007F916F915F914F913F912F910F900BBE28
:0A04FC000F900FBE0F901F9018958F
:1005060060E080E690E00E94EC0660E081E690E024
:100516000E94EC0660E085E690E00E94EC0660E052
:1005260088E790E00E94EC066CE088E690E00E9486
:10053600EC0660E089E690E00E94EC0660E080E769
:1005460090E00E94EC0660E08CE790E00E94EC06EA
:1005560060E082E690E00E94EC0660E083E690E0D0
:100566000E94EC0660E084E690E00E94EC0660E003
:0805760080E890E00C94EC0613
:10057E00CF93DF93CDB7DEB72897CDBFDEBF80E038
:10058E000E94DC04882349F186E00E94DC04882363
:10059E0021F181E090E00E943B060E94FE04882338
:1005AE00C1F3CE0101960E9483058823B1F02A8102
:1005BE003B812A563F4F2D32314070F42C813D81C4
:1005CE002A563F4F2D32314038F42E813F8120552F
:1005DE003B4F2134364010F0000080E02896CDBF0E
:0805EE00DEBFDF91CF910895FB
:1005F6001F920F920FB60F9211240BB60F922F93E4
:100606003F934F935F936F937F938F939F93AF9394
:10061600BF93EF93FF935B9B05C0E0912940F09158
:100626002A4009955A9B05C0E0912740F091284041
:1006360009958FEF8BB9FF91EF91BF91AF919F9184
:100646008F917F916F915F914F913F912F910F9075
:0C0656000BBE0F900FBE0F901F90189568
:100662001F920F920FB60F9211240BB60F922F9377
:100672003F934F935F936F937F938F939F93AF9328
:10068200BF93EF93FF937A9B05C0E0912D40F091C9
:100692002E4009957E9B05C0E0912B40F0912C40A5
:1006A20009958FEF8FB9FF91EF91BF91AF919F9114
:1006B2008F917F916F915F914F913F912F910F9009
:0C06C2000BBE0F900FBE0F901F901895FC
:1006CE00E0E1F4E00E94E806E83184E0F807D1F7B3
:1006DE00E0E3F4E00E94E806E83384E0F807D1F79F
:1006EE00E0E5F4E00E94E806E83584E0F807D1F78B
:1006FE00E0E7F4E00E94E806E83784E0F807D1F777
:10070E00E0E9F4E00E94E806E83984E0F807D1F762
:10071E00E0EBF4E00E94E806E83B84E0F807D1F74E
:02072E0008952C
:100730001F920F920FB60F9211240BB60F922F93A8
:100740003F934F935F936F937F938F939F93AF9359
:10075000BF93EF93FF93E0913340F0913440309793
:1007600009F0099581E080935301FF91EF91BF91CA
:10077000AF919F918F917F916F915F914F913F9139
:100780002F910F900BBE0F900FBE0F901F901895DA
:10079000CF93DF93CDB7DEB72897CDBFDEBF0E94E2
:1007A0009B0581E08093020982E08093E50588EE55
:1007B00093E00E943B060E94B9040E94BF0218E029
:1007C00081110AC01093270484EF91E00E943B0638
:1007D000F9CF109326048895CE0101960E94520508
:1007E0008E819F8118161906A4F710932504F3CF64
:1007F00080911E4090911F40019721F4809104093F
:10080000846003C0809104098B7F80930409E5E133
:10081000F0E481859285019781879287A781B085D1
:10082000892B39F00E94640682608093040984E079
:1008300008950E9464068460809304090E94B106B2
:080840000E946B0580E00895A1
:10084800EF92FF920F931F93CF93DF937C018B015D
:10085800EA010E940C06811112C00E945A06078301
:100868001087C187D287138214821582168210924C
:1008780021400E9450068093224081E001C080E020
:0E088800DF91CF911F910F91FF90EF90089597
:10089600EF92FF920F931F93CF93DF937C018B010F
:1008A600EA010E940C06811112C00E945A060383B7
:1008B6001483C583D68317821086118612861092FA
:1008C60021400E9481068093224081E001C080E0A1
:0E08D600DF91CF911F910F91FF90EF90089549
:1008E400E5E1F0E485819681892B81F0858196810B
:1008F400019785839683A381B481CD010196838377
:1009040094838C918093080983E00895809120401A
:10091400882321F01092204081E008950E94B106BE
:080924000E946B0580E00895BC
:10092C00E0E4F1E0809141018111FACF8FEF9FE774
:10093C0084879587108611868FEF9FEF8287938728
:10094C00109247011092420181E080934001809106
:10095C0051018111FCCF81E08093520189E4809395
:06096C00500180E0089537
:10097200CF93DF9300D0CDB7DEB781E1898386E0E4
:100982008A8342E00E94A4060E944B04982F882387
:1009920061F00E940C06882319F00E94C001F9CF71
:1009A2000E94D50691E0811190E0892F0F900F905F
:0609B200DF91CF910895D2
:1009B800CF93DF9300D0CDB7DEB790E199838A83D8
:1009C80042E00E94A4060E944B04982F882361F0FD
:1009D8000E940C06882319F00E94C001F9CF0E94DA
:1009E800D50691E0811190E0892F0F900F90DF914B
:0409F800CF910895FE
:1009FC00CF93DF931F92CDB7DEB7198241E00E94EF
:100A0C00A4060E942404811102C080E00DC00E9443
:100A1C000C06882319F00E94C001F9CF0E94D5065C
:100A2C008111F3CF898181700F90DF91CF9108955F
:100A3C000E94C906E0E0F7E083E0828381E08183D5
:100A4C00878782E2838B128A85E0808B8FE7848B89
:100A5C00138E128E92E0908F848F13A212A290A309
:060A6C0084A30C94C306F4
:100A7200E0E0F9E0108212828FE0868381E08383D6
:100A8200158217821482108684818860848385810E
:100A92008160858382EF96E0809323409093244087
:020AA2000895B5
:100AA400CF93DF93EC0181E00E94DC04882369F09A
:100AB40081E090E00E943B060E94FE048823C1F37B
:100AC400CE01DF91CF910C94830580E0DF91CF912B
:020AD400089583
:100AD600E5E1F0E410828FEF90E081839283138248
:100AE6001482178210861586E0E0F9E08581806C15
:100AF600858383818F738383858181608583089550
:100B060048E050E0BC018CE090E00E942404982F5D
:100B1600882361F00E940C06882319F00E94C00108
:100B2600F9CF0E94D50691E0811190E0892F0895B2
:100B36000E94B8000E9483020E9446060E94390560
:100B46000E94E4060E941E050E9496040E94F1057A
:0C0B56000E94B1050E949C060C94FF0553
:100B6200E0E6F8E083E896E080879187158280ECE2
:100B7200868383E08783138614861686158686E02D
:0C0B820090E4809302409093034008959B
:100B8E001F920F920FB60F9211248F938FEF83B98E
:0C0B9E008F910F900FBE0F901F901895C4
:100BAA001F920F920FB60F9211248F938FEF83BB70
:0C0BBA008F910F900FBE0F901F901895A8
:100BC6001F920F920FB60F9211248F938FEF87BB50
:0C0BD6008F910F900FBE0F901F9018958C
:100BE20043E068ED80E590E00E94DA0640E068EDBF
:0C0BF20081E590E00E94DA0680E00895A2
:100BFE0040E068ED80E191E00E94DA06E0E1F1E08C
:0A0C0E0012821382789480E00895AA
:100C180080911540811105C08091050980958170EA
:080C280001C081E08170089514
:100C3000E0E0F9E083818E7F838383818160838319
:080C4000858181608583089520
:100C4800CF93C82F0E94CF068823E1F3C093620890
:080C580080E090E0CF910895C7
:100C6000E0E0F9E08581806C85830E94180610928F
:060C7000154080E008952C
:100C7600009741F0E7EEF3E03197F1F700C000008E
:060C86000197F6CF08956E
:100C8C00E0EAF6E080EC90EE8283938381EC808343
:040C9C0080E0089557
:100CA0008091164090911740880F816080930709CA
:040CB00084E008953F
:100CB400E5E1F0E481E080931540E182F282109254
:040CC400204008952F
:100CC800CD01019687839087809108098C93809144
:040CD800040908956E
:100CDC001F920F920FB60F9211240F900FBE0F9010
:040CEC001F901895A8
:100CF00010921540E0E0F9E085818160858388E00D
:020D0000089554
:100D02008091164090911740880F8093070983E0E5
:020D1200089542
:100D1400108A118A128A138A148A158A168A178AE3
:020D2400089530
:100D260057FD04C05BBF67917791089561917191FA
:020D360008951E
:100D3800E0EBF0E01482108281E0828380E0089585
:0E0D480050E0BE016F5F7F4F8CE090E0089599
:0C0D56000E9418061092154080E00895DD
:0C0D6200E0E0F9E0848183608483089560
:0C0D6E000E94B1060E946B0580E0089511
:0C0D7A000E94B1060E946B0580E0089505
:0C0D8600E0E0F7E0808181608083089548
:0C0D9200E0E0F7E080818E7F8083089510
:0C0D9E008091640885FB882780F9089587
:0A0DAA00E5E1F0E484851486089565
:0A0DB4001BBEFC0164BF40830895DC
:0A0DBE001386168615861486089524
:080DC8001092C00080E00895C4
:080DD000808188608193089581
:080DD800462F68ED0C94DA06C9
:040DE0000C9400006F
:020DE400089570
:020DE60008956E
:020DE80008956C
:020DEA0008956A
:020DEC00089568
:020DEE00089566
:020DF000089564
:020DF200089562
:0F0DF400000000000200000000240600000000C4
:02000004008278
:090000000000000000C00800002F
:00000001FF
