:100000000C94AA000C94322A0C94322A0C94322AB2
:100010000C949C1D0C94CF1C0C94CE1D0C94322A75
:100020000C9456290C94322A0C94322A0C94322ABD
:100030000C94322A0C94322A0C94322A0C94322AD0
:100040000C94322A0C94322A0C94322A0C94322AC0
:100050000C94322A0C94322A0C94322A0C94322AB0
:100060000C948F1E0C94322A0C94322A0C94322A4F
:100070000C94322A0C94322A0C945B290C94322A68
:100080000C94322A0C94322A0C94322A0C9465294E
:100090000C94322A0C94322A0C94311E0C94322A7D
:1000A0000C94322A0C94322A0C94322A0C94322A60
:1000B0000C94322A0C94991C0C9460290C94322ACA
:1000C0000C94322A0C94322A0C94322A0C94322A40
:1000D0000C94322A0C94601E0C94322A0C94322A0E
:1000E0000C94322A0C94322A0C94322A0C94322A20
:1000F0000C94322AEE060C0718072207B007C8072F
:100100008E08B008B6082D093C0946094000430A8C
:1001100080430A434800547C43484354804354433B
:10012000610054BA43614367804367436F0054C71B
:10013000436F43D18043D143D30054CF43D343DCF7
:100140008043DC43DD00075743DD43DF0054D143E8
:10015000DF43E780809101108F7C8060806880930E
:10016000011011241FBECFEFCDBFDFE7DEBFECE0F3
:10017000F1E041E019C0B791A7913791279107911C
:1001800007FD0EC097918791EF01F92FE82F0BBF64
:1001900007900D92A217B307D9F7FE011BBE04C04A
:1001A0001D92A217B307E1F7E435F40721F70E9487
:0A01B000151F0C941A27F894FFCFD6
:1001BA00496E697469616C697A696E67204D4C5839
:1001CA003930333932204D61676E65746F6D6574ED
:1001DA0065722053656E736F722E2E2E004641494A
:1001EA004C45440D0A0043414C204241440D0A004B
:1001FA004F4B0D0A004D61782056616C75653A20A7
:10020A00256C752C20437261636B65643A20256CFA
:10021A00752C20666F756E6420256C750D0A003C7E
:10022A005468726573686F6C6420457863656564A9
:10023A0065643E202D2000416C61726D204241446C
:10024A000A00416C61726D204F4B0A005B455252A5
:10025A005D204661696C656420746F206368616E15
:10026A006765204D4C583930333932206F706572CA
:10027A006174696E67206D6F64652E0D0A004265B0
:10028A0067696E6E696E67206F70656E2077696E3A
:10029A00646F772063616C6962726174696F6E2E34
:1002AA000D0A005A65726F696E6720436F6D706C34
:1002BA006574652E20585F6F6666203D2025642C84
:1002CA0020595F6F6666203D2025642C205A5F6F97
:1002DA0066663D2025640D0A00426567696E6E698F
:1002EA006E6720636C6F7365642077696E646F77DD
:1002FA002063616C6962726174696F6E2E0D0A0007
:10030A005363616C696E6720436F6D706C657465C9
:10031A00642E20585F7363616C6520203D20325E35
:10032A0025642C20595F7363616C65203D20325E21
:10033A0025642C205A5F7363616C65203D20325E10
:10034A0025640D0A005B4552525D2053656E736F3A
:10035A00722076616C75652069732062656C6F77AF
:10036A00206E6F697365206D617267696E2C2070EB
:10037A006C6561736520636C6F73652074686520B2
:10038A0077696E646F7720616E642070726573732B
:10039A002074686520627574746F6E20746F2072A1
:1003AA00657472792E0D0A00426567696E6E696E10
:1003BA00672077696E646F77207468726573686FF7
:1003CA006C642063616C6962726174696F6E2E0D70
:1003DA000A005B5741524E5D205468726573686F1C
:1003EA006C642069732062656C6F77206E6F697325
:1003FA0065206D617267696E2E2053656E736F7228
:10040A00206D6179206E6F74206F706572617465FA
:10041A0020636F72726563746C792E0D0A005468DA
:10042A00726573686F6C642063616C69627261746F
:10043A00696F6E20636F6D706C6574652E205468E9
:10044A00726573686F6C643A20256C750D0A0043F7
:10045A00616C6962726174696F6E20436F6D706C52
:10046A00657465642E0D0A004D61676E65746F6D63
:10047A00657465722053656E736F72204572726F70
:10048A0072202D205265626F6F742044657669630D
:10049A00650D0A00004F70656E20746865207769E3
:1004AA006E646F7720616E64207072657373207456
:1004BA00686520627574746F6E20746F207374613E
:1004CA0072742E0D0A00506C6561736520636C6F3F
:1004DA007365207468652077696E646F7720616E32
:1004EA00642074686520707265737320746865206F
:1004FA00627574746F6E20746F20636F6E74696EA8
:10050A0075652E0D0A00506C65617365206F706504
:10051A006E207468652077696E646F7720746F2027
:10052A0074686520646573697265642074687265AD
:10053A0073686F6C642C207468656E2070726573C2
:10054A00732074686520627574746F6E2E0D0A00CC
:10055A005B4552525D2057696E646F77206973203C
:10056A00746F6F206F70656E2E20506C65617365B5
:10057A0020636C6F7365207468652077696E646F99
:10058A007720616E642070726573732074686520C9
:10059A00627574746F6E20746F2072657472792E2E
:1005AA000D0A00506C6561736520636C6F7365207A
:1005BA007468652077696E646F7720616E64207055
:1005CA00726573732074686520627574746F6E2027
:0D05DA00746F2066696E6973682E0D0A004B
:1005E700496E697469616C697A696E67204D4C5808
:1005F70039303633322054656D70657261747572A7
:10060700652053656E736F722E2E2E000D0A4C6F88
:10061700616465642063616368656420636F6E73FA
:1006270074616E747320616E642073657474696E8F
:1006370067732E2E2E000D0A4C6F6164656420636C
:100647006F6E7374616E74732066726F6D2073655D
:100657006E736F7220616E642072657365742074A7
:100667006F2064656661756C74732E2E2E004F4B78
:100677000D0A004641494C45440D0A0053656E7307
:100687006F722054656D70657261747572653A207A
:1006970025322E3266430D0A526F6F6D2054656DF9
:1006A70070657261747572653A2025322E32664321
:1006B7000D0A0054656D706572617475726520531B
:1006C700656E736F72204572726F72202D205265AE
:0E06D700626F6F74204465766963650D0A00DA
:1006E500242424002D2D2D004B4F410045786563B2
:1006F5007574696E6720436F6D6D616E643A202273
:1007050000222E2E2E004F4B0D0A004641494C4526
:10071500440D0A00496E697469616C697A696E678E
:1007250020524E343837302E2E2E0D0A00456E7469
:100735006572696E6720436F6D6D616E64204D6FE4
:1007450064652E2E2E00532D2C4D4348502D4D4CB7
:0207550058004A
:0107570001A0
:10075800A6E2B0E0E2EBF3E00C945E238E8F9F8F6D
:10076800688F798F122FFB010190F081E02DE987C6
:10077800FA87FB01C280D380248135812B8B3C8B87
:100788008085918588A399A326803780FA01808087
:100798009180A280B38020E030E0A901C501B401B6
:1007A8000E94292987FF04C00E941F298DE204C0E6
:1007B800598552FFB4C28BE2F10180832B893C89B1
:1007C800215031092F83388741E050E0498B5A8BFB
:1007D80006C08B899C898F839887198A1A8AD501C4
:1007E800C401BF770097E0E8AE07EFE7BE0769F4FA
:1007F8000E94902618F468E373E402C06CE373E483
:100808000E9401288CE393E47AC20197A048BF476D
:1008180068F00E94902618F460E473E402C064E46F
:1008280073E40E94012884E493E469C220E030E084
:10083800A901C501B4010E9429291B821C828823B1
:1008480009F458C020E82D833FE33E8319821A82B9
:100858000E9441270E94C929F62E072F8D879B8762
:10086800A50194010E942E2918166CF049815A811D
:100878004F5F5F4F49835A83FB820C835D855D839D
:100888008B858E83E5CF1B861C860E941A29C5019D
:10089800B4010E94292987FF33C0E981FA81E43D28
:1008A800FE4FE4F44B855C85452BC1F40E94232A56
:1008B8005AE5C501B4010E94C9294B015C010E9497
:1008C800232A5AE56B817C818D819E810E94C929EA
:1008D8000E94242981E090E08B879C870E94412711
:1008E8000E94C5290E942429E981FA813197E98368
:1008F800FA83CBCFF0E8FD832FE32E8319821A8287
:10090800412F110F550B4AA35BA3CA010E94F92777
:100918008B8FD7FC03C0CDA2DEA204C086E090E096
:100928008DA39EA39B8D973641F4CD2809F0FCC179
:10093800E1E0F0E0EDA3FEA3F7C18B8D8D8B06C03F
:1009480029813A8137FF03C296E69D8BEDA1FEA16E
:100958003196EDA3FEA3FD89F636B9F429813A81D3
:1009680037FF08C01B821C8230E83D834FE34E836B
:1009780019821A825B8D573641F08DA19EA1E981BB
:10098800FA818E0F9F1F8DA39EA3FB81FB872C816D
:100998002D873D813E8B4E814A8F750164011C8EE7
:1009A8001D8EEC8DFD8D2DA13EA1E217F307B9F147
:1009B8002B853D854E895A8DC701B6010E94C529F0
:1009C8000E94FF142B013C010E945D286CA3870143
:1009D800760117FB109517F910952B853D854E89E3
:1009E8005A8DC301B2010E942F126B017C01F7FAE4
:1009F800F094F7F8F09420E030E040E251E46B85A1
:100A08007D858E899A8D0E94C5296B877D878E8BFF
:100A18009A8F8C8D9D8D01968C8F9D8FC2CF20E0F3
:100A280030E040EA50E46B857D858E899A8D0E947E
:100A3800C9292B013C019B01AC01C701B6010E94E9
:100A4800292987FD0BC0A3019201C701B6010E94A5
:100A58002929811106C03CA130FD03C0412C512C2D
:100A68003201A3019201C501B4010E9457284B012C
:100A78005C014D89453619F069807A8002C0612C85
:100A8800712C23018DA19EA1481A590AC988DA88B8
:100A980000E010E01B861C86E985FA85E071FF27D7
:100AA800EE8BFF8B6414750431F4EB85FC85EF2B1A
:100AB80009F484C08FC0CC8EDD8EE88DF98D8085D9
:100AC80091850597C816D90680F70E941A29C5018D
:100AD800B4010E94C5290E94FF146D877E878F8705
:100AE800988B0E945D28CB012E893F89232B69F4BE
:100AF800892B59F43B8D373641F477FE06C0A8019F
:100B08004F5F5F4F4C8F5D8F3BC08B859C85892BDA
:100B180089F477FE0FC09FEFC91AD90AEC8DFD8DB5
:100B2800E20DF31D2EE220830E94412881E090E02F
:100B38008B879C87F101EC0DFD1D0C8F1D8F4C8D53
:100B48005D8D452B49F090E391932C8D3D8D21507F
:100B580031092C8F3D8FF3CFC8018C0D9D1D2F813E
:100B68003885201B310B6C015FEFC51AD50AF101DE
:100B7800E80FF91F605D6083C90101978F8398872B
:100B88008501740117FB109517F910950E941A2911
:100B98006D857E858F8598890E942F124B015C0197
:100BA8000E941F290E9441270E94C5290E942429CA
:100BB80091E0691A71080C8D1D8D74CFF985F4FFC9
:100BC80009C0F101EC0DFD1D8EE2808396012F5FB7
:100BD8003F4F6901A1014C0D5D1D4B875C87FA01F0
:100BE8001082FD89F53609F05DC0E8A1F9A1E20D92
:100BF800F31D3197108229813A8137FF08C031955A
:100C08002195310929833A8301E010E002C000E010
:100C180010E0E8A1F9A13197E20DF31D22E030E0E0
:100C28008AE0E82EF12CCF018219930949815A8173
:100C3800452B71F089819A81B7010E949724805DC4
:100C4800829369837A83215031090E944128EBCF2E
:100C5800121613067CF3FC013197E20DF31D012BEC
:100C680011F42BE201C02DE220830297B101680F35
:100C7800791F2AA13BA1215431092A31310510F0ED
:100C880025E601C025E4FB0120832F813885225009
:100C980031092F833887C816D90624F48B859C859B
:100CA8000E940128398531FF29C030FD27C04F81B6
:100CB80058851416150614F5C1010E941B26820DCD
:100CC800931D9C012219330949895A89241735072C
:100CD8004CF0FC012081EF81F885E80FF91F208393
:100CE8000197EFCF4F81588560E370E089899A8931
:100CF800820D931D0E9480271B8A1C8AC1010E94B5
:100D08001B2609851A852B893C89AC01B1018E8D7A
:100D18009F8D0E94DE18A696E2E10C948F235985D8
:100D280053FF57CD80E248CD89819A818C3F9F4FF0
:100D38005CF029813A814DA15EA1241735070CF496
:100D4800FFCD55E65D8B21CEF5E6FD8B1ECE36E652
:040D58003D8B1BCEE6
:100D5C004F925F926F927F928F929F92AF92BF92BF
:100D6C00CF92DF92EF92FF92CF93DF93CDB7DEB7A6
:100D7C002597CDBFDEBFDC018091D743893130F0A0
:100D8C0088E0809327041092D74303C08F5F809331
:100D9C00D743FB01C184D284E384F484E7EBF3E40E
:100DAC000E949C294C155D056E057F0520F4E7EB30
:100DBC00F3E40E94A129E091E0434E2F50E04C3027
:100DCC00510508F05FC2FA01E658FF4F0C946E27EC
:100DDC001092D64381E08093E0431092B34310927B
:100DEC00B4431092B5431092B6431092AF43109295
:100DFC00B0431092B1431092B2431092AB43109295
:100E0C00AC431092AD431092AE433CC28AE00E94B8
:100E1C00052A882311F082E030C286E592E80E9410
:100E2C00671F30C20E940D2A09F42CC288E892E890
:100E3C000E94B91F83E09FC00E94042711966D91F8
:100E4C007C911297AB01770F660B770BE3EBF3E416
:100E5C00C080D180E280F380CB01BA010E94A62928
:100E6C00E3EBF3E40E94922913968D909C901497D7
:100E7C00092C000CAA08BB08EFEAF3E4C080D1806F
:100E8C00E280F3808C0C9D1CAE1CBF1CEFEAF3E4DB
:100E9C0080829182A282B3821596CD90DC901697B7
:100EAC000E94A925EBEAF3E40E94A129283E3340D5
:100EBC0008F4E8C10E9465270E94D623CA01B90133
:100ECC000E942B1C0E9475140E945D2869837D83EF
:100EDC006093CF437093D043C501B401A301920139
:100EEC000E94D623CA01B9010E942B1C0E947514C2
:100EFC000E945D28B62EA72E6093CD437093CE43EF
:100F0C00C701B601A30192010E94D623CA01B901FF
:100F1C000E942B1C0E9475140E945D28F62EE72E51
:100F2C006093CB437093CC430E942C2AEF92FF9298
:100F3C00AF92BF924D814F93A981AF932DEA32E8C6
:100F4C003F932F939F938F930E9436260E943E1FB0
:100F5C0084E078C10E940D2A09F494C11092B74321
:100F6C001092B8431092B9431092BA4383EE92E8B0
:100F7C000E94B91F85E08093E0431092C943109200
:100F8C00CA4380C18091C9439091CA43FC013196F8
:100F9C00E093C943F093CA4311964D915C9112971B
:100FAC002091CF433091D043421B530B052E000CA4
:100FBC00660B770BC090B343D090B443E090B5432D
:100FCC00F090B643CB01BA010E94A6296093B343BB
:100FDC007093B4438093B5439093B64313968D901E
:100FEC009C9014972091CD433091CE43821A930A52
:100FFC00092C000CAA08BB08C090AF43D090B0439A
:10100C00E090B143F090B2438C0C9D1CAE1CBF1C05
:10101C008092AF439092B043A092B143B092B2434E
:10102C001596CD90DC9016972091CB433091CC4304
:10103C00C21AD30A0E94A925ABEAB3E4CD92DD9281
:10104C00ED92FC921397E83EF34008F41BC10E940A
:10105C0065270E94D623CA01B9010E942B1C0E944D
:10106C0075140E945D280E94AB29E3EBF3E40E9407
:10107C009229C501B401A30192010E94D623CA0191
:10108C00B9010E942B1C0E9475140E945D284B0113
:10109C005C01AFEAB3E40E94262AC701B601A301A2
:1010AC0092010E94D623CA01B9010E942B1C0E94F6
:1010BC0075140E945D282B013C01EBEAF3E40E94BD
:1010CC00922989819A810E949A25F82E8093DE4379
:1010DC00C4010E949A25E82E8093DD43C2010E9430
:1010EC009A25D82E8093DC430E942C2A1F92DF92E3
:1010FC001F92EF921F92FF922AE033E83F932F93B7
:10110C009F938F930E9436260E943E1F86E09AC0C2
:10111C0099E2C916D104E104F10430F48FE493E8A8
:10112C000E94671F87E0A9C00E940D2A09F4AAC07B
:10113C0082EB93E80E94B91F1092C9431092CA43E4
:10114C001092A7431092A8431092A9431092AA435D
:10115C0088E093C00E940D2A09F494C086E08DC0EB
:10116C000E940427E7EAF3E480819181A281B38194
:10117C00BC01CD010E94A629A7EAB3E40E94262A4D
:10118C00283E334008F47EC028EE33E040E050E0C7
:10119C000E94D623CA01B9010E942B1C0E9475140F
:1011AC000E94EB1EABEBB3E40E94262A6832710559
:1011BC008105910520F48CED93E80E94671FEBEB01
:1011CC00F3E40E94B0290E94291C2DEC3CEC4CE865
:1011DC005FE30E94C9290E9475140E94EB1EF62E33
:1011EC00E72ED82EC92E6093BB437093BC438093DB
:1011FC00BD439093BE43A7EBB3E46D917D918D916C
:10120C009C910E94291C2DEC3CEC4CE85FE30E9465
:10121C00C9290E9475140E94EB1EE7EBF3E40E94AF
:10122C0092290E942C2ACF92DF92EF92FF9228E211
:10123C0034E83F932F939F938F930E9436260E94FE
:10124C003E1F89E08093E043CDBFDEBF1BC00E94F0
:10125C000D2AC1F089E594E80E94B91F8AE08093B9
:10126C00E0431092D7430E947E190CC082E00E948A
:10127C00052A882309F4D1CD8BE08093E04302C08A
:10128C001092E043E091E0438091D6438E1308C066
:10129C008091C7439091C8438032F3E09F0790F050
:1012AC00F0E0EE0FFF1FE65FFC4B808191810E9406
:1012BC00B91F8091E0438093D6431092C74310929C
:1012CC00C84305C001968093C7439093C8432596A5
:1012DC00CDBFDEBFDF91CF91FF90EF90DF90CF902D
:1012EC00BF90AF909F908F907F906F905F904F903A
:0212FC00089553
:1012FE00AAE9B0E0E5E8F9E00C945E236C017A010E
:10130E00C756DF4F68837983C959D040A12CB12CC1
:10131E0066246A94762C90E8492E512C25E2222ED2
:10132E00C756DF4F68817981C959D040FB01808152
:10133E00882309F428C2CF570E94BD29C1580E94A4
:10134E009927CB570E94BD29C558D04081E090E027
:10135E008C0F9D1FC957DF4F88839983C758D04084
:10136E00C757DF4F48825982C958D040FB0100E071
:10137E0010E08191811112C001151105A1F0A80193
:10138E00C6010E94DA220E940928800F911FC756BB
:10139E00DF4F88839983C959D04005C0853261F3E8
:1013AE000F5F1F4FE6CF0E94B529853209F0D9C1D4
:1013BE004F019FEF891A990A0E9417280E94092847
:1013CE00DC012C912B3221F40E942528246007C0C9
:1013DE002C329CF02D32E9F40E9425282160CF5743
:1013EE00DF4F28833983C158D0400196C756DF4F4F
:1013FE0088839983C959D040E1CF203221F40E94CD
:10140E0025282860ECCF233251F40E942528206134
:10141E00E6CF203321F40E9425282260E0CF2A3225
:10142E0029F50196C756DF4F88839983C959D04055
:10143E00D701ED91FC911197CF0102968D939C935C
:10144E00808191810E94332897FF1DC00E9425281C
:10145E00B1E02B27CF57DF4F28833983C158D040B7
:10146E009195819591090E9433280DC00E94F01B21
:10147E000E9433280E941028C0970A9720F43196B4
:10148E000E941E28F7CFCF57DF4F88819981C15810
:10149E00D04080FF07C08D7FCF57DF4F8883998361
:1014AE00C158D0400E94B5298E3209F031C0CD57B7
:1014BE000E94BD29C358D040CF010196C756DF4FB9
:1014CE0088839983C959D04021812A32A1F432965A
:1014DE00C756DF4FE883F983C959D040D701ED9144
:1014EE00FC911197CF0102968D939C9380819181EF
:1014FE000E942C280DC00E94F01B0E942C280E94D6
:10150E001028C0970A9720F431960E941E28F7CF14
:10151E00CE0187569F4F0E94FF21382E0E94102821
:10152E000E94F9278936910509F43EC0B4F483363A
:10153E00910509F4D3C044F48532910509F4E4C051
:10154E008136910529F1EBC08436910509F42CC042
:10155E00883691050CF4B6C0E2C08037910509F4C7
:10156E0056C04CF48E36910509F4A1C08F36910504
:10157E0009F437C0D4C08537910509F426C08837E1
:10158E00910509F43AC08337910509F0C8C0B2C07D
:10159E000E94A9280E949E22892B09F4E0C00E9475
:1015AE0010290E94142AD8C0632D70E0970141E0E3
:1015BE0050E00E94B9290E948E11892B09F4CFC0E8
:1015CE000E940B290E94E310C7C00E94A1270E940F
:1015DE008E11892B09F4C3C00E940B290E946A1D2B
:1015EE00BBC00E94A1270E948E11892B09F4B7C09F
:1015FE000E940B290E94361BAFC00E94A1270E9499
:10160E008E11892B09F4ABC00E943C254BC097016B
:10161E0040E050E060EF70E00E94B9290E948E1108
:10162E00892B09F49CC00E94172A86E0EBE5F3E4AF
:10163E00DE01AD56BF4F01900D928A95E1F7C55769
:10164E00DF4F2881CB58D040C457DF4F3881CC585C
:10165E00D040C357DF4F4881CD58D040C257DF4FDF
:10166E005881CE58D040C157DF4F6881CF58D040F7
:10167E00C057DF4F7881C059D040CF56DF4F888199
:10168E00C159D040CE56DF4F9881C259D040A0E00C
:10169E000E94CC2631F420E030E0AE014D565F4F73
:1016AE0055C028E70E94A9270E943B0D55C0632D07
:1016BE0070E09701A501400F511F0E94B9290E94A9
:1016CE00161A4DC00E94A9280E949E22892B09F449
:1016DE0046C00E9410290E94AC033EC0B0E83B12E7
:1016EE003EC00E94D8268081C557DF4F8883CB58D5
:1016FE00D04027C0B0E83B1232C00E94D8264081AD
:10170E00518120E030E022C0B0E83B1228C00E9498
:10171E00172AC557DF4F2882CB58D04012C0C55765
:10172E00DF4F2882CB58D0400E941728CF570E94F7
:10173E00BD29C158D040CB570E94BD29C5580E9423
:10174E00992721E030E0AE0145575F4FBE016F573C
:10175E007F4FC6010E94031D800F911F03C00E9480
:10176E00172AC8018501080F191F0A151B054CF40D
:10177E008FE490E080930A4190930B418FEF9FEF9F
:10178E0003C05801CDCDC501C656DF4FE2E10C9422
:02179E008F2397
:1017A0004F925F926F927F928F929F92AF92BF9271
:1017B000CF92DF92EF92FF92CF93DF93CDB7DEB758
:1017C0002D97CDBFDEBF8091D343823029F0809129
:1017D000D343813009F03CC160915243709153432F
:1017E0000E9488290E942B1C4B015C0160914C4394
:1017F00070914D430E9488290E942B1C20E030E00C
:1018000040E451E40E94C5296B017C01EFE7F3E459
:101810000E9479290E94C929A50194010E94572894
:101820009B01AC01C701B6010E94C5290E94E929AC
:1018300059E40E94C9290E94AB298091D343813089
:1018400049F4A8E4B3E46D917C9180914A4390916E
:101850004B4308C060914E4370914F438091504379
:1018600090915143680F791F0E9488290E942B1C78
:101870000E94E9295FE30E94C92920E030E040E4AA
:1018800051E40E94C5292B013C01ABE7B3E40E945F
:101890008329C701B6010E94C929A50194010E94AC
:1018A00057289B01AC01C301B2010E94C5290E94C7
:1018B000E92959E40E94C9292B013C01E3EAF3E438
:1018C0000E94792969817A818B819C810E945628A6
:1018D0006B017C01AFE9B3E40E9483290E94C52912
:1018E000E7E9F3E40E9479290E9457284B015C0143
:1018F0000E948D290E94C929ABE9B3E40E94832983
:101900000E94C9299B01AC01C501B4010E9457285E
:101910004B015C01E7E6F3E40E94922923E333E9FB
:1019200048E853E40E9457286B017C01A7E7B3E421
:101930000E948329EBE8F3E40E94B0290E94C929A0
:101940000E94AB29A3E8B3E48D919D910D90BC91C9
:10195000A02D8D839E83AF83B88720E030E048ECD4
:1019600051E4C501B4010E945628E7E8F3E40E945F
:1019700079290E94C9294B015C010E948D290E948E
:10198000C929A70196010E94C929A70196010E94B1
:10199000C9296B017C01A3E7B3E48D919D910D9062
:1019A000BC91A02D89879A87AB87BC8793E09D87E0
:1019B000B0E0A0E0F8ECE1E420E030E048EC51E4F5
:1019C0006B2F7A2F8F2F9E2F0E9456282D813E81BC
:1019D0004F8158850E94C9290E94ED290E945728ED
:1019E000A50194010E94572829813A814B815C818D
:1019F0000E94C9299B01AC01C301B2010E94C52903
:101A0000A70196010E9457280E94470E0E94470E88
:101A100023E333E948E853E40E94562829853A85B0
:101A20004B855C850E945628AD85A150AD87B62FA9
:101A3000A72FF82FE92F2D852111BECFC62ED72E27
:101A4000E82EF92EEBE6F3E40E94A12981E001C023
:101A500080E02D96CDBFDEBFDF91CF91FF90EF905C
:101A6000DF90CF90BF90AF909F908F907F906F90BE
:061A70005F904F90089505
:101A7600A4E1B0E0E1E4FDE00C945E238F83988757
:101A860069837A834B8B5C8B122FDB011296ED9167
:101A9600FC91139714962D913C9115972D833E83B7
:101AA600CD90DC90119716962D903C901797F7FDE8
:101AB60003C0E894C1F802C0E1E0F0E0C60180711D
:101AC600992789879A87C4FE09C00E942C230E9401
:101AD600CC2621F08D819E81029702C08D819E8148
:101AE6009601287033272B873C87C3FC0197AB8967
:101AF600BC894C9011965C90119712966C90129737
:101B060013967C90139714968C90149715969C9028
:101B160015971696AC9016971796BC90A981BA8120
:101B26001896ED90FC901997B1E0EB1AF108D101E7
:101B3600AE0DBF1D1C928B839C839F01281B390B06
:101B46002D873E87C601827099278F87988B812FB4
:101B5600012E000C990BDC01A154B109A98BBA8B9B
:101B660032E0E316F10434F489859A85892B09F06D
:101B76004CC05DC09201A301B401C501A0E00E9462
:101B8600CC2681F1B1E0EB1AF108C2018F709927DA
:101B96008A30910514F4C09602C0895A9F4FE9898C
:101BA600FA897A9748F49C012062215631092A3134
:101BB600310510F40E947727F101EE0DFF1D808399
:101BC6002B813C81215031092B833C839201A30157
:101BD600B401C50104E00E94BE2229013A014B016D
:101BE6005C01BECF8D859E85AB81BC818A0F9B1F14
:101BF600181619063CF21A161B060CF0B5CFEF851F
:101C0600F889EF2B09F0BECFAFCF0E942C230E949C
:101C1600CC2669F0F101EE0DFF1D31971083B2E07D
:101C2600EB1AF108F101EE0DFF1D80E38083EB85D1
:101C3600FC85EF2B41F0F1E0EF1AF108F101EE0D12
:101C4600FF1D80E28083A981BA810E941A2A4E195B
:101C56005F09B1016E0D7F1D86012D813E818F8149
:101C660098850E94DE189C01EF81F885808191811C
:101C760090FF05C0A981BA810E9448280CF4C901C9
:081C86006496E2E10C948F2347
:101C8E004F925F926F927F928F929F92AF92BF927E
:101C9E00CF92DF92EF92FF920F931F936B017C0115
:101CAE00DC01CB01B701A6014427552760787F7769
:101CBE004115510560487F4749F40E948D290E94C5
:101CCE00C929A70196010E94572818C0181619068F
:101CDE001A061B06C4F0892B8A2B8B2B09F4B2C073
:101CEE0081E290E080930A4190930B410E948D29EE
:101CFE000E9456289B01AC010E94C529562F472FE2
:101D0E00382F292FA3C067E1F594E794D794C79491
:101D1E006A95D1F7C114D104E104F104D1F4C12CB8
:101D2E00D12C7601A7FD08C00E94F7282FEFC21A0A
:101D3E00D20AE20AF20AF6CF21E0C21AD108E1086D
:101D4E00F108F094E094D094C094C11CD11CE11C15
:101D5E00F11C2FE7C21AD108E108F108AF77BB27B3
:101D6E00A068C0FE02C00E94F728F594E794D794AD
:101D7E00C7940E94F728E9E1F0E040E050E060E00F
:101D8E0071E0812C912C540100E010E098012801A3
:101D9E003901440E551E661E771E84159505A6053F
:101DAE00B70574F093018201040F151F261F371F0C
:101DBE0084199509A609B709840E951EA61EB71E8D
:101DCE000E94F72876956795579547953197F9F6BE
:101DDE00892B8A2B8B2B21F10E942F270E945628AC
:101DEE000E94ED290E942E2987FD1AC00E942F27DE
:101DFE000E9457280E94ED290E942E29181634F4AD
:101E0E0082E0880E911CA11CB11C0AC0D501C40130
:101E1E0081709927AA27BB27880E991EAA1EBB1E62
:101E2E00D501C401B595A79597958795B15C37E116
:101E3E00CC0CDD1CEE1CFF1C3A95D1F7C80ED91E3A
:101E4E00EA1EFB1E5C2D4D2D3E2D2F2D652F742F62
:101E5E00832F922F1F910F91FF90EF90DF90CF90D5
:101E6E00BF90AF909F908F907F906F905F904F90AC
:021E7E000895C5
:101E8000CF92DF92EF92FF921F93CF93DF93CDB764
:101E9000DEB76897CDBFDEBF81E693E40E947B206A
:101EA000182F882309F4C5C040E10E947E2994E2DE
:101EB0000E94F125811102C010E0BBC00E94F926EA
:101EC0000E942B1C0E94F1290E94C929A3EAB3E4B5
:101ED0000E945D260E942B1C0E94232A55E30E942B
:101EE000C929AFE9B3E40E946A260E942B1C0E9414
:101EF000232A59E20E94C929ABE9B3E40E9477265C
:101F00000E942B1C0E94F1290E94C929A7E9B3E471
:101F10000E94262A48E10E94092A84E294E20E9453
:101F2000F125882309F4C8CF0E94F9260E942B1CB2
:101F30000E94232A57E30E94C929A3E9B3E40E941F
:101F40005D260E942B1C0E94F1290E94C929AFE83E
:101F5000B3E40E946A260E942B1C0E94232A58E2A6
:101F60000E94C929ABE8B3E40E9477260E942B1C8B
:101F70000E94232A5DE20E94C929A7E8B3E40E94D7
:101F8000262A2B896C890E945C272A890E94F929BC
:101F900089890E94FF250E942B1C0E94232A5DE252
:101FA0000E94C929A3E8B3E40E94262A6D897E898C
:101FB0000E94F1270E942B1C0E94F5290E94C9292A
:101FC000EFE7F3E40E9492296F89788D0E94F12750
:101FD0000E942B1C0E94F5290E94C929ABE7B3E49B
:101FE0000E94262A44E00E94092A81E894E20E9485
:101FF000F125882309F460CF69817A810E94F12755
:102000000E942B1C0E94232A58E30E94C929E7E75B
:10201000F3E40E9492296B817C810E94F1270E9447
:102020002B1C0E94F5290E94C929A3E7B3E40E9452
:10203000262A812F6896CDBFDEBFDF91CF911F91F9
:0A204000FF90EF90DF90CF9008951D
:10204A008F929F92AF92BF92CF92DF92EF92FF92BE
:10205A001F93CF93DF9300D0CDB7DEB781E693E429
:10206A000E947B20182F811102C010E098C080E0E6
:10207A0094E10E9425275C0182E094E10E942527D1
:10208A006C0184E094E10E9425274C017501EC243F
:10209A00FD24E826F9268AE394E10E94252789830C
:1020AA009A8389819A81E816F906F9F6E1E6F3E45A
:1020BA0080819181A816B906C1F682819381C816DA
:1020CA00D90699F6848195818816990671F686E073
:1020DA0094E10E94D224E3EAF3E40E9492298AE07E
:1020EA0094E10E94D224AFE9B3E40E94262A8EE04A
:1020FA0094E10E94D224EBE9F3E40E94922982E15E
:10210A0094E10E94D224A7E9B3E40E94262A86E138
:10211A0094E10E94D224E3E9F3E40E9492298AE13D
:10212A0094E10E94D224AFE8B3E40E94262A8EE109
:10213A0094E10E94D224EBE8F3E40E94922982E21D
:10214A0094E10E94D224A7E8B3E40E94262A86E2F8
:10215A0094E10E94D224E3E8F3E40E9492298AE2FD
:10216A0094E10E94D224AFE7B3E40E94262A8EE2C9
:10217A0094E10E94D224EBE7F3E40E94922982E3DD
:10218A0094E10E94D224A7E7B3E40E94262A86E3B8
:10219A0094E10E94D224E3E7F3E40E949229812F7A
:1021AA000F900F90DF91CF911F91FF90EF90DF90EA
:0C21BA00CF90BF90AF909F908F90089541
:1021C600ADE0B0E0E9EEF0E10C945E2389879A87F2
:1021D6006B837C83FA01DB011296CD90DC9013971A
:1021E60014968D919C9115978D839E83ED90FC900E
:1021F6001197E982FA8216960D90BC91A02DAF83B5
:10220600B8872080318042805380648075808680C4
:1022160097808101B42DF52DE62D7B868C869D86D3
:102226000E94B5280E94CC264CF40E946C25890198
:10223600B42FF52FE62F7B878C879D87D7FC04C0AC
:10224600E894E1F8E982FA820E94B528ED80FE80E2
:102256000E94CC261CF0898182FF04C081E0E81A26
:10226600F10805C083FF03C091E0E91AF108CE0129
:1022760001965C018AE0C82ED12C2B2F3F2F4E2FC2
:102286005B856C857D858B819C810E94C712FC01D4
:102296000E94B5280E94CC261CF0898182FF0FC0BF
:1022A60031970F8118850E0F1F1F0E94B5280E94B7
:1022B600CC2614F08BE201C08DE2D80108C083FF62
:1022C60007C03197AF81B885AE0FBF1F80E28C93F0
:1022D60009811A81AB81BC810E941A2A4E1B5F0BB1
:1022E6006F8178856E0F7F1F2D813E8189859A8546
:1022F6000E94DE189C01E985FA858081918190FF14
:1023060005C0AB81BC810E9448280CF4C9012D96FA
:06231600E2E10C948F23AC
:10231C000F931F93CF93DF93FC01D901683871059C
:10232C0031F194F46138710589F12CF46038710540
:10233C0009F46AC087C06238710509F44DC064386D
:10234C00710509F461C07EC0603A710509F441C0A1
:10235C002CF46039710509F43FC074C0603C710500
:10236C0009F463C0603F710509F45FC06BC00E9443
:10237C00AF28452B39F09881892F880F880B9083D3
:10238C0081834DC088818083118255C00E9415299C
:10239C0004968D939C93452B99F088819981AA8101
:1023AC00BB81AC01BD01770F440B542FBA01808364
:1023BC009183A283B383448345834683478321C09F
:1023CC00088119812A813B81008311832283338305
:1023DC0034C00E94AF281CC00E94152908968D930A
:1023EC009C93788169815A814B813C812D819E819E
:1023FC008F817083618352834383348325839683D7
:10240C00878381E090E020C00E94AF28452B79F0B3
:10241C0099812881892F880F880B2083918382834F
:10242C008383848385838683EBCF0E94AF280881C6
:10243C0019810083118312821382148215821682F1
:10244C001782DFCF80E090E0DF91CF911F910F9149
:02245C000895E1
:10245E00A5E1B0E0E5E3F2E10C945E2347015801FB
:10246E000E94C9292B013C01A80197010E945728FF
:10247E00162FC72ED82EF92E862F9C2DAD2DBF2DA3
:10248E0089839A83AB83BC83AA81FB81EC81ED8027
:10249E003E802F8008850D8B5E2F5F71212F3A2F86
:1024AE004F2F60E070E080E090E02115310541058E
:1024BE0000E15007610571058105910509F05AC0CB
:1024CE005E2F6E2D732D822D9D8904E30E94BE22F8
:1024DE002D873E874F87588B698B7A8B8B8B9C8B86
:1024EE008D859E8597708F3F974009F443C0A30159
:1024FE0092010E9401290E9456289B01AC01C50140
:10250E00B4010E9429298823A9F149865A866B862F
:10251E007C8629853A854B855C85C501B4010E9470
:10252E005728B62E872E982EA92E262F372F482FB6
:10253E00592F0E9401290E942929811118C02B2D83
:10254E008B2D982DA92DBA2D89839A83AB83BC83AD
:10255E003A814B815C816E2D732D822D9D89A1E078
:10256E000E94C026122FC32ED42EF52E03C01B2D73
:10257E006401FA2C0E9401296596E2E10C948F23E6
:10258E00A2E1B0E0EDECF2E10C945E23FC010A8BCB
:10259E001B832C83732E642E552E462E7D83CC8664
:1025AE00D886AE82BF82868197818A879B87D50126
:1025BE004D915C91228133818085918501971C011B
:1025CE0037FF02C021E030E0EA85FB85E80FF91FF6
:1025DE0010824701E1E0F0E0E983FA83C9018E1928
:1025EE009F098D879E87DA01A270BB27AF87B88BB4
:1025FE00B885BB0FBB0BB98B1214130474F0A981F1
:10260E00BA81AB2B09F04AC0AE81BF818D919C91EE
:10261E0011978F7E8D939C9341C00E943827A0E026
:10262E000E94CC2651F1E1E02E1A3108FC85F98783
:10263E00AF2EB884C988DC2CEC2CFC2C0C2D1C2D58
:10264E000E9438270E940D26C90129839A83EA85A4
:10265E00FB85E20DF31D805D808381E0881A910871
:10266E000E9438270E940F262A8B3B834C83752E9F
:10267E00662E572E482E9D83BFCF8D859E85880D45
:10268E00991D181619067CF2181419040CF0B7CF00
:10269E00EF85F889EF2B09F0C6CFB1CFC101629655
:0626AE00E2E10C948F2311
:1026B400CF93DF93C1E6D3E46881798180E094E12C
:1026C4000E945C256A817B8182E094E10E945C2502
:1026D4006C817D8184E094E10E945C25E3EAF3E46B
:1026E4000E949C2986E094E10E94C520AFE9B3E4EE
:1026F4000E9497298AE094E10E94C520EBE9F3E463
:102704000E949C298EE094E10E94C520A7E9B3E4CD
:102714000E94972982E194E10E94C520E3E9F3E451
:102724000E949C2986E194E10E94C520AFE8B3E4AD
:102734000E9497298AE194E10E94C520EBE8F3E422
:102744000E949C298EE194E10E94C520A7E8B3E48D
:102754000E94972982E294E10E94C520E3E8F3E411
:102764000E949C2986E294E10E94C520AFE7B3E46D
:102774000E9497298AE294E10E94C520EBE7F3E4E2
:102784000E949C298EE294E10E94C520A7E7B3E44D
:102794000E94972982E394E10E94C520E3E7F3E4D1
:1027A4000E949C2986E394E10E94C5206881798176
:1027B4008A819B81682779278C819D816827792765
:0C27C4008AE394E1DF91CF910C945C2536
:1027D0008F929F92AF92BF92CF92DF92EF92FF9231
:1027E0000F931F93CF93DF93FC01C184D284E384C2
:1027F000F484ABEBB3E48D909D90AD90BC90C81485
:10280000D904EA04FB0460F0E7EBF3E480819181F2
:10281000A281B3818C159D05AE05BF0508F04DC0A2
:10282000C091B743D091B8431091B9430091BA43D6
:102830000E942C2AFF92EF92DF92CF92BF92AF922A
:102840009F928F920F931F93DF93CF932FEF31E8D7
:102850003F932F939F938F930E9436260E943E1F93
:1028600089E292E80E94671F8091D8432DB73EB756
:10287000205F3F4F2DBF3EBF843619F08F5F80939E
:10288000D84388E0809325048091D5439091D84324
:10289000843119F09A3069F402C09A3018F081E45A
:1028A00092E802C08CE492E80E94B91F1092D543CE
:1028B0000FC08F5F8093D5430BC08091D84388238E
:1028C00019F081508093D84388E080932604DCCFB0
:1028D000DF91CF911F910F91FF90EF90DF90CF90FC
:0A28E000BF90AF909F908F90089575
:1028EA004F925F926F927F928F929F92AF92BF9216
:1028FA00CF92DF92EF92FF92CF93DF9300D000D076
:10290A00CDB7DEB76B017C0127E1F694E794D79443
:10291A00C7942A95D1F796013327263931050CF049
:10292A0057C06B017C014B015C0197FF02C00E94FA
:10293A001F292B013C012E37310584F40E94FC2803
:10294A00C501B4010E9457280E94AB2920E030E05B
:10295A00A901C301B2010E94C9293AC00E94FC28F8
:10296A00C501B4010E9457280E94FC280E945628DB
:10297A00A50194010E9456282B013C010E94E929D5
:10298A005FE30E942E2918165CF4A3019201C50187
:10299A00B4010E9457280E94ED290E94562816C0A9
:1029AA000E94E9295FEBC301B2010E942929A30110
:1029BA00920118163CF0C501B4010E9457280E94E2
:1029CA00ED2902C0C501B4010E945728F7FC9058AE
:1029DA002496CDBFDEBFDF91CF91FF90EF90DF90BD
:1029EA00CF90BF90AF909F908F907F906F905F90A5
:0429FA004F9008955D
:1029FE004F925F926F927F928F929F92AF92BF9201
:102A0E00CF92DF92EF92FF92CF93DF93CDB7DEB7E7
:102A1E002897CDBFDEBF6B017C01DC01CB0147E106
:102A2E00B695A795979587954A95D1F799278F577C
:102A3E009109873191057CF597FD32C088248A94DF
:102A4E00982C3FE7A32EB12C04C0B594A79497946D
:102A5E0087948A95D2F7D501C4018C219D21AE2190
:102A6E00BF21892B8A2B8B2BB1F00E94A3280E94A9
:102A7E0057286D837E838F839887F7FE04C0C80C1A
:102A8E00D91CEA1CFB1C80949094A094B094C8208E
:102A9E00D920EA20FB205C2D4D2D3E2D2F2D19C067
:102AAE000E94A3280E9457280E94AB29F7FE0DC052
:102ABE00D701C6010E94F728892B8A2B8B2B59F33D
:102ACE0050E040E030E82FEB04C050E040E030E052
:102ADE0020E0652F742F832F922F2896CDBFDEBF57
:102AEE00DF91CF91FF90EF90DF90CF90BF90AF909E
:0E2AFE009F908F907F906F905F904F90089503
:102B0C00CF93DF93CDB7DEB76597CDBFDEBF809196
:102B1C00DA43811108C0329B09C081E08093DA430B
:102B2C008093DB4303C0329B1092DA438091DF43E6
:102B3C00813099F028F08330D9F18430D9F14AC032
:102B4C008091E0438B3011F482E001C08AE00E9456
:102B5C00052A8823D9F181E03AC00E9419248823E0
:102B6C0009F44FC0CE010E960E94F7248823D1F0B1
:102B7C000E94092ACE010E960E942E198091E043E4
:102B8C008B3049F48091DB43811105C0CE01019655
:102B9C000E94E8130AC00E94092ACE010E960E94D8
:102BAC00AE0603C082E08093DF431092DB4329C062
:102BBC0084E00DC00E944C25882341F080E00E94E7
:102BCC002F181092DF4382EE94E017C082E08093BE
:102BDC00DF4317C08091D1439091D243823E944001
:102BEC0038F082E794E80E94B91F81E090E005C0BC
:102BFC008091D1439091D24301968093D14390938D
:0E2C0C00D2436596CDBFDEBFDF91CF91089514
:102C1A000F931F93CF93DF9340E054E0FA011082A1
:102C2A0020E234E088E0F901808380E494E0FC014A
:102C3A001082C0E6D4E061E06883A0E8B4E01C92A8
:102C4A0000EA14E0F8011082FA011482F9011482F0
:102C5A00FC0114826C8314961C921497F801148256
:102C6A00FA010E945327F901108A118A48E8428B17
:102C7A00138A148A158A168A178AFC010E94532716
:102C8A00188A198A1A8A1B8A1C8A1D8A1E8A1F8A0E
:102C9A0050961C92509751961C92519752961C929C
:102CAA00529753961C92539754961C925497559642
:102CBA001C92559756961C92569757961C92F80155
:102CCA000E945327E0EEF5E01186118210821482E9
:102CDA00168217821086658380E1828313821286A8
:102CEA008AE39AE28093C5439093C64389E39AE2C2
:102CFA008093C3439093C44388E39AE28093C14389
:0E2D0A009093C243DF91CF911F910F910895D6
:102D180010C00E946B2858F00E94642840F029F4E3
:102D28005F3F29F00C94BB2851110C9473280C9424
:102D38001D2A0E94782168F39923B1F3552391F352
:102D4800951B550BBB27AA2762177307840738F012
:102D58009F5F5F4F220F331F441FAA1FA9F333D071
:102D68000E2E3AF0E0E830D091505040E695001C25
:102D7800CAF729D0FE2F27D0660F771F881FBB1FE1
:102D8800261737074807AB07B0E809F0BB0B802DBB
:102D9800BF01FF2793585F4F3AF09E3F510568F0F7
:102DA8000C94BB280C9473285F3FE4F3983ED4F34B
:102DB80086950E9406299F5FD9F7880F911D9695E1
:102DC800879597F90895E1E0660F771F881FBB1F65
:102DD800621773078407BA0720F0621B730B840B12
:0A2DE800BA0BEE1F88F7E09508957E
:102DF200CF92DF92EF92FF920F931F93CF93DF93C5
:102E02008091E143823099F030F4882309F450C074
:102E1200813039F046C08330A1F0843009F448C0D3
:102E220040C00E94EB288823D1F182E03FC00E947B
:102E320083248823E9F10E94F01A882381F183E038
:102E420035C088E0809327040E94D00B882339F193
:102E52000E947429F62EE72ED82EC92E0E946F29C1
:102E6200EB01182F092F0E942F2ACF92DF92EF92A7
:102E7200FF920F931F93DF93CF9323E836E83F939C
:102E82002F939F938F930E9429260E94901F109246
:102E9200E1438DB79EB70C968DBF9EBF09C085E0FA
:102EA20005C08AEB96E80E94B91F84E08093E14353
:102EB200DF91CF911F910F91FF90EF90DF90CF9014
:022EC200089571
:102EC4000FC00E94642838F00E946B2820F09523DC
:102ED40011F00C94BB280C941D2A11240C94732813
:102EE4000E94782170F3959FC1F3950F50E0551F10
:102EF400629FF001729FBB27F00DB11D639FAA274B
:102F0400F00DB11DAA1F649F6627B00DA11D661F99
:102F1400829F2227B00DA11D621F739FB00DA11DBA
:102F2400621F839FA00D611D221F749F3327A00D74
:102F3400611D231F849F600D211D822F762F6A2F10
:102F440011249F5750409AF0E1F088234AF0EE0F85
:102F5400FF1FBB1F661F771F881F91505040A9F7A2
:102F64009E3F510570F00C94BB280C9473285F3F6E
:102F7400E4F3983ED4F386950E940629E7959F5F73
:102F8400D1F7FE2B880F911D9695879597F9089593
:102F940011C00E94642838F00E946B2820F039F494
:102FA4009F3F19F426F40C941D2A0EF4E095E7FBD8
:102FB4000C94BB28E92F0E94782158F3BA176207B2
:102FC40073078407950720F079F4A6F50C9472280A
:102FD4000EF4E0950B2EBA2FA02D0B01B901900130
:102FE4000C01CA01A0011124FF27591B99F0593F74
:102FF40050F4503E58F11A16F040A22F232F342FCC
:103004004427585FF3CF469537952795A795F04009
:103014005395C9F77EF41F16BA0B620B730B840B1E
:10302400AAF0915091F0FF0FBB1F661F771F881FF6
:10303400C2F70CC0BA0F621F731F841F38F4879540
:103044000E9406299E3F08F0B2CF9395880F08F09E
:0A3054009927EE0F979587950895D0
:10305E001F93CF93DF930F92CDB7DEB7182F109239
:10306E00E0430E94092A8BE00E94BF23811102C017
:10307E0080E047C08EE394E10E94292A1111F8CF17
:10308E0099818913F5CF8FE394E10E94D224EBEB63
:10309E00F3E40E94922983E494E10E94D224A7EBE8
:1030AE00B3E40E94262A87E494E10E9425278093A8
:1030BE00CF439093D04389E494E10E9425278093D7
:1030CE00CD439093CE438BE494E10E9425278093C9
:1030DE00CB439093CC438DE494E10E94292A8093B4
:1030EE00DE438EE494E10E94292A8093DD438FE42F
:1030FE0094E10E94292A8093DC438BE08093E04385
:0C310E0081E00F90DF91CF911F91089598
:10311A0088249924F401E401B0E49F93AA279A151C
:10312A008B049C04ED05FE05CF05D007A10798F492
:10313A00AD2FDC2FCF2FFE2FE92D982C892E982F1B
:10314A00872F762F652F542F432F322F2227B850DF
:10315A0031F7BF9127C01B2EBF91BB27220F331F08
:10316A00441F551F661F771F881F991F881C991CAB
:10317A00EE1FFF1FCC1FDD1FAA1FBB1F8A149B0453
:10318A00EC05FD05CE05DF05A007B10748F08A1852
:10319A009B08EC09FD09CE09DF09A00BB10B2160E0
:1031AA001A94E1F62EF49401AF01BE01CD01000C90
:0231BA00089576
:1031BC00A0E1B0E0E4EEF8E10C9460235C013B018B
:1031CC006A017901280181E04822552400FD14C0D0
:1031DC00421753078CF487010C191D094801A801EB
:1031EC000131110510F040E150E060E270E0CE01D9
:1031FC0001960E9480270AC0A601B301C5010E9456
:10320C00DA22CE14DF043CF3C6011EC000311105D6
:10321C0050F040E150E00E94092AC5010E94DA22D8
:10322C0000511109F3CFA4014F7055270E94092AB0
:10323C00C5010E94DA224114510429F4A601B301FC
:10324C00C5010E94DA22C7016096E0E10C9491233B
:10325C00DC01FB0111966D917C9112978091CF430B
:10326C009091D043681B790B0090DE4302C075959A
:10327C0067950A94E2F7608313962D913C9114970D
:10328C008091CD439091CE43281B390B0090DD43A8
:10329C0002C0359527950A94E2F7218315964D9136
:1032AC005C9116978091CB439091CC43481B590B62
:1032BC000090DC4302C0559547950A94E2F742838F
:1032CC002202C00111246602800D911D11244402BA
:1032DC00800D911D1124A0E0B0E081879287A38717
:1032EC00B487138214821582168217821086089571
:1032FC00CF9369ED73E48BE00E94BF23C82F882322
:10330C0009F440C0EBEBF3E40E949C298FE394E1B9
:10331C000E94C520A7EBB3E40E94972983E494E1B3
:10332C000E94C5206091CF437091D04387E494E113
:10333C000E945C256091CD437091CE4389E494E169
:10334C000E945C256091CB437091CC438BE494E15B
:10335C000E945C256091DE438DE494E10E946E2412
:10336C006091DD438EE494E10E946E246091DC4315
:10337C008FE494E10E946E246091D9438EE394E132
:0A338C000E946E248C2FCF9108954B
:10339600EF92FF920F931F93CF93DF930F92CDB7C8
:1033A600DEB769837A01022F60E00E943221182F6E
:1033B600882381F161E0CE0101960E941F22182F19
:1033C600811104C083E08093040924C08091070919
:1033D60081608093070981E0809304098091050943
:1033E60085FD0BC08091050982FD07C08091050906
:1033F60083FD03C00E94382989F70E94D5258823BA
:1034060029F083E08093040910E004C0602FC7010F
:103416000E940920812F0F90DF91CF911F910F916C
:06342600FF90EF900895F5
:10342C00CF93DF93DC01F9016438710551F164F439
:10343C0061387105D9F06238710509F426C060381D
:10344C00710509F031C01DC060397105F1F03CF413
:10345C006838710509F028C00E94C12922C0603A61
:10346C00710579F0603C710561F01EC00E94E32685
:10347C00052E000C660B770B40835183628373839C
:10348C0010C00E94C12951830CC00E94C1295183D4
:10349C00852F880F880B828383838483858386831F
:1034AC00878381E090E002C080E090E0DF91CF91D3
:0234BC00089571
:1034BE000F931F93CF93DF93DB012D913C911197C7
:1034CE0030FF25C016964D915C91179714962D914D
:1034DE003C9115974217530778F41296ED91FC9193
:1034EE001397808312962D913C9113972F5F3F4F28
:1034FE0012962D933C93139716962D913C911797F8
:10350E002F5F3F4F16962D933C93179715C01C9621
:10351E00ED91FC911D97309719F48FEF9FEF0CC032
:10352E008B01EC010995892BC1F7F80186819781F2
:10353E00019686839783CE01DF91CF911F910F91D4
:02354E000895DE
:10355000CF92DF92EF92FF920F93CF93DF936B01A5
:10356000D42F790160E00E945521C82F882379F17A
:103570006D2FC6010E943F22C82F811104C083E035
:103580008093240924C080912709816080932709B2
:1035900081E0809324098091250985FD0BC08091ED
:1035A000250982FD07C08091250983FD03C00E9483
:1035B0003D2989F70E94E325882329F083E0809341
:1035C0002409C0E004C0602FC7010E942F208C2F67
:1035D000DF91CF910F91FF90EF90DF90CF90089502
:1035E000CF93DF93CDB7DEB72E97CDBFDEBF42E0DE
:1035F000BE01635F7F4F8FEF9FE30E94F125811132
:1036000002C080E02DC08E858C7790E095958795DF
:10361000959587958093D3434CE00E94092A83E0D7
:1036200090E40E94F125882361F3E8E4F3E48981C2
:103630009A810E94E5290E942B258F8198850E94FE
:10364000E5298683978389859A850E94E529808765
:1036500091878B859C850E94E5298287938781E0ED
:0C3660002E96CDBFDEBFDF91CF91089504
:10366C00A2E0B0E0ECE3FBE10C945E231C010E94B1
:10367C00E5246D907C90179737FD03C08D7F89836F
:10368C009A830E94842688E0C82ED12C7201C40132
:10369C000E94C712298124FF06C00197F301E80F8D
:1036AC00F91F20E32083298123FF06C00197F30132
:1036BC00E80FF91F20E220830E94B127B301680FA5
:1036CC00791F9201C1010E94DE189C01F1018081D9
:1036DC00918190FF04C0D4010E9448280CF4C901C8
:0836EC002296E2E10C948F2309
:1036F40060E080E690E00E94E12960E081E690E0ED
:103704000E94E12960E085E690E00E94E12960E002
:1037140088E790E00E94E1296CE088E690E00E944E
:10372400E12960E089E690E00E94E12960E080E719
:1037340090E00E94E12960E08CE790E00E94E1299A
:1037440060E082E690E00E94E12960E083E690E098
:103754000E94E12960E084E690E00E94E12960E0B3
:0837640080E890E00C94E129DB
:10376C00A0E1B0E0ECEBFBE10C946A23FB01BA01A5
:10377C00AE014F5F5F4F7A0140E1D7011D924A9530
:10378C00E9F742E051E049835A838B839C83F7FF2E
:10379C0009C08FE490E080930A4190930B418FEF26
:1037AC009FEF14C0A9018C013197ED83FE83C701F3
:1037BC000E94A7234F8158852D813E8142175307C4
:1037CC0008F49A01F801E20FF31F10826096E6E00C
:0437DC000C949B238B
:1037E000AC01FA0190814F5F5F4F9032D1F3292FE6
:1037F000092E000C330B295031092530310588F38F
:103800009B3209F540E050E0319602C040E050E0C4
:1038100080E090E06AE02191022E000C330B2053EF
:1038200031092A30310548F4689FD001699FB00DF5
:103830001124CD01821B930BEECF452B49F49195BA
:103840008195910908959D3209F741E050E0DCCF60
:023850000895D9
:10385200E89404C097FB16F40E9489279923A9F0E3
:10386200F92F96E9BB279395F695879577956795F6
:10387200B795F111F8CFFAF4BB0F11F460FF1BC03A
:103882006F5F7F4F8F4F9F4F16C0882311F096E9CD
:1038920011C0772321F09EE8872F762F05C066237B
:1038A20071F096E8862F70E060E02AF09A95660F34
:1038B200771F881FDAF7880F9695879597F90895ED
:1038C200CF93C82F87EE95E80E94671FCC2311F093
:1038D20081E001C080E00E940324C82F0E94202AB8
:1038E200882359F083E196E80E94671F8CE394E1F4
:1038F2000E9425270E944A270BC08DE396E80E946A
:10390200671F0E944C29BC018CE394E10E945C2554
:10391200CC2329F085E796E8CF910C94671F8AE7BC
:1039220096E80E94671F85E08093E143CF91089556
:103932001F920F920FB60F9211240BB60F922F9374
:103942003F934F935F936F937F938F939F93AF9325
:10395200BF93EF93FF933A9B05C0E091C543F0916B
:10396200C64309953B9B05C0E091C343F091C44314
:1039720009958FEF87B9FF91EF91BF91AF919F9119
:103982008F917F916F915F914F913F912F910F9006
:0C3992000BBE0F900FBE0F901F901895F9
:10399E001F920F920FB60F9211240BB60F922F9308
:1039AE003F934F935F936F937F938F939F93AF93B9
:1039BE00BF93EF93FF9380914301E0910440F09108
:1039CE000540309709F009958091430181608093FD
:1039DE004301FF91EF91BF91AF919F918F917F9195
:1039EE006F915F914F913F912F910F900BBE0F9062
:0839FE000FBE0F901F901895F9
:103A0600A7E0B0E0E9E0FDE10C9464235C017A01F3
:103A1600C90127E0E4E5F3E4DE01119601900D9279
:103A26002A95E1F7FB01C280D380848095800081CE
:103A36001181452B21F49E012F5F3F4F790100979D
:103A460019F4C7010E941B26D7FC04C0C816D90664
:103A560008F4C6019401AC01B701C5010E94DE1845
:083A66002796ECE00C94952377
:103A6E00EF92FF920F931F93CF93DF93FC01208170
:103A7E00222311F1D62F8C010E9480280E948E28BD
:103A8E0061F0CF3F51F00E94CD288823E1F3F7017A
:103A9E0080810E947C25CF5FF1CF0E94CD288823A4
:103AAE00E1F38D2F0E947C250E94CD288823E1F31F
:103ABE000E94C1278111FCCFDF91CF911F910F91F1
:063ACE00FF90EF90089547
:103AD400A2E0B0E0E0E7FDE10C945E233C010E942B
:103AE400E5242D903C90179737FD03C08D7F898383
:103AF4009A830E9484268AE0C82ED12C7201C401C4
:103B04000E94C7120E94B127B101680F791F920168
:103B1400C3010E94DE189C01F3018081918190FF12
:103B240004C0D4010E9448280CF4C9012296E2E1A1
:043B34000C948F233B
:103B38001F920F920FB60F9211240BB60F922F936C
:103B48003F934F935F936F937F938F939F93AF931D
:103B5800BF93EF93FF93E091BF43F091C043309739
:103B680009F009958091C10081608093C100FF919F
:103B7800EF91BF91AF919F918F917F916F915F91DD
:103B88004F913F912F910F900BBE0F900FBE0F904A
:043B98001F901895CD
:103B9C001F920F920FB60F9211240BB60F922F9308
:103BAC003F934F935F936F937F938F939F93AF93B9
:103BBC00BF93EF93FF93E0910240F0910340309755
:103BCC0009F0099580915301816080935301FF9115
:103BDC00EF91BF91AF919F918F917F916F915F9179
:103BEC004F913F912F910F900BBE0F900FBE0F90E6
:043BFC001F90189569
:103C0000CF92DF92EF92FF920F931F93CF937C019D
:103C10006B0100E010E0C091E543CC2371F00E94FD
:103C2000BE1EB60186E090E40E940E21892B11F0A1
:103C300000000EC00000C0E00BC00E94DD29811111
:103C400004C00E94DF280F5F1F4F0E151F0518F3D9
:103C50008C2FCF911F910F91FF90EF90DF90CF901D
:023C60000895C5
:103C62001F920F920FB60F9211240BB60F922F9341
:103C72003F934F935F936F937F938F939F93AF93F2
:103C8200BF93EF93FF9380914008E0910040F09141
:103C92000140309709F00995FF91EF91BF91AF91E3
:103CA2009F918F917F916F915F914F913F912F9152
:0E3CB2000F900BBE0F900FBE0F901F90189535
:103CC0001F920F920FB60F9211240BB60F922F93E3
:103CD0003F934F935F936F937F938F939F93AF9394
:103CE000BF93EF93FF9380916008E0910040F091C3
:103CF0000140309709F00995FF91EF91BF91AF9185
:103D00009F918F917F916F915F914F913F912F91F3
:0E3D10000F900BBE0F900FBE0F901F901895D6
:103D1E001F920F920FB60F9211240BB60F922F9384
:103D2E003F934F935F936F937F938F939F93AF9335
:103D3E00BF93EF93FF93789B05C0E091C143F09141
:103D4E00C24309958FEF8FB9FF91EF91BF91AF915C
:103D5E009F918F917F916F915F914F913F912F9195
:0E3D6E000F900BBE0F900FBE0F901F90189578
:103D7C000E9495281092E54330910840209107400D
:103D8C00909106408091E243E82FF0E0E65FFF4B14
:103D9C0040814D3069F48093E24320930740309387
:103DAC0008409093064080818D3071F410820CC0D5
:103DBC004091E64351E0580F841769F34081852FF9
:0A3DCC00322F292F942FE0CF089525
:103DD6000E94802188F09F5798F0B92F9927B751F4
:103DE600B0F0E1F0660F771F881F991F1AF0BA9599
:103DF600C9F714C0B13091F00E947228B1E008955D
:103E06000C947228672F782F8827B85F39F0B93F4E
:103E1600CCF3869577956795B395D9F716F40E94F6
:043E2600892708954B
:103E2A000E94E5280E94D9290E947F2285E590E216
:103E3A000E94332988EB95E20E94472982E193E2A6
:103E4A000E944229C6B1C2FBCC27C0F98C2F0E941E
:103E5A00A0208C2F0E94611C78940E94DE21A895D4
:103E6A000E9486150E94792881110E94F916889568
:023E7A00F6CF81
:103E7C000F931F93CF9380910B428823F1F00E94F4
:103E8C0087280C2F10E0055F1D4BF80180818823DB
:103E9C0061F0CF3F51F00E94D9288823E1F3F8015B
:103EAC0080810E948B25CF5FECCF0E94D92888237C
:103EBC00E1F30E94E1278111FCCFCF911F910F916B
:023ECC00089557
:103ECE00EF92FF920F931F93CF93FC012081222339
:103EDE00D1F08C010E9487280E948E2861F0CF3F7E
:103EEE0051F00E94D9288823E1F3F70180810E94C6
:103EFE008B25CF5FF1CF0E94D9288823E1F30E9452
:103F0E00E1278111FCCFCF911F910F91FF90EF9080
:023F1E00089504
:103F20000F931F93CF9380910C418823F1F00E944F
:103F300080280C2F10E0045F1E4BF801808188233D
:103F400061F0CF3F51F00E94CD288823E1F3F801C2
:103F500080810E947C25CF5FECCF0E94CD288823F2
:103F6000E1F30E94C1278111FCCFCF911F910F91E6
:023F70000895B2
:103F7200EF92FF920F931F93CF93FC012081222394
:103F8200D1F08C010E9480280E948E2861F0CF3FE0
:103F920051F00E94CD288823E1F3F70180810E942D
:103FA2007C25CF5FF1CF0E94CD288823E1F30E94C8
:103FB200C1278111FCCFCF911F910F91FF90EF90FC
:023FC200089560
:103FC4001F93CF93DF93EC01162FA89581EF96E80A
:103FD4000E94671FCE010E94671F86E097E80E9437
:103FE400671F6DE0CE010E94371D6DEE76E8812FCC
:103FF40090E00E94001E882319F08BE097E802C02D
:0E40040080E197E8DF91CF911F910C94671F28
:1040120020E220930509FC0190E082E09617D1F09E
:104022002091050925FD0DC02091050922FD09C039
:104032002091050923FD05C0209105092370233035
:1040420079F72091080921939F5F691739F38093CB
:0C4052000409E4CF87E08093040908957E
:10405E0020E220932509FC0190E082E09617D1F032
:10406E002091250925FD0DC02091250922FD09C0AD
:10407E002091250923FD05C02091250923702330A9
:10408E0079F72091280921939F5F691739F380935F
:0C409E002409E4CF87E0809324090895F2
:1040AA009091E443992329F08532F9F41092E4437C
:1040BA000895853221F481E08093E44308958D3098
:1040CA0021F491E09093E54305C08E3319F491E011
:1040DA009093E343E091E643F0E0E65FFF4B808391
:0C40EA008091E6438F5F8093E6430895C9
:1040F6000F931F93CF93DF93CDB7DEB72697CDBF30
:10410600DEBF8C0146E00E94092A85E094E20E9407
:10411600F125882349F089819A810E94E529F801D1
:104126000E942B2581E001C080E02696CDBFDEBF30
:0A413600DF91CF911F910F910895C2
:10414000CF93C82F8AEB91E80E94671F0E944C25ED
:10415000811108C087EE91E80E94671F82E080937A
:10416000DF4311C08C2F0E942F18811107C080EFF0
:1041700091E80E94671F1092E04305C08AEF91E822
:0A418000CF910C94671FCF910895B2
:10418A00CF92DF92EF92FF92CF93DF93EC016A0115
:10419A007B01672F772788279927CE010E946E24F3
:1041AA006E2DCE0101960E946E246D2DCE010296CF
:1041BA000E946E246C2DCE010396DF91CF91FF9061
:0A41CA00EF90DF90CF900C946E246C
:1041D400990F0008550FAA0BE0E8FEEF1616170614
:1041E400E807F907C0F012161306E407F50798F07C
:1041F400621B730B840B950B39F40A2661F0232B95
:10420400242B252B21F408950A2609F4A140A69510
:084214008FEF811D811D08954B
:10421C00CF93DF93FB014081042E000C550B41150D
:10422C005105B9F0FC01CF012191222381F0022E1E
:10423C00000C330B42175307B1F7DB011196EF015A
:10424C002D91222331F039912317D1F3ECCF80E05B
:08425C0090E0DF91CF9108957D
:104264009091050993709330D1F0880F682B609377
:1042740007098091050985FD0BC08091050982FD20
:1042840007C08091050983FD03C00E94382989F77E
:104294000E94D525882329F083E08093040980E0D7
:0642A400089581E0089579
:1042AA009091250993709330D1F0880F682B609311
:1042BA0027098091250985FD0BC08091250982FD7A
:1042CA0007C08091250983FD03C00E943D2989F713
:1042DA000E94E325882329F083E08093240980E063
:0642EA00089581E0089533
:1042F00057FD9058440F551F59F05F3F71F0479597
:10430000880F97FB991F61F09F3F79F0879508957B
:10431000121613061406551FF2CF4695F1DF08C09A
:10432000161617061806991FF1CF869571056105B7
:044330000894089550
:104334000F93CF93DF93EB0190936F43809370437C
:1043440002E021E733E442E06FE673E48AE30E948B
:10435400A81A882351F080917143909172430E946E
:10436400E5298883998381E001C080E0DF91CF91C2
:044374000F91089508
:10437800A1E21A2EAA1BBB1BFD010DC0AA1FBB1F61
:10438800EE1FFF1FA217B307E407F50720F0A21BD3
:10439800B30BE40BF50B661F771F881F991F1A9440
:1043A80069F760957095809590959B01AC01BD016A
:0443B800CF01089594
:1043BC0081E08093650489E197E80E94671F0E9461
:1043CC00342A82E397E80E94671F0E94B426811169
:1043DC0005C080E197E80E94671F09C08BE097E851
:1043EC000E94671F6FEF8BE497E80E94E21F0C940A
:0243FC000F2789
:1043FE00CF93DF93EC0190E0E92FF0E0EE0FFF1F7B
:10440E00EE5DFC4B8081811102C081810EC0A881BE
:10441E00B9812C91821305C091811196A883B9831D
:10442E0001C09F5F9B3040F3892FDF91CF9108959C
:10443E00282FFC018E2F821B8617C0F4819180934A
:10444E0008098091050985FD0BC08091050982FD43
:10445E0007C08091050983FD03C00E94382989F7A2
:10446E008091050984FFE6CF80E0089581E00895EC
:10447E00282FFC018E2F821B8617C0F4819180930A
:10448E0028098091250985FD0BC08091250982FDA3
:10449E0007C08091250983FD03C00E943D2989F73D
:1044AE008091250984FFE6CF80E0089581E008958C
:1044BE00EF92FF921F93CF93DF937C01C0E0D0E089
:1044CE001091E343112319F01092E3430AC00E94A6
:1044DE00DD29811103C00E94DF282196CE15DF054C
:1044EE0078F3812FDF91CF911F91FF90EF90089578
:1044FE0081E080933E020E94E9270E94CD290E940E
:10450E001A250E94D1290E94C9270E94B9270E940C
:10451E002F240E94D1270E94D9270E94C7280E94CB
:0E452E00C1280E94D3280E9450260C944523D9
:10453C00FA0160387105BCF0623871051CF0633803
:10454C00710589F4A081B1819D012C5F3F4F2083BF
:10455C0031830E949729FC014083518362837383CA
:0C456C0081E090E0089580E090E0089568
:1045780097FB10F8169400080F93083098F008502D
:10458800232F342F452F562F672F782F892F902DC3
:10459800F4CF05949795879577956795579547959F
:0C45A800379527950A95AAF70F91089502
:1045B400A0E0B0E0E0EEF2E20C9468236C01EB01C1
:1045C4008A017B01E40EF51ECE15DF0541F08991C9
:1045D400B601082E000C990B0E945F1AF5CFC80192
:0A45E400CDB7DEB7E8E00C94992390
:1045EE000F931F93CF93DF9300D0CDB7DEB7082F75
:1045FE00162F0E94D529882339F009831A8342E0A9
:10460E000E947E290E9444240F900F90DF91CF913B
:06461E001F910F910895A9
:104624000E94D529882341F08091DF43823021F410
:1046340083E08093DF4308950E94D529811109C046
:1046440082E08093DF4382EE94E08093D1439093A1
:04465400D2430895B0
:10465800AB89BC892C9111963C91119712964C917B
:10466800129713965C91139714966C91149715965C
:104678007C91159716968C91169717969C91A0E0A9
:02468800089593
:10468A00109202401092034010920440109205408A
:10469A00E0E4F1E081E08583858B8283178220E064
:1046AA003FE02287338799EB9083828B81E3808B6B
:0246BA00089561
:1046BC002F923F924F925F926F927F928F929F9226
:1046CC00AF92BF92CF92DF92EF92FF920F931F9314
:1046DC00CF93DF93CDB7DEB7CA1BDB0BCDBFDEBFED
:0246EC0009942F
:1046EE000E94952880E090E0FC01E65FFF4B10826F
:1046FE000196811521E09207B9F71092E6431092C8
:10470E00E2431092E5431092E4431092E34308957E
:10471E002A88398848885F846E847D848C849B8443
:10472E00AA84B984C884DF80EE80FD800C811B8151
:10473E00AA81B981CE0FD11DCDBFDEBFED01089587
:10474E00A2E0B0E0EDEAF3E20C946C238C01498315
:10475E005A83AE014F5F5F4F0E947F09F80120819F
:10476E0024FF02C08FEF9FEF2296E4E00C949D236E
:10477E000F931F93CF93C82F8B010E94D5298823A7
:10478E0049F021E0A8016C2F8CE0CF911F910F9181
:0E479E000C94CB1980E0CF911F910F910895DC
:1047AC00052E97FB1EF400940E94112A57FD07D08A
:1047BC000E94BC2107FC03D04EF40C94112A509596
:0E47CC004095309521953F4F4F4F5F4F089518
:1047DA000F931F93CF93DF938B01D42F61E00E9435
:1047EA003221C82F882321F06D2FC8010E94092089
:0C47FA008C2FDF91CF911F910F9108953B
:10480600CF93882341F00E94400FC82F882359F088
:104816000E945A1308C00E942510C82F882399F3B6
:0C48260081E08093D4438C2FCF91089543
:10483200CF93DF930F92CDB7DEB70E94D52988239D
:1048420049F019820E947E290E94BF24882311F018
:0C485200898181700F90DF91CF91089553
:10485E00A0EAB4E090E115969C931597E0EEF5E092
:10486E0082818F7C828382818061828311969C9368
:0A487E00119780E212968C930895C2
:104888001F93CF93DF93EB01142F60E00E94322136
:10489800882339F0612FCE010E941F2293E0909364
:0A48A8000409DF91CF911F910895DC
:1048B2001F93CF93DF93EB01142F60E00E945521E9
:1048C200882339F0612FCE010E943F2293E090931A
:0A48D2002409DF91CF911F91089592
:1048DC001F93CF93DF93EC01162F43E16DE980E03A
:1048EC0090E10E945129188340E06DE980E090E14D
:0A48FC00DF91CF911F910C94512918
:10490600CF93DF9300D0CDB7DEB7CE0101960E94DC
:104916006A29882319F08981817001C080E00F908F
:084926000F90DF91CF9108957D
:10492E0097FB072E16F4009407D077FD09D00E944E
:10493E00AB2407FC05D03EF4909581959F4F0895CA
:08494E00709561957F4F0895FB
:10495600AA1BBB1B51E107C0AA1FBB1FA617B7079F
:1049660010F0A61BB70B881F991F5A95A9F78095BB
:084976009095BC01CD010895EC
:10497E000F931F93CF938B0161E00E943221C82FBA
:10498E00882321F061E0C8010E9409208C2FCF916D
:06499E001F910F91089526
:1049A400FC019C012C5F3F4F60E070E0CB01B82F0D
:1049B400A72F962F88274191BC01CD01642BE217C4
:0649C400F307A9F70895B6
:1049CA004B01FA01DB0112962D913C911397149633
:1049DA004D905C9015978D919C91119789839A833C
:0449EA001696089580
:1049EE00CF93DF93EC010E94D529882339F048E05C
:1049FE00BE018CE0DF91CF910C94ED2380E0DF912E
:044A0E00CF910895A7
:104A1200092E0394000C11F4882352F0BB0F40F4CA
:104A2200BF2B11F460FF04C06F5F7F4F8F4F9F4F0A
:024A32000895E5
:104A3400A0E4B4E09CE011969C931197E0EEF5E0BD
:104A440085818C7F85838581826085831C969C9378
:024A54000895C3
:104A5600808391838B819C819827892798278283DD
:104A660093838D819E8198278927982784839583B0
:024A76000895A1
:104A7800C756DF4FE881F981C959D040CF01019667
:104A8800C756DF4F88839983C959D040208108953C
:104A98000E94012A882351F065EB85E10E94F722E4
:104AA800882321F06DE284E10C94F72280E00895D8
:104AB8001F93CF93DF93EC01162F672F0E946E246C
:104AC800612FCE010196DF91CF911F910C946E2436
:104AD8006095709580959095309540955095219565
:104AE8003F4F4F4F5F4F6F4F7F4F8F4F9F4F0895EF
:104AF800CF93C82F0E94CD28882339F0909144087D
:0E4B0800906490934408C0934208CF910895A2
:104B1600CF93C82F0E94D928882339F09091640832
:0E4B2600906490936408C0936208CF91089544
:104B340097FF03C09195819591099C0181E02038EC
:0E4B4400310524F0359527958F5FF9CF089540
:104B52000D2C000CEE08FF08ABEAB3E44D905D901B
:0E4B62006D907C90C40CD51CE61CF71C0895C9
:104B70008091E143811103C081E08093E143809102
:0E4B8000E143843019F485E08093E143089509
:104B8E00C756DF4F88819981C959D0400196C756C3
:0C4B9E00DF4F88839983C959D0400895E7
:104BAA00809105098C7141F490910509937081E017
:0C4BBA00933019F080E0089581E0089528
:104BC600809125098C7141F490912509937081E0BB
:0C4BD600933019F080E0089581E008950C
:104BE2000F939B01EFE6F3E490838183042F42E06D
:0C4BF200BF018AE30E94A81A0F910895E9
:104BFE0090E0982F8827A0E0B0E06A017B01C82AD8
:0C4C0E00D92AEA2AFB2AC701B601089542
:104C1A00689401C0E8948F929F92CF93DF930E9489
:0C4C2A008D18DF91CF919F908F9008951E
:104C3600FC01AF014F5F5F4F2081222311F0FA0183
:0C4C4600F8CF9F01281B390BC90108950D
:104C5200A0E0B0E0EFE2F6E20C946E230E9491270E
:0A4C62000E949C28E2E00C949F23BE
:104C6C00A0E0B0E0ECE3F6E20C946E230E949127F6
:0A4C7C000E949C28E2E00C949F23A4
:104C8600F8E081E0838780E8858383E087838BE88B
:0A4C960090E0808791871682089550
:104CA000E0E0FBE081E0808796E09183848320EA66
:0A4CB0003FE02487358780830895D4
:104CBA000E94F1282F8168850E945C272E810E941C
:0A4CCA00F9298D810E94FF2508954D
:104CD4000E94F1282B856C850E945C272A850E94FE
:0A4CE400F92989850E94FF25089533
:104CEE000E94F1282F8568890E945C272E850E94DC
:0A4CFE00F9298D850E94FF25089515
:104D080000811181228133814481558166817781B7
:084D1800FE0131965F010895D0
:104D2000212F110F330B2154310989899A89820D62
:084D3000931D2A31310508959D
:104D3800F9E084E08083118281E082839DEF95838E
:084D48009FE096838383089528
:104D500040E068ED80E191E00E945129E0E1F1E05E
:084D60001282138280E0089525
:104D6800A89581E08093660485EE96E80E94B91FB5
:084D780084E690E00C945F2238
:104D80000024A7FD00942A0F301D401D501D601DFA
:084D9000701D801D901D0895A7
:104D98000024A7FD00942A1730054005500560053A
:084DA8007005800590050895D7
:104DB0000E94C725D701ED91FC911197CF01029672
:064DC0008D939C93089501
:104DC600C081D181CE01029680839183E881F981E9
:064DD600ED93FC9308952B
:104DDC00EFE6F3E4908381837283638344E0BF0145
:064DEC008AE30C94592437
:104DF2002B816C810E945C272A810E94F92989817A
:064E02000E94FF25089547
:104E08002091C9433091CA432F5F3F4F2093C94334
:064E18003093CA43089527
:104E1E006DE089EE96E80E94371D0E94772381E0AF
:064E2E0080936504089565
:104E3400EC010E943C2A0E943B2ACE010E943D2A9A
:064E4400CE010E94362A97
:104E4A00FC01208130E0322F22278181A901482BE1
:044E5A00CA010895EC
:104E5E0020E632E442EA5DE060E070E080E89FE345
:024E6E000895A5
:104E70002A893B814C81572D662D752D842D9D816E
:024E8000089593
:104E820020E030E040E251E46B817C818D819E81A3
:024E9200089581
:104E94002091410122FDFCCF80934A0190934B0164
:024EA40008956F
:104EA600108A118A128A138A148A158A168A178A10
:024EB60008955D
:104EB800862F90E0A0E0B0E0DC0199278827B22B8C
:024EC80008954B
:104ECA00B8EE4B2EB3E05B2E612C712CA30192013C
:024EDA00089539
:104EDC00EE0FFF1F0024001C0BBE0790F691E02D77
:024EEC00099427
:104EEE009C01215631092A31310510F48F7599270D
:024EFE00089515
:104F0000FC01480F591FE417F50711F06193FBCF1F
:024F1000089502
:104F120090958095709561957F4F8F4F9F4F089523
:104F2200AE01475F5F4F6F8178858D819E810895C5
:104F3200D040CD57DF4F68827982C358D040089560
:104F4200632D70E0970140E050E00E94B929089576
:104F5200AE0145575F4FBE016F577F4FC60108959F
:104F620009811A81D4010E944F28481B590B0895C8
:104F72001092004010920140E0E40E9443260895FE
:104F82008091440886FB882780F991E0892708955B
:104F9200E0EAF4E08CE0818398E0938784870895C7
:104FA2001092004010920140E0E60E9443260895CC
:104FB200E0E2F4E081E08583818382E082830895E8
:104FC2008091640886FB882780F991E089270895FB
:104FD2001092BF431092C04381E08093C0000895B5
:104FE200762767277627072E000C880B990B0895E2
:104FF2009C01215431092A31310508F48062089557
:10500200FC01DB012D91BD0121932111FACF0895FD
:0E501200C756DF4F88819981C959D040089553
:0E5020000E943A288081082E000C990B0895FA
:0E502E00C756DF4F88829982C959D040089535
:0E503C00C756DF4FE883F983C959D040089565
:0E504A00CF57DF4F28813981C158D0400895DB
:0E505800CD57DF4F88839983C358D040089509
:0E506600CB57DF4F88839983C558D0400895FB
:0E507400C756DF4FE881F981C959D040089531
:0E5082004F815885415051094F83588708953A
:0E50900012968D919C911397821793070895A5
:0E509E0018964D915C91199741505109089553
:0E50AC005058BB27AA270E94CA170C9409254A
:0E50BA000E94EB1E6894B1110C9473280895A7
:0E50C80000240A941616170618060906089505
:0E50D60000240A941216130614060506089507
:0E50E400E894BB2766277727CB0197F908953C
:0E50F20081E09091E0439B3009F080E008954A
:0E51000080914408806480934408C0E00895C4
:0E510E0080916408806480936408C0E0089576
:0E511C007801EC0EF11CF701808188230895C4
:0E512A00E6E0F0E413821282118210820895F2
:0E5138009A01AB016FEF7FE70E94B61B08954E
:0C5146000E94FD295BE7C701B601089537
:0C515200632D70E0A7010E94B9290895A8
:0C515E000E94152902968D939C930895E1
:0C516A009101A201B301C401A0E008956E
:0C51760097F99F6780E870E060E0089502
:0C518200E0E4F8E08681806486830895F4
:0C518E00E0E4F8E08681806886830895E4
:0C519A008091440885FB882780F9089567
:0C51A600E0E6F8E08681806486830895CE
:0C51B2008091640885FB882780F908952F
:0C51BE000000000081E0809300020895D2
:0C51CA000E940D160E947A1B0C94A8266F
:0C51D60062E078E081E090E30C94EE26AB
:0C51E2006D937D938D939C93139708951B
:0A51EE00880F991FAA1FBB1F089528
:0A51F80020E030E040E05BE40895A1
:0A520200612F7C2D8D2D9F2D089546
:0A520C0077956795B795F79508951B
:0A5216000E94C7250E94A9270895F1
:0A5220000E943C250E94A927089572
:0A522A00CD91DC911197CE0108959B
:0A5234002B813C814D815E810895BD
:0A523E00B7FAB094B7F8B0940895E1
:0A5248006B837C838D839E830895A1
:0A5252000E94EA2008F481E00895AC
:0A525C000E94EA2008F48FEF089585
:0A52660080930040909301400895EA
:0A52700080910509837083300895D2
:0A527A0080912509837083300895A8
:0A5284008093BF439093C043089548
:0A528E0080930440909305400895BA
:0A52980080914A0190914B010895A6
:0A52A2001BBEFC0164BF40830895A9
:0A52AC008F938FEF83B98F9118954F
:0A52B6008F938FEF8BB98F9118953D
:0A52C0008F938FEF83BB8F91189539
:0A52CA008F938FEF87BB8F9118952B
:0A52D400BC018FEF9FE30C949A21B8
:0A52DE00E7E6F3E40E94B02908950A
:0A52E800EBE6F3E40E94B0290895FC
:0A52F200208131814281538108952B
:0A52FC00BE016F5F7F4F8CE0089544
:0A5306002D913D914D915C910895A9
:0A531000072E000C880B990B08957E
:0A531A00A7019601C701B60108952E
:0A53240060837183828393830895F0
:0A532E004D915D916D917C91089501
:0A5338004081518162817381089564
:0A534200C082D182E282F382089556
:0A534C006C0D7D1D8E1D9F1D089540
:0A53560069837A838B839C8308959A
:0A53600060817181828193810895BC
:08536A000E943A288081089599
:08537200CE0185579F4F0895FD
:08537A00DF4F1882198208952B
:085382000E94E3264083089518
:08538A000E948C160C94092509
:085392000E9462170C9409252A
:08539A00E0E00E949C2608954A
:0853A200E0E20E949C26089540
:0853AA008091C200817008959A
:0853B20083E080935000089590
:0853BA008091070B817008953A
:0853C200462F68ED0C945129FF
:0853CA00982789279827089510
:0853D20020E030E040E0089506
:0853DA000E94FD295FE3089524
:0853E2000E94FD295BE3089520
:0853EA000E94FD295AE3089519
:0853F200AC01BD01422B08953E
:0853FA0020E030E040E80895D6
:0854020066E081E10C94F72241
:08540A00682F80E10C94F722E9
:08541200BE016F5F7F4F08959A
:08541A008091DB438823089513
:065422000E948927089595
:0654280080E090E0089511
:06542E000E94C72508954D
:065434000E944F280895BC
:06543A009FEF80EC0895D5
:065440008091D4430895A1
:065446000E94FD290895FB
:06544C000E94F128089502
:06545200FC0180810895B9
:065458008BE092E40895D0
:06545E008CE091E40895CA
:045464000C940000A4
:045468000C94772306
:04546C000E94DB00BF
:0254700008959D
:0254720008959B
:02547400089599
:02547600089597
:02547800089595
:02547A00089593
:10547C009E849E849F849E84D0849E8410855A85AD
:08548C009E84AD859E849E8480
:1054940068076C094C836A9074A07AC0008068889D
:0654A40000846C8200810F
:1054AA00494E4600696E66004E414E006E616E00BE
:0754BA00286E756C6C2900DF
:0654C100286E696C290051
:0454C7000000C841D8
:0454CB000000C841D4
:0254CF00E204F5
:0154D10001D9
:0154D20001D8
:02000004008278
:090000000800000000C00D000022
:00000001FF
