:100000000C9499000C94832B0C94832B0C94832BCD
:100010000C94A7210C94A41F0C94CE260C94832B33
:100020000C94832B0C94832B0C94832B0C94832B98
:100030000C94832B0C94832B0C94832B0C94832B88
:100040000C94832B0C94832B0C94832B0C94832B78
:100050000C94832B0C943B220C94832B0C94832BB9
:100060000C94832B0C94832B0C94832B0C94832B58
:100070000C94832B0C94832B0C94832B0C94832B48
:100080000C94832B0C94832B0C94832B0C94832B38
:100090000C94832B0C94832B0C940A220C94832BAA
:1000A0000C94832B0C94832B0F052D0538054405E8
:1000B000C605D605770699069F061C0795079E0775
:1000C000400040028040024B530057144B534E51A6
:1000D000804E514E850062654E854EA6804EA64EDE
:1000E000FE0062994EFE4F0A804F0A4F170062F1E0
:1000F0004F174F25804F254F2D0062FE4F2D4F315A
:10010000804F314F390063064F394F95804F954FDF
:100110009800630E4F984F9B804F9B4F9C0063113C
:100120004F9C4FA5804FA54FA60063124FA64FB717
:10013000800011241FBECFEFCDBFDFE7DEBFE0ECB4
:10014000F0E041E019C0B791A7913791279107914D
:1001500007FD0EC097918791EF01F92FE82F0BBF94
:1001600007900D92A217B307D9F7FE011BBE04C07A
:100170001D92A217B307E1F7E133F40721F70E94BC
:0A018000C5000C94E628F894FFCFA8
:10018A00CF93DF93CDB7DEB7A197CDBFDEBF93E0A4
:10019A009093500081E080933E0228E82093100457
:1001AA002EE32093610430E830936B0428E3209314
:1001BA006D0424E02093760410928B4F10928C4F9A
:1001CA002093000910920109809302092DEF2093D0
:1001DA0005092FE020930609809303094CE0409318
:1001EA0041042091E5052C7F2093E5052091E50542
:1001FA0022602093E50540934C0480930B083093CA
:10020A000508909307084BE850E04093080850937C
:10021A0009081092060830E1309305042091E2059E
:10022A002C7F2093E2052091E20521602093E205CC
:10023A003093010420E2209302041092894F109215
:10024A008A4F80934B0820E92093450890934708EA
:10025A004093480850934908109246088093A50491
:10026A008093A10422E02093A2042091060820682A
:10027A0020930608209106082064209306082091FE
:10028A0046082064209346088093080B26E02093B2
:10029A00010B8093040B20EA3FE020930C0B309370
:1002AA000D0B8093000B8093450180935501909329
:1002BA004201109247018091410182FDFCCF80E00A
:1002CA009FE080934A0190934B018091410183FD05
:1002DA00FCCF80EC9DE080934C0190934D0180917E
:1002EA00410180FDFCCF89EB8093400181E080933E
:1002FA00520181E3809350018AE19EE18093874F06
:10030A009093884F87E792E180938F4F9093904F15
:10031A008CE997E280938D4F90938E4F12B11170B2
:10032A0089E590E00E949529111109C08A3739F4AC
:10033A008AE590E00E94112B0E94372402C00E9495
:10034A00D82782B181708093B24F82E090E40E94F4
:10035A00C8230E944827811108C08FE290E40E94B6
:10036A00C82382E08093B04F0EC0812F0E945B1D8C
:10037A00811105C01092A44F88E390E402C082E480
:10038A0090E40E94C82387E490E40E94C8231123C2
:10039A0031F00E94C9228111A3C010E0A9C00E94B5
:1003AA00C9228823B1F380E090E00E94112B5C01FE
:1003BA0082E090E00E94112B6C0184E090E00E94A0
:1003CA00112B7C0185010C251D25082719278AE395
:1003DA0090E00E94112B8C8B9D8B8C899D8908172C
:1003EA001907B9F6E7E1FFE480819181A816B906F9
:1003FA0081F682819381C816D90659F6848195813E
:10040A00E816F90631F686E090E00E94BC2AE1E798
:10041A00FFE40E94772B8AE090E00E94BC2AADE6B6
:10042A00BFE40E945E2A8EE090E00E94BC2AE9E6C0
:10043A00FFE40E94772B82E190E00E94BC2AA5E7A4
:10044A00BFE40E945E2A86E190E00E94BC2AEDE3A6
:10045A00FFE40E94772B8AE190E00E94BC2AA9E37C
:10046A00BFE40E945E2A8EE190E00E94BC2AE5E683
:10047A00FFE40E94772B82E290E00E94BC2AA9E561
:10048A00BFE40E945E2A86E290E00E94BC2AEDE563
:10049A00FFE40E94772B8AE290E00E94BC2AADE733
:1004AA00BFE40E945E2A8EE290E00E94BC2AE9E73D
:1004BA00FFE40E94772B82E390E00E94BC2AA1E627
:1004CA00BFE40E945E2A86E390E00E94BC2AE5E52A
:1004DA00FFE40E94772B81E08093AA4F11E008C0C5
:1004EA000E94C516882309F458CF0E94121AF6CF23
:1004FA008091AA4F882309F183E790E40E94C823D8
:10050A008CE390E00E94112B0E9413248EE390E06A
:10051A000E94BC2AE1E3FFE40E94772B82E490E088
:10052A000E94BC2AA5E3BFE40E945E2A86E490E00A
:10053A000E9495298093A54F06C08DE990E40E94F8
:10054A00C8230E944221112329F082E490E40E94E8
:10055A00C82307C08FE290E40E94C82385E08093F5
:10056A009A4F78941092854F0E946E2584E080936A
:10057A0066042EEF222E2EE4322EA895A89580919D
:10058A00A64F882309F416C18091A64F882321F12A
:10059A000E940E2A813201F585ED90E40E94C8235B
:1005AA006FEF82E59DE40E942D250E94C7248DEEFF
:1005BA0090E40E94C823E0918F4FF091904F3097BA
:1005CA00D1F00995882319F080EF90E402C08BEFEF
:1005DA0090E40E949C220FC087E091E40E94C82305
:1005EA006FEF82E59DE40E942D250E94C7248DEEBF
:1005FA0090E40E94C8238091A64F882379F10E9433
:10060A000E2A853259F58AE191E40E94C8236FEFD8
:10061A0082E59DE40E942D250E94C7248DEE90E478
:10062A000E94C82384E391E40E94F622811118C033
:10063A008BE391E40E94F622811114C086E491E4CE
:10064A000E94F622811110C08EE491E40E94F622E3
:10065A0081110CC08AE591E40E94C82380E007C09A
:10066A0081E005C084E003C083E001C082E090918C
:10067A009B4F933009F466C030F4913059F09230B0
:10068A0009F44CC073C0953009F46BC0963009F474
:10069A006AC06CC0813009F069C086E891E40E94A2
:1006AA00C823A895A89584EB91E40E949C2288EB24
:1006BA0091E40E94C82300E010E080919E4F8823B5
:1006CA00B9F010929E4F82E490E40E94C8236FEF23
:1006DA0088ED91E40E94221C6FEF8EED91E40E9456
:1006EA00221C60E08AEE91E40E94221C82E03CC057
:1006FA008091070B80FD04C00E94642A0F5F1F4F80
:10070A0004361105D0F28FE290E40E94C82381ECEE
:10071A0095E40E946C220E946E2528C0813031F433
:10072A0062E38EEE91E40E94221C1DC08330F1F434
:10073A0069E180EF91E40E94221C95E0A92EA09223
:10074A009B4F14C0823029F485E0B82EB0929B4F9B
:10075A000DC0833059F469E180EF91E40E94221CB4
:10076A0005C0843019F483E080939B4F8091A64F93
:10077A00882309F404CF8091A64F81508093A64F15
:10078A008091A64F81110CC01092A64F1092A94FCA
:10079A001092A34FF4CE0E940E2A813209F4EFCEB2
:1007AA008091A94F8F5F8093A94F0E940E2A8D30A6
:1007BA0091F7E5CE8091B24F811108C0109B09C014
:1007CA0081E08093B24F8093B14F03C0109B109287
:1007DA00B24F0E94332B81110AC08091B04F8230F0
:1007EA0031F082E08093B04F81E08093994F8091FD
:1007FA00B04F8130B9F038F0833009F4C4C3843083
:10080A0009F4C3C3D2C38091A44F8B3011F462E0C0
:10081A0001C06AE080E10E945B24882309F4C3C313
:10082A0081E0C8C30E94332B882309F4C5C3198207
:10083A0061E08CE00E940426882309F4BDC361E0CC
:10084A00CE0101960E947723898180FFB5C30E9459
:10085A00332B882309F4E9C561E08CE00E94042661
:10086A00882309F4E2C568E0CE0101960E94772345
:10087A00CA80DB808091854F9091864FD601A81B54
:10088A00B90BEC80FD808091834F9091844F470192
:10089A00881A990A0E811F818091814F9091824F07
:1008AA009801281B390B2E8B3F8BFD010090974F27
:1008BA0002C0F595E7950A94E2F7A4010090964FD5
:1008CA0002C0559547950A94E2F70090954F02C0E9
:1008DA00359527950A94E2F7EE9F5001EF9FB00CE9
:1008EA00B00C11242501BB0C66087708449F5001FF
:1008FA00459FB00CB00C1124B501BB0C0E94152AFF
:10090A00229FC001239F900D900D1124BC01990FC5
:10091A000E94152A488A598A6A8A7B8AE038F10530
:10092A0014F08FE705C0E0388FEFF8071CF480E871
:10093A008D8701C0ED874038510514F08FE705C057
:10094A0040389FEF59071CF480E88E8701C04E8714
:10095A002038310514F08FE705C02038EFEF3E0745
:10096A001CF480E88F8701C02F87E091A44FEB30F9
:10097A0039F58091B14F811123C0CE010D960E94A5
:10098A00BF1D9091984F882321F0992339F09150F7
:10099A0003C0943619F09F5F9093984F8091AB4FA4
:1009AA00843121F09091984F9A3031F481E080930C
:1009BA00994F1092AB4FE4C28F5F8093AB4FE0C266
:1009CA008091AF4F893118F01092AF4F03C08F5FFB
:1009DA008093AF4F40911D4F50911E4F60911F4F12
:1009EA007091204F441555056605770540F44092ED
:1009FA001D4F50921E4F60921F4F7092204F4E2FE4
:100A0A0050E04C30510508F096C2FA01EC5AFF4FFB
:100A1A000C9432291092AE4F81E08093A44F109229
:100A2A004D4F10924E4F10924F4F1092504F1092BE
:100A3A00494F10924A4F10924B4F10924C4F1092BE
:100A4A00454F1092464F1092474F1092484F73C22B
:100A5A006AE080E10E945B24811102C282EF91E484
:100A6A000E94C82368C20E945B2B09F464C284E214
:100A7A0092E40E949C2283E08093A44F8DC00E943E
:100A8A00FB28C601DD0C0E943A266701FF0CEE081E
:100A9A00FF08A9E4BFE44D905D906D907C904C0CEA
:100AAA005D1C6E1C7F1CA9E4BFE44D925D926D92A1
:100ABA007C921397012E000C220B330BA5E4BFE4A2
:100ACA008D909D90AD90BC90800E911EA21EB31E7B
:100ADA00A5E4BFE48D929D92AD92BC921397E83E35
:100AEA00F34008F428C20E94E92A0E94E526CA01B6
:100AFA00B9010E9469200E94A01A0E94232A162F77
:100B0A00072F6093854F7093864FC301B2010E94ED
:100B1A00E92A0E94E526CA01B9010E9469200E94B9
:100B2A00A01A0E94232AF62EE72E6093834F709311
:100B3A00844FC501B4010E94E92A0E94E526CA0130
:100B4A00B9010E9469200E94A01A0E94232A609378
:100B5A00814F7093824F7F936F93EF92FF920F931F
:100B6A001F9329E432E43F932F9382E59DE49F93F8
:100B7A008F930E943C280E94C72484E08093A44F4C
:100B8A00AEC00E945B2B09F4D6C18FE792E40E94A3
:100B9A009C2295E09093A44F1092934F1092944FF9
:100BAA00CAC10E94FB28CD01BB0F0E943A26092C1C
:100BBA00000CAA08BB08A9E4BFE40D911D912D9170
:100BCA003C91800E911EA21EB31EA9E4BFE48D9231
:100BDA009D92AD92BC9213970E891F896801110FDD
:100BEA00EE08FF08A5E4BFE40D911D912D913C91FB
:100BFA00C00ED11EE21EF31EA5E4BFE4CD92DD9223
:100C0A00ED92FC921397E83EF34008F494C10E94D7
:100C1A00E92A0E94E526CA01B9010E9469200E94B8
:100C2A00A01A0E94232A2B013C01EDE4FFE40E9452
:100C3A00772BC501B4010E94E92A0E94E526CA0160
:100C4A00B9010E9469200E94A01A0E94232A4B011E
:100C5A005C01A9E4BFE40E945E2AC701B6010E94B2
:100C6A00E92A0E94E526CA01B9010E9469200E9468
:100C7A00A01A0E94232A6B017C01E5E4FFE40E948A
:100C8A00772BC2010E94AB27182F8093974FC4017C
:100C9A000E94AB27082F8093964FC6010E94AB276C
:100CAA008093954F1F928F931F920F931F921F93BA
:100CBA0026EA32E43F932F9382E59DE49F938F9334
:100CCA000E943C280E94C72486E08093A44F109279
:100CDA001D4F10921E4F10921F4F1092204FCDBFE2
:100CEA00DEBF29C199E2491651046104710430F446
:100CFA008BEE92E40E94C82387E0B3C00E945B2B6C
:100D0A0009F419C18EE493E40E949C221092934F35
:100D1A001092944F1092414F1092424F1092434FAB
:100D2A001092444F88E09DC00E945B2B09F403C1D6
:100D3A0086E097C02091934F3091944F2F5F3F4F99
:100D4A002093934F3093944FE1E4FFE480819181A3
:100D5A00A281B381BC01CD01640D751D861D971D4D
:100D6A00A1E4BFE40E945E2A283E334008F4E3C0AF
:100D7A000E94E92A0E94E526CA01B9010E94692057
:100D8A000E94A01A0E942323A1E2BFE40E945E2AC5
:100D9A00683271058105910520F488E793E40E9481
:100DAA00C823E1E2FFE40E94CB2A0E94672026E6DC
:100DBA0036E646E65FE30E94672B0E94A01A0E946D
:100DCA002323162F072FF82EE92E6093214F7093B5
:100DDA00224F8093234F9093244FADE1BFE40E94AA
:100DEA00C62A0E9467202DEC3CEC4CE85FE30E9487
:100DFA00672B0E94A01A0E942323EDE1FFE40E94C0
:100E0A00772BEF92FF920F931F93E4ECF3E4FF9397
:100E1A00EF9382E59DE49F938F930E943C280E9462
:100E2A00C72489E08093A44F1092AD4F58CFCE01CA
:100E3A000D960E94BF1D9091AD4F882321F09923F2
:100E4A0039F0915003C0943618F49F5F9093AD4FD8
:100E5A008091AD4F8A3040F085EF93E40E949C2246
:100E6A0082E08093A44F67C00E945B2B09F463C0A1
:100E7A0087E294E40E949C228AE08093A44F109215
:100E8A00AF4F0E94332B882309F447C08CEA9FE4B2
:100E9A000E949F20882309F440C0E1E2FFE40E94F7
:100EAA00E42A88E490E00E949D29ADE1BFE40E9413
:100EBA00F32A8CE490E00E949D296091854F7091FD
:100ECA00864F80E590E00E94162B6091834F7091C7
:100EDA00844F82E590E00E94162B6091814F7091B9
:100EEA00824F84E590E00E94162B6091974F86E529
:100EFA0090E00E94B6266091964F87E590E00E94A6
:100F0A00B6266091954F88E590E00E94B6266091DA
:100F1A00AC4F87E490E00E94B6261092984F0BC01F
:100F2A0062E080E10E945B24882309F497CD8BE07C
:100F3A0098CF1092A44FE091A44F8091AE4F8E1398
:100F4A0008C08091914F9091924F803213E091079F
:100F5A0090F0F0E0EE0FFF1FE054F14B8081918199
:100F6A000E949C228091A44F8093AE4F1092914F81
:100F7A001092924F05C001968093914F9093924F91
:100F8A001092B14F19C084E015C00E9448278823E7
:100F9A0051F080E494E40E94C82380E00E945B1D23
:100FAA001092B04F09C082E005C00E94332B8823FB
:100FBA0019F083E08093B04F8091A44F8B3009F0F1
:100FCA00E4C180919A4F8230C1F130F4882309F448
:100FDA00DCC1813041F0D2C1833009F4A7C084302A
:100FEA0009F4D3C1CBC190E39093514F8093524FF0
:100FFA0088E08093534F12E01093544F60E08AE3E5
:10100A000E940426811108C086E694E40E94C8233F
:10101A0025E020939A4FB9C164E081E59FE40E94DC
:10102A00AC2593E090930409882371F38CE994E446
:10103A000E94C82310939A4FA8C18FE38093514FFF
:10104A008FEF8093524F60E08AE30E940426882340
:10105A0009F49BC162E081E59FE40E94AC258111FD
:10106A0003C00E944B2B91C162E083E59FE40E947A
:10107A002026882309F489C18091534F9091544FB7
:10108A009827892780FF81C142E0BE01635F7F4FB5
:10109A008FEF9FE30E94EE23882309F444C08E85D4
:1010AA008C7790E095958795959587958093B34F22
:1010BA004CE00E94472B83E090E40E94EE238823B1
:1010CA0091F189819A810E944F2BD1018D939C9332
:1010DA0011978B819C810E944F2B12968D939C9322
:1010EA0013978D819E810E944F2B14968D939C930A
:1010FA0015978F8198850E944F2B16968D939C93F6
:10110A00179789859A850E944F2B18968D939C93E1
:10111A0019978B859C850E944F2B1A968D939C93C9
:10112A001B9783E030C188EC94E48FC18091B34F60
:10113A00823029F08091B34F813009F084C1F101E6
:10114A00628573850E94F82A0E9469204B015C011E
:10115A00D10114966D917C9115970E94F82A0E94EC
:10116A00692020E030E040E451E40E94632B6B01E7
:10117A007C01EDE7FFE40E947D2B0E94672BA5010D
:10118A0094010E941D2A9B01AC01C701B6010E946D
:10119A00632B0E94532B59E40E94672B6E8B7F8B23
:1011AA00888F998F8091B34F813049F4D1016D9125
:1011BA007C91119712968D919C91139705C0F1011C
:1011CA006681778180859185680F791F0E94F82A48
:1011DA000E9469200E94532B5FE30E94672B20E044
:1011EA0030E040E451E40E94632B2B013C01A9E763
:1011FA00BFE40E94EE2AC701B6010E94672BA5012F
:10120A0094010E941D2A9B01AC01C301B2010E94F4
:10121A00632B0E94532B59E40E94672B2B013C013C
:10122A00A1E7BFE40E94EE2A6E897F89888D998D95
:10123A000E941C2A6B017C01EDE6FFE40E947D2BD3
:10124A000E94632BA5E7BFE40E94EE2A0E941D2A92
:10125A004B015C010E94FD2A0E94672BE9E6FFE42C
:10126A000E947D2B0E94672B9B01AC01C501B40132
:10127A000E941D2A4B015C01A5E2BFE40E945E2A7E
:10128A000E94DF2A0E941D2A6B017C01E1E6FFE42D
:10129A000E947D2BA5E6BFE40E94C62A0E94672B06
:1012AA006E8B7F8B888F998FEDE5FFE40E94D02AA1
:1012BA000A8F1B8F2C8F3D8F20E030E048EC51E4E1
:1012CA00C501B4010E941C2AA9E5BFE40E94EE2AC6
:1012DA000E94672B4B015C010E94FD2A0E94672B2A
:1012EA00A70196010E94672BA70196010E94672B0E
:1012FA006B017C01E5E5FFE480819181A281B381E4
:10130A008E8F9F8FA8A3B9A313E060E070E088ECEA
:10131A0091E420E030E048EC51E40E941C2A2A8D36
:10132A003B8D4C8D5D8D0E94672B0E94572B0E942E
:10133A001D2AA50194010E941D2A2E893F89488DE4
:10134A00598D0E94672B9B01AC01C301B2010E9417
:10135A00632BA70196010E941D2A0E94F0140E9485
:10136A00F0140E94DF2A0E941C2A2E8D3F8D48A16C
:10137A0059A10E941C2A115061F65BC083E095E4D2
:10138A000E949C2284E080939A4FF8948091B44FF3
:10139A0078948823B9F1F8941092B44F7894809194
:1013AA009B4F853079F58091A44F8B3091F50E943F
:1013BA0056288091B54F811121C085E495E40E9499
:1013CA00C823E0E4F1E022853385848595853F933F
:1013DA002F939F938F9389E795E49F938F9382E549
:1013EA009DE49F938F930E943C280E94C7248CE916
:1013FA0095E40E949C22CDBFDEBF04C01092B54F77
:10140A000E94E91580919B4F811103C088950C9425
:10141A00C202F8941092B64F7894F8948091B64F1D
:10142A0078948823D1F30C94C20282E08093B04F5F
:10143A00A7CDE9E2FFE40E94772B81E08093B54FC4
:10144A0010929A4FA2CF85EC95E40E94C823B5E08A
:06145A00B0939A4F9ACFF7
:10146000A6E2B0E0E6E3FAE00C946D268E8F9F8F43
:10147000688F798F122FFB010190F081E02DE987B1
:10148000FA87FB01C280D380248135812B8B3C8B72
:101490008085918588A399A326803780FA01808072
:1014A0009180A280B38020E030E0A901C501B401A1
:1014B0000E94072B87FF04C00E94B22A8DE204C05D
:1014C000598552FFB4C28BE2F10180832B893C899C
:1014D000215031092F83388741E050E0498B5A8BE6
:1014E00006C08B899C898F839887198A1A8AD501AF
:1014F000C401BF770097E0E8AE07EFE7BE0769F4E5
:101500000E94962818F46EEE7EE402C062EF7EE43C
:101510000E948D2982EF9EE47AC20197A048BF47BE
:1015200068F00E94962818F466EF7EE402C06AEF25
:101530007EE40E948D298AEF9EE469C220E030E0BB
:10154000A901C501B4010E94072B1B821C828823BC
:1015500009F458C020E82D833FE33E8319821A82A4
:101560000E9417290E94672BF62E072F8D879B87D5
:10157000A50194010E940C2B18166CF049815A8128
:101580004F5F5F4F49835A83FB820C835D855D8388
:101590008B858E83E5CF1B861C860E94AD2AC501F4
:1015A000B4010E94072B87FF33C0E981FA81E43D33
:1015B000FE4FE4F44B855C85452BC1F40E947A2BE9
:1015C0005AE5C501B4010E94672B4B015C010E94E2
:1015D0007A2B5AE56B817C818D819E810E94672BDD
:1015E0000E94B72A81E090E08B879C870E94172990
:1015F0000E94632B0E94B72AE981FA813197E9831F
:10160000FA83CBCFF0E8FD832FE32E8319821A8271
:10161000412F110F550B4AA35BA3CA010E948529D4
:101620008B8FD7FC03C0CDA2DEA204C086E090E081
:101630008DA39EA39B8D973641F4CD2809F0FCC164
:10164000E1E0F0E0EDA3FEA3F7C18B8D8D8B06C02A
:1016500029813A8137FF03C296E69D8BEDA1FEA159
:101660003196EDA3FEA3FD89F636B9F429813A81BE
:1016700037FF08C01B821C8230E83D834FE34E8356
:1016800019821A825B8D573641F08DA19EA1E981A6
:10169000FA818E0F9F1F8DA39EA3FB81FB872C8158
:1016A0002D873D813E8B4E814A8F750164011C8ED2
:1016B0001D8EEC8DFD8D2DA13EA1E217F307B9F132
:1016C0002B853D854E895A8DC701B6010E94632B3B
:1016D0000E942C1B2B013C010E94232A6CA3870132
:1016E000760117FB109517F910952B853D854E89CE
:1016F0005A8DC301B2010E94E7186B017C01F7FA11
:10170000F094F7F8F09420E030E040E251E46B858B
:101710007D858E899A8D0E94632B6B877D878E8B4A
:101720009A8F8C8D9D8D01968C8F9D8FC2CF20E0DE
:1017300030E040EA50E46B857D858E899A8D0E9469
:10174000672B2B013C019B01AC01C701B6010E9434
:10175000072B87FD0BC0A3019201C701B6010E94B0
:10176000072B811106C03CA130FD03C0412C512C38
:101770003201A3019201C501B4010E941D2A4B014F
:101780005C014D89453619F069807A8002C0612C70
:10179000712C23018DA19EA1481A590AC988DA88A3
:1017A00000E010E01B861C86E985FA85E071FF27C2
:1017B000EE8BFF8B6414750431F4EB85FC85EF2B05
:1017C00009F484C08FC0CC8EDD8EE88DF98D8085C4
:1017D00091850597C816D90680F70E94AD2AC501E4
:1017E000B4010E94632B0E942C1B6D877E878F871C
:1017F000988B0E94232ACB012E893F89232B69F4E1
:10180000892B59F43B8D373641F477FE06C0A80189
:101810004F5F5F4F4C8F5D8F3BC08B859C85892BC5
:1018200089F477FE0FC09FEFC91AD90AEC8DFD8DA0
:10183000E20DF31D2EE220830E94E42981E090E076
:101840008B879C87F101EC0DFD1D0C8F1D8F4C8D3E
:101850005D8D452B49F090E391932C8D3D8D21506A
:1018600031092C8F3D8FF3CFC8018C0D9D1D2F8129
:101870003885201B310B6C015FEFC51AD50AF101C9
:10188000E80FF91F605D6083C90101978F83988716
:101890008501740117FB109517F910950E94AD2A68
:1018A0006D857E858F8598890E94E7184B015C01C4
:1018B0000E94B22A0E9417290E94632B0E94B72A15
:1018C00091E0691A71080C8D1D8D74CFF985F4FFB4
:1018D00009C0F101EC0DFD1D8EE2808396012F5FA2
:1018E0003F4F6901A1014C0D5D1D4B875C87FA01DB
:1018F0001082FD89F53609F05DC0E8A1F9A1E20D7D
:10190000F31D3197108229813A8137FF08C0319544
:101910002195310929833A8301E010E002C000E0FB
:1019200010E0E8A1F9A13197E20DF31D22E030E0CB
:101930008AE0E82EF12CCF018219930949815A815E
:10194000452B71F089819A81B7010E94FC26805D48
:10195000829369837A83215031090E94E429EBCF75
:10196000121613067CF3FC013197E20DF31D012BD7
:1019700011F42BE201C02DE220830297B101680F20
:10198000791F2AA13BA1215431092A31310510F0D8
:1019900025E601C025E4FB0120832F8138852250F4
:1019A00031092F833887C816D90624F48B859C8586
:1019B0000E948D29398531FF29C030FD27C04F8114
:1019C00058851416150614F5C1010E942E28820DA3
:1019D000931D9C012219330949895A892417350717
:1019E0004CF0FC012081EF81F885E80FF91F20837E
:1019F0000197EFCF4F81588560E370E089899A891C
:101A0000820D931D0E9444291B8A1C8AC1010E94D9
:101A10002E2809851A852B893C89AC01B1018E8D50
:101A20009F8D0E94C21EA696E2E10C9486265985DF
:101A300053FF57CD80E248CD89819A818C3F9F4FDB
:101A40005CF029813A814DA15EA1241735070CF481
:101A5000FFCD55E65D8B21CEF5E6FD8B1ECE36E63D
:041A60003D8B1BCED1
:101A6400A0E0B0E0E8E3FDE00C946D26DB01109704
:101A740021F08C9311969C9311979C01F90180811C
:101A84002F5F3F4F0E941F2B80329105B9F3AC01A9
:101A9400495051094530510588F38D32910521F49F
:101AA400F9015524539404C08B9709F4F901512C7E
:101AB40080E0282F082E000C330BEF01C20FD31F38
:101AC4009881992371F0E901CA55D14B4881941347
:101AD40002C08F5FEECFE901C155D14B2881921727
:101AE400C1F3833010F430E013C0109709F48AC2B4
:101AF400883009F083E00E948F2AED93FC9382C220
:101B0400AC014854514BEA01488124130DC03F5F96
:101B1400832F032E000C990BBF01680F791FEB0173
:101B240028812111EDCF06C08454914BEC018881AA
:101B3400281769F3333011F090E01AC0109709F4B4
:101B440068C2283291F420E0822F022E000C990BF7
:101B5400FB01E80FF91F3081332339F0393211F0DA
:101B64002F5FF2CF0196680F791F6D937C9351C25A
:101B7400092F092E000C110BEF01C00FD11F888112
:101B8400803311F49F5FF4CF3D01992319F08F7DC9
:101B9400883541F060E070E0CB01E12CF12CC0E02D
:101BA400D0E044C10F5F1F4F0E0F1F1F80E0F801EC
:101BB4000E948F2A9081903311F48F5FF8CF812C8B
:101BC400912C5401E12CF12CC0E0D0E06CE1262EE4
:101BD400312C4E2C6801CE0CD11CE7FCDA94F601B2
:101BE4008081982F9F7D903509F481C08E3251F405
:101BF400F52DF0615F2E442443944E0C57E0252EBE
:101C0400312C39C00E941F2B0E945A27892B21F4A2
:101C140060E070E0CB0113C2D6018C91282F082E0E
:101C2400000C330BA9010E94942A10F4805304C0C1
:101C3400C9010E943B298753B8E0EB16F1047CF4F8
:101C440090E0A0E0B0E091012C1B3D0B02C00E948B
:101C54008A2A2A95E2F7882A992AAA2ABB2AEFEF28
:101C6400EE1AFE0A2496B5CF803389F4E114F10408
:101C740071F4249743946801C40CD11C47FCDA9492
:101C8400D6018C91982F9F7D903571F730C00E94BA
:101C94001F2B0E945A27892B69F3D6014C91842F5C
:101CA400042E000C990B0E941B2B18F480ED840F5A
:101CB40003C00E943B298753B8E0EB16F1049CF45F
:101CC40090E0A0E0B0E091012E193F09220F331FEC
:101CD400220F331F02C00E948A2A2A95E2F7882A1B
:101CE400992AAA2ABB2AEFEFEE1AFE0AC3CFF801FB
:101CF400E40DF11D47FCFA9580818F7D803509F054
:101D040087CF81E0840DF8010E948F2A90819B3255
:101D140029F09D3229F4B52DB8605B2E82E0840D44
:101D2400080F111D87FD1A9560E00E94A5298033D4
:101D340011F46F5FFACF40E050E07AE00E94A529E9
:101D44000E941F2B0E941B2B68F4662331F0FA01BA
:101D54007E9FA0017F9F500D1124C097480F591FEB
:101D64006F5FECCF662309F453CF53FE03C0519544
:101D7400419551096114710419F0D301ED93FC9359
:101D840081149104A104B10409F442CFE0E8E815F8
:101D940020F4FFEF9F1AAF0ABF0AC40FD51FB7FC88
:101DA40006C0880C991CAA1CBB1C2197F8CFC33809
:101DB4002FEFD20794F4C2383FEFD30759F08114C0
:101DC4009104A104B10431F02196B694A794979498
:101DD4008794F1CFC1E8DFEF0AC02197C038D1055D
:101DE4000CF428C1812C912C5401C0E8D0E0C158D6
:101DF400DF4FAE01DD0F660B770BF7E1440F551F84
:101E0400661F771FFA95D1F7A9E0B694A794979423
:101E14008794AA95D1F7842A952AA62AB72AFFC0BF
:101E24001E3251F4452D4061542E31969F0110818C
:101E3400A52DA07154FEF4CF412F012E000C550B9B
:101E44000E94942A00F5B52DB2605B2E29E0E216BB
:101E5400F104A9F0A11121973FEFE31AF30AAAE0D4
:101E6400B0E09B01AC010E94DB281053DC01CB01E4
:101E7400810F911DA11DB11DBC01CD01D6CFA111B2
:101E8400D4CF2196D2CF1F7D153409F04FC02181C4
:101E94002D3221F4452D4860542E04C02B3211F00C
:101EA400319601C03296DF0121912033E1F3422FB4
:101EB400022E000C550B0E94942A78F550ED520F17
:101EC400052F10E011964C911197242F042E000C2D
:101ED400330B0E94992A10F09F0122C09D012E5FAE
:101EE4003F4F4053042F10E0EAE05E9F000D111DA8
:101EF400112412964C91E42F042E000CFF0BF09742
:101F04003A9770F45AE0509FF001519FF00D11245C
:101F140040538F01040F111D03C09D0100E010E028
:101F240053FE06C011950195110902C000E010E0AE
:101F34006114710429F051FE03C0D3012D933C9325
:101F44000E9467204B015C0120E030E0A9010E945F
:101F5400072B882309F45CCECE01800F911FC52D79
:101F6400C17097FF24C09195819591098A3091059C
:101F740074F06AE070E00E94FC260E94F6270E943A
:101F8400632B4B015C01812F9D2F009731F00E9440
:101F94008A280E94632B4B015C010E947A2B50E03B
:101FA400C501B4010E94072B87FF39C024C00097E4
:101FB40009F435C08A30910574F06AE070E00E943B
:101FC400FC260E94F6270E94672B4B015C01812F9F
:101FD4009D2F009731F00E948A280E94672B4B01A5
:101FE4005C012FEF3FEF4FE75FE7C501B4010E94AB
:101FF4000C2B1816A4F4CC23C1F060E070E080E848
:1020040090E81DC0812C912C20E8A22E2FE7B22E3F
:1020140006C0812C912C90ECA92E9FE7B92EC50106
:10202400B40150FE0CC090580AC060E070E080E833
:1020340090E005C0880C991CAA1CBB1CD8CECDB757
:08204400DEB7E2E10C948626F0
:10204C00AAE9B0E0ECE2F0E10C946D266C017A01A7
:10205C00C756DF4F68837983C959D040A12CB12C66
:10206C0066246A94762C90E8492E512C25E2222E77
:10207C00C756DF4F68817981C959D040FB018081F7
:10208C00882309F428C2CF570E942B2BC1580E94D9
:10209C005D29CB570E942B2BC558D04081E090E096
:1020AC008C0F9D1FC957DF4F88839983C758D04029
:1020BC00C757DF4F48825982C958D040FB0100E016
:1020CC0010E08191811112C001151105A1F0A80138
:1020DC00C6010E94E8250E94AC29800F911FC756AB
:1020EC00DF4F88839983C959D04005C0853261F38D
:1020FC000F5F1F4FE6CF0E94232B853209F0D9C109
:10210C004F019FEF891A990A0E94BA290E94AC29A3
:10211C00DC012C912B3221F40E94C829246007C0C9
:10212C002C329CF02D32E9F40E94C8292160CF5743
:10213C00DF4F28833983C158D0400196C756DF4FF3
:10214C0088839983C959D040E1CF203221F40E9471
:10215C00C8292860ECCF233251F40E94C829206191
:10216C00E6CF203321F40E94C8292260E0CF2A3226
:10217C0029F50196C756DF4F88839983C959D040FA
:10218C00D701ED91FC911197CF0102968D939C9301
:10219C00808191810E94D62997FF1DC00E94C82979
:1021AC00B1E02B27CF57DF4F28833983C158D0405C
:1021BC009195819591090E94D6290DC00E94D72036
:1021CC000E94D6290E94B329C0970A9720F4319611
:1021DC000E94C129F7CFCF57DF4F88819981C15811
:1021EC00D04080FF07C08D7FCF57DF4F8883998306
:1021FC00C158D0400E94232B8E3209F031C0CD57EC
:10220C000E942B2BC358D040CF010196C756DF4FED
:10221C0088839983C959D04021812A32A1F43296FE
:10222C00C756DF4FE883F983C959D040D701ED91E8
:10223C00FC911197CF0102968D939C938081918193
:10224C000E94CF290DC00E94D7200E94CF290E9446
:10225C00B329C0970A9720F431960E94C129F7CF71
:10226C00CE0187569F4F0E944E25382E0E94B329CF
:10227C000E9485298936910509F43EC0B4F4833651
:10228C00910509F4D3C044F48532910509F4E4C0F6
:10229C008136910529F1EBC08436910509F42CC0E7
:1022AC00883691050CF4B6C0E2C08037910509F46C
:1022BC0056C04CF48E36910509F4A1C08F369105A9
:1022CC0009F437C0D4C08537910509F426C0883786
:1022DC00910509F43AC08337910509F0C8C0B2C022
:1022EC000E944C2A0E948E25892B09F4E0C00E9482
:1022FC00A32A0E946E2BD8C0632D70E0970141E099
:10230C0050E00E94272B0E944818892B09F4CFC05B
:10231C000E949E2A0E949D17C7C00E9465290E9498
:10232C004818892B09F4C3C00E949E2A0E9475216B
:10233C00BBC00E9465290E944818892B09F4B7C0BC
:10234C000E949E2A0E94E91FAFC00E9465290E942C
:10235C004818892B09F4ABC00E947C274BC097010D
:10236C0040E050E060EF70E00E94272B0E9448187C
:10237C00892B09F49CC00E94712B86E0E1E1FFE4FB
:10238C00DE01AD56BF4F01900D928A95E1F7C5570E
:10239C00DF4F2881CB58D040C457DF4F3881CC5801
:1023AC00D040C357DF4F4881CD58D040C257DF4F84
:1023BC005881CE58D040C157DF4F6881CF58D0409C
:1023CC00C057DF4F7881C059D040CF56DF4F88813E
:1023DC00C159D040CE56DF4F9881C259D040A0E0B1
:1023EC000E94AE2831F420E030E0AE014D565F4F34
:1023FC0055C028E70E946D290E94E41355C0632D37
:10240C0070E09701A501400F511F0E94272B0E94DD
:10241C00121F4DC00E944C2A0E948E25892B09F454
:10242C0046C00E94A32A0E94300A3EC0B0E83B126C
:10243C003EC00E94BA288081C557DF4F8883CB5895
:10244C00D04027C0B0E83B1232C00E94BA2840816D
:10245C00518120E030E022C0B0E83B1228C00E943D
:10246C00712BC557DF4F2882CB58D04012C0C557AF
:10247C00DF4F2882CB58D0400E94BA29CF570E94F8
:10248C002B2BC158D040CB570E942B2BC5580E94E8
:10249C005D2921E030E0AE0145575F4FBE016F571B
:1024AC007F4FC6010E940E21800F911F03C00E9416
:1024BC00712BC8018501080F191F0A151B054CF457
:1024CC008FE490E080930040909301408FEF9FEF5A
:1024DC0003C05801CDCDC501C656DF4FE2E10C94C7
:0224EC00862642
:1024EE00CF92DF92EF92FF920F931F93CF93DF93D2
:1024FE00CDB7DEB76097CDBFDEBF88E697E40E940A
:10250E00F622182F8823E1F08091A64F882331F010
:10251E00CE0101960E94A023182F01C010E08CE678
:10252E0097E40E94C823112341F069816093A54F5F
:10253E0086E490E00E94B62633C182E897E460C03C
:10254E008DEA97E40E94F622082F882309F45BC0D7
:10255E008091A64F882329F0CE0101960E94A023D8
:10256E00182F82EB97E40E94C823112309F446C06A
:10257E00CE0101960E94852A6B017C010091A54F28
:10258E00063459F40E94DA2A0E941C2A26E838E3FF
:10259E004EE05FE30E94672B06C00B3439F40E94B5
:1025AE00DF2A0E941C2A6B017C011AC00334C1F081
:1025BE0089EC97E40E94C8231F920F9389EF97E44A
:1025CE009F938F9382E59DE49F938F930E943C2867
:1025DE000E94C7240F900F900F900F900F900F90A6
:1025EE00A5E3BFE4CD92DD92ED92FC921397B70175
:1025FE00A6018EE390E00E949D29D2C08EEF97E453
:10260E000E94C823CDC08AE298E40E94F622882355
:10261E0009F45CC08091A64F882329F0CE01019663
:10262E000E94A023082F8FE298E40E94C823002363
:10263E0009F446C0CE0101960E94852A6B017C01E9
:10264E001091A54F163459F40E94DA2A0E941C2AC2
:10265E0026E838E34EE05FE30E94672B06C01B348A
:10266E0039F40E94DF2A0E941C2A6B017C011AC0D9
:10267E001334C1F089EC97E40E94C8231F921F9374
:10268E0089EF97E49F938F9382E59DE49F938F93B9
:10269E000E943C280E94C7240F900F900F900F901D
:1026AE000F900F90E1E3FFE4C082D182E282F382C9
:1026BE00B701A6018EE390E00E949D29102F70C0F5
:1026CE0086E498E40E94C82310E06AC082E798E48A
:1026DE000E94F622882339F187E798E40E94C823E6
:1026EE008EE898E40E94F622182F882319F080E0D5
:1026FE0093E009C083E998E40E94F622182F8823FC
:10270E0029F080E09FE00E94D9214AC088E998E430
:10271E000E94F622182F882319F080E09EE1F3CF55
:10272E008DE998E46DCF8EEC98E40E94F622882312
:10273E0031F083ED98E40E949C2211E031C087EBCA
:10274E0099E40E94F6228111F4CF8CEB99E40E9459
:10275E00F622182F882349F083EC99E40E949C22DC
:10276E000E9456280E94E9151BC08CED99E40E9428
:10277E00F622182F882319F01092A44F11C082EE62
:10278E0099E40E94F622182F882351F01092A44F3C
:10279E000E9442210E94D82788EE99E40E949C2232
:1027AE00812F6096CDBFDEBFDF91CF911F910F912C
:0A27BE00FF90EF90DF90CF90089598
:1027C800A4E1B0E0EAEEF3E10C946D268F839887DC
:1027D80069837A834B8B5C8B122FDB011296ED9108
:1027E800FC91139714962D913C9115972D833E8358
:1027F800CD90DC90119716962D903C901797F7FD89
:1028080003C0E894C1F802C0E1E0F0E0C6018071BD
:10281800992789879A87C4FE09C00E9454260E9476
:10282800AE2821F08D819E81029702C08D819E8104
:102838009601287033272B873C87C3FC0197AB8907
:10284800BC894C9011965C90119712966C901297D7
:1028580013967C90139714968C90149715969C90C9
:1028680015971696AC9016971796BC90A981BA81C1
:102878001896ED90FC901997B1E0EB1AF108D10188
:10288800AE0DBF1D1C928B839C839F01281B390BA7
:102898002D873E87C601827099278F87988B812F55
:1028A800012E000C990BDC01A154B109A98BBA8B3C
:1028B80032E0E316F10434F489859A85892B09F00E
:1028C8004CC05DC09201A301B401C501A0E00E9403
:1028D800AE2881F1B1E0EB1AF108C2018F70992797
:1028E8008A30910514F4C09602C0895A9F4FE9892D
:1028F800FA897A9748F49C012062215631092A31D5
:10290800310510F40E943B29F101EE0DFF1D808373
:102918002B813C81215031092B833C839201A301F7
:10292800B401C50104E00E94CC2529013A014B01FC
:102938005C01BECF8D859E85AB81BC818A0F9B1FB4
:10294800181619063CF21A161B060CF0B5CFEF85BF
:10295800F889EF2B09F0BECFAFCF0E9454260E9412
:10296800AE2869F0F101EE0DFF1D31971083B2E03A
:10297800EB1AF108F101EE0DFF1D80E38083EB8572
:10298800FC85EF2B41F0F1E0EF1AF108F101EE0DB3
:10299800FF1D80E28083A981BA810E94742B4E19A1
:1029A8005F09B1016E0D7F1D86012D813E818F81EA
:1029B80098850E94C21E9C01EF81F88580819181D3
:1029C80090FF05C0A981BA810E94EB290CF4C901C6
:0829D8006496E2E10C948626EE
:1029E0004F925F926F927F928F929F92AF92BF921F
:1029F000CF92DF92EF92FF920F931F936B017C01B6
:102A0000DC01CB01B701A6014427552760787F7709
:102A10004115510560487F4749F40E94FD2A0E94F4
:102A2000672BA70196010E941D2A18C018161906C7
:102A30001A061B06C4F0892B8A2B8B2B09F4B2C013
:102A400081E290E080930040909301400E94FD2A33
:102A50000E941C2A9B01AC010E94632B562F472F1A
:102A6000382F292FA3C067E1F594E794D794C79432
:102A70006A95D1F7C114D104E104F104D1F4C12C59
:102A8000D12C7601A7FD08C00E948A2A2FEFC21A16
:102A9000D20AE20AF20AF6CF21E0C21AD108E1080E
:102AA000F108F094E094D094C094C11CD11CE11CB6
:102AB000F11C2FE7C21AD108E108F108AF77BB2754
:102AC000A068C0FE02C00E948A2AF594E794D794B9
:102AD000C7940E948A2AE9E1F0E040E050E060E01B
:102AE00071E0812C912C540100E010E09801280144
:102AF0003901440E551E661E771E84159505A605E0
:102B0000B70574F093018201040F151F261F371FAC
:102B100084199509A609B709840E951EA61EB71E2D
:102B20000E948A2A76956795579547953197F9F6C9
:102B3000892B8A2B8B2B21F10E9405290E941C2AAC
:102B40000E94572B0E940C2B87FD1AC00E9405295A
:102B50000E941D2A0E94572B0E940C2B181634F439
:102B600082E0880E911CA11CB11C0AC0D501C401D1
:102B700081709927AA27BB27880E991EAA1EBB1E03
:102B8000D501C401B595A79597958795B15C37E1B7
:102B9000CC0CDD1CEE1CFF1C3A95D1F7C80ED91EDB
:102BA000EA1EFB1E5C2D4D2D3E2D2F2D652F742F03
:102BB000832F922F1F910F91FF90EF90DF90CF9076
:102BC000BF90AF909F908F907F906F905F904F904D
:022BD000089566
:102BD200CF92DF92EF92FF920F931F93CF93DF93E7
:102BE200F090254FE090264FD090274FC090284F6D
:102BF200C091294FD0912A4F10912B4F00912C4F09
:102C0200C8012C2F3D2F492F582FA1E3BFE40E946A
:102C1200C62A0E94072B18161CF08BE29AE40FC0FA
:102C2200C8012C2F3D2F492F582FE5E3FFE40E94C6
:102C3200CB2A0E940C2B87FD04C08AE49AE40E94EE
:102C42009C228091A54F8634F1F426E636E646EEC4
:102C52005FE30E94002A0E94672B0E94DA2A0E94E8
:102C62001D2AF62EE72ED82EC92E26E636E646EE89
:102C72005FE3F8016C2F7D2F8F2F902F0E94672B1F
:102C82000E94DA2A13C08B34B9F40E94DF2A0E9410
:102C9200002A0E941D2AF62EE72ED82EC92E0E9447
:102CA200DF2AF8016C2F7D2F8F2F902F0E941D2A73
:102CB200EB01182F092F1CC08334D1F088E69AE467
:102CC2000E94C8238091A54F1F928F9388E99AE4AE
:102CD2009F938F9382E59DE49F938F930E9449284F
:102CE2000E94C7240F900F900F900F900F900F909B
:102CF2008091A54F1F928F930F931F93DF93CF93D2
:102D02001F928F93CF92DF92EF92FF928DE99AE416
:102D12009F938F9383E59CE49F938F930E9449280E
:102D22008DB79EB740968DBF9EBF80919B4F8530D9
:102D320011F58091534C8823F1F00E94072A0C2F41
:102D420010E00D5A134BF8018081882361F0CF3FC8
:102D520051F00E946A2A8823E1F3F80180810E94DF
:102D6200C927CF5FECCF0E946A2A8823E1F38091C2
:102D7200040886FFFCCFDF91CF911F910F91FF9046
:082D8200EF90DF90CF9008955F
:102D8A000F931F93CF93DF93CDB7DEB76897CDBF6D
:102D9A00DEBF40E10E94472B8CE094E20E94EE23C2
:102DAA00811102C080E0BCC00E94D0280E94692024
:102DBA000E94372B0E94672BE1E7FFE40E946328F9
:102DCA000E9469200E947A2B55E30E94672BEDE648
:102DDA00FFE40E9470280E9469200E947A2B59E21F
:102DEA000E94672BE9E6FFE40E947D280E94692081
:102DFA000E94372B0E94672BE5E7FFE40E94772B9E
:102E0A0048E10E94472B84E294E20E94EE23882341
:102E1A0009F4C8CF0E94D0280E9469200E947A2B08
:102E2A0057E30E94672BEDE3FFE40E9463280E94A8
:102E3A0069200E94372B0E94672BE9E3FFE40E9476
:102E4A0070280E9469200E947A2B58E20E94672B00
:102E5A00E5E6FFE40E947D280E9469200E947A2B01
:102E6A005DE20E94672BE9E5FFE40E94772B2B893C
:102E7A006C890E9420292A890E943F2B89890E94F5
:102E8A0012280E9469200E947A2B5DE20E94672B19
:102E9A00EDE5FFE40E94772B6D897E890E947D29EA
:102EAA000E9469200E943B2B0E94672BADE7BFE47A
:102EBA000E945E2A6F89788D0E947D290E9469206E
:102ECA000E943B2B0E94672BE9E7FFE40E94772BC5
:102EDA0044E00E94472B81E894E20E94EE23882373
:102EEA0009F460CF69817A810E947D290E94692054
:102EFA000E947A2B58E30E94672BE1E6FFE40E94C6
:102F0A00772B6B817C810E947D290E9469200E9417
:102F1A003B2B0E94672BA5E5BFE40E945E2A81E055
:102F2A006896CDBFDEBFDF91CF911F910F910895B3
:102F3A00ADE0B0E0E3EAF7E10C946D2689879A8761
:102F4A006B837C83FA01DB011296CD90DC90139798
:102F5A0014968D919C9115978D839E83ED90FC908C
:102F6A001197E982FA8216960D90BC91A02DAF8333
:102F7A00B887208031804280538064807580868043
:102F8A0097808101B42DF52DE62D7B868C869D8652
:102F9A000E94582A0E94AE284CF40E948C2789016C
:102FAA00B42FF52FE62F7B878C879D87D7FC04C02B
:102FBA00E894E1F8E982FA820E94582AED80FE80BC
:102FCA000E94AE281CF0898182FF04C081E0E81AC1
:102FDA00F10805C083FF03C091E0E91AF108CE01A8
:102FEA0001965C018AE0C82ED12C2B2F3F2F4E2F41
:102FFA005B856C857D858B819C810E947F19FC0194
:10300A000E94582A0E94AE281CF0898182FF0FC0B4
:10301A0031970F8118850E0F1F1F0E94582A0E9490
:10302A00AE2814F08BE201C08DE2D80108C083FFFC
:10303A0007C03197AF81B885AE0FBF1F80E28C936E
:10304A0009811A81AB81BC810E94742B4E1B5F0BD4
:10305A006F8178856E0F7F1F2D813E8189859A85C4
:10306A000E94C21E9C01E985FA858081918190FFA8
:10307A0005C0AB81BC810E94EB290CF4C9012D96D5
:06308A00E2E10C94862631
:103090000F931F93CF93DF93FC01D901683871051B
:1030A00031F194F46138710589F12CF460387105BF
:1030B00009F468C085C06238710509F44BC06438F2
:1030C000710509F45FC07CC0603A710509F43FC026
:1030D0002CF46039710509F43DC072C0603C710583
:1030E00009F461C0603F710509F45DC069C00E94C8
:1030F000522A452B39F09881892F880F880B9083AD
:1031000081834BC088818083118253C00E94A82A8A
:1031100004968D939C93452B89F088819981AA818F
:10312000BB81AC01BD01770F440B542FBA010E9443
:10313000C12A448345834683478321C0088119817E
:103140002A813B81008311832283338334C00E9410
:10315000522A1CC00E94A82A08968D939C937881BD
:1031600069815A814B813C812D819E818F81708341
:10317000618352834383348325839683878381E0ED
:1031800090E020C00E94522A452B79F09981288135
:10319000892F880F880B2083918382838383848384
:1031A00085838683EBCF0E94522A08811981008390
:1031B0001183128213821482158216821782DFCF46
:0E31C00080E090E0DF91CF911F910F91089574
:1031CE00A5E1B0E0EDEEF8E10C946D264701580153
:1031DE000E94672B2B013C01A80197010E941D2A1A
:1031EE00162FC72ED82EF92E862F9C2DAD2DBF2D26
:1031FE0089839A83AB83BC83AA81FB81EC81ED80AA
:10320E003E802F8008850D8B5E2F5F71212F3A2F08
:10321E004F2F60E070E080E090E021153105410510
:10322E0000E15007610571058105910509F05AC04D
:10323E005E2F6E2D732D822D9D8904E30E94CC2569
:10324E002D873E874F87588B698B7A8B8B8B9C8B08
:10325E008D859E8597708F3F974009F443C0A301DB
:10326E0092010E947B2A0E941C2A9B01AC01C5017F
:10327E00B4010E94072B8823A9F149865A866B86D2
:10328E007C8629853A854B855C85C501B4010E94F3
:10329E001D2AB62E872E982EA92E262F372F482F71
:1032AE00592F0E947B2A0E94072B811118C02B2DAB
:1032BE008B2D982DA92DBA2D89839A83AB83BC8330
:1032CE003A814B815C816E2D732D822D9D89A1E0FB
:1032DE000E94A228122FC32ED42EF52E03C01B2D12
:1032EE006401FA2C0E947B2A6596E2E10C948626F4
:1032FE00A2E1B0E0E5E8F9E10C946D26FC010A8B41
:10330E001B832C83732E642E552E462E7D83CC86E6
:10331E00D886AE82BF82868197818A879B87D501A8
:10332E004D915C91228133818085918501971C019D
:10333E0037FF02C021E030E0EA85FB85E80FF91F78
:10334E0010824701E1E0F0E0E983FA83C9018E19AA
:10335E009F098D879E87DA01A270BB27AF87B88B36
:10336E00B885BB0FBB0BB98B1214130474F0A98173
:10337E00BA81AB2B09F04AC0AE81BF818D919C9171
:10338E0011978F7E8D939C9341C00E940E29A0E0D1
:10339E000E94AE2851F1E1E02E1A3108FC85F98722
:1033AE00AF2EB884C988DC2CEC2CFC2C0C2D1C2DDB
:1033BE000E940E290E942028C90129839A83EA853A
:1033CE00FB85E20DF31D805D808381E0881A9108F4
:1033DE000E940E290E9422282A8B3B834C83752E35
:1033EE00662E572E482E9D83BFCF8D859E85880DC8
:1033FE00991D181619067CF2181419040CF0B7CF83
:10340E00EF85F889EF2B09F0C6CFB1CFC1016296D7
:06341E00E2E10C94862699
:10342400CF93DF93C7E1DFE46881798180E090E0A6
:103434000E94162B6A817B8182E090E00E94162B09
:103444006C817D8184E090E00E94162BE1E7FFE42B
:103454000E94E42A86E090E00E949D29ADE6BFE444
:103464000E94F32A8AE090E00E949D29E9E6FFE4A5
:103474000E94E42A8EE090E00E949D29A5E7BFE423
:103484000E94F32A82E190E00E949D29EDE3FFE48B
:103494000E94E42A86E190E00E949D29A9E3BFE40A
:1034A4000E94F32A8AE190E00E949D29E5E6FFE468
:1034B4000E94E42A8EE190E00E949D29A9E5BFE4E0
:1034C4000E94F32A82E290E00E949D29EDE5FFE448
:1034D4000E94E42A86E290E00E949D29ADE7BFE4C1
:1034E4000E94F32A8AE290E00E949D29E9E7FFE422
:1034F4000E94E42A8EE290E00E949D29A1E6BFE4A6
:103504000E94F32A82E390E00E949D29E5E5FFE40E
:103514000E94E42A86E390E00E949D2968817981D3
:103524008A819B81682779278C819D8168277927E7
:0C3534008AE390E0DF91CF910C94162BFD
:103540004F925F926F927F928F929F92AF92BF92B3
:10355000CF92DF92EF92FF92CF93DF9300D000D013
:10356000CDB7DEB76B017C0127E1F694E794D794E1
:10357000C7942A95D1F796013327263931050CF0E7
:1035800059C06B017C014B015C0197FF02C00E9496
:10359000B22A2B013C012E37310594F40E94762A81
:1035A000C501B4010E941D2A69837A838B839C83A1
:1035B00020E030E0A901C301B2010E94672B3AC0AC
:1035C0000E94762AC501B4010E941D2A0E94762A13
:1035D0000E941C2AA50194010E941C2A2B013C0177
:1035E0000E94532B5FE30E940C2B18165CF4A3017E
:1035F0009201C501B4010E941D2A0E94572B0E940E
:103600001C2A16C00E94532B5FEBC301B2010E941B
:10361000072BA301920118163CF0C501B4010E94CA
:103620001D2A0E94572B02C0C501B4010E941D2A09
:10363000F7FC90582496CDBFDEBFDF91CF91FF906D
:10364000EF90DF90CF90BF90AF909F908F907F9042
:083650006F905F904F90089508
:103658004F925F926F927F928F929F92AF92BF929A
:10366800CF92DF92EF92FF92CF93DF93CDB7DEB781
:103678002897CDBFDEBF6B017C01DC01CB0147E1A0
:10368800B695A795979587954A95D1F799278F5716
:103698009109873191057CF597FD32C088248A9479
:1036A800982C3FE7A32EB12C04C0B594A794979407
:1036B80087948A95D2F7D501C4018C219D21AE212A
:1036C800BF21892B8A2B8B2BB1F00E94462A0E949E
:1036D8001D2A6D837E838F839887F7FE04C0C80CEC
:1036E800D91CEA1CFB1C80949094A094B094C82028
:1036F800D920EA20FB205C2D4D2D3E2D2F2D1BC0FF
:103708000E94462A0E941D2A69837A838B839C83A0
:10371800F7FE0DC0D701C6010E948A2A892B8A2B81
:103728008B2B49F350E040E030E82FEB04C050E029
:1037380040E030E020E0652F742F832F922F2896E9
:10374800CDBFDEBFDF91CF91FF90EF90DF90CF909C
:10375800BF90AF909F908F907F906F905F904F90A9
:023768000895C2
:10376A0010C00E94312A58F00E942A2A40F029F4F7
:10377A005F3F29F00C94702A51110C94392A0C9449
:10378A00802B0E94E92468F39923B1F3552391F31E
:10379A00951B550BBB27AA2762177307840738F0B6
:1037AA009F5F5F4F220F331F441FAA1FA9F333D015
:1037BA000E2E3AF0E0E830D091505040E695001CC9
:1037CA00CAF729D0FE2F27D0660F771F881FBB1F85
:1037DA00261737074807AB07B0E809F0BB0B802D5F
:1037EA00BF01FF2793585F4F3AF09E3F510568F09B
:1037FA000C94702A0C94392A5F3FE4F3983ED4F370
:10380A0086950E94802A9F5FD9F7880F911D969509
:10381A00879597F90895E1E0660F771F881FBB1F08
:10382A00621773078407BA0720F0621B730B840BB5
:0A383A00BA0BEE1F88F7E095089521
:103844000F931F93CF93DF93EC01062FA8958FEF6F
:1038540099E40E94C823CE010E94C82384E19AE41B
:103864000E94C8238881882319F0CE010E946C220B
:1038740010E0C0E0D0E08091A04F8823D1F11092F5
:10388400304F10922F4F10922E4F10922D4F1092B6
:10389400A04F8091A14F90E030E020E0E82FF0E0CD
:1038A400ED5AF44B40814D3069F420932E4F309300
:1038B4002F4F90932D4F8093A14F80818D3071F4C1
:1038C40010820CC04091A24F51E0580F481769F381
:1038D4004081852F322F292F942FE0CF69E17AE49C
:1038E4008DE29FE40E94A324892B71F08DE19AE478
:1038F4000DC08091070B80FD03C00E94642A2196AD
:10390400C017D10708F4B7CF82E29AE4DF91CF91D0
:083914001F910F910C94C823D0
:10391C000FC00E942A2A38F00E94312A20F09523E9
:10392C0011F00C94702A0C94802B11240C94392ACD
:10393C000E94E92470F3959FC1F3950F50E0551F39
:10394C00629FF001729FBB27F00DB11D639FAA27E8
:10395C00F00DB11DAA1F649F6627B00DA11D661F37
:10396C00829F2227B00DA11D621F739FB00DA11D58
:10397C00621F839FA00D611D221F749F3327A00D12
:10398C00611D231F849F600D211D822F762F6A2FAE
:10399C0011249F5750409AF0E1F088234AF0EE0F23
:1039AC00FF1FBB1F661F771F881F91505040A9F740
:1039BC009E3F510570F00C94702A0C94392A5F3F8D
:1039CC00E4F3983ED4F386950E94802AE7959F5F96
:1039DC00D1F7FE2B880F911D9695879597F9089531
:1039EC0011C00E942A2A38F00E94312A20F039F4A2
:1039FC009F3F19F426F40C94802B0EF4E095E7FB12
:103A0C000C94702AE92F0E94E92458F3BA17620724
:103A1C0073078407950720F079F4A6F50C94382ADF
:103A2C000EF4E0950B2EBA2FA02D0B01B9019001CD
:103A3C000C01CA01A0011124FF27591B99F0593F11
:103A4C0050F4503E58F11A16F040A22F232F342F69
:103A5C004427585FF3CF469537952795A795F040A7
:103A6C005395C9F77EF41F16BA0B620B730B840BBC
:103A7C00AAF0915091F0FF0FBB1F661F771F881F94
:103A8C00C2F70CC0BA0F621F731F841F38F48795DE
:103A9C000E94802A9E3F08F0B2CF9395880F08F0C1
:0A3AAC009927EE0F9795879508956E
:103AB6000F931F93CF93DF930F92CDB7DEB7082FE7
:103AC6001092A44F0E94332B811102C010E04DC00A
:103AD600CE0101960E949F20182F8823B9F387E410
:103AE60090E00E9495290111F1CF99818913EECFBB
:103AF60088E490E00E94BC2AE1E2FFE40E94772B72
:103B06008CE490E00E94BC2AADE1BFE40E945E2AEC
:103B160080E590E00E94112B8093854F9093864F0D
:103B260082E590E00E94112B8093834F9093844FFF
:103B360084E590E00E94112B8093814F9093824FF1
:103B460086E590E00E9495298093974F87E590E05F
:103B56000E9495298093964F88E590E00E949529CA
:103B66008093954F8BE08093A44F812F0F90DF9128
:083B7600CF911F910F910895FA
:103B7E00CF92DF92EF92FF920F931F93CF93DF932B
:103B8E00FC014381548165817681A1E2BFE4CD9031
:103B9E00DD90ED90FC904C155D056E057F0548F0AF
:103BAE00EDE1FFE40E94D02A041715072607370718
:103BBE0080F5EC018BEE9AE40E94C8238E818F93E0
:103BCE008D818F938C818F938B818F93FF92EF9248
:103BDE00DF92CF928091204F8F9380911F4F8F93C2
:103BEE0080911E4F8F9380911D4F8F938AE09BE49F
:103BFE009F938F9382E59DE49F938F930E94492814
:103C0E000E94C7248DB79EB740968DBF9EBF80E0A1
:103C1E0001C081E0DF91CF911F910F91FF90EF9046
:063C2E00DF90CF90089525
:103C340090919F4F992341F190919D4F891721F0C5
:103C44008D3011F08A3069F4E091A34F0E94432B28
:103C5400108210929F4F8091A64F8F5F8093A64F42
:103C64000DC08032D9F1E091A34FF0E09FE9980FA5
:103C74009A3108F48052EB57F14B80838091A34F23
:103C84008F5F8093A34F0895982F9B7F913281F487
:103C9400E091A34F0E94432B80839091A34F9F5F99
:103CA4009093A34F80939D4F81E080939F4F0895FD
:103CB4008D3021F491E09093A04F05C08E3319F418
:103CC40091E090939E4FE091A24FF0E0ED5AF44BB7
:0E3CD40080838091A24F8F5F8093A24F08954E
:103CE20088249924F401E401B0E49F93AA279A1549
:103CF2008B049C04ED05FE05CF05D007A10798F4BF
:103D0200AD2FDC2FCF2FFE2FE92D982C892E982F47
:103D1200872F762F652F542F432F322F2227B8500B
:103D220031F7BF9127C01B2EBF91BB27220F331F34
:103D3200441F551F661F771F881F991F881C991CD7
:103D4200EE1FFF1FCC1FDD1FAA1FBB1F8A149B047F
:103D5200EC05FD05CE05DF05A007B10748F08A187E
:103D62009B08EC09FD09CE09DF09A00BB10B21600C
:103D72001A94E1F62EF49401AF01BE01CD01000CBC
:023D82000895A2
:103D8400A0E1B0E0E8ECFEE10C946F265C013B019D
:103D94006A017901280181E04822552400FD14C0FC
:103DA400421753078CF487010C191D094801A80117
:103DB4000131110510F040E150E060E270E0CE0105
:103DC40001960E9444290AC0A601B301C5010E94BC
:103DD400E825CE14DF043CF3C6011EC000311105F2
:103DE40050F040E150E00E94472BC5010E94E825B5
:103DF40000511109F3CFA4014F7055270E94472B9E
:103E0400C5010E94E8254114510429F4A601B30117
:103E1400C5010E94E825C7016096E0E10C9488265C
:103E2400CF93DF93DC01F9016438710551F164F437
:103E340061387105D9F06238710509F426C060381B
:103E4400710509F031C01DC060397105F1F03CF411
:103E54006838710509F028C00E942F2B22C0603AEF
:103E6400710579F0603C710561F01EC00E94C5289F
:103E7400052E000C660B770B40835183628373839A
:103E840010C00E942F2B51830CC00E942F2B5183F2
:103E9400852F880F880B828383838483858386831D
:103EA400878381E090E002C080E090E0DF91CF91D1
:023EB40008956F
:103EB6000F931F93CF93DF93DB012D913C911197C5
:103EC60030FF25C016964D915C91179714962D914B
:103ED6003C9115974217530778F41296ED91FC9191
:103EE6001397808312962D913C9113972F5F3F4F26
:103EF60012962D933C93139716962D913C911797F6
:103F06002F5F3F4F16962D933C93179715C01C961F
:103F1600ED91FC911D97309719F48FEF9FEF0CC030
:103F26008B01EC010995892BC1F7F80186819781F0
:103F3600019686839783CE01DF91CF911F910F91D2
:023F46000895DC
:103F48001F920F920FB60F9211240BB60F922F9358
:103F58003F934F935F936F937F938F939F93AF9309
:103F6800BF93EF93FF938091430180FF08C081E0E6
:103F78008093B44F80914301816080934301809185
:103F8800430181FF0FC081E080939C4FE0918D4FEA
:103F9800F0918E4F309709F0099580914301826026
:103FA80080934301FF91EF91BF91AF919F918F91C2
:103FB8007F916F915F914F913F912F910F900BBE21
:0A3FC8000F900FBE0F901F90189588
:103FD200A2E0B0E0EFEEFFE10C946D261C010E941E
:103FE20024276D907C90179737FD03C08D7F8983BE
:103FF2009A830E94F12888E0C82ED12C7201C40154
:104002000E947F19298124FF06C00197F301E80F5E
:10401200F91F20E32083298123FF06C00197F301C2
:10402200E80FF91F20E220830E947529B301680F6F
:10403200791F9201C1010E94C21E9C01F10180817F
:10404200918190FF04C0D4010E94EB290CF4C901B4
:084052002296E2E10C9486269F
:10405A00A0E1B0E0E3E3F0E20C947926FB01BA01B7
:10406A00AE014F5F5F4F7A0140E1D7011D924A9539
:10407A00E9F742E051E049835A838B839C83F7FF37
:10408A0009C08FE490E080930040909301408FEF45
:10409A009FEF14C0A9018C013197ED83FE83C701FC
:1040AA000E949E264F8158852D813E8142175307D3
:1040BA0008F49A01F801E20FF31F10826096E6E015
:0440CA000C9492269A
:1040CE00E89404C097FB16F40E944D299923A9F099
:1040DE00F92F96E9BB279395F69587957795679572
:1040EE00B795F111F8CFFAF4BB0F11F460FF1BC0B6
:1040FE006F5F7F4F8F4F9F4F16C0882311F096E949
:10410E0011C0772321F09EE8872F762F05C06623F6
:10411E0071F096E8862F70E060E02AF09A95660FAF
:10412E00771F881FDAF7880F9695879597F9089568
:10413E00EF92FF921F93CF93DF930F92CDB7DEB71F
:10414E007C018BE0898360E08CE00E940426182FAE
:10415E008823F1F061E0CE0101960E94AC25182F64
:10416E00882339F00E9429290E944D23182F81118E
:10417E0003C00E944B2B0CC00E943627882321F0CF
:10418E000E944B2B10E004C061E0C7010E94772310
:10419E00812F0F90DF91CF911F91FF90EF90089597
:1041AE00AC01FA0190814F5F5F4F9032D1F3292F0E
:1041BE00092E000C330B295031092530310588F3B7
:1041CE009B32F9F440E050E0319602C040E050E0FE
:1041DE0080E090E06AE02191022E000C330B0E94E9
:1041EE00992A48F4689FD001699FB00D1124CD0122
:1041FE00821B930BF0CF452B49F491958195910934
:0E420E0008959D3219F741E050E0DECF08958B
:10421C00A7E0B0E0E4E1F1E20C9473265C017A01D2
:10422C00C90127E0EAE0FFE4DE01119601900D924E
:10423C002A95E1F7FB01C280D380848095800081B0
:10424C001181452B21F49E012F5F3F4F790100977F
:10425C0019F4C7010E942E28D7FC04C0C816D90631
:10426C0008F4C6019401AC01B701C5010E94C21E3D
:08427C002796ECE00C948C265F
:1042840060EC7DE08CE390E00E94162B80EC9DE0D6
:104294000E9413244DEC5CEC60E072E48EE390E049
:1042A4000E949D298DEC9CECA0E0B2E4E1E3FFE4E4
:1042B4000E94C12A40E050E060E271E482E490E0B0
:1042C4000E949D2980E090E0A0E2B1E4E5E3FFE4F0
:1042D4000E94C12A63E486E490E00E94B62683E447
:0642E4008093A54F089530
:1042EA00A2E0B0E0EBE7F1E20C946D263C010E94FB
:1042FA0024272D903C90179737FD03C08D7F898323
:10430A009A830E94F1288AE0C82ED12C7201C40136
:10431A000E947F190E947529B101680F791F9201C5
:10432A00C3010E94C21E9C01F3018081918190FF0A
:10433A0004C0D4010E94EB290CF4C9012296E2E1DF
:04434A000C94862623
:10434E001F920F920FB60F9211240BB60F922F934E
:10435E003F934F935F936F937F938F939F93AF93FF
:10436E00BF93EF93FF93E0918B4FF0918C4F30976B
:10437E0009F009958091C10081608093C100FF9181
:10438E00EF91BF91AF919F918F917F916F915F91BF
:10439E004F913F912F910F900BBE0F900FBE0F902C
:0443AE001F901895AF
:1043B200CF93DF93EC010E943724BE018AE590E09F
:1043C2000E94162BC13481E0D80718F0C054D140A6
:1043D20002C0C0E0D0E0CE010E941324BE018CE3F3
:1043E20090E00E94162BDF93CF9380E597E49F9392
:1043F2008F9382E59DE49F938F930E943C280F90B8
:104402000F900F900F900F900F90DF91CF910C941F
:02441200C724BD
:104414001F920F920FB60F9211240BB60F922F9387
:104424003F934F935F936F937F938F939F93AF9338
:10443400BF93EF93FF9380914008E091894FF091EF
:104444008A4F309709F009951092A84FFF91EF9188
:10445400BF91AF919F918F917F916F915F914F9198
:104464003F912F910F900BBE0F900FBE0F901F9096
:02447400189599
:104476001F920F920FB60F9211240BB60F922F9325
:104486003F934F935F936F937F938F939F93AF93D6
:10449600BF93EF93FF9380910008E091874FF091CF
:1044A600884F309709F009951092A74FFF91EF9129
:1044B600BF91AF919F918F917F916F915F914F9136
:1044C6003F912F910F900BBE0F900FBE0F901F9034
:0244D600189537
:1044D800EF92FF920F931F93CF937C010E94072ABC
:1044E80087010C0F111DF8018081882361F0CF3FEF
:1044F80051F00E946A2A8823E1F3F80180810E9422
:10450800C927CF5FEDCF0E946A2A8823E1F38DE0A7
:104518000E94C9270E946A2A8823E1F3809104082F
:1045280086FFFCCFCF911F910F91FF90EF900895D8
:10453800EF92FF920F931F93CF93FC0120812223C8
:10454800F1F08C010E94072A7801EC0EF11CF701AA
:104558008081882361F0CF3F51F00E946A2A882326
:10456800E1F3F70180810E94C927CF5FEDCF0E9458
:104578006A2A8823E1F38091040886FFFCCFCF9153
:0A4588001F910F91FF90EF9008952E
:10459200CF93DF93CDB7DEB72697CDBFDEBF46E020
:1045A2000E94472B85E094E20E94EE238823B1F01B
:1045B200E7E1FFE489819A810E944F2B80839183F6
:1045C2008B819C810E944F2B828393838D819E815C
:1045D2000E944F2B8483958381E001C080E0269660
:0A45E200CDBFDEBFDF91CF91089539
:1045EC00DC018C91882311F18091A64F8823F1F086
:1045FC002091A94F90E0E22F0E94432B80818823C9
:10460C00A9F08081FD01E90FF11D3081381302C042
:10461C009F5F01C090E02F5FFD01E90FF11D8081CC
:10462C008111E9CF30E02B57314B02C020E030E054
:0A463C0081E0232B09F480E00895CB
:104646000E94F12488F09F5798F0B92F9927B75107
:10465600B0F0E1F0660F771F881F991F1AF0BA9520
:10466600C9F714C0B13091F00E94382AB1E008951C
:104676000C94382A672F782F8827B85F39F0B93F0E
:10468600CCF3869577956795B395D9F716F40E947E
:044696004D2908950D
:10469A00CF93DF930E94642AD0E00E94332BC82F65
:1046AA00811102C0C0E01AC08091070B80FD03C0CF
:1046BA00DF5F0E94642ADA30A9F38091050985FD3B
:1046CA000DC08091050982FD09C08091050983FD0D
:1046DA0005C08091050983708330F9F68C2FDF912C
:0446EA00CF910895CF
:1046EE00FF920F931F93CF93DF93D62F20E2209349
:1046FE0005098C01C0E082E0F82ECD1789F00E94EA
:10470E004D23811102C083E00CC080910809F8018D
:10471E0081938F01CF5FDC1781F3F0920409EDCF07
:10472E0087E080930409DF91CF911F910F91FF9045
:02473E000895DC
:104740009C014091A94F90E080E0E42F0E94432B10
:104750005081511103C0811112C008959031D8F7D2
:1047600050815C3249F0882341F05081F901E90F12
:10477000F11D50839F5F01C081E04F5FE6CF903114
:1047800009F49FE0F901E90FF11D108281E008951D
:104790000F931F93CF93FC0120812223D9F08C012A
:1047A0000E94F929F801EC0FF11D8081882351F056
:1047B000CF3F41F09091440895FFFCCF0E94BA276B
:1047C000CF5FF0CF8091440885FFFCCF80914408F3
:0C47D00086FFFCCFCF911F910F91089540
:1047DC001F93CF93DF93EB01142F9093514F809342
:1047EC00524F60E08AE30E940426882389F062E03D
:1047FC0081E59FE40E94AC25811103C00E944B2BE4
:10480C0007C0612FCE01DF91CF911F910C94202610
:0A481C0080E0DF91CF911F91089515
:104826009C018091410180FDFCCF909140019E7FCB
:10483600909340018091410181FDFCCF1092480187
:10484600109249018091410183FDFCCF20934C01D8
:1048560030934D018091410180FDFCCF8091400154
:08486600816080934001089578
:10486E009C018091410180FDFCCF909140019E7F83
:10487E00909340018091410181FDFCCF109248013F
:10488E00109249018091410182FDFCCF20934A0193
:10489E0030934B018091410180FDFCCF809140010E
:0848AE00816080934001089530
:1048B6000F931F93CF93DF9300D0CDB7DEB7082FAA
:1048C600162F0E94332B882381F009831A8360E018
:1048D6008CE00E940426882341F062E0CE01019616
:1048E6000E94AC2593E0909304090F900F90DF91FE
:0848F600CF911F910F9108956D
:1048FE00990F0008550FAA0BE0E8FEEF16161706E3
:10490E00E807F907C0F012161306E407F50798F04A
:10491E00621B730B840B950B39F40A2661F0232B63
:10492E00242B252B21F408950A2609F4A140A695DF
:08493E008FEF811D811D08951A
:10494600CF93DF93FB014081042E000C550B4115DC
:104956005105B9F0FC01CF012191222381F0022EED
:10496600000C330B42175307B1F7DB011196EF0129
:104976002D91222331F039912317D1F3ECCF80E02A
:0849860090E0DF91CF9108954C
:10498E00CF938091524D8823D9F00E94F929EC2FB4
:10499E00F0E0EE5AF24B8081882351F0CF3F41F088
:1049AE009091440895FFFCCF0E94BA27CF5FEFCFBE
:1049BE008091440885FFFCCF8091440886FFFCCF90
:0449CE00CF910895E8
:1049D20057FD9058440F551F59F05F3F71F04795AE
:1049E200880F97FB991F61F09F3F79F08795089593
:1049F200121613061406551FF2CF4695F1DF08C0B2
:104A0200161617061806991FF1CF869571056105CE
:044A12000894089567
:104A1600A1E21A2EAA1BBB1BFD010DC0AA1FBB1FBC
:104A2600EE1FFF1FA217B307E407F50720F0A21B2E
:104A3600B30BE40BF50B661F771F881F991F1A949B
:104A460069F760957095809590959B01AC01BD01C5
:044A5600CF010895EF
:104A5A006623F1F02091A64F2223D1F04091A94F6D
:104A6A00DC0120E0E42FE20F621769F00E94432B79
:104A7A003081332321F030813D932F5FF3CFFC0146
:104A8A00E20FF11D04C0860F911DFC0131971082BF
:024A9A0008957D
:104A9C00CF93DF93EC0190E0E92FF0E0EE0FFF1FD6
:104AAC00E852F14B8081811102C081810EC0A88136
:104ABC00B9812C91821305C091811196A883B98379
:104ACC0001C09F5F9B3040F3892FDF91CF910895F8
:104ADC001092304F10922F4F10922E4F10922D4F4C
:104AEC0080E090E0FC01ED5AF44B108201968115A8
:104AFC0021E09207B9F71092A34F1092A24F109297
:104B0C00A14F1092A04F10929F4F10929E4F08955C
:104B1C00FA0160387105BCF0623871051CF063381D
:104B2C00710589F4A081B1819D012C5F3F4F2083D9
:104B3C0031830E94F32AFC01408351836283738387
:0C4B4C0081E090E0089580E090E0089582
:104B58000F931F93CF93DF93EC018C01060F111D68
:104B6800C017D10769F08991809308090E944D23E5
:104B7800882339F08091050984FFF2CF80E001C0D5
:0C4B880081E0DF91CF911F910F91089503
:104B940097FB10F8169400080F93083098F008500B
:104BA400232F342F452F562F672F782F892F902DA1
:104BB400F4CF05949795879577956795579547957D
:0C4BC400379527950A95AAF70F910895E0
:104BD000A0E0B0E0EEEEF5E20C9477266C01EB017C
:104BE0008A017B01E40EF51ECE15DF0539F08991AF
:104BF000B6010E941F2B0E945B1FF6CFC801CDB7E4
:084C0000DEB7E8E00C949026F9
:104C0800CF93909105099370933091F0880F682B9A
:104C1800609307090E944D23C82F811103C00E9489
:104C28004B2B07C00E943627882319F00E944B2B74
:084C3800C0E08C2FCF9108951C
:104C40001F93CF93DF93EC01162F0E9429290E9416
:104C50004D230E943627882321F00E944B2B80E0B1
:104C600005C0612FCE010E94772381E0DF91CF91B3
:044C70001F910895F3
:104C7400AA0BBB0B40914D4F50914E4F60914F4F3B
:104C84007091504F5C016D01A40EB51EC61ED71E57
:104C9400C601B501ADE4BFE4AD92BD92CD92DC9204
:044CA40013970895C5
:104CA800AB89BC892C9111963C91119712964C9125
:104CB800129713965C91139714966C911497159606
:104CC8007C91159716968C91169717969C91A0E053
:024CD80008953D
:104CDA002F923F924F925F926F927F928F929F9202
:104CEA00AF92BF92CF92DF92EF92FF920F931F93F0
:104CFA00CF93DF93CDB7DEB7CA1BDB0BCDBFDEBFC9
:024D0A0009940A
:104D0C002A88398848885F846E847D848C849B844F
:104D1C00AA84B984C884DF80EE80FD800C811B815D
:104D2C00AA81B981CE0FD11DCDBFDEBFED01089593
:104D3C00A2E0B0E0E4EAF6E20C947B268C01498315
:104D4C005A83AE014F5F5F4F0E942610F8012081FD
:104D5C0024FF02C08FEF9FEF2296E4E00C94942680
:104D6C00262FAF93BF93E0E0F0E1328131FDFDCF10
:104D7C003DE934BF33E13083DC01A050BC4E2C93B1
:104D8C003DE934BF20E020830196BF91AF91089597
:104D9C008F938FB78F938BB78F93EF93FF9381E0A4
:104DAC008093B64FE0E4F1E083898160838BFF91BF
:0E4DBC00EF918F918BBF8F918FBF8F911895C4
:104DCA00052E97FB1EF400940E946B2B57FD07D00B
:104DDA000E940B2507FC03D04EF40C946B2B5095C4
:0E4DEA004095309521953F4F4F4F5F4F0895F4
:104DF80097FB072E16F4009407D077FD09D00E9480
:104E0800102707FC05D03EF4909581959F4F089593
:084E1800709561957F4F08952C
:104E2000AA1BBB1B51E107C0AA1FBB1FA617B707D0
:104E300010F0A61BB70B881F991F5A95A9F78095EC
:084E40009095BC01CD0108951D
:104E48004B01FA01DB0112962D913C9113971496B0
:104E58004D905C9015978D919C91119789839A83B9
:044E680016960895FD
:104E6C000E94332B882361F0909105099C7149F4C1
:104E7C0090910509937081E0933019F080E00895CA
:044E8C0081E0089524
:104E900066E081E10E945B24882351F065EB85E1A7
:104EA0000E945B24882321F06DE284E10C945B2452
:044EB00080E0089501
:104EB4000E941B2B58F080628156910931E020E05A
:104EC400069708F030E0832F922F089581E090E058
:024ED40008953F
:104ED600092E0394000C11F4882352F0BB0F40F402
:104EE600BF2B11F460FF04C06F5F7F4F8F4F9F4F42
:024EF60008951D
:104EF800C756DF4FE881F981C959D040CF010196E3
:104F0800C756DF4F88839983C959D04020810895B7
:104F18006095709580959095309540955095219520
:104F28003F4F4F4F5F4F6F4F7F4F8F4F9F4F0895AA
:104F380080919A4F811103C081E080939A4F8091AC
:0E4F48009A4F843019F485E080939A4F0895B3
:104F560097FF03C09195819591099C0181E02038C6
:0E4F6600310524F0359527958F5FF9CF08951A
:104F74009091440895FF09C09091440890649093DF
:0E4F840044088093420881E0089580E008957B
:104F9200CF93C82F0E946A2A882339F0909104087F
:0E4FA200906490930408C0930208CF91089584
:104FB0006AE789E590E00E94B62660E07FE08AE536
:0E4FC00090E00E94162B80E09FE00C943724B6
:104FCE00A29FB001B39FC001A39F700D811D11243C
:0E4FDE00911DB29F700D811D1124911D08952B
:104FEC00182FD92F660F771F660F771FFB01EB5811
:0C4FFC00F14B0E94022BC501B401089586
:10500800C756DF4F88819981C959D0400196C75644
:0C501800DF4F88839983C959D040089568
:1050240090E0982F8827A0E0B0E08A019B01082B2C
:0C503400192B2A2B3B2BC901B801089551
:10504000689401C0E8948F929F92CF93DF930E945F
:0C505000711EDF91CF919F908F9008950A
:10505C00FC01AF014F5F5F4F2081222311F0FA0159
:0C506C00F8CF9F01281B390BC9010895E3
:10507800A0E0B0E0E2E4F8E20C947D260E94552915
:0A5088000E943F2AE2E00C949626F5
:10509200A0E0B0E0EFE4F8E20C947D260E945529EE
:0A50A2000E943F2AE2E00C949626DB
:1050AC001092994F8091984F8A3018F086ED9AE4BF
:0A50BC0002C081EE9AE40C949C22DD
:1050C6000E94D52A2F8168850E9420292E810E9460
:0A50D6003F2B8D810E9412280895DF
:1050E0000E94D52A2B856C850E9420292A850E9442
:0A50F0003F2B89850E9412280895C5
:1050FA000E94D52A2F8568890E9420292E850E9420
:0A510A003F2B8D850E9412280895A6
:10511400880F991F880F991FFC01EF5AF14B0E94C9
:08512400022BC501B40108953E
:10512C00212F110F330B2154310989899A89820D52
:08513C00931D2A31310508958D
:105144000024A7FD00942A0F301D401D501D601D32
:08515400701D801D901D0895DF
:10515C000024A7FD00942A17300540055005600572
:08516C0070058005900508950F
:105174000E940428D701ED91FC911197CF0102966A
:065184008D939C93089539
:10518A00C081D181CE01029680839183E881F98121
:06519A00ED93FC93089563
:1051A0002B816C810E9420292A810E943F2B8981BA
:0651B0000E941228089580
:1051B6000E94E727A59F900DB49F900DA49F800D98
:0651C600911D1124089563
:1051CC00EC010E94882B0E94872BCE010E94892B18
:0651DC00CE010E94852BAC
:1051E2000E94D02A4481558166817781FE013196E1
:0451F2005F010895BC
:1051F600E091934FF091944F3196E093934FF09353
:04520600944F089524
:10520A0020E632E442EA5DE060E070E080E89FE395
:02521A000895F5
:10521C002A893B814C81572D662D752D842D9D81BE
:02522C000895E3
:10522E0020E030E040E251E46B817C818D819E81F3
:02523E000895D1
:10524000862F90E0A0E0B0E0DC0199278827B22B00
:025250000895BF
:105252008091070981608093070981E080930409A6
:025262000895AD
:10526400EE0FFF1F0024001C0BBE0790F691E02DEB
:0252740009949B
:105276009C01215631092A31310510F48F75992781
:02528600089589
:10528800FC01480F591FE417F50711F06193FBCF94
:02529800089577
:10529A0090958095709561957F4F8F4F9F4F089598
:1052AA00AE01475F5F4F6F8178858D819E8108953A
:1052BA00D040CD57DF4F68827982C358D0400895D5
:1052CA00632D70E0970140E050E00E94272B08957B
:1052DA00AE0145575F4FBE016F577F4FC601089514
:1052EA0009811A81D4010E94F229481B590B089599
:1052FA00762767277627072E000C880B990B0895C7
:10530A009C01215431092A31310508F4806208953B
:10531A00FC01DB012D91BD0121932111FACF0895E2
:10532A0003D0808199270895FC01E050FC4E08952E
:10533A00242F0E94B726252F0E94B7260C94162BDD
:0E534A00F801E60FF11D67FDFA9580810895C8
:0E535800C756DF4F88819981C959D04008950A
:0E5366000E94DD298081082E000C990B08950D
:0E537400C756DF4F88829982C959D0400895EC
:0E538200C756DF4FE883F983C959D04008951C
:0E539000CF57DF4F28813981C158D040089592
:0E539E00CD57DF4F88839983C358D0400895C0
:0E53AC00CB57DF4F88839983C558D0400895B2
:0E53BA00C756DF4FE881F981C959D0400895E8
:0E53C8004F815885415051094F8358870895F1
:0E53D60012968D919C9113978217930708955C
:0E53E40018964D915C9119974150510908950A
:0E53F20080914408806480934408C0E00895D0
:0E540000D701F6016B2F7E2D8F2F9C2D089566
:0E540E0080910408806480930408C0E0089533
:0E541C00E091A94FF0E0EB57F14B808108952D
:0E542A00880B990B460E571E681E791E0895BA
:0E5438005058BB27AA270E94F61C0C946B2725
:0E5446000E9423236894B1110C94392A089512
:0E54540000240A941616170618060906089575
:0E54620000240A941216130614060506089577
:0E547000E894BB2766277727CB0197F90895AC
:0E547E009A01AB016FEF7FE70E942D20089589
:0C548C000E945F2B5BE7C701B60108958A
:0C549800632D70E0A7010E94272B0895EF
:0C54A4000E94A82A02968D939C93089504
:0C54B0009101A201B301C401A0E0089525
:0C54BC006D937D938D939C93139708953E
:0C54C8000000000081E0809300020895C5
:0C54D4008091040885FB882780F908956A
:0C54E00097F99F6780E870E060E0089595
:0A54EC0020E030E040E05BE40895AA
:0A54F600612F7C2D8D2D9F2D089550
:0A55000077956795B795F795089524
:0A550A0060E070E00E94320D089589
:0A551400880F991FAA1FBB1F0895FE
:0A551E00E80FF11D87FDFA950895CE
:0A552800405351094A30510508951F
:0A553200205331092A303105089595
:0A553C000E9404280E946D290895C2
:0A5546000E947C270E946D29089541
:0A555000CD91DC911197CE01089572
:0A555A002B813C814D815E81089594
:0A556400B7FAB094B7F8B0940895B8
:0A556E006B837C838D839E83089578
:0A5578000E9499290E94CB2A089591
:0A55820080839183A283B383089510
:0A558C006D917D918D919C91089521
:0A5596006081718182819381089584
:0A55A00000811181228133810895FA
:0A55AA006083718382839383089568
:0A55B40020E030E040E052E40895EA
:0A55BE0023E333E948E853E40895BD
:0A55C80040815181628173810895D2
:0A55D20028EE33E040E050E00895B9
:0A55DC002D913D914D915C910895D1
:0A55E6004D915D916D917C91089547
:0A55F000072E000C880B990B08959C
:0A55FA00A7019601C701B60108954C
:0A5604002081318142815381089515
:0A560E000E947F2408F481E0089553
:0A5618000E947F2408F48FEF08952C
:0A5622000E9499298081918108956A
:0A562C000E94B626272F0C94B72623
:085636009C010E94992A0895CD
:08563E00082E000C990B0895E1
:085646000E94DD298081089516
:08564E00CE0185579F4F08951E
:08565600DF4F1882198208954C
:08565E000E94C5284083089555
:085666008091C20081700895DB
:08566E000E945F2B5BE308952D
:085676000E945F2B5AE3089526
:08567E00AC01BD01422B0895AF
:08568600F0E0EB57F14B089531
:08568E00BE016F5F7F4F08951C
:0856960083E0809304090895EC
:08569E00982789279827089539
:0856A60020E030E040E008952F
:0856AE000E945F2B5FE30895E9
:0856B6008091B14F8823089593
:0856BE0020E030E040E808950F
:0856C6000E94B51B0C946B2738
:0856CE000E948E1C0C946B2756
:0656D6000E944D29089519
:0656DC0080E090E008955B
:0656E2000E940428089557
:0656E8000E94F229089562
:0656EE000E94D52A089578
:0656F4000E945F2B0895E7
:0656FA000E94022B08953E
:065700009FEF80EC08950C
:045706000C940000FF
:04570A000E94C30036
:02570E000895FC
:025710000895FA
:025712000895F8
:10571400496E697469616C697A696E67204D4C5889
:105724003930333932204D61676E65746F6D65743D
:1057340065722053656E736F722E2E2E004641499A
:105744004C45440D0A0043414C204241440D0A009B
:105754004F4B0D0A00496E697469616C697A696E10
:1057640067204D4C5839303633322054656D70659E
:105774007261747572652053656E736F722E2E2E6E
:10578400000D0A4C6F61646564206361636865643D
:1057940020636F6E7374616E747320616E64207322
:1057A400657474696E67732E2E2E000D0A4C6F613A
:1057B40064656420636F6E7374616E7473206672C3
:1057C4006F6D2073656E736F7220616E64207265F5
:1057D40073657420746F2064656661756C74732ED0
:1057E4002E2E005265636569766564205573657273
:1057F40020436F6D6D616E643A20000D0A003C43D6
:105804004D44204F4B3E0D0A003C434D4420424141
:10581400443E0D0A004E6F6E2D5573657220436F22
:105824006D6D616E643A20005265636569766564E6
:1058340020537461747573204D6573736167653AA1
:1058440020005245424F4F5400444953434F4E4E5B
:1058540045435400434F4E4E454354005354524520
:10586400414D5F4F50454E005B4552525D20556E91
:1058740061626C6520746F206D6174636820737459
:1058840072696E6720746F20726573706F6E7365D2
:105894002E0D0A00426567696E6E696E6720524E6E
:1058A4003438373020496E697469616C20506F77E1
:1058B40065722D557020436F6E6669672E2E2E0D0E
:1058C4000A0024242400524E3438373020456E74A4
:1058D4006572696E6720436F6D6D616E64204D6FF4
:1058E40064652E2E2E0053532C343000532D2C4D32
:1058F4004348502D4D4C5800522C31004300490070
:105904005B4552525D204661696C656420746F206A
:105914006368616E6765204D4C58393033393220E5
:105924006F7065726174696E67206D6F64652E0DAA
:105934000A00426567696E6E696E67206F70656EF6
