:100000000C94AA000C94482D0C94482D0C94482D67
:100010000C941A240C944A230C944C240C94482DD0
:100020000C94482D0C94482D0C94482D0C94482D7C
:100030000C94482D0C94482D0C94482D0C94482D6C
:100040000C94482D0C94482D0C94482D0C94482D5C
:100050000C94482D0C94482D0C94482D0C94482D4C
:100060000C94482D0C94482D0C94482D0C94482D3C
:100070000C94482D0C94482D0C94482D0C94482D2C
:100080000C94482D0C94482D0C94482D0C94482D1C
:100090000C94482D0C94482D0C94AE240C94482DAF
:1000A0000C94482D0C94482D0C94482D0C94482DFC
:1000B0000C94482D0C94482D0C94482D0C94482DEC
:1000C0000C94482D0C94482D0C94482D0C94482DDC
:1000D0000C94482D0C94DD240C94482D0C94482D40
:1000E0000C94482D0C94482D0C94482D0C94482DBC
:1000F0000C94482DC904E904F4040605C505DF0580
:10010000F7061707F3032107BA04C5044000430AA2
:1001100080430A4348005AA243484354804354430F
:100120005B005AE0435B4361804361436F005AE7E1
:10013000436F43CB8043CB43CD005AF543CD43D6E9
:100140008043D643D700075743D743D9005AF743D4
:10015000D943E180809101108F7C8060806880931A
:10016000011011241FBECFEFCDBFDFE7DEBFECE0F3
:10017000F1E041E019C0B791A7913791279107911C
:1001800007FD0EC097918791EF01F92FE82F0BBF64
:1001900007900D92A217B307D9F7FE011BBE04C04A
:1001A0001D92A217B307E1F7E435F40721F70E9487
:0A01B0003C260C94F32BF894FFCFCB
:1001BA00496E697469616C697A696E67204D4C5839
:1001CA003930333932204D61676E65746F6D6574ED
:1001DA0065722053656E736F722E2E2E004641494A
:1001EA004C45440D0A0043414C204241440D0A004B
:1001FA004F4B0D0A004D61782056616C75653A20A7
:10020A00256C752C20437261636B65643A20256CFA
:10021A00752C20666F756E6420256C750D0A003C7E
:10022A005468726573686F6C6420457863656564A9
:10023A0065643E202D2000416C61726D204241446C
:10024A000A00416C61726D204F4B0A005B455252A5
:10025A005D204661696C656420746F206368616E15
:10026A006765204D4C583930333932206F706572CA
:10027A006174696E67206D6F64652E0D0A004265B0
:10028A0067696E6E696E67206F70656E2077696E3A
:10029A00646F772063616C6962726174696F6E2E34
:1002AA000D0A005A65726F696E6720436F6D706C34
:1002BA006574652E20585F6F6666203D2025642C84
:1002CA0020595F6F6666203D2025642C205A5F6F97
:1002DA0066663D2025640D0A00426567696E6E698F
:1002EA006E6720636C6F7365642077696E646F77DD
:1002FA002063616C6962726174696F6E2E0D0A0007
:10030A005363616C696E6720436F6D706C657465C9
:10031A00642E20585F7363616C6520203D20325E35
:10032A0025642C20595F7363616C65203D20325E21
:10033A0025642C205A5F7363616C65203D20325E10
:10034A0025640D0A005B4552525D2053656E736F3A
:10035A00722076616C75652069732062656C6F77AF
:10036A00206E6F697365206D617267696E2C2070EB
:10037A006C6561736520636C6F73652074686520B2
:10038A0077696E646F7720616E642070726573732B
:10039A002074686520627574746F6E20746F2072A1
:1003AA00657472792E0D0A00426567696E6E696E10
:1003BA00672077696E646F77207468726573686FF7
:1003CA006C642063616C6962726174696F6E2E0D70
:1003DA000A005B5741524E5D205468726573686F1C
:1003EA006C642069732062656C6F77206E6F697325
:1003FA0065206D617267696E2E2053656E736F7228
:10040A00206D6179206E6F74206F706572617465FA
:10041A0020636F72726563746C792E0D0A005468DA
:10042A00726573686F6C642063616C69627261746F
:10043A00696F6E20636F6D706C6574652E205468E9
:10044A00726573686F6C643A20256C750D0A0043F7
:10045A00616C6962726174696F6E20436F6D706C52
:10046A00657465642E0D0A004D61676E65746F6D63
:10047A00657465722053656E736F72204572726F70
:10048A0072202D205265626F6F742044657669630D
:10049A00650D0A00004F70656E20746865207769E3
:1004AA006E646F7720616E64207072657373207456
:1004BA00686520627574746F6E20746F207374613E
:1004CA0072742E0D0A00506C6561736520636C6F3F
:1004DA007365207468652077696E646F7720616E32
:1004EA00642074686520707265737320746865206F
:1004FA00627574746F6E20746F20636F6E74696EA8
:10050A0075652E0D0A00506C65617365206F706504
:10051A006E207468652077696E646F7720746F2027
:10052A0074686520646573697265642074687265AD
:10053A0073686F6C642C207468656E2070726573C2
:10054A00732074686520627574746F6E2E0D0A00CC
:10055A005B4552525D2057696E646F77206973203C
:10056A00746F6F206F70656E2E20506C65617365B5
:10057A0020636C6F7365207468652077696E646F99
:10058A007720616E642070726573732074686520C9
:10059A00627574746F6E20746F2072657472792E2E
:1005AA000D0A00506C6561736520636C6F7365207A
:1005BA007468652077696E646F7720616E64207055
:1005CA00726573732074686520627574746F6E2027
:0D05DA00746F2066696E6973682E0D0A004B
:1005E700496E697469616C697A696E67204D4C5808
:1005F70039303633322054656D70657261747572A7
:10060700652053656E736F722E2E2E000D0A4C6F88
:10061700616465642063616368656420636F6E73FA
:1006270074616E747320616E642073657474696E8F
:1006370067732E2E2E000D0A4C6F6164656420636C
:100647006F6E7374616E74732066726F6D2073655D
:100657006E736F7220616E642072657365742074A7
:100667006F2064656661756C74732E2E2E004F4B78
:100677000D0A004641494C45440D0A0053656E7307
:100687006F722054656D70657261747572653A207A
:1006970025322E3266430D0A526F6F6D2054656DF9
:1006A70070657261747572653A2025322E32664321
:1006B7000D0A0054656D706572617475726520531B
:1006C700656E736F72204572726F72202D205265AE
:0E06D700626F6F74204465766963650D0A00DA
:1006E500242424002D2D2D004B4F410045786563B2
:1006F5007574696E6720436F6D6D616E643A202273
:1007050000222E2E2E004F4B0D0A004641494C4526
:10071500440D0A00496E697469616C697A696E678E
:1007250020524E343837302E2E2E0D0A00456E7469
:100735006572696E6720436F6D6D616E64204D6FE4
:1007450064652E2E2E00532D2C4D4348502D4D4CB7
:0207550058004A
:0107570001A0
:100758004F925F926F927F928F929F92AF92BF92C9
:10076800CF92DF92EF92FF920F931F93CF93DF9375
:10077800CDB7DEB72597CDBFDEBFDC019091D14361
:10078800993108F4EFC088E0809327041092D14390
:10079800FB01C184D284E384F4844091B74350912F
:1007A800B8436091B9437091BA434C155D056E0525
:1007B8007F0540F4C092B743D092B843E092B94362
:1007C800F092BA439091DA43492F50E04C305105EA
:1007D80008F08FC0FA01E658FF4F0C941A2C2091AC
:1007E800C3433091C4432F5F3F4F2093C34330939B
:1007F800C4434091A7435091A8436091A943709185
:10080800AA43C40ED51EE61EF71EC092A743D09277
:10081800A843E092A943F092AA43283E334008F443
:1008280068C0C701B60128EE33E040E050E00E94FE
:100838001D2ACA01B9010E942D220E94B2190E94E4
:100848000C256093BB437093BC438093BD43909346
:10085800BE43683271058105910508F411C30E94F1
:100868002B222DEC3CEC4CE85FE30E94352D0E94D6
:10087800B2190E940C25F62EE72ED82EC92E6093A9
:10088800BB437093BC438093BD439093BE43609138
:10089800B7437091B8438091B9439091BA430E948D
:1008A8002B222DEC3CEC4CE85FE30E94352D0E9496
:1008B800B2190E940C256093B7437093B843809394
:1008C800B9439093BA430E943C2DCF92DF92EF92A6
:1008D800FF9228E234E83F932F939F938F930E94CF
:1008E800E32A0E943B2589E08093DA43CDBFDEBF2F
:1008F80099E08091D04389130FC02091C143309172
:10090800C2432032F3E03F0738F42F5F3F4F209374
:10091800C1433093C24312C0E92FF0E0EE0FFF1F2E
:10092800E65FFC4B808191810E94B2238091DA437B
:100938008093D0431092C1431092C2432596CDBFF5
:10094800DEBFDF91CF911F910F91FF90EF90DF9065
:10095800CF90BF90AF909F908F907F906F905F9057
:100968004F9008959F5F9093D14312CF82E00E94E9
:10097800672B882309F474C28BE08093DA439BE0E9
:10098800B8CF1092DA4390E0B4CF1092D04381E010
:100998008093DA431092B3431092B4431092B54354
:1009A8001092B6431092AF431092B0431092B143E5
:1009B8001092B2431092AB431092AC431092AD43E5
:1009C8001092AE43E1E0F0E0A9CF8AE00E94672BE5
:1009D800882309F445C282E08093DA4392E089CF04
:1009E8008091D543882309F484CF88E892E80E944F
:1009F800B22383E08093DA431092C3431092C44336
:100A080093E077CF2091C3433091C4432F5F3F4F8A
:100A18002093C3433093C44311964D915C91129730
:100A2800052E000C660B770BC090B343D090B443EF
:100A3800E090B543F090B6434C0D5D1D6E1D7F1DD3
:100A48004093B3435093B4436093B5437093B64314
:100A580013968D909C901497092C000CAA08BB083B
:100A6800C090AF43D090B043E090B143F090B24310
:100A78008C0C9D1CAE1CBF1C8092AF439092B0435F
:100A8800A092B143B092B2431596CD90DC901697E0
:100A98000D2C000CEE08FF084090AB435090AC437F
:100AA8006090AD437090AE43C40CD51CE61CF71C97
:100AB800C092AB43D092AC43E092AD43F092AE43C8
:100AC800283E334008F415CFF8EE4F2EF3E05F2EA2
:100AD800612C712CCB01BA01A30192010E941D2A3D
:100AE800CA01B9010E942D220E94B2190E94A32CAA
:100AF80069837D836093C9437093CA43C501B40178
:100B0800A30192010E941D2ACA01B9010E942D2247
:100B18000E94B2190E94A32CB62EA72E6093C74339
:100B28007093C843C701B601A30192010E941D2A10
:100B3800CA01B9010E942D220E94B2190E94A32C59
:100B4800F62EE72E6093C5437093C6430E943C2D52
:100B5800EF92FF92AF92BF92AD81AF93B981BF93ED
:100B68002DEA32E83F932F939F938F930E94E32AB5
:100B78000E943B2584E08093DA43CDBFDEBF94E03A
:100B8800B8CE8091D543882309F4B3CE1092B743E9
:100B98001092B8431092B9431092BA4383EE92E888
:100BA8000E94B22385E08093DA431092C3431092E7
:100BB800C44395E09ECE2091C3433091C4432F5F38
:100BC8003F4F2093C3433093C44311964D915C919A
:100BD80012976091C9437091CA43461B570B052E63
:100BE800000C660B770BC090B343D090B443E090F1
:100BF800B543F090B6434C0D5D1D6E1D7F1D4093AF
:100C0800B3435093B4436093B5437093B64313967C
:100C18008D909C901497E091C743F091C8438E1A29
:100C28009F0A092C000CAA08BB08C090AF43D090BB
:100C3800B043E090B143F090B2438C0C9D1CAE1CC5
:100C4800BF1C8092AF439092B043A092B143B09240
:100C5800B2431596CD90DC901697E091C543F0917C
:100C6800C643CE1ADF0A0D2C000CEE08FF08409090
:100C7800AB435090AC436090AD437090AE43C40C0E
:100C8800D51CE61CF71CC092AB43D092AC43E09253
:100C9800AD43F092AE43283E334008F42ACEE8EE46
:100CA8004E2EE3E05E2E612C712CCB01BA01A3011C
:100CB80092010E941D2ACA01B9010E942D220E9498
:100CC800B2190E94A32C69837A838B839C836093D7
:100CD800B3437093B4438093B5439093B643C5012F
:100CE800B401A30192010E941D2ACA01B9010E9400
:100CF8002D220E94B2190E94A32C4B015C01609323
:100D0800AF437093B0438093B1439093B243C7010C
:100D1800B601A30192010E941D2ACA01B9010E94CD
:100D28002D220E94B2190E94A32CAB01BC01409352
:100D3800AB435093AC436093AD437093AE4389810A
:100D48009A8197FDB4C0803891050CF4B4C021E0B5
:100D5800959587952F5F80389105D4F7822F90E07D
:100D680089839A832093D843C40197FC9BC0803819
:100D780091050CF4ABC021E0959587952F5F8038DD
:100D88009105D4F7022F10E02093D743CA0157FDED
:100D980084C0803891050CF494C021E0959587951E
:100DA8002F5F80389105D4F7A22EB12C2093D6431B
:100DB8000E943C2DBF92AF921F930F93BA81BF93AD
:100DC800E981EF932AE033E83F932F939F938F9322
:100DD8000E94E32A0E943B2586E08093DA43CDBF38
:100DE800DEBF96E086CDA9E2CA16D104E104F1047B
:100DF800F0F18091D543882309F47BCD82EB93E809
:100E08000E94B2231092C3431092C4431092A74386
:100E18001092A8431092A9431092AA4388E08093A5
:100E2800DA4398E066CD8091D543882309F461CDF3
:100E380086E08093DA4396E05CCD8091D5438823A1
:100E480009F457CD89E594E80E94B2238AE080939B
:100E5800DA431092D1430E94E01F9091DA4349CDC2
:100E680086E592E80E947E239091DA4342CD8FE492
:100E780093E80E947E2387E08093DA4397E039CD98
:100E88008CED93E80E947E236091BB437091BC4334
:100E98008091BD439091BE43E2CC88279927841B5B
:100EA800950B77CF882799278819990960CF91954D
:100EB8008195910948CFA1E0B0E0A983BA8321E0E8
:100EC80051CFAA24A394B12C21E070CF01E010E007
:040ED80021E05ACFEC
:100EDC00AAE9B0E0E4E7F7E00C94A5296C017A01EB
:100EEC00C756DF4F68837983C959D040A12CB12CE8
:100EFC0066246A94762C90E8492E512C25E2222EF9
:100F0C00C756DF4F68817981C959D040FB01808178
:100F1C00882309F471C3CF57DF4F18821982C15847
:100F2C00D040CD57DF4F68827982C358D040CB5721
:100F3C00DF4F18821982C558D04081E090E08C0FA9
:100F4C009D1FC957DF4F88839983C758D040C75717
:100F5C00DF4F48825982C958D040FB0100E010E0B5
:100F6C008191811116C001151105C1F0A801C601AE
:100F7C000E943A29C756DF4F88819981C959D040C0
:100F8C00800F911FC756DF4F88839983C959D04072
:100F9C0005C0853241F30F5F1F4FE2CFC756DF4FBD
:100FAC00E881F981C959D0408081853209F012C39A
:100FBC004F019FEF891A990AC756DF4F8882998291
:100FCC00C959D040C756DF4F88819981C959D04043
:100FDC00DC012C912B3241F4CF57DF4F2881398122
:100FEC00C158D04024600BC02C32BCF02D3249F5D6
:100FFC00CF57DF4F28813981C158D0402160CF575E
:10100C00DF4F28833983C158D0400196C756DF4F34
:10101C0088839983C959D040D5CF203241F4CF571A
:10102C00DF4F28813981C158D0402860E8CF233266
:10103C0091F4CF57DF4F28813981C158D0402061BE
:10104C00DECF203341F4CF57DF4F28813981C1588F
:10105C00D0402260D4CF2A3289F50196C756DF4F93
:10106C0088839983C959D040D701ED91FC91119790
:10107C00CF0102968D939C9380819181CB57DF4F4A
:10108C0088839983C558D04097FF35C0CF57DF4F21
:10109C0028813981C158D040B1E02B27CF57DF4F81
:1010AC0028833983C158D040919581959109CB57AC
:1010BC00DF4F88839983C558D0401DC00E94DC2225
:1010CC00CB57DF4F88839983C558D040C756DF4F25
:1010DC00E881F981C959D0408081082E000C990B08
:1010EC00C0970A9740F43196C756DF4FE883F983CF
:1010FC00C959D040EBCFCF57DF4F88819981C15868
:10110C00D04080FF07C08D7FCF57DF4F88839983F6
:10111C00C158D040C756DF4FE881F981C959D0403A
:10112C0080818E3209F046C0CD57DF4F188219826C
:10113C00C358D040CF010196C756DF4F888399839F
:10114C00C959D04021812A32C1F43296C756DF4F9B
:10115C00E883F983C959D040D701ED91FC911197DF
:10116C00CF0102968D939C9380819181CD57DF4F57
:10117C0088839983C358D0401DC00E94DC22CD5770
:10118C00DF4F88839983C358D040C756DF4FE8811F
:10119C00F981C959D0408081082E000C990BC09759
:1011AC000A9740F43196C756DF4FE883F983C95943
:1011BC00D040EBCFCE0187569F4F0E94A028382EEF
:1011CC00C756DF4FE881F981C959D0408081082E7C
:1011DC00000C990B0E947D2C8936910509F456C0A0
:1011EC00B4F48336910509F46BC144F4853291054E
:1011FC0009F4A2C18136910529F1B4C18436910557
:10120C0009F444C0883691050CF436C1ABC1803763
:10121C00910509F4C4C04CF48E36910509F420C133
:10122C008F36910509F47AC09DC18537910509F473
:10123C0051C08837910509F495C08337910509F0A1
:10124C0091C15DC1632D70E0A701CE0185579F4F01
:10125C000E94C028892B09F4B0C1C756DF4FE88122
:10126C00F981C959D040CF010196C756DF4F888309
:10127C009983C959D0402081AE0145575F4FBE01BB
:10128C006F577F4FC6010E94452D94C1632D70E0AE
:10129C00970141E050E0CE0185579F4F0E940A17FD
:1012AC00892B09F48AC1C756DF4F88819981C959A6
:1012BC00D0400196C756DF4F88839983C959D040D7
:1012CC00AE0145575F4FBE016F577F4FC6010E945D
:1012DC004B1670C1632D70E0970140E050E0CE01D9
:1012EC0085579F4F0E940A17892B09F466C1C75670
:1012FC00DF4F88819981C959D0400196C756DF4F7D
:10130C0088839983C959D040AE0145575F4FBE01C0
:10131C006F577F4FC6010E94891F4CC1632D70E02F
:10132C00970140E050E0CE0185579F4F0E940A176D
:10133C00892B09F442C1C756DF4F88819981C9595D
:10134C00D0400196C756DF4F88839983C959D04046
:10135C00AE0145575F4FBE016F577F4FC6010E94CC
:10136C00021E28C1632D70E0970140E050E0CE01D1
:10137C0085579F4F0E940A17892B09F41EC1C75627
:10138C00DF4FE881F981C959D040CF010196C7568A
:10139C00DF4F88839983C959D040208157C097016A
:1013AC0040E050E060EF70E0CE0185579F4F0E9407
:1013BC000A17892B09F401C1C756DF4F888199811F
:1013CC00C959D0400196C756DF4F88839983C959B4
:1013DC00D04086E0E1E6F3E4DE01AD56BF4F01906C
:1013EC000D928A95E1F7C557DF4F2881CB58D04035
:1013FC00C457DF4F3881CC58D040C357DF4F48819A
:10140C00CD58D040C257DF4F5881CE58D040C1572D
:10141C00DF4F6881CF58D040C057DF4F7881C0591B
:10142C00D040CF56DF4F8881C159D040CE56DF4FC8
:10143C009881C259D040A0E00E94D02B31F420E01A
:10144C0030E0AE014D565F4FAFC028E7AE014557B7
:10145C005F4FBE016F577F4FC6010E943E12AAC05C
:10146C00632D70E09701A501400F511FCE018557E8
:10147C009F4F0E94561CA1C0632D70E0A701CE01A6
:10148C0085579F4F0E94C028892B09F496C0C756D8
:10149C00DF4FE881F981C959D040CF010196C75679
:1014AC00DF4F88839983C959D0402081AE014557BD
:1014BC005F4FBE016F577F4FC6010E94080B7AC069
:1014CC00B0E83B127AC0C756DF4F88819981C95961
:1014DC00D0400196C756DF4F88839983C959D040B5
:1014EC00D701ED91FC911197CF0102968D939C93AE
:1014FC008081C557DF4F8883CB58D04050C0B0E8AF
:10150C003B125BC0C756DF4F88819981C959D040C7
:10151C000196C756DF4F88839983C959D040D701AC
:10152C00ED91FC911197CF0102968D939C93408184
:10153C00518120E030E038C0B0E83B123EC0C756C5
:10154C00DF4F88819981C959D0400196C756DF4F2A
:10155C0088839983C959D040C557DF4F2882CB580F
:10156C00D0401DC0C557DF4F2882CB58D040C7563E
:10157C00DF4F88829982C959D040CF57DF4F1882EC
:10158C001982C158D040CB57DF4F18821982C558E9
:10159C00D040CD57DF4F68827982C358D04021E0CC
:1015AC0030E0AE0145575F4FBE016F577F4FC6010C
:1015BC000E94E623800F911F0EC0C756DF4F888113
:1015CC009981C959D0400196C756DF4F88839983BA
:1015DC00C959D040C8018501080F191F0A151B05F0
:1015EC004CF48FE490E080930A4190930B418FEF81
:1015FC009FEF03C0580184CCC501C656DF4FE2E112
:04160C000C94EE2923
:10161000A6E2B0E0EEE0FBE00C94A5298E8F9F8F50
:10162000688F798F122FFB010190F081E02DE987FF
:10163000FA87FB01C280D380248135812B8B3C8BC0
:101640008085918588A399A326803780FA018080C0
:101650009180A280B38020E030E0A901C501B401EF
:101660000E94112D87FF06C0B7FAB094B7F8B09466
:101670008DE204C0598552FFF0C28BE2F1018083F4
:101680002B893C89215031092F83388741E050E074
:10169000498B5A8B06C08B899C898F839887198ABE
:1016A0001A8AD501C401BF770097E0E8AE07EFE7DB
:1016B000BE07B1F4212F110F330B21543109898951
:1016C0009A89820D931D2A31310518F468E373E479
:1016D00002C06CE373E40E94752C8CE393E4ADC20A
:1016E0000197A048BF47B0F0212F110F330B2154B1
:1016F000310989899A89820D931D2A31310518F49F
:1017000060E473E402C064E473E40E94752C84E432
:1017100093E493C220E030E0A901C501B4010E9426
:10172000112D1B821C82882309F46CC020E82D83B4
:101730003FE33E8319821A8220E030E040E251E428
:101740006B817C818D819E810E94352DF62E072F25
:101750008D879B87A50194010E94162D18166CF0A9
:1017600049815A814F5F5F4F49835A83FB820C83C3
:101770005D855D838B858E83DFCF1B861C862B81E9
:101780003C814D815E81C501B4010E94112D87FF0E
:101790003FC0E981FA81E43DFE4F04F54B855C854D
:1017A000452BE1F420E030E040E85AE5C501B40102
:1017B0000E94352D4B015C0120E030E040E85AE505
:1017C0006B817C818D819E810E94352D6B837C8312
:1017D0008D839E8381E090E08B879C8720E030E0C2
:1017E00040E251E46B817C818D819E810E94312D8C
:1017F0006B837C838D839E83E981FA813197E983B2
:10180000FA83BDCFF0E8FD832FE32E8319821A827D
:10181000412F110F550B4AA35BA3CA010E947D2CD7
:101820008B8FD7FC03C0CDA2DEA204C086E090E07F
:101830008DA39EA39B8D973641F4CD2809F012C24B
:10184000E1E0F0E0EDA3FEA30DC28B8D8D8B06C011
:1018500029813A8137FF19C296E69D8BEDA1FEA141
:101860003196EDA3FEA3FD89F636B9F429813A81BC
:1018700037FF08C01B821C8230E83D834FE34E8354
:1018800019821A825B8D573641F08DA19EA1E981A4
:10189000FA818E0F9F1F8DA39EA3FB81FB872C8156
:1018A0002D873D813E8B4E814A8F750164011C8ED0
:1018B0001D8EEC8DFD8D2DA13EA1E217F307B9F130
:1018C0002B853D854E895A8DC701B6010E94312D69
:1018D0000E944C1A2B013C010E94A32C6CA387018F
:1018E000760117FB109517F910952B853D854E89CC
:1018F0005A8DC301B2010E9414196B017C01F7FAE1
:10190000F094F7F8F09420E030E040E251E46B8589
:101910007D858E899A8D0E94312D6B877D878E8B78
:101920009A8F8C8D9D8D01968C8F9D8FC2CF20E0DC
:1019300030E040EA50E46B857D858E899A8D0E9467
:10194000352D2B013C019B01AC01C701B6010E9462
:10195000112D87FD0BC0A3019201C701B6010E94A2
:10196000112D811106C03CA130FD03C0412C512C2A
:101970003201A3019201C501B4010E949D2C4B01CB
:101980005C014D89453619F069807A8002C0612C6E
:10199000712C23018DA19EA1481A590AC988DA88A1
:1019A00000E010E01B861C86E985FA85E071FF27C0
:1019B000EE8BFF8B6414750431F4EB85FC85EF2B03
:1019C00009F496C0A1C0CC8EDD8EE88DF98D80859E
:1019D00091850597C816D90680F72B813C814D81EA
:1019E0005E81C501B4010E94312D0E944C1A6D87A1
:1019F0007E878F87988B0E94A32CCB012E893F89ED
:101A0000232B69F4892B59F43B8D373641F477FE4B
:101A100006C0A8014F5F5F4F4C8F5D8F3FC08B8525
:101A20009C85892BA9F477FE13C09FEFC91AD90AA8
:101A3000EC8DFD8DE20DF31D2EE220834F81588544
:101A4000415051094F83588781E090E08B879C87F4
:101A5000F101EC0DFD1D0C8F1D8F4C8D5D8D452B07
:101A600049F090E391932C8D3D8D215031092C8FBD
:101A70003D8FF3CFC8018C0D9D1D2F813885201B14
:101A8000310B6C015FEFC51AD50AF101E80FF91FA0
:101A9000605D6083C90101978F8398878501740118
:101AA00017FB109517F910952B813C814D815E81B4
:101AB0006D857E858F8598890E9414194B015C0184
:101AC000B7FAB094B7F8B09420E030E040E251E4C7
:101AD0006B817C818D819E810E94312D6B837C8303
:101AE0008D839E8391E0691A71080C8D1D8D62CFE4
:101AF000F985F4FF09C0F101EC0DFD1D8EE2808334
:101B000096012F5F3F4F6901A1014C0D5D1D4B8771
:101B10005C87FA011082FD89F53609F061C0E8A101
:101B2000F9A1E20DF31D3197108229813A8137FF27
:101B300008C031952195310929833A8301E010E0ED
:101B400002C000E010E0E8A1F9A13197E20DF31D19
:101B500022E030E08AE0E82EF12CCF0182199309CF
:101B600049815A81452B91F089819A81B7010E9460
:101B7000722A805D829369837A83215031094F8173
:101B80005885415051094F835887E7CF12161306E5
:101B90005CF3FC013197E20DF31D012B11F42BE2F4
:101BA00001C02DE220830297B101680F791F2AA19D
:101BB0003BA1215431092A31310510F025E601C03D
:101BC00025E4FB0120832F813885225031092F83A2
:101BD0003887C816D90624F48B859C850E94752CFD
:101BE000398531FF29C030FD27C04F815885141633
:101BF000150614F5C1010E94752B820D931D9C01E1
:101C00002219330949895A89241735074CF0FC01F8
:101C10002081EF81F885E80FF91F20830197EFCF2E
:101C20004F81588560E370E089899A89820D931D00
:101C30000E94232C1B8A1C8AC1010E94752B0985D6
:101C40001A852B893C89AC01B1018E8D9F8D0E9434
:101C50003520A696E2E10C94EE29598553FF1BCD61
:101C600080E20CCD89819A818C3F9F4F5CF0298165
:101C70003A814DA15EA1241735070CF4E9CD55E654
:101C80005D8B0BCEF5E6FD8B08CE36E63D8B05CEA3
:101C9000AF92BF92CF92DF92FF920F931F93CF9399
:101CA000DF93CDB7DEB76897CDBFDEBF8BE593E49A
:101CB0000E94EE21182F81110EC0812F6896CDBF92
:101CC000DEBFDF91CF911F910F91FF90DF90CF90FA
:101CD000BF90AF90089534E2F32EF0926F438CE002
:101CE0008093704300E19E012F5F3F4F42E06FE61B
:101CF00073E48AE30E94D21E882309F4E0C12B8199
:101D00006C81862F90E0A0E0B0E0DC019927882765
:101D1000B22B2A81AC01BD01422B898190E0982F22
:101D20008827A0E0B0E05A016B01A82AB92ACA2A84
:101D3000DB2AC601B5010E942D2220E030E040E8F8
:101D40005BE30E94352D6093A3437093A44380937B
:101D5000A5439093A6432F816885862F90E0A0E04D
:101D6000B0E0DC0199278827B22B2E81AC01BD01A0
:101D7000422B8D8190E0982F8827A0E0B0E05A0197
:101D80006B01A82AB92ACA2ADB2AC601B5010E941A
:101D90002D2220E030E040E855E30E94352D60938D
:101DA0009F437093A0438093A1439093A2432B85BC
:101DB0006C85862F90E0A0E0B0E0DC0199278827B1
:101DC000B22B2A85AC01BD01422B898590E0982F6A
:101DD0008827A0E0B0E05A016B01A82AB92ACA2AD4
:101DE000DB2AC601B5010E942D2220E030E040E848
:101DF00059E20E94352D60939B4370939C438093DE
:101E00009D4390939E432F856889862F90E0A0E0A4
:101E1000B0E0DC0199278827B22B2E85AC01BD01EB
:101E2000422B8D8590E0982F8827A0E0B0E05A01E2
:101E30006B01A82AB92ACA2ADB2AC601B5010E9469
:101E40002D2220E030E040E85BE30E94352D6093D6
:101E50009743709398438093994390939A43F09259
:101E60006F43F092704308E19E012F5F3F4F42E0C5
:101E70006FE673E48AE30E94D21E882309F41FC12F
:101E80002B816C81862F90E0A0E0B0E0DC019927E7
:101E90008827B22B2A81AC01BD01422B898190E0B9
:101EA000982F8827A0E0B0E05A016B01A82AB92A30
:101EB000CA2ADB2AC601B5010E942D2220E030E0AB
:101EC00040E857E30E94352D609393437093944309
:101ED00080939543909396432F816885862F90E059
:101EE000A0E0B0E0DC0199278827B22B2E81AC015D
:101EF000BD01422B8D8190E0982F8827A0E0B0E0B3
:101F00005A016B01A82AB92ACA2ADB2AC601B501DF
:101F10000E942D2220E030E040E85BE30E94352D56
:101F200060938F4370939043809391439093924337
:101F30002B856C85862F90E0A0E0B0E0DC0199272E
:101F40008827B22B2A85AC01BD01422B898590E000
:101F5000982F8827A0E0B0E05A016B01A82AB92A7F
:101F6000CA2ADB2AC601B5010E942D2220E030E0FA
:101F700040E858E20E94352D60938B4370938C4368
:101F800080938D4390938E432F856889862F90E0B0
:101F9000A0E0B0E0DC0199278827B22B2E85AC01A8
:101FA000BD01422B8D8590E0982F8827A0E0B0E0FE
:101FB0005A016B01A82AB92ACA2ADB2AC601B5012F
:101FC0000E942D2220E030E040E85DE20E94352DA5
:101FD00060938743709388438093894390938A43A7
:101FE0002B896C89862F90E0A0E0B0E0DC01992776
:101FF0008827B22B2A89AC01BD01422B898990E048
:10200000982F8827A0E0B0E05A016B01A82AB92ACE
:10201000CA2ADB2AC601B5010E942D2220E030E049
:1020200040E85DE20E94352D6093834370938443C2
:1020300080938543909386436D897E8976276727B1
:102040007627072E000C880B990B0E942D2220E08A
:1020500030E040E85AE30E94352D60937F4370934F
:10206000804380938143909382436F89788D762754
:1020700067277627072E000C880B990B0E942D22CC
:1020800020E030E040E85AE30E94352D60937B4326
:1020900070937C4380937D4390937E43F0926F4393
:1020A00081E88093704304E09E012F5F3F4F42E040
:1020B0006FE673E48AE30E94D21E811102C010E031
:1020C000FCCD69817A81762767277627072E000C59
:1020D000880B990B0E942D2220E030E040E858E365
:1020E0000E94352D609377437093784380937943B2
:1020F00090937A436B817C81762767277627072E1A
:10210000000C880B990B0E942D2220E030E040E863
:102110005AE30E94352D6093734370937443809308
:08212000754390937643C9CD8D
:102128004F925F926F927F928F929F92AF92BF92DF
:10213800CF92DF92EF92FF92CF93DF93CDB7DEB7C6
:102148002D97CDBFDEBF8091CD438230B9F080910D
:10215800CD43813099F080E02D96CDBFDEBFDF9171
:10216800CF91FF90EF90DF90CF90BF90AF909F906E
:102178008F907F906F905F904F9008956091524339
:1021880070915343072E000C880B990B0E942D2247
:102198004B015C0160914C4370914D43072E000C3C
:1021A800880B990B0E942D2220E030E040E451E496
:1021B8000E94312D6B017C0120917F433091804337
:1021C80040918143509182430E94352DA50194018D
:1021D8000E949D2C9B01AC01C701B6010E94312DC4
:1021E80020E030E040E059E40E94352D69837A838D
:1021F8008B839C838091CD43813009F432C16091F7
:102208004E4370914F438091504390915143680FD2
:10221800791F072E000C880B990B0E942D2220E0B5
:1022280030E040E05FE30E94352D20E030E040E4FC
:1022380051E40E94312D2B013C0120917B433091C8
:102248007C4340917D4350917E43C701B6010E9473
:10225800352DA50194010E949D2C9B01AC01C30161
:10226800B2010E94312D20E030E040E059E40E94A4
:10227800352D2B013C012091A3433091A44340917B
:10228800A5435091A64369817A818B819C810E94E4
:102298009C2C6B017C0120919F433091A04340917D
:1022A800A1435091A2430E94312D20919743309130
:1022B80098434091994350919A430E949D2C4B0119
:1022C8005C01A7019601C701B6010E94352D209136
:1022D8009B4330919C4340919D4350919E430E9463
:1022E800352D9B01AC01C501B4010E949D2C4B0109
:1022F8005C0160936743709368438093694390934C
:102308006A4323E333E948E853E40E949D2C6B01B8
:102318007C012091774330917843409179435091E3
:102328007A4360918B4370918C4380918D43909157
:102338008E430E94352D69837A838B839C83809199
:10234800834390918443A0918543B09186438D83C4
:102358009E83AF83B88720E030E048EC51E4C501A4
:10236800B4010E949C2C209187433091884340916E
:10237800894350918A430E94352D4B015C01A70186
:102388009601C701B6010E94352DA70196010E944A
:10239800352DA70196010E94352D6B017C01809196
:1023A800734390917443A0917543B09176438987A4
:1023B8009A87AB87BC8793E09D87B0E0A0E0F8ECF4
:1023C800E1E420E030E048EC51E46B2F7A2F8F2FC6
:1023D8009E2F0E949C2C2D813E814F8158850E9402
:1023E800352D20E030E040E85FE30E949D2CA501F8
:1023F80094010E949D2C29813A814B815C810E9425
:10240800352D9B01AC01C301B2010E94312DA701FA
:1024180096010E949D2C0E947E130E947E1323E346
:1024280033E948E853E40E949C2C29853A854B857A
:102438005C850E949C2CAD85A150AD87AA2329F00C
:10244800B62FA72FF82FE92FBCCF6B017C01C092C4
:102458006B43D0926C43E0926D43F0926E4381E0FF
:102468007BCE609148437091494380914A43909153
:042478004B43CDCE37
:10247C00A4E1B0E0E4E4F2E10C94A5298F83988701
:10248C0069837A834B8B5C8B122FDB011296ED9157
:10249C00FC91139714962D913C9115972D833E83A7
:1024AC00CD90DC90119716962D903C901797F7FDD8
:1024BC0003C0E894C1F802C0E1E0F0E0C60180710D
:1024CC00992789879A87C4FE1FC0AB89BC892C9138
:1024DC0011963C91119712964C91129713965C9110
:1024EC00139714966C91149715967C9115971696D4
:1024FC008C91169717969C91A0E00E94D02B21F0FE
:10250C008D819E81029702C08D819E8196012870DB
:10251C0033272B873C87C3FC0197AB89BC894C9034
:10252C0011965C90119712966C90129713967C9062
:10253C00139714968C90149715969C901597169645
:10254C00AC9016971796BC90A981BA811896ED900D
:10255C00FC901997B1E0EB1AF108D101AE0DBF1D3B
:10256C001C928B839C839F01281B390B2D873E87E4
:10257C00C601827099278F87988B812F012E000CB2
:10258C00990BDC01A154B109A98BBA8B32E0E3168B
:10259C00F10434F489859A85892B09F04CC073C0F9
:1025AC009201A301B401C501A0E00E94D02B81F1DE
:1025BC00B1E0EB1AF108C2018F7099278A309105AE
:1025CC0014F4C09602C0895A9F4FE989FA897A9708
:1025DC0048F49C012062215631092A31310510F44E
:1025EC000E942C2CF101EE0DFF1D80832B813C8170
:1025FC00215031092B833C839201A301B401C50105
:10260C0004E00E941E2929013A014B015C01BECF56
:10261C008D859E85AB81BC818A0F9B1F1816190670
:10262C003CF21A161B060CF0B5CFEF85F889EF2B90
:10263C0009F0BECFAFCFAB89BC892C9111963C91E0
:10264C00119712964C91129713965C9113971496BE
:10265C006C91149715967C91159716968C911697EC
:10266C0017969C91A0E00E94D02B69F0F101EE0D21
:10267C00FF1D31971083B2E0EB1AF108F101EE0D5A
:10268C00FF1D80E38083EB85FC85EF2B41F0F1E0AF
:10269C00EF1AF108F101EE0DFF1D80E28083A98194
:1026AC00BA8118964D915C911997415051094E1968
:1026BC005F09B1016E0D7F1D86012D813E818F81D9
:1026CC0098850E9435209C01EF81F885808191814D
:1026DC0090FF09C0A981BA8112968D919C91139794
:1026EC00821793070CF4C9016496E2E10C94EE296D
:1026FC004F925F926F927F928F929F92AF92BF9206
:10270C00CF92DF92EF92FF920F931F936B017C019C
:10271C00DC01CB01B701A6014427552760787F77F0
:10272C004115510560487F4759F4A7019601C7012F
:10273C00B6010E94352DA70196010E949D2C1AC04E
:10274C00181619061A061B06D4F0892B8A2B8B2B0C
:10275C0009F4CCC081E290E080930A4190930B4144
:10276C00A7019601C701B6010E949C2C9B01AC01EC
:10277C000E94312D562F472F382F292FBBC067E1D0
:10278C00F594E794D794C7946A95D1F7C114D10402
:10279C00E104F104E1F4C12CD12C7601A7FD0AC0AF
:1027AC00880F991FAA1FBB1F2FEFC21AD20AE20A69
:1027BC00F20AF4CF21E0C21AD108E108F108F09432
:1027CC00E094D094C094C11CD11CE11CF11C2FE7E7
:1027DC00C21AD108E108F108AF77BB27A068C0FE88
:1027EC0004C0880F991FAA1FBB1FF594E794D794B8
:1027FC00C794880F991FAA1FBB1FE9E1F0E040E0C6
:10280C0050E060E071E0812C912C540100E010E06C
:10281C00980128013901440E551E661E771E841539
:10282C009505A605B70574F093018201040F151FD9
:10283C00261F371F84199509A609B709840E951E02
:10284C00A61EB71E880F991FAA1FBB1F76956795EA
:10285C00579547953197E9F6892B8A2B8B2BA1F14C
:10286C0020E632E442EA5DE060E070E080E89FE35D
:10287C000E949C2C20E030E040E85FE30E94162D83
:10288C0087FD22C020E632E442EA5DE060E070E0C1
:10289C0080E89FE30E949D2C20E030E040E85FE35D
:1028AC000E94162D181634F482E0880E911CA11C7F
:1028BC00B11C0AC0D501C40181709927AA27BB2776
:1028CC00880E991EAA1EBB1ED501C401B595A795ED
:1028DC0097958795B15C37E1CC0CDD1CEE1CFF1C89
:1028EC003A95D1F7C80ED91EEA1EFB1E5C2D4D2D54
:1028FC003E2D2F2D652F742F832F922F1F910F910B
:10290C00FF90EF90DF90CF90BF90AF909F908F9003
:0A291C007F906F905F904F90089538
:102926008F929F92AF92BF92CF92DF92EF92FF92D9
:102936001F93CF93DF9300D0CDB7DEB78BE593E43B
:102946000E94EE21182F8823F9F080E090E00E9483
:102956001B2D6C0182E090E00E941B2D5C0184E03F
:1029660090E00E941B2D4C017601EA24FB24E82608
:10297600F9268AE390E00E941B2D89839A83898138
:102986009A81E816F90681F010E0812F0F900F90DA
:10299600DF91CF911F91FF90EF90DF90CF90BF9086
:1029A600AF909F908F90089580915B4390915C4388
:1029B600C816D90649F780915D4390915E43A816E3
:1029C600B90611F780915F43909160438816990686
:1029D600D9F686E090E00E94C62C6093A3437093DC
:1029E600A4438093A5439093A6438AE090E00E9477
:1029F600C62C60939F437093A0438093A14390930A
:102A0600A2438EE090E00E94C62C60939B43709395
:102A16009C4380939D4390939E4382E190E00E9465
:102A2600C62C6093974370939843809399439093F1
:102A36009A4386E190E00E94C62C6093934370937C
:102A4600944380939543909396438AE190E00E9445
:102A5600C62C60938F4370939043809391439093D9
:102A660092438EE190E00E94C62C60938B43709354
:102A76008C4380938D4390938E4382E290E00E9434
:102A8600C62C6093874370938843809389439093C1
:102A96008A4386E290E00E94C62C6093834370933B
:102AA600844380938543909386438AE290E00E9414
:102AB600C62C60937F4370938043809381439093A9
:102AC60082438EE290E00E94C62C60937B43709313
:102AD6007C4380937D4390937E4382E390E00E9403
:102AE600C62C609377437093784380937943909391
:102AF6007A4386E390E00E94C62C609373437093FA
:0C2B0600744380937543909376433FCF57
:102B1200CF93DF93CBE5D3E46881798180E090E0C5
:102B22000E94202D6A817B8182E090E00E94202D0C
:102B32006C817D8184E090E00E94202D4091A3432E
:102B42005091A4436091A5437091A64386E090E022
:102B52000E948D2C40919F435091A0436091A143CC
:102B62007091A2438AE090E00E948D2C40919B4399
:102B720050919C4360919D4370919E438EE090E002
:102B82000E948D2C409197435091984360919943B4
:102B920070919A4382E190E00E948D2C4091934380
:102BA20050919443609195437091964386E190E0F1
:102BB2000E948D2C40918F4350919043609191439C
:102BC200709192438AE190E00E948D2C40918B4358
:102BD20050918C4360918D4370918E438EE190E0D1
:102BE2000E948D2C40918743509188436091894384
:102BF20070918A4382E290E00E948D2C409183433F
:102C020050918443609185437091864386E290E0BF
:102C12000E948D2C40917F4350918043609181436B
:102C2200709182438AE290E00E948D2C40917B4316
:102C320050917C4360917D4370917E438EE290E09F
:102C42000E948D2C40917743509178436091794353
:102C520070917A4382E390E00E948D2C40917343FD
:102C620050917443609175437091764386E390E08E
:102C72000E948D2C688179818A819B8168277927BE
:102C82008C819D81682779278AE390E0DF91CF913B
:042C92000C94202D51
:102C9600ADE0B0E0E1E5F6E10C94A52989879A87D5
:102CA6006B837C83FA01DB011296CD90DC9013973F
:102CB60014968D919C9115978D839E83ED90FC9033
:102CC6001197E982FA8216960D90BC91A02DAF83DA
:102CD600B8872080318042805380648075808680EA
:102CE60097808101B42DF52DE62D7B868C869D86F9
:102CF6009101A201B301C401A0E00E94D02B4CF4C3
:102D06000E94392B8901B42FF52FE62F7B878C87FC
:102D16009D87D7FC04C0E894E1F8E982FA82910124
:102D2600A201B301C401A0E0ED80FE800E94D02B79
:102D36001CF0898182FF04C081E0E81AF10805C011
:102D460083FF03C091E0E91AF108CE0101965C0108
:102D56008AE0C82ED12C2B2F3F2F4E2F5B856C85FA
:102D66007D858B819C810E946F18FC019101A201D7
:102D7600B301C401A0E00E94D02B1CF0898182FF20
:102D860012C031970F8118850E0F1F1F9101A201E6
:102D9600B301C401A0E00E94D02B14F08BE201C065
:102DA6008DE2D80108C083FF07C03197AF81B8858F
:102DB600AE0FBF1F80E28C9309811A81AB81BC8163
:102DC60018964D915C911997415051094E1B5F0B16
:102DD6006F8178856E0F7F1F2D813E8189859A854B
:102DE6000E9435209C01E985FA858081918190FFBA
:102DF60009C0AB81BC8112968D919C911397821765
:0E2E060093070CF4C9012D96E2E10C94EE291D
:102E14000F931F93CF93DF93FC01D9016838710599
:102E240031F194F461387105B1F12CF46038710515
:102E340009F478C09FC06238710509F459C0643838
:102E4400710509F46FC096C0603A710509F448C071
:102E54002CF46039710509F44BC08CC0603C7105D9
:102E640009F476C0603F710509F472C083C0CD9146
:102E7400DC911197CE0102968D939C93452B39F0EA
:102E84009881892F880F880B908381835BC0888108
:102E94008083118268C0CD91DC911197CE01049694
:102EA4008D939C93452B99F088819981AA81BB814C
:102EB400AC01BD01770F440B542FBA018083918379
:102EC400A283B383448345834683478328C0088110
:102ED40019812A813B81008311832283338345C076
:102EE400CD91DC911197CE0102968D939C9323C0D2
:102EF400CD91DC911197CE0108968D939C937881A6
:102F040069815A814B813C812D819E818F8170839F
:102F1400618352834383348325839683878381E04B
:102F240090E02AC0CD91DC911197CE0102968D9349
:102F34009C93452BA1F099812881892F880F880BB8
:102F44002083918382838383848385838683E6CFEE
:102F5400CD91DC911197CE0102968D939C930881BB
:102F640019810083118312821382148215821682BE
:102F74001782D5CF80E090E0DF91CF911F910F9120
:022F84000895AE
:102F8600CF93DF93CDB7DEB76597CDBFDEBF809118
:102F9600D4438823D1F0329B65C08091D9438130D8
:102FA600F9F0813008F44BC0833051F1843089F553
:102FB6000E94E028811159C082E08093D94365962A
:102FC600CDBFDEBFDF91CF910895329BE6CF81E082
:102FD6008093D4438093D5438091D943813009F7B8
:102FE6000E94652C882379F0CE010E960E94D12A84
:102FF600811156C082E08093D9431092D54303C015
:1030060084E08093D9436596CDBFDEBFDF91CF9133
:1030160008958091CB439091CC43823E9440A8F58D
:103026008091CB439091CC4301968093CB43909370
:10303600CC436596CDBFDEBFDF91CF9108958091D9
:10304600DA438B30F1F08AE00E94672B882309F47B
:10305600B3CF81E08093D9436596CDBFDEBFDF91C4
:10306600CF9108951092D44398CF80E00E94C21C5D
:103076001092D94382EE94E08093CB439093CC4355
:10308600C2CF82E00E94672BE1CF82E794E80E94DC
:10309600B22381E090E08093CB439093CC43B3CFAF
:1030A600BE016F5F7F4FCE010E960E94D8208091A1
:1030B600DA438B3021F48091D543882341F0BE0159
:1030C6006F5F7F4FCE010E960E94AC0396CFCE0166
:0830D60001960E94DF1A91CF60
:1030DE00A2E1B0E0E5E7F8E10C94A529FC010A8B2A
:1030EE001B832C83732E642E552E462E7D83CC8609
:1030FE00D886AE82BF82868197818A879B87D501CB
:10310E004D915C91228133818085918501971C01BF
:10311E0037FF02C021E030E0EA85FB85E80FF91F9A
:10312E0010824701E1E0F0E0E983FA83C9018E19CC
:10313E009F098D879E87DA01A270BB27AF87B88B58
:10314E00B885BB0FBB0BB98B1214130474F0A98195
:10315E00BA81AB2B09F05CC0AE81BF818D919C9181
:10316E0011978F7E8D939C9353C02A893B814C81FE
:10317E00572D662D752D842D9D81A0E00E94D02B9C
:10318E00B1F1E1E02E1A3108FC85F987AF2EB88433
:10319E00C988DC2CEC2CFC2C0C2D1C2D2A893B8197
:1031AE004C81572D662D752D842D9D810E94832B6C
:1031BE00C90129839A83EA85FB85E20DF31D805DA3
:1031CE00808381E0881A91082A893B814C81572D92
:1031DE00662D752D842D9D810E94852B2A8B3B8318
:1031EE004C83752E662E572E482E9D83ADCF8D8522
:1031FE009E85880D991D181619061CF218141904AF
:10320E000CF0A5CFEF85F889EF2B09F0BACF9FCF41
:0A321E00C1016296E2E10C94EE2972
:10322800A5E1B0E0EAE1F9E10C94A52947015801CC
:103238000E94352D2B013C01A80197010E949D2C6D
:10324800162FC72ED82EF92E862F9C2DAD2DBF2DCB
:1032580089839A83AB83BC83AA81FB81EC81ED804F
:103268003E802F8008850D8B5E2F5F71212F3A2FAE
:103278004F2F60E070E080E090E0211531054105B6
:1032880000E15007610571058105910509F05EC0EF
:103298005E2F6E2D732D822D9D8904E30E941E29B9
:1032A8002D873E874F87588B698B7A8B8B8B9C8BAE
:1032B8008D859E8597708F3F974009F447C0A3017D
:1032C8009201612F7C2D8D2D9F2D0E949C2C9B019E
:1032D800AC01C501B4010E94112D8823B9F14986BA
:1032E8005A866B867C8629853A854B855C85C5011F
:1032F800B4010E949D2CB62E872E982EA92E262F1B
:10330800372F482F592F612F7C2D8D2D9F2D0E94EF
:10331800112D811118C02B2D8B2D982DA92DBA2D6B
:1033280089839A83AB83BC833A814B815C816E2D00
:10333800732D822D9D89A1E00E94DC2B122FC32EB4
:10334800D42EF52E03C01B2D6401FA2C612F7C2D81
:0C3358008D2D9F2D6596E2E10C94EE296E
:103364004F925F926F927F928F929F92AF92BF9291
:10337400CF92DF92EF92FF92CF93DF9300D000D0F1
:10338400CDB7DEB76B017C0127E1F694E794D794BF
:10339400C7942A95D1F796013327263931050CF0C5
:1033A40067C06B017C014B015C0197FF04C0B7FA55
:1033B400B094B7F8B0942B013C012E373105A4F436
:1033C40020E030E040E05BE4C501B4010E949D2CA4
:1033D40069837A838B839C8320E030E0A901C30155
:1033E400B2010E94352D44C020E030E040E05BE4AF
:1033F400C501B4010E949D2C20E030E040E05BE474
:103404000E949C2CA50194010E949C2C2B013C0140
:1034140020E030E040E05FE30E94162D18166CF4C3
:10342400A3019201C501B4010E949D2C20E030E06B
:1034340040E85FE30E949C2C19C020E030E040E0AB
:103444005FEBC301B2010E94112DA3019201181672
:103454004CF0C501B4010E949D2C20E030E040E80E
:103464005FE302C0C501B4010E949D2CF7FC905893
:103474002496CDBFDEBFDF91CF91FF90EF90DF9018
:10348400CF90BF90AF909F908F907F906F905F9000
:043494004F900895B8
:103498004F925F926F927F928F929F92AF92BF925C
:1034A800CF92DF92EF92FF92CF93DF93CDB7DEB743
:1034B8002897CDBFDEBF6B017C01DC01CB0147E162
:1034C800B695A795979587954A95D1F799278F57D8
:1034D8009109873191059CF597FD36C088248A9417
:1034E800982C3FE7A32EB12C04C0B594A7949794C9
:1034F80087948A95D2F7D501C4018C219D21AE21EC
:10350800BF21892B8A2B8B2BD1F020E030E040E8BB
:103518005BE7C701B6010E949D2C6D837E838F8374
:103528009887F7FE04C0C80CD91CEA1CFB1C8094C1
:103538009094A094B094C820D920EA20FB205C2D58
:103548004D2D3E2D2F2D21C020E030E040E85BE7D7
:10355800C701B6010E949D2C69837A838B839C8363
:10356800F7FE0FC0D701C601880F991FAA1FBB1FFE
:10357800892B8A2B8B2B19F350E040E030E82FEB96
:1035880004C050E040E030E020E0652F742F832F26
:10359800922F2896CDBFDEBFDF91CF91FF90EF909D
:1035A800DF90CF90BF90AF909F908F907F906F905B
:0635B8005F904F900895A2
:1035BE004F925F926F927F928F929F92AF92BF9235
:1035CE00CF92DF92EF92FF92FC01C184D284E3840A
:1035DE00F4848090BB439090BC43A090BD43B090C8
:1035EE00BE434090B7435090B8436090B94370903B
:1035FE00BA43C814D904EA04FB0420F14C145D0448
:10360E006E047F04F8F08091D243811155C098E08A
:10361E00909326049091CF43943109F444C08A309C
:10362E0009F44EC09F5F9093CF43FF90EF90DF90D1
:10363E00CF90BF90AF909F908F907F906F905F9044
:10364E004F9008950E943C2DFF92EF92DF92CF9201
:10365E00BF92AF929F928F927F926F925F924F9294
:10366E002FEF31E83F932F939F938F930E94E32A7E
:10367E000E943B2589E292E80E947E238091D243EC
:10368E002DB73EB7205F3F4F2DBF3EBF843619F09A
:10369E008F5F8093D24398E0909325049091CF430F
:1036AE00943109F0BCCF8A3058F48CE492E80E9431
:1036BE00B2231092CF43B9CF81508093D243A7CF7C
:0A36CE0081E492E80E94B223F4CFD9
:1036D8000F93CF93DF93CDB7DEB72E97CDBFDEBF65
:1036E8008FE380936F438FEF8093704302E09E01D6
:1036F800235F3F4F42E06FE673E48AE30E94D21EE5
:103708008823D9F08E858C7790E095958795959547
:1037180087958093CD4380E480936F4383E08093C3
:1037280070430CE09E012F5F3F4F42E06FE673E469
:103738008AE30E94D21E811108C080E02E96CDBF78
:10374800DEBFDF91CF910F91089589819A819827E3
:103758008927982780934843909349438B819C817C
:1037680098278927982780934A4390934B438D81C4
:103778009E8198278927982780934C4390934D439F
:103788008F81988598278927982780934E4390930F
:103798004F4389859A85982789279827809350438E
:1037A800909351438B859C859827892798278093E8
:1037B80052439093534381E02E96CDBFDEBFDF91F5
:0637C800CF910F9108955E
:1037CE0010C00E94B12C58F00E94AA2C40F029F48F
:1037DE005F3F29F00C94F72C51110C94B92C0C94DA
:1037EE00422D0E94D92768F39923B1F3552391F303
:1037FE00951B550BBB27AA2762177307840738F052
:10380E009F5F5F4F220F331F441FAA1FA9F335D0AE
:10381E000E2E3AF0E0E832D091505040E695001C62
:10382E00CAF72BD0FE2F29D0660F771F881FBB1F1C
:10383E00261737074807AB07B0E809F0BB0B802DFA
:10384E00BF01FF2793585F4F3AF09E3F510578F026
:10385E000C94F72C0C94B92C5F3FE4F3983ED4F300
:10386E00869577956795B795F7959F5FC9F7880FFA
:10387E00911D9695879597F90895E1E0660F771F4C
:10388E00881FBB1F621773078407BA0720F0621BDD
:0E389E00730B840BBA0BEE1F88F7E0950895AC
:1038AC00CF93DF93DC01F90164387105D9F164F42D
:1038BC006138710521F16238710509F440C0603836
:1038CC00710509F054C02EC060397105C1F184F442
:1038DC006838710509F04BC0C081D181CE010296C8
:1038EC0080839183E881F981ED93FC9340833CC004
:1038FC00603A7105B9F0603C7105A1F038C0C08127
:10390C00D181CE01029680839183E881F981ED9378
:10391C00FC93052E000C660B770B4083518362835E
:10392C00738322C0C081D181CE01029680839183A2
:10393C00E881F981ED93FC934083518315C0C081DC
:10394C00D181CE01029680839183E881F981ED9338
:10395C00FC9340835183852F880F880B828383834C
:10396C00848385838683878381E090E002C080E036
:08397C0090E0DF91CF91089566
:103984001F93CF93DF930F92CDB7DEB7182F10920A
:10399400DA43BE016F5F7F4F8BE00E94062A8823C3
:1039A40049F08EE390E00E94852C111103C09981A7
:1039B400891731F080E00F90DF91CF911F91089526
:1039C4008FE390E00E94C62C6093BB437093BC438A
:1039D4008093BD439093BE4383E490E00E94C62C41
:1039E4006093B7437093B8438093B9439093BA43B9
:1039F40087E490E00E941B2D8093C9439093CA43AF
:103A040089E490E00E941B2D8093C7439093C843A0
:103A14008BE490E00E941B2D8093C5439093C64392
:103A24008DE490E00E94852C8093D8438EE490E04E
:103A34000E94852C8093D7438FE490E00E94852CCC
:103A44008093D6438BE08093DA4381E00F90DF913B
:063A5400CF911F910895BF
:103A5A00CF92DF92EF92FF920F931F93CF93DF9350
:103A6A008091DB43823009F1A0F4882349F0813048
:103A7A00A1F40E94F12C811152C085E08093DB43AE
:103A8A00DF91CF911F910F91FF90EF90DF90CF9030
:103A9A0008958330B1F0843099F38AEB96E80E9456
:103AAA00B22384E08093DB43EBCF0E94492A882328
:103ABA0039F30E946C1B882301F383E08093DB4374
:103ACA00DFCF88E0809327040E9494108823A9F20C
:103ADA000E94112CF62EE72ED82EC92E0E94082CF1
:103AEA00EB01182F092F0E943F2DCF92DF92EF9200
:103AFA00FF920F931F93DF93CF9323E836E83F9308
:103B0A002F939F938F930E94F52A0E947E241092EE
:103B1A00DB438DB79EB70C968DBF9EBFB1CF82E0B7
:063B2A008093DB43ADCFE8
:103B30000FC00E94AA2C38F00E94B12C20F09523CF
:103B400011F00C94F72C0C94422D11240C94B92CE8
:103B50000E94D92770F3959FC1F3950F50E0551F30
:103B6000629FF001729FBB27F00DB11D639FAA27D2
:103B7000F00DB11DAA1F649F6627B00DA11D661F21
:103B8000829F2227B00DA11D621F739FB00DA11D42
:103B9000621F839FA00D611D221F749F3327A00DFC
:103BA000611D231F849F600D211D822F762F6A2F98
:103BB00011249F5750409AF0F1F088234AF0EE0FFD
:103BC000FF1FBB1F661F771F881F91505040A9F72A
:103BD0009E3F510580F00C94F72C0C94B92C5F3F5C
:103BE000E4F3983ED4F3869577956795B795F79566
:103BF000E7959F5FC1F7FE2B880F911D96958795DE
:043C000097F9089593
:103C0400A2E0B0E0E8E0FEE10C94A5291C014B0120
:103C1400FA01DB0112962D913C91139714964D9065
:103C24005C9015978D919C91119789839A83169630
:103C34006D907C90179737FD03C08D7F89839A839D
:103C4400008111812281338144815581668177818C
:103C5400FE0131965F0188E0C82ED12C7201C401A7
:103C64000E946F18298124FF06C00197F301E80F11
:103C7400F91F20E32083298123FF06C00197F30164
:103C8400E80FF91F20E2208309811A81D4011896D4
:103C94004D915C91199741505109481B590BB3013F
:103CA400680F791F9201C1010E9435209C01F10126
:103CB4008081918190FF08C0D40112968D919C91CE
:103CC4001397821793070CF4C9012296E2E10C942E
:023CD400EE29D7
:103CD60011C00E94AA2C38F00E94B12C20F039F4B1
:103CE6009F3F19F426F40C94422D0EF4E095E7FB61
:103CF6000C94F72CE92F0E94D92758F3BA176207BC
:103D060073078407950720F079F4A6F50C94B82C70
:103D16000EF4E0950B2EBA2FA02D0B01B9019001E0
:103D26000C01CA01A0011124FF27591B99F0593F24
:103D360050F4503E68F11A16F040A22F232F342F6C
:103D46004427585FF3CF469537952795A795F040BA
:103D56005395C9F77EF41F16BA0B620B730B840BCF
:103D6600BAF09150A1F0FF0FBB1F661F771F881F87
:103D7600C2F70EC0BA0F621F731F841F48F48795DF
:103D860077956795B795F7959E3F08F0B0CF9395D1
:0E3D9600880F08F09927EE0F979587950895EE
:103DA400EF92FF920F931F93CF93DF939091250986
:103DB40093709330A1F1E901142F7B0190E0880FF7
:103DC400991F809327090E948028882341F1612F3D
:103DD400C7010E941226182F882351F180912709C8
:103DE40081608093270981E0809324090DC080912C
:103DF400250982FD0DC08091250983FD09C08091AC
:103E040025098370833021F08091250985FFEFCF48
:103E1400809125098C71B9F083E08093240910E026
:103E2400812FDF91CF911F910F91FF90EF90089513
:103E340083E080932409812FDF91CF911F910F910B
:103E4400FF90EF9008950E943D2C8111E5CF602FE3
:083E5400CE010E94B426E4CF68
:103E5C00EF92FF920F931F93CF93DF930F92CDB7F7
:103E6C00DEB769839091050993709330A1F1E22E2E
:103E7C008A0190E0880F991F809307090E941D28E2
:103E8C00882349F161E0CE0101960E94E825F82EC5
:103E9C00882359F18091070981608093070981E09B
:103EAC00809304090DC08091050982FD0DC080919D
:103EBC00050983FD09C0809105098370833021F0C9
:103ECC008091050985FFEFCF809105098C7189F0F0
:103EDC0083E080930409F12C8F2D0F90DF91CF910B
:103EEC001F910F91FF90EF90089583E08093040948
:103EFC00F3CF809105098370833051F36E2DC80187
:063F0C000E948D26E9CFA2
:103F1200A2E0B0E0EFE8FFE10C94A5293C014B01DF
:103F2200FA01DB0112962D913C91139714964D9054
:103F32005C9015978D919C91119789839A8316961F
:103F42002D903C90179737FD03C08D7F89839A830C
:103F5200008111812281338144815581668177817B
:103F6200FE0131965F018AE0C82ED12C7201C40194
:103F72000E946F1809811A81D40118964D915C91A3
:103F8200199741505109481B590BB101680F791F0C
:103F92009201C3010E9435209C01F301808191812D
:103FA20090FF08C0D40112968D919C9113978217AD
:0E3FB20093070CF4C9012296E2E10C94EE296B
:103FC000CF9363ED73E48BE00E94062AC82F882309
:103FD00009F448C04091BB435091BC436091BD433C
:103FE0007091BE438FE390E00E948D2C4091B743C7
:103FF0005091B8436091B9437091BA4383E490E023
:104000000E948D2C6091C9437091CA4387E490E06F
:104010000E94202D6091C7437091C84389E490E0CD
:104020000E94202D6091C5437091C6438BE490E0BF
:104030000E94202D6091D8438DE490E00E94D62903
:104040006091D7438EE490E00E94D6296091D643D8
:104050008FE490E00E94D6296091D3438EE390E0F4
:0A4060000E94D6298C2FCF910895FD
:10406A00A0E1B0E0EBE3F0E20C94A7295C013B018C
:10407A006A017901280181E04822552400FD14C013
:10408A00421753078CF487010C191D094801A8012E
:10409A000131110510F040E150E060E270E0CE011C
:1040AA0001960E94232C0AC0A601B301C5010E94F1
:1040BA003A29CE14DF043CF3C60120C000311105B1
:1040CA0058F040E150E0BE016F5F7F4FC5010E948A
:1040DA003A2900511109F2CFA4014F705527BE01A8
:1040EA006F5F7F4FC5010E943A294114510429F498
:1040FA00A601B301C5010E943A29C7016096E0E111
:04410A000C94F029F8
:10410E0088249924F401E401B0E49F93AA279A1518
:10411E008B049C04ED05FE05CF05D007A10798F48E
:10412E00AD2FDC2FCF2FFE2FE92D982C892E982F17
:10413E00872F762F652F542F432F322F2227B850DB
:10414E0031F7BF9127C01B2EBF91BB27220F331F04
:10415E00441F551F661F771F881F991F881C991CA7
:10416E00EE1FFF1FCC1FDD1FAA1FBB1F8A149B044F
:10417E00EC05FD05CE05DF05A007B10748F08A184E
:10418E009B08EC09FD09CE09DF09A00BB10B2160DC
:10419E001A94E1F62EF49401AF01BE01CD01000C8C
:0241AE00089572
:1041B000DC01FB0111966D917C9112978091C943AE
:1041C0009091CA43681B790B0090D84302C0759543
:1041D00067950A94E2F7608313962D913C911497AA
:1041E0008091C7439091C843281B390B0090D74357
:1041F00002C0359527950A94E2F7218315964D91D3
:104200005C9116978091C5439091C643481B590B0A
:104210000090D64302C0559547950A94E2F7428331
:104220002202C00111246602800D911D1124440256
:10423000800D911D1124A0E0B0E081879287A387B3
:10424000B48713821482158216821782108608950D
:104250000F931F93CF93DF93DB012D913C91119727
:1042600030FF25C016964D915C91179714962D91AD
:104270003C9115974217530778F41296ED91FC91F3
:104280001397808312962D913C9113972F5F3F4F88
:1042900012962D933C93139716962D913C91179758
:1042A0002F5F3F4F16962D933C93179715C01C9682
:1042B000ED91FC911D97309719F48FEF9FEF0CC093
:1042C0008B01EC010995892BC1F7F8018681978153
:1042D000019686839783CE01DF91CF911F910F9135
:0242E00008953F
:1042E200CF93C82F87EE95E80E947E23CC23E9F076
:1042F20081E00E945729C82F0E94392D8823E9F0B6
:1043020083E196E80E947E238CE390E00E941B2DBD
:104312000E94FE2BC1111EC08AE796E80E947E23EE
:1043220085E08093DB43CF91089580E00E94572976
:10433200C82F0E94392D8111E3CF8DE396E80E94A8
:104342007E230E940C2DBC018CE390E00E94202D64
:0E435200CC2311F385E796E8CF910C947E23DF
:10436000EF92FF920F931F93CF93DF93FC01208175
:10437000222369F1D62F7C018091440880648093C8
:10438000440880818823A1F0C0E08F010E94D92CCD
:104390008823E1F3F80180810E94492BCF5F8701D8
:1043A0000C0F111DF8019081992311F0CF3F71F787
:1043B0000E94D92C8823E1F38D2F0E94492B0E9463
:1043C000D92C8823E1F30E94352C8111FCCFDF9199
:0C43D000CF911F910F91FF90EF90089586
:1043DC00EF92FF920F93CF93DF93CDB7DEB7269773
:1043EC00CDBFDEBF7C0184E280936F4385E0809378
:1043FC00704306E09E012F5F3F4F42E06FE673E48F
:10440C008AE30E94D21E8823B9F089819A81982769
:10441C0089279827F701808391838B819C8198272A
:10442C0089279827828393838D819E81982789275A
:10443C0098278483958381E02696CDBFDEBFDF91DC
:0A444C00CF910F91FF90EF900895BB
:10445600E89409C097FB3EF4909580957095619518
:104466007F4F8F4F9F4F9923A9F0F92F96E9BB27CE
:104476009395F695879577956795B795F111F8CF4A
:10448600FAF4BB0F11F460FF1BC06F5F7F4F8F4FB5
:104496009F4F16C0882311F096E911C0772321F0AB
:1044A6009EE8872F762F05C0662371F096E8862F43
:1044B60070E060E02AF09A95660F771F881FDAF79A
:0A44C600880F9695879597F90895E1
:1044D0001092094010920840109207401092064036
:1044E0001092DF438091DC43E82FF0E0E65FFF4B62
:1044F00090819D3009F19091E0438917E9F08F5F39
:1045000030E050E009C09091E04341E0480F981737
:1045100059F0842F532F322F2081E82FF0E0E65FEF
:10452000FF4B90819D3079F75093084030930740BE
:10453000209306408093DC4380818D3009F00895FC
:044540001082089548
:10454400A0E1B0E0E8EAF2E20C94B129FB01BA017F
:10455400AE014F5F5F4F7A0140E1D7011D924A954A
:10456400E9F742E051E049835A838B839C83F7FF48
:1045740009C08FE490E080930A4190930B418FEF40
:104584009FEF14C0A9018C013197ED83FE83C7010D
:104594000E94BE294F8158852D813E8142175307C1
:1045A40008F49A01F801E20FF31F10826096E6E026
:0445B4000C94FA2940
:1045B800AC01FA0190814F5F5F4F9032D1F3292F00
:1045C800092E000C330B295031092530310588F3A9
:1045D8009B3209F540E050E0319602C040E050E0DF
:1045E80080E090E06AE02191022E000C330B20530A
:1045F80031092A30310548F4689FD001699FB00D10
:104608001124CD01821B930BEECF452B49F49195D4
:104618008195910908959D3209F741E050E0DCCF7A
:024628000895F3
:10462A00CF92DF92EF92FF920F931F93CF937C0169
:10463A006B0100E010E003C00E151F0578F4C0916D
:10464A00DF43C11114C00E942D2D8111F5CF0E94A4
:10465A00EB2C0F5F1F4F0E151F0588F38C2FCF9180
:10466A001F910F91FF90EF90DF90CF9008950E94D5
:10467A006822B60186E090E40E946F27892B11F028
:0A468A000000ECCF0000C0E0E9CF13
:104694001F920F920FB60F9211240BB60F922F9305
:1046A4003F934F935F936F937F938F939F93AF93B6
:1046B400BF93EF93FF9380914301E0910440F09105
:1046C4000540309709F009958091430181608093FA
:1046D4004301FF91EF91BF91AF919F918F917F9192
:1046E4006F915F914F913F912F910F900BBE0F905F
:0846F4000FBE0F901F901895F6
:1046FC00EF92FF920F931F93CF93FC012081222303
:10470C0029F17C0180916408806480936408808125
:10471C008823A1F0C0E08F010E94E52C8823E1F3EF
:10472C00F80180810E94582BCF5F87010C0F111D5F
:10473C00F8019081992311F0CF3F71F70E94E52C7D
:10474C008823E1F30E94552C8111FCCFCF911F914E
:08475C000F91FF90EF9008950A
:10476400EF92FF920F931F93CF93FC01208122239A
:1047740029F17C01809144088064809344088081FD
:104784008823A1F0C0E08F010E94D92C8823E1F393
:10479400F80180810E94492BCF5F87010C0F111D06
:1047A400F8019081992311F0CF3F71F70E94D92C21
:1047B4008823E1F30E94352C8111FCCFCF911F9106
:0847C4000F91FF90EF900895A2
:1047CC00A7E0B0E0ECEEF3E20C94AB295C017A01CB
:1047DC00C90127E0E4E5F3E4DE01119601900D92A6
:1047EC002A95E1F7FB01C280D380848095800081FB
:1047FC001181452B21F49E012F5F3F4F79010097CA
:10480C0019F4C7010E94752BD7FC04C0C816D90631
:10481C0008F4C6019401AC01B701C5010E94352012
:08482C002796ECE00C94F4293E
:104834001F920F920FB60F9211240BB60F922F9363
:104844003F934F935F936F937F938F939F93AF9314
:10485400BF93EF93FF93E091BF43F091C043309730
:1048640009F009958091C10081608093C100FF9196
:10487400EF91BF91AF919F918F917F916F915F91D4
:104884004F913F912F910F900BBE0F900FBE0F9041
:044894001F901895C4
:104898001F920F920FB60F9211240BB60F922F93FF
:1048A8003F934F935F936F937F938F939F93AF93B0
:1048B800BF93EF93FF93E0910240F091034030974C
:1048C80009F0099580915301816080935301FF910C
:1048D800EF91BF91AF919F918F917F916F915F9170
:1048E8004F913F912F910F900BBE0F900FBE0F90DD
:0448F8001F90189560
:1048FC001F93CF93DF9380910C41882329F18091F2
:10490C00440880648093440880910C418823A1F072
:10491C0010E0CCE0D1E40E94D92C8823E1F388810B
:10492C000E94492B1F5FC12FD0E0C45FDE4B8881F2
:10493C00882311F01F3F79F70E94D92C8823E1F3CB
:10494C000E94352C8111FCCFDF91CF911F910895DE
:10495C001F920F920FB60F9211240BB60F922F933A
:10496C003F934F935F936F937F938F939F93AF93EB
:10497C00BF93EF93FF9380914008E0910040F0913A
:10498C000140309709F00995FF91EF91BF91AF91DC
:10499C009F918F917F916F915F914F913F912F914B
:0E49AC000F900BBE0F900FBE0F901F9018952E
:1049BA001F920F920FB60F9211240BB60F922F93DC
:1049CA003F934F935F936F937F938F939F93AF938D
:1049DA00BF93EF93FF9380916008E0910040F091BC
:1049EA000140309709F00995FF91EF91BF91AF917E
:1049FA009F918F917F916F915F914F913F912F91ED
:0E4A0A000F900BBE0F900FBE0F901F901895CF
:104A18000E94E12788F09F5798F0B92F9927B7513E
:104A2800B0F0E1F0660F771F881F991F1AF0BA954A
:104A3800C9F714C0B13091F00E94B82CB1E00895C4
:104A48000C94B82C672F782F8827B85F39F0B93FB6
:104A5800CCF3869577956795B395D9F73EF49095FD
:0E4A68008095709561957F4F8F4F9F4F0895F9
:104A76001F93CF93DF9380910B42882309F1809196
:104A8600640880648093640810E0CBE0D2E40E945E
:104A9600E52C8823E1F388810E94582B1F5FC12FE4
:104AA600D0E0C55FDD4B8881882311F01F3F79F781
:104AB6000E94E52C8823E1F30E94552C8111FCCF3E
:084AC600DF91CF911F910895CB
:104ACE001F93CF93DF93EC01162FA89581EF96E8F5
:104ADE000E947E23CE010E947E2386E097E80E94EC
:104AEE007E236DE0CE010E94B0216DEE76E8812F1F
:104AFE0090E00E941523811107C080E197E8DF91B5
:104B0E00CF911F910C947E238BE097E8DF91CF918C
:064B1E001F910C947E23A0
:104B2400CF93C1E0C093650489E197E80E947E2396
:104B34000E944A2D82E397E80E947E230E94C42BA0
:104B44008823A1F08BE097E80E947E236FEF8BE42B
:104B540097E80E9467256DE089EE96E80E94B021EF
:104B64000E94FE28C0936504CF91089580E197E8E0
:064B74000E947E23F0CF39
:104B7A00EF92FF920F931F93CF937C0100E010E016
:104B8A0003C00E151F0578F4C091DD43C11112C090
:104B9A000E942D2D8111F5CF0E94EB2C0F5F1F4F24
:104BAA000E151F0588F38C2FCF911F910F91FF903F
:104BBA00EF9008951092DD438C2FCF911F910F91A2
:064BCA00FF90EF9008953A
:104BD000662321F1FC016150262F30E02F5F3F4F0B
:104BE000280F391F8191809308090DC08091050914
:104BF00082FD0DC08091050983FD09C080910509E2
:104C00008370833021F08091050985FFEFCF80917B
:104C1000050984FD05C0E217F30721F781E0089537
:044C200080E0089593
:104C2400662321F1FC016150262F30E02F5F3F4FB6
:104C3400280F391F8191809328090DC0809125097F
:104C440082FD0DC08091250983FD09C0809125094D
:104C54008370833021F08091250985FFEFCF809107
:104C6400250984FD05C0E217F30721F781E00895C3
:044C740080E008953F
:104C78000E94292D0E945F2885E696E20E94FD2C5D
:104C880089E29BE20E94072D82E799E20E94022DA9
:104C9800C6B1C2FBCC27C0F98C2F0E9426278C2FC7
:104CA8000E94712178940E94922501C08895A89548
:104CB8000E94C3170E94952C8823C1F30E942D1DC2
:024CC800F5CF26
:104CCA009091DE43992319F0853299F0089585323F
:104CDA00B9F08D30C9F08E3379F0E091E043F0E01D
:104CEA00E65FFF4B80838091E0438F5F8093E043D0
:104CFA0008951092DE43089591E09093DD43EDCF3D
:104D0A0081E08093DE43089591E09093DF43E5CFFD
:104D1A0020E2209305096623F1F0FC0190E022E0ED
:104D2A000DC08091050982FD0DC08091050983FDA2
:104D3A0009C0809105098370833021F080910509AB
:104D4A0085FFEFCF8091080981939F5F691719F05A
:0E4D5A0020930409F3CF87E0809304090895A5
:104D680020E2209325096623F1F0FC0190E022E07F
:104D78000DC08091250982FD0DC08091250983FD14
:104D880009C0809125098370833021F0809125091D
:104D980085FFEFCF8091280981939F5F691719F0EC
:0E4DA80020932409F3CF87E080932409089517
:104DB6000F93CF93DF93EB0190936F4380937043F0
:104DC60002E021E733E442E06FE673E48AE30E94FF
:104DD600D21E882371F08091714390917243982777
:104DE600892798278883998381E0DF91CF910F9156
:0C4DF600089580E0DF91CF910F910895A7
:104E02000F931F93CF93DF93909105099370933083
:104E1200A9F0D42F8B01880F8160809307090E942B
:104E22001D28C82F882351F06D2FC8010E948D269E
:104E32008C2FDF91CF911F910F910895C0E08C2F9D
:0A4E4200DF91CF911F910F910895A9
:104E4C00CF93C82F8AEB91E80E947E230E94E02822
:104E5C00882391F08C2F0E94C21C882329F08AEFA2
:104E6C0091E8CF910C947E2380EF91E80E947E23F1
:104E7C001092DA43CF91089587EE91E80E947E2339
:0A4E8C0082E08093D943CF9108958E
:104E9600990F0008550FAA0BE0E8FEEF1616170645
:104EA600E807F907C0F012161306E407F50798F0AD
:104EB600621B730B840B950B39F40A2661F0232BC6
:104EC600242B252B21F408950A2609F4A140A69542
:084ED6008FEF811D811D08957D
:104EDE00CF93DF93FB014081042E000C550B41153F
:104EEE005105B9F0FC01CF012191222381F0022E50
:104EFE00000C330B42175307B1F7DB011196EF018C
:104F0E002D91222331F039912317D1F3ECCF80E08C
:084F1E0090E0DF91CF910895AE
:104F26001F93CF93DF939091050993709330B1F05F
:104F3600142FEB0190E0880F991F809307090E94B8
:104F46001D28882359F0612FCE010E94E82593E0A1
:104F560090930409DF91CF911F91089580E0DF912E
:064F6600CF911F91089598
:104F6C001F93CF93DF939091250993709330B1F0F9
:104F7C00142FEB0190E0880F991F809327090E9452
:104F8C008028882359F0612FCE010E94122693E0CD
:104F9C0090932409DF91CF911F91089580E0DF91C8
:064FAC00CF911F91089552
:104FB20057FD9058440F551F59F05F3F71F04795C8
:104FC200880F97FB991F61F09F3F79F087950895AD
:104FD200121613061406551FF2CF4695F1DF08C0CC
:104FE200161617061806991FF1CF869571056105E9
:044FF2000894089582
:104FF600A1E21A2EAA1BBB1BFD010DC0AA1FBB1FD7
:10500600EE1FFF1FA217B307E407F50720F0A21B48
:10501600B30BE40BF50B661F771F881F991F1A94B5
:1050260069F760957095809590959B01AC01BD01DF
:04503600CF01089509
:10503A008091050985FD0DC08091050982FD09C091
:10504A008091050983FD05C080910509837083302D
:10505A0079F7809105098C7129F083E0809304091E
:10506A0080E008958091050983708330B1F381E06F
:02507A00089597
:10507C000F931F93CF93909105099370933099F0F0
:10508C008B01880F8160809307090E941D28C82F0F
:10509C00882349F061E0C8010E948D268C2FCF91A6
:1050AC001F910F910895C0E08C2FCF911F910F91FC
:0250BC00089555
:1050BE0081E080933E020E94B82B0E945D2C0E94DC
:1050CE00912B0E94072B0E949E2B0E94452C0E9422
:1050DE00AD2A0E94342A0E94BF2A0E944D2C0E94A3
:1050EE00D32C0E94CD2C0E94DF2C0E94AB2B0C9453
:0250FE008C29FB
:105100008091250985FD0DC08091250982FD09C08A
:105110008091250983FD05C0809125098370833026
:1051200079F7809125098C7129F083E08093240917
:1051300080E008950E943D2C8111F7CF81E0089511
:10514000CF93DF93EC0190E0E92FF0E0EE0FFF1F2B
:10515000EE5DFC4B8081811102C081810EC0A8816F
:10516000B9812C91821305C091811196A883B983CE
:1051700001C09F5F9B3040F3892FDF91CF9108954D
:10518000FA0160387105CCF0623871051CF06338A3
:10519000710599F4A081B1819D012C5F3F4F20835F
:1051A00031834D915D916D917C91FC0140835183E0
:1051B0006283738381E090E0089580E090E0089539
:1051C0000E94252D811102C080E0089566E081E1F2
:1051D0000E949A2A8823C1F30E94252D8823A1F3D7
:1051E00065EB85E10E949A2A882371F30E94252DA0
:0C51F000882351F36DE284E10C949A2AAC
:1051FC0010920940109208401092074010920640FD
:10520C0080E090E0FC01E65FFF4B10820196811577
:10521C0021E09207B9F71092E0431092DC43109210
:0C522C00DF431092DE431092DD43089532
:1052380097FB10F8169400080F93083098F0085060
:10524800232F342F452F562F672F782F892F902DF6
:10525800F4CF0594979587957795679557954795D2
:0C526800379527950A95AAF70F91089535
:10527400A0E0B0E0E0E4F9E20C94AF296C01EB01AA
:105284008A017B01E40EF51ECE15DF0541F08991FC
:10529400B601082E000C990B0E942821F5CFC801F5
:0A52A400CDB7DEB7E8E00C94F8295E
:1052AE00CF93811105C00E949314C82F811108C09D
:1052BE000E94480EC82F811109C08C2FCF910895DE
:1052CE0081E08093CE438C2FCF9108950E94891553
:0652DE008C2FCF91089512
:1052E4000E94252D882321F08091D943823071F0CA
:1052F4000E94252D811109C082E08093D94382EE5A
:1053040094E08093CB439093CC43089583E08093BF
:04531400D9430895DC
:1053180010920240109203401092044010920540EF
:10532800E0E4F1E081E08583858B8283178220E0C9
:105338003FE02287338799EB9083828B81E3808BD0
:025348000895C6
:10534A002F923F924F925F926F927F928F929F928B
:10535A00AF92BF92CF92DF92EF92FF920F931F9379
:10536A00CF93DF93CDB7DEB7CA1BDB0BCDBFDEBF52
:02537A00099494
:10537C00A2E0B0E0E4ECF9E20C94B3298C0149838F
:10538C005A83AE014F5F5F4F0E946E07F801208178
:10539C0024FF02C08FEF9FEF2296E4E00C94FC29CF
:1053AC00262FAF93BF93E0E0F0E1328131FDFDCFCA
:1053BC003DE934BF33E13083DC01A050BC4E2C936B
:1053CC003DE934BF20E020830196BF91AF91089551
:1053DC002A88398848885F846E847D848C849B8479
:1053EC00AA84B984C884DF80EE80FD800C811B8187
:1053FC00AA81B981CE0FD11DCDBFDEBFED010895BD
:10540C000F931F93CF93C82F8B010E94252D8111D1
:10541C0005C080E0CF911F910F91089521E0A80164
:0E542C006C2F8CE0CF911F910F910C942E1FCE
:10543A00052E97FB1EF400940E946D2C57FD07D091
:10544A000E94FB2707FC03D04EF40C946D2C509558
:0E545A004095309521953F4F4F4F5F4F08957D
:10546800A0EAB4E090E115969C931597E0EEF5E07C
:1054780082818F7C828382818061828311969C9352
:0A548800119780E212968C930895AC
:10549200CF93DF9300D0CDB7DEB7BE016F5F7F4FF2
:1054A2008FEF9FE30E94DB26882311F089818170B0
:0A54B2000F900F90DF91CF91089545
:1054BC00CF93DF930F92CDB7DEB71982BE016F5F2A
:1054CC007F4F8CE00E943E28882311F089818170E7
:0854DC000F90DF91CF910895BC
:1054E40097FB072E16F4009407D077FD09D00E948D
:1054F400862A07FC05D03EF4909581959F4F089528
:08550400709561957F4F089539
:10550C00AA1BBB1B51E107C0AA1FBB1FA617B707DD
:10551C0010F0A61BB70B881F991F5A95A9F78095F9
:08552C009095BC01CD0108952A
:10553400CF93DF9300D0CDB7DEB789836A8342E08F
:10554400BE016F5F7F4F8CE00E9493270F900F90F6
:06555400DF91CF910895E4
:10555A001092004010920140E0E4F8E081E0838775
:10556A0080E8858383E087838BE890E08087918752
:04557A0016820895F8
:10557E001092004010920140E0E6F8E081E083874F
:10558E0080E8858383E087838BE890E0808791872E
:04559E0016820895D4
:1055A200CF93DF93EC010E94252D811104C080E08E
:1055B200DF91CF91089548E0BE018CE0DF91CF9159
:0455C2000C9401271D
:1055C600A0E0B0E0E9EEFAE20C94B529AE01475F3F
:1055D6005F4F6F8178858D819E810E94BF2CE2E0AE
:0455E6000C94FE29FA
:1055EA00A0E0B0E0EBEFFAE20C94B529AE01475F18
:1055FA005F4F6F8178858D819E810E94BF2CE2E08A
:04560A000C94FE29D5
:10560E00A0E4B4E09CE011969C931197E0EEF5E0D7
:10561E0085818C7F85838581826085831C969C9392
:02562E000895DD
:10563000092E0394000C11F4882352F0BB0F40F4A0
:10564000BF2B11F460FF04C06F5F7F4F8F4F9F4FE0
:025650000895BB
:105652008091DB43811103C081E08093DB43809121
:10566200DB43843009F0089585E08093DB4308959D
:1056720060957095809590953095409550952195BF
:105682003F4F4F4F5F4F6F4F7F4F8F4F9F4F089549
:105692009091440895FF09C09091440890649093BA
:0E56A20044088093420881E0089580E0089556
:1056B0009091640895FF09C090916408906490935C
:0E56C00064088093620881E0089580E00895F8
:1056CE00CF93C82F0E94252D811103C080E0CF916A
:0C56DE0008956C2F80E1CF910C949A2A63
:1056EA00FC01AF014F5F5F4F2081222311F0FA01C5
:0C56FA00F8CF9F01281B390BC90108954F
:10570600689401C0E8948F929F92CF93DF930E9492
:0C5716008720DF91CF919F908F90089525
:10572200E0E0F9E084E08083118281E082839DEFF2
:0A57320095839FE09683838308951A
:10573C00E0E2F9E084E08083118281E082839DEFD6
:0A574C0095839FE096838383089500
:10575600E0E0FBE081E0808796E09183848320EAA5
:0A5766003FE0248735878083089513
:10577000E0E2F4E088E8828B88E08183E0E6F4E010
:0857800081E085838183089517
:10578800A89581E08093660485EE96E80E94B2238E
:0857980084E690E00C94BD25AD
:1057A0000024A7FD00942A17300540055005600528
:0857B0007005800590050895C5
:1057B8000024A7FD00942A0F301D401D501D601DB8
:0857C800701D801D901D089565
:1057D000EFE6F3E4908381837283638344E0BF0147
:0657E0008AE30C94B627D9
:1057E600EC010E944F2D0E944E2DCE010E94502D9D
:0657F600CE010E944C2DC3
:1057FC009C019091410192FDFCCF20934A01309382
:04580C004B010895AF
:1058100060916743709168438091694390916A43B6
:025820000895E9
:1058220060916B4370916C4380916D4390916E4394
:025832000895D7
:10583400EE0FFF1F0024001C0BBE0790F691E02D15
:025844000994C5
:10584600FC01480F591FE417F50711F06193FBCFD0
:025856000895B3
:105858009C01215631092A31310510F48F75992799
:025868000895A1
:10586A008091440886FB882780F991E0892708956A
:10587A0090912509937081E0933009F080E00895B2
:10588A00E0EAF4E08CE0818398E0938784870895C6
:10589A00E0E2F4E081E08583818382E082830895F7
:1058AA008091640886FB882780F991E0892708950A
:1058BA001092BF431092C04381E08093C0000895C4
:1058CA000E94252D811102C080E008950C945E2A61
:1058DA0090958095709561957F4F8F4F9F4F089552
:1058EA00FC01DB012D91BD0121932111FACF08950D
:1058FA009C01215431092A31310508F48062089546
:10590A0003D0808199270895FC01E050FC4E089548
:10591A00242F0E94D729252F0E94D7290C94202DA5
:0E592A0081E09091DA439B3009F080E008950F
:0E5938005058BB27AA270E946B1E0C94182BF8
:0E5946000E940C256894B1110C94B92C0895A0
:0E59540000240A941616170618060906089570
:0E59620000240A941216130614060506089572
:0E597000E894BB2766277727CB0197F90895A7
:0E597E009A01AB016FEF7FE70E94A22208950D
:0E598C000E94892C608171818281938108952F
:0C599A00E0E4F8E08681806486830895D4
:0C59A600E0E4F8E08681806886830895C4
:0C59B2008091440885FB882780F9089547
:0C59BE00E0E6F8E08681806486830895AE
