:100000000C94BF000C94DE340C94DE340C94DE347B
:100010000C94072A0C94ED230C9468280C94DE347D
:100020000C94DE340C94DE340C94DE340C94DE3408
:100030000C94DE340C94DE340C94DE340C94DE34F8
:100040000C94DE340C94DE340C94DE340C94DE34E8
:100050000C94DE340C94DE340C94DE340C94DE34D8
:100060000C94DE340C94DE340C94DE340C94DE34C8
:100070000C94DE340C94DE340C94DE340C94DE34B8
:100080000C94DE340C94DE340C94DE340C94DE34A8
:100090000C94DE340C94DE340C949D280C94DE34E5
:1000A0000C94DE340C94DE340C94DE340C94DE3488
:1000B0000C94DE340C94DE340C94DE340C94DE3478
:1000C0000C94DE340C94DE340C94DE340C94DE3468
:1000D0000C94DE340C94392A0C94DE340C94DE3407
:1000E0000C94DE340C94DE340C94DE340C94DE3448
:1000F0000C94DE349701B701C201D4019302A5022A
:10010000C503E603F0033401880193014000400277
:100110008040024B2C0069DC4B2C4E2A804E2A4E2C
:100120005E0075064E5E4E7F804E7F4ED700753A5C
:100130004ED74EE3804EE34EEA0075924EEA4EF003
:10014000804EF04EFE0075994EFE4F4E804F4E4F42
:10015000560075A74F564F82804F824F850075AF6E
:100160004F854F87804F874F880075B24F884F8AE1
:10017000804F8A4F8B0075B34F8B4F9480001124B2
:100180001FBECFEFCDBFDFE7DEBFECE0F1E041E027
:1001900019C0B791A79137912791079107FD0EC01C
:1001A00097918791EF01F92FE82F0BBF07900D92E0
:1001B000A217B307D9F7FE011BBE04C01D92A217F8
:1001C000B307E1F7ED37F40721F70E9439240C94C7
:0601D0003933F894FFCF63
:1001D6004F925F926F927F928F929F92AF92BF9251
:1001E600CF92DF92EF92FF920F931F93CF93DF93FD
:1001F600CDB7DEB72597CDBFDEBFDC0169837A8335
:1002060090917C4F993108F47CC088E08093270454
:1002160010927C4FE981FA81C380D480E580F68014
:100226004091464F5091474F6091484F7091494FCA
:100236004C155D056E057F0540F4C092464FD09281
:10024600474FE092484FF092494F9091864F492F81
:1002560050E04C305105E0F4FA01E658FF4F0C949B
:100266006B3389819A810E944F1E811145C380910B
:100276007A4F843608F050C38F5F80937A4F8A3066
:1002860008F04AC38091814F811154C39091864FE3
:1002960080917B4F89130FC02091664F3091674F35
:1002A6002032A3E03A0738F42F5F3F4F2093664F82
:1002B6003093674F12C0E92FF0E0EE0FFF1FE756AD
:1002C600F14B808191810E94E4348091864F809326
:1002D6007B4F1092664F1092674F2596CDBFDEBFBB
:1002E600DF91CF911F910F91FF90EF90DF90CF900C
:1002F600BF90AF909F908F907F906F905F904F9040
:1003060008959F5F90937C4F85CF82E00E94A9322B
:10031600882309F4FAC28BE08093864F9BE0B8CF1E
:100326001092864F90E0B4CF10927B4F81E080937D
:10033600864F1092424F1092434F1092444F1092A4
:10034600454F10923E4F10923F4F1092404F1092E1
:10035600414F10923A4F10923B4F10923C4F1092E1
:100366003D4FE1E0F0E0A9CF8AE00E94A932882360
:1003760009F4CBC282E08093864F92E089CF8091C8
:10038600814F882309F484CF86EF90E40E94E434F9
:1003960083E08093864F1092684F1092694F93E0E6
:1003A60077CF2091684F3091694F2F5F3F4F209351
:1003B600684F3093694F11964D915C911297052EB7
:1003C600000C660B770BC090424FD090434FE090E5
:1003D600444FF090454F4C0D5D1D6E1D7F1D4093A3
:1003E600424F5093434F6093444F7093454F13963B
:1003F6008D909C901497092C000CAA08BB08C090FD
:100406003E4FD0903F4FE090404FF090414F8C0CC4
:100416009D1CAE1CBF1C80923E4F90923F4FA092F7
:10042600404FB092414F1596CD90DC9016970D2C0B
:10043600000CEE08FF0840903A4F50903B4F6090FA
:100446003C4F70903D4FC40CD51CE61CF71CC09267
:100456003A4FD0923B4FE0923C4FF0923D4F283EB0
:10046600334008F415CFF8EE4F2EF3E05F2E612CE3
:10047600712CCB01BA01A30192010E94AC30CA01D2
:10048600B9010E94D6260E94A71C0E9401346983E6
:100496007D8360936E4F70936F4FC501B401A301C6
:1004A60092010E94AC30CA01B9010E94D6260E9470
:1004B600A71C0E940134B62EA72E60936C4F709332
:1004C6006D4FC701B601A30192010E94AC30CA016B
:1004D600B9010E94D6260E94A71C0E940134F62E5E
:1004E600E72E60936A4F70936B4F0E94D234EF925F
:1004F600FF92AF92BF92AD81AF93B981BF932BE1CB
:1005060031E43F932F939F938F930E94FD310E9476
:10051600AE2B84E08093864FCDBFDEBF94E0B8CE8D
:100526008091814F882309F4B3CE81E591E40E943E
:10053600E43485E08093864F1092684F1092694F9D
:1005460095E0A6CE2091684F3091694F2F5F3F4FBF
:100556002093684F3093694F11964D915C91129795
:1005660060916E4F70916F4F461B570B052E000C16
:10057600660B770BC090424FD090434FE090444FAC
:10058600F090454F4C0D5D1D6E1D7F1D4093424FF3
:100596005093434F6093444F7093454F13968D90FD
:1005A6009C901497E0916C4FF0916D4F8E1A9F0AB4
:1005B600092C000CAA08BB08C0903E4FD0903F4FB4
:1005C600E090404FF090414F8C0C9D1CAE1CBF1C20
:1005D60080923E4F90923F4FA092404FB092414F33
:1005E6001596CD90DC901697E0916A4FF0916B4F7F
:1005F600CE1ADF0A0D2C000CEE08FF0840903A4F89
:1006060050903B4F60903C4F70903D4FC40CD51CB2
:10061600E61CF71CC0923A4FD0923B4FE0923C4FFB
:10062600F0923D4F283E334008F432CEE8EE4E2E8F
:10063600E3E05E2E612C712CCB01BA01A30192017D
:100646000E94AC30CA01B9010E94D6260E94A71C9E
:100656000E94013469837A838B839C836093424F23
:100666007093434F8093444F9093454FC501B40117
:10067600A30192010E94AC30CA01B9010E94D6269C
:100686000E94A71C0E9401344B015C0160933E4FFF
:1006960070933F4F8093404F9093414FC701B601EF
:1006A600A30192010E94AC30CA01B9010E94D6266C
:1006B6000E94A71C0E940134AB01BC0140933A4F33
:1006C60050933B4F60933C4F70933D4F89819A8185
:1006D60097FD50C1803891050CF459C121E09595DC
:1006E60087952F5F80389105D4F7822F90E0898314
:1006F6009A832093844FC40197FC37C180389105B3
:100706000CF441C121E0959587952F5F80389105BE
:10071600D4F7022F10E02093834FCA0157FD2EC154
:10072600803891050CF439C121E0959587952F5FA6
:1007360080389105D4F7C22ED12C2093824F0E9487
:10074600D234DF92CF921F930F93BA81BF93E98180
:10075600EF9328E731E43F932F939F938F930E9463
:10076600FD310E94AE2B86E08093864F1092464F55
:100776001092474F1092484F1092494FCDBFDEBF9F
:1007860096E086CDA9E2CA16D104E104F10408F484
:10079600C8C08091814F882309F47ACD80E292E423
:1007A6000E94E4341092684F1092694F1092364FAF
:1007B6001092374F1092384F1092394F88E080933D
:1007C600864F98E065CD8091814F882309F460CDEE
:1007D60086E08093864F96E05BCD2091684F3091FE
:1007E600694F2F5F3F4F2093684F3093694F409179
:1007F600364F5091374F6091384F7091394FC40E34
:10080600D51EE61EF71EC092364FD092374FE092A5
:10081600384FF092394F283E334008F439CDC7019E
:10082600B60128EE33E040E050E00E94AC30CA0149
:10083600B9010E94D6260E94A71C0E94F92A60933D
:100846004A4F70934B4F80934C4F90934D4F683265
:1008560071058105910508F47BC00E94D42626E621
:1008660036E646E65FE30E94C8340E94A71C0E9453
:10087600F92A69837D83F82EE92E60934A4F709397
:100886004B4F80934C4F90934D4F6091464F7091D4
:10089600474F8091484F9091494F0E94D4262DECA6
:1008A6003CEC4CE85FE30E94C8340E94A71C0E94FF
:1008B600F92A6093464F7093474F8093484F909321
:1008C600494F0E94D234EF92FF92FD81FF93298116
:1008D6002F9326E932E43F932F939F938F930E94A1
:1008E600FD310E94AE2B89E08093864F10927A4F9D
:1008F600CDBFDEBF99E0CCCC80917A4F882309F436
:10090600C1CC815080937A4FBACC84EC90E40E949B
:10091600D1289091864FBCCC87EC92E40E94E434B7
:1009260029CD8DEB91E40E94D12887E08093864FF4
:1009360097E0AECC89EF92E40E94E4348AE080939B
:10094600864F10927C4F0E94A22210927D4F9ECC21
:100956008AE492E40E94D12860914A4F70914B4FED
:1009660080914C4F90914D4F78CF882799278819C1
:100976009909C4CE919581959109ACCE882799277E
:10098600841B950BCDCE01E010E021E0C4CEA1E0A2
:10099600B0E0A983BA8321E0ACCECC24C394D12C99
:0409A60021E0CBCEB3
:1009AA00AAE9B0E0EBEDF4E00C941D306C017A0199
:1009BA00C756DF4F68837983C959D040A12CB12C1F
:1009CA0066246A94762C90E8492E512C25E2222E30
:1009DA00C756DF4F68817981C959D040FB018081B0
:1009EA00882309F471C3CF57DF4F18821982C1587F
:1009FA00D040CD57DF4F68827982C358D040CB5759
:100A0A00DF4F18821982C558D04081E090E08C0FE0
:100A1A009D1FC957DF4F88839983C758D040C7574E
:100A2A00DF4F48825982C958D040FB0100E010E0EC
:100A3A008191811116C001151105C1F0A801C601E5
:100A4A000E94CA2FC756DF4F88819981C959D04061
:100A5A00800F911FC756DF4F88839983C959D040A9
:100A6A0005C0853241F30F5F1F4FE2CFC756DF4FF4
:100A7A00E881F981C959D0408081853209F012C3D1
:100A8A004F019FEF891A990AC756DF4F88829982C8
:100A9A00C959D040C756DF4F88819981C959D0407A
:100AAA00DC012C912B3241F4CF57DF4F2881398159
:100ABA00C158D04024600BC02C32BCF02D3249F50D
:100ACA00CF57DF4F28813981C158D0402160CF5795
:100ADA00DF4F28833983C158D0400196C756DF4F6C
:100AEA0088839983C959D040D5CF203241F4CF5752
:100AFA00DF4F28813981C158D0402860E8CF23329E
:100B0A0091F4CF57DF4F28813981C158D0402061F5
:100B1A00DECF203341F4CF57DF4F28813981C158C6
:100B2A00D0402260D4CF2A3289F50196C756DF4FCA
:100B3A0088839983C959D040D701ED91FC911197C7
:100B4A00CF0102968D939C9380819181CB57DF4F81
:100B5A0088839983C558D04097FF35C0CF57DF4F58
:100B6A0028813981C158D040B1E02B27CF57DF4FB8
:100B7A0028833983C158D040919581959109CB57E3
:100B8A00DF4F88839983C558D0401DC00E94C02773
:100B9A00CB57DF4F88839983C558D040C756DF4F5C
:100BAA00E881F981C959D0408081082E000C990B3F
:100BBA00C0970A9740F43196C756DF4FE883F98306
:100BCA00C959D040EBCFCF57DF4F88819981C1589F
:100BDA00D04080FF07C08D7FCF57DF4F888399832E
:100BEA00C158D040C756DF4FE881F981C959D04072
:100BFA0080818E3209F046C0CD57DF4F18821982A4
:100C0A00C358D040CF010196C756DF4F88839983D6
:100C1A00C959D04021812A32C1F43296C756DF4FD2
:100C2A00E883F983C959D040D701ED91FC91119716
:100C3A00CF0102968D939C9380819181CD57DF4F8E
:100C4A0088839983C358D0401DC00E94C027CD57BE
:100C5A00DF4F88839983C358D040C756DF4FE88156
:100C6A00F981C959D0408081082E000C990BC09790
:100C7A000A9740F43196C756DF4FE883F983C9597A
:100C8A00D040EBCFCE0187569F4F0E944E2F382E71
:100C9A00C756DF4FE881F981C959D0408081082EB3
:100CAA00000C990B0E94C6338936910509F456C087
:100CBA00B4F48336910509F46BC144F48532910585
:100CCA0009F4A2C18136910529F1B4C1843691058E
:100CDA0009F444C0883691050CF436C1ABC180379B
:100CEA00910509F4C4C04CF48E36910509F420C16B
:100CFA008F36910509F47AC09DC18537910509F4AB
:100D0A0051C08837910509F495C08337910509F0D8
:100D1A0091C15DC1632D70E0A701CE0185579F4F38
:100D2A000E946E2F892B09F4B0C1C756DF4FE881A4
:100D3A00F981C959D040CF010196C756DF4F888340
:100D4A009983C959D0402081AE0145575F4FBE01F2
:100D5A006F577F4FC6010E94DB3494C1632D70E048
:100D6A00970141E050E0CE0185579F4F0E946C19D0
:100D7A00892B09F48AC1C756DF4F88819981C959DD
:100D8A00D0400196C756DF4F88839983C959D0400E
:100D9A00AE0145575F4FBE016F577F4FC6010E9494
:100DAA00AD1870C1632D70E0970140E050E0CE01AC
:100DBA0085579F4F0E946C19892B09F466C1C75643
:100DCA00DF4F88819981C959D0400196C756DF4FB4
:100DDA0088839983C959D040AE0145575F4FBE01F8
:100DEA006F577F4FC6010E944B224CC1632D70E0A2
:100DFA00970140E050E0CE0185579F4F0E946C1941
:100E0A00892B09F442C1C756DF4F88819981C95994
:100E1A00D0400196C756DF4F88839983C959D0407D
:100E2A00AE0145575F4FBE016F577F4FC6010E9403
:100E3A00062028C1632D70E0970140E050E0CE0102
:100E4A0085579F4F0E946C19892B09F41EC1C756FA
:100E5A00DF4FE881F981C959D040CF010196C756C1
:100E6A00DF4F88839983C959D040208157C09701A1
:100E7A0040E050E060EF70E0CE0185579F4F0E943E
:100E8A006C19892B09F401C1C756DF4F88819981F2
:100E9A00C959D0400196C756DF4F88839983C959EB
:100EAA00D04086E0E0EFFEE4DE01AD56BF4F019090
:100EBA000D928A95E1F7C557DF4F2881CB58D0406C
:100ECA00C457DF4F3881CC58D040C357DF4F4881D1
:100EDA00CD58D040C257DF4F5881CE58D040C15765
:100EEA00DF4F6881CF58D040C057DF4F7881C05953
:100EFA00D040CF56DF4F8881C159D040CE56DF4F00
:100F0A009881C259D040A0E00E94163331F420E003
:100F1A0030E0AE014D565F4FAFC028E7AE014557EE
:100F2A005F4FBE016F577F4FC6010E94EE12AAC0E3
:100F3A00632D70E09701A501400F511FCE0185571F
:100F4A009F4F0E94301FA1C0632D70E0A701CE0100
:100F5A0085579F4F0E946E2F892B09F496C0C7565A
:100F6A00DF4FE881F981C959D040CF010196C756B0
:100F7A00DF4F88839983C959D0402081AE014557F4
:100F8A005F4FBE016F577F4FC6010E94B80B7AC0F0
:100F9A00B0E83B127AC0C756DF4F88819981C95998
:100FAA00D0400196C756DF4F88839983C959D040EC
:100FBA00D701ED91FC911197CF0102968D939C93E5
:100FCA008081C557DF4F8883CB58D04050C0B0E8E6
:100FDA003B125BC0C756DF4F88819981C959D040FF
:100FEA000196C756DF4F88839983C959D040D701E4
:100FFA00ED91FC911197CF0102968D939C934081BC
:10100A00518120E030E038C0B0E83B123EC0C756FC
:10101A00DF4F88819981C959D0400196C756DF4F61
:10102A0088839983C959D040C557DF4F2882CB5846
:10103A00D0401DC0C557DF4F2882CB58D040C75675
:10104A00DF4F88829982C959D040CF57DF4F188223
:10105A001982C158D040CB57DF4F18821982C55820
:10106A00D040CD57DF4F68827982C358D04021E003
:10107A0030E0AE0145575F4FBE016F577F4FC60143
:10108A000E946D29800F911F0EC0C756DF4F8881BD
:10109A009981C959D0400196C756DF4F88839983F1
:1010AA00C959D040C8018501080F191F0A151B0527
:1010BA004CF48FE490E080930040909301408FEFCE
:1010CA009FEF03C0580184CCC501C656DF4FE2E149
:0410DA000C946630DC
:1010DE00A0E0B0E0E5E7F8E00C941D30DB011097DE
:1010EE0021F08C9311969C9311979C01F9018081AC
:1010FE002F5F3F4F082E000C990B80329105B1F3F4
:10110E00AC01495051094530510580F38D3291059E
:10111E0021F4F9015524539404C08B9709F4F90175
:10112E00512C80E0282F082E000C330BEF01C20F3C
:10113E00D31F9881992371F0E901C158D14B488191
:10114E00941302C08F5FEECFE901C857D14B2881AF
:10115E009217C1F3833010F430E015C0109709F4E4
:10116E00DEC2883009F083E0E80FF11D87FDFA95A5
:10117E00ED93FC93D4C2AC014F56514BEA0148811A
:10118E0024130DC03F5F832F032E000C990BBF015C
:10119E00680F791FEB0128812111EDCF06C08B5608
:1011AE00914BEC018881281769F3333011F090E0F0
:1011BE001AC0109709F4BAC2283291F420E0822F97
:1011CE00022E000C990BFB01E80FF91F308133231F
:1011DE0039F0393211F02F5FF2CF0196680F791F77
:1011EE006D937C93A3C2092F092E000C110BEF01F6
:1011FE00C00FD11F8881803311F49F5FF4CF3D0162
:10120E00992319F08F7D883541F060E070E0CB01B5
:10121E00E12CF12CC0E0D0E05FC10F5F1F4F0E0F2D
:10122E001F1F80E0F801E80FF11D87FDFA959081F0
:10123E00903311F48F5FF6CF812C912C5401E12C59
:10124E00F12CC0E0D0E06CE1262E312C4E2C680142
:10125E00CE0CD11CE7FCDA94F6018081982F9F7D8D
:10126E00903509F48CC08E3251F4F52DF0615F2E5D
:10127E00442443944E0C57E0252E312C3EC0082EAC
:10128E00000C990B0E944031892B21F460E070E034
:10129E00CB0162C2D6018C91282F082E000C330B85
:1012AE00A901405351094A30510510F4805304C02E
:1012BE00C9010E947D338753B8E0EB16F1048CF41C
:1012CE0090E0A0E0B0E091012C1B3D0B04C0880F14
:1012DE00991FAA1FBB1F2A95D2F7882A992AAA2AD4
:1012EE00BB2AEFEFEE1AFE0A2496B0CF803389F4B4
:1012FE00E114F10471F4249743946801C40CD11CD9
:10130E0047FCDA94D6018C91982F9F7D903571F71A
:10131E0036C0082E000C990B0E944031892B61F3C8
:10132E00D6014C91842F042E000C990B9C01205356
:10133E0031092A30310518F480ED840F03C00E9464
:10134E007D338753B8E0EB16F104ACF490E0A0E0E7
:10135E00B0E091012E193F09220F331F220F331FC8
:10136E0004C0880F991FAA1FBB1F2A95D2F7882A7F
:10137E00992AAA2ABB2AEFEFEE1AFE0ABDCFF80170
:10138E00E40DF11D47FCFA9580818F7D803509F0C3
:10139E007DCF81E0840DF801E80FF11D87FDFA95F0
:1013AE0090819B3229F09D3229F4B52DB8605B2EC9
:1013BE0082E0840D080F111D87FD1A9560E0F8017B
:1013CE00E60FF11D67FDFA958081803311F46F5F92
:1013DE00F6CF40E050E07AE0F801E60FF11D67FD30
:1013EE00FA958081082E000C990B9C01205331092F
:1013FE002A30310568F4662331F0FA017E9FA00190
:10140E007F9F500D1124C097480F591F6F5FE4CF77
:10141E00662309F43BCF53FE03C051954195510904
:10142E006114710419F0D301ED93FC9381149104AE
:10143E00A104B10409F42ACFE0E8E81520F4FFEF87
:10144E009F1AAF0ABF0AC40FD51FB7FC06C0880C7F
:10145E00991CAA1CBB1C2197F8CFC3382FEFD207BB
:10146E0094F4C2383FEFD30759F081149104A104CC
:10147E00B10431F02196B694A79497948794F1CF46
:10148E00C1E8DFEF0AC02197C038D1050CF45FC167
:10149E00812C912C5401C0E8D0E0C158DF4FAE0131
:1014AE00DD0F660B770BF7E1440F551F661F771F95
:1014BE00FA95D1F7A9E0B694A79497948794AA9534
:1014CE00D1F7842A952AA62AB72A36C11E3251F49C
:1014DE00452D4061542E31969F011081A52DA0718E
:1014EE0054FEF4CF412F012E000C550B40535109E1
:1014FE004A30510500F5B52DB2605B2E29E0E2169B
:10150E00F104A9F0A11121973FEFE31AF30AAAE023
:10151E00B0E09B01AC010E9444331053DC01CB01BF
:10152E00810F911DA11DB11DBC01CD01D4CFA11103
:10153E00D2CF2196D0CF1F7D153409F053C0218113
:10154E002D3221F4452D4860542E04C02B3211F05B
:10155E00319601C03296DF0121912033E1F3422F03
:10156E00022E000C550B405351094A30510588F597
:10157E0050ED520F052F10E011964C911197242F1C
:10158E00042E000C330B205331092A30310510F094
:10159E009F0122C09D012E5F3F4F4053042F10E04C
:1015AE00EAE05E9F000D111D112412964C91E42F5E
:1015BE00042E000CFF0BF0973A9770F45AE0509FF0
:1015CE00F001519FF00D112440538F01040F111D96
:1015DE0003C09D0100E010E053FE06C01195019579
:1015EE00110902C000E010E06114710429F051FEEF
:1015FE0003C0D3012D933C930E94D4264B015C0172
:10160E0020E030E0A9010E949F34882309F43ECEE9
:10161E00CE01800F911FC52DC17097FF3DC09195D2
:10162E00819591098A309105DCF06AE070E00E94A4
:10163E005431182FD92F660F771F660F771FFB01B6
:10164E00E25BF14B2081318142815381C501B401AE
:10165E000E94C4344B015C01812F9D2F009789F0AD
:10166E00880F991F880F991FFC01E65DF14B2081B1
:10167E00318142815381C501B4010E94C4344B01B2
:10168E005C0120E030E040E850E0C501B4010E946A
:10169E009F3487FF51C03CC0009709F44DC08A307B
:1016AE009105DCF06AE070E00E945431182FD92FBA
:1016BE00660F771F660F771FFB01E25BF14B2081F0
:1016CE00318142815381C501B4010E94C8344B015E
:1016DE005C01812F9D2F009789F0880F991F880F2D
:1016EE00991FFC01E65DF14B2081318142815381CE
:1016FE00C501B4010E94C8344B015C012FEF3FEFCE
:10170E004FE75FE7C501B4010E94A4341816A4F494
:10171E00CC23C1F060E070E080E890E81DC0812C21
:10172E00912C20E8A22E2FE7B22E06C0812C912CF0
:10173E0090ECA92E9FE7B92EC501B40150FE0CC046
:10174E0090580AC060E070E080E890E005C0880C18
:10175E00991CAA1CBB1CA1CECDB7DEB7E2E10C943E
:02176E006630E3
:10177000A6E2B0E0EEEBFBE00C941D308E8F9F8F65
:10178000688F798F122FFB010190F081E02DE9879E
:10179000FA87FB01C280D380248135812B8B3C8B5F
:1017A0008085918588A399A326803780FA0180805F
:1017B0009180A280B38020E030E0A901C501B4018E
:1017C0000E949F3487FF06C0B7FAB094B7F8B09470
:1017D0008DE204C0598552FFF0C28BE2F101808393
:1017E0002B893C89215031092F83388741E050E013
:1017F000498B5A8B06C08B899C898F839887198A5D
:101800001A8AD501C401BF770097E0E8AE07EFE779
:10181000BE07B1F4212F110F330B215431098989EF
:101820009A89820D931D2A31310518F467EC7EE404
:1018300002C06BEC7EE40E94BE338BEC9EE4ADC232
:101840000197A048BF47B0F0212F110F330B21544F
:10185000310989899A89820D931D2A31310518F43D
:101860006FEC7EE402C063ED7EE40E94BE3383ED44
:101870009EE493C220E030E0A901C501B4010E94BA
:101880009F341B821C82882309F46CC020E82D83BE
:101890003FE33E8319821A8220E030E040E251E4C7
:1018A0006B817C818D819E810E94C834F62E072F2A
:1018B0008D879B87A50194010E94A43418166CF0B3
:1018C00049815A814F5F5F4F49835A83FB820C8362
:1018D0005D855D838B858E83DFCF1B861C862B8188
:1018E0003C814D815E81C501B4010E949F3487FF18
:1018F0003FC0E981FA81E43DFE4F04F54B855C85EC
:10190000452BE1F420E030E040E85AE5C501B401A0
:101910000E94C8344B015C0120E030E040E85AE509
:101920006B817C818D819E810E94C8346B837C8316
:101930008D839E8381E090E08B879C8720E030E060
:1019400040E251E46B817C818D819E810E94C43490
:101950006B837C838D839E83E981FA813197E98350
:10196000FA83BDCFF0E8FD832FE32E8319821A821C
:10197000412F110F550B4AA35BA3CA010E94C63326
:101980008B8FD7FC03C0CDA2DEA204C086E090E01E
:101990008DA39EA39B8D973641F4CD2809F012C2EA
:1019A000E1E0F0E0EDA3FEA30DC28B8D8D8B06C0B0
:1019B00029813A8137FF19C296E69D8BEDA1FEA1E0
:1019C0003196EDA3FEA3FD89F636B9F429813A815B
:1019D00037FF08C01B821C8230E83D834FE34E83F3
:1019E00019821A825B8D573641F08DA19EA1E98143
:1019F000FA818E0F9F1F8DA39EA3FB81FB872C81F5
:101A00002D873D813E8B4E814A8F750164011C8E6E
:101A10001D8EEC8DFD8D2DA13EA1E217F307B9F1CE
:101A20002B853D854E895A8DC701B6010E94C4346D
:101A30000E94411D2B013C010E9401346CA38701CF
:101A4000760117FB109517F910952B853D854E896A
:101A50005A8DC301B2010E94091C6B017C01F7FA87
:101A6000F094F7F8F09420E030E040E251E46B8528
:101A70007D858E899A8D0E94C4346B877D878E8B7D
:101A80009A8F8C8D9D8D01968C8F9D8FC2CF20E07B
:101A900030E040EA50E46B857D858E899A8D0E9406
:101AA000C8342B013C019B01AC01C701B6010E9467
:101AB0009F3487FD0BC0A3019201C701B6010E94AC
:101AC0009F34811106C03CA130FD03C0412C512C34
:101AD0003201A3019201C501B4010E94FB334B0105
:101AE0005C014D89453619F069807A8002C0612C0D
:101AF000712C23018DA19EA1481A590AC988DA8840
:101B000000E010E01B861C86E985FA85E071FF275E
:101B1000EE8BFF8B6414750431F4EB85FC85EF2BA1
:101B200009F496C0A1C0CC8EDD8EE88DF98D80853C
:101B300091850597C816D90680F72B813C814D8188
:101B40005E81C501B4010E94C4340E94411D6D87AD
:101B50007E878F87988B0E940134CB012E893F8925
:101B6000232B69F4892B59F43B8D373641F477FEEA
:101B700006C0A8014F5F5F4F4C8F5D8F3FC08B85C4
:101B80009C85892BA9F477FE13C09FEFC91AD90A47
:101B9000EC8DFD8DE20DF31D2EE220834F815885E3
:101BA000415051094F83588781E090E08B879C8793
:101BB000F101EC0DFD1D0C8F1D8F4C8D5D8D452BA6
:101BC00049F090E391932C8D3D8D215031092C8F5C
:101BD0003D8FF3CFC8018C0D9D1D2F813885201BB3
:101BE000310B6C015FEFC51AD50AF101E80FF91F3F
:101BF000605D6083C90101978F83988785017401B7
:101C000017FB109517F910952B813C814D815E8152
:101C10006D857E858F8598890E94091C4B015C012A
:101C2000B7FAB094B7F8B09420E030E040E251E465
:101C30006B817C818D819E810E94C4346B837C8307
:101C40008D839E8391E0691A71080C8D1D8D62CF82
:101C5000F985F4FF09C0F101EC0DFD1D8EE28083D2
:101C600096012F5F3F4F6901A1014C0D5D1D4B8710
:101C70005C87FA011082FD89F53609F061C0E8A1A0
:101C8000F9A1E20DF31D3197108229813A8137FFC6
:101C900008C031952195310929833A8301E010E08C
:101CA00002C000E010E0E8A1F9A13197E20DF31DB8
:101CB00022E030E08AE0E82EF12CCF01821993096E
:101CC00049815A81452B91F089819A81B7010E94FF
:101CD0005431805D829369837A83215031094F8129
:101CE0005885415051094F835887E7CF1216130684
:101CF0005CF3FC013197E20DF31D012B11F42BE293
:101D000001C02DE220830297B101680F791F2AA13B
:101D10003BA1215431092A31310510F025E601C0DB
:101D200025E4FB0120832F813885225031092F8340
:101D30003887C816D90624F48B859C850E94BE334B
:101D4000398531FF29C030FD27C04F8158851416D1
:101D5000150614F5C1010E94D332820D931D9C011A
:101D60002219330949895A89241735074CF0FC0197
:101D70002081EF81F885E80FF91F20830197EFCFCD
:101D80004F81588560E370E089899A89820D931D9F
:101D90000E9474331B8A1C8AC1010E94D3320985B8
:101DA0001A852B893C89AC01B1018E8D9F8D0E94D3
:101DB0004A23A696E2E10C946630598553FF1BCD69
:101DC00080E20CCD89819A818C3F9F4F5CF0298104
:101DD0003A814DA15EA1241735070CF4E9CD55E6F3
:101DE0005D8B0BCEF5E6FD8B08CE36E63D8B05CE42
:101DF000AF92BF92CF92DF92FF920F931F93CF9338
:101E0000DF93CDB7DEB76897CDBFDEBF8AEE9EE425
:101E10000E949726182F81110EC0812F6896CDBF82
:101E2000DEBFDF91CF911F910F91FF90DF90CF9098
:101E3000BF90AF90089534E2F32EF092FE4E8CE006
:101E40008093FF4E00E19E012F5F3F4F42E06EEF17
:101E50007EE48AE30E943D21882309F4E0C12B81BE
:101E60006C81862F90E0A0E0B0E0DC019927882704
:101E7000B22B2A81AC01BD01422B898190E0982FC1
:101E80008827A0E0B0E05A016B01A82AB92ACA2A23
:101E9000DB2AC601B5010E94D62620E030E040E8EA
:101EA0005BE30E94C8346093324F7093334F80934A
:101EB000344F9093354F2F816885862F90E0A0E0B6
:101EC000B0E0DC0199278827B22B2E81AC01BD013F
:101ED000422B8D8190E0982F8827A0E0B0E05A0136
:101EE0006B01A82AB92ACA2ADB2AC601B5010E94B9
:101EF000D62620E030E040E855E30E94C8346093E5
:101F00002E4F70932F4F8093304F9093314F2B85EE
:101F10006C85862F90E0A0E0B0E0DC01992788274F
:101F2000B22B2A85AC01BD01422B898590E0982F08
:101F30008827A0E0B0E05A016B01A82AB92ACA2A72
:101F4000DB2AC601B5010E94D62620E030E040E839
:101F500059E20E94C83460932A4F70932B4F8093AC
:101F60002C4F90932D4F2F856889862F90E0A0E00D
:101F7000B0E0DC0199278827B22B2E85AC01BD018A
:101F8000422B8D8590E0982F8827A0E0B0E05A0181
:101F90006B01A82AB92ACA2ADB2AC601B5010E9408
:101FA000D62620E030E040E85BE30E94C83460932E
:101FB000264F7093274F8093284F9093294FF0928C
:101FC000FE4EF092FF4E08E19E012F5F3F4F42E030
:101FD0006EEF7EE48AE30E943D21882309F41FC14D
:101FE0002B816C81862F90E0A0E0B0E0DC01992786
:101FF0008827B22B2A81AC01BD01422B898190E058
:10200000982F8827A0E0B0E05A016B01A82AB92ACE
:10201000CA2ADB2AC601B5010E94D62620E030E09C
:1020200040E857E30E94C8346093224F7093234FD7
:102030008093244F9093254F2F816885862F90E0C1
:10204000A0E0B0E0DC0199278827B22B2E81AC01FB
:10205000BD01422B8D8190E0982F8827A0E0B0E051
:102060005A016B01A82AB92ACA2ADB2AC601B5017E
:102070000E94D62620E030E040E85BE30E94C834AE
:1020800060931E4F70931F4F8093204F9093214F6A
:102090002B856C85862F90E0A0E0B0E0DC019927CD
:1020A0008827B22B2A85AC01BD01422B898590E09F
:1020B000982F8827A0E0B0E05A016B01A82AB92A1E
:1020C000CA2ADB2AC601B5010E94D62620E030E0EC
:1020D00040E858E20E94C83460931A4F70931B4F37
:1020E00080931C4F90931D4F2F856889862F90E019
:1020F000A0E0B0E0DC0199278827B22B2E85AC0147
:10210000BD01422B8D8590E0982F8827A0E0B0E09C
:102110005A016B01A82AB92ACA2ADB2AC601B501CD
:102120000E94D62620E030E040E85DE20E94C834FC
:102130006093164F7093174F8093184F9093194FD9
:102140002B896C89862F90E0A0E0B0E0DC01992714
:102150008827B22B2A89AC01BD01422B898990E0E6
:10216000982F8827A0E0B0E05A016B01A82AB92A6D
:10217000CA2ADB2AC601B5010E94D62620E030E03B
:1021800040E85DE20E94C8346093124F7093134F91
:102190008093144F9093154F6D897E89762767271A
:1021A0007627072E000C880B990B0E94D62620E07C
:1021B00030E040E85AE30E94C83460930E4F7093B9
:1021C0000F4F8093104F9093114F6F89788D762722
:1021D00067277627072E000C880B990B0E94D626BE
:1021E00020E030E040E85AE30E94C83460930A4F90
:1021F00070930B4F80930C4F90930D4FF092FE4EC7
:1022000081E88093FF4E04E09E012F5F3F4F42E044
:102210006EEF7EE48AE30E943D21811102C010E04E
:10222000FCCD69817A81762767277627072E000CF7
:10223000880B990B0E94D62620E030E040E858E356
:102240000E94C8346093064F7093074F8093084FE5
:102250009093094F6B817C81762767277627072E1D
:10226000000C880B990B0E94D62620E030E040E855
:102270005AE30E94C8346093024F7093034F8093D7
:08228000044F9093054FC9CDF6
:102288004F925F926F927F928F929F92AF92BF927E
:10229800CF92DF92EF92FF92CF93DF93CDB7DEB765
:1022A8002D97CDBFDEBF8091774F8230B9F08091F6
:1022B800774F813099F080E02D96CDBFDEBFDF915A
:1022C800CF91FF90EF90DF90CF90BF90AF909F900D
:1022D8008F907F906F905F904F9008956091E14E3E
:1022E8007091E24E072E000C880B990B0E94D6269F
:1022F8004B015C016091DB4E7091DC4E072E000CA7
:10230800880B990B0E94D62620E030E040E451E487
:102318000E94C4346B017C0120910E4F30910F4F05
:102328004091104F5091114F0E94C834A50194015B
:102338000E94FB339B01AC01C701B6010E94C43463
:1023480020E030E040E059E40E94C83469837A8391
:102358008B839C838091774F813009F432C16091DF
:10236800DD4E7091DE4E8091DF4E9091E04E680F09
:10237800791F072E000C880B990B0E94D62620E0A7
:1023880030E040E05FE30E94C83420E030E040E401
:1023980051E40E94C4342B013C0120910A4F309132
:1023A8000B4F40910C4F50910D4FC701B6010E9441
:1023B800C834A50194010E94FB339B01AC01C30101
:1023C800B2010E94C43420E030E040E059E40E94A9
:1023D800C8342B013C012091324F3091334F40914A
:1023E800344F5091354F69817A818B819C810E944D
:1023F800FA336B017C0120912E4F30912F4F409181
:10240800304F5091314F0E94C4342091264F309163
:10241800274F4091284F5091294F0E94FB334B0181
:102428005C01A7019601C701B6010E94C83420913A
:102438002A4F30912B4F40912C4F50912D4F0E9495
:10244800C8349B01AC01C501B4010E94FB334B01A8
:102458005C016093F64E7093F74E8093F84E90931C
:10246800F94E23E333E948E853E40E94FB336B0158
:102478007C012091064F3091074F4091084F5091B1
:10248800094F60911A4F70911B4F80911C4F90918A
:102498001D4F0E94C83469837A838B839C83809103
:1024A800124F9091134FA091144FB091154F8D83F7
:1024B8009E83AF83B88720E030E048EC51E4C50143
:1024C800B4010E94FA332091164F3091174F409172
:1024D800184F5091194F0E94C8344B015C01A70155
:1024E8009601C701B6010E94C834A70196010E944F
:1024F800C834A70196010E94C8346B017C01809101
:10250800024F9091034FA091044FB091054F8987D6
:102518009A87AB87BC8793E09D87B0E0A0E0F8EC92
:10252800E1E420E030E048EC51E46B2F7A2F8F2F64
:102538009E2F0E94FA332D813E814F8158850E943B
:10254800C83420E030E040E85FE30E94FB33A50197
:1025580094010E94FB3329813A814B815C810E945E
:10256800C8349B01AC01C301B2010E94C434A70165
:1025780096010E94FB330E942E140E942E1423E31E
:1025880033E948E853E40E94FA3329853A854B85B4
:102598005C850E94FA33AD85A150AD87AA2329F046
:1025A800B62FA72FF82FE92FBCCF6B017C01C09263
:1025B800FA4ED092FB4EE092FC4EF092FD4E81E036
:1025C8007BCE6091D74E7091D84E8091D94E909124
:0425D800DA4ECDCE3C
:1025DC00A4E1B0E0E4EFF2E10C941D308F83988716
:1025EC0069837A834B8B5C8B122FDB011296ED91F6
:1025FC00FC91139714962D913C9115972D833E8346
:10260C00CD90DC90119716962D903C901797F7FD76
:10261C0003C0E894C1F802C0E1E0F0E0C6018071AB
:10262C00992789879A87C4FE1FC0AB89BC892C91D6
:10263C0011963C91119712964C91129713965C91AE
:10264C00139714966C91149715967C911597169672
:10265C008C91169717969C91A0E00E94163321F04E
:10266C008D819E81029702C08D819E81960128707A
:10267C0033272B873C87C3FC0197AB89BC894C90D3
:10268C0011965C90119712966C90129713967C9001
:10269C00139714968C90149715969C9015971696E4
:1026AC00AC9016971796BC90A981BA811896ED90AC
:1026BC00FC901997B1E0EB1AF108D101AE0DBF1DDA
:1026CC001C928B839C839F01281B390B2D873E8783
:1026DC00C601827099278F87988B812F012E000C51
:1026EC00990BDC01A154B109A98BBA8B32E0E3162A
:1026FC00F10434F489859A85892B09F04CC073C098
:10270C009201A301B401C501A0E00E94163381F12E
:10271C00B1E0EB1AF108C2018F7099278A3091054C
:10272C0014F4C09602C0895A9F4FE989FA897A97A6
:10273C0048F49C012062215631092A31310510F4EC
:10274C000E947D33F101EE0DFF1D80832B813C81B6
:10275C00215031092B833C839201A301B401C501A3
:10276C0004E00E94AE2F29013A014B015C01BECF5F
:10277C008D859E85AB81BC818A0F9B1F181619060F
:10278C003CF21A161B060CF0B5CFEF85F889EF2B2F
:10279C0009F0BECFAFCFAB89BC892C9111963C917F
:1027AC00119712964C91129713965C91139714965D
:1027BC006C91149715967C91159716968C9116978B
:1027CC0017969C91A0E00E94163369F0F101EE0D72
:1027DC00FF1D31971083B2E0EB1AF108F101EE0DF9
:1027EC00FF1D80E38083EB85FC85EF2B41F0F1E04E
:1027FC00EF1AF108F101EE0DFF1D80E28083A98133
:10280C00BA8118964D915C911997415051094E1906
:10281C005F09B1016E0D7F1D86012D813E818F8177
:10282C0098850E944A239C01EF81F88580819181D3
:10283C0090FF09C0A981BA8112968D919C91139732
:10284C00821793070CF4C9016496E2E10C9466308C
:10285C004F925F926F927F928F929F92AF92BF92A4
:10286C00CF92DF92EF92FF920F931F936B017C013B
:10287C00DC01CB01B701A6014427552760787F778F
:10288C004115510560487F4759F4A7019601C701CE
:10289C00B6010E94C834A70196010E94FB331AC0EE
:1028AC00181619061A061B06D4F0892B8A2B8B2BAB
:1028BC0009F4CCC081E290E08093004090930140F9
:1028CC00A7019601C701B6010E94FA339B01AC0126
:1028DC000E94C434562F472F382F292FBBC067E1D5
:1028EC00F594E794D794C7946A95D1F7C114D104A1
:1028FC00E104F104E1F4C12CD12C7601A7FD0AC04E
:10290C00880F991FAA1FBB1F2FEFC21AD20AE20A07
:10291C00F20AF4CF21E0C21AD108E108F108F094D0
:10292C00E094D094C094C11CD11CE11CF11C2FE785
:10293C00C21AD108E108F108AF77BB27A068C0FE26
:10294C0004C0880F991FAA1FBB1FF594E794D79456
:10295C00C794880F991FAA1FBB1FE9E1F0E040E064
:10296C0050E060E071E0812C912C540100E010E00B
:10297C00980128013901440E551E661E771E8415D8
:10298C009505A605B70574F093018201040F151F78
:10299C00261F371F84199509A609B709840E951EA1
:1029AC00A61EB71E880F991FAA1FBB1F7695679589
:1029BC00579547953197E9F6892B8A2B8B2BA1F1EB
:1029CC0020E632E442EA5DE060E070E080E89FE3FC
:1029DC000E94FA3320E030E040E85FE30E94A43428
:1029EC0087FD22C020E632E442EA5DE060E070E060
:1029FC0080E89FE30E94FB3320E030E040E85FE397
:102A0C000E94A434181634F482E0880E911CA11C88
:102A1C00B11C0AC0D501C40181709927AA27BB2714
:102A2C00880E991EAA1EBB1ED501C401B595A7958B
:102A3C0097958795B15C37E1CC0CDD1CEE1CFF1C27
:102A4C003A95D1F7C80ED91EEA1EFB1E5C2D4D2DF2
:102A5C003E2D2F2D652F742F832F922F1F910F91A9
:102A6C00FF90EF90DF90CF90BF90AF909F908F90A2
:0A2A7C007F906F905F904F900895D7
:102A86008F929F92AF92BF92CF92DF92EF92FF9278
:102A96001F93CF93DF9300D0CDB7DEB78AEE9EE4C7
:102AA6000E949726182F8823F9F080E090E00E9474
:102AB600AE346C0182E090E00E94AE345C0184E0AA
:102AC60090E00E94AE344C017601EA24FB24E8260D
:102AD600F9268AE390E00E94AE3489839A8389813D
:102AE6009A81E816F90681F010E0812F0F900F9079
:102AF600DF91CF911F91FF90EF90DF90CF90BF9025
:102B0600AF909F908F9008958091EA4E9091EB4EF2
:102B1600C816D90649F78091EC4E9091ED4EA8164D
:102B2600B90611F78091EE4E9091EF4E88169906F0
:102B3600D9F686E090E00E9424346093324F709379
:102B4600334F8093344F9093354F8AE090E00E9444
:102B5600243460932E4F70932F4F8093304F909371
:102B6600314F8EE090E00E94243460932A4F709398
:102B76002B4F80932C4F90932D4F82E190E00E9433
:102B860024346093264F7093274F8093284F909359
:102B9600294F86E190E00E9424346093224F70937F
:102BA600234F8093244F9093254F8AE190E00E9413
:102BB600243460931E4F70931F4F8093204F909341
:102BC600214F8EE190E00E94243460931A4F709357
:102BD6001B4F80931C4F90931D4F82E290E00E9402
:102BE60024346093164F7093174F8093184F909329
:102BF600194F86E290E00E9424346093124F70933E
:102C0600134F8093144F9093154F8AE290E00E94E1
:102C1600243460930E4F70930F4F8093104F909310
:102C2600114F8EE290E00E94243460930A4F709315
:102C36000B4F80930C4F90930D4F82E390E00E94D0
:102C460024346093064F7093074F8093084F9093F8
:102C5600094F86E390E00E9424346093024F7093FC
:0C2C6600034F8093044F9093054F3FCF25
:102C7200FF920F931F93CF93DF93CDB7DEB7609789
:102C8200CDBFDEBF8DE797E40E944F33182F882314
:102C9200D9F060E1CE0101960E945926082F81E801
:102CA20097E40E94D128011145C087E997E40E9468
:102CB200D12810E0812F6096CDBFDEBFDF91CF918A
:102CC2001F910F91FF90089582EC97E40E944F3379
:102CD200082F8823A1F060E1CE0101960E945926B7
:102CE200F82E87EC97E40E94D128FF2039F1CE011B
:102CF20001960E94A9340E94F221102FDBCF8AE0B4
:102D020098E40E944F33182F8823E9F060E1CE0146
:102D120001960E945926082F8FE098E40E94D1283C
:102D2200002309F447C0CE0101960E94A9340E94F3
:102D32009921C0CF89810E94E533BCCF8EED97E403
:102D42000E94D128B7CF82E598E40E944F338823AE
:102D5200F9F087E598E40E94D1288EE698E40E9473
:102D62004F33182F81112CC083E798E40E944F3310
:102D7200182F81114DC088E798E40E944F33182F15
:102D8200882309F44AC080E09EE10E94023092CF7B
:102D92008EEA98E40E944F33811106C087E999E4D4
:102DA2000E944F33882389F083EB98E40E94E43435
:102DB20011E080CF86E298E40E94D12810E07ACF19
:102DC20080E093E00E94023075CF8CE999E40E9482
:102DD2004F33182F811126C08CEB99E40E944F3398
:102DE200182F811128C082EC99E40E944F33182FCA
:102DF200882309F45FCF80E00E94553480E00E946E
:102E0200AE2C0E947D3288EC99E40E94E43452CFC9
:102E120080E09FE00E9402304DCF8DE798E40E944F
:102E2200D12848CF83EA99E40E94E4340E94B73261
:0C2E32000E941F173FCF0E94CF343CCFFE
:102E3E00BF92CF92DF92EF92FF920F931F93CF9399
:102E4E00DF930E945933E62ED72EC82EB92E0E943C
:102E5E006233D62F172F082FF92E2091524F309113
:102E6E00534F4091544F5091554F0E94A43487FFB9
:102E7E005DC020914E4F30914F4F4091504F509129
:102E8E00514F6D2F712F802F9F2D0E949F3418163A
:102E9E000CF07EC0C091874FC63409F450C0CB34BD
:102EAE0009F47BC0C334E1F083E996E40E94D12893
:102EBE00C091874F0E94D2341F92CF9323EC36E4F9
:102ECE003F932F939F938F930E94EB310E94AE2BD3
:102EDE00C091874F0F900F900F900F900F900F9003
:102EEE000E94E6341F92CF93FF920F931F93DF93AE
:102EFE001F92CF93BF92CF92DF92EF9228EC36E4DF
:102F0E003F932F939F938F930E94EB318DB79EB774
:102F1E0040968DBF9EBFDF91CF911F910F91FF9075
:102F2E00EF90DF90CF90BF900C94F33386E596E44C
:102F3E000E94E434C091874FC63409F0B0CF26E624
:102F4E0036E646EE5FE36E2D7D2D8C2D9B2D0E9479
:102F5E00C83420E030E040E052E40E94FB33E62E1D
:102F6E00D72EC82EB92E26E636E646EE5FE36D2F37
:102F7E00712F802F9F2D0E94C83420E030E040E05A
:102F8E0052E40E94FB33D62F172F082FF92EA8CF0D
:102F9E0085E796E40E94E4347DCF23E333E948E8E5
:102FAE0053E46E2D7D2D8C2D9B2D0E94FB33E62E32
:102FBE00D72EC82EB92E23E333E948E853E46D2FFC
:082FCE00712F802F9F2DDDCF34
:102FD600CF93DF93CAEEDEE46881798180E090E0EA
:102FE6000E94B3346A817B8182E090E00E94B33410
:102FF6006C817D8184E090E00E94B3344091324F31
:103006005091334F6091344F7091354F86E090E088
:103016000E94D63340912E4F50912F4F6091304FE2
:103026007091314F8AE090E00E94D63340912A4F4A
:1030360050912B4F60912C4F70912D4F8EE090E068
:103046000E94D6334091264F5091274F6091284FCA
:103056007091294F82E190E00E94D6334091224F31
:103066005091234F6091244F7091254F86E190E057
:103076000E94D63340911E4F50911F4F6091204FB2
:103086007091214F8AE190E00E94D63340911A4F09
:1030960050911B4F60911C4F70911D4F8EE190E037
:1030A6000E94D6334091164F5091174F6091184F9A
:1030B6007091194F82E290E00E94D6334091124FF0
:1030C6005091134F6091144F7091154F86E290E026
:1030D6000E94D63340910E4F50910F4F6091104F82
:1030E6007091114F8AE290E00E94D63340910A4FC8
:1030F60050910B4F60910C4F70910D4F8EE290E006
:103106000E94D6334091064F5091074F6091084F69
:103116007091094F82E390E00E94D6334091024FAE
:103126005091034F6091044F7091054F86E390E0F4
:103136000E94D633688179818A819B8168277927A5
:103146008C819D81682779278AE390E0DF91CF9172
:043156000C94B334EE
:10315A00ADE0B0E0E3EBF8E10C941D3089879A8783
:10316A006B837C83FA01DB011296CD90DC90139776
:10317A0014968D919C9115978D839E83ED90FC906A
:10318A001197E982FA8216960D90BC91A02DAF8311
:10319A00B887208031804280538064807580868021
:1031AA0097808101B42DF52DE62D7B868C869D8630
:1031BA009101A201B301C401A0E00E9416334CF4AC
:1031CA000E9431328901B42FF52FE62F7B878C8735
:1031DA009D87D7FC04C0E894E1F8E982FA8291015C
:1031EA00A201B301C401A0E0ED80FE800E94163363
:1031FA001CF0898182FF04C081E0E81AF10805C049
:10320A0083FF03C091E0E91AF108CE0101965C013F
:10321A008AE0C82ED12C2B2F3F2F4E2F5B856C8531
:10322A007D858B819C810E94251AFC019101A20156
:10323A00B301C401A0E00E9416331CF0898182FF09
:10324A0012C031970F8118850E0F1F1F9101A2011D
:10325A00B301C401A0E00E94163314F08BE201C04E
:10326A008DE2D80108C083FF07C03197AF81B885C6
:10327A00AE0FBF1F80E28C9309811A81AB81BC819A
:10328A0018964D915C911997415051094E1B5F0B4D
:10329A006F8178856E0F7F1F2D813E8189859A8582
:1032AA000E944A239C01E985FA858081918190FFD9
:1032BA0009C0AB81BC8112968D919C91139782179C
:0E32CA0093070CF4C9012D96E2E10C946630D6
:1032D8000F931F93CF93DF93FC01D90168387105D1
:1032E80031F194F461387105B1F12CF4603871054D
:1032F80009F478C09FC06238710509F459C0643870
:10330800710509F46FC096C0603A710509F448C0A8
:103318002CF46039710509F44BC08CC0603C710510
:1033280009F476C0603F710509F472C083C0CD917D
:10333800DC911197CE0102968D939C93452B39F021
:103348009881892F880F880B908381835BC088813F
:103358008083118268C0CD91DC911197CE010496CB
:103368008D939C93452B99F088819981AA81BB8183
:10337800AC01BD01770F440B542FBA0180839183B0
:10338800A283B383448345834683478328C0088147
:1033980019812A813B81008311832283338345C0AD
:1033A800CD91DC911197CE0102968D939C9323C009
:1033B800CD91DC911197CE0108968D939C937881DD
:1033C80069815A814B813C812D819E818F817083D7
:1033D800618352834383348325839683878381E083
:1033E80090E02AC0CD91DC911197CE0102968D9381
:1033F8009C93452BA1F099812881892F880F880BF0
:103408002083918382838383848385838683E6CF25
:10341800CD91DC911197CE0102968D939C930881F2
:1034280019810083118312821382148215821682F5
:103438001782D5CF80E090E0DF91CF911F910F9157
:023448000895E5
:10344A00A2E1B0E0EBE2FAE10C941D30FC010A8B38
:10345A001B832C83732E642E552E462E7D83CC8699
:10346A00D886AE82BF82868197818A879B87D5015B
:10347A004D915C91228133818085918501971C0150
:10348A0037FF02C021E030E0EA85FB85E80FF91F2B
:10349A0010824701E1E0F0E0E983FA83C9018E195D
:1034AA009F098D879E87DA01A270BB27AF87B88BE9
:1034BA00B885BB0FBB0BB98B1214130474F0A98126
:1034CA00BA81AB2B09F05CC0AE81BF818D919C9112
:1034DA0011978F7E8D939C9353C02A893B814C818F
:1034EA00572D662D752D842D9D81A0E00E941633DF
:1034FA00B1F1E1E02E1A3108FC85F987AF2EB884C4
:10350A00C988DC2CEC2CFC2C0C2D1C2D2A893B8127
:10351A004C81572D662D752D842D9D810E94E13297
:10352A00C90129839A83EA85FB85E20DF31D805D33
:10353A00808381E0881A91082A893B814C81572D22
:10354A00662D752D842D9D810E94E3322A8B3B8343
:10355A004C83752E662E572E482E9D83ADCF8D85B2
:10356A009E85880D991D181619061CF2181419043F
:10357A000CF0A5CFEF85F889EF2B09F0BACF9FCFD2
:0A358A00C1016296E2E10C94663084
:10359400CF93DF93CDB7DEB72F97CDBFDEBF80913A
:1035A400804F882349F1329B67C00E94B83481114F
:1035B4000CC08091854F823041F082E08093854F2A
:1035C40081E080937F4F0E94EA348091854F81305F
:1035D40009F442C078F18330B9F08430F1F40E94E8
:1035E4008E2F81114CC082E08093854F2F96CDBFE2
:1035F400DEBFDF91CF910895329BD7CF81E08093D6
:10360400804F8093814FD1CF84E08093854F2F9654
:10361400CDBFDEBFDF91CF9108950E94B8348823D7
:10362400B1F383E08093854F2F96CDBFDEBFDF914A
:10363400CF9108958091864F8B3059F18AE00E9492
:10364400A932882381F281E08093854F2F96CDBFE4
:10365400DEBFDF91CF9108950E94AE338823B9F283
:10366400CE0101960E94D931811117C082E0809366
:10367400854F1092814FCBCF1092804F96CF82E12D
:1036840093E40E94D12880E00E94B62D1092854FC9
:10369400BECF82E00E94A932D4CFBE01675F7F4FC4
:1036A400CE0101960E946B1B8091864F8B3021F4D2
:1036B4008091814F882341F0BE01675F7F4FCE0127
:1036C40001960E94EB00D5CFCE0109960E94CA2A2A
:0236D400D0CF55
:1036D6008F929F92AF92BF92CF92DF92EF92FF921C
:1036E600DC01FB0111964D915C91129780916E4F12
:1036F60090916F4F481B590B13962D913C9114973F
:1037060080916C4F90916D4F281B390B15968D91BA
:103716009C91169760916A4F70916B4F861B970B21
:103726000090844F02C0559547950A94E2F70090A1
:10373600834F02C0359527950A94E2F70090824F91
:1037460002C0959587950A94E2F7449F6001459FCC
:10375600D00CD00C11244601DD0CAA08BB08229F10
:103766006001239FD00CD00C11240D2C000CEE0808
:10377600FF08C80CD91CEA1CFB1C889F4001899FC6
:10378600900C900C1124092C000CAA08BB08C80C3C
:10379600D91CEA1CFB1CC382D482E582F68240381F
:1037A6005105C4F04FE7408320383105E4F02FE798
:1037B60021838038910504F580386FEF96071CF158
:1037C6008283FF90EF90DF90CF90BF90AF909F9055
:1037D6008F90089540386FEF56079CF440E8408379
:1037E6002038310524F720384FEF340744F420E819
:1037F60021838038910504F38FE78283E2CF21830A
:0C380600D8CF4083D1CF80E88283DBCF95
:10381200A5E1B0E0EFE0FCE10C941D304701580156
:103822000E94C8342B013C01A80197010E94FB337E
:10383200162FC72ED82EF92E862F9C2DAD2DBF2DDB
:1038420089839A83AB83BC83AA81FB81EC81ED805F
:103852003E802F8008850D8B5E2F5F71212F3A2FBE
:103862004F2F60E070E080E090E0211531054105C6
:1038720000E15007610571058105910509F05EC0FF
:103882005E2F6E2D732D822D9D8904E30E94AE2F33
:103892002D873E874F87588B698B7A8B8B8B9C8BBE
:1038A2008D859E8597708F3F974009F447C0A3018D
:1038B2009201612F7C2D8D2D9F2D0E94FA339B0149
:1038C200AC01C501B4010E949F348823B9F1498635
:1038D2005A866B867C8629853A854B855C85C5012F
:1038E200B4010E94FB33B62E872E982EA92E262FC6
:1038F200372F482F592F612F7C2D8D2D9F2D0E9400
:103902009F34811118C02B2D8B2D982DA92DBA2DE6
:1039120089839A83AB83BC833A814B815C816E2D10
:10392200732D822D9D89A1E00E942233122FC32E76
:10393200D42EF52E03C01B2D6401FA2C612F7C2D91
:0C3942008D2D9F2D6596E2E10C946630FF
:10394E004F925F926F927F928F929F92AF92BF92A1
:10395E00CF92DF92EF92FF92CF93DF9300D000D001
:10396E00CDB7DEB76B017C0127E1F694E794D794CF
:10397E00C7942A95D1F796013327263931050CF0D5
:10398E0067C06B017C014B015C0197FF04C0B7FA65
:10399E00B094B7F8B0942B013C012E373105A4F446
:1039AE0020E030E040E05BE4C501B4010E94FB334F
:1039BE0069837A838B839C8320E030E0A901C30165
:1039CE00B2010E94C83444C020E030E040E05BE425
:1039DE00C501B4010E94FB3320E030E040E05BE41F
:1039EE000E94FA33A50194010E94FA332B013C0187
:1039FE0020E030E040E05FE30E94A43418166CF43F
:103A0E00A3019201C501B4010E94FB3320E030E016
:103A1E0040E85FE30E94FA3319C020E030E040E056
:103A2E005FEBC301B2010E949F34A30192011816ED
:103A3E004CF0C501B4010E94FB3320E030E040E8B9
:103A4E005FE302C0C501B4010E94FB33F7FC90583E
:103A5E002496CDBFDEBFDF91CF91FF90EF90DF9028
:103A6E00CF90BF90AF909F908F907F906F905F9010
:043A7E004F900895C8
:103A82004F925F926F927F928F929F92AF92BF926C
:103A9200CF92DF92EF92FF92CF93DF93CDB7DEB753
:103AA2002897CDBFDEBF6B017C01DC01CB0147E172
:103AB200B695A795979587954A95D1F799278F57E8
:103AC2009109873191059CF597FD36C088248A9427
:103AD200982C3FE7A32EB12C04C0B594A7949794D9
:103AE20087948A95D2F7D501C4018C219D21AE21FC
:103AF200BF21892B8A2B8B2BD1F020E030E040E8CC
:103B02005BE7C701B6010E94FB336D837E838F831F
:103B12009887F7FE04C0C80CD91CEA1CFB1C8094D1
:103B22009094A094B094C820D920EA20FB205C2D68
:103B32004D2D3E2D2F2D21C020E030E040E85BE7E7
:103B4200C701B6010E94FB3369837A838B839C830E
:103B5200F7FE0FC0D701C601880F991FAA1FBB1F0E
:103B6200892B8A2B8B2B19F350E040E030E82FEBA6
:103B720004C050E040E030E020E0652F742F832F36
:103B8200922F2896CDBFDEBFDF91CF91FF90EF90AD
:103B9200DF90CF90BF90AF909F908F907F906F906B
:063BA2005F904F900895B2
:103BA8000F93CF93DF93CDB7DEB72E97CDBFDEBF90
:103BB8008FE38093FE4E8FEF8093FF4E02E09E01CD
:103BC800235F3F4F42E06EEF7EE48AE30E943D218F
:103BD8008823D9F08E858C7790E095958795959573
:103BE80087958093774F80E48093FE4E83E080939F
:103BF800FF4E0CE09E012F5F3F4F42E06EEF7EE4E8
:103C08008AE30E943D21811108C080E02E96CDBF35
:103C1800DEBFDF91CF910F91089589819A8198270E
:103C2800892798278093D74E9093D84E8B819C8173
:103C38009827892798278093D94E9093DA4E8D81BB
:103C48009E819827892798278093DB4E9093DC4E96
:103C58008F8198859827892798278093DD4E9093A0
:103C6800DE4E89859A859827892798278093DF4E85
:103C78009093E04E8B859C85982789279827809379
:103C8800E14E9093E24E81E02E96CDBFDEBFDF91EC
:063C9800CF910F91089589
:103C9E008F929F92AF92BF92CF92DF92EF92FF924E
:103CAE000F931F93CF93DF93FC0143815481658162
:103CBE00768100914A4F10914B4F20914C4F30918D
:103CCE004D4F401751076207730770F00091464F32
:103CDE001091474F2091484F3091494F04171507C7
:103CEE002607370708F044C0EC0187E490E40E94F1
:103CFE00D128BB80AC809D808E80F0904A4FE090A2
:103D0E004B4FD0904C4FC0904D4FC091464FD091DD
:103D1E00474F1091484F0091494F0E94D2348F92D5
:103D2E009F92AF92BF92CF92DF92EF92FF920F933C
:103D3E001F93DF93CF9326E630E43F932F939F9309
:103D4E008F930E94FD310E94AE2B8DB79EB7409689
:103D5E008DBF9EBF80E0DF91CF911F910F91FF909D
:103D6E00EF90DF90CF90BF90AF909F908F9008957F
:043D7E0081E0F1CF20
:103D820010C00E940F3458F00E94083440F029F409
:103D92005F3F29F00C94673451110C9417340C9442
:103DA200D8340E94892E68F39923B1F3552391F3F5
:103DB200951B550BBB27AA2762177307840738F098
:103DC2009F5F5F4F220F331F441FAA1FA9F335D0F5
:103DD2000E2E3AF0E0E832D091505040E695001CA9
:103DE200CAF72BD0FE2F29D0660F771F881FBB1F63
:103DF200261737074807AB07B0E809F0BB0B802D41
:103E0200BF01FF2793585F4F3AF09E3F510578F06C
:103E12000C9467340C9417345F3FE4F3983ED4F368
:103E2200869577956795B795F7959F5FC9F7880F40
:103E3200911D9695879597F90895E1E0660F771F92
:103E4200881FBB1F621773078407BA0720F0621B23
:0E3E5200730B840BBA0BEE1F88F7E0950895F2
:103E6000CF93DF93DC01F90164387105D9F164F473
:103E70006138710521F16238710509F440C060387C
:103E8000710509F054C02EC060397105C1F184F488
:103E90006838710509F04BC0C081D181CE0102960E
:103EA00080839183E881F981ED93FC9340833CC04A
:103EB000603A7105B9F0603C7105A1F038C0C0816D
:103EC000D181CE01029680839183E881F981ED93BF
:103ED000FC93052E000C660B770B408351836283A5
:103EE000738322C0C081D181CE01029680839183E9
:103EF000E881F981ED93FC934083518315C0C08123
:103F0000D181CE01029680839183E881F981ED937E
:103F1000FC9340835183852F880F880B8283838392
:103F2000848385838683878381E090E002C080E07C
:083F300090E0DF91CF910895AC
:103F38000FC00E94083438F00E940F3420F09523F7
:103F480011F00C9467340C94D83411240C94173461
:103F58000E94892E70F3959FC1F3950F50E0551F6D
:103F6800629FF001729FBB27F00DB11D639FAA27C6
:103F7800F00DB11DAA1F649F6627B00DA11D661F15
:103F8800829F2227B00DA11D621F739FB00DA11D36
:103F9800621F839FA00D611D221F749F3327A00DF0
:103FA800611D231F849F600D211D822F762F6A2F8C
:103FB80011249F5750409AF0F1F088234AF0EE0FF1
:103FC800FF1FBB1F661F771F881F91505040A9F71E
:103FD8009E3F510580F00C9467340C9417345F3F72
:103FE800E4F3983ED4F3869577956795B795F7955A
:103FF800E7959F5FC1F7FE2B880F911D96958795D2
:0440080097F9089587
:10400C00A2E0B0E0ECE0F0E20C941D301C014B019E
:10401C00FA01DB0112962D913C91139714964D9059
:10402C005C9015978D919C91119789839A83169624
:10403C006D907C90179737FD03C08D7F89839A8391
:10404C000081118122813381448155816681778180
:10405C00FE0131965F0188E0C82ED12C7201C4019B
:10406C000E94251A298124FF06C00197F301E80F4D
:10407C00F91F20E32083298123FF06C00197F30158
:10408C00E80FF91F20E2208309811A81D4011896C8
:10409C004D915C91199741505109481B590BB30133
:1040AC00680F791F9201C1010E944A239C01F10102
:1040BC008081918190FF08C0D40112968D919C91C2
:1040CC001397821793070CF4C9012296E2E10C9422
:0240DC0066304C
:1040DE0090918D4F911116C0982F9B7F913209F4BC
:1040EE0046C08D3009F457C08E33E9F1E091924FFE
:1040FE00F0E0E45DF44B80838091924F8F5F80936C
:10410E00924F08959091934F9817B9F08D30A9F072
:10411E008A3099F08032A9F3E091914FF0E09FE957
:10412E00980F9A3108F48052E25AF14B80838091B5
:10413E00914F8F5F8093914F089584E08093660432
:10414E00E091914FF0E0E25AF14B108210928D4FB8
:10415E0080918F4F8F5F80938F4F8091914F8F5FA4
:10416E008093914F089591E090938C4FBFCF94E040
:10417E0090936504E091914FF0E0E25AF14B808309
:10418E009091914F9F5F9093914F8093934F81E0C9
:0E419E0080938D4F089591E090938E4FA7CFA0
:1041AC0011C00E94083438F00E940F3420F039F40A
:1041BC009F3F19F426F40C94D8340EF4E095E7FBE9
:1041CC000C946734E92F0E94892E58F3BA176207B2
:1041DC0073078407950720F079F4A6F50C94163430
:1041EC000EF4E0950B2EBA2FA02D0B01B901900106
:1041FC000C01CA01A0011124FF27591B99F0593F4A
:10420C0050F4503E68F11A16F040A22F232F342F91
:10421C004427585FF3CF469537952795A795F040DF
:10422C005395C9F77EF41F16BA0B620B730B840BF4
:10423C00BAF09150A1F0FF0FBB1F661F771F881FAC
:10424C00C2F70EC0BA0F621F731F841F48F4879504
:10425C0077956795B795F7959E3F08F0B0CF9395F6
:0E426C00880F08F09927EE0F97958795089513
:10427A00EF92FF920F931F93CF93DF9390912509AB
:10428A0093709330A1F1E901142F7B0190E0880F1C
:10429A00991F809327090E94EE2E882341F1612FEE
:1042AA00C7010E94302C182F882351F180912709C9
:1042BA0081608093270981E0809324090DC0809151
:1042CA00250982FD0DC08091250983FD09C08091D1
:1042DA0025098370833021F08091250985FFEFCF6E
:1042EA00809125098C71B9F083E08093240910E04C
:1042FA00812FDF91CF911F910F91FF90EF90089539
:10430A0083E080932409812FDF91CF911F910F9130
:10431A00FF90EF9008950E948E338111E5CF602FB0
:08432A00CE010E94D72CE4CF64
:10433200CF92DF92EF92FF92CF936B017C0180913B
:10434200874F863491F18B3409F440C08334D1F025
:1043520083E996E40E94D128C091874F0E94D2340B
:104362001F92CF9323EC36E43F932F939F938F9327
:104372000E94EB310E94AE2B0F900F900F900F9086
:104382000F900F90C092524FD092534FE092544FE1
:10439200F092554FB701A6018EE390E0CF91FF90C6
:1043A200EF90DF90CF900C94D63320E030E040E0E5
:1043B20052E4C701B6010E94FA3326E838E34EE020
:1043C2005FE30E94C8346B017C01DCCF23E333E955
:1043D20048E853E4C701B6010E94FA336B017C013D
:0243E200D1CF39
:1043E400CF92DF92EF92FF92CF936B017C01809189
:1043F400874F863491F18B3409F440C08334D1F073
:1044040083E996E40E94D128C091874F0E94D23458
:104414001F92CF9323EC36E43F932F939F938F9374
:104424000E94EB310E94AE2B0F900F900F900F90D3
:104434000F900F90C0924E4FD0924F4FE092504F3A
:10444400F092514FB701A6018EE390E0CF91FF9017
:10445400EF90DF90CF900C94D63320E030E040E032
:1044640052E4C701B6010E94FA3326E838E34EE06D
:104474005FE30E94C8346B017C01DCCF23E333E9A2
:1044840048E853E4C701B6010E94FA336B017C018A
:02449400D1CF86
:10449600A2E0B0E0E1E5F2E20C941D303C014B01F4
:1044A600FA01DB0112962D913C91139714964D90CB
:1044B6005C9015978D919C91119789839A83169696
:1044C6002D903C90179737FD03C08D7F89839A8383
:1044D60000811181228133814481558166817781F2
:1044E600FE0131965F018AE0C82ED12C7201C4010B
:1044F6000E94251A09811A81D40118964D915C9162
:10450600199741505109481B590BB101680F791F82
:104516009201C3010E944A239C01F301808191818B
:1045260090FF08C0D40112968D919C911397821723
:0E45360093070CF4C9012296E2E10C94663062
:10454400CF936EE77FE48BE00E947E30C82F8823F0
:1045540009F448C040914A4F50914B4F60914C4FE1
:1045640070914D4F88E490E00E94D6334091464FBD
:104574005091474F6091484F7091494F8CE490E0BF
:104584000E94D63360916E4F70916F4F80E590E03A
:104594000E94B33460916C4F70916D4F82E590E04E
:1045A4000E94B33460916A4F70916B4F84E590E040
:1045B4000E94B3346091844F86E590E00E944E30AF
:1045C4006091834F87E590E00E944E306091824F66
:1045D40088E590E00E944E3060917E4F87E490E041
:0A45E4000E944E308C2FCF910895F5
:1045EE008091894F8230F1F080F4882391F08130F0
:1045FE0089F40E944F3481112EC085E395E40E9408
:10460E00D12885E08093894F08958330B9F08430A6
:10461E0009F4089584E196E40E94E43484E08093E2
:10462E00894F08950E940331882399F30E94D41D67
:10463E00882309F183E08093894F089588E0809361
:10464E0027040E944411882371F081E08093884FE3
:10465E001092894F08958BE695E40E94D12882E04E
:10466E008093894F089582ED95E40E94D12885E0CC
:10467E008093894F089587E995E40E94D12885E0BB
:06468E008093894F08959E
:10469400A0E1B0E0E0E5F3E20C941F305C013B01E3
:1046A4006A017901280181E04822552400FD14C0E3
:1046B400421753078CF487010C191D094801A801FE
:1046C4000131110510F040E150E060E270E0CE01EC
:1046D40001960E9474330AC0A601B301C5010E9469
:1046E400CA2FCE14DF043CF3C60120C000311105EB
:1046F40058F040E150E0BE016F5F7F4FC5010E945A
:10470400CA2F00511109F2CFA4014F705527BE01E1
:104714006F5F7F4FC5010E94CA2F4114510429F4D1
:10472400A601B301C5010E94CA2FC7016096E0E14A
:044734000C94683049
:1047380088249924F401E401B0E49F93AA279A15E8
:104748008B049C04ED05FE05CF05D007A10798F45E
:10475800AD2FDC2FCF2FFE2FE92D982C892E982FE7
:10476800872F762F652F542F432F322F2227B850AB
:1047780031F7BF9127C01B2EBF91BB27220F331FD4
:10478800441F551F661F771F881F991F881C991C77
:10479800EE1FFF1FCC1FDD1FAA1FBB1F8A149B041F
:1047A800EC05FD05CE05DF05A007B10748F08A181E
:1047B8009B08EC09FD09CE09DF09A00BB10B2160AC
:1047C8001A94E1F62EF49401AF01BE01CD01000C5C
:0247D800089542
:1047DA001F920F920FB60F9211240BB60F922F93BE
:1047EA003F934F935F936F937F938F939F93AF936F
:1047FA00BF93EF93FF938091430180FF0FC081E045
:10480A008093754FE091624FF091634F309709F0B2
:10481A00099580914301816080934301809143010E
:10482A0081FF0FC081E08093744FE091604FF09157
:10483A00614F309709F00995809143018260809316
:10484A004301FF91EF91BF91AF919F918F917F911A
:10485A006F915F914F913F912F910F900BBE0F90E7
:08486A000FBE0F901F9018957E
:104872000E94BC340E94CD2E8FE690E20E946D34DD
:1048820089E396E10E949A3485EC92E30E947734A0
:10489200C6B1C2FBCC27C0F98C2F0E942C318C2FC1
:1048A2000E945A2C8C2F0E94312878940E94E23464
:1048B200A8950E9495300E94CA1A0E94DE33811187
:1048C20020C00E94903481110DC00E945B34882365
:1048D20011F08895EDCF0E948B340E948634882394
:1048E200E1F3E6CF0E9495340E94EC33882369F30A
:1048F2000E94DE33882349F30E94B7320E94F927CF
:08490200E4CF0E94F722DDCF93
:10490A000F931F93CF93DF93DB012D913C91119766
:10491A0030FF25C016964D915C91179714962D91EC
:10492A003C9115974217530778F41296ED91FC9132
:10493A001397808312962D913C9113972F5F3F4FC7
:10494A0012962D933C93139716962D913C91179797
:10495A002F5F3F4F16962D933C93179715C01C96C1
:10496A00ED91FC911D97309719F48FEF9FEF0CC0D2
:10497A008B01EC010995892BC1F7F8018681978192
:10498A00019686839783CE01DF91CF911F910F9174
:02499A0008957E
:10499C0088E490E00E94243460934A4F70934B4F0C
:1049AC0080934C4F90934D4F8CE490E00E942434B4
:1049BC006093464F7093474F8093484F9093494F65
:1049CC0080E590E00E94AE3480936E4F90936F4FD1
:1049DC0082E590E00E94AE3480936C4F90936D4FC3
:1049EC0084E590E00E94AE3480936A4F90936B4FB5
:1049FC0086E590E00E94CE338093844F87E590E06B
:104A0C000E94CE338093834F88E590E00E94CE3392
:0C4A1C008093824F8BE08093864F0895BA
:104A28000E949A2590918A4F9330F9F048F491307A
:104A3800A1F0923071F4813071F18330F9F008956A
:104A4800953041F0963021F483E080938A4F0895A1
:104A5800089508958430C1F308950E94242D882371
:104A680071F382E080938A4F0895823081F0833019
:104A780031F769E18AE29BE40C94DA2B69E18AE276
:104A88009BE40E94DA2B85E080938A4F089585E0A5
:104A980080938A4F089562E388E29BE40E94DA2BB0
:084AA80083E080938A4F08951A
:104AB000EF92FF920F931F93CF93DF930F92CDB797
:104AC000DEB769837A01022F60E00E944A2D182F19
:104AD000811109C0812F0F90DF91CF911F910F910C
:104AE000FF90EF90089561E0CE0101960E94282B7F
:104AF000182F811104C083E080930409EBCF8091CB
:104B0000070981608093070981E0809304090E946E
:104B1000562B182F882379F30E947C31882329F0A3
:104B200083E08093040910E0D5CF602FC7010E9475
:044B30006A2AD0CF4E
:104B3400CF930E945F32811103C080E0CF9108952A
:104B44008FED99E40E94D1280E94E034C82F0E947E
:104B5400D2346C2F0E94A1290E94AE2B89EF99E4D4
:104B64000E94D1288CEF99E40E944F33882319F0D6
:104B740081E0CF91089583E09AE40E944F33882323
:104B840019F084E0CF9108958EE09AE40E944F33A7
:104B9400882311F083E0D2CF86E19AE40E944F3358
:104BA400882311F082E0CACF82E29AE40E94D128DD
:044BB40080E0C4CF0A
:104BB800CF930E946E32882301F18EE49AE40E941A
:104BC800D1280E94E034C82F0E94D2346C2F0E9452
:104BD800A1290E94AE2B89EF99E40E94D128E09187
:104BE800704FF091714F309701F109958823C1F00A
:104BF80086E69AE4CF910C9405298DE79AE40E9401
:104C0800D1280E94E034C82F0E94D2346C2F0E9411
:104C1800A1290E94AE2B89EF99E4CF910C94D12859
:0E4C280081E79AE4CF910C940529CF9108956D
:104C3600EF92FF920F931F93CF93DF93FC01208196
:104C4600222369F1D62F7C018091440880648093E9
:104C5600440880818823A1F0C0E08F010E94373488
:104C66008823E1F3F80180810E944132CF5F8701FA
:104C76000C0F111DF8019081992311F0CF3F71F7A8
:104C86000E9437348823E1F38D2F0E9441320E941F
:104C960037348823E1F30E9486338111FCCFDF91FC
:0C4CA600CF911F910F91FF90EF900895A7
:104CB200DC0180918F4F8823A9F1662399F19091AD
:104CC200904FE92FF0E0E25AF14B8081882351F1B5
:104CD20020E040E012C0442331F08081FD01E20F68
:104CE200F11D80832F5F9F5FE92FF0E0E25AF14BC5
:104CF2003081332371F0261760F430813C3259F74A
:104D020041E09F5FE92FF0E0E25AF14B308131112F
:104D1200F2CF442339F0261739F0A20FB11D1C92AD
:0C4D220081E0089580E008952150F7CF53
:104D2E00EF92FF920F93CF93DF93CDB7DEB7269717
:104D3E00CDBFDEBF7C0184E28093FE4E85E0809382
:104D4E00FF4E06E09E012F5F3F4F42E06EEF7EE486
:104D5E008AE30E943D218823B9F089819A819827A0
:104D6E0089279827F701808391838B819C819827CF
:104D7E0089279827828393838D819E8198278927FF
:104D8E0098278483958381E02696CDBFDEBFDF9181
:0A4D9E00CF910F91FF90EF90089560
:104DA800E89409C097FB3EF49095809570956195BD
:104DB8007F4F8F4F9F4F9923A9F0F92F96E9BB2773
:104DC8009395F695879577956795B795F111F8CFEF
:104DD800FAF4BB0F11F460FF1BC06F5F7F4F8F4F5A
:104DE8009F4F16C0882311F096E911C0772321F050
:104DF8009EE8872F762F05C0662371F096E8862FE8
:104E080070E060E02AF09A95660F771F881FDAF73E
:0A4E1800880F9695879597F9089585
:104E220060EC7DE08CE390E00E94B33480EC9DE086
:104E32000E94922D4DEC5CEC60E072E48EE390E017
:104E42000E94D6338DEC9CECA0E0B2E48093524FEA
:104E52009093534FA093544FB093554F40E050E07E
:104E620060E271E482E490E00E94D63380E090E058
:104E7200A0E2B1E480934E4F90934F4FA093504FD6
:104E8200B093514F63E486E490E00E944E3083E495
:064E92008093874F089594
:104E98001092594F1092584F1092574F1092564FE8
:104EA80010928E4F80918B4FE82FF0E0E45DF44B29
:104EB80090819D3009F19091924F8917E9F08F5FA9
:104EC80030E050E009C09091924F41E0480F9817A8
:104ED80059F0842F532F322F2081E82FF0E0E45D22
:104EE800F44B90819D3079F75093584F3093574F3A
:104EF8002093564F80938B4F80818D3009F0089511
:044F08001082089576
:104F0C00A0E1B0E0ECE8F7E20C942930FB01BA0127
:104F1C00AE014F5F5F4F7A0140E1D7011D924A9578
:104F2C00E9F742E051E049835A838B839C83F7FF76
:104F3C0009C08FE490E080930040909301408FEF84
:104F4C009FEF14C0A9018C013197ED83FE83C7013B
:104F5C000E9436304F8158852D813E814217530770
:104F6C0008F49A01F801E20FF31F10826096E6E054
:044F7C000C947230EF
:104F8000AC01FA0190814F5F5F4F9032D1F3292F2E
:104F9000092E000C330B295031092530310588F3D7
:104FA0009B3209F540E050E0319602C040E050E00D
:104FB00080E090E06AE02191022E000C330B205338
:104FC00031092A30310548F4689FD001699FB00D3E
:104FD0001124CD01821B930BEECF452B49F4919503
:104FE0008195910908959D3209F741E050E0DCCFA9
:024FF000089522
:104FF2000F931F93CF93DF938091884F882341F0C3
:105002001092884FDF91CF911F910F910C941F172F
:1050120081E097E40E94D1280E947C34182F092F46
:105022000E948134EC010E94D2340F931F93DF93CC
:10503200CF9325E337E43F932F939F938F930E945F
:10504200EB310E94AE2B8DB79EB708968DBF9EBFE7
:1050520088E597E4DF91CF911F910F910C94E4348E
:10506200CF93C82F81E894E40E94D128CC23D1F0B9
:1050720081E00E94E72FC82F0E94CC348823D1F010
:105082008DEA94E40E94D12881E00E94AE2CC111E5
:1050920019C084E195E40E94D12885E08093894F6C
:1050A200CF91089580E00E94E72FC82F0E94CC3450
:1050B2008111E6CF87ED94E40E94D1280E94112746
:0E50C200CC2339F38FE095E4CF910C94D128E4
:1050D0001F920F920FB60F9211240BB60F922F93BF
:1050E0003F934F935F936F937F938F939F93AF9370
:1050F000BF93EF93FF9381E08093764FE091644FED
:10510000F091654F309709F00995809153018160C6
:1051100080935301FF91EF91BF91AF919F918F9138
:105120007F916F915F914F913F912F910F900BBEA7
:0A5130000F900FBE0F901F9018950E
:10513A001F920F920FB60F9211240BB60F922F9354
:10514A003F934F935F936F937F938F939F93AF9305
:10515A00BF93EF93FF9384E08093670480914008A4
:10516A00E0915A4FF0915B4F309709F009951092F0
:10517A00724FFF91EF91BF91AF919F918F917F9164
:10518A006F915F914F913F912F910F900BBE0F90AE
:08519A000FBE0F901F90189545
:1051A200EF92FF920F931F93CF93FC012081222352
:1051B20029F17C0180916408806480936408808175
:1051C2008823A1F0C0E08F010E9443348823E1F3D9
:1051D200F80180810E945032CF5F87010C0F111DB0
:1051E200F8019081992311F0CF3F71F70E94433467
:1051F2008823E1F30E94A6338111FCCFCF911F9146
:085202000F91FF90EF90089559
:10520A00EF92FF920F931F93CF93FC0120812223E9
:10521A0029F17C018091440880648093440880814C
:10522A008823A1F0C0E08F010E9437348823E1F37C
:10523A00F80180810E944132CF5F87010C0F111D56
:10524A00F8019081992311F0CF3F71F70E9437340A
:10525A008823E1F30E9486338111FCCFCF911F91FD
:08526A000F91FF90EF900895F1
:10527200DC018C91882309F180918F4F8823E9F01A
:105282009091904F9F5F20E0EFEFE90FF0E0E25A3C
:10529200F14B3081332389F03081FD01E20FF11DA2
:1052A2004081431769F020E09F5FEFEFE90FF0E0E4
:1052B200E25AF14B30813111EFCF80E090E0089556
:1052C2002F5FFD01E20FF11D80818111EDCF892F4A
:0852D20090E0825A914B08950F
:1052DA00A7E0B0E0E3E7F9E20C9423305C017A013D
:1052EA00C90127E0E3EEFEE4DE01119601900D927A
:1052FA002A95E1F7FB01C280D380848095800081E2
:10530A001181452B21F49E012F5F3F4F79010097B0
:10531A0019F4C7010E94D332D7FC04C0C816D906B3
:10532A0008F4C6019401AC01B701C5010E944A23E1
:08533A002796ECE00C946C30A6
:10534200CF93DF93EC01662321F180918F4F882365
:1053520001F13091904FE32FF0E0E25AF14B80815E
:105362008823D1F0DE01462F430F932F07C0E92F88
:10537200F0E0E25AF14B2081222379F020812D9333
:105382009F5F592F531B4913F2CFC60FD11D21978F
:105392001882DF91CF91089550E0C50FD11D188278
:0653A200DF91CF91089598
:1053A800CF92DF92EF92FF920F931F93CF937C01DE
:1053B8006B0100E010E003C00E151F0578F4C091E2
:1053C8008E4FC11114C00E94C0348111F5CF0E94C4
:1053D80049340F5F1F4F0E151F0588F38C2FCF918F
:1053E8001F910F91FF90EF90DF90CF9008950E944A
:1053F8004C27B60186E59FE40E94FE2DC1E0892B6B
:0654080069F7C0E0EBCFE4
:10540E001F920F920FB60F9211240BB60F922F937D
:10541E003F934F935F936F937F938F939F93AF932E
:10542E00BF93EF93FF93E0915E4FF0915F4F3097F4
:10543E0009F009958091C10081608093C100FF91B0
:10544E00EF91BF91AF919F918F917F916F915F91EE
:10545E004F913F912F910F900BBE0F900FBE0F905B
:04546E001F901895DE
:105472001F920F920FB60F9211240BB60F922F9319
:105482003F934F935F936F937F938F939F93AF93CA
:10549200BF93EF93FF9380916008E0915C4FF0918E
:1054A2005D4F309709F009951092734FFF91EF917C
:1054B200BF91AF919F918F917F916F915F914F912A
:1054C2003F912F910F900BBE0F900FBE0F901F9028
:0254D20018952B
:1054D400FF920F931F93CF93DF9320E2209305094C
:1054E4006623E9F0D62F8C01C0E082E0F82E0AC0D2
:1054F40080910809F80181938F01CF5FDC1779F05F
:10550400F09204090E94562B8111F2CF83E080931C
:105514000409DF91CF911F910F91FF90089587E0C7
:1055240080930409DF91CF911F910F91FF9008950B
:105534001F93CF93DF9380912C4C882329F1809182
:10554400440880648093440880912C4C8823A1F003
:1055540010E0CCE2DCE40E9437348823E1F3888154
:105564000E9441321F5FC12FD0E0C45DD34B8881BC
:10557400882311F01F3F79F70E9437348823E1F321
:105584000E9486338111FCCFDF91CF911F91089542
:105594000E944F1E882399F080917D4F811123C072
:1055A40088E0809326048091794F8431B1F0909102
:1055B4007D4F9A3091F08F5F8093794F0895809159
:1055C4007D4F843619F08F5F80937D4F88E0809300
:1055D40025048091794F843151F781E080937F4F86
:0E55E4001092794F0895815080937D4FD9CF5A
:1055F2000E94912E88F09F5798F0B92F9927B751A2
:10560200B0F0E1F0660F771F881F991F1AF0BA9564
:10561200C9F714C0B13091F00E941634B1E0089578
:105622000C941634672F782F8827B85F39F0B93F6A
:10563200CCF3869577956795B395D9F73EF4909517
:0E5642008095709561957F4F8F4F9F4F089513
:105650000F931F93CF93DF936623E1F0EC0161502A
:10566000062F10E00F5F1F4F080F191F07C0809112
:10567000050984FD15C0C017D10761F08991809399
:1056800008090E94562B8111F2CFDF91CF911F9113
:105690000F91089581E0DF91CF911F910F910895AF
:0C56A00080E0DF91CF911F910F910895E1
:1056AC00CF93DF930E944934D0E013C0DA30F9F085
:1056BC008091050985FD1CC08091050982FD18C0EB
:1056CC008091050983FD14C0809105098370833096
:1056DC0079F00E94B834C82F882349F00E94C03456
:1056EC008111E4CFDF5F0E944934DA3009F7C0E062
:0856FC008C2FDF91CF9108957E
:1057040081E0809345018093550183E080934201B9
:10571400109247018091410182FDFCCF80E09FE01F
:1057240080934A0190934B018091410183FDFCCF0A
:1057340080EC9DE080934C0190934D018091410158
:1057440080FDFCCF89EB8093400181E0809352017E
:0857540081E3809350010895E8
:10575C001F93CF93DF9380912B4D882309F1809178
:10576C00640880648093640810E0CBE2DDE40E945E
:10577C0043348823E1F388810E9450321F5FC12F8C
:10578C00D0E0C55DD24B8881882311F01F3F79F79B
:10579C000E9443348823E1F30E94A6338111FCCF8D
:0857AC00DF91CF911F910895D8
:1057B4001F93CF93DF93EC01162FA8958AEC9AE4FC
:1057C4000E94D128CE010E94D1288FED9AE40E9434
:1057D400D1286DE0CE010E941B2666EC7AE4812F6D
:1057E40090E00E94D429811107C089EB9AE4DF91EB
:1057F400CF911F910C94D12884EB9AE4DF91CF913F
:065804001F910C94D12855
:10580A00EF92FF920F931F93CF937C0100E010E079
:10581A0003C00E151F0578F4C0918C4FC11112C038
:10582A000E94C0348111F5CF0E9449340F5F1F4F87
:10583A000E151F0588F38C2FCF911F910F91FF90A2
:10584A00EF90089510928C4F8C2FCF911F910F914A
:06585A00FF90EF9008959D
:10586000662321F1FC016150262F30E02F5F3F4F6E
:10587000280F391F8191809328090DC08091250937
:1058800082FD0DC08091250983FD09C08091250905
:105890008370833021F08091250985FFEFCF8091BF
:1058A000250984FD05C0E217F30721F781E008957B
:0458B00080E00895F7
:1058B400CF93C82F86B182FB882780F98093804FCD
:1058C40082E090E40E94D1280E948E2F882389F0E0
:1058D4008C2F0E94B62D882329F082E490E4CF9186
:1058E4000C94D1281092864F88E390E4CF910C94C5
:1058F400D1288FE290E40E94D12882E08093854FE2
:04590400CF910895A2
:1059080080918F4F882329F180918F4F8150809308
:105918008F4F80918F4F81110FC010928F4F10922F
:10592800904F1092914F0895E091904FF0E0E25A15
:10593800F14B8081813269F08091904F8F5F809325
:10594800904FE091904FF0E0E25AF14B80818D301A
:0459580059F708955E
:10595C00882329F18CE390E00E94AE340E94922DB2
:10596C008EE390E00E9424346093524F7093534F17
:10597C008093544F9093554F82E490E00E942434CE
:10598C0060934E4F70934F4F8093504F9093514F65
:10599C0086E490E00E94CE338093874F08950C9458
:0259AC001127C1
:1059AE0020E2209325096623F1F0FC0190E022E02D
:1059BE000DC08091250982FD0DC08091250983FDC2
:1059CE0009C0809125098370833021F080912509CB
:1059DE0085FFEFCF8091280981939F5F691719F09A
:0E59EE0020932409F3CF87E0809324090895C5
:1059FC000F93CF93DF93EB019093FE4E8093FF4E6A
:105A0C0002E020E03FE442E06EEF7EE48AE30E9495
:105A1C003D21882371F08091004F9091014F982780
